:0400000084EF01F098
:0E0008005682FACF69F0FBCF6AF09EEF30F01F
:100018005680D8CF41F0E8CF42F0E0CF43F0FACF96
:1000280044F0FBCF45F0E9CF46F0EACF47F0E1CF07
:1000380048F0E2CF49F0D9CF4AF0DACF4BF0F3CF0E
:100048004CF0F4CF4DF0F6CF4EF0F7CF4FF0F8CF9D
:1000580050F0F5CF51F0F2A490D0F298D59E340E1E
:10006800D76EE00ED66ED58E54A80CD02950020D4E
:10007800010EF324D96E000EF420DA6E880EDE6EBF
:10008800130EDD6E2950020D010EF324D96E000EF9
:10009800F420DA6E010EDB500EE10A0EDE5CD8B0F9
:1000A8000AD02950010D830EF324D96E010EF420D5
:1000B800DA6E010E40D02950020D010EF324D96EDC
:1000C800000EF420DA6E010EDB502CE1030EDE5C2C
:1000D800D8A055AC27D054B425D02950D8B42CD0AA
:1000E8002904D8B429D0000E0101546F040E01016F
:1000F800536F5EEC33F00009D8B4FBD7AA0E2D6E0F
:10010800000E2E6E000E2F6E000E306E530E316EE6
:10011800010E326E080E336EBC0E346EF2EC0FF028
:10012800FF000AD02950010D830EF324D96E010E69
:10013800F420DA6E000EDF6E292A080E2918D8A4DA
:1001480002D0000E296E000E526E2950010D000ECD
:10015800F324D96E010EF420DA6EDF50526E52C0CD
:1001680080FF93908A80140EE82EFED754888A90D8
:100178009380F292F288F294F18CA4A0A4B201D0F8
:100188009BD0440E2D6E010E2E6EFFEC15F00D0E59
:1001980001014419010145110101461101014711ED
:1001A800D8B45492070E0101441901014511010107
:1001B800461101014711D8A42BD001015205D8B42A
:1001C80027D0000E1A6E000E196E49C11BF01C6A6A
:1001D8001B503D6E010148511B6E3DC01CF04BC1C8
:1001E8001DF01E6A1D503D6E01014A511D6E3DC035
:1001F8001EF01B501D243D6E1C501E203E6ED890D4
:100208003E303F6E3D30196E3FC01AF0548A548C10
:100218000A0E0101441901014511010146110101AC
:100228004711D8A40CD001014805D8A403D05480A4
:10023800818C05D054908198819A819C55980C0E98
:10024800010144190101451101014611010147113C
:10025800D8B4558C060E010144190101451101015C
:10026800461101014711D8A425D0000E536E070E80
:10027800536401D014D05350010D480EF324D96EA5
:10028800010EF420DA6E5350010D080EF324E16ECE
:10029800010EF420E26EDFCFE7FF532AE8D70D0EF8
:1002A80001014419010145110101461101014711DC
:1002B800D8B4549EA490A49251C0F5FF50C0F8FF42
:1002C8004FC0F7FF4EC0F6FF4DC0F4FF4CC0F3FF20
:1002D8004BC0DAFF4AC0D9FF49C0E2FF48C0E1FF7E
:1002E80047C0EAFF46C0E9FF45C0FBFF44C0FAFF2C
:1002F80043C0E0FF42C0E8FF41C0D8FF569010005D
:04030800F1EF31F0F0
:100D000000063C04427D9F6A425C900142604DBBFC
:100D10004051EC473EDE8D1FBB063C0442C0598B60
:100D20004274044442F99B4F410000803FECF34A77
:100D300048359595C717C1DC45FDDB6DC372B333EC
:100D4000402B3401487F9DB045E7FFD94200008029
:100D50003F000001806F000180510001D8A458D0ED
:100D600000017B29D8A454D00F01019777C07CF0F3
:100D700078C07DF079C07EF07AC07FF0040E06D096
:100D80000001D8907F337E337D337C33E82EF8D753
:100D90007CC081F07DC082F07EC083F07FC084F093
:100DA000000181510001816F826B836B846B81C074
:100DB00000FF070E000177150001816F000E000192
:100DC00078150001826F000E000179150001836F14
:100DD000000E00017A150001846F81C07CF082C092
:100DE0007DF083C07EF084C07FF0050ED8900001B6
:100DF0007C377D377E377F37E82EF8D77CC081F08F
:100E00007DC082F07EC083F07FC084F081C001FF8E
:100E100000018005D8A458D000017B29D8A454D063
:100E20000F01059777C07CF078C07DF079C07EF027
:100E30007AC07FF0040E06D00001D8907F337E3355
:100E40007D337C33E82EF8D77CC081F07DC082F002
:100E50007EC083F07FC084F0000181510001816F6A
:100E6000826B836B846B81C004FF070E00017715D2
:100E70000001816F000E000178150001826F000EE5
:100E8000000179150001836F000E00017A15000141
:100E9000846F81C07CF082C07DF083C07EF084C00E
:100EA0007FF0050ED89000017C377D377E377F3785
:100EB000E82EF8D77CC081F07DC082F07EC083F040
:100EC0007FC084F081C005FF020E00018019D8A404
:100ED00058D000017B29D8A454D00F01099777C0BE
:100EE0007CF078C07DF079C07EF07AC07FF0040E8F
:100EF00006D00001D8907F337E337D337C33E82EDB
:100F0000F8D77CC081F07DC082F07EC083F07FC0C6
:100F100084F0000181510001816F826B836B846BCF
:100F200081C008FF070E000177150001816F000ED8
:100F3000000178150001826F000E00017915000193
:100F4000836F000E00017A150001846F81C07CF070
:100F500082C07DF083C07EF084C07FF0050ED89003
:100F600000017C377D377E377F37E82EF8D77CC08D
:100F700081F07DC082F07EC083F07FC084F081C0AC
:100F800009FF030E00018019D8A458D000017B2965
:100F9000D8A454D00F010D9777C07CF078C07DF0B5
:100FA00079C07EF07AC07FF0040E06D00001D890A0
:100FB0007F337E337D337C33E82EF8D77CC081F0DD
:100FC0007DC082F07EC083F07FC084F0000181513B
:100FD0000001816F826B836B846B81C00CFF070EF5
:100FE000000177150001816F000E000178150001E6
:100FF000826F000E000179150001836F000E000161
:101000007A150001846F81C07CF082C07DF083C0BE
:101010007EF084C07FF0050ED89000017C377D37CC
:101020007E377F37E82EF8D77CC081F07DC082F014
:101030007EC083F07FC084F081C00DFF040E0001EC
:101040008019D8A458D000017B29D8A454D00F010E
:10105000119777C07CF078C07DF079C07EF07AC0BF
:101060007FF0040E06D00001D8907F337E337D33AD
:101070007C33E82EF8D77CC081F07DC082F07EC042
:1010800083F07FC084F0000181510001816F826B89
:10109000836B846B81C010FF070E00017715000180
:1010A000816F000E000178150001826F000E0001B3
:1010B00079150001836F000E00017A150001846F1D
:1010C00081C07CF082C07DF083C07EF084C07FF060
:1010D000050ED89000017C377D377E377F37E82EAC
:1010E000F8D77CC081F07DC082F07EC083F07FC0E5
:1010F00084F081C011FF050E00018019D8A458D0DA
:1011000000017B29D8A454D00F01159777C07CF03B
:1011100078C07DF079C07EF07AC07FF0040E06D0F2
:101120000001D8907F337E337D337C33E82EF8D7AF
:101130007CC081F07DC082F07EC083F07FC084F0EF
:10114000000181510001816F826B836B846B81C0D0
:1011500014FF070E000177150001816F000E0001DA
:1011600078150001826F000E000179150001836F70
:10117000000E00017A150001846F81C07CF082C0EE
:101180007DF083C07EF084C07FF0050ED890000112
:101190007C377D377E377F37E82EF8D77CC081F0EB
:1011A0007DC082F07EC083F07FC084F081C015FFD7
:1011B000000180510001D8A489D0F70E00017B19ED
:1011C000D8A484D00F010187000177510001816FFD
:1011D000826B836B846B81C003FF000E0001771567
:1011E0000001816FFF0E000178150001826F000E73
:1011F000000179150001836F000E00017A150001CE
:10120000846F81C07CF082C07DF083C07EF084C09A
:101210007FF07DC07CF07EC07DF07FC07EF000015D
:101220007F6B7CC081F07DC082F07EC083F07FC088
:1012300084F081C002FF000179A103D00F01018178
:1012400002D00F010191000179A303D00F010183A6
:1012500002D00F010193000179A503D00F01018B8A
:1012600002D00F01019B000179A703D00F01018D6E
:1012700002D00F01019D000179A903D00F01018F58
:1012800002D00F01019F77C07CF078C07DF079C05B
:101290007EF07AC07FF0160E06D00001D8907F3322
:1012A0007E337D337C33E82EF8D77CC081F07DC05F
:1012B00082F07EC083F07FC084F000018151000184
:1012C000816F826B836B846B81C000FF000180059E
:1012D000D8A489D0F70E00017B19D8A484D00F01BF
:1012E0000587000177510001816F826B836B846BEE
:1012F00081C007FF000E000177150001816FFF0E0E
:10130000000178150001826F000E000179150001BF
:10131000836F000E00017A150001846F81C07CF09C
:1013200082C07DF083C07EF084C07FF07DC07CF001
:101330007EC07DF07FC07EF000017F6B7CC081F0BD
:101340007DC082F07EC083F07FC084F081C006FF44
:10135000000179A103D00F01058102D00F01059191
:10136000000179A303D00F01058302D00F0105937B
:10137000000179A503D00F01058B02D00F01059B59
:10138000000179A703D00F01058D02D00F01059D43
:10139000000179A903D00F01058F02D00F01059F2D
:1013A00077C07CF078C07DF079C07EF07AC07FF0A5
:1013B000160E06D00001D8907F337E337D337C3308
:1013C000E82EF8D77CC081F07DC082F07EC083F02B
:1013D0007FC084F0000181510001816F826B836BBB
:1013E000846B81C004FF020E00018019D8A489D04B
:1013F000F70E00017B19D8A484D00F0109870001E2
:1014000077510001816F826B836B846B81C00BFF0E
:10141000000E000177150001816FFF0E00017815A5
:101420000001826F000E000179150001836F000E2C
:1014300000017A150001846F81C07CF082C07DF0CC
:1014400083C07EF084C07FF07DC07CF07EC07DF0E4
:101450007FC07EF000017F6B7CC081F07DC082F098
:101460007EC083F07FC084F081C00AFF000179A1B3
:1014700003D00F01098102D00F010991000179A366
:1014800003D00F01098302D00F010993000179A550
:1014900003D00F01098B02D00F01099B000179A72E
:1014A00003D00F01098D02D00F01099D000179A918
:1014B00003D00F01098F02D00F01099F77C07CF084
:1014C00078C07DF079C07EF07AC07FF0160E06D02D
:1014D0000001D8907F337E337D337C33E82EF8D7FC
:1014E0007CC081F07DC082F07EC083F07FC084F03C
:1014F000000181510001816F826B836B846B81C01D
:1015000008FF030E00018019D8A489D0F70E00014E
:101510007B19D8A484D00F010D87000177510001F9
:10152000816F826B836B846B81C00FFF000E0001A3
:1015300077150001816FFF0E000178150001826FA1
:10154000000E000179150001836F000E00017A156D
:101550000001846F81C07CF082C07DF083C07EF08A
:1015600084C07FF07DC07CF07EC07DF07FC07EF0C7
:1015700000017F6B7CC081F07DC082F07EC083F073
:101580007FC084F081C00EFF000179A103D00F015C
:101590000D8102D00F010D91000179A303D00F013D
:1015A0000D8302D00F010D93000179A503D00F0127
:1015B0000D8B02D00F010D9B000179A703D00F0105
:1015C0000D8D02D00F010D9D000179A903D00F01EF
:1015D0000D8F02D00F010D9F77C07CF078C07DF099
:1015E00079C07EF07AC07FF0160E06D00001D89048
:1015F0007F337E337D337C33E82EF8D77CC081F097
:101600007DC082F07EC083F07FC084F000018151F4
:101610000001816F826B836B846B81C00CFF040EB1
:1016200000018019D8A489D0F70E00017B19D8A435
:1016300084D00F011187000177510001816F826B07
:10164000836B846B81C013FF000E000177150001CE
:10165000816FFF0E000178150001826F000E0001FE
:1016600079150001836F000E00017A150001846F67
:1016700081C07CF082C07DF083C07EF084C07FF0AA
:101680007DC07CF07EC07DF07FC07EF000017F6B6E
:101690007CC081F07DC082F07EC083F07FC084F08A
:1016A00081C012FF000179A103D00F01118102D086
:1016B0000F011191000179A303D00F01118302D012
:1016C0000F011193000179A503D00F01118B02D0F6
:1016D0000F01119B000179A703D00F01118D02D0DA
:1016E0000F01119D000179A903D00F01118F02D0C4
:1016F0000F01119F77C07CF078C07DF079C07EF03B
:101700007AC07FF0160E06D00001D8907F337E336A
:101710007D337C33E82EF8D77CC081F07DC082F029
:101720007EC083F07FC084F0000181510001816F91
:10173000826B836B846B81C010FF050E00018019E2
:10174000D8A41200F70E00017B19D8A412000F01D3
:101750001587000177510001816F826B836B846B69
:1017600081C017FF000E000177150001816FFF0E89
:10177000000178150001826F000E0001791500014B
:10178000836F000E00017A150001846F81C07CF028
:1017900082C07DF083C07EF084C07FF07DC07CF08D
:1017A0007EC07DF07FC07EF000017F6B7CC081F049
:1017B0007DC082F07EC083F07FC084F081C016FFC0
:1017C000000179A103D00F01158102D00F011591FD
:1017D000000179A303D00F01158302D00F011593E7
:1017E000000179A503D00F01158B02D00F01159BC5
:1017F000000179A703D00F01158D02D00F01159DAF
:10180000000179A903D00F01158F02D00F01159F98
:1018100077C07CF078C07DF079C07EF07AC07FF030
:10182000160E06D00001D8907F337E337D337C3393
:10183000E82EF8D77CC081F07DC082F07EC083F0B6
:101840007FC084F0000181510001816F826B836B46
:10185000846B81C014FF12000F0140B73FD17DC0DF
:1018600045FF00017EAD03D00F01458D02D00F0171
:10187000459D00017EA779D0000177510001836F5B
:10188000846B856B866B83C044FF000E0001771567
:101890000001836FFF0E000178150001846F000EB8
:1018A000000179150001856F000E00017A15000115
:1018B000866F83C07FF084C080F085C081F086C0D1
:1018C00082F080C07FF081C080F082C081F0000192
:1018D000826B7FC083F080C084F081C085F082C0BD
:1018E00086F083C043FF000E0F01426F0F01428755
:1018F000000179A102D00F014281000179A302D039
:101900000F014283000179A502D00F01428B000133
:1019100079A702D00F01428D000179A902D00F01F1
:10192000428F77C07FF078C080F079C081F07AC0B4
:1019300082F0160E06D00001D890823381338033B6
:101940007F33E82EF8D77FC083F080C084F081C059
:1019500085F082C086F0000183510001836F846BA3
:10196000856B866B83C041FF59D00F01429777C0CA
:101970007FF078C080F079C081F07AC082F0040EE8
:1019800006D00001D8908233813380337F33E82E34
:10199000F8D77FC083F080C084F081C085F082C01A
:1019A00086F0000183510001836F846B856B866B29
:1019B00083C041FF070E000177150001836F000E01
:1019C000000178150001846F000E000179150001F7
:1019D000856F000E00017A150001866F83C07FF0CD
:1019E00084C080F085C081F086C082F0050ED8905A
:1019F00000017F37803781378237E82EF8D77FC0E4
:101A000083F080C084F081C085F082C086F00F0131
:101A100042511F0B0F01426F83C042FF00017EA1A4
:101A200003D00F01408102D00F01409100017EA33D
:101A300003D00F01408302D00F0140937BC0D9FF38
:101A40007CC0DAFFDF500F01466F000120EE01F08D
:101A50007B51D9267C51DA22DF500F01476F0001FC
:101A600020EE02F07B51D9267C51DA22DF500F01A3
:101A7000486F000120EE03F07B51D9267C51DA2219
:101A8000DF500F01496F000120EE04F07B51D92691
:101A90007C51DA22DF500F014A6F000120EE05F081
:101AA0007B51D9267C51DA22DF500F014B6F0001A8
:101AB00020EE06F07B51D9267C51DA22DF500F014F
:101AC0004C6F000120EE07F07B51D9267C51DA22C1
:101AD000DF500F014D6F0F01408712000F0130B72B
:101AE0003FD17DC035FF00017EAD03D00F01358DA4
:101AF00002D00F01359D00017EA779D000017751FA
:101B00000001836F846B856B866B83C034FF000E8E
:101B1000000177150001836FFF0E000178150001A9
:101B2000846F000E000179150001856F000E000121
:101B30007A150001866F83C07FF084C080F085C075
:101B400081F086C082F080C07FF081C080F082C0CA
:101B500081F00001826B7FC083F080C084F081C07F
:101B600085F082C086F083C033FF000E0F01326F14
:101B70000F013287000179A102D00F0132810001EB
:101B800079A302D00F013283000179A502D00F01A1
:101B9000328B000179A702D00F01328D000179A9A3
:101BA00002D00F01328F77C07FF078C080F079C00B
:101BB00081F07AC082F0160E06D00001D8908233F0
:101BC000813380337F33E82EF8D77FC083F080C025
:101BD00084F081C085F082C086F00001835100014D
:101BE000836F846B856B866B83C031FF59D00F0187
:101BF000329777C07FF078C080F079C081F07AC0EA
:101C000082F0040E06D00001D890823381338033F5
:101C10007F33E82EF8D77FC083F080C084F081C086
:101C200085F082C086F0000183510001836F846BD0
:101C3000856B866B83C031FF070E000177150001AD
:101C4000836F000E000178150001846F000E000103
:101C500079150001856F000E00017A150001866F6D
:101C600083C07FF084C080F085C081F086C082F0A0
:101C7000050ED89000017F37803781378237E82EF4
:101C8000F8D77FC083F080C084F081C085F082C027
:101C900086F00F0132511F0B0F01326F83C032FFEC
:101CA00000017EA103D00F01308102D00F013091DD
:101CB00000017EA303D00F01308302D00F013093C7
:101CC0007BC0D9FF7CC0DAFFDF500F01366F000107
:101CD00020EE01F07B51D9267C51DA22DF500F0132
:101CE000376F000120EE02F07B51D9267C51DA22B9
:101CF000DF500F01386F000120EE03F07B51D92631
:101D00007C51DA22DF500F01396F000120EE04F020
:101D10007B51D9267C51DA22DF500F013A6F000146
:101D200020EE05F07B51D9267C51DA22DF500F01DD
:101D30003B6F000120EE06F07B51D9267C51DA2260
:101D4000DF500F013C6F000120EE07F07B51D926D8
:101D50007C51DA22DF500F013D6F0F0130871200F6
:101D60000F0120B712007DC025FF00017EAD03D01A
:101D70000F01258D02D00F01259D00017EA779D08E
:101D8000000177510001836F846B856B866B83C084
:101D900024FF000E000177150001836FFF0E000184
:101DA00078150001846F000E000179150001856F20
:101DB000000E00017A150001866F83C07FF084C099
:101DC00080F085C081F086C082F080C07FF081C045
:101DD00080F082C081F00001826B7FC083F080C000
:101DE00084F081C085F082C086F083C023FF000E9E
:101DF0000F01226F0F012287000179A102D00F018C
:101E00002281000179A302D00F012283000179A56C
:101E100002D00F01228B000179A702D00F01228D81
:101E2000000179A902D00F01228F77C07FF078C01E
:101E300080F079C081F07AC082F0160E06D00001E1
:101E4000D8908233813380337F33E82EF8D77FC038
:101E500083F080C084F081C085F082C086F00001EC
:101E600083510001836F846B856B866B83C021FF78
:101E700059D00F01229777C07FF078C080F079C0E9
:101E800081F07AC082F0040E06D00001D89082332F
:101E9000813380337F33E82EF8D77FC083F080C052
:101EA00084F081C085F082C086F00001835100017A
:101EB000836F846B856B866B83C021FF070E0001E7
:101EC00077150001836F000E000178150001846F03
:101ED000000E000179150001856F000E00017A15D2
:101EE0000001866F83C07FF084C080F085C081F0E0
:101EF00086C082F0050ED89000017F378037813789
:101F00008237E82EF8D77FC083F080C084F081C08C
:101F100085F082C086F00F0122511F0B0F01226F46
:101F200083C022FF00017EA103D00F01208102D0D7
:101F30000F01209100017EA303D00F01208302D066
:101F40000F0120937BC0D9FF7CC0DAFFDF500F0167
:101F5000266F000120EE01F07B51D9267C51DA2258
:101F6000DF500F01276F000120EE02F07B51D926D0
:101F70007C51DA22DF500F01286F000120EE03F0C0
:101F80007B51D9267C51DA22DF500F01296F0001E5
:101F900020EE04F07B51D9267C51DA22DF500F016C
:101FA0002A6F000120EE05F07B51D9267C51DA2200
:101FB000DF500F012B6F000120EE06F07B51D92678
:101FC0007C51DA22DF500F012C6F000120EE07F068
:101FD0007B51D9267C51DA22DF500F012D6F0F0182
:101FE000208712000F0140B715D133C045FF34AC34
:101FF00003D00F01458D02D00F01459D34A666D058
:102000002D50396E3A6A3B6A3C6A39C044FF000E73
:102010002D14396EFF0E2E143A6E000E2F143B6EE7
:10202000000E30143C6E39C035F03AC036F03BC07B
:1020300037F03CC038F036C035F037C036F038C025
:1020400037F0386A35C039F036C03AF037C03BF067
:1020500038C03CF039C043FF000E0F01426F0F0142
:1020600042872FA002D00F0142812FA202D00F0180
:1020700042832FA402D00F01428B2FA602D00F0162
:10208000428D2FA802D00F01428F2DC035F02EC0F7
:1020900036F02FC037F030C038F0160E05D0D8908B
:1020A0003832373236323532E82EF9D735C039F08A
:1020B00036C03AF037C03BF038C03CF03950396E8A
:1020C0003A6A3B6A3C6A39C041FF4DD00F014297E2
:1020D0002DC035F02EC036F02FC037F030C038F0AC
:1020E000040E05D0D8903832373236323532E82EE9
:1020F000F9D735C039F036C03AF037C03BF038C0B8
:102100003CF03950396E3A6A3B6A3C6A39C041FF4B
:10211000070E2D14396E000E2E143A6E000E2F1479
:102120003B6E000E30143C6E39C035F03AC036F0CC
:102130003BC037F03CC038F0050ED8903536363607
:1021400037363836E82EF9D735C039F036C03AF090
:1021500037C03BF038C03CF00F0142511F0B0F015C
:10216000426F39C042FF34A003D00F01408102D03A
:102170000F01409134A203D00F01408302D00F0120
:10218000409331C0D9FF32C0DAFFDF500F01466FF4
:1021900020EE01F03150D9263250DA22DF500F0103
:1021A000476F20EE02F03150D9263250DA22DF504C
:1021B0000F01486F20EE03F03150D9263250DA2259
:1021C000DF500F01496F20EE04F03150D926325014
:1021D000DA22DF500F014A6F20EE05F03150D92688
:1021E0003250DA22DF500F014B6F20EE06F03150F3
:1021F000D9263250DA22DF500F014C6F20EE07F063
:102200003150D9263250DA22DF500F014D6F0F01C5
:10221000408712000F0130B715D133C035FF34AC01
:1022200003D00F01358D02D00F01359D34A666D045
:102230002D50396E3A6A3B6A3C6A39C034FF000E51
:102240002D14396EFF0E2E143A6E000E2F143B6EB5
:10225000000E30143C6E39C035F03AC036F03BC049
:1022600037F03CC038F036C035F037C036F038C0F3
:1022700037F0386A35C039F036C03AF037C03BF035
:1022800038C03CF039C033FF000E0F01326F0F0130
:1022900032872FA002D00F0132812FA202D00F016E
:1022A00032832FA402D00F01328B2FA602D00F0150
:1022B000328D2FA802D00F01328F2DC035F02EC0E5
:1022C00036F02FC037F030C038F0160E05D0D89059
:1022D0003832373236323532E82EF9D735C039F058
:1022E00036C03AF037C03BF038C03CF03950396E58
:1022F0003A6A3B6A3C6A39C031FF4DD00F013297D0
:102300002DC035F02EC036F02FC037F030C038F079
:10231000040E05D0D8903832373236323532E82EB6
:10232000F9D735C039F036C03AF037C03BF038C085
:102330003CF03950396E3A6A3B6A3C6A39C031FF29
:10234000070E2D14396E000E2E143A6E000E2F1447
:102350003B6E000E30143C6E39C035F03AC036F09A
:102360003BC037F03CC038F0050ED89035363636D5
:1023700037363836E82EF9D735C039F036C03AF05E
:1023800037C03BF038C03CF00F0132511F0B0F013A
:10239000326F39C032FF34A003D00F01308102D038
:1023A0000F01309134A203D00F01308302D00F010E
:1023B000309331C0D9FF32C0DAFFDF500F01366FE2
:1023C00020EE01F03150D9263250DA22DF500F01D1
:1023D000376F20EE02F03150D9263250DA22DF502A
:1023E0000F01386F20EE03F03150D9263250DA2237
:1023F000DF500F01396F20EE04F03150D9263250F2
:10240000DA22DF500F013A6F20EE05F03150D92665
:102410003250DA22DF500F013B6F20EE06F03150D0
:10242000D9263250DA22DF500F013C6F20EE07F040
:102430003150D9263250DA22DF500F013D6F0F01A3
:10244000308712000F0120B7120033C025FF34ACD3
:1024500003D00F01258D02D00F01259D34A666D033
:102460002D50396E3A6A3B6A3C6A39C024FF000E2F
:102470002D14396EFF0E2E143A6E000E2F143B6E83
:10248000000E30143C6E39C035F03AC036F03BC017
:1024900037F03CC038F036C035F037C036F038C0C1
:1024A00037F0386A35C039F036C03AF037C03BF003
:1024B00038C03CF039C023FF000E0F01226F0F011E
:1024C00022872FA002D00F0122812FA202D00F015C
:1024D00022832FA402D00F01228B2FA602D00F013E
:1024E000228D2FA802D00F01228F2DC035F02EC0D3
:1024F00036F02FC037F030C038F0160E05D0D89027
:102500003832373236323532E82EF9D735C039F025
:1025100036C03AF037C03BF038C03CF03950396E25
:102520003A6A3B6A3C6A39C021FF4DD00F012297BD
:102530002DC035F02EC036F02FC037F030C038F047
:10254000040E05D0D8903832373236323532E82E84
:10255000F9D735C039F036C03AF037C03BF038C053
:102560003CF03950396E3A6A3B6A3C6A39C021FF07
:10257000070E2D14396E000E2E143A6E000E2F1415
:102580003B6E000E30143C6E39C035F03AC036F068
:102590003BC037F03CC038F0050ED89035363636A3
:1025A00037363836E82EF9D735C039F036C03AF02C
:1025B00037C03BF038C03CF00F0122511F0B0F0118
:1025C000226F39C022FF34A003D00F01208102D036
:1025D0000F01209134A203D00F01208302D00F01FC
:1025E000209331C0D9FF32C0DAFFDF500F01266FD0
:1025F00020EE01F03150D9263250DA22DF500F019F
:10260000276F20EE02F03150D9263250DA22DF5007
:102610000F01286F20EE03F03150D9263250DA2214
:10262000DF500F01296F20EE04F03150D9263250CF
:10263000DA22DF500F012A6F20EE05F03150D92643
:102640003250DA22DF500F012B6F20EE06F03150AE
:10265000D9263250DA22DF500F012C6F20EE07F01E
:102660003150D9263250DA22DF500F012D6F0F0181
:10267000208712002CC1ADF02DC1AEF02EC1AFF0FD
:102680002FC1B0F0000E00017B6F000E7C6F000EBA
:102690007D6F400E7E6FE4C177F0E5C178F0E6C152
:1026A00079F0E7C17AF04DEC21F077C0A9F078C05D
:1026B000AAF079C0ABF07AC0ACF085EC18F0A9C0F4
:1026C000BDF0AAC0BEF0ABC0BFF0ACC0C0F0E9EC3A
:1026D00032F0BDC0BCF1BEC0BDF1BFC0BEF1C0C0D4
:1026E000BFF1BCC1ADF0BDC1AEF0BEC1AFF0BFC166
:1026F000B0F0000E0001946F000E956F000E966F03
:10270000400E976FE8C190F0E9C191F0EAC192F0F4
:10271000EBC193F0D9EC1AF090C0A9F091C0AAF0E7
:1027200092C0ABF093C0ACF085EC18F0A9C0C0F13A
:10273000AAC0C1F1ABC0C2F1ACC0C3F1000E000130
:102740007B6F000E7C6F000E7D6F400E7E6FE4C1CC
:1027500077F0E5C178F0E6C179F0E7C17AF04DECA9
:1027600021F077C0BDF078C0BEF079C0BFF07AC06C
:10277000C0F0E9EC32F0BDC0ADF0BEC0AEF0BFC0FD
:10278000AFF0C0C0B0F0C0C1A9F0C1C1AAF0C2C1D1
:10279000ABF0C3C1ACF085EC18F0A9C0C4F1AAC07D
:1027A000C5F1ABC0C6F1ACC0C7F1C4C177F0C5C1BB
:1027B00078F0C6C179F0C7C17AF0000E0001946FBD
:1027C000000E956F000E966F400E976FE8C190F067
:1027D000E9C191F0EAC192F0EBC193F0D9EC1AF0A3
:1027E00090C07BF091C07CF092C07DF093C07EF0F1
:1027F0004DEC21F077C0C8F178C0C9F179C0CAF1B9
:102800007AC0CBF1C8C1D5F0C9C1D6F0CAC1D7F0E2
:10281000CBC1D8F088EC26F0D5C024F1D6C025F184
:10282000D7C026F1D8C027F1DB0E00017B6F0F0E59
:102830007C6F490E7D6F400E7E6F24C177F025C1FD
:1028400078F026C179F027C17AF04DEC21F077C0FD
:1028500090F078C091F079C092F07AC093F0000EB9
:102860000001946F000E956F340E966F430E976FB4
:10287000D9EC1AF090C024F191C025F192C026F154
:1028800093C027F124C1BDF025C1BEF026C1BFF021
:1028900027C1C0F0E9EC32F0BDC0A9F0BEC0AAF07B
:1028A000BFC0ABF0C0C0ACF0000E0001AD6F000EB9
:1028B000AE6FB40EAF6F420EB06F85EC18F0A9C0CA
:1028C00028F1AAC029F1ABC02AF1ACC02BF1DB0E74
:1028D0000001946F0F0E956F490E966F400E976F23
:1028E00024C190F025C191F026C192F027C193F048
:1028F000D9EC1AF090C077F091C078F092C079F0DE
:1029000093C07AF0000E00017B6F000E7C6F340ED6
:102910007D6F430E7E6F4DEC21F077C024F178C0BF
:1029200025F179C026F17AC027F124C1B4F125C17F
:10293000B5F126C1B6F127C1B7F12CEC30F0B4C126
:1029400038F1B5C139F1B6C13AF1B7C13BF138C17F
:1029500094F039C195F03AC196F03BC197F0E8C1C7
:1029600090F0E9C191F0EAC192F0EBC193F0D9EC9B
:102970001AF090C0D4F191C0D5F192C0D6F193C0B5
:10298000D7F1D4C190F0D5C191F0D6C192F0D7C1A2
:1029900093F0000E0001946F000E956F000E966F7D
:1029A000400E976FD9EC1AF090C038F191C039F110
:1029B00092C03AF193C03BF128C194F029C195F03F
:1029C0002AC196F02BC197F0E8C190F0E9C191F0CF
:1029D000EAC192F0EBC193F0D9EC1AF090C0D4F1B7
:1029E00091C0D5F192C0D6F193C0D7F1DB0E0001B2
:1029F000946F0F0E956FC90E966F400E976FD4C1EE
:102A000090F0D5C191F0D6C192F0D7C193F0D9EC36
:102A10001AF090C077F091C078F092C079F093C02E
:102A20007AF0000E00017B6F000E7C6FB40E7D6F9C
:102A3000430E7E6F4DEC21F077C040F178C041F13C
:102A400079C042F17AC043F1000E00017B6F000EA5
:102A50007C6F400E7D6F400E7E6F000E0001946F04
:102A6000000E956F000E966F400E976FE4C190F0C8
:102A7000E5C191F0E6C192F0E7C193F0D9EC1AF00C
:102A800090C077F091C078F092C079F093C07AF05E
:102A90004DEC21F077C0A9F078C0AAF079C0ABF076
:102AA0007AC0ACF0E8C1ADF0E9C1AEF0EAC1AFF078
:102AB000EBC1B0F085EC18F0A9C034F1AAC035F133
:102AC000ABC036F1ACC037F1000E00017B6F000ED9
:102AD0007C6F400E7D6F400E7E6F000E0001946F84
:102AE000000E956F000E966F400E976FE4C190F048
:102AF000E5C191F0E6C192F0E7C193F0D9EC1AF08C
:102B000090C077F091C078F092C079F093C07AF0DD
:102B10004DEC21F077C0BDF078C0BEF079C0BFF0B9
:102B20007AC0C0F0E9EC32F0BDC0A9F0BEC0AAF096
:102B3000BFC0ABF0C0C0ACF0E8C1ADF0E9C1AEF0D1
:102B4000EAC1AFF0EBC1B0F085EC18F0A9C030F1EC
:102B5000AAC031F1ABC032F1ACC033F134C17BF06B
:102B600035C17CF036C17DF037C17EF030C177F0E1
:102B700031C178F032C179F033C17AF04DEC21F0F7
:102B800077C0CCF178C0CDF179C0CEF17AC0CFF169
:102B9000CCC1D5F0CDC1D6F0CEC1D7F0CFC1D8F0E1
:102BA00088EC26F0D5C0B4F1D6C0B5F1D7C0B6F1E7
:102BB000D8C0B7F12CEC30F0B4C1D0F1B5C1D1F12F
:102BC000B6C1D2F1B7C1D3F1D0C190F0D1C191F06B
:102BD000D2C192F0D3C193F034C194F035C195F0D5
:102BE00036C196F037C197F0D9EC1AF090C020F1B9
:102BF00091C021F192C022F193C023F11200000E86
:102C0000376E74BE378074BC37820F0150AF43D12A
:102C10002DC0D9FF2EC0DAFFDE6ADE6ADE6ADD6A09
:102C200020EE04F02D50D9262E50DA2256CFDFFFA9
:102C300020EE05F02D50D9262E50DA2257CFDFFF97
:102C400020EE06F02D50D9262E50DA2258CFDFFF85
:102C500020EE07F02D50D9262E50DA2259CFDFFF73
:102C600020EE08F02D50D9262E50DA225ACFDFFF61
:102C700020EE09F02D50D9262E50DA225BCFDFFF4F
:102C800020EE0AF02D50D9262E50DA225CCFDFFF3D
:102C900020EE0BF02D50D9262E50DA225DCFDFFF2B
:102CA00020EE0EF02D50D9262E50DA220F0155AD10
:102CB00002D0010E01D0000EDF6E20EE0DF02D507F
:102CC000D9262E50DA220F0155510F0BDF6E20EE60
:102CD0000CF02D50D9262E50DA220F0152A702D027
:102CE000010E01D0000EDF6E0F0152B744D051CF5C
:102CF0002FF0306A316A326A030ED8902F363036A0
:102D000031363236E82EF9D72DC0D9FF2EC0DAFF82
:102D10002FC0DEFF30C0DEFF31C0DEFF32C0DEFF7D
:102D20000F015239E842070B070B386E2DC0D9FF4F
:102D30002EC0DAFFDECF2FF0DECF30F0DECF31F065
:102D4000DECF32F038502F24336E000E3020346E38
:102D5000000E3120356E000E3220366E2DC0D9FFA8
:102D60002EC0DAFF33C0DEFF34C0DEFF35C0DEFF29
:102D700036C0DEFF8DD054CF2FF0306A316A326A10
:102D80002DC0D9FF2EC0DAFF2FC0DEFF30C0DEFF1E
:102D900031C0DEFF32C0DEFF53CF2FF0306A316A20
:102DA000326A31C032F030C031F02FC030F02F6ABB
:102DB0002DC0D9FF2EC0DAFF2F50DE263050DE2284
:102DC0003150DE223250DE220F0152A10CD02DC034
:102DD000D9FF2EC0DAFF000EDE12000EDE12010E49
:102DE000DE12000EDE120F0152A30CD02DC0D9FF4F
:102DF0002EC0DAFF000EDE12000EDE12020EDE1210
:102E0000000EDE120F0152AB0CD02DC0D9FF2EC028
:102E1000DAFF000EDE12000EDE12040EDE12000ECD
:102E2000DE120F0152AD0CD02DC0D9FF2EC0DAFF3B
:102E3000000EDE12000EDE12080EDE12000EDE1292
:102E40000F0152AF0CD02DC0D9FF2EC0DAFF000EFB
:102E5000DE12000EDE12100EDE12000EDE1251CF58
:102E60002FF0306A316A326A150ED8902F3630361C
:102E700031363236E82EF9D72DC0D9FF2EC0DAFF11
:102E80002F50DE123050DE123150DE123250DE1280
:102E90000F01509F120060AE12002DC0D9FF2EC04E
:102EA000DAFFDE6ADE6ADE6ADD6A20EE04F02D50AB
:102EB000D9262E50DA2266CFDFFF20EE05F02D5006
:102EC000D9262E50DA2267CFDFFF20EE06F02D50F4
:102ED000D9262E50DA2268CFDFFF20EE07F02D50E2
:102EE000D9262E50DA2269CFDFFF20EE08F02D50D0
:102EF000D9262E50DA226ACFDFFF20EE09F02D50BE
:102F0000D9262E50DA226BCFDFFF20EE0AF02D50AB
:102F1000D9262E50DA226CCFDFFF20EE0BF02D5099
:102F2000D9262E50DA226DCFDFFF20EE0EF02D5085
:102F3000D9262E50DA2265AC02D0010E01D0000E47
:102F4000DF6E20EE0DF02D50D9262E50DA2265507E
:102F50000F0BDF6E20EE0CF02D50D9262E50DA220A
:102F600062A602D0010E01D0000EDF6E62B643D021
:102F700061CF2FF0306A316A326A030ED8902F3653
:102F8000303631363236E82EF9D72DC0D9FF2EC073
:102F9000DAFF2FC0DEFF30C0DEFF31C0DEFF32C0FF
:102FA000DEFF6238E842070B070B386E2DC0D9FFF1
:102FB0002EC0DAFFDECF2FF0DECF30F0DECF31F0E3
:102FC000DECF32F038502F24336E000E3020346EB6
:102FD000000E3120356E000E3220366E2DC0D9FF26
:102FE0002EC0DAFF33C0DEFF34C0DEFF35C0DEFFA7
:102FF00036C0DEFF88D064CF2FF0306A316A326A83
:103000002DC0D9FF2EC0DAFF2FC0DEFF30C0DEFF9B
:1030100031C0DEFF32C0DEFF63CF2FF0306A316A8D
:10302000326A31C032F030C031F02FC030F02F6A38
:103030002DC0D9FF2EC0DAFF2F50DE263050DE2201
:103040003150DE223250DE2262A00CD02DC0D9FFDA
:103050002EC0DAFF000EDE12000EDE12010EDE12AE
:10306000000EDE1262A20CD02DC0D9FF2EC0DAFFF6
:10307000000EDE12000EDE12020EDE12000EDE1256
:1030800062AA0CD02DC0D9FF2EC0DAFF000EDE12CE
:10309000000EDE12040EDE12000EDE1262AC0CD048
:1030A0002DC0D9FF2EC0DAFF000EDE12000EDE1298
:1030B000080EDE12000EDE1262AE0CD02DC0D9FF5B
:1030C0002EC0DAFF000EDE12000EDE12100EDE122F
:1030D000000EDE1261CF2FF0306A316A326A150EAF
:1030E000D8902F36303631363236E82EF9D72DC00B
:1030F000D9FF2EC0DAFF2F50DE123050DE123150D1
:10310000DE123250DE12609E12000001AC51800BC4
:103110000001B96F0001AC51AC250001BB6F00018B
:10312000ABAF02D00001BB810001BB510001D8B49C
:1031300012D00001BB29D8A409D0000E0001A96F4C
:10314000000EAA6F000EAB6F000EAC6F0001AB8FCC
:10315000000E000108D0000E0001A96F000EAA6F3A
:10316000000EAB6F000EAC6F0001B051800B000180
:10317000BA6F0001B9510001BA19D8B402D00001E8
:10318000B98D0001B051B0250001BA6F0001AFAF99
:1031900002D00001BA810001BA510001D8B412D0A6
:1031A0000001BA29D8A409D0000E0001AD6F000EAD
:1031B000AE6F000EAF6F000EB06F0001AF8F000E4C
:1031C000000108D0000E0001AD6F000EAE6F000EC2
:1031D000AF6F000EB06F0001BB510001BA5DD8B0F7
:1031E00024D00001B9AD03D0800E0001B91BBBC0D3
:1031F000BCF0BAC0BBF0BCC0BAF0A9C0BCF0ADC056
:10320000A9F0BCC0ADF0AAC0BCF0AEC0AAF0BCC072
:10321000AEF0ABC0BCF0AFC0ABF0BCC0AFF0ACC068
:10322000BCF0B0C0ACF0BCC0B0F0000E0001BC6F90
:103230000001BB510001B16FB26B0001B11FB21FA1
:10324000B14BB22B0001BA510001B36FB46B000156
:10325000B1510001B3270001B2510001B4230001B4
:10326000B4BF3DD00001B45105E11A0E0001B35DB9
:10327000D8A035D00001A9510001AA110001AB115D
:103280000001AC11D8B402D0010E01D0000E000133
:10329000BC6F000E0001A96F000EAA6F000EAB6F8D
:1032A000000EAC6FBAC0BBF020D00001BCA107D0AB
:1032B0000001D890BC3101090001BC6F03D00001AE
:1032C000D890BC330001A9A102D00001BC8F00013D
:1032D000AC35AC33AB33AA33A9330001BB2B0001AF
:1032E000BA510001BB5DD8A0E0D70001B9BD3FD005
:1032F0000001BB510001D8A40AD0000E0001A96F43
:10330000000EAA6F000EAB6F000EAC6F1200000132
:10331000AD510001A9270001AE510001AA2300010F
:10332000AF510001AB230001B0510001AC230001FB
:10333000ACA1CCD00001BCA109D00001D890BC3315
:103340000001BC5101090001BC6F03D00001D890FD
:10335000BC330001A9A102D00001BC8F0001AC3533
:10336000AC33AB33AA33A9330001BB2BAFD0000180
:10337000AD510001A95D0001AE510001AA59000143
:10338000AF510001AB590001AC51800A0001B16F8F
:103390000001B051800A0001B159D8B050D0A9C085
:1033A000B1F0AAC0B2F0ABC0B3F0ACC0B4F0000151
:1033B000B11FB21FB31FB41FB12B000EB223B32332
:1033C000B4230001AD510001B1250001B56F00012A
:1033D000AE510001B2210001B66F0001AF510001F2
:1033E000B3210001B76F0001B0510001B421000109
:1033F000B86FFF0E0001B5250001A96FFF0E000197
:10340000B6210001AA6FFF0E0001B7210001AB6FCA
:10341000FF0E0001B8210001AC6F800E0001B91B46
:103420000001BC6D0001BC510001D8A418D0010EF0
:103430000001A927000EAA23AB23AC2310D0000162
:10344000AD510001A95F0001AE510001AA5B00016E
:10345000AF510001AB5B0001B0510001AC5B00015A
:10346000A9510001AA110001AB110001AC11D8A4AF
:103470002AD00001BC510001D8A425D0000E0001C3
:10348000A96F000EAA6F000EAB6F000EAC6F12009A
:103490000001D890A937AA37AB37AC370001BCAFD1
:1034A00002D00001A9810001BCA103D0D880000195
:1034B00002D00001D890BC370001BB510001D8B444
:1034C00002D00001BB070001ABAFE2D7000E000144
:1034D000BA6F0001BCAF0DD0BCC0B1F07F0E0001CF
:1034E000B117D8A403D00001A9A103D0010E000197
:1034F000BA6F0001BA510001D8B426D0010E000104
:10350000A927000EAA23AB23AC230001ACA11CD039
:10351000A9C0B1F0AAC0B2F0ABC0B3F0ACC0B4F077
:103520000001B435B433B333B233B133B1C0A9F011
:10353000B2C0AAF0B3C0ABF0B4C0ACF00001BB297C
:10354000D8B402D00001BB2B0001BB29D8B405D0F0
:103550000001BB510001D8A411D0000E0001A96FD9
:10356000000EAA6F000EAB6F000EAC6F0001BB51D6
:103570000001D8A403D0000E0001B96F0001BBA167
:1035800003D00001AB8F02D00001AB9F0001D890A7
:10359000BB310001AC6F0001B9AF02D00001AC8FAC
:1035A000A9C0A9F0AAC0AAF0ABC0ABF0ACC0ACF007
:1035B000120000019351800B00019C6F0001935198
:1035C00093250001A26F000192AF02D00001A281F9
:1035D0000001A2510001D8B410D00001A229D8A442
:1035E00009D0000E0001906F000E916F000E926FD7
:1035F000000E936F0001928F09D0000E0001906FB2
:10360000000E916F000E926F000E936F00019751A4
:10361000800B00019C1B00019751972500019D6FB5
:10362000000196AF02D000019D8100019D51000173
:10363000D8B410D000019D29D8A409D0000E0001F3
:10364000946F000E956F000E966F000E976F00013D
:10365000968F09D0000E0001946F000E956F000E3A
:10366000966F000E976F00019D510001D8B405D0F0
:103670000001A2510001D8A40AD0000E0001906FF1
:10368000000E916F000E926F000E936F12000001FA
:10369000965100019003F3CFA7F0F4CFA8F00001FA
:1036A000A75100019E6F9F6BA06BA16B0001A851F9
:1036B0000001A36FA46BA56BA66B000195510001DF
:1036C0009103F3CFA7F0F4CFA8F00001A7510001B8
:1036D0009E27000E9F23A023A1230001A8510001D3
:1036E000A327000EA423A523A623000194510001C3
:1036F0009203F3CFA7F0F4CFA8F00001A751000187
:103700009E27000E9F23A023A1230001A8510001A2
:10371000A327000EA423A523A623A0C0A1F09FC029
:10372000A0F09EC09FF000019E6B0001945100012B
:103730009103F3CFA7F0F4CFA8F00001A751000147
:103740009E270001A85100019F23000E0001A02325
:10375000000E0001A1230001955100019003F3CF59
:10376000A7F0F4CFA8F00001A75100019E270001A7
:10377000A85100019F23000E0001A023000E0001AC
:10378000A123A0C0A1F09FC0A0F09EC09FF00001A7
:103790009E6B0001945100019003F3CFA7F0F4CF8A
:1037A000A8F00001A75100019E270001A8510001C7
:1037B0009F23000E0001A023000E0001A1230001A1
:1037C000965100019103F3CFA7F0F4CFA8F00001C8
:1037D000A7510001A3270001A8510001A423000E56
:1037E0000001A523000E0001A62300019551000150
:1037F0009203F3CFA7F0F4CFA8F00001A751000186
:10380000A3270001A8510001A423000E0001A52355
:10381000000E0001A6230001965100019203F3CF90
:10382000A7F0F4CFA8F00001A7510001986F0001A4
:10383000A8510001996F00019A6B00019B6B9AC01F
:103840009BF099C09AF098C099F00001986B000124
:1038500098510001A327000199510001A423000100
:103860009A510001A52300019B510001A6239EC08F
:1038700098F09FC099F0A0C09AF0A1C09BF0190EDB
:1038800006D00001D8909B339A3399339833E82EB1
:10389000F8D7000198510001A327000199510001B8
:1038A000A42300019A510001A52300019B510001AE
:1038B000A623A0C0A1F09FC0A0F09EC09FF0000171
:1038C0009E6B00019D51A2C098F00001996B000110
:1038D0009827000E9923820E000198250001A76FFA
:1038E000FF0E000199210001A86F15D00001D890AA
:1038F000A337A437A537A6370001A1AF02D0000136
:10390000A3810001D8909E379F37A037A1370001CF
:10391000A707D8A0A8070001A5AFE8D7000E0001AF
:103920009D6F0001A1AF24D0FF0E00019E15000184
:10393000986FFF0E00019F150001996FFF0E0001A7
:10394000A01500019A6F7F0E0001A11500019B6F69
:10395000000198510001991100019A1100019B1179
:10396000D8A403D00001A3A103D0010E00019D6FD4
:1039700000019D510001D8B423D0010E0001A327FE
:10398000000EA423A523A6230001A6A119D0A3C03D
:1039900098F0A4C099F0A5C09AF0A6C09BF00001D1
:1039A0009B359B339A339933983398C0A3F099C0D1
:1039B000A4F09AC0A5F09BC0A6F00001A74BA82BCD
:1039C0000001A8BF10D00001A85104E10001A729FF
:1039D000D8A009D0000E0001A36F000EA46F800EC6
:1039E000A56F7F0E2BD00001A8BF07D00001A85102
:1039F00011E10001A705D8B00DD0000E0001A36FA2
:103A0000000EA46F000EA56F000EA66F000E000141
:103A10009C6F15D0A7C0A2F0FF0E0001A317FF0EE8
:103A2000A4177F0EA517000EA6170001A2A102D0B1
:103A30000001A58F0001D890A2310001A66F0001FE
:103A40009C510001A613A3C090F0A4C091F0A5C0A2
:103A500092F0A6C093F01200000E0101636F3ED0F9
:103A6000000E00017E6FC80E7D6FCCEC32F081AC91
:103A700002D0010E01D0000EFF0A0101D86F010132
:103A8000D83BD847D84781500101D819BF0BD81966
:103A9000816E11EC28F0320E0101636503D0000E37
:103AA0000101636F4CEC33F00009D8B4FBD70E0E64
:103AB0000001776F000E786F000E796F000E7A6F3D
:103AC000630E00017B6F010E00017C6F080E000188
:103AD0007D6FBC0E00017E6F2CEC0CF054B281AAFD
:103AE00002D054B0BDD781BA54A02ED0819C020E12
:103AF0000101536F0B0E0001776F000E786F000EFF
:103B0000796F000E7A6F530E00017B6F010E00017A
:103B10007C6F010E00017D6FBC0E00017E6F2CECEE
:103B20000CF012D055B210D0000E266E000E256E8D
:103B30005A0E0101736F000E01015B6F010E01014E
:103B40005C6FEEEC2DF0558255AC54A0BAD1EAD79B
:103B50008A88015003240101D86F0250042001011A
:103B6000D96FD8900101D9310101DB6F0101D83142
:103B70000101DA6FDAC1CBF0DBC1CCF00001CD6B13
:103B8000CE6B000E7CEC2AF0CBC02CF1CCC02DF11A
:103B9000CDC02EF1CEC02FF13AEC13F0000E266E00
:103BA000000E256E5A0E0101736F000E01015B6F4E
:103BB000010E01015C6FEEEC2DF0010E36EC33F0DE
:103BC000030E01015B6F010E01015C6F030E266E97
:103BD000E80E256E54965A0E0101736F000E000117
:103BE000AD6F000EAE6F700EAF6F410EB06F38C18B
:103BF000A9F039C1AAF03AC1ABF03BC1ACF085ECF9
:103C000018F0A9C0BDF0AAC0BEF0ABC0BFF0ACC0F8
:103C1000C0F0E9EC32F0BDC0DCF1BEC0DDF1BFC0E8
:103C2000DEF1C0C0DFF120C1ADF021C1AEF022C194
:103C3000AFF023C1B0F0DCC1A9F0DDC1AAF0DEC154
:103C4000ABF0DFC1ACF085EC18F0A9C0E0F1AAC080
:103C5000E1F1ABC0E2F1ACC0E3F1000E0001AD6FE9
:103C6000000EAE6F5C0EAF6F420EB06FE0C1A9F0F8
:103C7000E1C1AAF0E2C1ABF0E3C1ACF085EC18F011
:103C8000A9C0C1F0AAC0C2F0ABC0C3F0ACC0C4F0C0
:103C9000A6EC2FF00001C15101017B6F54820D0E83
:103CA0000001776F000E786F000E796F000E7A6F4B
:103CB0007B0E00017B6F010E00017C6F080E00017E
:103CC0007D6FBC0E00017E6F2CEC0CF0EEEC2DF045
:103CD00054B2FED7000E266E000E256E5A0E01015C
:103CE000736F000E01015B6F010E01015C6FEEEC62
:103CF0002DF0010E36EC33F0030E01015B6F010E67
:103D000001015C6F030E266EE80E256E5496B40E0C
:103D10000101736F40C1C1F041C1C2F042C1C3F0A3
:103D200043C1C4F0A6EC2FF00001C15101017B6F2B
:103D300054820D0E0001776F000E786F000E796FC0
:103D4000000E7A6F7B0E00017B6F010E00017C6F0D
:103D5000080E00017D6FBC0E00017E6F2CEC0CF094
:103D6000EEEC2DF054B2FED7030E266EE80E256E53
:103D7000000E0101736F5482000E0001AD6F000E42
:103D8000AE6F100EAF6F410EB06F40C1A9F041C1D0
:103D9000AAF042C1ABF043C1ACF085EC18F0A9C069
:103DA000C1F0AAC0C2F0ABC0C3F0ACC0C4F0A6EC76
:103DB0002FF00001C15101017B6F0D0E0001776FE3
:103DC000000E786F000E796F000E7A6F7B0E000187
:103DD0007B6F010E00017C6F080E00017D6FBC0E31
:103DE00000017E6F2CEC0CF0EEEC2DF054B2FED7FF
:103DF000000E01015B6F010E01015C6F000E266E6B
:103E0000000E256E5A0E0101736FEEEC2DF0010EBF
:103E100036EC33F05484065004E1150E055CD8A04E
:103E200016D0030E01015B6F010E01015C6F010EE4
:103E3000266EF40E256E5A0E0101736F5486EEEC59
:103E40002DF00650FEE1150E055CD8B0FAD7000E35
:103E500001015B6F010E01015C6F000E266E000E0A
:103E6000256E5A0E0101736F5496EEEC2DF0010E83
:103E700036EC33F0030E0101536F4CEC33F00009C4
:103E8000D8B4FBD70B0E0001776F000E786F000ED1
:103E9000796F000E7A6F530E00017B6F010E0001E7
:103EA0007C6F080E00017D6FBC0E00017E6F2CEC54
:103EB0000CF0000E00017E6F640E7D6FCCEC32F0D2
:103EC000FF0081AA120054A0120055AC120040D687
:103ED0000001C451800B01018B6F0001C451C42546
:103EE0000101916F0001C3AF02D00101918191C125
:103EF00096F10101976BFF0E0001C11501019C6F46
:103F0000FF0E0001C21501019D6F7F0E0001C31558
:103F100001019E6F000E0001C41501019F6F010198
:103F2000965101019711D8B408D001019E8F01016B
:103F3000962901019711D8A409D0000E01019C6FA8
:103F4000000E9D6F000E9E6F000E9F6F0101965137
:103F500001019711D8A40AD0000E0001C16F000E14
:103F6000C26F000EC36F000EC46F120001018B51AF
:103F70000101D8B41CD0000E0101986F000E996F9A
:103F8000400E9A6F000E9B6F0101800E9A13FF0E78
:103F90009B13000E0001E56F210EE46F98C1C1F084
:103FA00099C1C2F09AC1C3F09BC1C4F012000101D3
:103FB000962901019711D8A412D0000E0101986F23
:103FC000000E996F800E9A6F7F0E9B6F98C1C1F0A3
:103FD00099C1C2F09AC1C3F09BC1C4F012000101A3
:103FE000810E9627FF0E972301019651010B0101C7
:103FF000916F01019735973396337F0E0101962714
:10400000000E9723D89001019C3501018D6F0101AD
:104010009D3501018E6F01019E3501018F6F0101F8
:104020009F350101906F000E01019C6F000E9D6F86
:10403000000E9E6F000E9F6F000E0101926F000E2A
:10404000936F000E946F010E956F01019151010164
:10405000D8B406D00101D8908D378E378F3790377E
:10406000000E01018C6F7ED00101925101019C1361
:104070000101935101019D130101945101019E130E
:104080000101955101019F1301019C5101018D5DB9
:1040900001019D5101018E5901019E5101018F596C
:1040A00001019F5101019059D8A021D001019C51DB
:1040B00001018D5F01019D5101018E5B01019E5146
:1040C00001018F5B01019F510101905B0101925140
:1040D00001019C270101935101019D23010194518C
:1040E00001019E230101955101019F231DD092C121
:1040F000C5F093C1C6F094C1C7F095C1C8F00001E6
:10410000C51FC61FC71FC81F0001C55101019C174D
:104110000001C65101019D170001C75101019E1701
:104120000001C85101019F1792C1C5F093C1C6F0AB
:1041300094C1C7F095C1C8F00001D890C833C73307
:10414000C633C533C5C092F1C6C093F1C7C094F160
:10415000C8C095F10101D8908D378E378F379037D1
:1041600001018C2B180E01018C657ED79CC1C5F016
:104170009DC1C6F09EC1C7F09FC1C8F00001D89094
:10418000C833C733C633C533C5C09CF1C6C09DF123
:10419000C7C09EF1C8C09FF1010E01019C1501012D
:1041A000926F000E01019D150101936F000E010138
:1041B0009E150101946F000E01019F150101956F7D
:1041C0009CC1C5F09DC1C6F09EC1C7F09FC1C8F09B
:1041D0000001D890C833C733C633C533C5C09CF17E
:1041E000C6C09DF1C7C09EF1C8C09FF101019251A8
:1041F00001019C270101935101019D23010194516B
:1042000001019E230101955101019F2301019FA1FD
:1042100019D09CC1C5F09DC1C6F09EC1C7F09FC119
:10422000C8F00001D890C833C733C633C533C5C002
:104230009CF1C6C09DF1C7C09EF1C8C09FF10101AD
:10424000964B972BFF0E01019C150101986FFF0EF5
:1042500001019D150101996F7F0E01019E1501015C
:104260009A6F000E01019F1501019B6F96C191F19C
:10427000010191A102D001019A8F0101D8909131E1
:1042800001019B6F01019B9F98C1C1F099C1C2F0D0
:104290009AC1C3F09BC1C4F0120000017A51800B97
:1042A0000001836F00017A517A2500018E6F0001B1
:1042B00079AF02D000018E8100018E510001D8B487
:1042C00012D000018E29D8A409D0000E0001776F0A
:1042D000000E786F000E796F000E7A6F0001798FF3
:1042E000000E000108D0000E0001776F000E786FFD
:1042F000000E796F000E7A6F00017E51800B000175
:10430000831B00017E517E2500018F6F00017DAF70
:1043100002D000018F8100018F510001D8B412D06A
:1043200000018F29D8A409D0000E00017B6F000E78
:104330007C6F000E7D6F000E7E6F00017D8F000E82
:10434000000108D0000E00017B6F000E7C6F000E94
:104350007D6F000E7E6F00017B5100017C1100011A
:104360007D1100017E11D8A417D0000E0001776FD7
:10437000000E786F000E796F000E7A6F0001800ECC
:1043800079137F0E7A1377C077F078C078F079C010
:1043900079F07AC07AF0120000018E510001D8A4A1
:1043A00012D0000E0001776F000E786F000E796F4B
:1043B000000E7A6F77C077F078C078F079C079F026
:1043C0007AC07AF0120000018F5100017F6F806B7C
:1043D00000017F1F801F7F4B802B00018E51000149
:1043E000816F826B00017F510001812700018051A4
:1043F000000182237F0E000181250001886F000EDD
:10440000000182210001896F77C084F078C085F0B7
:1044100079C086F07AC087F0000E0001776F000E39
:10442000786F000E796F000E7A6F000E00018A6FB0
:10443000000E8B6F000E8C6F000E8D6F000E000152
:104440008F6F42D000018F510001D8B417D0000106
:10445000D89084378537863787370001D8907737EB
:10446000783779377A3700018DAF02D00001778134
:104470000001D8908A378B378C378D3700017B51FC
:104480000001845D00017C510001855900017D51CE
:104490000001865900017E5100018759D8A012D031
:1044A00000018D8D00017B510001845F00017C5172
:1044B0000001855B00017D510001865B00017E519A
:1044C0000001875B00018F2B190E00018F65BAD7A1
:1044D000000184510001851100018611000187113E
:1044E000D8B418D000018A8115D00001D890773750
:1044F000783779377A3700018DAF02D000017781A4
:104500000001D8908A378B378C378D3700018807A8
:10451000D8A08907000179AFE8D7000E00018F6F9E
:1045200000018DAF24D0FF0E00018A1500017F6FBE
:10453000FF0E00018B150001806FFF0E00018C152E
:104540000001816F7F0E00018D150001826F000157
:104550007F51000180110001811100018211D8A456
:1045600003D0000177A103D0010E00018F6F00017D
:104570008F510001D8B423D0010E00017727000E1F
:10458000782379237A2300017AA119D077C07FF0AC
:1045900078C080F079C081F07AC082F00001823565
:1045A0008233813380337F337FC077F080C078F0EF
:1045B00081C079F082C07AF00001884B892B00011C
:1045C00089BF14D00001895104E100018829D8A0D5
:1045D0000DD0000E0001896F8869000E0001776F11
:1045E000000E786F000E796F000E7A6F000189BFA0
:1045F00007D00001895115E100018805D8B011D01C
:10460000000E0001896F000E886F000E0001776FA9
:10461000000E786F000E796F000E7A6F000E0001A9
:10462000836F88C08EF000018EA103D00001798FC6
:1046300002D00001799F0001D8908E3100017A6F7D
:104640000001835100017A1377C077F078C078F0C9
:1046500079C079F07AC07AF012000001806F000111
:104660008005D8A456D000017B29D8A452D077C0A9
:104670007CF078C07DF079C07EF07AC07FF0040EC7
:1046800006D00001D8907F337E337D337C33E82E13
:10469000F8D77CC081F07DC082F07EC083F07FC0FF
:1046A00084F0000181510001816F826B836B846B08
:1046B00081C018FF070E000177150001816F000E01
:1046C000000178150001826F000E000179150001CC
:1046D000836F000E00017A150001846F81C07CF0A9
:1046E00082C07DF083C07EF084C07FF0050ED8903C
:1046F00000017C377D377E377F37E82EF8D77CC0C6
:1047000081F07DC082F07EC083F07FC084F081C0E4
:1047100019FF020E00018019D8A456D000017B2990
:10472000D8A452D077C07CF078C07DF079C07EF0FC
:104730007AC07FF0040E06D00001D8907F337E331C
:104740007D337C33E82EF8D77CC081F07DC082F0C9
:104750007EC083F07FC084F0000181510001816F31
:10476000826B836B846B81C01CFF070E0001771581
:104770000001816F000E000178150001826F000EAC
:10478000000179150001836F000E00017A15000108
:10479000846F81C07CF082C07DF083C07EF084C0D5
:1047A0007FF0050ED89000017C377D377E377F374C
:1047B000E82EF8D77CC081F07DC082F07EC083F007
:1047C0007FC084F081C01DFF00018005D8A487D080
:1047D000F70E00017B19D8A482D0000177510001A7
:1047E000816F826B836B846B81C01BFF000E0001A5
:1047F00077150001816FFF0E000178150001826FAF
:10480000000E000179150001836F000E00017A157A
:104810000001846F81C07CF082C07DF083C07EF097
:1048200084C07FF07DC07CF07EC07DF07FC07EF0D4
:1048300000017F6B7CC081F07DC082F07EC083F080
:104840007FC084F081C01AFF000179A103D00F015D
:10485000198102D00F011991000179A303D00F0132
:10486000198302D00F011993000179A503D00F011C
:10487000198B02D00F01199B000179A703D00F01FA
:10488000198D02D00F01199D000179A903D00F01E4
:10489000198F02D00F01199F77C07CF078C07DF08E
:1048A00079C07EF07AC07FF0160E06D00001D89055
:1048B0007F337E337D337C33E82EF8D77CC081F0A4
:1048C0007DC082F07EC083F07FC084F00001815102
:1048D0000001816F826B836B846B81C018FF020EB5
:1048E00000018019D8A41200F70E00017B19D8A48A
:1048F0001200000177510001816F826B836B846B22
:1049000081C01FFF000E000177150001816FFF0EAF
:10491000000178150001826F000E00017915000179
:10492000836F000E00017A150001846F81C07CF056
:1049300082C07DF083C07EF084C07FF07DC07CF0BB
:104940007EC07DF07FC07EF000017F6B7CC081F077
:104950007DC082F07EC083F07FC084F081C01EFFE6
:10496000000179A103D00F011D8102D00F011D911B
:10497000000179A303D00F011D8302D00F011D9305
:10498000000179A503D00F011D8B02D00F011D9BE3
:10499000000179A703D00F011D8D02D00F011D9DCD
:1049A000000179A903D00F011D8F02D00F011D9FB7
:1049B00077C07CF078C07DF079C07EF07AC07FF05F
:1049C000160E06D00001D8907F337E337D337C33C2
:1049D000E82EF8D77CC081F07DC082F07EC083F0E5
:1049E0007FC084F0000181510001816F826B836B75
:1049F000846B81C01CFF1200000E0101AD6F01012C
:104A0000A0AF15D09DC1BDF09EC1BEF09FC1BFF04B
:104A1000A0C1C0F0E9EC32F0BDC09DF1BEC09EF176
:104A2000BFC09FF1C0C0A0F1010E0101AD6F9DC1DB
:104A300090F09EC191F09FC192F0A0C193F0830EBF
:104A40000001946FF90E956F220E966F3E0E976FD0
:104A5000D9EC1AF090C09DF191C09EF192C09FF1E7
:104A600093C0A0F19DC195F19EC196F19FC197F1B0
:104A7000A0C198F19DC18BF19EC18CF19FC18DF1B8
:104A8000A0C18EF188EC2EF08BC199F18CC19AF106
:104A90008DC19BF18EC19CF189EC32F095C19DF1E5
:104AA00096C19EF197C19FF198C1A0F19DC190F070
:104AB0009EC191F09FC192F0A0C193F0000E000141
:104AC000946F000E956F800E966F400E976FD9EC25
:104AD0001AF090C09DF191C09EF192C09FF193C0D9
:104AE000A0F1000E0001C56F000EC66F000EC76F6B
:104AF000400EC86F9DC1C9F09EC1CAF09FC1CBF0E6
:104B0000A0C1CCF026EC2DF00001D8B025D09DC17D
:104B100095F19EC196F19FC197F1A0C198F1000E49
:104B20000101996F000E9A6F000E9B6F400E9C6FF3
:104B300089EC32F095C19DF196C19EF197C19FF12C
:104B400098C1A0F10101AD510101D8A402D0010E1C
:104B500001D0000E0101AD6F000E0001C56F000E07
:104B6000C66F800EC76F3F0EC86F9DC1C9F09EC152
:104B7000CAF09FC1CBF0A0C1CCF026EC2DF0000113
:104B8000D8B025D09DC1BDF09EC1BEF09FC1BFF081
:104B9000A0C1C0F0E9EC32F0BDC0A9F0BEC0AAF0DF
:104BA000BFC0ABF0C0C0ACF0000E0001AD6F000E96
:104BB000AE6F000EAF6F400EB06F85EC18F0A9C05D
:104BC0009DF1AAC09EF1ABC09FF1ACC0A0F19DC108
:104BD00090F09EC191F09FC192F0A0C193F09DC151
:104BE00094F09EC195F09FC196F0A0C197F0D9ECCA
:104BF0001AF090C0A9F191C0AAF192C0ABF193C094
:104C0000ACF1A9C1BDF0AAC1BEF0ABC1BFF0ACC14F
:104C1000C0F0410E0001C16F0D0E0001C26F000E09
:104C20000001C46F030EC36F1AEC2FF0BDC0A1F1D9
:104C3000BEC0A2F1BFC0A3F1C0C0A4F1A1C17BF06E
:104C4000A2C17CF0A3C17DF0A4C17EF0000E0001E2
:104C5000C46F040EC36F2D0E0001C16F0D0E000155
:104C6000C26FA9C1BDF0AAC1BEF0ABC1BFF0ACC15B
:104C7000C0F01AEC2FF0BDC077F0BEC078F0BFC016
:104C800079F0C0C07AF04DEC21F077C0A5F178C082
:104C9000A6F179C0A7F17AC0A8F19DC190F09EC19C
:104CA00091F09FC192F0A0C193F0A5C194F0A6C16C
:104CB00095F0A7C196F0A8C197F0D9EC1AF090C072
:104CC0009DF191C09EF192C09FF193C0A0F10101AE
:104CD000AD510101D8B413D09DC1BDF09EC1BEF04D
:104CE0009FC1BFF0A0C1C0F0E9EC32F0BDC09DF1A2
:104CF000BEC09EF1BFC09FF1C0C0A0F112009DC117
:104D00009DF19EC19EF19FC19FF1A0C1A0F1120033
:104D1000000E0001C56F000EC66F800EC76F3F0EFC
:104D2000C86FD5C0C1F0D6C0C2F0D7C0C3F0D8C0DC
:104D3000C4F0ADEC32F0C1C0C9F0C2C0CAF0C3C00B
:104D4000CBF0C4C0CCF026EC2DF00001D8B00FD0D1
:104D5000000E0001E56F210EE46F000E0001D56F1B
:104D6000000ED66F000ED76F000ED86F1200000E27
:104D70000101A06F000EA16F800EA26F3F0EA36F06
:104D8000D5C094F0D6C095F0D7C096F0D8C097F0B3
:104D9000D5C090F0D6C091F0D7C092F0D8C093F0B3
:104DA000D9EC1AF090C0BDF091C0BEF092C0BFF037
:104DB00093C0C0F0E9EC32F0BDC0A9F0BEC0AAF0CB
:104DC000BFC0ABF0C0C0ACF0000E0001AD6F000E74
:104DD000AE6F800EAF6F3F0EB06F85EC18F0A9C0BC
:104DE000C1F0AAC0C2F0ABC0C3F0ACC0C4F068EC64
:104DF0001FF0C1C0ACF1C2C0ADF1C3C0AEF1C4C0C0
:104E0000AFF1D5C0C1F0D6C0C2F0D7C0C3F0D8C092
:104E1000C4F0ADEC32F0C1C0C5F0C2C0C6F0C3C032
:104E2000C7F0C4C0C8F08F0E0001C96FC20ECA6FB0
:104E3000350ECB6F3F0ECC6F26EC2DF00001D8B0B5
:104E40002DD0D5C077F0D6C078F0D7C079F0D8C0D3
:104E50007AF0ACC17BF0ADC17CF0AEC17DF0AFC1EA
:104E60007EF04DEC21F077C0B0F178C0B1F179C09F
:104E7000B2F17AC0B3F1B0C1D1F0B1C1D2F0B2C1D8
:104E8000D3F0B3C1D4F053EC29F0D1C0D5F0D2C0E7
:104E9000D6F0D3C0D7F0D4C0D8F012000001D8AFFC
:104EA0006ED0D5C07BF0D6C07CF0D7C07DF0D8C026
:104EB0007EF0ACC1BDF0ADC1BEF0AEC1BFF0AFC1C0
:104EC000C0F0E9EC32F0BDC077F0BEC078F0BFC0F2
:104ED00079F0C0C07AF04DEC21F077C0B0F178C025
:104EE000B1F179C0B2F17AC0B3F1B0C1D1F0B1C1C2
:104EF000D2F0B2C1D3F0B3C1D4F053EC29F0D1C099
:104F0000A8F1D2C0A9F1D3C0AAF1D4C0ABF1DB0E95
:104F10000001AD6F0F0EAE6FC90EAF6F3F0EB06FD9
:104F2000A8C1BDF0A9C1BEF0AAC1BFF0ABC1C0F01D
:104F3000E9EC32F0BDC0A9F0BEC0AAF0BFC0ABF032
:104F4000C0C0ACF085EC18F0A9C0A4F1AAC0A5F1CE
:104F5000ABC0A6F1ACC0A7F1A4C1BDF0A5C1BEF025
:104F6000A6C1BFF0A7C1C0F0E9EC32F0BDC0D5F0DA
:104F7000BEC0D6F0BFC0D7F0C0C0D8F01200D5C0B8
:104F80007BF0D6C07CF0D7C07DF0D8C07EF0ACC13D
:104F900077F0ADC178F0AEC179F0AFC17AF04DECE9
:104FA00021F077C0B0F178C0B1F179C0B2F17AC028
:104FB000B3F1B0C1D1F0B1C1D2F0B2C1D3F0B3C13D
:104FC000D4F053EC29F0D1C0A8F1D2C0A9F1D3C0DC
:104FD000AAF1D4C0ABF1A8C1BDF0A9C1BEF0AAC16D
:104FE000BFF0ABC1C0F0E9EC32F0BDC0A9F0BEC06B
:104FF000AAF0BFC0ABF0C0C0ACF0DB0E0001AD6FDB
:105000000F0EAE6FC90EAF6F3F0EB06F85EC18F08C
:10501000A9C0D5F0AAC0D6F0ABC0D7F0ACC0D8F0CC
:10502000120020EE03F0DECFB4F1DDCFB5F10101C7
:10503000B41FB51FB44BB52B01500101B4250001BD
:10504000776F02500101B5210001786F20EC33F039
:10505000000177C0CBF0000178C0CCF00001000E59
:10506000CCBFFF0ECD6FCE6F010E7CEC2AF0CBC013
:1050700011F0CCC012F0CDC013F0CEC014F011C0AE
:10508000C5F012C0C6F013C0C7F014C0C8F0000EBF
:105090000001C96F000ECA6FA00ECB6F410ECC6F1E
:1050A00026EC2DF00001D8B0F5D0025003E11E0E21
:1050B000015CD8B0E1D0045003E11E0E035CD8B00F
:1050C000DBD011C094F012C095F013C096F014C05C
:1050D00097F011C090F012C091F013C092F014C07C
:1050E00093F0D9EC1AF090C0A9F091C0AAF092C048
:1050F000ABF093C0ACF0000E0001AD6F000EAE6FD0
:10510000C80EAF6F420EB06F85EC18F0A9C0DAF090
:10511000AAC0DBF0ABC0DCF0ACC0DDF0DAC0C1F09F
:10512000DBC0C2F0DCC0C3F0DDC0C4F068EC1FF02F
:10513000C1C0DAF0C2C0DBF0C3C0DCF0C4C0DDF037
:1051400011C077F012C078F013C079F014C07AF073
:10515000DAC07BF0DBC07CF0DCC07DF0DDC07EF02F
:105160004DEC21F077C015F078C016F079C017F03B
:105170007AC018F015C0D5F016C0D6F017C0D7F019
:1051800018C0D8F088EC26F0D5C015F0D6C016F0BF
:10519000D7C017F0D8C018F0DB0E00017B6F0F0EE0
:1051A0007C6F490E7D6F400E7E6F15C077F016C084
:1051B00078F017C079F018C07AF04DEC21F077C084
:1051C00090F078C091F079C092F07AC093F0000E20
:1051D0000001946F000E956F340E966F430E976F1B
:1051E000D9EC1AF090C015F091C016F092C017F0EB
:1051F00093C018F015C0C1F016C0C2F017C0C3F0BC
:1052000018C0C4F0A6EC2FF00001C1510101636F7A
:105210000350015C04500258D8B002D0000E01D0F7
:10522000010E0101646F115001013C1914E112508B
:1052300001013D1910E1135001013E190CE1145018
:1052400001013F19D8A407D0000E55B6010E010187
:105250006419D8B4120011C03CF112C03DF113C062
:105260003EF114C03FF1010164A102D0558601D086
:105270005596EEEC2DF01200000E55B6010E010110
:105280006319D8B41200000E0101636F5596EEEC5D
:105290002DF0120055A61200000E0101636F559605
:1052A000EEEC2DF01200D1C0C1F0D2C0C2F0D3C0DC
:1052B000C3F0D4C0C4F0ADEC32F0C1C098F1C2C0AC
:1052C00099F1C3C09AF1C4C09BF101019851010149
:1052D000991101019A1101019B11D8A40AD0000E65
:1052E0000001D16F000ED26F000ED36F000ED46F8D
:1052F0001200000E0001C56F000EC66F800EC76F52
:105300003F0EC86F98C1C9F099C1CAF09AC1CBF0DD
:105310009BC1CCF026EC2DF00001D8B002D0010EDC
:1053200001D0000E0101936F01019351D8B41BD03D
:10533000000E0001776F000E786F800E796F3F0EC0
:105340007A6F98C17BF099C17CF09AC17DF09BC1C6
:105350007EF04DEC21F077C098F178C099F179C0DA
:105360009AF17AC09BF198C190F099C191F09AC1DD
:1053700092F09BC193F098C194F099C195F09AC1B5
:1053800096F09BC197F0D9EC1AF090C094F191C0BF
:1053900095F192C096F193C097F194C1BDF095C17B
:1053A000BEF096C1BFF097C1C0F0190E0001C16FE9
:1053B0000D0E0001C26F000E0001C46F040EC36F1A
:1053C0001AEC2FF0BDC08BF1BEC08CF1BFC08DF1C7
:1053D000C0C08EF194C1BDF095C1BEF096C1BFF0C2
:1053E00097C1C0F0010E0001C16F0D0E0001C26F28
:1053F000000E0001C46F050EC36F1AEC2FF0BDC084
:105400008FF1BEC090F1BFC091F1C0C092F198C1C0
:1054100090F099C191F09AC192F09BC193F08BC129
:105420007BF08CC17CF08DC17DF08EC17EF08FC190
:1054300077F090C178F091C179F092C17AF04DEC9B
:1054400021F077C094F078C095F079C096F07AC0DA
:1054500097F0D9EC1AF090C098F191C099F192C0F0
:105460009AF193C09BF1010193510101D8B425D069
:1054700098C1BDF099C1BEF09AC1BFF09BC1C0F008
:10548000E9EC32F0BDC0A9F0BEC0AAF0BFC0ABF0DD
:10549000C0C0ACF0DB0E0001AD6F0F0EAE6FC90ED9
:1054A000AF6F3F0EB06F85EC18F0A9C098F1AAC09D
:1054B00099F1ABC09AF1ACC09BF10001D4BF09D007
:1054C00098C1D1F099C1D2F09AC1D3F09BC1D4F068
:1054D000120098C1BDF099C1BEF09AC1BFF09BC146
:1054E000C0F0E9EC32F0BDC0D1F0BEC0D2F0BFC018
:1054F000D3F0C0C0D4F012000001D36F0001D3512B
:105500000001D8B41ED00001CEAF1BD0CBC0CFF06D
:10551000CCC0D0F0CDC0D1F0CEC0D2F00001CF1FB2
:10552000D01FD11FD21FCF2B000ED023D123D223C7
:10553000CFC0D5F0D0C0D6F0D1C0D7F0D2C0D8F00F
:1055400008D0CBC0D5F0CCC0D6F0CDC0D7F0CEC0FF
:10555000D8F00001CB510001CC110001CD110001A8
:10556000CE11D8A40AD0000E0001CB6F000ECC6F74
:10557000000ECD6F000ECE6F1200960E0001D46F9C
:1055800008D00001D42B0001D890D833D733D633BC
:10559000D533000E0001D5150001CF6F000E0001BC
:1055A000D6150001D06F000E0001D7150001D16F94
:1055B000FE0E0001D8150001D26F0001CF5100018D
:1055C000D0110001D1110001D211D8B410D0D9D717
:1055D0000001D42B010E0001D527000ED623D723BE
:1055E000D8230001D890D833D733D633D533000E23
:1055F0000001D5150001CF6F000E0001D615000186
:10560000D06F000E0001D7150001D16FFF0E000111
:10561000D8150001D26F0001CF510001D011000157
:10562000D1110001D211D8B409D0D2D70001D407CA
:105630000001D890D537D637D737D8370001D7BF34
:1056400004D0020E0001D461F1D70001D4B109D019
:10565000FF0E0001D517FF0ED6177F0ED717FF0ECE
:10566000D8170001D890D433D4C0CFF00001D06B4C
:10567000D16BD26BCFC0D2F00001D16BD06BCF6BAE
:105680000001CF510001D5130001D0510001D61304
:105690000001D1510001D7130001D2510001D813EC
:1056A0000001D3510001D8B405D00001CEAF02D023
:1056B0000001D88FD5C0CBF0D6C0CCF0D7C0CDF08C
:1056C000D8C0CEF0120000018E6F800E6DEC33F06A
:1056D000000E706E000E716E000E726E000187413A
:1056E000E842C00B0001876F000187517012000172
:1056F0008851701200018E51711200018539E84203
:10570000F80B0001856F000185517112000189A518
:10571000718C000189B1718E0001865172120001F5
:1057200089B3728C00018951600B606E0001895150
:10573000100BFF0AD8B4608460CF50FF000E000148
:10574000776F000E786F000E796F000E7A6FF70E8C
:1057500000017B6F010E2DEC23F0000E0001776F2E
:10576000000E786F000E796F000E7A6FF70E000151
:105770007B6F020E2DEC23F00FD0F70E00018F6F20
:1057800007D000018F690001906928D000018F695E
:10579000F70E0001906F22D09F0E00018A6FFF0E5E
:1057A00000018B6F00018951600B00018C6F8D6BC4
:1057B00000018A5100018C1300018B5100018D13EF
:1057C00000018D51000AD8A4E1D700018C51BF0A15
:1057D000D8B4D7D7600AD8B4D0D7D8D7000E000134
:1057E000776F000E786F000E796F000E7A6F8FC0A2
:1057F0007BF0000EA9EC06F0000E0001776F000EA2
:10580000786F000E796F000E7A6F8FC07BF0010EFB
:10581000A9EC06F0000E0001776F000E786F000E05
:10582000796F000E7A6F90C07BF0020EA9EC06F043
:10583000000E0001776F000E786F000E796F000E7A
:105840007A6F90C07BF0030EA9EC06F0000E000109
:10585000776F000E786F000E796F000E7A6F90C030
:105860007BF0040EA9EC06F0000E0001776F000E2D
:10587000786F000E796F000E7A6F90C07BF0050E86
:10588000A9EC06F0000E6DEC33F01200DAD011EC4A
:1058900028F0025004E1330E015CD8A029D055B89D
:1058A00056D04CEC33F00009D8B4FBD7080E0001F9
:1058B000776F000E786F000E796F000E7A6F530EBF
:1058C00000017B6F010E00017C6F080E00017D6FEF
:1058D000FC0E00017E6F2CEC0CF05588000E116E52
:1058E000000E126E000E136E000E146E8A882FD0FA
:1058F0008A9820EE03F0DECFB6F1DDCFB7F10101DB
:10590000B61FB71FB64BB72B01500101B6250001DA
:10591000776F02500101B7210001786F20EC33F05E
:10592000000177C0CBF0000178C0CCF00001000E80
:10593000CCBFFF0ECD6FCE6F010E7CEC2AF0CBC03A
:1059400011F0CCC012F0CDC013F0CEC014F0025054
:1059500028E1320E015CD8A055A823D0045021E1E3
:10596000320E035CD8B01DD055984CEC33F00009D2
:10597000D8B4FBD7070E0001776F000E786F000ECA
:10598000796F000E7A6F530E00017B6F010E0001DC
:105990007C6F080E00017D6FFC0E00017E6F2CEC09
:1059A0000CF054AA4ED01A5004E1420E195CD8A053
:1059B00046D0818A010E0101536F0B0E0001776FF3
:1059C000000E786F000E796F000E7A6F530E000193
:1059D0007B6F010E00017C6F010E00017D6FBC0E1C
:1059E00000017E6F2CEC0CF055BA2BD0025029E14F
:1059F000280E015CD8B025D0320E01017B6F548295
:105A00004CEC33F00009D8B4FBD70D0E0001776FD2
:105A1000000E786F000E796F000E7A6F7B0E00011A
:105A20007B6F010E00017C6F080E00017D6FBC0EC4
:105A300000017E6F2CEC0CF0549C558A02D0549AD5
:105A4000819A54A0120081BA120021D7000E0001E1
:105A5000C5150001CD6F000E0001C6150001CE6F07
:105A6000800E0001C7150001CF6F7F0E0001C81521
:105A70000001D06F0001CD510001CE110001CF1106
:105A80000001D011D8A409D0000E0001C56F000E8E
:105A9000C66F000EC76F000EC86F000E0001C9155B
:105AA0000001CD6F000E0001CA150001CE6F800EFF
:105AB0000001CB150001CF6F7F0E0001CC15000156
:105AC000D06F0001CD510001CE110001CF110001B6
:105AD000D011D8A409D0000E0001C96F000ECA6F02
:105AE000000ECB6F000ECC6F0001C8AF26D0C5C032
:105AF000CDF0C6C0CEF0C7C0CFF0C8C0D0F0000116
:105B0000CD1FCE1FCF1FD01FCD2B000ECE23CF23F6
:105B1000D023000E0001CD250001C56F000E00014D
:105B2000CE210001C66F000E0001CF210001C76F1A
:105B3000800E0001D0210001C86F0001CCAF26D03B
:105B4000C9C0CDF0CAC0CEF0CBC0CFF0CCC0D0F031
:105B50000001CD1FCE1FCF1FD01FCD2B000ECE2397
:105B6000CF23D023000E0001CD250001C96F000E08
:105B70000001CE210001CA6F000E0001CF210001FB
:105B8000CB6F800E0001D0210001CC6F000E000110
:105B9000C51B000EC61B000EC71B800EC81B000EC7
:105BA0000001C91B000ECA1B000ECB1B800ECC1BB4
:105BB0000001C9510001C55D0001CA510001C6596B
:105BC0000001CB510001C7590001CC510001C85957
:105BD000D8B002D0D8901200D880120081AA62D02A
:105BE0004CEC33F0E806D8A4FBD7050E0001776F24
:105BF000000E786F000E796F000E7A6F730E000141
:105C00007B6F010E00017C6F080E00017D6FBC0EE2
:105C100000017E6F2CEC0CF025C06BF126500101C9
:105C20006C6F000E54B6010E01016D6F4CEC33F039
:105C3000E806D8A4FBD7030E0001776F000E786F3B
:105C4000000E796F000E7A6F6B0E00017B6F010EF4
:105C500000017C6F080E00017D6FBC0E00017E6F9D
:105C60002CEC0CF04CEC33F0E806D8A4FBD7000E7B
:105C700001015C6F040E0001776F000E786F000E5B
:105C8000796F000E7A6F5B0E00017B6F010E0001D1
:105C90007C6F080E00017D6FBC0E00017E6F2CEC46
:105CA0000CF012000E0E0001776F000E786F000EE0
:105CB000796F000E7A6F630E00017B6F010E000199
:105CC0007C6F080E00017D6FBC0E00017E6F2CEC16
:105CD0000CF020EE87F063C1DFFF000EE8CF88F004
:105CE000AA0E0001776F000E786F000E796F000E1C
:105CF0007A6F870E00017B6F000E00017C6F080E2B
:105D000000017D6FBC0E00017E6F2CEC0CF01200C8
:105D10008BC177F08CC178F08DC179F08EC17AF0AB
:105D2000930E00017B6F010E00017C6F6BEC31F074
:105D3000010194AF17D001018EAF0AD0000E01010E
:105D40008B6F000E8C6F800E8D6FBF0E8E6F1200EA
:105D5000000E01018B6F000E8C6F000E8D6F000E18
:105D60008E6F12000101945105E11D0E0101935D3A
:105D7000D8A009D08BC18BF18CC18CF18DC18DF174
:105D80008EC18EF112008BC1C1F08CC1C2F08DC1E9
:105D9000C3F08EC1C4F0A6EC2FF0C1C0CBF0C2C0DE
:105DA000CCF0C3C0CDF0C4C0CEF0010E7CEC2AF024
:105DB000CBC08FF1CCC090F1CDC091F1CEC092F1AB
:105DC0008BC1C5F08CC1C6F08DC1C7F08EC1C8F0C3
:105DD0008FC1C9F090C1CAF091C1CBF092C1CCF093
:105DE00026EC2DF00001D8B01CD08FC1A9F090C1D5
:105DF000AAF091C1ABF092C1ACF0000E0001AD6F02
:105E0000000EAE6F800EAF6FBF0EB06F85EC18F056
:105E1000A9C08BF1AAC08CF1ABC08DF1ACC08EF1E2
:105E200012008FC18BF190C18CF191C18DF192C1A3
:105E30008EF11200C3C0C5F0C4C0C6F00001D890F6
:105E4000C537C6370001D890C537C637C1C0C7F0BF
:105E5000C2C0C8F00001C5510001C7270001C651EA
:105E60000001C823C7C0F6FFC8C0F7FF000EF86ED8
:105E70000900F5CFC9F00900F5CFCAF00900F5CF48
:105E8000CBF00A00F5CFCCF052D0C9C094F0CAC014
:105E900095F0CBC096F0CCC097F0BDC090F0BEC0DE
:105EA00091F0BFC092F0C0C093F0D9EC1AF090C04E
:105EB000A9F091C0AAF092C0ABF093C0ACF0000181
:105EC000C307D8A0C407C3C0C5F0C4C0C6F0000152
:105ED000D890C537C6370001D890C537C637C1C07E
:105EE000C7F0C2C0C8F00001C5510001C7270001BA
:105EF000C6510001C823C7C0F6FFC8C0F7FF000E97
:105F0000F86E0900F5CFADF00900F5CFAEF009004D
:105F1000F5CFAFF00A00F5CFB0F085EC18F0A9C0CE
:105F2000C9F0AAC0CAF0ABC0CBF0ACC0CCF0000145
:105F3000C3510001C411D8A4A8D7C9C0BDF0CAC0BC
:105F4000BEF0CBC0BFF0CCC0C0F012000001C33522
:105F5000C4350001CA6F0001CA51D8A40AD0000E8E
:105F60000001C16F000EC26F000EC36F000EC46F40
:105F70001200C1C0C5F0C2C0C6F0C3C0C7F0C4C0E3
:105F8000C8F0200E06D00001D890C833C733C633FE
:105F9000C533E82EF8D70001C5510001C96F0001D3
:105FA000C38FFF0E0001C117FF0EC217FF0EC317EC
:105FB000000EC417960E0001CA5F0001CAAF1AD0C6
:105FC0000001CA51800A970FD8B00AD0000E000114
:105FD000C16F000EC26F000EC36F000EC46F1200BF
:105FE0000001D890C433C333C233C1330001CA3F68
:105FF000F7D71BD01F0E0001CA6512D0000E00019A
:10600000C16F000EC26F000EC36F000EC46F12008E
:106010000001D890C137C237C337C4370001CA075F
:106020000001CA510001D8A4F3D70001C9510001F1
:10603000D8B409D00001C41FC31FC21FC16D000E18
:10604000C223C323C423C1C0C1F0C2C0C2F0C3C0B5
:10605000C3F0C4C0C4F01200DB0E0001C56F0F0E08
:10606000C66F490EC76F400EC86FB4C1C9F0B5C145
:10607000CAF0B6C1CBF0B7C1CCF026EC2DF00001D0
:10608000D8B02ED0B4C1A9F0B5C1AAF0B6C1ABF05A
:10609000B7C1ACF0E40E0001AD6FCB0EAE6F960E43
:1060A000AF6FC00EB06F85EC18F0A9C0B8F1AAC0F0
:1060B000B9F1ABC0BAF1ACC0BBF1B8C19DF1B9C187
:1060C0009EF1BAC19FF1BBC1A0F1FCEC24F09DC1CF
:1060D000B4F19EC1B5F19FC1B6F1A0C1B7F11200F4
:1060E000B4C1A9F0B5C1AAF0B6C1ABF0B7C1ACF06C
:1060F000DB0E0001AD6F0F0EAE6FC90EAF6F3F0E1E
:10610000B06F85EC18F0A9C0B8F1AAC0B9F1ABC066
:10611000BAF1ACC0BBF1B8C19DF1B9C19EF1BAC131
:106120009FF1BBC1A0F1FCEC24F09DC1B4F19EC174
:10613000B5F19FC1B6F1A0C1B7F11200E9CF6BF084
:10614000EACF6CF0E1CF6DF0E2CF6EF0D9CF6FF017
:10615000DACF70F0F3CF71F0F4CF72F0F6CF73F0C6
:10616000F7CF74F0F8CF75F0F5CF76F0F1AC07D03B
:10617000F19C000EB36E000EB26E549830D0B3CFC7
:106180002BF0B2CF2AF02BC027F0286A275000014D
:10619000676F2A50276E67C028F0D890283000011A
:1061A000676F2730216E67C022F021C060F022C0E7
:1061B00061F0000E0001636F3A0E626FB5EC31F0D2
:1061C0002950020D010EF324D96E000EF420DA6E70
:1061D000000160C0DEFF000161C0DDFFF18CF292C2
:1061E00076C0F5FF75C0F8FF74C0F7FF73C0F6FF07
:1061F00072C0F4FF71C0F3FF70C0DAFF6FC0D9FF47
:106200006EC0E2FF6DC0E1FF6CC0EAFF6BC0E9FF4A
:106210006AC0FBFF69C0FAFF56921100000E01012F
:10622000006F010E0101016F020E0101026F030EEA
:106230000101036F040E0101046F050E0101056FDA
:10624000060E0101066F070E0101076F559029EC3C
:1062500032F08198819A819C5598559C33D04CECB2
:1062600033F00009D8B4FBD781A802D0010E01D0C9
:10627000000EFF0A0001D96F0001D93B81500001D7
:10628000D919EF0BD919816EAA0E0001776F000E94
:10629000786F000E796F000E7A6F830E00017B6FAE
:1062A000010E00017C6F080E00017D6FFC0E0001E5
:1062B0007E6F2CEC0CF0000E00017E6F640E7D6F83
:1062C000CCEC32F054A0CBD746EC2CF05FEC32F0A3
:1062D0002CEC1DF0F7D70001775100017811000177
:1062E000791100017A11D8A409D07BC0D9FF7CC0F4
:1062F000DAFF000EDE6E000EDD6E120000017A5134
:106300007F0B00017D6F7E6BD89000017D377E375B
:106310007BC0D9FF7CC0DAFF7DC0DEFF7EC0DDFF21
:10632000000179AF04D000017D6B7D2B02D000010C
:106330007D6B00017D517BC0D9FF7CC0DAFFDE128E
:10634000000EDD127BC0D9FF7CC0DAFF820EDE2694
:10635000FF0EDD2200017A817A837A857A877A8935
:106360007A8B7A9D0001799F1200000E0001666F02
:10637000000E656F0001625100016311D8B42CD08A
:10638000010E0001646F06D00001D89062376337B8
:106390000001642B000163AFF7D70001D890653787
:1063A0006637000162510001605D00016351000128
:1063B0006159D8A00AD0000162510001605F00015C
:1063C00063510001615B000165810001D890633376
:1063D00062330001642FE1D765C060F066C061F0F0
:1063E000120001EE00F08B0EEE6AE806FDE100EE11
:1063F000DAF00C0EEE6AE806FDE1556A546A00EE2A
:1064000001F02C0EEE6AE806FDE1F00EF66E660E67
:10641000F76E000EF86E01EEE4F010EE08F00900E1
:10642000F5CFEEFFE550E150FAE1F80EF66E660E9C
:10643000F76E000EF86E0900F5CFE6F00900F5CF13
:10644000E7F00900F5CFE8F05690569200010EEF04
:1064500031F0000E896EF00E926E000E8A6E8A0E7A
:10646000936E000E8B6E9468C168060E0001856FF6
:10647000050E0001866F010E0001876F030E0001FB
:10648000886F9D0E0001896F040E63EC2BF0D08E97
:10649000A492A490A592A590A382A380F194800ECB
:1064A000D56E110EB16E340ED76EE00ED66EF2942C
:1064B000F28AF18CF292F298F28CF28E120009C1FB
:1064C0001FF0206A1F500001776F010108511F6EF5
