:040000001BEF01F001
:10000800FACF67F0FBCF68F0E9CF69F0F9EF21F09C
:10001800D8CF34F0E8CF35F0E0CF36F0FACF37F06C
:10002800FBCF38F0E9CF39F0EACF3AF0E1CF3BF037
:10003800E2CF3CF0D9CF3DF0DACF3EF0F3CF3FF03E
:10004800F4CF40F0F6CF41F0F7CF42F0F8CF43F0CD
:10005800F5CF44F0A4B002D0A4A28DD00101010EC6
:10006800276E0101100E266EE7EC10F00101105109
:10007800070A111112111311D8A42DD001011E0560
:10008800D8B429D0000E0001DF6F000E0001DE6F2A
:10009800010115C117F0186A1750186E01011451A3
:1000A800176E010117C119F01A6A19501A6E010169
:1000B8001651196E19C032F01AC033F01750322693
:1000C80018503322D89033300001DF6F32300001EE
:1000D800DE6F00014786010110510A0A1111121141
:1000E8001311D8A40DD001011405D8A404D000011F
:1000F8004780818C05D0000147908198819A819C26
:10010800010110510C0A111112111311D8A402D0B7
:100118000001478C01011051060A11111211131127
:10012800D8A427D0000E466E17D04650010D010105
:10013800140EF324D96E0101010EF420DA6E465034
:10014800010D0101000EF324E16E0101010EF420FE
:10015800E26EDFCFE7FF462A070E4664E6D70101C5
:1001680010510D0A111112111311D8A402D0000157
:100178004798A490A492F2A437D0F298340ED76E80
:10018800E00ED66E000147A40CD02350020D010EDC
:10019800F324D96E000EF420DA6E880EDE6E130E8C
:1001A800DD6E232A2350080AD8A402D0000E236E3D
:1001B800000E456E2350010D0001D20EF324D96EB6
:1001C8000001000EF420DA6EDF50456E45C080FF56
:1001D80093908A80140EE82EFED7000147848A90F7
:1001E8009380F292F288F29444C0F5FF43C0F8FF7E
:1001F80042C0F7FF41C0F6FF40C0F4FF3FC0F3FF25
:100208003EC0DAFF3DC0D9FF3CC0E2FF3BC0E1FF82
:100218003AC0EAFF39C0E9FF38C0FBFF37C0FAFF30
:1002280036C0E0FF35C0E8FF34C0D8FF100053EFF8
:0202380023F0B1
:100D000000063C04427D9F6A425C900142604DBBFC
:100D10004051EC473EDE8D1FBB063C0442C0598B60
:100D20004274044442F99B4F410000803F0000019F
:100D30007E6F00017E6763D000017929D8A45FD05F
:100D40000F010197000175C07AF0000176C07BF0B9
:100D5000000177C07CF0000178C07DF0040E06D061
:100D60000001D8907D337C337B337A33E82EF8D77B
:100D70007AC07FF07BC080F07CC081F07DC082F0C3
:100D800000017F5100017F6F0001806B0001816BCA
:100D90000001826B7FC000FF070E00017515000186
:100DA0007F6F000E000176150001806F000E0001BC
:100DB00077150001816F000E000178150001826F28
:100DC00000017FC07AF0000180C07BF0000181C08B
:100DD0007CF0000182C07DF0050ED89000017A37CA
:100DE0007B377C377D37E82EF8D77AC07FF07BC021
:100DF00080F07CC081F07DC082F07FC001FF0001E7
:100E00007E05D8A463D000017929D8A45FD00F0152
:100E10000597000175C07AF0000176C07BF00001F3
:100E200077C07CF0000178C07DF0040E06D0000190
:100E3000D8907D337C337B337A33E82EF8D77AC071
:100E40007FF07BC080F07CC081F07DC082F000012B
:100E50007F5100017F6F0001806B0001816B0001F9
:100E6000826B7FC004FF070E0001751500017F6FC4
:100E7000000E000176150001806F000E000177154D
:100E80000001816F000E000178150001826F0001E2
:100E90007FC07AF0000180C07BF0000181C07CF04F
:100EA000000182C07DF0050ED89000017A377B37B3
:100EB0007C377D37E82EF8D77AC07FF07BC080F092
:100EC0007CC081F07DC082F07FC005FF00017E51B3
:100ED000020AD8A463D000017929D8A45FD00F01F9
:100EE0000997000175C07AF0000176C07BF000011F
:100EF00077C07CF0000178C07DF0040E06D00001C0
:100F0000D8907D337C337B337A33E82EF8D77AC0A0
:100F10007FF07BC080F07CC081F07DC082F000015A
:100F20007F5100017F6F0001806B0001816B000128
:100F3000826B7FC008FF070E0001751500017F6FEF
:100F4000000E000176150001806F000E000177157C
:100F50000001816F000E000178150001826F000111
:100F60007FC07AF0000180C07BF0000181C07CF07E
:100F7000000182C07DF0050ED89000017A377B37E2
:100F80007C377D37E82EF8D77AC07FF07BC080F0C1
:100F90007CC081F07DC082F07FC009FF00017E51DE
:100FA000030AD8A463D000017929D8A45FD00F0127
:100FB0000D97000175C07AF0000176C07BF000014A
:100FC00077C07CF0000178C07DF0040E06D00001EF
:100FD000D8907D337C337B337A33E82EF8D77AC0D0
:100FE0007FF07BC080F07CC081F07DC082F000018A
:100FF0007F5100017F6F0001806B0001816B000158
:10100000826B7FC00CFF070E0001751500017F6F1A
:10101000000E000176150001806F000E00017715AB
:101020000001816F000E000178150001826F000140
:101030007FC07AF0000180C07BF0000181C07CF0AD
:10104000000182C07DF0050ED89000017A377B3711
:101050007C377D37E82EF8D77AC07FF07BC080F0F0
:101060007CC081F07DC082F07FC00DFF00017E5109
:10107000040AD8A463D000017929D8A45FD00F0155
:101080001197000175C07AF0000176C07BF0000175
:1010900077C07CF0000178C07DF0040E06D000011E
:1010A000D8907D337C337B337A33E82EF8D77AC0FF
:1010B0007FF07BC080F07CC081F07DC082F00001B9
:1010C0007F5100017F6F0001806B0001816B000187
:1010D000826B7FC010FF070E0001751500017F6F46
:1010E000000E000176150001806F000E00017715DB
:1010F0000001816F000E000178150001826F000170
:101100007FC07AF0000180C07BF0000181C07CF0DC
:10111000000182C07DF0050ED89000017A377B3740
:101120007C377D37E82EF8D77AC07FF07BC080F01F
:101130007CC081F07DC082F07FC011FF00017E5134
:10114000050AD8A463D000017929D8A45FD00F0183
:101150001597000175C07AF0000176C07BF00001A0
:1011600077C07CF0000178C07DF0040E06D000014D
:10117000D8907D337C337B337A33E82EF8D77AC02E
:101180007FF07BC080F07CC081F07DC082F00001E8
:101190007F5100017F6F0001806B0001816B0001B6
:1011A000826B7FC014FF070E0001751500017F6F71
:1011B000000E000176150001806F000E000177150A
:1011C0000001816F000E000178150001826F00019F
:1011D0007FC07AF0000180C07BF0000181C07CF00C
:1011E000000182C07DF0050ED89000017A377B3770
:1011F0007C377D37E82EF8D77AC07FF07BC080F04F
:101200007CC081F07DC082F07FC015FF00017E6749
:1012100097D000017951F70AD8A492D00F01018725
:101220000001755100017F6F0001806B0001816B2F
:101230000001826B7FC003FF000E000175150001E5
:101240007F6FFF0E000176150001806F000E000118
:1012500077150001816F000E000178150001826F83
:1012600000017FC07AF0000180C07BF0000181C0E6
:101270007CF0000182C07DF07BC07AF07CC07BF006
:101280007DC07CF000017D6B7AC07FF07BC080F078
:101290007CC081F07DC082F07FC002FF000177A199
:1012A00003D00F01018102D00F010191000177A34A
:1012B00003D00F01018302D00F010193000177A534
:1012C00003D00F01018B02D00F01019B000177A712
:1012D00003D00F01018D02D00F01019D000177A9FC
:1012E00003D00F01018F02D00F01019F000175C0D3
:1012F0007AF0000176C07BF0000177C07CF000013D
:1013000078C07DF0160E06D00001D8907D337C3376
:101310007B337A33E82EF8D77AC07FF07BC080F039
:101320007CC081F07DC082F000017F5100017F6FA1
:101330000001806B0001816B0001826B7FC000FFA8
:1013400000017E05D8A497D000017951F70AD8A4EE
:1013500092D00F0105870001755100017F6F0001D8
:10136000806B0001816B0001826B7FC007FF000E64
:101370000001751500017F6FFF0E00017615000159
:10138000806F000E000177150001816F000E0001D3
:1013900078150001826F00017FC07AF0000180C0E3
:1013A0007BF0000181C07CF0000182C07DF07BC039
:1013B0007AF07CC07BF07DC07CF000017D6B7AC050
:1013C0007FF07BC080F07CC081F07DC082F07FC068
:1013D00006FF000177A103D00F01058102D00F01A4
:1013E0000591000177A303D00F01058302D00F01FF
:1013F0000593000177A503D00F01058B02D00F01E3
:10140000059B000177A703D00F01058D02D00F01C6
:10141000059D000177A903D00F01058F02D00F01B0
:10142000059F000175C07AF0000176C07BF00001D5
:1014300077C07CF0000178C07DF0160E06D0000168
:10144000D8907D337C337B337A33E82EF8D77AC05B
:101450007FF07BC080F07CC081F07DC082F0000115
:101460007F5100017F6F0001806B0001816B0001E3
:10147000826B7FC004FF00017E51020AD8A497D07E
:1014800000017951F70AD8A492D00F010987000111
:10149000755100017F6F0001806B0001816B0001BD
:1014A000826B7FC00BFF000E0001751500017F6F7E
:1014B000FF0E000176150001806F000E0001771508
:1014C0000001816F000E000178150001826F00019C
:1014D0007FC07AF0000180C07BF0000181C07CF009
:1014E000000182C07DF07BC07AF07CC07BF07DC0C3
:1014F0007CF000017D6B7AC07FF07BC080F07CC007
:1015000081F07DC082F07FC00AFF000177A103D087
:101510000F01098102D00F010991000177A303D0C7
:101520000F01098302D00F010993000177A503D0B1
:101530000F01098B02D00F01099B000177A703D08F
:101540000F01098D02D00F01099D000177A903D079
:101550000F01098F02D00F01099F000175C07AF0B9
:10156000000176C07BF0000177C07CF0000178C0FC
:101570007DF0160E06D00001D8907D337C337B338E
:101580007A33E82EF8D77AC07FF07BC080F07CC039
:1015900081F07DC082F000017F5100017F6F00016A
:1015A000806B0001816B0001826B7FC008FF00012E
:1015B0007E51030AD8A497D000017951F70AD8A424
:1015C00092D00F010D870001755100017F6F00015E
:1015D000806B0001816B0001826B7FC00FFF000EEA
:1015E0000001751500017F6FFF0E000176150001E7
:1015F000806F000E000177150001816F000E000161
:1016000078150001826F00017FC07AF0000180C070
:101610007BF0000181C07CF0000182C07DF07BC0C6
:101620007AF07CC07BF07DC07CF000017D6B7AC0DD
:101630007FF07BC080F07CC081F07DC082F07FC0F5
:101640000EFF000177A103D00F010D8102D00F0121
:101650000D91000177A303D00F010D8302D00F017C
:101660000D93000177A503D00F010D8B02D00F0160
:101670000D9B000177A703D00F010D8D02D00F0144
:101680000D9D000177A903D00F010D8F02D00F012E
:101690000D9F000175C07AF0000176C07BF000015B
:1016A00077C07CF0000178C07DF0160E06D00001F6
:1016B000D8907D337C337B337A33E82EF8D77AC0E9
:1016C0007FF07BC080F07CC081F07DC082F00001A3
:1016D0007F5100017F6F0001806B0001816B000171
:1016E000826B7FC00CFF00017E51040AD8A497D002
:1016F00000017951F70AD8A492D00F011187000197
:10170000755100017F6F0001806B0001816B00014A
:10171000826B7FC013FF000E0001751500017F6F03
:10172000FF0E000176150001806F000E0001771595
:101730000001816F000E000178150001826F000129
:101740007FC07AF0000180C07BF0000181C07CF096
:10175000000182C07DF07BC07AF07CC07BF07DC050
:101760007CF000017D6B7AC07FF07BC080F07CC094
:1017700081F07DC082F07FC012FF000177A103D00D
:101780000F01118102D00F011191000177A303D045
:101790000F01118302D00F011193000177A503D02F
:1017A0000F01118B02D00F01119B000177A703D00D
:1017B0000F01118D02D00F01119D000177A903D0F7
:1017C0000F01118F02D00F01119F000175C07AF037
:1017D000000176C07BF0000177C07CF0000178C08A
:1017E0007DF0160E06D00001D8907D337C337B331C
:1017F0007A33E82EF8D77AC07FF07BC080F07CC0C7
:1018000081F07DC082F000017F5100017F6F0001F7
:10181000806B0001816B0001826B7FC010FF0001B3
:101820007E51050AD8A4120000017951F70AD8A404
:1018300012000F0115870001755100017F6F000133
:10184000806B0001816B0001826B7FC017FF000E6F
:101850000001751500017F6FFF0E00017615000174
:10186000806F000E000177150001816F000E0001EE
:1018700078150001826F00017FC07AF0000180C0FE
:101880007BF0000181C07CF0000182C07DF07BC054
:101890007AF07CC07BF07DC07CF000017D6B7AC06B
:1018A0007FF07BC080F07CC081F07DC082F07FC083
:1018B00016FF000177A103D00F01158102D00F019F
:1018C0001591000177A303D00F01158302D00F01FA
:1018D0001593000177A503D00F01158B02D00F01DE
:1018E000159B000177A703D00F01158D02D00F01C2
:1018F000159D000177A903D00F01158F02D00F01AC
:10190000159F000175C07AF0000176C07BF00001E0
:1019100077C07CF0000178C07DF0160E06D0000183
:10192000D8907D337C337B337A33E82EF8D77AC076
:101930007FF07BC080F07CC081F07DC082F0000130
:101940007F5100017F6F0001806B0001816B0001FE
:10195000826B7FC014FF12000F0140B766D17BC0BD
:1019600045FF00017CAD03D00F01458D02D00F0172
:10197000459D00017CA787D0000175510001816F52
:101980000001826B0001836B0001846B81C044FF06
:10199000000E000175150001816FFF0E0001761524
:1019A0000001826F000E000177150001836F000EA9
:1019B000000178150001846F000181C07DF00001F5
:1019C00082C07EF0000183C07FF0000184C080F0FF
:1019D0007EC07DF07FC07EF080C07FF00001806B14
:1019E0007DC081F07EC082F07FC083F080C084F033
:1019F00081C043FF000E0F01426F0F0142870001BB
:101A000077A102D00F014281000177A302D00F011C
:101A10004283000177A502D00F01428B000177A716
:101A200002D00F01428D000177A902D00F01428F31
:101A3000000175C07DF0000176C07EF0000177C026
:101A40007FF0000178C080F0160E06D00001D8901B
:101A500080337F337E337D33E82EF8D77DC081F02D
:101A60007EC082F07FC083F080C084F0000181518D
:101A70000001816F0001826B0001836B0001846BA8
:101A800081C041FF64D00F014297000175C07DF015
:101A9000000176C07EF0000177C07FF0000178C0C1
:101AA00080F0040E06D00001D89080337F337E335F
:101AB0007D33E82EF8D77DC081F07EC082F07FC0F4
:101AC00083F080C084F0000181510001816F00012A
:101AD000826B0001836B0001846B81C041FF070EA4
:101AE000000175150001816F000E000176150001DF
:101AF000826F000E000177150001836F000E000158
:101B000078150001846F000181C07DF0000182C062
:101B10007EF0000183C07FF0000184C080F0050EDC
:101B2000D89000017D377E377F378037E82EF8D791
:101B30007DC081F07EC082F07FC083F080C084F0E1
:101B40000F0142511F0B0F01426F81C042FF000184
:101B50007CA103D00F01408102D00F014091000110
:101B60007CA303D00F01408302D00F01409379C0C2
:101B7000D9FF7AC0DAFFDF500F01466F000120EE77
:101B800001F000017951D92600017A51DA22DF50A3
:101B90000F01476F000120EE02F000017951D926B4
:101BA00000017A51DA22DF500F01486F000120EE68
:101BB00003F000017951D92600017A51DA22DF5071
:101BC0000F01496F000120EE04F000017951D92680
:101BD00000017A51DA22DF500F014A6F000120EE36
:101BE00005F000017951D92600017A51DA22DF503F
:101BF0000F014B6F000120EE06F000017951D9264C
:101C000000017A51DA22DF500F014C6F000120EE03
:101C100007F000017951D92600017A51DA22DF500C
:101C20000F014D6F0F01408712000F0130B766D1D1
:101C30007BC035FF00017CAD03D00F01358D02D094
:101C40000F01359D00017CA787D00001755100016F
:101C5000816F0001826B0001836B0001846B81C086
:101C600034FF000E000175150001816FFF0E0001A9
:101C700076150001826F000E000177150001836F59
:101C8000000E000178150001846F000181C07DF015
:101C9000000182C07EF0000183C07FF0000184C09B
:101CA00080F07EC07DF07FC07EF080C07FF00001BC
:101CB000806B7DC081F07EC082F07FC083F080C0E9
:101CC00084F081C033FF000E0F01326F0F013287A5
:101CD000000177A102D00F013281000177A302D069
:101CE0000F013283000177A502D00F01328B000172
:101CF00077A702D00F01328D000177A902D00F0122
:101D0000328F000175C07DF0000176C07EF00001C9
:101D100077C07FF0000178C080F0160E06D0000179
:101D2000D89080337F337E337D33E82EF8D77DC063
:101D300081F07EC082F07FC083F080C084F000011B
:101D400081510001816F0001826B0001836B0001F2
:101D5000846B81C031FF64D00F013297000175C0E0
:101D60007DF0000176C07EF0000177C07FF00001B9
:101D700078C080F0040E06D00001D89080337F3305
:101D80007E337D33E82EF8D77DC081F07EC082F0AF
:101D90007FC083F080C084F0000181510001816F19
:101DA0000001826B0001836B0001846B81C031FFF5
:101DB000070E000175150001816F000E00017615F8
:101DC0000001826F000E000177150001836F000E85
:101DD000000178150001846F000181C07DF00001D1
:101DE00082C07EF0000183C07FF0000184C080F0DB
:101DF000050ED89000017D377E377F378037E82E7B
:101E0000F8D77DC081F07EC082F07FC083F080C0B3
:101E100084F00F0132511F0B0F01326F81C032FF6E
:101E200000017CA103D00F01308102D00F0130915D
:101E300000017CA303D00F01308302D00F01309347
:101E400079C0D9FF7AC0DAFFDF500F01366F000189
:101E500020EE01F000017951D92600017A51DA22F1
:101E6000DF500F01376F000120EE02F000017951C1
:101E7000D92600017A51DA22DF500F01386F0001B4
:101E800020EE03F000017951D92600017A51DA22BF
:101E9000DF500F01396F000120EE04F0000179518D
:101EA000D92600017A51DA22DF500F013A6F000182
:101EB00020EE05F000017951D92600017A51DA228D
:101EC000DF500F013B6F000120EE06F00001795159
:101ED000D92600017A51DA22DF500F013C6F000150
:101EE00020EE07F000017951D92600017A51DA225B
:101EF000DF500F013D6F0F01308712000F0120B737
:101F000012007BC025FF00017CAD03D00F01258DA1
:101F100002D00F01259D00017CA787D000017551DB
:101F20000001816F0001826B0001836B0001846BF3
:101F300081C024FF000E000175150001816FFF0EA6
:101F4000000176150001826F000E00017715000177
:101F5000836F000E000178150001846F000181C0BD
:101F60007DF0000182C07EF0000183C07FF000019F
:101F700084C080F07EC07DF07FC07EF080C07FF0A6
:101F80000001806B7DC081F07EC082F07FC083F055
:101F900080C084F081C023FF000E0F01226F0F016B
:101FA0002287000177A102D00F012281000177A3CF
:101FB00002D00F012283000177A502D00F01228BEE
:101FC000000177A702D00F01228D000177A902D06E
:101FD0000F01228F000175C07DF0000176C07EF0F8
:101FE000000177C07FF0000178C080F0160E06D0A7
:101FF0000001D89080337F337E337D33E82EF8D7CD
:102000007DC081F07EC082F07FC083F080C084F00C
:10201000000181510001816F0001826B0001836B1F
:102020000001846B81C021FF64D00F012297000161
:1020300075C07DF0000176C07EF0000177C07FF0B2
:10204000000178C080F0040E06D00001D8908033E3
:102050007F337E337D33E82EF8D77DC081F07EC09C
:1020600082F07FC083F080C084F0000181510001C4
:10207000816F0001826B0001836B0001846B81C062
:1020800021FF070E000175150001816F000E000190
:1020900076150001826F000E000177150001836F35
:1020A000000E000178150001846F000181C07DF0F1
:1020B000000182C07EF0000183C07FF0000184C077
:1020C00080F0050ED89000017D377E377F3780374E
:1020D000E82EF8D77DC081F07EC082F07FC083F00B
:1020E00080C084F00F0122511F0B0F01226F81C0AD
:1020F00022FF00017CA103D00F01208102D00F013B
:10210000209100017CA303D00F01208302D00F0196
:10211000209379C0D9FF7AC0DAFFDF500F01266F14
:10212000000120EE01F000017951D92600017A5119
:10213000DA22DF500F01276F000120EE02F00001CC
:102140007951D92600017A51DA22DF500F01286F28
:10215000000120EE03F000017951D92600017A51E7
:10216000DA22DF500F01296F000120EE04F0000198
:102170007951D92600017A51DA22DF500F012A6FF6
:10218000000120EE05F000017951D92600017A51B5
:10219000DA22DF500F012B6F000120EE06F0000164
:1021A0007951D92600017A51DA22DF500F012C6FC4
:1021B000000120EE07F000017951D92600017A5183
:1021C000DA22DF500F012D6F0F0120871200000E61
:1021D000306E74BE308074BC30820F0150AF3BD182
:1021E00026C0D9FF27C0DAFFDE6ADE6ADE6ADD6A52
:1021F00020EE04F02650D9262750DA220F0156CFC0
:10220000DFFF20EE05F02650D9262750DA220F01F5
:1022100057CFDFFF20EE06F02650D9262750DA22CE
:102220000F0158CFDFFF20EE07F02650D9262750A8
:10223000DA220F0159CFDFFF20EE08F02650D92611
:102240002750DA220F015ACFDFFF20EE09F0265087
:10225000D9262750DA220F015BCFDFFF20EE0AF0EC
:102260002650D9262750DA220F015CCFDFFF20EE5F
:102270000BF02650D9262750DA220F015DCFDFFF61
:1022800020EE0EF02650D9262750DA220F0155AD48
:1022900002D0010E01D0000EDF6E20EE0DF02650B0
:1022A000D9262750DA220F0155510F0BDF6E20EE91
:1022B0000CF02650D9262750DA220F0152A702D05F
:1022C000010E01D0000EDF6E0F0152B749D00F0191
:1022D00051CF28F0296A2A6A2B6A030ED890283633
:1022E00029362A362B36E82EF9D726C0D9FF27C043
:1022F000DAFF28C0DEFF29C0DEFF2AC0DEFF2BC0C8
:10230000DDFFD906D9060F015239E842070B070B4A
:10231000316E26C0D9FF27C0DAFFDECF28F0DECF2E
:1023200029F0DECF2AF0DECF2BF0315028242C6E9E
:10233000000E29202D6E000E2A202E6E000E2B205E
:102340002F6E26C0D9FF27C0DAFF2CC0DEFF2DC0BC
:10235000DEFF2EC0DEFF2FC0DDFFD906D90678D004
:102360000F0154CF28F0296A2A6A2B6A26C0D9FFA8
:1023700027C0DAFF28C0DEFF29C0DEFF2AC0DEFF4B
:102380002BC0DDFFD906D9060F0153CF28F0296AEB
:102390002A6A2B6A2AC02BF029C02AF028C029F00B
:1023A000286A26C0D9FF27C0DAFF2850DE26295028
:1023B000DE222A50DE222B50DD22DD52DD520F01BB
:1023C00052A106D026C0D9FF27C0DAFF020EDB805B
:1023D0000F0152A306D026C0D9FF27C0DAFF020E94
:1023E000DB820F0152AB06D026C0D9FF27C0DAFF2F
:1023F000020EDB840F0152AD06D026C0D9FF27C0E4
:10240000DAFF020EDB860F0152AF06D026C0D9FFDD
:1024100027C0DAFF020EDB880F0151CF28F0296AAE
:102420002A6A2B6A150ED890283629362A362B367A
:10243000E82EF9D726C0D9FF27C0DAFF2850DE12D0
:102440002950DE122A50DE122B50DD12DD52DD52F1
:102450000F01509F120060AE120026C0D9FF27C0A6
:10246000DAFFDE6ADE6ADE6ADD6A20EE04F02650FC
:10247000D9262750DA2266CFDFFF20EE05F026505E
:10248000D9262750DA2267CFDFFF20EE06F026504C
:10249000D9262750DA2268CFDFFF20EE07F026503A
:1024A000D9262750DA2269CFDFFF20EE08F0265028
:1024B000D9262750DA226ACFDFFF20EE09F0265016
:1024C000D9262750DA226BCFDFFF20EE0AF0265004
:1024D000D9262750DA226CCFDFFF20EE0BF02650F2
:1024E000D9262750DA226DCFDFFF20EE0EF02650DE
:1024F000D9262750DA2265AC02D0010E01D0000E99
:10250000DF6E20EE0DF02650D9262750DA226550D6
:102510000F0BDF6E20EE0CF02650D9262750DA2262
:1025200062A602D0010E01D0000EDF6E62B647D067
:1025300061CF28F0296A2A6A2B6A030ED8902836C0
:1025400029362A362B36E82EF9D726C0D9FF27C0E0
:10255000DAFF28C0DEFF29C0DEFF2AC0DEFF2BC065
:10256000DDFFD906D9066238E842070B070B316E4A
:1025700026C0D9FF27C0DAFFDECF28F0DECF29F052
:10258000DECF2AF0DECF2BF0315028242C6E000E47
:1025900029202D6E000E2A202E6E000E2B202F6E6D
:1025A00026C0D9FF27C0DAFF2CC0DEFF2DC0DEFF1A
:1025B0002EC0DEFF2FC0DDFFD906D90670D064CF54
:1025C00028F0296A2A6A2B6A26C0D9FF27C0DAFFB9
:1025D00028C0DEFF29C0DEFF2AC0DEFF2BC0DDFFE2
:1025E000D906D90663CF28F0296A2A6A2B6A2AC03D
:1025F0002BF029C02AF028C029F0286A26C0D9FF6C
:1026000027C0DAFF2850DE262950DE222A50DE229B
:102610002B50DD22DD52DD5262A006D026C0D9FF4C
:1026200027C0DAFF020EDB8062A206D026C0D9FFE7
:1026300027C0DAFF020EDB8262AA06D026C0D9FFCD
:1026400027C0DAFF020EDB8462AC06D026C0D9FFB9
:1026500027C0DAFF020EDB8662AE06D026C0D9FFA5
:1026600027C0DAFF020EDB8861CF28F0296A2A6AC8
:102670002B6A150ED890283629362A362B36E82EA6
:10268000F9D726C0D9FF27C0DAFF2850DE1229501B
:10269000DE122A50DE122B50DD12DD52DD52609E1A
:1026A000120000017E6F00017E05D8A461D00001F8
:1026B0007929D8A45DD0000175C07AF0000176C0F8
:1026C0007BF0000177C07CF0000178C07DF0040E43
:1026D00006D00001D8907D337C337B337A33E82EEB
:1026E000F8D77AC07FF07BC080F07CC081F07DC0DD
:1026F00082F000017F5100017F6F0001806B0001BB
:10270000816B0001826B7FC018FF070E00017515F9
:1027100000017F6F000E000176150001806F000E32
:10272000000177150001816F000E0001781500018E
:10273000826F00017FC07AF0000180C07BF0000151
:1027400081C07CF0000182C07DF0050ED8900001B0
:102750007A377B377C377D37E82EF8D77AC07FF021
:102760007BC080F07CC081F07DC082F07FC019FF0B
:1027700000017E51020AD8A461D000017929D8A4B1
:102780005DD0000175C07AF0000176C07BF00001D9
:1027900077C07CF0000178C07DF0040E06D0000107
:1027A000D8907D337C337B337A33E82EF8D77AC0E8
:1027B0007FF07BC080F07CC081F07DC082F00001A2
:1027C0007F5100017F6F0001806B0001816B000170
:1027D000826B7FC01CFF070E0001751500017F6F23
:1027E000000E000176150001806F000E00017715C4
:1027F0000001816F000E000178150001826F000159
:102800007FC07AF0000180C07BF0000181C07CF0C5
:10281000000182C07DF0050ED89000017A377B3729
:102820007C377D37E82EF8D77AC07FF07BC080F008
:102830007CC081F07DC082F07FC01DFF00017E055D
:10284000D8A495D000017951F70AD8A490D00001FE
:10285000755100017F6F0001806B0001816B0001E9
:10286000826B7FC01BFF000E0001751500017F6F9A
:10287000FF0E000176150001806F000E0001771534
:102880000001816F000E000178150001826F0001C8
:102890007FC07AF0000180C07BF0000181C07CF035
:1028A000000182C07DF07BC07AF07CC07BF07DC0EF
:1028B0007CF000017D6B7AC07FF07BC080F07CC033
:1028C00081F07DC082F07FC01AFF000177A103D0A4
:1028D0000F01198102D00F011991000177A303D0D4
:1028E0000F01198302D00F011993000177A503D0BE
:1028F0000F01198B02D00F01199B000177A703D09C
:102900000F01198D02D00F01199D000177A903D085
:102910000F01198F02D00F01199F000175C07AF0C5
:10292000000176C07BF0000177C07CF0000178C028
:102930007DF0160E06D00001D8907D337C337B33BA
:102940007A33E82EF8D77AC07FF07BC080F07CC065
:1029500081F07DC082F000017F5100017F6F000196
:10296000806B0001816B0001826B7FC018FF00014A
:102970007E51020AD8A4120000017951F70AD8A4A6
:1029800012000001755100017F6F0001806B000192
:10299000816B0001826B7FC01FFF000E0001751567
:1029A00000017F6FFF0E000176150001806F000EA1
:1029B000000177150001816F000E000178150001FC
:1029C000826F00017FC07AF0000180C07BF00001BF
:1029D00081C07CF0000182C07DF07BC07AF07CC0B9
:1029E0007BF07DC07CF000017D6B7AC07FF07BC006
:1029F00080F07CC081F07DC082F07FC01EFF0001AE
:102A000077A103D00F011D8102D00F011D9100019C
:102A100077A303D00F011D8302D00F011D93000186
:102A200077A503D00F011D8B02D00F011D9B000164
:102A300077A703D00F011D8D02D00F011D9D00014E
:102A400077A903D00F011D8F02D00F011D9F000138
:102A500075C07AF0000176C07BF0000177C07CF091
:102A6000000178C07DF0160E06D00001D8907D33AD
:102A70007C337B337A33E82EF8D77AC07FF07BC083
:102A800080F07CC081F07DC082F000017F510001A8
:102A90007F6F0001806B0001816B0001826B7FC042
:102AA0001CFF1200000E00019A6F000E00019B6FC8
:102AB000800E00019C6F3F0E00019D6FCCC096F010
:102AC000CDC097F0CEC098F0CFC099F0BCEC23F009
:102AD00096C09EF097C09FF098C0A0F099C0A1F05A
:102AE000F1EC20F0D8B013D0000E0001E16F210E00
:102AF0000001E06F000E0001CC6F000E0001CD6FF1
:102B0000000E0001CE6F000E0001CF6F1200000E0C
:102B10000101506F000E0101516F800E0101526FD3
:102B20003F0E0101536FCCC083F0CDC084F0CEC006
:102B300085F0CFC086F0CCC07FF0CDC080F0CEC095
:102B400081F0CFC082F0C8EC1BF07FC092F080C053
:102B500093F081C094F082C095F0DBEC23F092C03A
:102B6000A9F093C0AAF094C0ABF095C0ACF0000EF1
:102B70000001AD6F000E0001AE6F800E0001AF6F5F
:102B80003F0E0001B06FF7EC16F0A9C054F1AAC0D7
:102B900055F1ABC056F1ACC057F154C1C0F055C1AE
:102BA000C1F056C1C2F057C1C3F0A5EC19F0C0C0C6
:102BB00060F1C1C061F1C2C062F1C3C063F1CCC0B9
:102BC00096F0CDC097F0CEC098F0CFC099F0BCEC95
:102BD00023F096C09AF097C09BF098C09CF099C0E3
:102BE0009DF08F0E00019E6FC20E00019F6F350E8B
:102BF0000001A06F3F0E0001A16FF1EC20F0D8B0F2
:102C00002DD0CCC096F0CDC097F0CEC098F0CFC0FC
:102C100099F060C19AF061C19BF062C19CF063C100
:102C20009DF0B7EC1CF096C064F197C065F198C0B8
:102C300066F199C067F164C1C8F065C1C9F066C1A9
:102C4000CAF067C1CBF071EC18F0C8C0CCF0C9C0B5
:102C5000CDF0CAC0CEF0CBC0CFF012000001CFAF94
:102C600071D0CCC09AF0CDC09BF0CEC09CF0CFC04C
:102C70009DF060C192F061C193F062C194F063C1B4
:102C800095F0DBEC23F092C096F093C097F094C0DF
:102C900098F095C099F0B7EC1CF096C064F197C01D
:102CA00065F198C066F199C067F164C1C8F065C16B
:102CB000C9F066C1CAF067C1CBF071EC18F0C8C0AA
:102CC0005CF1C9C05DF1CAC05EF1CBC05FF1DB0E43
:102CD0000001AD6F0F0E0001AE6FC90E0001AF6FA6
:102CE0003F0E0001B06F5CC192F05DC193F05EC118
:102CF00094F05FC195F0DBEC23F092C0A9F093C093
:102D0000AAF094C0ABF095C0ACF0F7EC16F0A9C0F7
:102D100058F1AAC059F1ABC05AF1ACC05BF158C12F
:102D200092F059C193F05AC194F05BC195F0DBEC7D
:102D300023F092C0CCF093C0CDF094C0CEF095C0FB
:102D4000CFF01200CCC09AF0CDC09BF0CEC09CF06A
:102D5000CFC09DF060C196F061C197F062C198F05C
:102D600063C199F0B7EC1CF096C064F197C065F1AF
:102D700098C066F199C067F164C1C8F065C1C9F037
:102D800066C1CAF067C1CBF071EC18F0C8C05CF145
:102D9000C9C05DF1CAC05EF1CBC05FF15CC192F009
:102DA0005DC193F05EC194F05FC195F0DBEC23F060
:102DB00092C0A9F093C0AAF094C0ABF095C0ACF05B
:102DC000DB0E0001AD6F0F0E0001AE6FC90E0001EA
:102DD000AF6F3F0E0001B06FF7EC16F0A9C0CCF05A
:102DE000AAC0CDF0ABC0CEF0ACC0CFF01200000155
:102DF000A9C0B1F00001AAC0B2F00001ABC0B3F0AD
:102E00000001ACC0B4F0180E06D00001D890B43365
:102E1000B333B233B133E82EF8D70001B15100011A
:102E2000B76F0001ADC0B1F00001AEC0B2F000015B
:102E3000AFC0B3F00001B0C0B4F0180E06D000016E
:102E4000D890B433B333B233B133E82EF8D700019E
:102E5000B1510001B66F0001B751D8B412D00001D2
:102E6000B6510001B75DD8B015D00001B7510008C8
:102E70000001B6250001B16F210E0001B15DD8A09F
:102E800009D0ADC0A9F0AEC0AAF0AFC0ABF0B0C0E1
:102E9000ACF012000001B651D8B412D00001B75105
:102EA0000001B65DD8B015D00001B6510008000190
:102EB000B7250001B16F210E0001B15DD8A009D086
:102EC000A9C0A9F0AAC0AAF0ABC0ABF0ACC0ACF0EE
:102ED0001200060E0001B56F0001ACAF02D0000178
:102EE000B58F0001B0AF02D00001B58D0001AB8FEE
:102EF000FF0E0001A917FF0E0001AA17FF0E000127
:102F0000AB17000E0001AC170001AF8FFF0E0001E0
:102F1000AD17FF0E0001AE17FF0E0001AF17000E38
:102F20000001B0170001B6510001B75DD8B02ED036
:102F30000001D8900001AD370001AE370001AF3776
:102F40000001B0370001B6070001B6510001B71902
:102F5000D8B416D00001B507B5C0B1F0070E000116
:102F6000B117D8B40DD0E4D70001D8900001AC332C
:102F70000001AB330001AA330001A9330001B72BD4
:102F80000001B6510001B763EFD733D00001B7514C
:102F90000001B65DD8B02DD00001D8900001A9374E
:102FA0000001AA370001AB370001AC370001B707B9
:102FB0000001B6510001B719D8B416D00001B50709
:102FC000B5C0B1F0070E0001B117D8B40DD0E4D7E9
:102FD0000001D8900001B0330001AF330001AE33DF
:102FE0000001AD330001B62B0001B6510001B763FB
:102FF000EFD70001B5AF16D0FF0E0001A91BFF0EE1
:103000000001AA1BFF0E0001AB1BFF0E0001AC1B51
:10301000010E0001A927000E0001AA230001AB2325
:103020000001AC230001B5AD16D0FF0E0001AD1BB1
:10303000FF0E0001AE1BFF0E0001AF1BFF0E0001D3
:10304000B01B010E0001AD27000E0001AE230001F0
:10305000AF230001B023000E0001B56F0001A9519C
:103060000001AD270001AA510001AE230001AB51C0
:103070000001AF230001AC510001B0230001B0AF4B
:1030800019D0FF0E0001AD1BFF0E0001AE1BFF0E9D
:103090000001AF1BFF0E0001B01B010E0001AD27A8
:1030A000000E0001AE230001AF230001B023010E8A
:1030B0000001B56FADC075F0AEC076F0AFC077F06F
:1030C000B0C078F0B7C079F0B5C07AF08AEC1DF0E6
:1030D00075C0A9F076C0AAF077C0ABF078C0ACF0AC
:1030E0001200C8C096F0C9C097F0CAC098F0CBC013
:1030F00099F0BCEC23F096C04CF197C04DF198C00C
:103100004EF199C04FF1010121EE4CF0DE50DE107E
:10311000DE10DE10D8A40DD0000E0001C86F000E26
:103120000001C96F000E0001CA6F000E0001CB6FD5
:103130001200000E00019A6F000E00019B6F800EBE
:1031400000019C6F3F0E00019D6F4CC19EF04DC170
:103150009FF04EC1A0F04FC1A1F0F1EC20F0D8B02B
:1031600002D0010E01D0000E0101476F010147514D
:10317000D8B41ED0000E0001966F000E0001976FAC
:10318000800E0001986F3F0E0001996F4CC19AF0BC
:103190004DC19BF04EC19CF04FC19DF0B7EC1CF0AF
:1031A00096C04CF197C04DF198C04EF199C04FF1C7
:1031B0004CC17FF04DC180F04EC181F04FC182F013
:1031C0004CC183F04DC184F04EC185F04FC186F0F3
:1031D000C8EC1BF07FC048F180C049F181C04AF1C2
:1031E00082C04BF148C1B8F049C1B9F04AC1BAF048
:1031F0004BC1BBF00D0E0001BD6F190E0001BC6F7D
:10320000000E0001BF6F040E0001BE6F56EC20F0EF
:10321000B8C03FF1B9C040F1BAC041F1BBC042F102
:1032200048C1B8F049C1B9F04AC1BAF04BC1BBF0CE
:103230000D0E0001BD6F010E0001BC6F000E0001FC
:10324000BF6F050E0001BE6F56EC20F0B8C043F111
:10325000B9C044F1BAC045F1BBC046F14CC17FF0E2
:103260004DC180F04EC181F04FC182F03FC19AF054
:1032700040C19BF041C19CF042C19DF043C196F01A
:1032800044C197F045C198F046C199F0B7EC1CF0E5
:1032900096C083F097C084F098C085F099C086F0FE
:1032A000C8EC1BF07FC04CF180C04DF181C04EF1E5
:1032B00082C04FF101014751D8B428D04CC192F0DF
:1032C0004DC193F04EC194F04FC195F0DBEC23F06B
:1032D00092C0A9F093C0AAF094C0ABF095C0ACF036
:1032E000DB0E0001AD6F0F0E0001AE6FC90E0001C5
:1032F000AF6F3F0E0001B06FF7EC16F0A9C04CF1B4
:10330000AAC04DF1ABC04EF1ACC04FF10001CBBF34
:1033100009D04CC1C8F04DC1C9F04EC1CAF04FC16F
:10332000CBF012004CC192F04DC193F04EC194F01D
:103330004FC195F0DBEC23F092C0C8F093C0C9F008
:1033400094C0CAF095C0CBF01200000E00019A6F35
:10335000000E00019B6F000E00019C6F000E00012B
:103360009D6FC0C09EF0C1C09FF0C2C0A0F0C3C09E
:10337000A1F0F1EC20F0D8A016D00001C3AF06D028
:10338000000E0001E16F210E0001E06F000E000150
:10339000C06F000E0001C16F000E0001C26F000E71
:1033A0000001C36F1200C0C043F1C1C044F1C2C0EC
:1033B00045F1C3C046F10001C0C0C4F00001C1C066
:1033C000C5F00001C2C0C6F00001C3C0C7F00001D3
:1033D000C41FC51FC61FC71FC42B000EC523C6238D
:1033E000C7235E0E0001C42501014C6FC80E000109
:1033F000C52101014D6F6E0E0001C62101014E6F06
:10340000BE0E0001C72101014F6F0101D8900101DB
:103410004F3301014E3301014D3301014C33000E96
:103420000101435F000E0101445B800E0101455B19
:10343000000E0101465B040E0101476F4CC13FF1D4
:103440004DC140F14EC141F14FC142F14CC17FF03D
:103450004DC180F04EC181F04FC182F043C183F075
:1034600044C184F045C185F046C186F0C8EC1BF02C
:103470007FC048F180C049F181C04AF182C04BF160
:1034800048C17FF049C180F04AC181F04BC182F050
:103490004CC183F04DC184F04EC185F04FC186F020
:1034A000C8EC1BF07FC048F180C049F181C04AF1EF
:1034B00082C04BF148C17FF049C180F04AC181F020
:1034C0004BC182F04CC183F04DC184F04EC185F0F8
:1034D0004FC186F0C8EC1BF07FC048F180C049F1B5
:1034E00081C04AF182C04BF14CC17FF04DC180F0E8
:1034F0004EC181F04FC182F0000E0001836F000EBB
:103500000001846FC00E0001856F3F0E0001866FC1
:10351000C8EC1BF07FC04CF180C04DF181C04EF172
:1035200082C04FF14CC1B8F04DC1B9F04EC1BAF0F4
:103530004FC1BBF048C1BCF049C1BDF04AC1BEF0AB
:103540004BC1BFF02CEC23F0B8C04CF1B9C04DF129
:10355000BAC04EF1BBC04FF10101472F6FD74CC12C
:103560007FF04DC180F04EC181F04FC182F0C0C0EC
:1035700083F0C1C084F0C2C085F0C3C086F0C8EC3F
:103580001BF07FC0C0F080C0C1F081C0C2F082C01B
:10359000C3F0120000018C6F800E3AEC24F0000E94
:1035A000706E000E716E000E726E00018541E84271
:1035B000C00B0001856F000185517012000186511A
:1035C000701200018C51711200018339E842F80B2E
:1035D0000001836F000183517112000187A5718C76
:1035E000000187B1718E000184517212000187B30E
:1035F000728C00018751600B606E87C088F0100EDE
:103600000001881700018851FF0AD8B4608460CF98
:1036100050FF000E0001756F000E0001766F000E66
:103620000001776F000E0001786FF70E0001796FCF
:10363000010E51EC13F0000E0001756F000E000139
:10364000766F000E0001776F000E0001786FF70EA5
:103650000001796F020E51EC13F00FD0F70E00014C
:103660008D6F07D000018D6900018E6927D00001A0
:103670008D69F70E00018E6F21D09F0E0001886FBB
:10368000FF0E896F00018751600B00018A6F8B6B01
:103690000001885100018A130001895100018B1338
:1036A00000018B51000AD8A4E2D700018A51BF0A59
:1036B000D8B4D8D7600AD8B4D1D7D9D7000E000172
:1036C000756F000E0001766F000E0001776F000E1F
:1036D0000001786F8DC079F0000E97EC06F0000EB7
:1036E0000001756F000E0001766F000E0001776F0C
:1036F000000E0001786F8DC079F0010E97EC06F096
:10370000000E0001756F000E0001766F000E0001C3
:10371000776F000E0001786F8EC079F0020E97EC83
:1037200006F0000E0001756F000E0001766F000EAE
:103730000001776F000E0001786F8EC079F0030EE4
:1037400097EC06F0000E0001756F000E0001766F19
:10375000000E0001776F000E0001786F8EC079F0C7
:10376000040E97EC06F0000E0001756F000E0001CC
:10377000766F000E0001776F000E0001786F8EC02B
:1037800079F0050E97EC06F0000E3AEC24F01200EA
:1037900000017FC087F0000180C088F0000181C077
:1037A00089F0000182C08AF0180E06D00001D8907E
:1037B0008A33893388338733E82EF8D7000187515D
:1037C00000018B6F00018B670DD0000E00017F6F31
:1037D000000E0001806F000E0001816F000E0001DD
:1037E000826F1200000183C087F0000184C088F05E
:1037F000000185C089F0000186C08AF0180E06D04D
:103800000001D8908A33893388338733E82EF8D77C
:10381000000187510001916F000191670DD0000EEA
:1038200000017F6F000E0001806F000E0001816FAC
:10383000000E0001826F1200000191517B0F000108
:103840008B2782C091F0000186510001911B800EF0
:10385000000191170001818F0001858FFF0E00018B
:103860008317FF0E00018417FF0E00018517000E5D
:1038700000018617000E00018C6F000E00018D6F95
:10388000000E00018E6F000E00018F6F070E000109
:10389000906F00017FA110D00001835100018C279F
:1038A0000001845100018D230001855100018E2308
:1038B0000001865100018F230001D890000182335E
:1038C000000181330001803300017F330001D89073
:1038D00000018337000184370001853700018637F6
:1038E0000001902FD6D7110E0001906F00017FA12B
:1038F00010D00001835100018C2700018451000188
:103900008D230001855100018E23000186510001A5
:103910008F230001D8900001823300018133000120
:10392000803300017F330001D89000018F33000104
:103930008E3300018D3300018C330001902FD6D7D8
:103940008CC075F08DC076F08EC077F08FC078F0A7
:103950008BC079F091C07AF08AEC1DF075C07FF0D1
:1039600076C080F077C081F078C082F0120000014C
:1039700096C09EF0000197C09FF0000198C0A0F093
:10398000000199C0A1F0180E06D00001D890A13313
:10399000A0339F339E33E82EF8D700019E510001DB
:1039A000A76F0001A7670DD0000E0001966F000EF3
:1039B0000001976F000E0001986F000E0001996FD3
:1039C000120000019AC09EF000019BC09FF0000110
:1039D0009CC0A0F000019DC0A1F0180E06D000010F
:1039E000D890A133A0339F339E33E82EF8D700013F
:1039F0009E510001A86F0001A8670DD0000E0001C4
:103A0000966F000E0001976F000E0001986F000E78
:103A10000001996F12000001A851890F0001A75FF2
:103A200099C0A8F000019D510001A81B800E000163
:103A3000A8170001988FFF0E00019617FF0E0001D6
:103A40009717FF0E00019817000E0001991700014B
:103A50009C8FFF0E00019A17FF0E00019B17FF0EAF
:103A600000019C17000E00019D17200E0001A66F9B
:103A70000001D8900001A2370001A3370001A4374C
:103A80000001A53700019A510001965D00019B518C
:103A90000001975900019C510001985900019D5166
:103AA00000019959D8A012D000019A510001965FE7
:103AB00000019B510001975B00019C510001985B44
:103AC00000019D510001995B0001A2810001D89085
:103AD00000019637000197370001983700019937A8
:103AE0000001A62FC5D7A2C075F0A3C076F0A4C070
:103AF00077F0A5C078F0A7C079F0A8C07AF08AEC7A
:103B00001DF075C096F076C097F077C098F078C039
:103B100099F0120000017951D8B407D00001785112
:103B2000751176117711D8A419D0000E0001756FA8
:103B3000000E0001766F000E0001776F000E00018D
:103B4000786F12000001792B0001D89000017833C2
:103B5000000177330001763300017533000E000158
:103B6000751500017B6F000E0001761500017C6F5A
:103B7000000E0001771500017D6FFE0E0001781523
:103B800000017E6F00017E517B117C117D11D8B444
:103B900017D0D8D70001792B010E00017527000E30
:103BA0000001762300017723000178230001D890DB
:103BB000000178330001773300017633000175335B
:103BC000000E0001751500017B6F000E00017615D7
:103BD00000017C6F000E0001771500017D6FFF0E64
:103BE0000001781500017E6F00017E517B117C1170
:103BF0007D11D8B40DD0CED7000179070001D8903F
:103C000000017537000176370001773700017837FA
:103C1000000177AFF1D7000179B10CD0FF0E0001A0
:103C20007517FF0E000176177F0E00017717FF0E44
:103C3000000178170001D8907933000179C07BF03A
:103C400000017C6B7D6B7E6B7BC07EF000017D6B29
:103C50007C6B7B6B00017B510001751300017C5173
:103C60000001761300017D510001771300017E51A0
:103C70000001781300017A51D8B402D00001788F86
:103C800075C075F076C076F077C077F078C078F0C0
:103C900012000001C8C0CCF00001C9C0CDF0000185
:103CA000CAC0CEF00001CBC0CFF0180E06D0000184
:103CB000D890CF33CE33CD33CC33E82EF8D70001B4
:103CC000CC510001D16F0001D1670DD0000E000171
:103CD000C86F000E0001C96F000E0001CA6F000E10
:103CE0000001CB6F12000001C8C0CCF00001C9C0B8
:103CF000CDF00001CAC0CEF00001CBC0CFF0200E45
:103D000006D00001D890CF33CE33CD33CC33E82E5C
:103D1000F8D70001CC510001D06F0001CA8FFF0E0F
:103D20000001C817FF0E0001C917FF0E0001CA17D6
:103D3000000E0001CB17960E0001D15F0001D1AF3C
:103D400026D00001D151800A0001CC6FE90E800A13
:103D50000001CC5DD8B00DD0000E0001C86F000E80
:103D60000001C96F000E0001CA6F000E0001CB6F89
:103D700012000001D8900001CB330001CA330001CA
:103D8000C9330001C8330001D13FF3D720D01F0E43
:103D90000001D16519D0000E0001C86F000E0001AE
:103DA000C96F000E0001CA6F000E0001CB6F120038
:103DB0000001D8900001C8370001C9370001CA3797
:103DC0000001CB370001D1070001D167F1D7000115
:103DD000D051D8B40FD00001CB1F0001CA1F000181
:103DE000C91F0001C86D000E0001C9230001CA23CC
:103DF0000001CB23C8C0C8F0C9C0C9F0CAC0CAF00E
:103E0000CBC0CBF01200A9D0330E015C000E0258DB
:103E1000D8A02BD0000147BA43D028EC24F00009E9
:103E2000D8B4FBD7080E0001756F000E0001766F45
:103E3000000E0001776F000E0001786F0101010E86
:103E400000017A6F01011F0E0001796F080E000159
:103E50007B6FFC0E00017C6FACEC0CF00001478A1C
:103E6000000E0001E66F8A881BD020EE03F0DECF43
:103E700085F0DDCF86F00001851F861F854B862BE0
:103E80000150000185250001756F02500001862157
:103E90000001766F9CEC23F0000175510001E66F84
:103EA000320E015C000E0258D8B026D0000147AA9D
:103EB00023D00001479A28EC24F00009D8B4FBD79E
:103EC000070E0001756F000E0001766F000E0001F5
:103ED000776F000E0001786F0101010E00017A6F0B
:103EE00001011F0E0001796F080E00017B6FFC0EAF
:103EF00000017C6FACEC0CF0000147A62ED0650EE3
:103F00000001DE5D000E0001DF59D8A023D0818AB8
:103F1000010E01011F6F0B0E0001756F000E0001F5
:103F2000766F000E0001776F000E0001786F0101BF
:103F3000010E00017A6F01011F0E0001796F010E61
:103F400000017B6FBC0E00017C6FACEC0CF000013B
:103F5000479603D000014796819A000147A01200BE
:103F600081BA120051D720EE03F0DECF68F1DDCF29
:103F700069F10101681F691F684B692B015001013C
:103F800068250001756F0250010169210001766FFB
:103F90009CEC23F0000175510001E66F1E0E00013C
:103FA000E65DD8B012001E0E015C000E0258D8B0BB
:103FB00012001E0E035C000E0458D8B01200000E52
:103FC0000001E76F0001E6510001E603000EF32453
:103FD0000001E46F040EF4200001E56FE4C07FF0FF
:103FE000E5C080F0D4EC22F07FC0C0F080C0C1F00A
:103FF00081C0C2F082C0C3F0A5EC19F0C0C0C8F007
:10400000C1C0C9F0C2C0CAF0C3C0CBF049EC1EF0B9
:10401000C8C068F1C9C069F1CAC06AF1CBC06BF110
:1040200068C1E4F069C1E5F00001E651F9EC23F064
:104030007FC096F080C097F081C098F082C099F060
:10404000E4C07FF0E5C080F0D4EC22F07FC09AF0AD
:1040500080C09BF081C09CF082C09DF0B7EC1CF04A
:1040600096C0DAF097C0DBF098C0DCF099C0DDF0C4
:10407000DAC0CCF0DBC0CDF0DCC0CEF0DDC0CFF0DC
:1040800052EC15F0CCC0DAF0CDC0DBF0CEC0DCF0E5
:10409000CFC0DDF00150035C02500458D8B003D00B
:1040A0000001479E12000001478E12000001BEC0B1
:1040B000C0F00001BFC0C1F00001D890C037C137C7
:1040C0000001D890C037C1370001BCC0C2F0000168
:1040D000BDC0C3F00001C0510001C2270001C151A1
:1040E0000001C323C2C0F6FFC3C0F7FF000EF86E85
:1040F00009000001F5CFC4F009000001F5CFC5F0BB
:1041000009000001F5CFC6F00A000001F5CFC7F0A5
:104110005AD0C4C083F0C5C084F0C6C085F0C7C003
:1041200086F0B8C07FF0B9C080F0BAC081F0BBC0E3
:1041300082F0C8EC1BF07FC0A9F080C0AAF081C05B
:10414000ABF082C0ACF0000120EEBEF0DE06000E47
:10415000DD5ADECFC0F0DDCFC1F00001D890C0370E
:10416000C1370001D890C037C1370001BCC0C2F0D0
:104170000001BDC0C3F00001C0510001C227000111
:10418000C1510001C323C2C0F6FFC3C0F7FF000E38
:10419000F86E09000001F5CFADF009000001F5CF80
:1041A000AEF009000001F5CFAFF00A000001F5CF35
:1041B000B0F0F7EC16F0A9C0C4F0AAC0C5F0ABC0CF
:1041C000C6F0ACC0C7F00001BF51BE11D8A4A1D742
:1041D000C4C0B8F0C5C0B9F0C6C0BAF0C7C0BBF023
:1041E000120000019DAF2AD000019AC0A2F0000188
:1041F0009BC0A3F000019CC0A4F000019DC0A5F0ED
:104200000001A21FA31FA41FA51FA22B000EA32302
:10421000A423A523000E0001A22500019A6F000E21
:104220000001A32100019B6F000E0001A4210001E9
:104230009C6F800E0001A52100019D6F0001A1AFC0
:104240002AD000019EC0A2F000019FC0A3F000018F
:10425000A0C0A4F00001A1C0A5F00001A21FA31FEF
:10426000A41FA51FA22B000EA323A423A523000E89
:104270000001A22500019E6F000E0001A321000194
:104280009F6F000E0001A4210001A06F800E0001AD
:10429000A5210001A16F000E00019A1B000E000174
:1042A0009B1B000E00019C1B800E00019D1B000E3D
:1042B00000019E1B000E00019F1B000E0001A01BB1
:1042C000800E0001A11B00019E5100019A5D0001BA
:1042D0009F5100019B590001A05100019C59000110
:1042E000A15100019D59D8B002D0D8901200D880B9
:1042F000120028EC24F00001856F00018505D8A488
:10430000F8D7050E0001756F000E0001766F000EE4
:104310000001776F000E0001786F0101010E0001AE
:104320007A6F0101370E0001796F080E00017B6F73
:10433000BC0E00017C6FACEC0CF0E2C02FF1000170
:10434000E3C085F085C086F00001876B00018651CF
:104350000101306F0001000E47B2010E0101316F03
:1043600028EC24F00001856F00018505D8A4F8D75A
:10437000030E0001756F000E0001766F000E000144
:10438000776F000E0001786F0101010E00017A6F56
:1043900001012F0E0001796F080E00017B6FBC0E2A
:1043A00000017C6FACEC0CF028EC24F00001856F70
:1043B00000018505D8A4F8D7040E0001756F000E22
:1043C0000001766F000E0001776F000E0001786F1C
:1043D0000101010E00017A6F0101270E0001796FC2
:1043E000080E00017B6FBD0E00017C6FACEC0CF081
:1043F0001200EACF6AF0E1CF6BF0E2CF6CF0D9CFD8
:104400006DF0DACF6EF0F3CF6FF0F4CF70F0F6CF3F
:1044100071F0F7CF72F0F8CF73F0F5CF74F0F1AC24
:1044200008D0F19C000EB36E000EB26E00014794EE
:104430002BD0B3CF25F0B2CF24F025C021F0226AD3
:104440002150226E2450216ED89022301E6E2130D1
:104450001D6E1DC060F01EC061F0000E0001636F94
:104460003A0E0001626F62EC22F02350020D010E41
:10447000F324D96E000EF420DA6E000160C0DEFF76
:10448000000161C0DDFFF18CF29274C0F5FF73C0D2
:10449000F8FF72C0F7FF71C0F6FF70C0F4FF6FC085
:1044A000F3FF6EC0DAFF6DC0D9FF6CC0E2FF6BC0D6
:1044B000E1FF6AC0EAFF69C0E9FF68C0FBFF67C0AF
:1044C000FAFF1100000E0001656F000E0001646F1D
:1044D000000163516211D8B42CD0010E0001666F47
:1044E00006D00001D890623763370001662B0001C7
:1044F00063AFF7D70001D890643765370001625188
:104500000001605D0001635100016159D8A00AD02B
:10451000000162510001605F000163510001615BB5
:10452000000164810001D890633362330001662F7B
:10453000E1D764C060F065C061F01200000E896EC2
:10454000F00E926E000E8A6E8A0E936E000E8B6EC7
:104550009468C168060E0001836F050E0001846F28
:10456000010E0001856F030E0001866F9D0E000194
:10457000876F040ECAEC1AF0D08EA492A490A59274
:10458000A590A382A380F194800ED56E110EB16E1A
:10459000340ED76EE00ED66EF294F28AF18CF2925F
:1045A000F298F28CF28E1200000E0001836F00016F
:1045B0008051800AF36E800EF35C000ED8B47F5DEC
:1045C000D8B008D000017F6D0001801FD8B0802BCB
:1045D0000001832B00017FC075F0000180C076F0E0
:1045E0000001776B0001786B960E0001796F83C034
:1045F0007AF08AEC1DF075C07FF076C080F077C04D
:1046000081F078C082F012009EEC22F0000E0001D2
:10461000D26F010E0001D36F020E0001D46F030EA2
:104620000001D56F040E0001D66F050E0001D76F93
:10463000060E0001D86F070E0001D96F8198819A8C
:10464000819C0001479A03EC1FF078EC23F0B3EC57
:104650001FF016EC24F0F7D7000E0001BC1B000E73
:104660000001BD1B000E0001BE1B800E0001BF1B20
:10467000B8C0A9F0B9C0AAF0BAC0ABF0BBC0ACF0EA
:10468000BCC0ADF0BDC0AEF0BEC0AFF0BFC0B0F0BA
:10469000F7EC16F0A9C0B8F0AAC0B9F0ABC0BAF0F8
:1046A000ACC0BBF0120001EE00F03F0EEE6AE8066F
:1046B000FDE100EED2F0160EEE6AE806FDE1476A73
:1046C00000EE01F0250EEE6AE806FDE18A0EF66EB8
:1046D000480EF76E000EF86E0900F5CF48F009009D
:1046E000F5CF49F00900F5CF4AF0000104EF23F0BF
:1046F000010101C11BF01C6A1B501C6E010100511D
:104700001B6E010103C11FF0206A1F50206E0101C2
:1047100002511F6E1FC075F020C076F01B500001C3
:1047200075271C5000017623D89000017631126E57
:1047300000017531116E120000017651800AF36E8E
:10474000800EF35C000ED8B4755DD8B010D00001B7
:1047500075C077F0000176C078F00001771F781FF0
:10476000774B782B77C075F078C076F0120075C063
:1047700075F076C076F01200000199AF13D096C0A4
:1047800092F097C093F098C094F099C095F0DBEC4C
:1047900023F092C096F093C097F094C098F095C023
:1047A00099F0120096C096F097C097F098C098F0D4
:1047B00099C099F01200000120EE92F0DE50DE1058
:1047C000DE10DE10D8B40CD0000E0001921B000EDB
:1047D0000001931B000E0001941B800E0001951B2D
:1047E00092C092F093C093F094C094F095C095F06D
:1047F00012000001836F000183510001756F0001F9
:10480000766B0001776B0001786B960E0001796F73
:10481000000E00017A6F8AEC1DF075C07FF076C043
:1048200080F077C081F078C082F012000BD0000ECB
:104830000001E36F000E0001E26F000E0101276F1F
:1048400079EC21F081AA1200000147A01200EFD7F5
:10485000010E0001756F0F0140A709D00F0130A7AD
:1048600006D00F0120A703D0000E0001756F0001D4
:10487000755112000001756F75C06FFF6E50E00B2F
:0E48800000017519D8B41200F9D764001000B9
:020000040020DA
:08000000FFFFFFFFFFFFFFFF00
:020000040030CA
:0E000000FF021F1EFF8081FF3FC03FE03F4018
:00000001FF
