:04000000BBEF00F062
:0E0008003F82FACF66F0FBCF67F03EED0FF0BF
:100018003F80D8CF0FF0E8CF10F0E0CF11F0FACF43
:1000280012F0FBCF13F0E9CF14F0EACF15F0E1CFCF
:1000380016F0E2CF17F0D9CF18F0DACF19F0F3CFD6
:100048001AF0F4CF1BF0F6CF1CF0F7CF1DF0F8CF65
:100058001EF0F5CF1FF0A4A0A4B201D03ED0BEEC94
:1000680010F00009D8B437D09E0E016E000E026E53
:1000780006EC0AF00A0E00019E1900019F1100010A
:10008800A0110001A111D8A407D00001A205D8A48D
:1000980002D03D8001D03D90070E00019E1900015D
:1000A8009F110001A0110001A111D8A414D0A3C070
:1000B80030F0316A30500D6E0001A251306E0DC023
:1000C80031F0A5C032F0336A30500D6E0001A451F2
:1000D800326E0DC033F0A450A450F2A424D0F2988C
:1000E800340ED76EE00ED66E3A2A080E3A18D8A407
:1000F80002D0000E3A6E000E206E3A50010D240E0A
:10010800F324D96E000EF420DA6EDF50206E20C082
:1001180080FF93908A80140EE82EFED78A909380F1
:10012800F292F288F2941FC0F5FF1EC0F8FF1DC0BE
:10013800F7FF1CC0F6FF1BC0F4FF1AC0F3FF19C07D
:10014800DAFF18C0D9FF17C0E2FF16C0E1FF15C0DB
:10015800EAFF14C0E9FF13C0FBFF12C0FAFF11C089
:10016800E0FF10C0E8FF0FC0D8FF3F90100084EFF9
:1001780010F000017D6F00017D510001D8A458D016
:1001880000017829D8A454D00F01019774C079F0E0
:1001980075C07AF076C07BF077C07CF0040E06D08C
:1001A8000001D8907C337B337A337933E82EF8D743
:1001B80079C07EF07AC07FF07BC080F07CC081F08F
:1001C80000017E5100017E6F7F6B806B816B7EC06A
:1001D80000FF070E0001741500017E6F000E00017C
:1001E800751500017F6F000E000176150001806F04
:1001F800000E000177150001816F7EC079F07FC085
:100208007AF080C07BF081C07CF0050ED8900001A8
:1002180079377A377B377C37E82EF8D779C07EF084
:100228007AC07FF07BC080F07CC081F07EC001FF87
:1002380000017D05D8A458D000017829D8A454D04D
:100248000F01059774C079F075C07AF076C07BF01D
:1002580077C07CF0040E06D00001D8907C337B3345
:100268007A337933E82EF8D779C07EF07AC07FF0F8
:100278007BC080F07CC081F000017E5100017E6F60
:100288007F6B806B816B7EC004FF070E00017415C5
:1002980000017E6F000E0001751500017F6F000ED2
:1002A800000176150001806F000E0001771500012E
:1002B800816F7EC079F07FC07AF080C07BF081C00A
:1002C8007CF0050ED890000179377A377B377C3778
:1002D800E82EF8D779C07EF07AC07FF07BC080F036
:1002E8007CC081F07EC005FF020E00017D19D8A4F4
:1002F80058D000017829D8A454D00F01099774C0A8
:1003080079F075C07AF076C07BF077C07CF0040E87
:1003180006D00001D8907C337B337A337933E82ECA
:10032800F8D779C07EF07AC07FF07BC080F07CC0BF
:1003380081F000017E5100017E6F7F6B806B816BC5
:100348007EC008FF070E0001741500017E6F000EC5
:100358000001751500017F6F000E00017615000180
:10036800806F000E000177150001816F7EC079F063
:100378007FC07AF080C07BF081C07CF0050ED890F9
:10038800000179377A377B377C37E82EF8D779C080
:100398007EF07AC07FF07BC080F07CC081F07EC0A8
:1003A80009FF030E00017D19D8A458D0000178294F
:1003B800D8A454D00F010D9774C079F075C07AF0A5
:1003C80076C07BF077C07CF0040E06D00001D89090
:1003D8007C337B337A337933E82EF8D779C07EF0D3
:1003E8007AC07FF07BC080F07CC081F000017E5134
:1003F80000017E6F7F6B806B816B7EC00CFF070EE8
:100408000001741500017E6F000E000175150001D2
:100418007F6F000E000176150001806F000E00014D
:1004280077150001816F7EC079F07FC07AF080C0B7
:100438007BF081C07CF0050ED890000179377A37BF
:100448007B377C37E82EF8D779C07EF07AC07FF00A
:100458007BC080F07CC081F07EC00DFF040E0001DF
:100468007D19D8A458D000017829D8A454D00F01F8
:10047800119774C079F075C07AF076C07BF077C0B8
:100488007CF0040E06D00001D8907C337B337A339D
:100498007933E82EF8D779C07EF07AC07FF07BC038
:1004A80080F07CC081F000017E5100017E6F7F6B7F
:1004B800806B816B7EC010FF070E00017415000170
:1004C8007E6F000E0001751500017F6F000E0001A0
:1004D80076150001806F000E000177150001816F0D
:1004E8007EC079F07FC07AF080C07BF081C07CF05C
:1004F800050ED890000179377A377B377C37E82E9C
:10050800F8D779C07EF07AC07FF07BC080F07CC0DD
:1005180081F07EC011FF050E00017D19D8A458D0C6
:1005280000017829D8A454D00F01159774C079F028
:1005380075C07AF076C07BF077C07CF0040E06D0E8
:100548000001D8907C337B337A337933E82EF8D79F
:1005580079C07EF07AC07FF07BC080F07CC081F0EB
:1005680000017E5100017E6F7F6B806B816B7EC0C6
:1005780014FF070E0001741500017E6F000E0001C4
:10058800751500017F6F000E000176150001806F60
:10059800000E000177150001816F7EC079F07FC0E1
:1005A8007AF080C07BF081C07CF0050ED890000105
:1005B80079377A377B377C37E82EF8D779C07EF0E1
:1005C8007AC07FF07BC080F07CC081F07EC015FFD0
:1005D80000017D510001D8A489D0F70E00017819D7
:1005E800D8A484D00F0101870001745100017E6FE7
:1005F8007F6B806B816B7EC003FF000E000174155A
:1006080000017E6FFF0E0001751500017F6F000E5F
:10061800000176150001806F000E000177150001BA
:10062800816F7EC079F07FC07AF080C07BF081C096
:100638007CF07AC079F07BC07AF07CC07BF0000156
:100648007C6B79C07EF07AC07FF07BC080F07CC084
:1006580081F07EC002FF000176A103D00F01018165
:1006680002D00F010191000176A303D00F0101838D
:1006780002D00F010193000176A503D00F01018B71
:1006880002D00F01019B000176A703D00F01018D55
:1006980002D00F01019D000176A903D00F01018F3F
:1006A80002D00F01019F74C079F075C07AF076C04E
:1006B8007BF077C07CF0160E06D00001D8907C3312
:1006C8007B337A337933E82EF8D779C07EF07AC055
:1006D8007FF07BC080F07CC081F000017E5100017A
:1006E8007E6F7F6B806B816B7EC000FF00017D0594
:1006F800D8A489D0F70E00017819D8A484D00F01A6
:1007080005870001745100017E6F7F6B806B816BE0
:100718007EC007FF000E0001741500017E6FFF0EFA
:100728000001751500017F6F000E000176150001AC
:10073800806F000E000177150001816F7EC079F08F
:100748007FC07AF080C07BF081C07CF07AC079F0FD
:100758007BC07AF07CC07BF000017C6B79C07EF0B6
:100768007AC07FF07BC080F07CC081F07EC006FF3D
:10077800000176A103D00F01058102D00F01059178
:10078800000176A303D00F01058302D00F01059362
:10079800000176A503D00F01058B02D00F01059B40
:1007A800000176A703D00F01058D02D00F01059D2A
:1007B800000176A903D00F01058F02D00F01059F14
:1007C80074C079F075C07AF076C07BF077C07CF0A1
:1007D800160E06D00001D8907C337B337A337933F8
:1007E800E82EF8D779C07EF07AC07FF07BC080F021
:1007F8007CC081F000017E5100017E6F7F6B806BB1
:10080800816B7EC004FF020E00017D19D8A489D037
:10081800F70E00017819D8A484D00F0109870001C8
:10082800745100017E6F7F6B806B816B7EC00BFF04
:10083800000E0001741500017E6FFF0E0001751592
:1008480000017F6F000E000176150001806F000E19
:10085800000177150001816F7EC079F07FC07AF0C2
:1008680080C07BF081C07CF07AC079F07BC07AF0E0
:100878007CC07BF000017C6B79C07EF07AC07FF091
:100888007BC080F07CC081F07EC00AFF000176A1A9
:1008980003D00F01098102D00F010991000176A34D
:1008A80003D00F01098302D00F010993000176A537
:1008B80003D00F01098B02D00F01099B000176A715
:1008C80003D00F01098D02D00F01099D000176A9FF
:1008D80003D00F01098F02D00F01099F74C079F06E
:1008E80075C07AF076C07BF077C07CF0160E06D023
:1008F8000001D8907C337B337A337933E82EF8D7EC
:1009080079C07EF07AC07FF07BC080F07CC081F037
:1009180000017E5100017E6F7F6B806B816B7EC012
:1009280008FF030E00017D19D8A489D0F70E000135
:100938007819D8A484D00F010D87000174510001E3
:100948007E6F7F6B806B816B7EC00FFF000E000196
:10095800741500017E6FFF0E0001751500017F6F91
:10096800000E000176150001806F000E000177155A
:100978000001816F7EC079F07FC07AF080C07BF083
:1009880081C07CF07AC079F07BC07AF07CC07BF0C3
:1009980000017C6B79C07EF07AC07FF07BC080F06C
:1009A8007CC081F07EC00EFF000176A103D00F014C
:1009B8000D8102D00F010D91000176A303D00F0124
:1009C8000D8302D00F010D93000176A503D00F010E
:1009D8000D8B02D00F010D9B000176A703D00F01EC
:1009E8000D8D02D00F010D9D000176A903D00F01D6
:1009F8000D8F02D00F010D9F74C079F075C07AF089
:100A080076C07BF077C07CF0160E06D00001D89037
:100A18007C337B337A337933E82EF8D779C07EF08C
:100A28007AC07FF07BC080F07CC081F000017E51ED
:100A380000017E6F7F6B806B816B7EC00CFF040EA4
:100A480000017D19D8A489D0F70E00017819D8A41F
:100A580084D00F0111870001745100017E6F7F6BF4
:100A6800806B816B7EC013FF000E000174150001BE
:100A78007E6FFF0E0001751500017F6F000E0001EB
:100A880076150001806F000E000177150001816F57
:100A98007EC079F07FC07AF080C07BF081C07CF0A6
:100AA8007AC079F07BC07AF07CC07BF000017C6B67
:100AB80079C07EF07AC07FF07BC080F07CC081F086
:100AC8007EC012FF000176A103D00F01118102D070
:100AD8000F011191000176A303D00F01118302D0F9
:100AE8000F011193000176A503D00F01118B02D0DD
:100AF8000F01119B000176A703D00F01118D02D0C1
:100B08000F01119D000176A903D00F01118F02D0AA
:100B18000F01119F74C079F075C07AF076C07BF030
:100B280077C07CF0160E06D00001D8907C337B335A
:100B38007A337933E82EF8D779C07EF07AC07FF01F
:100B48007BC080F07CC081F000017E5100017E6F87
:100B58007F6B806B816B7EC010FF050E00017D19D5
:100B6800D8A41200F70E00017819D8A412000F01BA
:100B780015870001745100017E6F7F6B806B816B5C
:100B88007EC017FF000E0001741500017E6FFF0E76
:100B98000001751500017F6F000E00017615000138
:100BA800806F000E000177150001816F7EC079F01B
:100BB8007FC07AF080C07BF081C07CF07AC079F089
:100BC8007BC07AF07CC07BF000017C6B79C07EF042
:100BD8007AC07FF07BC080F07CC081F07EC016FFB9
:100BE800000176A103D00F01158102D00F011591E4
:100BF800000176A303D00F01158302D00F011593CE
:100C0800000176A503D00F01158B02D00F01159BAB
:100C1800000176A703D00F01158D02D00F01159D95
:100C2800000176A903D00F01158F02D00F01159F7F
:100C380074C079F075C07AF076C07BF077C07CF02C
:100C4800160E06D00001D8907C337B337A33793383
:100C5800E82EF8D779C07EF07AC07FF07BC080F0AC
:100C68007CC081F000017E5100017E6F7F6B806B3C
:100C7800816B7EC014FF12000F0140B73FD17AC0CC
:100C880045FF00017BAD03D00F01458D02D00F0158
:100C9800459D00017BA779D0000174510001806F48
:100CA800816B826B836B80C044FF000E000174155A
:100CB8000001806FFF0E000175150001816F000EA5
:100CC800000176150001826F000E00017715000102
:100CD800836F80C07CF081C07DF082C07EF083C0CD
:100CE8007FF07DC07CF07EC07DF07FC07EF000018B
:100CF8007F6B7CC080F07DC081F07EC082F07FC0B9
:100D080083F080C043FF000E0F01426F0F0142873E
:100D1800000176A102D00F014281000176A302D022
:100D28000F014283000176A502D00F01428B00011A
:100D380076A702D00F01428D000176A902D00F01DB
:100D4800428F74C07CF075C07DF076C07EF077C0AD
:100D58007FF0160E06D00001D8907F337E337D33A6
:100D68007C33E82EF8D77CC080F07DC081F07EC04F
:100D780082F07FC083F0000180510001806F816B99
:100D8800826B836B80C041FF59D00F01429774C0BA
:100D98007CF075C07DF076C07EF077C07FF0040EE1
:100DA80006D00001D8907F337E337D337C33E82E24
:100DB800F8D77CC080F07DC081F07EC082F07FC013
:100DC80083F0000180510001806F816B826B836B1F
:100DD80080C041FF070E000174150001806F000EEE
:100DE800000175150001816F000E000176150001E4
:100DF800826F000E000177150001836F80C07CF0C0
:100E080081C07DF082C07EF083C07FF0050ED8904F
:100E180000017C377D377E377F37E82EF8D77CC0D6
:100E280080F07DC081F07EC082F07FC083F00F012A
:100E380042511F0B0F01426F80C042FF00017BA18E
:100E480003D00F01408102D00F01409100017BA324
:100E580003D00F01408302D00F01409378C0D9FF1F
:100E680079C0DAFFDF500F01466F000120EE01F074
:100E78007851D9267951DA22DF500F01476F0001E6
:100E880020EE02F07851D9267951DA22DF500F018D
:100E9800486F000120EE03F07851D9267951DA2203
:100EA800DF500F01496F000120EE04F07851D92678
:100EB8007951DA22DF500F014A6F000120EE05F068
:100EC8007851D9267951DA22DF500F014B6F000192
:100ED80020EE06F07851D9267951DA22DF500F0139
:100EE8004C6F000120EE07F07851D9267951DA22AB
:100EF800DF500F014D6F0F01408712000F0130B70F
:100F08003FD17AC035FF00017BAD03D00F01358D8D
:100F180002D00F01359D00017BA779D000017451E3
:100F28000001806F816B826B836B80C034FF000E81
:100F3800000174150001806FFF0E00017515000196
:100F4800816F000E000176150001826F000E00010E
:100F580077150001836F80C07CF081C07DF082C06E
:100F68007EF083C07FF07DC07CF07EC07DF07FC0C6
:100F78007EF000017F6B7CC080F07DC081F07EC078
:100F880082F07FC083F080C033FF000E0F01326F04
:100F98000F013287000176A102D00F0132810001D2
:100FA80076A302D00F013283000176A502D00F018B
:100FB800328B000176A702D00F01328D000176A98D
:100FC80002D00F01328F74C07CF075C07DF076C0FE
:100FD8007EF077C07FF0160E06D00001D8907F33E0
:100FE8007E337D337C33E82EF8D77CC080F07DC01B
:100FF80081F07EC082F07FC083F000018051000143
:10100800806F816B826B836B80C031FF59D00F0179
:10101800329774C07CF075C07DF076C07EF077C0E2
:101028007FF0040E06D00001D8907F337E337D33E5
:101038007C33E82EF8D77CC080F07DC081F07EC07C
:1010480082F07FC083F0000180510001806F816BC6
:10105800826B836B80C031FF070E0001741500019D
:10106800806F000E000175150001816F000E0001F0
:1010780076150001826F000E000177150001836F5D
:1010880080C07CF081C07DF082C07EF083C07FF09C
:10109800050ED89000017C377D377E377F37E82EE4
:1010A800F8D77CC080F07DC081F07EC082F07FC020
:1010B80083F00F0132511F0B0F01326F80C032FFD6
:1010C80000017BA103D00F01308102D00F013091C4
:1010D80000017BA303D00F01308302D00F013093AE
:1010E80078C0D9FF79C0DAFFDF500F01366F0001F1
:1010F80020EE01F07851D9267951DA22DF500F011C
:10110800376F000120EE02F07851D9267951DA22A2
:10111800DF500F01386F000120EE03F07851D92617
:101128007951DA22DF500F01396F000120EE04F007
:101138007851D9267951DA22DF500F013A6F000130
:1011480020EE05F07851D9267951DA22DF500F01C7
:101158003B6F000120EE06F07851D9267951DA224A
:10116800DF500F013C6F000120EE07F07851D926BF
:101178007951DA22DF500F013D6F0F0130871200DD
:101188000F0120B712007AC025FF00017BAD03D004
:101198000F01258D02D00F01259D00017BA779D075
:1011A800000174510001806F816B826B836B80C07A
:1011B80024FF000E000174150001806FFF0E00016E
:1011C80075150001816F000E000176150001826F10
:1011D800000E000177150001836F80C07CF081C08C
:1011E8007DF082C07EF083C07FF07DC07CF07EC041
:1011F8007DF07FC07EF000017F6B7CC080F07DC0F9
:1012080081F07EC082F07FC083F080C023FF000E93
:101218000F01226F0F012287000176A102D00F0172
:101228002281000176A302D00F012283000176A556
:1012380002D00F01228B000176A702D00F01228D68
:10124800000176A902D00F01228F74C07CF075C00E
:101258007DF076C07EF077C07FF0160E06D00001D4
:10126800D8907F337E337D337C33E82EF8D77CC02B
:1012780080F07DC081F07EC082F07FC083F00001E5
:1012880080510001806F816B826B836B80C021FF6E
:1012980059D00F01229774C07CF075C07DF076C0DC
:1012A8007EF077C07FF0040E06D00001D8907F331F
:1012B8007E337D337C33E82EF8D77CC080F07DC048
:1012C80081F07EC082F07FC083F000018051000170
:1012D800806F816B826B836B80C021FF070E0001DA
:1012E80074150001806F000E000175150001816FF3
:1012F800000E000176150001826F000E00017715BF
:101308000001836F80C07CF081C07DF082C07EF0D8
:1013180083C07FF0050ED89000017C377D377E377B
:101328007F37E82EF8D77CC080F07DC081F07EC082
:1013380082F07FC083F00F0122511F0B0F01226F33
:1013480080C022FF00017BA103D00F01208102D0C1
:101358000F01209100017BA303D00F01208302D04D
:101368000F01209378C0D9FF79C0DAFFDF500F0151
:10137800266F000120EE01F07851D9267951DA2242
:10138800DF500F01276F000120EE02F07851D926B7
:101398007951DA22DF500F01286F000120EE03F0A7
:1013A8007851D9267951DA22DF500F01296F0001CF
:1013B80020EE04F07851D9267951DA22DF500F0156
:1013C8002A6F000120EE05F07851D9267951DA22EA
:1013D800DF500F012B6F000120EE06F07851D9265F
:1013E8007951DA22DF500F012C6F000120EE07F04F
:1013F8007851D9267951DA22DF500F012D6F0F016C
:1014080020871200000E0B6E74BE0B8074BC0B821A
:101418000F0150AF43D101C0D9FF02C0DAFFDE6A25
:10142800DE6ADE6ADD6A20EE04F00150D926025039
:10143800DA2256CFDFFF20EE05F00150D926025000
:10144800DA2257CFDFFF20EE06F00150D9260250EE
:10145800DA2258CFDFFF20EE07F00150D9260250DC
:10146800DA2259CFDFFF20EE08F00150D9260250CA
:10147800DA225ACFDFFF20EE09F00150D9260250B8
:10148800DA225BCFDFFF20EE0AF00150D9260250A6
:10149800DA225CCFDFFF20EE0BF00150D926025094
:1014A800DA225DCFDFFF20EE0EF00150D926025080
:1014B800DA220F0155AD02D0010E01D0000EDF6E09
:1014C80020EE0DF00150D9260250DA220F015551B5
:1014D8000F0BDF6E20EE0CF00150D9260250DA22F5
:1014E8000F0152A702D0010E01D0000EDF6E0F01CE
:1014F80052B744D051CF03F0046A056A066A030E56
:10150800D8900336043605360636E82EF9D701C0DA
:10151800D9FF02C0DAFF03C0DEFF04C0DEFF05C04A
:10152800DEFF06C0DEFF0F015239E842070B070B4A
:101538000C6E01C0D9FF02C0DAFFDECF03F0DECFA8
:1015480004F0DECF05F0DECF06F00C500324076E62
:10155800000E0420086E000E0520096E000E0620FD
:101568000A6E01C0D9FF02C0DAFF07C0DEFF08C05B
:10157800DEFF09C0DEFF0AC0DEFF8DD054CF03F0C6
:10158800046A056A066A01C0D9FF02C0DAFF03C00F
:10159800DEFF04C0DEFF05C0DEFF06C0DEFF53CF5E
:1015A80003F0046A056A066A05C006F004C005F07F
:1015B80003C004F0036A01C0D9FF02C0DAFF035078
:1015C800DE260450DE220550DE220650DE220F0100
:1015D80052A10CD001C0D9FF02C0DAFF000EDE1202
:1015E800000EDE12010EDE12000EDE120F0152A3F3
:1015F8000CD001C0D9FF02C0DAFF000EDE12000EC7
:10160800DE12020EDE12000EDE120F0152AB0CD0FB
:1016180001C0D9FF02C0DAFF000EDE12000EDE1292
:10162800040EDE12000EDE120F0152AD0CD001C006
:10163800D9FF02C0DAFF000EDE12000EDE12080E1D
:10164800DE12000EDE120F0152AF0CD001C0D9FF1E
:1016580002C0DAFF000EDE12000EDE12100EDE12DD
:10166800000EDE1251CF03F0046A056A066A150EF1
:10167800D8900336043605360636E82EF9D701C069
:10168800D9FF02C0DAFF0350DE120450DE12055003
:10169800DE120650DE120F01509F120060AE1200DB
:1016A80001C0D9FF02C0DAFFDE6ADE6ADE6ADD6ADF
:1016B80020EE04F00150D9260250DA2266CFDFFF6F
:1016C80020EE05F00150D9260250DA2267CFDFFF5D
:1016D80020EE06F00150D9260250DA2268CFDFFF4B
:1016E80020EE07F00150D9260250DA2269CFDFFF39
:1016F80020EE08F00150D9260250DA226ACFDFFF27
:1017080020EE09F00150D9260250DA226BCFDFFF14
:1017180020EE0AF00150D9260250DA226CCFDFFF02
:1017280020EE0BF00150D9260250DA226DCFDFFFF0
:1017380020EE0EF00150D9260250DA2265AC02D014
:10174800010E01D0000EDF6E20EE0DF00150D926FB
:101758000250DA2265500F0BDF6E20EE0CF00150BC
:10176800D9260250DA2262A602D0010E01D0000E5C
:10177800DF6E62B643D061CF03F0046A056A066A79
:10178800030ED8900336043605360636E82EF9D708
:1017980001C0D9FF02C0DAFF03C0DEFF04C0DEFFCC
:1017A80005C0DEFF06C0DEFF6238E842070B070B04
:1017B8000C6E01C0D9FF02C0DAFFDECF03F0DECF26
:1017C80004F0DECF05F0DECF06F00C500324076EE0
:1017D800000E0420086E000E0520096E000E06207B
:1017E8000A6E01C0D9FF02C0DAFF07C0DEFF08C0D9
:1017F800DEFF09C0DEFF0AC0DEFF88D064CF03F039
:10180800046A056A066A01C0D9FF02C0DAFF03C08C
:10181800DEFF04C0DEFF05C0DEFF06C0DEFF63CFCB
:1018280003F0046A056A066A05C006F004C005F0FC
:1018380003C004F0036A01C0D9FF02C0DAFF0350F5
:10184800DE260450DE220550DE220650DE2262A08B
:101858000CD001C0D9FF02C0DAFF000EDE12000E64
:10186800DE12010EDE12000EDE1262A20CD001C0E2
:10187800D9FF02C0DAFF000EDE12000EDE12020EE1
:10188800DE12000EDE1262AA0CD001C0D9FF02C01F
:10189800DAFF000EDE12000EDE12040EDE12000E5B
:1018A800DE1262AC0CD001C0D9FF02C0DAFF000E14
:1018B800DE12000EDE12080EDE12000EDE1262AE1E
:1018C8000CD001C0D9FF02C0DAFF000EDE12000EF4
:1018D800DE12100EDE12000EDE1261CF03F0046A73
:1018E800056A066A150ED89003360436053606369C
:1018F800E82EF9D701C0D9FF02C0DAFF0350DE1283
:101908000450DE120550DE120650DE12609E1200F0
:1019180000017D6F00017D05D8A456D0000178290B
:10192800D8A452D074C079F075C07AF076C07BF034
:1019380077C07CF0040E06D00001D8907C337B334E
:101948007A337933E82EF8D779C07EF07AC07FF001
:101958007BC080F07CC081F000017E5100017E6F69
:101968007F6B806B816B7EC018FF070E00017415BA
:1019780000017E6F000E0001751500017F6F000EDB
:10198800000176150001806F000E00017715000137
:10199800816F7EC079F07FC07AF080C07BF081C013
:1019A8007CF0050ED890000179377A377B377C3781
:1019B800E82EF8D779C07EF07AC07FF07BC080F03F
:1019C8007CC081F07EC019FF020E00017D19D8A4E9
:1019D80056D000017829D8A452D074C079F075C0C7
:1019E8007AF076C07BF077C07CF0040E06D0000158
:1019F800D8907C337B337A337933E82EF8D779C0A3
:101A08007EF07AC07FF07BC080F07CC081F000015E
:101A18007E5100017E6F7F6B806B816B7EC01CFFE7
:101A2800070E0001741500017E6F000E0001751588
:101A380000017F6F000E000176150001806F000E17
:101A4800000177150001816F7EC079F07FC07AF0C0
:101A580080C07BF081C07CF0050ED89000017937FA
:101A68007A377B377C37E82EF8D779C07EF07AC092
:101A78007FF07BC080F07CC081F07EC01DFF00013C
:101A88007D05D8A487D0F70E00017819D8A482D094
:101A98000001745100017E6F7F6B806B816B7EC08B
:101AA8001BFF000E0001741500017E6FFF0E000180
:101AB800751500017F6F000E000176150001806F1B
:101AC800000E000177150001816F7EC079F07FC09C
:101AD8007AF080C07BF081C07CF07AC079F07BC05E
:101AE8007AF07CC07BF000017C6B79C07EF07AC014
:101AF8007FF07BC080F07CC081F07EC01AFF0001BF
:101B080076A103D00F01198102D00F0119910001AC
:101B180076A303D00F01198302D00F011993000196
:101B280076A503D00F01198B02D00F01199B000174
:101B380076A703D00F01198D02D00F01199D00015E
:101B480076A903D00F01198F02D00F01199F74C015
:101B580079F075C07AF076C07BF077C07CF0160E0D
:101B680006D00001D8907C337B337A337933E82E62
:101B7800F8D779C07EF07AC07FF07BC080F07CC057
:101B880081F000017E5100017E6F7F6B806B816B5D
:101B98007EC018FF020E00017D19D8A41200F70EAE
:101BA80000017819D8A412000001745100017E6F59
:101BB8007F6B806B816B7EC01FFF000E0001741568
:101BC80000017E6FFF0E0001751500017F6F000E8A
:101BD800000176150001806F000E000177150001E5
:101BE800816F7EC079F07FC07AF080C07BF081C0C1
:101BF8007CF07AC079F07BC07AF07CC07BF0000181
:101C08007C6B79C07EF07AC07FF07BC080F07CC0AE
:101C180081F07EC01EFF000176A103D00F011D8157
:101C280002D00F011D91000176A303D00F011D837F
:101C380002D00F011D93000176A503D00F011D8B63
:101C480002D00F011D9B000176A703D00F011D8D47
:101C580002D00F011D9D000176A903D00F011D8F31
:101C680002D00F011D9F74C079F075C07AF076C05C
:101C78007BF077C07CF0160E06D00001D8907C333C
:101C88007B337A337933E82EF8D779C07EF07AC07F
:101C98007FF07BC080F07CC081F000017E510001A4
:101CA8007E6F7F6B806B816B7EC01CFF1200000112
:101CB8008B6F800EB3EC10F0000E706E000E716E1C
:101CC800000E726E00018441E842C00B0001846F6F
:101CD80000018451701200018551701200018B516E
:101CE800711200018239E842F80B0001826F00018D
:101CF80082517112000186A5718C000186B1718E26
:101D0800000183517212000186B3728C0001865162
:101D1800600B606E00018651100BFF0AD8B4608416
:101D280060CF50FF000E0001746F000E756F000E3B
:101D3800766F000E776FF70E0001786F010E8CEC4E
:101D48000CF0000E0001746F000E756F000E766FB8
:101D5800000E776FF70E0001786F020E8CEC0CF016
:101D68000FD0F70E00018C6F07D000018C690001BD
:101D78008D6928D000018C69F70E00018D6F22D083
:101D88009F0E0001876FFF0E0001886F00018651CA
:101D9800600B0001896F8A6B00018751000189136C
:101DA8000001885100018A1300018A51000AD8A451
:101DB800E1D700018951BF0AD8B4D7D7600AD8B48F
:101DC800D0D7D8D7000E0001746F000E756F000EC3
:101DD800766F000E776F8CC078F0000EBDEC00F0C7
:101DE800000E0001746F000E756F000E766F000E06
:101DF800776F8CC078F0010EBDEC00F0000E00018A
:101E0800746F000E756F000E766F000E776F8DC0C1
:101E180078F0020EBDEC00F0000E0001746F000EA9
:101E2800756F000E766F000E776F8DC078F0030E19
:101E3800BDEC00F0000E0001746F000E756F000E0F
:101E4800766F000E776F8DC078F0040EBDEC00F051
:101E5800000E0001746F000E756F000E766F000E95
:101E6800776F8DC078F0050EBDEC00F0000EB3EC76
:101E780010F012000600E9CF68F0EACF69F0E1CF70
:101E88006AF0E2CF6BF0D9CF6CF0DACF6DF0F3CF18
:101E98006EF0F4CF6FF0F6CF70F0F7CF71F0F8CFA7
:101EA80072F0F5CF73F0F1AC06D0F19C000EB36E72
:101EB800000EB26E30D0B3CF3CF0B2CF3BF03CC096
:101EC80038F0396A38500001646F3B50386E64C08E
:101ED80039F0D89039300001646F3830346E64C0FE
:101EE80035F034C060F035C061F0000E0001636F5A
:101EF8003A0E626F1AEC10F03A50020D8E0EF3246F
:101F0800D96E000EF420DA6E000160C0DEFF000119
:101F180061C0DDFFF18CF29273C0F5FF72C0F8FF6B
:101F280071C0F7FF70C0F6FF6FC0F4FF6EC0F3FF1B
:101F38006DC0DAFF6CC0D9FF6BC0E2FF6AC0E1FF79
:101F480069C0EAFF68C0E9FF67C0FBFF66C0FAFF27
:101F58003F92110050EC10F0000E246E010E256E19
:101F6800020E266E030E276E040E286E050E296ECD
:101F7800060E2A6E070E2B6E8198819A819C3D92DF
:101F88003D8051D000018F5105E1330E00018E5D77
:101F9800D8A021D081883DB21ED0A1EC10F0000954
:101FA800D8B4FBD7080E0001746F000E756F000ED1
:101FB800766F000E776FAD0E0001786F000E00018E
:101FC800796F080E00017A6FFC0E00017B6F40EC00
:101FD80006F03D828A8800018F5125E1320E00010A
:101FE8008E5DD8A03DA21FD03D92A1EC10F0000953
:101FF800D8B4FBD7070E0001746F000E756F000E82
:10200800766F000E776FAD0E0001786F000E00013D
:10201800796F080E00017A6FFC0E00017B6F40ECAF
:1020280006F08A8A818C3DA0ABD7ACD7000E236E10
:10203800000E226E0001625100016311D8B427D04E
:10204800010E216E05D00001D89062376337212A2E
:10205800000163AFF8D7D8902236233600016251C9
:102068000001605D0001635100016159D8A009D0E9
:10207800000162510001605F000163510001615B72
:1020880022800001D89063336233212EE4D722C026
:1020980060F023C061F01200000E896EF00E926E9F
:1020A800000E8A6E8A0E936E000E8B6E9468C1685D
:1020B800060E0001826F050E0001836F010E0001FC
:1020C800846F030E0001856F9D0E0001866F040E5C
:1020D8005BEC0EF0D08EA492A490A592A590F194FA
:1020E800800ED56E110EB16E340ED76EE00ED66E20
:1020F800F294F28AF18CF292F298F28CF28E12003B
:1021080000EE8EF0270EEE6AE806FDE13D6A00EE6D
:1021180024F0190EEE6AE806FDE1920EF66E210E25
:10212800F76E000EF86E0900F5CF3EF03F903F9233
:10213800000EF86E0001AEEF0FF0010E0001746F93
:102148000F0140A709D00F0130A706D00F0120A723
:1021580003D0000E0001746F0001745112000001D9
:10216800746F74C06FFF6E50E00B00017419D8B41F
:102178001200F9D7010E016E60BE05D00F0150BFE5
:0C21880002D0000E016E01501200100089
:020000040020DA
:08000000FFFFFFFFFFFFFFFF00
:020000040030CA
:0E000000FF021F1EFF8081FF0FC00FE00F40A8
:00000001FF
