:040000008AEF00F093
:100018004180D8CF2EF0E8CF2FF0E0CF30F0FACFE4
:1000280031F0FBCF32F0E9CF33F0EACF34F0E1CF53
:1000380035F0E2CF36F0D9CF37F0DACF38F0F3CF5A
:1000480039F0F4CF3AF0F6CF3BF0F7CF3CF0F8CFE9
:100058003DF0F5CF3EF0A4A0A4B201D033D093EC8C
:100068000FF00009D8B42CD0090E206E000E216EB6
:10007800D5EC09F00A0E09180A100B100C10D8A4B8
:1000880006D00D04D8A402D03F8001D03F90070EBF
:1000980009180A100B100C10D8A412D00EC003F0C7
:1000A800046A03502C6E0D50036E2CC004F010C06F
:1000B80005F0066A03502C6E0F50056E2CC006F032
:1000C800A450A4503EC0F5FF3DC0F8FF3CC0F7FF68
:1000D8003BC0F6FF3AC0F4FF39C0F3FF38C0DAFF7F
:1000E80037C0D9FF36C0E2FF35C0E1FF34C0EAFFB0
:1000F80033C0E9FF32C0FBFF31C0FAFF30C0E0FF78
:100108002FC0E8FF2EC0D8FF419010005FEF0FF01E
:100118000001696F000169510001D8A458D000019D
:100128006429D8A454D00F01019760C065F061C05C
:1001380066F062C067F063C068F0040E06D0000184
:10014800D8906833673366336533E82EF8D765C0CF
:100158006AF066C06BF067C06CF068C06DF00001B3
:100168006A5100016A6F6B6B6C6B6D6B6AC000FF44
:10017800070E0001601500016A6F000E000161158D
:1001880000016B6F000E0001621500016C6F000E1C
:100198000001631500016D6F6AC065F06BC066F001
:1001A8006CC067F06DC068F0050ED8900001653727
:1001B800663767376837E82EF8D765C06AF066C0D3
:1001C8006BF067C06CF068C06DF06AC001FF000199
:1001D8006905D8A458D000016429D8A454D00F01C7
:1001E800059760C065F061C066F062C067F063C0E3
:1001F80068F0040E06D00001D89068336733663380
:100208006533E82EF8D765C06AF066C06BF067C042
:100218006CF068C06DF000016A5100016A6F6B6B89
:100228006C6B6D6B6AC004FF070E0001601500015E
:100238006A6F000E0001611500016B6F000E00016E
:10024800621500016C6F000E0001631500016D6FEF
:100258006AC065F06BC066F06CC067F06DC068F08E
:10026800050ED89000016537663767376837E82E7E
:10027800F8D765C06AF066C06BF067C06CF068C0FC
:100288006DF06AC005FF020E00016919D8A458D0A4
:1002980000016429D8A454D00F01099760C065F003
:1002A80061C066F062C067F063C068F0040E06D0F3
:1002B8000001D8906833673366336533E82EF8D782
:1002C80065C06AF066C06BF067C06CF068C06DF01E
:1002D80000016A5100016A6F6B6B6C6B6D6B6AC0D1
:1002E80008FF070E0001601500016A6F000E00018B
:1002F800611500016B6F000E0001621500016C6F43
:10030800000E0001631500016D6F6AC065F06BC0D7
:1003180066F06CC067F06DC068F0050ED8900001FB
:100328006537663767376837E82EF8D765C06AF0EB
:1003380066C06BF067C06CF068C06DF06AC009FFFA
:10034800030E00016919D8A458D000016429D8A463
:1003580054D00F010D9760C065F061C066F062C0AF
:1003680067F063C068F0040E06D00001D8906833C7
:10037800673366336533E82EF8D765C06AF066C020
:100388006BF067C06CF068C06DF000016A51000145
:100398006A6F6B6B6C6B6D6B6AC00CFF070E0001AC
:1003A800601500016A6F000E0001611500016B6F96
:1003B800000E0001621500016C6F000E000163154C
:1003C80000016D6F6AC065F06BC066F06CC067F0C5
:1003D8006DC068F0050ED89000016537663767373D
:1003E8006837E82EF8D765C06AF066C06BF067C05A
:1003F8006CF068C06DF06AC00DFF040E0001691949
:10040800D8A458D000016429D8A454D00F0111975A
:1004180060C065F061C066F062C067F063C068F0F4
:10042800040E06D00001D89068336733663365330D
:10043800E82EF8D765C06AF066C06BF067C06CF04C
:1004480068C06DF000016A5100016A6F6B6B6C6BDC
:100458006D6B6AC010FF070E0001601500016A6F1E
:10046800000E0001611500016B6F000E000162159E
:1004780000016C6F000E0001631500016D6F6AC00A
:1004880065F06BC066F06CC067F06DC068F0050E73
:10049800D89000016537663767376837E82EF8D790
:1004A80065C06AF066C06BF067C06CF068C06DF03C
:1004B8006AC011FF050E00016919D8A458D00001BF
:1004C8006429D8A454D00F01159760C065F061C0A5
:1004D80066F062C067F063C068F0040E06D00001E1
:1004E800D8906833673366336533E82EF8D765C02C
:1004F8006AF066C06BF067C06CF068C06DF0000110
:100508006A5100016A6F6B6B6C6B6D6B6AC014FF8C
:10051800070E0001601500016A6F000E00016115E9
:1005280000016B6F000E0001621500016C6F000E78
:100538000001631500016D6F6AC065F06BC066F05D
:100548006CC067F06DC068F0050ED8900001653783
:10055800663767376837E82EF8D765C06AF066C02F
:100568006BF067C06CF068C06DF06AC015FF0001E1
:1005780069510001D8A489D0F70E00016419D8A4E4
:1005880084D00F0101870001605100016A6F6B6B15
:100598006C6B6D6B6AC003FF000E000160150001F3
:1005A8006A6FFF0E0001611500016B6F000E0001FC
:1005B800621500016C6F000E0001631500016D6F7C
:1005C8006AC065F06BC066F06CC067F06DC068F01B
:1005D80066C065F067C066F068C067F00001686BC8
:1005E80065C06AF066C06BF067C06CF068C06DF0FB
:1005F8006AC002FF000162A103D00F01018102D08D
:100608000F010191000162A303D00F01018302D001
:100618000F010193000162A503D00F01018B02D0E5
:100628000F01019B000162A703D00F01018D02D0C9
:100638000F01019D000162A903D00F01018F02D0B3
:100648000F01019F60C065F061C066F062C067F08D
:1006580063C068F0160E06D00001D890683367337F
:1006680066336533E82EF8D765C06AF066C06BF06C
:1006780067C06CF068C06DF000016A5100016A6FD4
:100688006B6B6C6B6D6B6AC000FF00016905D8A4C9
:1006980089D0F70E00016419D8A484D00F0105870A
:1006A8000001605100016A6F6B6B6C6B6D6B6AC007
:1006B80007FF000E0001601500016A6FFF0E0001C0
:1006C800611500016B6F000E0001621500016C6F6F
:1006D800000E0001631500016D6F6AC065F06BC004
:1006E80066F06CC067F06DC068F066C065F067C002
:1006F80066F068C067F00001686B65C06AF066C0A4
:100708006BF067C06CF068C06DF06AC006FF00014E
:1007180062A103D00F01058102D00F0105910001EC
:1007280062A303D00F01058302D00F0105930001D6
:1007380062A503D00F01058B02D00F01059B0001B4
:1007480062A703D00F01058D02D00F01059D00019E
:1007580062A903D00F01058F02D00F01059F60C069
:1007680065F061C066F062C067F063C068F0160E9D
:1007780006D00001D8906833673366336533E82EB6
:10078800F8D765C06AF066C06BF067C06CF068C0E7
:100798006DF000016A5100016A6F6B6B6C6B6D6BD9
:1007A8006AC004FF020E00016919D8A489D0F70EA7
:1007B80000016419D8A484D00F0109870001605191
:1007C80000016A6F6B6B6C6B6D6B6AC00BFF000E80
:1007D8000001601500016A6FFF0E0001611500013C
:1007E8006B6F000E0001621500016C6F000E0001B6
:1007F800631500016D6F6AC065F06BC066F06CC070
:1008080067F06DC068F066C065F067C066F068C0E4
:1008180067F00001686B65C06AF066C06BF067C07E
:100828006CF068C06DF06AC00AFF000162A103D0D5
:100838000F01098102D00F010991000162A303D0C1
:100848000F01098302D00F010993000162A503D0AB
:100858000F01098B02D00F01099B000162A703D089
:100868000F01098D02D00F01099D000162A903D073
:100878000F01098F02D00F01099F60C065F061C0A8
:1008880066F062C067F063C068F0160E06D000011B
:10089800D8906833673366336533E82EF8D765C078
:1008A8006AF066C06BF067C06CF068C06DF000015C
:1008B8006A5100016A6F6B6B6C6B6D6B6AC008FFE5
:1008C800030E00016919D8A489D0F70E0001641934
:1008D800D8A484D00F010D870001605100016A6F10
:1008E8006B6B6C6B6D6B6AC00FFF000E00016015BF
:1008F80000016A6FFF0E0001611500016B6F000EA9
:100908000001621500016C6F000E00016315000103
:100918006D6F6AC065F06BC066F06CC067F06DC043
:1009280068F066C065F067C066F068C067F00001EF
:10093800686B65C06AF066C06BF067C06CF068C031
:100948006DF06AC00EFF000162A103D00F010D8196
:1009580002D00F010D91000162A303D00F010D8396
:1009680002D00F010D93000162A503D00F010D8B7A
:1009780002D00F010D9B000162A703D00F010D8D5E
:1009880002D00F010D9D000162A903D00F010D8F48
:1009980002D00F010D9F60C065F061C066F062C0B3
:1009A80067F063C068F0160E06D00001D89068336F
:1009B800673366336533E82EF8D765C06AF066C0DA
:1009C8006BF067C06CF068C06DF000016A510001FF
:1009D8006A6F6B6B6C6B6D6B6AC00CFF040E000169
:1009E8006919D8A489D0F70E00016419D8A484D055
:1009F8000F0111870001605100016A6F6B6B6C6B0E
:100A08006D6B6AC013FF000E0001601500016A6F6C
:100A1800FF0E0001611500016B6F000E00016215E9
:100A280000016C6F000E0001631500016D6F6AC054
:100A380065F06BC066F06CC067F06DC068F066C0AA
:100A480065F067C066F068C067F00001686B65C054
:100A58006AF066C06BF067C06CF068C06DF06AC081
:100A680012FF000162A103D00F01118102D00F0112
:100A78001191000162A303D00F01118302D00F016D
:100A88001193000162A503D00F01118B02D00F0151
:100A9800119B000162A703D00F01118D02D00F0135
:100AA800119D000162A903D00F01118F02D00F011F
:100AB800119F60C065F061C066F062C067F063C0F6
:100AC80068F0160E06D00001D89068336733663395
:100AD8006533E82EF8D765C06AF066C06BF067C06A
:100AE8006CF068C06DF000016A5100016A6F6B6BB1
:100AF8006C6B6D6B6AC010FF050E00016919D8A4F4
:100B08001200F70E00016419D8A412000F0115870E
:100B18000001605100016A6F6B6B6C6B6D6B6AC092
:100B280017FF000E0001601500016A6FFF0E00013B
:100B3800611500016B6F000E0001621500016C6FFA
:100B4800000E0001631500016D6F6AC065F06BC08F
:100B580066F06CC067F06DC068F066C065F067C08D
:100B680066F068C067F00001686B65C06AF066C02F
:100B78006BF067C06CF068C06DF06AC016FF0001CA
:100B880062A103D00F01158102D00F011591000158
:100B980062A303D00F01158302D00F011593000142
:100BA80062A503D00F01158B02D00F01159B000120
:100BB80062A703D00F01158D02D00F01159D00010A
:100BC80062A903D00F01158F02D00F01159F60C0D5
:100BD80065F061C066F062C067F063C068F0160E29
:100BE80006D00001D8906833673366336533E82E42
:100BF800F8D765C06AF066C06BF067C06CF068C073
:100C08006DF000016A5100016A6F6B6B6C6B6D6B64
:100C18006AC014FF12000F0140B73FD166C045FFFC
:100C2800000167AD03D00F01458D02D00F01459D2E
:100C3800000167A779D00001605100016C6F6D6BEE
:100C48006E6B6F6B6CC044FF000E000160150001F5
:100C58006C6FFF0E0001611500016D6F000E000141
:100C6800621500016E6F000E0001631500016F6FC1
:100C78006CC068F06DC069F06EC06AF06FC06BF050
:100C880069C068F06AC069F06BC06AF000016B6BFC
:100C980068C06CF069C06DF06AC06EF06BC06FF030
:100CA8006CC043FF000E0F01426F0F014287000125
:100CB80062A102D00F014281000162A302D00F019C
:100CC8004283000162A502D00F01428B000162A796
:100CD80002D00F01428D000162A902D00F01428F9C
:100CE80060C068F061C069F062C06AF063C06BF010
:100CF800160E06D00001D8906B336A336933683317
:100D0800E82EF8D768C06CF069C06DF06AC06EF064
:100D18006BC06FF000016C5100016C6F6D6B6E6BF6
:100D28006F6B6CC041FF59D00F01429760C068F0EB
:100D380061C069F062C06AF063C06BF0040E06D04F
:100D48000001D8906B336A3369336833E82EF8D7DB
:100D580068C06CF069C06DF06AC06EF06BC06FF06F
:100D680000016C5100016C6F6D6B6E6B6F6B6CC02A
:100D780041FF070E0001601500016C6F000E0001B5
:100D8800611500016D6F000E0001621500016E6FA4
:100D9800000E0001631500016F6F6CC068F06DC034
:100DA80069F06EC06AF06FC06BF0050ED890000154
:100DB800683769376A376B37E82EF8D768C06CF040
:100DC80069C06DF06AC06EF06BC06FF00F014251E0
:100DD8001F0B0F01426F6CC042FF000167A103D0D7
:100DE8000F01408102D00F014091000167A303D099
:100DF8000F01408302D00F01409364C0D9FF65C042
:100E0800DAFFDF500F01466F000120EE01F0645158
:100E1800D9266551DA22DF500F01476F000120EE15
:100E280002F06451D9266551DA22DF500F01486F6C
:100E3800000120EE03F06451D9266551DA22DF5013
:100E48000F01496F000120EE04F06451D926655165
:100E5800DA22DF500F014A6F000120EE05F06451DD
:100E6800D9266551DA22DF500F014B6F000120EEC1
:100E780006F06451D9266551DA22DF500F014C6F14
:100E8800000120EE07F06451D9266551DA22DF50BF
:100E98000F014D6F0F01408712000F0130B73FD18E
:100EA80066C035FF000167AD03D00F01358D02D054
:100EB8000F01359D000167A779D00001605100013D
:100EC8006C6F6D6B6E6B6F6B6CC034FF000E000146
:100ED800601500016C6FFF0E0001611500016D6F58
:100EE800000E0001621500016E6F000E000163150F
:100EF80000016F6F6CC068F06DC069F06EC06AF079
:100F08006FC06BF069C068F06AC069F06BC06AF0C6
:100F180000016B6B68C06CF069C06DF06AC06EF060
:100F28006BC06FF06CC033FF000E0F01326F0F0102
:100F38003287000162A102D00F013281000162A351
:100F480002D00F013283000162A502D00F01328B5B
:100F5800000162A702D00F01328D000162A902D000
:100F68000F01328F60C068F061C069F062C06AF03A
:100F780063C06BF0160E06D00001D8906B336A334D
:100F880069336833E82EF8D768C06CF069C06DF033
:100F98006AC06EF06BC06FF000016C5100016C6F9D
:100FA8006D6B6E6B6F6B6CC031FF59D00F01329750
:100FB80060C068F061C069F062C06AF063C06BF03D
:100FC800040E06D00001D8906B336A336933683356
:100FD800E82EF8D768C06CF069C06DF06AC06EF092
:100FE8006BC06FF000016C5100016C6F6D6B6E6B24
:100FF8006F6B6CC031FF070E0001601500016C6F4C
:10100800000E0001611500016D6F000E00016215F0
:1010180000016E6F000E0001631500016F6F6CC058
:1010280068F06DC069F06EC06AF06FC06BF0050EB5
:10103800D8900001683769376A376B37E82EF8D7D8
:1010480068C06CF069C06DF06AC06EF06BC06FF07C
:101058000F0132511F0B0F01326F6CC032FF0001BC
:1010680067A103D00F01308102D00F013091000138
:1010780067A303D00F01308302D00F01309364C0FF
:10108800D9FF65C0DAFFDF500F01366F000120EE8F
:1010980001F06451D9266551DA22DF500F01376F0C
:1010A800000120EE02F06451D9266551DA22DF50A2
:1010B8000F01386F000120EE03F06451D926655105
:1010C800DA22DF500F01396F000120EE04F064517D
:1010D800D9266551DA22DF500F013A6F000120EE60
:1010E80005F06451D9266551DA22DF500F013B6FB4
:1010F800000120EE06F06451D9266551DA22DF504E
:101108000F013C6F000120EE07F06451D9266551AC
:10111800DA22DF500F013D6F0F01308712000F01F7
:1011280020B7120066C025FF000167AD03D00F018C
:10113800258D02D00F01259D000167A779D00001F8
:10114800605100016C6F6D6B6E6B6F6B6CC024FF30
:10115800000E0001601500016C6FFF0E00016115A3
:1011680000016D6F000E0001621500016E6F000E28
:101178000001631500016F6F6CC068F06DC069F005
:101188006EC06AF06FC06BF069C068F06AC069F041
:101198006BC06AF000016B6B68C06CF069C06DF0E1
:1011A8006AC06EF06BC06FF06CC023FF000E0F01B9
:1011B800226F0F012287000162A102D00F01228154
:1011C800000162A302D00F012283000162A502D0B0
:1011D8000F01228B000162A702D00F01228D0001AE
:1011E80062A902D00F01228F60C068F061C069F067
:1011F80062C06AF063C06BF0160E06D00001D8908A
:101208006B336A3369336833E82EF8D768C06CF0FB
:1012180069C06DF06AC06EF06BC06FF000016C5170
:1012280000016C6F6D6B6E6B6F6B6CC021FF59D0DA
:101238000F01229760C068F061C069F062C06AF06F
:1012480063C06BF0040E06D00001D8906B336A338C
:1012580069336833E82EF8D768C06CF069C06DF060
:101268006AC06EF06BC06FF000016C5100016C6FCA
:101278006D6B6E6B6F6B6CC021FF070E0001601504
:1012880000016C6F000E0001611500016D6F000E0A
:101298000001621500016E6F000E00016315000168
:1012A8006F6F6CC068F06DC069F06EC06AF06FC097
:1012B8006BF0050ED8900001683769376A376B37CD
:1012C800E82EF8D768C06CF069C06DF06AC06EF09F
:1012D8006BC06FF00F0122511F0B0F01226F6CC002
:1012E80022FF000167A103D00F01208102D00F0166
:1012F8002091000167A303D00F01208302D00F01C2
:10130800209364C0D9FF65C0DAFFDF500F01266F54
:10131800000120EE01F06451D9266551DA22DF5030
:101328000F01276F000120EE02F06451D9266551A4
:10133800DA22DF500F01286F000120EE03F064511C
:10134800D9266551DA22DF500F01296F000120EEFE
:1013580004F06451D9266551DA22DF500F012A6F53
:10136800000120EE05F06451D9266551DA22DF50DC
:101378000F012B6F000120EE06F06451D92665514C
:10138800DA22DF500F012C6F000120EE07F06451C4
:10139800D9266551DA22DF500F012D6F0F01208702
:1013A8001200000E2A6E74BE2A8074BC2A820F01B5
:1013B80050AF43D120C0D9FF21C0DAFFDE6ADE6A10
:1013C800DE6ADD6A20EE04F02050D9262150DA22A8
:1013D80056CFDFFF20EE05F02050D9262150DA2223
:1013E80057CFDFFF20EE06F02050D9262150DA2211
:1013F80058CFDFFF20EE07F02050D9262150DA22FF
:1014080059CFDFFF20EE08F02050D9262150DA22EC
:101418005ACFDFFF20EE09F02050D9262150DA22DA
:101428005BCFDFFF20EE0AF02050D9262150DA22C8
:101438005CCFDFFF20EE0BF02050D9262150DA22B6
:101448005DCFDFFF20EE0EF02050D9262150DA22A2
:101458000F0155AD02D0010E01D0000EDF6E20EE57
:101468000DF02050D9262150DA220F0155510F0BCB
:10147800DF6E20EE0CF02050D9262150DA220F0121
:1014880052A702D0010E01D0000EDF6E0F0152B735
:1014980044D051CF22F0236A246A256A030ED890DB
:1014A8002236233624362536E82EF9D720C0D9FF30
:1014B80021C0DAFF22C0DEFF23C0DEFF24C0DEFF2A
:1014C80025C0DEFF0F015239E842070B070B2B6ED0
:1014D80020C0D9FF21C0DAFFDECF22F0DECF23F013
:1014E800DECF24F0DECF25F02B502224266E000E0E
:1014F8002320276E000E2420286E000E2520296E3A
:1015080020C0D9FF21C0DAFF26C0DEFF27C0DEFFDA
:1015180028C0DEFF29C0DEFF8DD054CF22F0236A19
:10152800246A256A20C0D9FF21C0DAFF22C0DEFF65
:1015380023C0DEFF24C0DEFF25C0DEFF53CF22F02C
:10154800236A246A256A24C025F023C024F022C017
:1015580023F0226A20C0D9FF21C0DAFF2250DE26FC
:101568002350DE222450DE222550DE220F0152A114
:101578000CD020C0D9FF21C0DAFF000EDE12000E09
:10158800DE12010EDE12000EDE120F0152A30CD085
:1015980020C0D9FF21C0DAFF000EDE12000EDE12D5
:1015A800020EDE12000EDE120F0152AB0CD020C06C
:1015B800D9FF21C0DAFF000EDE12000EDE12040E83
:1015C800DE12000EDE120F0152AD0CD020C0D9FF82
:1015D80021C0DAFF000EDE12000EDE12080EDE1247
:1015E800000EDE120F0152AF0CD020C0D9FF21C06F
:1015F800DAFF000EDE12000EDE12100EDE12000EF2
:10160800DE1251CF22F0236A246A256A150ED8907B
:101618002236233624362536E82EF9D720C0D9FFBE
:1016280021C0DAFF2250DE122350DE122450DE12CF
:101638002550DE120F01509F120060AE120020C02C
:10164800D9FF21C0DAFFDE6ADE6ADE6ADD6A20EED3
:1016580004F02050D9262150DA2266CFDFFF20EE91
:1016680005F02050D9262150DA2267CFDFFF20EE7F
:1016780006F02050D9262150DA2268CFDFFF20EE6D
:1016880007F02050D9262150DA2269CFDFFF20EE5B
:1016980008F02050D9262150DA226ACFDFFF20EE49
:1016A80009F02050D9262150DA226BCFDFFF20EE37
:1016B8000AF02050D9262150DA226CCFDFFF20EE25
:1016C8000BF02050D9262150DA226DCFDFFF20EE13
:1016D8000EF02050D9262150DA2265AC02D0010E36
:1016E80001D0000EDF6E20EE0DF02050D9262150DB
:1016F800DA2265500F0BDF6E20EE0CF02050D92651
:101708002150DA2262A602D0010E01D0000EDF6E4F
:1017180062B643D061CF22F0236A246A256A030E99
:10172800D8902236233624362536E82EF9D720C01D
:10173800D9FF21C0DAFF22C0DEFF23C0DEFF24C0AC
:10174800DEFF25C0DEFF6238E842070B070B2B6E71
:1017580020C0D9FF21C0DAFFDECF22F0DECF23F090
:10176800DECF24F0DECF25F02B502224266E000E8B
:101778002320276E000E2420286E000E2520296EB7
:1017880020C0D9FF21C0DAFF26C0DEFF27C0DEFF58
:1017980028C0DEFF29C0DEFF88D064CF22F0236A8C
:1017A800246A256A20C0D9FF21C0DAFF22C0DEFFE3
:1017B80023C0DEFF24C0DEFF25C0DEFF63CF22F09A
:1017C800236A246A256A24C025F023C024F022C095
:1017D80023F0226A20C0D9FF21C0DAFF2250DE267A
:1017E8002350DE222450DE222550DE2262A00CD0B7
:1017F80020C0D9FF21C0DAFF000EDE12000EDE1273
:10180800010EDE12000EDE1262A20CD020C0D9FF3B
:1018180021C0DAFF000EDE12000EDE12020EDE120A
:10182800000EDE1262AA0CD020C0D9FF21C0DAFF58
:10183800000EDE12000EDE12040EDE12000EDE12A4
:1018480062AC0CD020C0D9FF21C0DAFF000EDE1236
:10185800000EDE12080EDE12000EDE1262AE0CD092
:1018680020C0D9FF21C0DAFF000EDE12000EDE1202
:10187800100EDE12000EDE1261CF22F0236A246AF7
:10188800256A150ED8902236233624362536E82EBA
:10189800F9D720C0D9FF21C0DAFF2250DE12235029
:1018A800DE122450DE122550DE12609E1200000166
:1018B800696F00016905D8A456D000016429D8A42D
:1018C80052D060C065F061C066F062C067F063C066
:1018D80068F0040E06D00001D89068336733663389
:1018E8006533E82EF8D765C06AF066C06BF067C04C
:1018F8006CF068C06DF000016A5100016A6F6B6B93
:101908006C6B6D6B6AC018FF070E00016015000153
:101918006A6F000E0001611500016B6F000E000177
:10192800621500016C6F000E0001631500016D6FF8
:101938006AC065F06BC066F06CC067F06DC068F097
:10194800050ED89000016537663767376837E82E87
:10195800F8D765C06AF066C06BF067C06CF068C005
:101968006DF06AC019FF020E00016919D8A456D09B
:1019780000016429D8A452D060C065F061C066F047
:1019880062C067F063C068F0040E06D00001D8900A
:101998006833673366336533E82EF8D765C06AF075
:1019A80066C06BF067C06CF068C06DF000016A51EA
:1019B80000016A6F6B6B6C6B6D6B6AC01CFF070E66
:1019C8000001601500016A6F000E00016115000139
:1019D8006B6F000E0001621500016C6F000E0001B4
:1019E800631500016D6F6AC065F06BC066F06CC06E
:1019F80067F06DC068F0050ED8900001653766374E
:101A080067376837E82EF8D765C06AF066C06BF0AC
:101A180067C06CF068C06DF06AC01DFF0001690501
:101A2800D8A487D0F70E00016419D8A482D0000189
:101A3800605100016A6F6B6B6C6B6D6B6AC01BFF4A
:101A4800000E0001601500016A6FFF0E00016115AC
:101A580000016B6F000E0001621500016C6F000E33
:101A68000001631500016D6F6AC065F06BC066F018
:101A78006CC067F06DC068F066C065F067C066F05E
:101A880068C067F00001686B65C06AF066C06BF0FB
:101A980067C06CF068C06DF06AC01AFF000162A1EF
:101AA80003D00F01198102D00F011991000162A31F
:101AB80003D00F01198302D00F011993000162A509
:101AC80003D00F01198B02D00F01199B000162A7E7
:101AD80003D00F01198D02D00F01199D000162A9D1
:101AE80003D00F01198F02D00F01199F60C065F054
:101AF80061C066F062C067F063C068F0160E06D079
:101B08000001D8906833673366336533E82EF8D719
:101B180065C06AF066C06BF067C06CF068C06DF0B5
:101B280000016A5100016A6F6B6B6C6B6D6B6AC068
:101B380018FF020E00016919D8A41200F70E00015F
:101B48006419D8A412000001605100016A6F6B6B20
:101B58006C6B6D6B6AC01FFF000E00016015000101
:101B68006A6FFF0E0001611500016B6F000E000126
:101B7800621500016C6F000E0001631500016D6FA6
:101B88006AC065F06BC066F06CC067F06DC068F045
:101B980066C065F067C066F068C067F00001686BF2
:101BA80065C06AF066C06BF067C06CF068C06DF025
:101BB8006AC01EFF000162A103D00F011D8102D07F
:101BC8000F011D91000162A303D00F011D8302D0F4
:101BD8000F011D93000162A503D00F011D8B02D0D8
:101BE8000F011D9B000162A703D00F011D8D02D0BC
:101BF8000F011D9D000162A903D00F011D8F02D0A6
:101C08000F011D9F60C065F061C066F062C067F09B
:101C180063C068F0160E06D00001D89068336733A9
:101C280066336533E82EF8D765C06AF066C06BF096
:101C380067C06CF068C06DF000016A5100016A6FFE
:101C48006B6B6C6B6D6B6AC01CFF12000001776FC9
:101C5800800E88EC0FF0000E706E000E716E000E94
:101C6800726E00017041E842C00B0001706F000104
:101C78007051701200017151701200017751711288
:101C880000016E39E842F80B00016E6F00016E51D9
:101C98007112000172A5718C000172B1718E000180
:101CA8006F517212000172B3728C00017251600B95
:101CB800606E00017251100BFF0AD8B4608460CFC7
:101CC80050FF000E0001606F000E616F000E626F22
:101CD800000E636FF70E0001646F010E5BEC0CF0F1
:101CE800000E0001606F000E616F000E626F000E43
:101CF800636FF70E0001646F020E5BEC0CF00FD0FF
:101D0800F70E0001786F07D0000178690001796942
:101D180028D000017869F70E0001796F22D09F0E54
:101D28000001736FFF0E0001746F00017251600BA8
:101D38000001756F766B0001735100017513000186
:101D480074510001761300017651000AD8A4E1D736
:101D580000017551BF0AD8B4D7D7600AD8B4D0D714
:101D6800D8D7000E0001606F000E616F000E626F21
:101D7800000E636F78C064F0000E8CEC00F0000E6B
:101D88000001606F000E616F000E626F000E636FDE
:101D980078C064F0010E8CEC00F0000E0001606F5A
:101DA800000E616F000E626F000E636F79C064F001
:101DB800020E8CEC00F0000E0001606F000E616FE7
:101DC800000E626F000E636F79C064F0030E8CEC36
:101DD80000F0000E0001606F000E616F000E626F70
:101DE800000E636F79C064F0040E8CEC00F0000EF6
:101DF8000001606F000E616F000E626F000E636F6E
:101E080079C064F0050E8CEC00F0000E88EC0FF041
:101E1800120039EC0FF026D0085004E1970E075C49
:101E2800D8A020D03FA219D01DD0080E0001606FA5
:101E3800000E616F000E626F000E636F180E0001D6
:101E4800646F000E0001656F080E0001666FFC0EDE
:101E58000001676F0FEC06F03F8276EC0FF0000987
:101E6800D8B4E3D73FA0FED7D7D7000E896EFD0EB2
:101E7800926E000E8A6E9368000E8B6EFC0E946E46
:101E8800060E00016E6F050E00016F6F010E000156
:101E9800706F030E0001716F9D0E0001726F040ECA
:101EA8002AEC0EF0A492A490A592A590A382A380F8
:101EB800F28EF28C12003F6A00EE01F01F0EEE6AFD
:101EC800E806FDE13C0EF66E1F0EF76E000EF86E8A
:101ED8000900F5CF40F041904192000EF86E0001E4
:101EE8000DEF0FF0010E0001606F0F0140A709D040
:101EF8000F0130A706D00F0120A703D0000E000164
:101F0800606F0001605112000001606F60C06FFFD8
:101F18006E50E00B00016019D8B41200F9D7010E19
:101F2800206E60BE05D00F0150BF02D0000E206E9B
:061F38002050120014000D
:020000040020DA
:08000000FFFFFFFFFFFFFFFF00
:020000040030CA
:0E000000FF021F1EFF8281FF0FC00FE00F40A6
:00000001FF
