:040000001CEF01F000
:0E0008004782FACF69F0FBCF6AF0BCEF24F01C
:100018004780D8CF11F0E8CF12F0E0CF13F0FACF35
:1000280014F0FBCF15F0E9CF16F0EACF17F0E1CFC7
:1000380018F0E2CF19F0D9CF1AF0DACF1BF0F3CFCE
:100048001CF0F4CF1DF0F6CF1EF0F7CF1FF0F8CF5D
:1000580020F0F5CF21F0A4A0A4B201D090D01A0EC0
:10006800016E010E026EE0EC0FF0070E01011A1985
:1000780001011B1101011C1101011D11D8A42CD073
:1000880001012805D8B428D0000E0001E26F000E47
:10009800E16F1FC136F0376A36500D6E01011E51EF
:1000A800366E0DC037F021C138F0396A38500D6E00
:1000B80001012051386E0DC039F0365038240D6ECC
:1000C800375039200E6ED8900E300F6E0D3000016B
:1000D800E16F0FC0E2F045860A0E01011A1901010D
:1000E8001B1101011C1101011D11D8A40BD0010124
:1000F8001E05D8A403D04580818C04D045908198F2
:10010800819A819C0C0E01011A1901011B11010130
:100118001C1101011D11D8B4458C060E01011A19D4
:1001280001011B1101011C1101011D11D8A425D0C9
:10013800000E236E070E236401D014D02350010D46
:100148001E0EF324D96E010EF420DA6E2350010D31
:10015800080EF324E16E010EF420E26EDFCFE7FF14
:10016800232AE8D70D0E01011A1901011B110101FB
:100178001C1101011D11D8B44598A490A492F2A4B1
:1001880033D0F298340ED76EE00ED66E45A40CD05C
:100198004250020D240EF324D96E000EF420DA6EBC
:1001A800880EDE6E130EDD6E422A080E4218D8A4A1
:1001B80002D0000E426E000E226E4250010D000E5B
:1001C800F324D96E010EF420DA6EDF50226E22C0BD
:1001D80080FF93908A80140EE82EFED745848A907B
:1001E8009380F292F288F29421C0F5FF20C0F8FFC4
:1001F8001FC0F7FF1EC0F6FF1DC0F4FF1CC0F3FFB1
:100208001BC0DAFF1AC0D9FF19C0E2FF18C0E1FF0E
:1002180017C0EAFF16C0E9FF15C0FBFF14C0FAFFBC
:1002280013C0E0FF12C0E8FF11C0D8FF47901000CC
:04023800FEEF25F0C0
:100D000000063C04427D9F6A425C900142604DBBFC
:100D10004051EC473EDE8D1FBB063C0442C0598B60
:100D20004274044442F99B4F410000803F0000019F
:100D3000806F000180510001D8A458D000017B29A8
:100D4000D8A454D00F01019777C07CF078C07DF013
:100D500079C07EF07AC07FF0040E06D00001D890F2
:100D60007F337E337D337C33E82EF8D77CC081F02F
:100D70007DC082F07EC083F07FC084F0000181518D
:100D80000001816F826B836B846B81C000FF070E53
:100D9000000177150001816F000E00017815000138
:100DA000826F000E000179150001836F000E0001B3
:100DB0007A150001846F81C07CF082C07DF083C011
:100DC0007EF084C07FF0050ED89000017C377D371F
:100DD0007E377F37E82EF8D77CC081F07DC082F067
:100DE0007EC083F07FC084F081C001FF00018005D8
:100DF000D8A458D000017B29D8A454D00F0105975E
:100E000077C07CF078C07DF079C07EF07AC07FF04A
:100E1000040E06D00001D8907F337E337D337C33BF
:100E2000E82EF8D77CC081F07DC082F07EC083F0D0
:100E30007FC084F0000181510001816F826B836B60
:100E4000846B81C004FF070E000177150001816FDC
:100E5000000E000178150001826F000E0001791567
:100E60000001836F000E00017A150001846F81C0BC
:100E70007CF082C07DF083C07EF084C07FF0050EE0
:100E8000D89000017C377D377E377F37E82EF8D742
:100E90007CC081F07DC082F07EC083F07FC084F092
:100EA00081C005FF020E00018019D8A458D00001AE
:100EB0007B29D8A454D00F01099777C07CF078C063
:100EC0007DF079C07EF07AC07FF0040E06D000017C
:100ED000D8907F337E337D337C33E82EF8D77CC0C7
:100EE00081F07DC082F07EC083F07FC084F000017D
:100EF00081510001816F826B836B846B81C008FF1D
:100F0000070E000177150001816F000E00017815B2
:100F10000001826F000E000179150001836F000E41
:100F200000017A150001846F81C07CF082C07DF0E1
:100F300083C07EF084C07FF0050ED89000017C371E
:100F40007D377E377F37E82EF8D77CC081F07DC0B3
:100F500082F07EC083F07FC084F081C009FF030E61
:100F600000018019D8A458D000017B29D8A454D0FE
:100F70000F010D9777C07CF078C07DF079C07EF0CE
:100F80007AC07FF0040E06D00001D8907F337E3304
:100F90007D337C33E82EF8D77CC081F07DC082F0B1
:100FA0007EC083F07FC084F0000181510001816F19
:100FB000826B836B846B81C00CFF070E0001771579
:100FC0000001816F000E000178150001826F000E94
:100FD000000179150001836F000E00017A150001F0
:100FE000846F81C07CF082C07DF083C07EF084C0BD
:100FF0007FF0050ED89000017C377D377E377F3734
:10100000E82EF8D77CC081F07DC082F07EC083F0EE
:101010007FC084F081C00DFF040E00018019D8A4A8
:1010200058D000017B29D8A454D00F01119777C064
:101030007CF078C07DF079C07EF07AC07FF0040E3D
:1010400006D00001D8907F337E337D337C33E82E89
:10105000F8D77CC081F07DC082F07EC083F07FC075
:1010600084F0000181510001816F826B836B846B7E
:1010700081C010FF070E000177150001816F000E7F
:10108000000178150001826F000E00017915000142
:10109000836F000E00017A150001846F81C07CF01F
:1010A00082C07DF083C07EF084C07FF0050ED890B2
:1010B00000017C377D377E377F37E82EF8D77CC03C
:1010C00081F07DC082F07EC083F07FC084F081C05B
:1010D00011FF050E00018019D8A458D000017B290A
:1010E000D8A454D00F01159777C07CF078C07DF05C
:1010F00079C07EF07AC07FF0040E06D00001D8904F
:101100007F337E337D337C33E82EF8D77CC081F08B
:101110007DC082F07EC083F07FC084F000018151E9
:101120000001816F826B836B846B81C014FF070E9B
:10113000000177150001816F000E00017815000194
:10114000826F000E000179150001836F000E00010F
:101150007A150001846F81C07CF082C07DF083C06D
:101160007EF084C07FF0050ED89000017C377D377B
:101170007E377F37E82EF8D77CC081F07DC082F0C3
:101180007EC083F07FC084F081C015FF00018051D4
:101190000001D8A489D0F70E00017B19D8A484D00F
:1011A0000F010187000177510001816F826B836B12
:1011B000846B81C003FF000E000177150001816F71
:1011C000FF0E000178150001826F000E00017915F5
:1011D0000001836F000E00017A150001846F81C049
:1011E0007CF082C07DF083C07EF084C07FF07DC043
:1011F0007CF07EC07DF07FC07EF000017F6B7CC004
:1012000081F07DC082F07EC083F07FC084F081C019
:1012100002FF000179A103D00F01018102D00F016B
:101220000191000179A303D00F01018302D00F01C6
:101230000193000179A503D00F01018B02D00F01AA
:10124000019B000179A703D00F01018D02D00F018E
:10125000019D000179A903D00F01018F02D00F0178
:10126000019F77C07CF078C07DF079C07EF07AC0B5
:101270007FF0160E06D00001D8907F337E337D3389
:101280007C33E82EF8D77CC081F07DC082F07EC030
:1012900083F07FC084F0000181510001816F826B77
:1012A000836B846B81C000FF00018005D8A489D0C6
:1012B000F70E00017B19D8A484D00F010587000127
:1012C00077510001816F826B836B846B81C007FF54
:1012D000000E000177150001816FFF0E00017815E7
:1012E0000001826F000E000179150001836F000E6E
:1012F00000017A150001846F81C07CF082C07DF00E
:1013000083C07EF084C07FF07DC07CF07EC07DF025
:101310007FC07EF000017F6B7CC081F07DC082F0D9
:101320007EC083F07FC084F081C006FF000179A1F8
:1013300003D00F01058102D00F010591000179A3AF
:1013400003D00F01058302D00F010593000179A599
:1013500003D00F01058B02D00F01059B000179A777
:1013600003D00F01058D02D00F01059D000179A961
:1013700003D00F01058F02D00F01059F77C07CF0CD
:1013800078C07DF079C07EF07AC07FF0160E06D06E
:101390000001D8907F337E337D337C33E82EF8D73D
:1013A0007CC081F07DC082F07EC083F07FC084F07D
:1013B000000181510001816F826B836B846B81C05E
:1013C00004FF020E00018019D8A489D0F70E000195
:1013D0007B19D8A484D00F0109870001775100013F
:1013E000816F826B836B846B81C00BFF000E0001E9
:1013F00077150001816FFF0E000178150001826FE3
:10140000000E000179150001836F000E00017A15AE
:101410000001846F81C07CF082C07DF083C07EF0CB
:1014200084C07FF07DC07CF07EC07DF07FC07EF008
:1014300000017F6B7CC081F07DC082F07EC083F0B4
:101440007FC084F081C00AFF000179A103D00F01A1
:10145000098102D00F010991000179A303D00F0186
:10146000098302D00F010993000179A503D00F0170
:10147000098B02D00F01099B000179A703D00F014E
:10148000098D02D00F01099D000179A903D00F0138
:10149000098F02D00F01099F77C07CF078C07DF0E2
:1014A00079C07EF07AC07FF0160E06D00001D89089
:1014B0007F337E337D337C33E82EF8D77CC081F0D8
:1014C0007DC082F07EC083F07FC084F00001815136
:1014D0000001816F826B836B846B81C008FF030EF8
:1014E00000018019D8A489D0F70E00017B19D8A477
:1014F00084D00F010D87000177510001816F826B4D
:10150000836B846B81C00FFF000E00017715000113
:10151000816FFF0E000178150001826F000E00013F
:1015200079150001836F000E00017A150001846FA8
:1015300081C07CF082C07DF083C07EF084C07FF0EB
:101540007DC07CF07EC07DF07FC07EF000017F6BAF
:101550007CC081F07DC082F07EC083F07FC084F0CB
:1015600081C00EFF000179A103D00F010D8102D0CF
:101570000F010D91000179A303D00F010D8302D05B
:101580000F010D93000179A503D00F010D8B02D03F
:101590000F010D9B000179A703D00F010D8D02D023
:1015A0000F010D9D000179A903D00F010D8F02D00D
:1015B0000F010D9F77C07CF078C07DF079C07EF080
:1015C0007AC07FF0160E06D00001D8907F337E33AC
:1015D0007D337C33E82EF8D77CC081F07DC082F06B
:1015E0007EC083F07FC084F0000181510001816FD3
:1015F000826B836B846B81C00CFF040E0001801929
:10160000D8A489D0F70E00017B19D8A484D00F018B
:101610001187000177510001816F826B836B846BAE
:1016200081C013FF000E000177150001816FFF0ECE
:10163000000178150001826F000E0001791500018C
:10164000836F000E00017A150001846F81C07CF069
:1016500082C07DF083C07EF084C07FF07DC07CF0CE
:101660007EC07DF07FC07EF000017F6B7CC081F08A
:101670007DC082F07EC083F07FC084F081C012FF05
:10168000000179A103D00F01118102D00F01119146
:10169000000179A303D00F01118302D00F01119330
:1016A000000179A503D00F01118B02D00F01119B0E
:1016B000000179A703D00F01118D02D00F01119DF8
:1016C000000179A903D00F01118F02D00F01119FE2
:1016D00077C07CF078C07DF079C07EF07AC07FF072
:1016E000160E06D00001D8907F337E337D337C33D5
:1016F000E82EF8D77CC081F07DC082F07EC083F0F8
:101700007FC084F0000181510001816F826B836B87
:10171000846B81C010FF050E00018019D8A412004F
:10172000F70E00017B19D8A412000F0115870001E4
:1017300077510001816F826B836B846B81C017FFCF
:10174000000E000177150001816FFF0E0001781572
:101750000001826F000E000179150001836F000EF9
:1017600000017A150001846F81C07CF082C07DF099
:1017700083C07EF084C07FF07DC07CF07EC07DF0B1
:101780007FC07EF000017F6B7CC081F07DC082F065
:101790007EC083F07FC084F081C016FF000179A174
:1017A00003D00F01158102D00F011591000179A31B
:1017B00003D00F01158302D00F011593000179A505
:1017C00003D00F01158B02D00F01159B000179A7E3
:1017D00003D00F01158D02D00F01159D000179A9CD
:1017E00003D00F01158F02D00F01159F77C07CF039
:1017F00078C07DF079C07EF07AC07FF0160E06D0FA
:101800000001D8907F337E337D337C33E82EF8D7C8
:101810007CC081F07DC082F07EC083F07FC084F008
:10182000000181510001816F826B836B846B81C0E9
:1018300014FF12000F0140B73FD17DC045FF0001EA
:101840007EAD03D00F01458D02D00F01459D0001F3
:101850007EA779D0000177510001836F846B856B7F
:10186000866B83C044FF000E000177150001836F73
:10187000FF0E000178150001846F000E000179153C
:101880000001856F000E00017A150001866F83C08C
:101890007FF084C080F085C081F086C082F080C077
:1018A0007FF081C080F082C081F00001826B7FC038
:1018B00083F080C084F081C085F082C086F083C050
:1018C00043FF000E0F01426F0F014287000179A113
:1018D00002D00F014281000179A302D00F0142839F
:1018E000000179A502D00F01428B000179A702D037
:1018F0000F01428D000179A902D00F01428F77C0FC
:101900007FF078C080F079C081F07AC082F0160E46
:1019100006D00001D8908233813380337F33E82EA4
:10192000F8D77FC083F080C084F081C085F082C08A
:1019300086F0000183510001836F846B856B866B99
:1019400083C041FF59D00F01429777C07FF078C024
:1019500080F079C081F07AC082F0040E06D00001D8
:10196000D8908233813380337F33E82EF8D77FC01D
:1019700083F080C084F081C085F082C086F00001D1
:1019800083510001836F846B856B866B83C041FF3D
:10199000070E000177150001836F000E0001781516
:1019A0000001846F000E000179150001856F000EA3
:1019B00000017A150001866F83C07FF084C080F03B
:1019C00085C081F086C082F0050ED89000017F3777
:1019D000803781378237E82EF8D77FC083F080C008
:1019E00084F081C085F082C086F00F0142511F0B48
:1019F0000F01426F83C042FF00017EA103D00F019F
:101A0000408102D00F01409100017EA303D00F015D
:101A1000408302D00F0140937BC0D9FF7CC0DAFF26
:101A2000DF500F01466F000120EE01F07B51D926F7
:101A30007C51DA22DF500F01476F000120EE02F0E7
:101A40007B51D9267C51DA22DF500F01486F00010B
:101A500020EE03F07B51D9267C51DA22DF500F01B2
:101A6000496F000120EE04F07B51D9267C51DA2227
:101A7000DF500F014A6F000120EE05F07B51D9269F
:101A80007C51DA22DF500F014B6F000120EE06F08F
:101A90007B51D9267C51DA22DF500F014C6F0001B7
:101AA00020EE07F07B51D9267C51DA22DF500F015E
:101AB0004D6F0F01408712000F0130B73FD17DC03D
:101AC00035FF00017EAD03D00F01358D02D00F012F
:101AD000359D00017EA779D0000177510001836F09
:101AE000846B856B866B83C034FF000E0001771515
:101AF0000001836FFF0E000178150001846F000E56
:101B0000000179150001856F000E00017A150001B2
:101B1000866F83C07FF084C080F085C081F086C06E
:101B200082F080C07FF081C080F082C081F000012F
:101B3000826B7FC083F080C084F081C085F082C05A
:101B400086F083C033FF000E0F01326F0F01328722
:101B5000000179A102D00F013281000179A302D0E6
:101B60000F013283000179A502D00F01328B0001F1
:101B700079A702D00F01328D000179A902D00F019F
:101B8000328F77C07FF078C080F079C081F07AC062
:101B900082F0160E06D00001D89082338133803354
:101BA0007F33E82EF8D77FC083F080C084F081C0F7
:101BB00085F082C086F0000183510001836F846B41
:101BC000856B866B83C031FF59D00F01329777C088
:101BD0007FF078C080F079C081F07AC082F0040E86
:101BE00006D00001D8908233813380337F33E82ED2
:101BF000F8D77FC083F080C084F081C085F082C0B8
:101C000086F0000183510001836F846B856B866BC6
:101C100083C031FF070E000177150001836F000EAE
:101C2000000178150001846F000E00017915000194
:101C3000856F000E00017A150001866F83C07FF06A
:101C400084C080F085C081F086C082F0050ED890F7
:101C500000017F37803781378237E82EF8D77FC081
:101C600083F080C084F081C085F082C086F00F01CF
:101C700032511F0B0F01326F83C032FF00017EA172
:101C800003D00F01308102D00F01309100017EA3FB
:101C900003D00F01308302D00F0130937BC0D9FFF6
:101CA0007CC0DAFFDF500F01366F000120EE01F03B
:101CB0007B51D9267C51DA22DF500F01376F0001AA
:101CC00020EE02F07B51D9267C51DA22DF500F0141
:101CD000386F000120EE03F07B51D9267C51DA22C7
:101CE000DF500F01396F000120EE04F07B51D9263F
:101CF0007C51DA22DF500F013A6F000120EE05F02F
:101D00007B51D9267C51DA22DF500F013B6F000155
:101D100020EE06F07B51D9267C51DA22DF500F01EC
:101D20003C6F000120EE07F07B51D9267C51DA226E
:101D3000DF500F013D6F0F01308712000F0120B7F8
:101D400012007DC025FF00017EAD03D00F01258D5F
:101D500002D00F01259D00017EA779D000017751A7
:101D60000001836F846B856B866B83C024FF000E3C
:101D7000000177150001836FFF0E00017815000147
:101D8000846F000E000179150001856F000E0001BF
:101D90007A150001866F83C07FF084C080F085C013
:101DA00081F086C082F080C07FF081C080F082C068
:101DB00081F00001826B7FC083F080C084F081C01D
:101DC00085F082C086F083C023FF000E0F01226FD2
:101DD0000F012287000179A102D00F0122810001A9
:101DE00079A302D00F012283000179A502D00F014F
:101DF000228B000179A702D00F01228D000179A961
:101E000002D00F01228F77C07FF078C080F079C0B8
:101E100081F07AC082F0160E06D00001D89082338D
:101E2000813380337F33E82EF8D77FC083F080C0C2
:101E300084F081C085F082C086F0000183510001EA
:101E4000836F846B856B866B83C021FF59D00F0134
:101E5000229777C07FF078C080F079C081F07AC097
:101E600082F0040E06D00001D89082338133803393
:101E70007F33E82EF8D77FC083F080C084F081C024
:101E800085F082C086F0000183510001836F846B6E
:101E9000856B866B83C021FF070E0001771500015B
:101EA000836F000E000178150001846F000E0001A1
:101EB00079150001856F000E00017A150001866F0B
:101EC00083C07FF084C080F085C081F086C082F03E
:101ED000050ED89000017F37803781378237E82E92
:101EE000F8D77FC083F080C084F081C085F082C0C5
:101EF00086F00F0122511F0B0F01226F83C022FFBA
:101F000000017EA103D00F01208102D00F0120919A
:101F100000017EA303D00F01208302D00F01209384
:101F20007BC0D9FF7CC0DAFFDF500F01266F0001B4
:101F300020EE01F07B51D9267C51DA22DF500F01CF
:101F4000276F000120EE02F07B51D9267C51DA2266
:101F5000DF500F01286F000120EE03F07B51D926DE
:101F60007C51DA22DF500F01296F000120EE04F0CE
:101F70007B51D9267C51DA22DF500F012A6F0001F4
:101F800020EE05F07B51D9267C51DA22DF500F017B
:101F90002B6F000120EE06F07B51D9267C51DA220E
:101FA000DF500F012C6F000120EE07F07B51D92686
:101FB0007C51DA22DF500F012D6F0F0120871200B4
:101FC000000E0B6E74BE0B8074BC0B820F0150AF01
:101FD00043D101C0D9FF02C0DAFFDE6ADE6ADE6AE1
:101FE000DD6A20EE04F00150D9260250DA2256CFE5
:101FF000DFFF20EE05F00150D9260250DA2257CF3C
:10200000DFFF20EE06F00150D9260250DA2258CF29
:10201000DFFF20EE07F00150D9260250DA2259CF17
:10202000DFFF20EE08F00150D9260250DA225ACF05
:10203000DFFF20EE09F00150D9260250DA225BCFF3
:10204000DFFF20EE0AF00150D9260250DA225CCFE1
:10205000DFFF20EE0BF00150D9260250DA225DCFCF
:10206000DFFF20EE0EF00150D9260250DA220F01D8
:1020700055AD02D0010E01D0000EDF6E20EE0DF046
:102080000150D9260250DA220F0155510F0BDF6E95
:1020900020EE0CF00150D9260250DA220F0152A78F
:1020A00002D0010E01D0000EDF6E0F0152B744D0F6
:1020B00051CF03F0046A056A066A030ED89003360E
:1020C000043605360636E82EF9D701C0D9FF02C01E
:1020D000DAFF03C0DEFF04C0DEFF05C0DEFF06C07E
:1020E000DEFF0F015239E842070B070B0C6E01C0EF
:1020F000D9FF02C0DAFFDECF03F0DECF04F0DECF7F
:1021000005F0DECF06F00C500324076E000E04200D
:10211000086E000E0520096E000E06200A6E01C032
:10212000D9FF02C0DAFF07C0DEFF08C0DEFF09C02A
:10213000DEFF0AC0DEFF8DD054CF03F0046A056ACB
:10214000066A01C0D9FF02C0DAFF03C0DEFF04C087
:10215000DEFF05C0DEFF06C0DEFF53CF03F0046ADA
:10216000056A066A05C006F004C005F003C004F065
:10217000036A01C0D9FF02C0DAFF0350DE26045013
:10218000DE220550DE220650DE220F0152A10CD0C5
:1021900001C0D9FF02C0DAFF000EDE12000EDE120F
:1021A000010EDE12000EDE120F0152A30CD001C090
:1021B000D9FF02C0DAFF000EDE12000EDE12020EA0
:1021C000DE12000EDE120F0152AB0CD001C0D9FF9F
:1021D00002C0DAFF000EDE12000EDE12040EDE1266
:1021E000000EDE120F0152AD0CD001C0D9FF02C0AB
:1021F000DAFF000EDE12000EDE12080EDE12000EF6
:10220000DE120F0152AF0CD001C0D9FF02C0DAFFBD
:10221000000EDE12000EDE12100EDE12000EDE12B6
:1022200051CF03F0046A056A066A150ED89003368A
:10223000043605360636E82EF9D701C0D9FF02C0AC
:10224000DAFF0350DE120450DE120550DE12065093
:10225000DE120F01509F120060AE120001C0D9FFC4
:1022600002C0DAFFDE6ADE6ADE6ADD6A20EE04F0B2
:102270000150D9260250DA2266CFDFFF20EE05F0AA
:102280000150D9260250DA2267CFDFFF20EE06F098
:102290000150D9260250DA2268CFDFFF20EE07F086
:1022A0000150D9260250DA2269CFDFFF20EE08F074
:1022B0000150D9260250DA226ACFDFFF20EE09F062
:1022C0000150D9260250DA226BCFDFFF20EE0AF050
:1022D0000150D9260250DA226CCFDFFF20EE0BF03E
:1022E0000150D9260250DA226DCFDFFF20EE0EF02A
:1022F0000150D9260250DA2265AC02D0010E01D07D
:10230000000EDF6E20EE0DF00150D9260250DA22C9
:1023100065500F0BDF6E20EE0CF00150D9260250F5
:10232000DA2262A602D0010E01D0000EDF6E62B684
:1023300043D061CF03F0046A056A066A030ED890A1
:102340000336043605360636E82EF9D701C0D9FF24
:1023500002C0DAFF03C0DEFF04C0DEFF05C0DEFFFF
:1023600006C0DEFF6238E842070B070B0C6E01C0A7
:10237000D9FF02C0DAFFDECF03F0DECF04F0DECFFC
:1023800005F0DECF06F00C500324076E000E04208B
:10239000086E000E0520096E000E06200A6E01C0B0
:1023A000D9FF02C0DAFF07C0DEFF08C0DEFF09C0A8
:1023B000DEFF0AC0DEFF88D064CF03F0046A056A3E
:1023C000066A01C0D9FF02C0DAFF03C0DEFF04C005
:1023D000DEFF05C0DEFF06C0DEFF63CF03F0046A48
:1023E000056A066A05C006F004C005F003C004F0E3
:1023F000036A01C0D9FF02C0DAFF0350DE26045091
:10240000DE220550DE220650DE2262A00CD001C082
:10241000D9FF02C0DAFF000EDE12000EDE12010E3E
:10242000DE12000EDE1262A20CD001C0D9FF02C083
:10243000DAFF000EDE12000EDE12020EDE12000EB9
:10244000DE1262AA0CD001C0D9FF02C0DAFF000E72
:10245000DE12000EDE12040EDE12000EDE1262AC80
:102460000CD001C0D9FF02C0DAFF000EDE12000E50
:10247000DE12080EDE12000EDE1262AE0CD001C0BB
:10248000D9FF02C0DAFF000EDE12000EDE12100EBF
:10249000DE12000EDE1261CF03F0046A056A066ADE
:1024A000150ED8900336043605360636E82EF9D7D1
:1024B00001C0D9FF02C0DAFF0350DE120450DE1261
:1024C0000550DE120650DE12609E12000001B0516F
:1024D000800B0001BD6F0001B051B0250001BF6F3E
:1024E0000001AFAF02D00001BF810001BF51000168
:1024F000D8B412D00001BF29D8A409D0000E000121
:10250000AD6F000EAE6F000EAF6F000EB06F00012A
:10251000AF8F000E000108D0000E0001AD6F000E5D
:10252000AE6F000EAF6F000EB06F0001B451800BA4
:102530000001BE6F0001BD510001BE19D8B402D028
:102540000001BD8D0001B451B4250001BE6F000132
:10255000B3AF02D00001BE810001BE510001D8B46A
:1025600012D00001BE29D8A409D0000E0001B16F1D
:10257000000EB26F000EB36F000EB46F0001B38F88
:10258000000E000108D0000E0001B16F000EB26F06
:10259000000EB36F000EB46F0001BF510001BE5DAD
:1025A000D8B024D00001BDAD03D0800E0001BD1B0A
:1025B000BFC0C0F0BEC0BFF0C0C0BEF0ADC0C0F074
:1025C000B1C0ADF0C0C0B1F0AEC0C0F0B2C0AEF0AE
:1025D000C0C0B2F0AFC0C0F0B3C0AFF0C0C0B3F085
:1025E000B0C0C0F0B4C0B0F0C0C0B4F0000E000184
:1025F000C06F0001BF510001B56FB66B0001B51F80
:10260000B61FB54BB62B0001BE510001B76FB86BBA
:102610000001B5510001B7270001B6510001B823F0
:102620000001B8BF3DD00001B85105E11A0E00010C
:10263000B75DD8A035D00001AD510001AE11000149
:10264000AF110001B011D8B402D0010E01D0000EBC
:102650000001C06F000E0001AD6F000EAE6F000EE6
:10266000AF6F000EB06FBEC0BFF020D00001C0A1A0
:1026700007D00001D890C03101090001C06F03D01C
:102680000001D890C0330001ADA102D00001C08F7D
:102690000001B035B033AF33AE33AD330001BF2BE3
:1026A0000001BE510001BF5DD8A0E0D70001BDBD53
:1026B0003FD00001BF510001D8A40AD0000E000194
:1026C000AD6F000EAE6F000EAF6F000EB06F120058
:1026D0000001B1510001AD270001B2510001AE234C
:1026E0000001B3510001AF230001B4510001B02338
:1026F0000001B0A1CCD00001C0A109D00001D89048
:10270000C0330001C05101090001C06F03D00001B6
:10271000D890C0330001ADA102D00001C08F0001EC
:10272000B035B033AF33AE33AD330001BF2BAFD0D4
:102730000001B1510001AD5D0001B2510001AE597F
:102740000001B3510001AF590001B051800A0001EE
:10275000B56F0001B451800A0001B559D8B050D00E
:10276000ADC0B5F0AEC0B6F0AFC0B7F0B0C0B8F015
:102770000001B51FB61FB71FB81FB52B000EB6233B
:10278000B723B8230001B1510001B5250001B96F8D
:102790000001B2510001B6210001BA6F0001B3512E
:1027A0000001B7210001BB6F0001B4510001B82145
:1027B0000001BC6FFF0E0001B9250001AD6FFF0ED7
:1027C0000001BA210001AE6FFF0E0001BB21000124
:1027D000AF6FFF0E0001BC210001B06F800E000141
:1027E000BD1B0001C06D0001C0510001D8A418D06C
:1027F000010E0001AD27000EAE23AF23B02310D091
:102800000001B1510001AD5F0001B2510001AE5BAA
:102810000001B3510001AF5B0001B4510001B05B96
:102820000001AD510001AE110001AF110001B01166
:10283000D8A42AD00001C0510001D8A425D0000E90
:102840000001AD6F000EAE6F000EAF6F000EB06FE7
:1028500012000001D890AD37AE37AF37B037000166
:10286000C0AF02D00001AD810001C0A103D0D8806B
:10287000000102D00001D890C0370001BF51000113
:10288000D8B402D00001BF070001AFAFE2D7000EFD
:102890000001BE6F0001C0AF0DD0C0C0B5F07F0E0B
:1028A0000001B517D8A403D00001ADA103D0010EDB
:1028B0000001BE6F0001BE510001D8B426D0010E48
:1028C0000001AD27000EAE23AF23B0230001B0A15D
:1028D0001CD0ADC0B5F0AEC0B6F0AFC0B7F0B0C060
:1028E000B8F00001B835B833B733B633B533B5C037
:1028F000ADF0B6C0AEF0B7C0AFF0B8C0B0F00001F8
:10290000BF29D8B402D00001BF2B0001BF29D8B421
:1029100005D00001BF510001D8A411D0000E000164
:10292000AD6F000EAE6F000EAF6F000EB06F000106
:10293000BF510001D8A403D0000E0001BD6F0001FB
:10294000BFA103D00001AF8F02D00001AF9F0001F3
:10295000D890BF310001B06F0001BDAF02D00001BF
:10296000B08FADC0ADF0AEC0AEF0AFC0AFF0B0C094
:10297000B0F0120000019351800B00019C6F000128
:10298000935193250001A26F000192AF02D0000184
:10299000A2810001A2510001D8B410D00001A229E7
:1029A000D8A409D0000E0001906F000E916F000EA8
:1029B000926F000E936F0001928F09D0000E0001FC
:1029C000906F000E916F000E926F000E936F0001DA
:1029D0009751800B00019C1B000197519725000126
:1029E0009D6F000196AF02D000019D8100019D51B5
:1029F0000001D8B410D000019D29D8A409D0000E40
:102A00000001946F000E956F000E966F000E976F89
:102A10000001968F09D0000E0001946F000E956F93
:102A2000000E966F000E976F00019D510001D8B403
:102A300005D00001A2510001D8A40AD0000E000167
:102A4000906F000E916F000E926F000E936F120048
:102A50000001965100019003F3CFA7F0F4CFA8F046
:102A60000001A75100019E6F9F6BA06BA16B00013D
:102A7000A8510001A36FA46BA56BA66B0001955133
:102A800000019103F3CFA7F0F4CFA8F00001A75104
:102A900000019E27000E9F23A023A1230001A8511F
:102AA0000001A327000EA423A523A623000194510F
:102AB00000019203F3CFA7F0F4CFA8F00001A751D3
:102AC00000019E27000E9F23A023A1230001A851EF
:102AD0000001A327000EA423A523A623A0C0A1F0D4
:102AE0009FC0A0F09EC09FF000019E6B000194511A
:102AF00000019103F3CFA7F0F4CFA8F00001A75194
:102B000000019E270001A85100019F23000E000133
:102B1000A023000E0001A1230001955100019003A4
:102B2000F3CFA7F0F4CFA8F00001A75100019E2732
:102B30000001A85100019F23000E0001A023000EF8
:102B40000001A123A0C0A1F09FC0A0F09EC09FF0F3
:102B500000019E6B0001945100019003F3CFA7F098
:102B6000F4CFA8F00001A75100019E270001A85151
:102B700000019F23000E0001A023000E0001A123ED
:102B80000001965100019103F3CFA7F0F4CFA8F014
:102B90000001A7510001A3270001A8510001A423AF
:102BA000000E0001A523000E0001A623000195518F
:102BB00000019203F3CFA7F0F4CFA8F00001A751D2
:102BC0000001A3270001A8510001A423000E000169
:102BD000A523000E0001A6230001965100019203D7
:102BE000F3CFA7F0F4CFA8F00001A7510001986F30
:102BF0000001A8510001996F00019A6B00019B6BC5
:102C00009AC09BF099C09AF098C099F00001986B17
:102C1000000198510001A327000199510001A4234C
:102C200000019A510001A52300019B510001A62338
:102C30009EC098F09FC099F0A0C09AF0A1C09BF0F0
:102C4000190E06D00001D8909B339A3399339833EC
:102C5000E82EF8D7000198510001A32700019951EF
:102C60000001A42300019A510001A52300019B51FA
:102C70000001A623A0C0A1F09FC0A0F09EC09FF0BD
:102C800000019E6B00019D51A2C098F00001996B5C
:102C900000019827000E9923820E0001982500015B
:102CA000A76FFF0E000199210001A86F15D0000148
:102CB000D890A337A437A537A6370001A1AF02D01B
:102CC0000001A3810001D8909E379F37A037A1371C
:102CD0000001A707D8A0A8070001A5AFE8D7000EFC
:102CE00000019D6F0001A1AF24D0FF0E00019E15D1
:102CF0000001986FFF0E00019F150001996FFF0EF4
:102D00000001A01500019A6F7F0E0001A1150001BE
:102D10009B6F000198510001991100019A11000167
:102D20009B11D8A403D00001A3A103D0010E000180
:102D30009D6F00019D510001D8B423D0010E000108
:102D4000A327000EA423A523A6230001A6A119D022
:102D5000A3C098F0A4C099F0A5C09AF0A6C09BF0BB
:102D600000019B359B339A339933983398C0A3F075
:102D700099C0A4F09AC0A5F09BC0A6F00001A74B93
:102D8000A82B0001A8BF10D00001A85104E1000148
:102D9000A729D8A009D0000E0001A36F000EA46FD0
:102DA000800EA56F7F0E2BD00001A8BF07D00001B9
:102DB000A85111E10001A705D8B00DD0000E000107
:102DC000A36F000EA46F000EA56F000EA66F000E7D
:102DD00000019C6F15D0A7C0A2F0FF0E0001A31741
:102DE000FF0EA4177F0EA517000EA6170001A2A1C3
:102DF00002D00001A58F0001D890A2310001A66F7A
:102E000000019C510001A613A3C090F0A4C091F052
:102E1000A5C092F0A6C093F012000001C451800B2F
:102E20000101496F0001C451C42501014F6F000128
:102E3000C3AF02D001014F814FC154F10101556B65
:102E4000FF0E0001C11501015A6FFF0E0001C215EE
:102E500001015B6F7F0E0001C31501015C6F000E65
:102E60000001C41501015D6F0101545101015511AB
:102E7000D8B408D001015C8F01015429010155111A
:102E8000D8A409D0000E01015A6F000E5B6F000E2E
:102E90005C6F000E5D6F0101545101015511D8A402
:102EA0000AD0000E0001C16F000EC26F000EC36F8A
:102EB000000EC46F1200010149510101D8B41CD0A9
:102EC000000E0101566F000E576F400E586F000E36
:102ED000596F0101800E5813FF0E5913000E0101A6
:102EE000196F210E186F56C1C1F057C1C2F058C1F9
:102EF000C3F059C1C4F01200010154290101551158
:102F0000D8A412D0000E0101566F000E576F800E2C
:102F1000586F7F0E596F56C1C1F057C1C2F058C1EA
:102F2000C3F059C1C4F012000101810E5427FF0EF5
:102F3000552301015451010B01014F6F010155351A
:102F4000553354337F0E01015427000E5523D8907A
:102F500001015A3501014B6F01015B3501014C6FD5
:102F600001015C3501014D6F01015D3501014E6FBD
:102F7000000E01015A6F000E5B6F000E5C6F000EB9
:102F80005D6F000E0101506F000E516F000E526F09
:102F9000010E536F01014F510101D8B406D0010158
:102FA000D8904B374C374D374E37000E01014A6FE2
:102FB0007ED00101505101015A130101515101010B
:102FC0005B130101525101015C13010153510101D5
:102FD0005D1301015A5101014B5D01015B5101017A
:102FE0004C5901015C5101014D5901015D51010133
:102FF0004E59D8A021D001015A5101014B5F010166
:103000005B5101014C5B01015C5101014D5B010110
:103010005D5101014E5B0101505101015A2701012F
:10302000515101015B230101525101015C23010156
:10303000535101015D231DD050C1C5F051C1C6F0EF
:1030400052C1C7F053C1C8F00001C51FC61FC71F3A
:10305000C81F0001C55101015A170001C6510101E5
:103060005B170001C75101015C170001C851010144
:103070005D1750C1C5F051C1C6F052C1C7F053C170
:10308000C8F00001D890C833C733C633C533C5C0B4
:1030900050F1C6C051F1C7C052F1C8C053F101018F
:1030A000D8904B374C374D374E3701014A2B180E0D
:1030B00001014A657ED75AC1C5F05BC1C6F05CC14B
:1030C000C7F05DC1C8F00001D890C833C733C6331C
:1030D000C533C5C05AF1C6C05BF1C7C05CF1C8C0FA
:1030E0005DF1010E01015A150101506F000E010141
:1030F0005B150101516F000E01015C150101526F5A
:10310000000E01015D150101536F5AC1C5F05BC18D
:10311000C6F05CC1C7F05DC1C8F00001D890C833EB
:10312000C733C633C533C5C05AF1C6C05BF1C7C08B
:103130005CF1C8C05DF10101505101015A27010144
:10314000515101015B230101525101015C23010135
:10315000535101015D2301015DA119D05AC1C5F090
:103160005BC1C6F05CC1C7F05DC1C8F00001D8907A
:10317000C833C733C633C533C5C05AF1C6C05BF1C7
:10318000C7C05CF1C8C05DF10101544B552BFF0E67
:1031900001015A150101566FFF0E01015B15010176
:1031A000576F7F0E01015C150101586F000E010180
:1031B0005D150101596F54C14FF101014FA102D0BA
:1031C0000101588F0101D8904F310101596F010160
:1031D000599F56C1C1F057C1C2F058C1C3F059C17F
:1031E000C4F0120000017A51800B0001836F0001CE
:1031F0007A517A2500018E6F000179AF02D000016B
:103200008E8100018E510001D8B412D000018E29A8
:10321000D8A409D0000E0001776F000E786F000E61
:10322000796F000E7A6F0001798F000E000108D0CF
:10323000000E0001776F000E786F000E796F000EA0
:103240007A6F00017E51800B0001831B00017E51CB
:103250007E2500018F6F00017DAF02D000018F81BC
:1032600000018F510001D8B412D000018F29D8A4D9
:1032700009D0000E00017B6F000E7C6F000E7D6F89
:10328000000E7E6F00017D8F000E000108D0000E41
:1032900000017B6F000E7C6F000E7D6F000E7E6F55
:1032A00000017B5100017C1100017D1100017E11A4
:1032B000D8A417D0000E0001776F000E786F000EB3
:1032C000796F000E7A6F0001800E79137F0E7A13EA
:1032D00077C077F078C078F079C079F07AC07AF06A
:1032E000120000018E510001D8A412D0000E00017E
:1032F000776F000E786F000E796F000E7A6F77C0CF
:1033000077F078C078F079C079F07AC07AF012005E
:1033100000018F5100017F6F806B00017F1F801FB4
:103320007F4B802B00018E510001816F826B000169
:103330007F510001812700018051000182237F0E0F
:10334000000181250001886F000E0001822100012B
:10335000896F77C084F078C085F079C086F07AC034
:1033600087F0000E0001776F000E786F000E796F06
:10337000000E7A6F000E00018A6F000E8B6F000E38
:103380008C6F000E8D6F000E00018F6F42D0000118
:103390008F510001D8B417D00001D89084378537F9
:1033A000863787370001D8907737783779377A377B
:1033B00000018DAF02D0000177810001D8908A37DB
:1033C0008B378C378D3700017B510001845D000104
:1033D0007C510001855900017D5100018659000191
:1033E0007E5100018759D8A012D000018D8D0001B7
:1033F0007B510001845F00017C510001855B00016D
:103400007D510001865B00017E510001875B000158
:103410008F2B190E00018F65BAD70001845100016E
:1034200085110001861100018711D8B418D0000160
:103430008A8115D00001D8907737783779377A3775
:1034400000018DAF02D0000177810001D8908A374A
:103450008B378C378D3700018807D8A0890700018A
:1034600079AFE8D7000E00018F6F00018DAF24D037
:10347000FF0E00018A1500017F6FFF0E00018B1502
:103480000001806FFF0E00018C150001816F7F0E1F
:1034900000018D150001826F00017F510001801134
:1034A0000001811100018211D8A403D0000177A18D
:1034B00003D0010E00018F6F00018F510001D8B4BD
:1034C00023D0010E00017727000E782379237A2379
:1034D00000017AA119D077C07FF078C080F079C060
:1034E00081F07AC082F000018235823381338033EB
:1034F0007F337FC077F080C078F081C079F082C0E0
:103500007AF00001884B892B000189BF14D000019B
:10351000895104E100018829D8A00DD0000E0001D6
:10352000896F8869000E0001776F000E786F000EBA
:10353000796F000E7A6F000189BF07D000018951B1
:1035400015E100018805D8B011D0000E0001896F87
:10355000000E886F000E0001776F000E786F000E6E
:10356000796F000E7A6F000E0001836F88C08EF0B5
:1035700000018EA103D00001798F02D00001799F54
:103580000001D8908E3100017A6F00018351000153
:103590007A1377C077F078C078F079C079F07AC084
:1035A0007AF012000001806F00018005D8A456D087
:1035B00000017B29D8A452D077C07CF078C07DF080
:1035C00079C07EF07AC07FF0040E06D00001D8905A
:1035D0007F337E337D337C33E82EF8D77CC081F097
:1035E0007DC082F07EC083F07FC084F000018151F5
:1035F0000001816F826B836B846B81C018FF070EA3
:10360000000177150001816F000E0001781500019F
:10361000826F000E000179150001836F000E00011A
:103620007A150001846F81C07CF082C07DF083C078
:103630007EF084C07FF0050ED89000017C377D3786
:103640007E377F37E82EF8D77CC081F07DC082F0CE
:103650007EC083F07FC084F081C019FF020E00019C
:103660008019D8A456D000017B29D8A452D077C0A5
:103670007CF078C07DF079C07EF07AC07FF0040ED7
:1036800006D00001D8907F337E337D337C33E82E23
:10369000F8D77CC081F07DC082F07EC083F07FC00F
:1036A00084F0000181510001816F826B836B846B18
:1036B00081C01CFF070E000177150001816F000E0D
:1036C000000178150001826F000E000179150001DC
:1036D000836F000E00017A150001846F81C07CF0B9
:1036E00082C07DF083C07EF084C07FF0050ED8904C
:1036F00000017C377D377E377F37E82EF8D77CC0D6
:1037000081F07DC082F07EC083F07FC084F081C0F4
:103710001DFF00018005D8A487D0F70E00017B199A
:10372000D8A482D0000177510001816F826B836B36
:10373000846B81C01BFF000E000177150001816FB3
:10374000FF0E000178150001826F000E000179154F
:103750000001836F000E00017A150001846F81C0A3
:103760007CF082C07DF083C07EF084C07FF07DC09D
:103770007CF07EC07DF07FC07EF000017F6B7CC05E
:1037800081F07DC082F07EC083F07FC084F081C074
:103790001AFF000179A103D00F01198102D00F0196
:1037A0001991000179A303D00F01198302D00F01F1
:1037B0001993000179A503D00F01198B02D00F01D5
:1037C000199B000179A703D00F01198D02D00F01B9
:1037D000199D000179A903D00F01198F02D00F01A3
:1037E000199F77C07CF078C07DF079C07EF07AC0F8
:1037F0007FF0160E06D00001D8907F337E337D33E4
:103800007C33E82EF8D77CC081F07DC082F07EC08A
:1038100083F07FC084F0000181510001816F826BD1
:10382000836B846B81C018FF020E00018019D8A43D
:103830001200F70E00017B19D8A412000001775185
:103840000001816F826B836B846B81C01FFF000E50
:10385000000177150001816FFF0E0001781500014E
:10386000826F000E000179150001836F000E0001C8
:103870007A150001846F81C07CF082C07DF083C026
:103880007EF084C07FF07DC07CF07EC07DF07FC084
:103890007EF000017F6B7CC081F07DC082F07EC035
:1038A00083F07FC084F081C01EFF000179A103D0A6
:1038B0000F011D8102D00F011D91000179A303D0DA
:1038C0000F011D8302D00F011D93000179A503D0C4
:1038D0000F011D8B02D00F011D9B000179A703D0A2
:1038E0000F011D8D02D00F011D9D000179A903D08C
:1038F0000F011D8F02D00F011D9F77C07CF078C093
:103900007DF079C07EF07AC07FF0160E06D00001FF
:10391000D8907F337E337D337C33E82EF8D77CC05C
:1039200081F07DC082F07EC083F07FC084F0000112
:1039300081510001816F826B836B846B81C01CFF9E
:103940001200000E0001B16F000EB26F800EB36F57
:103950003F0EB46F5EC1ADF05FC1AEF060C1AFF0BD
:1039600061C1B0F07CEC26F0ADC0B5F0AEC0B6F0F1
:10397000AFC0B7F0B0C0B8F031EC22F00001D8B061
:103980000FD0000E0101196F210E186F000E0101FA
:103990005E6F000E5F6F000E606F000E616F1200B1
:1039A000000E0101626F000E636F800E646F3F0EA8
:1039B000656F5EC194F05FC195F060C196F061C122
:1039C00097F05EC190F05FC191F060C192F061C16B
:1039D00093F0BAEC14F090C0A9F091C0AAF092C094
:1039E000ABF093C0ACF09BEC26F0A9C0ADF0AAC040
:1039F000AEF0ABC0AFF0ACC0B0F0000E0001B16FE4
:103A0000000EB26F800EB36F3F0EB46F66EC12F013
:103A1000ADC0C1F0AEC0C2F0AFC0C3F0B0C0C4F022
:103A20000DEC17F0C1C06EF1C2C06FF1C3C070F1F0
:103A3000C4C071F15EC1ADF05FC1AEF060C1AFF066
:103A400061C1B0F07CEC26F0ADC0B1F0AEC0B2F018
:103A5000AFC0B3F0B0C0B4F08F0E0001B56FC20EAE
:103A6000B66F350EB76F3F0EB86F31EC22F0000124
:103A7000D8B02DD05EC177F05FC178F060C179F029
:103A800061C17AF06EC17BF06FC17CF070C17DF0D6
:103A900071C17EF0F2EC18F077C072F178C073F16A
:103AA00079C074F17AC075F172C149F173C14AF1FC
:103AB00074C14BF175C14CF12AEC1EF049C15EF1A5
:103AC0004AC15FF14BC160F14CC161F112000101CB
:103AD00061AF6ED05EC17BF05FC17CF060C17DF0F4
:103AE00061C17EF06EC1A9F06FC1AAF070C1ABF0E8
:103AF00071C1ACF09BEC26F0A9C077F0AAC078F0B9
:103B0000ABC079F0ACC07AF0F2EC18F077C072F18B
:103B100078C073F179C074F17AC075F172C149F15E
:103B200073C14AF174C14BF175C14CF12AEC1EF01E
:103B300049C16AF14AC16BF14BC16CF14CC16DF1E5
:103B4000DB0E0001B16F0F0EB26FC90EB36F3F0EE7
:103B5000B46F6AC1A9F06BC1AAF06CC1ABF06DC1C2
:103B6000ACF09BEC26F0A9C0ADF0AAC0AEF0ABC0A3
:103B7000AFF0ACC0B0F066EC12F0ADC066F1AEC014
:103B800067F1AFC068F1B0C069F166C1A9F067C163
:103B9000AAF068C1ABF069C1ACF09BEC26F0A9C0FB
:103BA0005EF1AAC05FF1ABC060F1ACC061F1120080
:103BB0005EC17BF05FC17CF060C17DF061C17EF0D1
:103BC0006EC177F06FC178F070C179F071C17AF091
:103BD000F2EC18F077C072F178C073F179C074F12B
:103BE0007AC075F172C149F173C14AF174C14BF1E8
:103BF00075C14CF12AEC1EF049C16AF14AC16BF162
:103C00004BC16CF14CC16DF16AC1A9F06BC1AAF056
:103C10006CC1ABF06DC1ACF09BEC26F0A9C0ADF06F
:103C2000AAC0AEF0ABC0AFF0ACC0B0F0DB0E00018C
:103C3000B16F0F0EB26FC90EB36F3F0EB46F66EC6B
:103C400012F0ADC05EF1AEC05FF1AFC060F1B0C0C8
:103C500061F1120049C1ADF04AC1AEF04BC1AFF005
:103C60004CC1B0F07CEC26F0ADC05AF1AEC05BF1B7
:103C7000AFC05CF1B0C05DF101015A5101015B11AF
:103C800001015C1101015D11D8A40AD0000E0101EF
:103C9000496F000E4A6F000E4B6F000E4C6F120002
:103CA000000E0001B16F000EB26F800EB36F3F0EB9
:103CB000B46F5AC1B5F05BC1B6F05CC1B7F05DC17D
:103CC000B8F031EC22F00001D8B002D0010E01D0E2
:103CD000000E0101556F01015551D8B41BD0000EE3
:103CE0000001776F000E786F800E796F3F0E7A6F4C
:103CF0005AC17BF05BC17CF05CC17DF05DC17EF0A0
:103D0000F2EC18F077C05AF178C05BF179C05CF141
:103D10007AC05DF15AC190F05BC191F05CC192F044
:103D20005DC193F05AC194F05BC195F05CC196F00F
:103D30005DC197F0BAEC14F090C056F191C057F104
:103D400092C058F193C059F156C1C1F057C1C2F0A9
:103D500058C1C3F059C1C4F0190E0001C56F0D0E52
:103D60000001C66F000E0001C86F040EC76FAAECF9
:103D700023F0C1C04DF1C2C04EF1C3C04FF1C4C069
:103D800050F156C1C1F057C1C2F058C1C3F059C17A
:103D9000C4F0010E0001C56F0D0E0001C66F000ECC
:103DA0000001C86F050EC76FAAEC23F0C1C051F126
:103DB000C2C052F1C3C053F1C4C054F15AC190F013
:103DC0005BC191F05CC192F05DC193F04DC17BF09D
:103DD0004EC17CF04FC17DF050C17EF051C177F0F3
:103DE00052C178F053C179F054C17AF0F2EC18F076
:103DF00077C094F078C095F079C096F07AC097F0CB
:103E0000BAEC14F090C05AF191C05BF192C05CF131
:103E100093C05DF1010155510101D8B425D05AC1BB
:103E2000A9F05BC1AAF05CC1ABF05DC1ACF09BEC4A
:103E300026F0A9C0ADF0AAC0AEF0ABC0AFF0ACC0E8
:103E4000B0F0DB0E0001B16F0F0EB26FC90EB36F91
:103E50003F0EB46F66EC12F0ADC05AF1AEC05BF12C
:103E6000AFC05CF1B0C05DF101014CBF09D05AC1D7
:103E700049F15BC14AF15CC14BF15DC14CF11200EB
:103E80005AC1A9F05BC1AAF05CC1ABF05DC1ACF056
:103E90009BEC26F0A9C049F1AAC04AF1ABC04BF196
:103EA000ACC04CF1120020EE26F0DECF76F1DDCF73
:103EB00077F10101761F771F764B772B2450010194
:103EC00076250001776F2550010177210001786F79
:103ED000B7EC26F0000177C07BF0000178C07CF0E1
:103EE0000001000E7CBFFF0E7D6F7E6F010E67EC40
:103EF00020F07BC0D1F07CC0D2F07DC0D3F07EC07A
:103F0000D4F0D1C0B1F0D2C0B2F0D3C0B3F0D4C0BD
:103F1000B4F0000E0001B56F000EB66FF00EB76F73
:103F2000410EB86F31EC22F00001D8B012002550DC
:103F300003E11E0E245CD8B01200275003E11E0ED0
:103F4000265CD8B01200910E00017B6F320E7C6FA0
:103F50002F0E7D6F4F0E7E6FD1C077F0D2C078F0FC
:103F6000D3C079F0D4C07AF0F2EC18F077C090F0BA
:103F700078C091F079C092F07AC093F036EC24F0DA
:103F8000000190510001E56FD1C094F0D2C095F0CE
:103F9000D3C096F0D4C097F0D1C090F0D2C091F0C9
:103FA000D3C092F0D4C093F0BAEC14F090C0ADF04E
:103FB00091C0AEF092C0AFF093C0B0F0000E00011F
:103FC000B16F000EB26F800EB36F440EB46F66EC2B
:103FD00012F0ADC0D5F0AEC0D6F0AFC0D7F0B0C0D3
:103FE000D8F0D5C0C1F0D6C0C2F0D7C0C3F0D8C099
:103FF000C4F00DEC17F0C1C0D5F0C2C0D6F0C3C0FC
:10400000D7F0C4C0D8F0D1C077F0D2C078F0D3C018
:1040100079F0D4C07AF0D5C07BF0D6C07CF0D7C0A0
:104020007DF0D8C07EF0F2EC18F077C0D9F078C0FF
:10403000DAF079C0DBF07AC0DCF0D9C05EF1DAC02A
:104040005FF1DBC060F1DCC061F1A1EC1CF05EC18E
:10405000D9F05FC1DAF060C1DBF061C1DCF0DB0EEA
:1040600000017B6F0F0E7C6F490E7D6F400E7E6FDF
:10407000D9C077F0DAC078F0DBC079F0DCC07AF034
:10408000F2EC18F077C090F078C091F079C092F01F
:104090007AC093F0000E0001946F000E956F340EFD
:1040A000966F430E976FBAEC14F090C0D9F091C0A0
:1040B000DAF092C0DBF093C0DCF02450265C25508F
:1040C0002758D8B002D0459E1200458E120000013C
:1040D000836F000183510001D8B41ED000017EAF70
:1040E0001BD07BC07FF07CC080F07DC081F07EC0A3
:1040F00082F000017F1F801F811F821F7F2B000E17
:104100008023812382237FC085F080C086F081C018
:1041100087F082C088F008D07BC085F07CC086F034
:104120007DC087F07EC088F000017B5100017C11CA
:1041300000017D1100017E11D8A40AD0000E0001FB
:104140007B6F000E7C6F000E7D6F000E7E6F120085
:10415000960E0001846F08D00001842B0001D890D6
:104160008833873386338533000E000185150001BF
:104170007F6F000E000186150001806F000E0001A8
:1041800087150001816FFE0E000188150001826F06
:1041900000017F5100018011000181110001821195
:1041A000D8B410D0D9D70001842B010E0001852787
:1041B000000E8623872388230001D8908833873315
:1041C00086338533000E0001851500017F6F000ED8
:1041D000000186150001806F000E000187150001A7
:1041E000816FFF0E000188150001826F00017F5171
:1041F000000180110001811100018211D8B409D0A1
:10420000D2D7000184070001D890853786378737D9
:104210008837000187BF04D0020E00018461F1D706
:10422000000184B109D0FF0E00018517FF0E86172B
:104230007F0E8717FF0E88170001D890843384C043
:104240007FF00001806B816B826B7FC082F0000188
:10425000816B806B7F6B00017F5100018513000132
:104260008051000186130001815100018713000174
:10427000825100018813000183510001D8B405D098
:1042800000017EAF02D00001888F85C07BF086C020
:104290007CF087C07DF088C07EF0120000018E6F38
:1042A000800EEFEC26F0000E706E000E716E000EA8
:1042B000726E00018741E842C00B0001876F000168
:1042C0008751701200018851701200018E517112D5
:1042D00000018539E842F80B0001856F0001855126
:1042E0007112000189A5718C000189B1718E0001E4
:1042F00086517212000189B3728C00018951600BE2
:10430000606E00018951100BFF0AD8B4608460CF41
:1043100050FF000E0001776F000E786F000E796F6E
:10432000000E7A6FF70E00017B6F010ED2EC1AF0CF
:10433000000E0001776F000E786F000E796F000E8F
:104340007A6FF70E00017B6F020ED2EC1AF00FD0DD
:10435000F70E00018F6F07D000018F69000190698F
:1043600028D000018F69F70E0001906F22D09F0EB8
:1043700000018A6FFF0E00018B6F00018951600BF5
:1043800000018C6F8D6B00018A5100018C130001BC
:104390008B5100018D1300018D51000AD8A4E1D783
:1043A00000018C51BF0AD8B4D7D7600AD8B4D0D78F
:1043B000D8D7000E0001776F000E786F000E796F6E
:1043C000000E7A6F8FC07BF0000E97EC06F0000EA7
:1043D0000001776F000E786F000E796F000E7A6F14
:1043E0008FC07BF0010E97EC06F0000E0001776F96
:1043F000000E786F000E796F000E7A6F90C07BF020
:10440000020E97EC06F0000E0001776F000E786F39
:10441000000E796F000E7A6F90C07BF0030E97EC60
:1044200006F0000E0001776F000E786F000E796FB6
:10443000000E7A6F90C07BF0040E97EC06F0000E31
:104440000001776F000E786F000E796F000E7A6FA3
:1044500090C07BF0050E97EC06F0000EEFEC26F016
:104460001200000E0001B1150001B96F000E00012D
:10447000B2150001BA6F800E0001B3150001BB6FC9
:104480007F0E0001B4150001BC6F0001B95100019D
:10449000BA110001BB110001BC11D8A409D0000E53
:1044A0000001B16F000EB26F000EB36F000EB46F5B
:1044B000000E0001B5150001B96F000E0001B61520
:1044C0000001BA6F800E0001B7150001BB6F7F0EAF
:1044D0000001B8150001BC6F0001B9510001BA110B
:1044E0000001BB110001BC11D8A409D0000E0001CD
:1044F000B56F000EB66F000EB76F000EB86F0001FB
:10450000B4AF26D0B1C0B9F0B2C0BAF0B3C0BBF0FE
:10451000B4C0BCF00001B91FBA1FBB1FBC1FB92B30
:10452000000EBA23BB23BC23000E0001B9250001F5
:10453000B16F000E0001BA210001B26F000E000140
:10454000BB210001B36F800E0001BC210001B46FDC
:104550000001B8AF26D0B5C0B9F0B6C0BAF0B7C048
:10456000BBF0B8C0BCF00001B91FBA1FBB1FBC1F15
:10457000B92B000EBA23BB23BC23000E0001B925C2
:104580000001B56F000E0001BA210001B66F000EE8
:104590000001BB210001B76F800E0001BC210001AA
:1045A000B86F000E0001B11B000EB21B000EB31B52
:1045B000800EB41B000E0001B51B000EB61B000ED2
:1045C000B71B800EB81B0001B5510001B15D0001A1
:1045D000B6510001B2590001B7510001B3590001B1
:1045E000B8510001B459D8B002D0D8901200D88088
:1045F0001200ABD0255004E1330E245CD8A02AD0A1
:1046000045BA56D0CDEC26F00009D8B4FBD7080E39
:104610000001776F000E786F000E796F000E7A6FD1
:10462000290E00017B6F010E00017C6F080E000156
:104630007D6FFC0E00017E6F1AEC0CF0458A000EB7
:104640000001D16F000ED26F000ED36F000ED46F39
:104650008A882ED020EE26F0DECF89F0DDCF8AF0DA
:104660000001891F8A1F894B8A2B2450000189254C
:104670000001776F255000018A210001786FB7ECA7
:1046800026F0000177C07BF0000178C07CF00001CB
:10469000000E7CBFFF0E7D6F7E6F010E67EC20F079
:1046A0007BC0D1F07CC0D2F07DC0D3F07EC0D4F00E
:1046B000255022E1320E245CD8A045AA1DD0459A8F
:1046C000CDEC26F00009D8B4FBD7070E0001776FB8
:1046D000000E786F000E796F000E7A6F290E0001C0
:1046E0007B6F010E00017C6F080E00017D6FFC0ED8
:1046F00000017E6F1AEC0CF045A627D00001E251B4
:1047000005E1650E0001E15DD8A01DD0818A010E92
:104710000101296F0B0E0001776F000E786F000EFC
:10472000796F000E7A6F290E00017B6F010E000178
:104730007C6F010E00017D6FBC0E00017E6F1AECD4
:104740000CF0459602D04596819A45A0120081BA98
:10475000120050D7C7C0C9F0C8C0CAF00001D89035
:10476000C937CA370001D890C937CA37C5C0CBF09E
:10477000C6C0CCF00001C9510001CB270001CA51CD
:104780000001CC23CBC0F6FFCCC0F7FF000EF86EC3
:104790000900F5CFCDF00900F5CFCEF00900F5CF37
:1047A000CFF00A00F5CFD0F052D0CDC094F0CEC0FB
:1047B00095F0CFC096F0D0C097F0C1C090F0C2C0C5
:1047C00091F0C3C092F0C4C093F0BAEC14F090C062
:1047D000ADF091C0AEF092C0AFF093C0B0F0000168
:1047E000C707D8A0C807C7C0C9F0C8C0CAF0000131
:1047F000D890C937CA370001D890C937CA37C5C061
:10480000CBF0C6C0CCF00001C9510001CB2700019C
:10481000CA510001CC23CBC0F6FFCCC0F7FF000E7D
:10482000F86E0900F5CFB1F00900F5CFB2F009003C
:10483000F5CFB3F00A00F5CFB4F066EC12F0ADC0DE
:10484000CDF0AEC0CEF0AFC0CFF0B0C0D0F0000120
:10485000C7510001C811D8A4A8D7CDC0C1F0CEC09F
:10486000C2F0CFC0C3F0D0C0C4F012000001923536
:1048700093350001996F00019951D8A40AD0000E18
:104880000001906F000E916F000E926F000E936FFB
:10489000120090C094F091C095F092C096F093C031
:1048A00097F0200E06D00001D890973396339533B9
:1048B0009433E82EF8D7000194510001986F00015D
:1048C000928FFF0E00019017FF0E9117FF0E9217A7
:1048D000000E9317960E0001995F000199AF1AD050
:1048E00000019951800A970FD8B00AD0000E00013C
:1048F000906F000E916F000E926F000E936F12007A
:104900000001D89093339233913390330001993F53
:10491000F7D71BD01F0E0001996512D0000E0001C1
:10492000906F000E916F000E926F000E936F120049
:104930000001D8909037913792379337000199074B
:10494000000199510001D8A4F3D70001985100014A
:10495000D8B409D00001931F921F911F906D000ED3
:1049600091239223932390C090F091C091F092C034
:1049700092F093C093F01200E9CF6BF0EACF6CF0A5
:10498000E1CF6DF0E2CF6EF0D9CF6FF0DACF70F0FB
:10499000F3CF71F0F4CF72F0F6CF73F0F7CF74F07D
:1049A000F8CF75F0F5CF76F0F1AC07D0F19C000EA2
:1049B000B36E000EB26E459430D0B3CF44F0B2CF98
:1049C00043F044C040F0416A40500001676F4350DB
:1049D000406E67C041F0D89041300001676F4030B1
:1049E0003C6E67C03DF03CC060F03DC061F0000E21
:1049F0000001636F3A0E626F8CEC25F04250020D9D
:104A0000240EF324D96E000EF420DA6E000160C08B
:104A1000DEFF000161C0DDFFF18CF29276C0F5FF90
:104A200075C0F8FF74C0F7FF73C0F6FF72C0F4FFE3
:104A300071C0F3FF70C0DAFF6FC0D9FF6EC0E2FF34
:104A40006DC0E1FF6CC0EAFF6BC0E9FF6AC0FBFF0D
:104A500069C0FAFF47921100CDEC26F0E806D8A411
:104A6000FBD7050E0001776F000E786F000E796F8F
:104A7000000E7A6F410E00017B6F010E00017C6F0A
:104A8000080E00017D6FBC0E00017E6F1AEC0CF069
:104A9000E3C039F10001E45101013A6F000E45B263
:104AA000010E01013B6FCDEC26F0E806D8A4FBD740
:104AB000030E0001776F000E786F000E796F000E05
:104AC0007A6F390E00017B6F010E00017C6F080EBA
:104AD00000017D6FBC0E00017E6F1AEC0CF0CDEC76
:104AE00026F0E806D8A4FBD7040E0001776F000E6D
:104AF000786F000E796F000E7A6F310E00017B6FB8
:104B0000010E00017C6F080E00017D6FBD0E0001DB
:104B10007E6F1AEC0CF01200000E0001666F000EA2
:104B2000656F0001625100016311D8B42CD0010EF1
:104B30000001646F06D00001D8906237633700012E
:104B4000642B000163AFF7D70001D8906537663753
:104B5000000162510001605D000163510001615973
:104B6000D8A00AD0000162510001605F00016351CA
:104B70000001615B000165810001D89063336233FD
:104B80000001642FE1D765C060F066C061F01200DB
:104B9000000E896EF00E926E000E8A6E8A0E936E73
:104BA000000E8B6E9468C168060E0001856F050EBD
:104BB0000001866F010E0001876F030E0001886FF0
:104BC0009D0E0001896F040E4EEC21F0D08EA49250
:104BD000A490A592A590A382A380F194800ED56E97
:104BE000110EB16E340ED76EE00ED66EF294F28ACC
:104BF000F18CF292F298F28CF28E120001EE00F03B
:104C0000490EEE6AE806FDE100EED1F0150EEE6AFF
:104C1000E806FDE1456A00EE24F0210EEE6AE806A2
:104C2000FDE1F40EF66E4D0EF76E000EF86E090003
:104C3000F5CFE6F00900F5CFE7F0F60EF66E4D0E73
:104C4000F76E000EF86E0900F5CF46F047904792D8
:104C5000000155EF26F009C13AF03B6A3A500001D5
:104C6000776F010108513A6E77C03BF00BC13EF0FF
:104C70003F6A3E500001776F01010A513E6E77C0D6
:104C80003FF03A503E240001776F3B503F20000137
:104C9000786FD890000178310001796F0001773189
:104CA0000001DD6F79C0DEF01200C8EC25F0000EC7
:104CB0000101006F010E0101016F020E0101026F7F
:104CC000030E0101036F040E0101046F050E0101C3
:104CD000056F060E0101066F070E0101076F81982F
:104CE000819A819C459AF9EC22F02BEC26F053EC4A
:104CF0001FF0DFEC26F0F7D70001B0AF13D0ADC046
:104D0000A9F0AEC0AAF0AFC0ABF0B0C0ACF09BEC65
:104D100026F0A9C0ADF0AAC0AEF0ABC0AFF0ACC0F9
:104D2000B0F01200ADC0ADF0AEC0AEF0AFC0AFF0AD
:104D3000B0C0B0F012000001A9510001AA11000199
:104D4000AB110001AC11D8B409D0000E0001A91BB1
:104D5000000EAA1B000EAB1B800EAC1BA9C0A9F055
:104D6000AAC0AAF0ABC0ABF0ACC0ACF0120000011E
:104D700078AF0ED077C079F078C07AF00001791F53
:104D80007A1F794B7A2B79C077F07AC078F01200CD
:104D900077C077F078C078F01200010E0001776FCD
:104DA0000F0140A709D00F0130A706D00F0120A79F
:104DB00003D0000E0001776F0001775112000AD076
:104DC000000E0001E46F000EE36F000E0101316F71
:104DD0002CEC25F081AA120045A01200F1D70001A9
:104DE000776F77C06FFF6E50E00B00017719D8B472
:084DF0001200F9D76400140061
:020000040020DA
:08000000FFFFFFFFFFFFFFFF00
:020000040030CA
:0E000000FF021F1EFF8081FF3FC03FE03F4018
:00000001FF
