:04000000A9EF01F073
:10000800FACF69F0FBCF6AF0E9CF6BF03EEF2CF046
:10001800D8CF15F0E8CF16F0E0CF17F0FACF18F0E8
:10002800FBCF19F0E9CF1AF0EACF1BF0E1CF1CF0B3
:10003800E2CF1DF0D9CF1EF0DACF1FF0F3CF20F0BA
:10004800F4CF21F0F6CF22F0F7CF23F0F8CF24F049
:10005800F5CF25F0F2A4B4D0F298D59E340ED76E21
:10006800E00ED66ED58E51AA0CD04C50020D2A0E39
:10007800F324D96E000EF420DA6E880EDE6E130EAD
:10008800DD6E4C50020D2A0EF324D96E000EF420BA
:10009800DA6E010EDB5018E1FA0EDE5CD8B014D02F
:1000A80052BC12D0030E4C18D8B404D0060E4C180B
:1000B800D8A40AD0030E4C18D8A403D030C086F1B7
:1000C8000DD036C085F10AD04C50010D850EF324B1
:1000D800D96E010EF420DA6EFF0EDF6E4C50020D61
:1000E8002A0EF324D96E000EF420DA6E010EDB50CE
:1000F8002EE10A0EDE5CD8B02AD052BC51B627D009
:100108004C50D8A403D04C04D8B421D04F2A4F5017
:10011800D8B41DD0040E0101556F0D0E016E000EEE
:10012800026E000E036E000E046E550E056E010E73
:10013800066E080E076EBC0E086E0EEC10F0000E70
:10014800086E140E076EA1EC2EF0FF0000D04C2AAA
:1001580051B215D053C026F054C027F0517051A0A9
:1001680002D0010E01D0000E116E126A260E112463
:10017800D96E000E1220DA6EDF504C6E00D0080ED9
:100188004C18D8A402D0000E4C6E000E286E4C50AD
:10019800010D3A0EF324D96E000EF420DA6EDF500A
:1001A800286E28C080FF93908A80140EE82EFED710
:1001B800518A8A909380F292F18CF288F29400D05E
:1001C800A4B002D0A4A29ED036EC2FF00009D8B477
:1001D80099D0460E016E010E026E25EC16F00F0E38
:1001E8000101461901014711010148110101491195
:1001F800D8A402D0519400D0090E0101461901017A
:1002080047110101481101014911D8A42ED001015B
:100218005405D8B42AD0000E01013F6F000E3E6F7E
:100228004BC144F0456A4450116E01014A51446E75
:1002380011C045F04DC146F0476A4650116E0101A4
:100248004C51466E11C047F044504624116E45503B
:100258004720126ED8901230136E113001013E6F94
:1002680013C03FF1518C518E00D00C0E010146197C
:10027800010147110101481101014911D8A40DD00C
:1002880001014A05D8A403D05182818C06D051922D
:100298008198819A819C529800D00E0E01014619CE
:1002A800010147110101481101014911D8A402D0E7
:1002B800528C00D0080E01014619010147110101B5
:1002C800481101014911D8A41AD0000E296E070E51
:1002D800296401D014D02950010D4A0EF324D96E97
:1002E800010EF420DA6E2950010D000EF324E16EA0
:1002F800010EF420E26EDFCFE7FF292AE8D7A490A9
:10030800A49200D025C0F5FF24C0F8FF23C0F7FF52
:1003180022C0F6FF21C0F4FF20C0F3FF1FC0DAFFA0
:100328001EC0D9FF1DC0E2FF1CC0E1FF1BC0EAFFD1
:100338001AC0E9FF19C0FBFF18C0FAFF17C0E0FF99
:0E03480016C0E8FF15C0D8FF100037EF2DF0EB
:100D000000063C04427D9F6A425C900142604DBBFC
:100D10004051EC473EDE8D1FBB063C0442C0598B60
:100D20004274044442F99B4F410000803FECF34A77
:100D300048359595C717C1DC45FDDB6DC372B333EC
:100D4000402B3401487F9DB045E7FFD94200008029
:100D50003F000001806F000180510001D8A459D0EC
:100D600000017B29D8A455D00F01019777C07CF0F2
:100D700078C07DF079C07EF07AC07FF0040E06D096
:100D80000001D8907F337E337D337C33E82EF8D753
:100D90007CC081F07DC082F07EC083F07FC084F093
:100DA000000181510001816F826B836B846B81C074
:100DB00000FF070E000177150001816F000E000192
:100DC00078150001826F000E000179150001836F14
:100DD000000E00017A150001846F81C07CF082C092
:100DE0007DF083C07EF084C07FF0050ED8900001B6
:100DF0007C377D377E377F37E82EF8D77CC081F08F
:100E00007DC082F07EC083F07FC084F081C001FF8E
:100E100000D000018005D8A459D000017B29D8A4B6
:100E200055D00F01059777C07CF078C07DF079C070
:100E30007EF07AC07FF0040E06D00001D8907F3398
:100E40007E337D337C33E82EF8D77CC081F07DC0C3
:100E500082F07EC083F07FC084F0000181510001E8
:100E6000816F826B836B846B81C004FF070E00016E
:100E700077150001816F000E000178150001826F67
:100E8000000E000179150001836F000E00017A1534
:100E90000001846F81C07CF082C07DF083C07EF051
:100EA00084C07FF0050ED89000017C377D377E37F7
:100EB0007F37E82EF8D77CC081F07DC082F07EC0FD
:100EC00083F07FC084F081C005FF00D0020E0001D6
:100ED0008019D8A459D000017B29D8A455D00F017E
:100EE000099777C07CF078C07DF079C07EF07AC039
:100EF0007FF0040E06D00001D8907F337E337D331F
:100F00007C33E82EF8D77CC081F07DC082F07EC0B3
:100F100083F07FC084F0000181510001816F826BFA
:100F2000836B846B81C008FF070E000177150001F9
:100F3000816F000E000178150001826F000E000124
:100F400079150001836F000E00017A150001846F8E
:100F500081C07CF082C07DF083C07EF084C07FF0D1
:100F6000050ED89000017C377D377E377F37E82E1D
:100F7000F8D77CC081F07DC082F07EC083F07FC056
:100F800084F081C009FF00D0030E00018019D8A4AD
:100F900059D000017B29D8A455D00F010D9777C0F7
:100FA0007CF078C07DF079C07EF07AC07FF0040ECE
:100FB00006D00001D8907F337E337D337C33E82E1A
:100FC000F8D77CC081F07DC082F07EC083F07FC006
:100FD00084F0000181510001816F826B836B846B0F
:100FE00081C00CFF070E000177150001816F000E14
:100FF000000178150001826F000E000179150001D3
:10100000836F000E00017A150001846F81C07CF0AF
:1010100082C07DF083C07EF084C07FF0050ED89042
:1010200000017C377D377E377F37E82EF8D77CC0CC
:1010300081F07DC082F07EC083F07FC084F081C0EB
:101040000DFF00D0040E00018019D8A459D0000172
:101050007B29D8A455D00F01119777C07CF078C0B8
:101060007DF079C07EF07AC07FF0040E06D00001DA
:10107000D8907F337E337D337C33E82EF8D77CC025
:1010800081F07DC082F07EC083F07FC084F00001DB
:1010900081510001816F826B836B846B81C010FF73
:1010A000070E000177150001816F000E0001781511
:1010B0000001826F000E000179150001836F000EA0
:1010C00000017A150001846F81C07CF082C07DF040
:1010D00083C07EF084C07FF0050ED89000017C377D
:1010E0007D377E377F37E82EF8D77CC081F07DC012
:1010F00082F07EC083F07FC084F081C011FF00D0F9
:10110000050E00018019D8A459D000017B29D8A46C
:1011100055D00F01159777C07CF078C07DF079C06D
:101120007EF07AC07FF0040E06D00001D8907F33A5
:101130007E337D337C33E82EF8D77CC081F07DC0D0
:1011400082F07EC083F07FC084F0000181510001F5
:10115000816F826B836B846B81C014FF070E00016B
:1011600077150001816F000E000178150001826F74
:10117000000E000179150001836F000E00017A1541
:101180000001846F81C07CF082C07DF083C07EF05E
:1011900084C07FF0050ED89000017C377D377E3704
:1011A0007F37E82EF8D77CC081F07DC082F07EC00A
:1011B00083F07FC084F081C015FF00D00001805112
:1011C0000001D8A48BD0F70E00017B19D8A486D0DB
:1011D0000F010187000177510001816F826B836BE2
:1011E000846B81C003FF000E000177150001816F41
:1011F000FF0E000178150001826F000E00017915C5
:101200000001836F000E00017A150001846F81C018
:101210007CF082C07DF083C07EF084C07FF07DC012
:101220007CF07EC07DF07FC07EF000017F6B7CC0D3
:1012300081F07DC082F07EC083F07FC084F081C0E9
:1012400002FF000179A103D00F01018102D00F013B
:101250000191000179A303D00F01018302D00F0196
:101260000193000179A503D00F01018B02D00F017A
:10127000019B000179A703D00F01018D02D00F015E
:10128000019D000179A903D00F01018F03D00F0147
:10129000019F00D077C07CF078C07DF079C07EF0EF
:1012A0007AC07FF0160E06D00001D8907F337E33CF
:1012B0007D337C33E82EF8D77CC081F07DC082F08E
:1012C0007EC083F07FC084F0000181510001816FF6
:1012D000826B836B846B81C000FF00D000018005AE
:1012E000D8A48BD0F70E00017B19D8A486D00F01AB
:1012F0000587000177510001816F826B836B846BDE
:1013000081C007FF000E000177150001816FFF0EFD
:10131000000178150001826F000E000179150001AF
:10132000836F000E00017A150001846F81C07CF08C
:1013300082C07DF083C07EF084C07FF07DC07CF0F1
:101340007EC07DF07FC07EF000017F6B7CC081F0AD
:101350007DC082F07EC083F07FC084F081C006FF34
:10136000000179A103D00F01058102D00F01059181
:10137000000179A303D00F01058302D00F0105936B
:10138000000179A503D00F01058B02D00F01059B49
:10139000000179A703D00F01058D02D00F01059D33
:1013A000000179A903D00F01058F03D00F01059F1C
:1013B00000D077C07CF078C07DF079C07EF07AC034
:1013C0007FF0160E06D00001D8907F337E337D3338
:1013D0007C33E82EF8D77CC081F07DC082F07EC0DF
:1013E00083F07FC084F0000181510001816F826B26
:1013F000836B846B81C004FF00D0020E0001801952
:10140000D8A48BD0F70E00017B19D8A486D00F0189
:101410000987000177510001816F826B836B846BB8
:1014200081C00BFF000E000177150001816FFF0ED8
:10143000000178150001826F000E0001791500018E
:10144000836F000E00017A150001846F81C07CF06B
:1014500082C07DF083C07EF084C07FF07DC07CF0D0
:101460007EC07DF07FC07EF000017F6B7CC081F08C
:101470007DC082F07EC083F07FC084F081C00AFF0F
:10148000000179A103D00F01098102D00F01099158
:10149000000179A303D00F01098302D00F01099342
:1014A000000179A503D00F01098B02D00F01099B20
:1014B000000179A703D00F01098D02D00F01099D0A
:1014C000000179A903D00F01098F03D00F01099FF3
:1014D00000D077C07CF078C07DF079C07EF07AC013
:1014E0007FF0160E06D00001D8907F337E337D3317
:1014F0007C33E82EF8D77CC081F07DC082F07EC0BE
:1015000083F07FC084F0000181510001816F826B04
:10151000836B846B81C008FF00D0030E000180192B
:10152000D8A48BD0F70E00017B19D8A486D00F0168
:101530000D87000177510001816F826B836B846B93
:1015400081C00FFF000E000177150001816FFF0EB3
:10155000000178150001826F000E0001791500016D
:10156000836F000E00017A150001846F81C07CF04A
:1015700082C07DF083C07EF084C07FF07DC07CF0AF
:101580007EC07DF07FC07EF000017F6B7CC081F06B
:101590007DC082F07EC083F07FC084F081C00EFFEA
:1015A000000179A103D00F010D8102D00F010D912F
:1015B000000179A303D00F010D8302D00F010D9319
:1015C000000179A503D00F010D8B02D00F010D9BF7
:1015D000000179A703D00F010D8D02D00F010D9DE1
:1015E000000179A903D00F010D8F03D00F010D9FCA
:1015F00000D077C07CF078C07DF079C07EF07AC0F2
:101600007FF0160E06D00001D8907F337E337D33F5
:101610007C33E82EF8D77CC081F07DC082F07EC09C
:1016200083F07FC084F0000181510001816F826BE3
:10163000836B846B81C00CFF00D0040E0001801905
:10164000D8A48BD0F70E00017B19D8A486D00F0147
:101650001187000177510001816F826B836B846B6E
:1016600081C013FF000E000177150001816FFF0E8E
:10167000000178150001826F000E0001791500014C
:10168000836F000E00017A150001846F81C07CF029
:1016900082C07DF083C07EF084C07FF07DC07CF08E
:1016A0007EC07DF07FC07EF000017F6B7CC081F04A
:1016B0007DC082F07EC083F07FC084F081C012FFC5
:1016C000000179A103D00F01118102D00F01119106
:1016D000000179A303D00F01118302D00F011193F0
:1016E000000179A503D00F01118B02D00F01119BCE
:1016F000000179A703D00F01118D02D00F01119DB8
:10170000000179A903D00F01118F03D00F01119FA0
:1017100000D077C07CF078C07DF079C07EF07AC0D0
:101720007FF0160E06D00001D8907F337E337D33D4
:101730007C33E82EF8D77CC081F07DC082F07EC07B
:1017400083F07FC084F0000181510001816F826BC2
:10175000836B846B81C010FF00D0050E00018019DF
:10176000D8A41200F70E00017B19D8A412000F01B3
:101770001587000177510001816F826B836B846B49
:1017800081C017FF000E000177150001816FFF0E69
:10179000000178150001826F000E0001791500012B
:1017A000836F000E00017A150001846F81C07CF008
:1017B00082C07DF083C07EF084C07FF07DC07CF06D
:1017C0007EC07DF07FC07EF000017F6B7CC081F029
:1017D0007DC082F07EC083F07FC084F081C016FFA0
:1017E000000179A103D00F01158102D00F011591DD
:1017F000000179A303D00F01158302D00F011593C7
:10180000000179A503D00F01158B02D00F01159BA4
:10181000000179A703D00F01158D02D00F01159D8E
:10182000000179A903D00F01158F03D00F01159F77
:1018300000D077C07CF078C07DF079C07EF07AC0AF
:101840007FF0160E06D00001D8907F337E337D33B3
:101850007C33E82EF8D77CC081F07DC082F07EC05A
:1018600083F07FC084F0000181510001816F826BA1
:10187000836B846B81C014FF120012000F0140B70C
:1018800042D17DC045FF00017EAD03D00F01458DE3
:1018900002D00F01459D00017EA77AD0000177514B
:1018A0000001836F846B856B866B83C044FF000EE1
:1018B000000177150001836FFF0E0001781500010C
:1018C000846F000E000179150001856F000E000184
:1018D0007A150001866F83C07FF084C080F085C0D8
:1018E00081F086C082F080C07FF081C080F082C02D
:1018F00081F00001826B7FC083F080C084F081C0E2
:1019000085F082C086F083C043FF000E0F01426F56
:101910000F014287000179A102D00F01428100012D
:1019200079A302D00F014283000179A502D00F01F3
:10193000428B000179A702D00F01428D000179A9E5
:1019400003D00F01428F00D077C07FF078C080F0C5
:1019500079C081F07AC082F0160E06D00001D890CE
:101960008233813380337F33E82EF8D77FC083F012
:1019700080C084F081C085F082C086F00001835170
:101980000001836F846B856B866B83C041FF5AD0E7
:101990000F01429777C07FF078C080F079C081F066
:1019A0007AC082F0040E06D00001D89082338133D1
:1019B00080337F33E82EF8D77FC083F080C084F077
:1019C00081C085F082C086F0000183510001836FE1
:1019D000846B856B866B83C041FF070E0001771512
:1019E0000001836F000E000178150001846F000E66
:1019F000000179150001856F000E00017A150001C4
:101A0000866F83C07FF084C080F085C081F086C07F
:101A100082F0050ED89000017F37803781378237FA
:101A2000E82EF8D77FC083F080C084F081C085F0B5
:101A300082C086F00F0142511F0B0F01426F83C01D
:101A400042FF00D000017EA103D00F01408102D0EF
:101A50000F01409100017EA303D00F01408303D00A
:101A60000F01409300D07BC0D9FF7CC0DAFFDF506C
:101A70000F01466F000120EE01F07B51D9267C5109
:101A8000DA22DF500F01476F000120EE02F07B5198
:101A9000D9267C51DA22DF500F01486F000120EE79
:101AA00003F07B51D9267C51DA22DF500F01496FB8
:101AB000000120EE04F07B51D9267C51DA22DF5060
:101AC0000F014A6F000120EE05F07B51D9267C51B1
:101AD000DA22DF500F014B6F000120EE06F07B5140
:101AE000D9267C51DA22DF500F014C6F000120EE25
:101AF00007F07B51D9267C51DA22DF500F014D6F60
:101B00000F01408712000F0130B742D17DC035FF71
:101B100000017EAD03D00F01358D02D00F01359D40
:101B200000017EA77AD0000177510001836F846B9A
:101B3000856B866B83C034FF000E000177150001B2
:101B4000836FFF0E000178150001846F000E000105
:101B500079150001856F000E00017A150001866F6E
:101B600083C07FF084C080F085C081F086C082F0A1
:101B700080C07FF081C080F082C081F00001826B64
:101B80007FC083F080C084F081C085F082C086F081
:101B900083C033FF000E0F01326F0F013287000147
:101BA00079A102D00F013281000179A302D00F0187
:101BB0003283000179A502D00F01328B000179A791
:101BC00002D00F01328D000179A903D00F01328FAD
:101BD00000D077C07FF078C080F079C081F07AC003
:101BE00082F0160E06D00001D89082338133803304
:101BF0007F33E82EF8D77FC083F080C084F081C0A7
:101C000085F082C086F0000183510001836F846BF0
:101C1000856B866B83C031FF5AD00F01329777C036
:101C20007FF078C080F079C081F07AC082F0040E35
:101C300006D00001D8908233813380337F33E82E81
:101C4000F8D77FC083F080C084F081C085F082C067
:101C500086F0000183510001836F846B856B866B76
:101C600083C031FF070E000177150001836F000E5E
:101C7000000178150001846F000E00017915000144
:101C8000856F000E00017A150001866F83C07FF01A
:101C900084C080F085C081F086C082F0050ED890A7
:101CA00000017F37803781378237E82EF8D77FC031
:101CB00083F080C084F081C085F082C086F00F017F
:101CC00032511F0B0F01326F83C032FF00D0000171
:101CD0007EA103D00F01308102D00F0130910001AD
:101CE0007EA303D00F01308303D00F01309300D0C7
:101CF0007BC0D9FF7CC0DAFFDF500F01366F0001D7
:101D000020EE01F07B51D9267C51DA22DF500F0101
:101D1000376F000120EE02F07B51D9267C51DA2288
:101D2000DF500F01386F000120EE03F07B51D92600
:101D30007C51DA22DF500F01396F000120EE04F0F0
:101D40007B51D9267C51DA22DF500F013A6F000116
:101D500020EE05F07B51D9267C51DA22DF500F01AD
:101D60003B6F000120EE06F07B51D9267C51DA2230
:101D7000DF500F013C6F000120EE07F07B51D926A8
:101D80007C51DA22DF500F013D6F0F0130871200C6
:101D90000F0120B712007DC025FF00017EAD03D0EA
:101DA0000F01258D02D00F01259D00017EA77AD05D
:101DB000000177510001836F846B856B866B83C054
:101DC00024FF000E000177150001836FFF0E000154
:101DD00078150001846F000E000179150001856FF0
:101DE000000E00017A150001866F83C07FF084C069
:101DF00080F085C081F086C082F080C07FF081C015
:101E000080F082C081F00001826B7FC083F080C0CF
:101E100084F081C085F082C086F083C023FF000E6D
:101E20000F01226F0F012287000179A102D00F015B
:101E30002281000179A302D00F012283000179A53C
:101E400002D00F01228B000179A702D00F01228D51
:101E5000000179A903D00F01228F00D077C07FF055
:101E600078C080F079C081F07AC082F0160E06D07A
:101E70000001D8908233813380337F33E82EF8D746
:101E80007FC083F080C084F081C085F082C086F07E
:101E9000000183510001836F846B856B866B83C067
:101EA00021FF5AD00F01229777C07FF078C080F0D1
:101EB00079C081F07AC082F0040E06D00001D8907B
:101EC0008233813380337F33E82EF8D77FC083F0AD
:101ED00080C084F081C085F082C086F0000183510B
:101EE0000001836F846B856B866B83C021FF070EB7
:101EF000000177150001836F000E000178150001C5
:101F0000846F000E000179150001856F000E00013D
:101F10007A150001866F83C07FF084C080F085C091
:101F200081F086C082F0050ED89000017F3780379F
:101F300081378237E82EF8D77FC083F080C084F0E5
:101F400081C085F082C086F00F0122511F0B0F0166
:101F5000226F83C022FF00D000017EA103D00F01B9
:101F6000208102D00F01209100017EA303D00F0138
:101F7000208303D00F01209300D07BC0D9FF7CC009
:101F8000DAFFDF500F01266F000120EE01F07B51D8
:101F9000D9267C51DA22DF500F01276F000120EE95
:101FA00002F07B51D9267C51DA22DF500F01286FD5
:101FB000000120EE03F07B51D9267C51DA22DF505C
:101FC0000F01296F000120EE04F07B51D9267C51CE
:101FD000DA22DF500F012A6F000120EE05F07B515D
:101FE000D9267C51DA22DF500F012B6F000120EE41
:101FF00006F07B51D9267C51DA22DF500F012C6F7D
:10200000000120EE07F07B51D9267C51DA22DF5007
:102010000F012D6F0F012087120012000F0140B732
:1020200018D107C045FF08AC03D00F01458D02D081
:102030000F01459D08A667D001500D6E0E6A0F6A0C
:10204000106A0DC044FF000E01140D6EFF0E021445
:102050000E6E000E03140F6E000E0414106E0DC0F1
:1020600009F00EC00AF00FC00BF010C00CF00AC04F
:1020700009F00BC00AF00CC00BF00C6A09C00DF09F
:102080000AC00EF00BC00FF00CC010F00DC043FFE3
:10209000000E0F01426F0F01428703A002D00F0113
:1020A000428103A202D00F01428303A402D00F0198
:1020B000428B03A602D00F01428D03A803D00F016B
:1020C000428F00D001C009F002C00AF003C00BF03B
:1020D00004C00CF0160E05D0D8900C320B320A3228
:1020E0000932E82EF9D709C00DF00AC00EF00BC076
:1020F0000FF00CC010F00D500D6E0E6A0F6A106AD2
:102100000DC041FF4ED00F01429701C009F002C03F
:102110000AF003C00BF004C00CF0040E05D0D890F8
:102120000C320B320A320932E82EF9D709C00DF011
:102130000AC00EF00BC00FF00CC010F00D500D6E69
:102140000E6A0F6A106A0DC041FF070E01140D6E72
:10215000000E02140E6E000E03140F6E000E041417
:10216000106E0DC009F00EC00AF00FC00BF010C0C9
:102170000CF0050ED89009360A360B360C36E82ED0
:10218000F9D709C00DF00AC00EF00BC00FF00CC05B
:1021900010F00F0142511F0B0F01426F0DC042FFA3
:1021A00000D008A003D00F01408102D00F01409160
:1021B00008A203D00F01408303D00F01409300D049
:1021C00005C0D9FF06C0DAFFDF500F01466F20EED1
:1021D00001F00550D9260650DA22DF500F01476F73
:1021E00020EE02F00550D9260650DA22DF500F010A
:1021F000486F20EE03F00550D9260650DA22DF5052
:102200000F01496F20EE04F00550D9260650DA225E
:10221000DF500F014A6F20EE05F00550D926065019
:10222000DA22DF500F014B6F20EE06F00550D92661
:102230000650DA22DF500F014C6F20EE07F00550F8
:10224000D9260650DA22DF500F014D6F0F0140876B
:1022500012000F0130B718D107C035FF08AC03D00A
:102260000F01358D02D00F01359D08A667D00150B2
:102270000D6E0E6A0F6A106A0DC034FF000E011455
:102280000D6EFF0E02140E6E000E03140F6E000E84
:102290000414106E0DC009F00EC00AF00FC00BF050
:1022A00010C00CF00AC009F00BC00AF00CC00BF013
:1022B0000C6A09C00DF00AC00EF00BC00FF00CC084
:1022C00010F00DC033FF000E0F01326F0F01328787
:1022D00003A002D00F01328103A202D00F0132838A
:1022E00003A402D00F01328B03A602D00F01328D5E
:1022F00003A803D00F01328F00D001C009F002C043
:102300000AF003C00BF004C00CF0160E05D0D890F4
:102310000C320B320A320932E82EF9D709C00DF01F
:102320000AC00EF00BC00FF00CC010F00D500D6E77
:102330000E6A0F6A106A0DC031FF4ED00F0132973E
:1023400001C009F002C00AF003C00BF004C00CF099
:10235000040E05D0D8900C320B320A320932E82E26
:10236000F9D709C00DF00AC00EF00BC00FF00CC079
:1023700010F00D500D6E0E6A0F6A106A0DC031FF1D
:10238000070E01140D6E000E02140E6E000E0314E3
:102390000F6E000E0414106E0DC009F00EC00AF08E
:1023A0000FC00BF010C00CF0050ED89009360A369D
:1023B0000B360C36E82EF9D709C00DF00AC00EF026
:1023C0000BC00FF00CC010F00F0132511F0B0F01AA
:1023D000326F0DC032FF00D008A003D00F01308152
:1023E00002D00F01309108A203D00F01308303D037
:1023F0000F01309300D005C0D9FF06C0DAFFDF50CF
:102400000F01366F20EE01F00550D9260650DA2272
:10241000DF500F01376F20EE02F00550D92606502D
:10242000DA22DF500F01386F20EE03F00550D92675
:102430000650DA22DF500F01396F20EE04F005500C
:10244000D9260650DA22DF500F013A6F20EE05F050
:102450000550D9260650DA22DF500F013B6F20EEDF
:1024600006F00550D9260650DA22DF500F013C6FE6
:1024700020EE07F00550D9260650DA22DF500F0172
:102480003D6F0F01308712000F0120B7120007C007
:1024900025FF08AC03D00F01258D02D00F01259D2B
:1024A00008A667D001500D6E0E6A0F6A106A0DC043
:1024B00024FF000E01140D6EFF0E02140E6E000EAE
:1024C00003140F6E000E0414106E0DC009F00EC040
:1024D0000AF00FC00BF010C00CF00AC009F00BC0DE
:1024E0000AF00CC00BF00C6A09C00DF00AC00EF027
:1024F0000BC00FF00CC010F00DC023FF000E0F0139
:10250000226F0F01228703A002D00F01228103A2B4
:1025100002D00F01228303A402D00F01228B03A655
:1025200002D00F01228D03A803D00F01228F00D00B
:1025300001C009F002C00AF003C00BF004C00CF0A7
:10254000160E05D0D8900C320B320A320932E82E22
:10255000F9D709C00DF00AC00EF00BC00FF00CC087
:1025600010F00D500D6E0E6A0F6A106A0DC021FF3B
:102570004ED00F01229701C009F002C00AF003C03B
:102580000BF004C00CF0040E05D0D8900C320B32C6
:102590000A320932E82EF9D709C00DF00AC00EF050
:1025A0000BC00FF00CC010F00D500D6E0E6A0F6ACC
:1025B000106A0DC021FF070E01140D6E000E0214EB
:1025C0000E6E000E03140F6E000E0414106E0DC07C
:1025D00009F00EC00AF00FC00BF010C00CF0050E91
:1025E000D89009360A360B360C36E82EF9D709C0D2
:1025F0000DF00AC00EF00BC00FF00CC010F00F0170
:1026000022511F0B0F01226F0DC022FF00D008A026
:1026100003D00F01208102D00F01209108A203D026
:102620000F01208303D00F01209300D005C0D9FFF4
:1026300006C0DAFFDF500F01266F20EE01F00550D3
:10264000D9260650DA22DF500F01276F20EE02F064
:102650000550D9260650DA22DF500F01286F20EEF0
:1026600003F00550D9260650DA22DF500F01296FFA
:1026700020EE04F00550D9260650DA22DF500F0173
:102680002A6F20EE05F00550D9260650DA22DF50D9
:102690000F012B6F20EE06F00550D9260650DA22E6
:1026A000DF500F012C6F20EE07F00550D9260650A1
:1026B000DA22DF500F012D6F0F0120871200120068
:1026C0002CC1A3F02DC1A4F02EC1A5F02FC1A6F0FE
:1026D000000E0001856F000E866F000E876F400EA2
:1026E000886FF2C181F0F3C182F0F4C183F0F5C1CB
:1026F00084F000EC28F081C09FF082C0A0F083C07D
:10270000A1F084C0A2F01FEC20F09FC0ABF0A0C0ED
:10271000ACF0A1C0ADF0A2C0AEF04AEC2EF0ABC060
:10272000C6F1ACC0C7F1ADC0C8F1AEC0C9F1C6C1F9
:10273000A3F0C7C1A4F0C8C1A5F0C9C1A6F0000E9E
:102740000001946F000E956F000E966F400E976F0C
:10275000F6C190F0F7C191F0F8C192F0F9C193F091
:102760004EEC27F090C09FF091C0A0F092C0A1F075
:1027700093C0A2F01FEC20F09FC0CAF1A0C0CBF123
:10278000A1C0CCF1A2C0CDF1000E0001856F000EFA
:10279000866F000E876F400E886FF2C181F0F3C123
:1027A00082F0F4C183F0F5C184F000EC28F081C020
:1027B000ABF082C0ACF083C0ADF084C0AEF04AECA8
:1027C0002EF0ABC0A3F0ACC0A4F0ADC0A5F0AEC07D
:1027D000A6F0CAC19FF0CBC1A0F0CCC1A1F0CDC181
:1027E000A2F01FEC20F09FC0CEF1A0C0CFF1A1C09D
:1027F000D0F1A2C0D1F1CEC181F0CFC182F0D0C161
:1028000083F0D1C184F0000E0001946F000E956F2B
:10281000000E966F400E976FF6C190F0F7C191F0E1
:10282000F8C192F0F9C193F04EEC27F090C085F01A
:1028300091C086F092C087F093C088F000EC28F039
:1028400081C0D2F182C0D3F183C0D4F184C0D5F16C
:10285000D2C1A2F1D3C1A3F1D4C1A4F1D5C1A5F1D4
:10286000FFEC1CF0A2C124F1A3C125F1A4C126F103
:10287000A5C127F1DB0E0001856F0F0E866F490E93
:10288000876F400E886F24C181F025C182F026C178
:1028900083F027C184F000EC28F081C090F082C062
:1028A00091F083C092F084C093F0000E0001946F09
:1028B000000E956F340E966F430E976F4EEC27F017
:1028C00090C024F191C025F192C026F193C027F168
:1028D00024C1ABF025C1ACF026C1ADF027C1AEF0EC
:1028E0004AEC2EF0ABC09FF0ACC0A0F0ADC0A1F0A0
:1028F000AEC0A2F0000E0001A36F000EA46FB40ED4
:10290000A56F420EA66F1FEC20F09FC028F1A0C05B
:1029100029F1A1C02AF1A2C02BF1DB0E0001946FB6
:102920000F0E956F490E966F400E976F24C190F071
:1029300025C191F026C192F027C193F04EEC27F00B
:1029400090C081F091C082F092C083F093C084F077
:10295000000E0001856F000E866F340E876F430EE8
:10296000886F00EC28F081C024F182C025F183C07B
:1029700026F184C027F124C1BEF125C1BFF126C1D3
:10298000C0F127C1C1F1CBEC2BF0BEC130F1BFC10A
:1029900031F1C0C132F1C1C133F130C194F031C164
:1029A00095F032C196F033C197F0F6C190F0F7C1BF
:1029B00091F0F8C192F0F9C193F04EEC27F090C07D
:1029C000DEF191C0DFF192C0E0F193C0E1F1DEC130
:1029D00090F0DFC191F0E0C192F0E1C193F0000E00
:1029E0000001946F000E956F000E966F400E976F6A
:1029F0004EEC27F090C030F191C031F192C032F12D
:102A000093C033F128C194F029C195F02AC196F002
:102A10002BC197F0F6C190F0F7C191F0F8C192F098
:102A2000F9C193F04EEC27F090C0DEF191C0DFF1D8
:102A300092C0E0F193C0E1F1DB0E0001946F0F0E44
:102A4000956FC90E966F400E976FDEC190F0DFC193
:102A500091F0E0C192F0E1C193F04EEC27F090C00C
:102A600081F091C082F092C083F093C084F0000E98
:102A70000001856F000E866FB40E876F430E886F5E
:102A800000EC28F081C038F182C039F183C03AF1FE
:102A900084C03BF1000E0001856F000E866F400E72
:102AA000876F400E886F000E0001946F000E956FC7
:102AB000000E966F400E976FF2C190F0F3C191F047
:102AC000F4C192F0F5C193F04EEC27F090C081F084
:102AD00091C082F092C083F093C084F000EC28F0A3
:102AE00081C09FF082C0A0F083C0A1F084C0A2F09A
:102AF000F6C1A3F0F7C1A4F0F8C1A5F0F9C1A6F0A2
:102B00001FEC20F09FC01CF1A0C01DF1A1C01EF160
:102B1000A2C01FF1000E0001856F000E866F400EEF
:102B2000876F400E886F000E0001946F000E956F46
:102B3000000E966F400E976FF2C190F0F3C191F0C6
:102B4000F4C192F0F5C193F04EEC27F090C081F003
:102B500091C082F092C083F093C084F000EC28F022
:102B600081C0ABF082C0ACF083C0ADF084C0AEF0E9
:102B70004AEC2EF0ABC09FF0ACC0A0F0ADC0A1F00D
:102B8000AEC0A2F0F6C1A3F0F7C1A4F0F8C1A5F061
:102B9000F9C1A6F01FEC20F09FC018F1A0C019F1F8
:102BA000A1C01AF1A2C01BF11CC185F01DC186F0A5
:102BB0001EC187F01FC188F018C181F019C182F0D1
:102BC0001AC183F01BC184F000EC28F081C0D6F15B
:102BD00082C0D7F183C0D8F184C0D9F1D6C1A2F1A7
:102BE000D7C1A3F1D8C1A4F1D9C1A5F1FFEC1CF064
:102BF000A2C1BEF1A3C1BFF1A4C1C0F1A5C1C1F181
:102C0000CBEC2BF0BEC1DAF1BFC1DBF1C0C1DCF10E
:102C1000C1C1DDF1DAC190F0DBC191F0DCC192F00D
:102C2000DDC193F01CC194F01DC195F01EC196F05A
:102C30001FC197F04EEC27F090C020F191C021F118
:102C400092C022F193C023F11200000E0B6E74AEFD
:102C500002D00B8000D074AC02D00B8200D00F01E8
:102C600050AF49D101C0D9FF02C0DAFFDE6ADE6A87
:102C7000DE6ADD6A20EE04F00150D9260250DA2225
:102C800056CFDFFF20EE05F00150D9260250DA22A0
:102C900057CFDFFF20EE06F00150D9260250DA228E
:102CA00058CFDFFF20EE07F00150D9260250DA227C
:102CB00059CFDFFF20EE08F00150D9260250DA226A
:102CC0005ACFDFFF20EE09F00150D9260250DA2258
:102CD0005BCFDFFF20EE0AF00150D9260250DA2246
:102CE0005CCFDFFF20EE0BF00150D9260250DA2234
:102CF0005DCFDFFF20EE0EF00150D9260250DA2220
:102D00000F0155AD02D0010E01D0000EDF6E20EE96
:102D10000DF00150D9260250DA220F0155510F0B48
:102D2000DF6E20EE0CF00150D9260250DA220F019E
:102D300052A702D0010E01D0000EDF6E0F0152B774
:102D400044D051CF03F0046A056A066A030ED89096
:102D50000336043605360636E82EF9D701C0D9FF0A
:102D600002C0DAFF03C0DEFF04C0DEFF05C0DEFFE5
:102D700006C0DEFF0F015239E842070B070B0C6E4D
:102D800001C0D9FF02C0DAFFDECF03F0DECF04F0CE
:102D9000DECF05F0DECF06F00C500324076E000EE8
:102DA0000420086E000E0520096E000E06200A6E33
:102DB00001C0D9FF02C0DAFF07C0DEFF08C0DEFF96
:102DC00009C0DEFF0AC0DEFF93D054CF03F0046ACF
:102DD000056A066A01C0D9FF02C0DAFF03C0DEFF40
:102DE00004C0DEFF05C0DEFF06C0DEFF53CF03F0E8
:102DF000046A056A066A05C006F004C005F003C04F
:102E000004F0036A01C0D9FF02C0DAFF0350DE26D6
:102E10000450DE220550DE220650DE220F0152A1B0
:102E20000DD001C0D9FF02C0DAFF000EDE12000E85
:102E3000DE12010EDE12000EDE1200D00F0152A3D0
:102E40000DD001C0D9FF02C0DAFF000EDE12000E65
:102E5000DE12020EDE12000EDE1200D00F0152ABA7
:102E60000DD001C0D9FF02C0DAFF000EDE12000E45
:102E7000DE12040EDE12000EDE1200D00F0152AD83
:102E80000DD001C0D9FF02C0DAFF000EDE12000E25
:102E9000DE12080EDE12000EDE1200D00F0152AF5D
:102EA0000DD001C0D9FF02C0DAFF000EDE12000E05
:102EB000DE12100EDE12000EDE1200D051CF03F033
:102EC000046A056A066A150ED8900336043605367C
:102ED0000636E82EF9D701C0D9FF02C0DAFF035049
:102EE000DE120450DE120550DE120650DE1200D053
:102EF0000F01509F120060AE120001C0D9FF02C046
:102F0000DAFFDE6ADE6ADE6ADD6A20EE04F0015076
:102F1000D9260250DA2266CFDFFF20EE05F00150FD
:102F2000D9260250DA2267CFDFFF20EE06F00150EB
:102F3000D9260250DA2268CFDFFF20EE07F00150D9
:102F4000D9260250DA2269CFDFFF20EE08F00150C7
:102F5000D9260250DA226ACFDFFF20EE09F00150B5
:102F6000D9260250DA226BCFDFFF20EE0AF00150A3
:102F7000D9260250DA226CCFDFFF20EE0BF0015091
:102F8000D9260250DA226DCFDFFF20EE0EF001507D
:102F9000D9260250DA2265AC02D0010E01D0000E13
:102FA000DF6E20EE0DF00150D9260250DA22655076
:102FB0000F0BDF6E20EE0CF00150D9260250DA2202
:102FC00062A602D0010E01D0000EDF6E62B643D0C1
:102FD00061CF03F0046A056A066A030ED8900336CF
:102FE000043605360636E82EF9D701C0D9FF02C0EF
:102FF000DAFF03C0DEFF04C0DEFF05C0DEFF06C04F
:10300000DEFF6238E842070B070B0C6E01C0D9FFE8
:1030100002C0DAFFDECF03F0DECF04F0DECF05F032
:10302000DECF06F00C500324076E000E0420086E5D
:10303000000E0520096E000E06200A6E01C0D9FFA1
:1030400002C0DAFF07C0DEFF08C0DEFF09C0DEFFF6
:103050000AC0DEFF8ED064CF03F0046A056A066AF8
:1030600001C0D9FF02C0DAFF03C0DEFF04C0DEFFEB
:1030700005C0DEFF06C0DEFF63CF03F0046A056A09
:10308000066A05C006F004C005F003C004F0036A38
:1030900001C0D9FF02C0DAFF0350DE260450DE2251
:1030A0000550DE220650DE2262A00DD001C0D9FFFD
:1030B00002C0DAFF000EDE12000EDE12010EDE127A
:1030C000000EDE1200D062A20DD001C0D9FF02C0F6
:1030D000DAFF000EDE12000EDE12020EDE12000E0D
:1030E000DE1200D062AA0DD001C0D9FF02C0DAFF03
:1030F000000EDE12000EDE12040EDE12000EDE12D4
:1031000000D062AC0DD001C0D9FF02C0DAFF000EC2
:10311000DE12000EDE12080EDE12000EDE1200D0ED
:1031200062AE0DD001C0D9FF02C0DAFF000EDE1280
:10313000000EDE12100EDE12000EDE1200D061CF85
:1031400003F0046A056A066A150ED8900336043641
:1031500005360636E82EF9D701C0D9FF02C0DAFFDE
:103160000350DE120450DE120550DE120650DE124D
:1031700000D0609E120012005196000E0101656F92
:1031800055EC21F02FD0000E00017E6F320E7D6FC6
:1031900068EC2EF0817C55EC21F01E0E0101656576
:1031A00004D0000E0101656F00D017EC2FF000096C
:1031B000D8B4FBD7100E0001776F000E786F000EA9
:1031C000796F000E7A6F650E00017B6F010E0001B2
:1031D0007C6F080E00017D6FBC0E00017E6F3EEC1F
:1031E0000CF000D051B481AA02D051B2CCD781BA30
:1031F00051A230D0819C020E0101556F0D0E0001CD
:10320000776F000E786F000E796F000E7A6F550E93
:1032100000017B6F010E00017C6F010E00017D6FCC
:10322000BC0E00017E6F3EEC0CF014D052B212D0F6
:10323000000E0001E66F000EE56F5A0E0101756F7A
:10324000000E01015D6F010E01015E6F46EC2AF078
:10325000528200D052AC51A2F4D1E8D7F2D18A8880
:103260002A502C240101E26F2B502D200101E36F25
:10327000D8900101E3310101E46F0101E231000165
:10328000816FE4C182F0BDEC2EF081C02CF182C0D0
:103290002DF183C02EF184C02FF160EC13F0000EED
:1032A0000001E66F000EE56F5A0E0101756F000E0A
:1032B00001015D6F010E01015E6F46EC2AF0010E07
:1032C000D6EC2EF0030E01015D6F010E01015E6F61
:1032D000010E0001E66F2C0EE56F51985A0E0101A8
:1032E000756F000E0001A36F000EA46F700EA56F26
:1032F000410EA66F30C19FF031C1A0F032C1A1F0E4
:1033000033C1A2F01FEC20F09FC0ABF0A0C0ACF026
:10331000A1C0ADF0A2C0AEF04AEC2EF0ABC0E6F119
:10332000ACC0E7F1ADC0E8F1AEC0E9F120C1A3F057
:1033300021C1A4F022C1A5F023C1A6F0E6C19FF0EF
:10334000E7C1A0F0E8C1A1F0E9C1A2F01FEC20F0B4
:103350009FC0EAF1A0C0EBF1A1C0ECF1A2C0EDF179
:10336000000E0001A36F000EA46F840EA56F420E25
:10337000A66FEAC19FF0EBC1A0F0ECC1A1F0EDC1D6
:10338000A2F01FEC20F09FC0AFF0A0C0B0F0A1C031
:10339000B1F0A2C0B2F02CEC29F00001AF51010154
:1033A0007D6F518400D017EC2FF00009D8B4FBD703
:1033B0000F0E0001776F000E786F000E796F000E10
:1033C0007A6F7D0E00017B6F010E00017C6F080E8D
:1033D00000017D6FBC0E00017E6F3EEC0CF046ECF0
:1033E0002AF000D051B4FED7000E0001E66F000EA7
:1033F000E56F5A0E0101756F000E01015D6F010E40
:1034000001015E6F46EC2AF0010ED6EC2EF0030EA1
:1034100001015D6F010E01015E6F010E0001E66F9B
:103420002C0EE56F5198B40E0101756F38C1AFF0E5
:1034300039C1B0F03AC1B1F03BC1B2F02CEC29F087
:103440000001AF5101017D6F518400D017EC2FF0C6
:103450000009D8B4FBD70F0E0001776F000E786F0C
:10346000000E796F000E7A6F7D0E00017B6F010EEA
:1034700000017C6F080E00017D6FBC0E00017E6FA5
:103480003EEC0CF000D017EC2FF00009D8B4FBD7BD
:10349000AA0E0001776F000E786F000E796F000E94
:1034A0007A6F7D0E00017B6F010E00017C6F080EAC
:1034B00000017D6FBC0E00017E6F3EEC0CF046EC0F
:1034C0002AF000D051B4FED7010E0001E66F2C0E99
:1034D000E56F000E0101756F5184000E0001A36FAE
:1034E000000EA46F200EA56F410EA66F38C19FF08D
:1034F00039C1A0F03AC1A1F03BC1A2F01FEC20F00D
:103500009FC0AFF0A0C0B0F0A1C0B1F0A2C0B2F0B7
:103510002CEC29F00001AF5101017D6F00D017ECB8
:103520002FF00009D8B4FBD70F0E0001776F000E03
:10353000786F000E796F000E7A6F7D0E00017B6F41
:10354000010E00017C6F080E00017D6FBC0E0001B2
:103550007E6F3EEC0CF046EC2AF000D051B4FED762
:10356000000E01015D6F010E01015E6F000E000192
:10357000E66F000EE56F5A0E0101756F46EC2AF0FA
:10358000010ED6EC2EF05186375004E1150E365C54
:10359000D8A01AD0030E01015D6F010E01015E6F0C
:1035A000010E0001E66F2C0EE56F5A0E0101756FDA
:1035B000518846EC2AF000D03750FEE1150E365CFB
:1035C000D8A002D0F9D700D0000E01015D6F010E26
:1035D00001015E6F000E0001E66F000EE56F5A0EEE
:1035E0000101756F519846EC2AF0010ED6EC2EF0D1
:1035F000030E0101556F00D017EC2FF00009D8B46D
:10360000FBD70D0E0001776F000E786F000E796FFB
:10361000000E7A6F550E00017B6F010E00017C6F6A
:10362000080E00017D6FBC0E00017E6F3EEC0CF0B9
:10363000000E00017E6F640E7D6F68EC2EF0FF00BF
:1036400000D081AA120051A2120052AC120007D67B
:10365000120012000001806F00018005D8A457D02D
:1036600000017B29D8A453D077C07CF078C07DF0CE
:1036700079C07EF07AC07FF0040E06D00001D890A9
:103680007F337E337D337C33E82EF8D77CC081F0E6
:103690007DC082F07EC083F07FC084F00001815144
:1036A0000001816F826B836B846B81C018FF070EF2
:1036B000000177150001816F000E000178150001EF
:1036C000826F000E000179150001836F000E00016A
:1036D0007A150001846F81C07CF082C07DF083C0C8
:1036E0007EF084C07FF0050ED89000017C377D37D6
:1036F0007E377F37E82EF8D77CC081F07DC082F01E
:103700007EC083F07FC084F081C019FF00D0020E1C
:1037100000018019D8A457D000017B29D8A453D028
:1037200077C07CF078C07DF079C07EF07AC07FF001
:10373000040E06D00001D8907F337E337D337C3376
:10374000E82EF8D77CC081F07DC082F07EC083F087
:103750007FC084F0000181510001816F826B836B17
:10376000846B81C01CFF070E000177150001816F7B
:10377000000E000178150001826F000E000179151E
:103780000001836F000E00017A150001846F81C073
:103790007CF082C07DF083C07EF084C07FF0050E97
:1037A000D89000017C377D377E377F37E82EF8D7F9
:1037B0007CC081F07DC082F07EC083F07FC084F049
:1037C00081C01DFF00D000018005D8A489D0F70E6C
:1037D00000017B19D8A484D0000177510001816FCA
:1037E000826B836B846B81C01BFF000E0001771519
:1037F0000001816FFF0E000178150001826F000E3D
:10380000000179150001836F000E00017A15000197
:10381000846F81C07CF082C07DF083C07EF084C064
:103820007FF07DC07CF07EC07DF07FC07EF0000127
:103830007F6B7CC081F07DC082F07EC083F07FC052
:1038400084F081C01AFF000179A103D00F01198112
:1038500002D00F011991000179A303D00F01198340
:1038600002D00F011993000179A503D00F01198B24
:1038700002D00F01199B000179A703D00F01198D08
:1038800002D00F01199D000179A903D00F01198FF2
:1038900003D00F01199F00D077C07CF078C07DF075
:1038A00079C07EF07AC07FF0160E06D00001D89065
:1038B0007F337E337D337C33E82EF8D77CC081F0B4
:1038C0007DC082F07EC083F07FC084F00001815112
:1038D0000001816F826B836B846B81C018FF00D005
:1038E000020E00018019D8A41200F70E00017B1906
:1038F000D8A41200000177510001816F826B836BA5
:10390000846B81C01FFF000E000177150001816FDD
:10391000FF0E000178150001826F000E000179157D
:103920000001836F000E00017A150001846F81C0D1
:103930007CF082C07DF083C07EF084C07FF07DC0CB
:103940007CF07EC07DF07FC07EF000017F6B7CC08C
:1039500081F07DC082F07EC083F07FC084F081C0A2
:103960001EFF000179A103D00F011D8102D00F01BC
:103970001D91000179A303D00F011D8302D00F0117
:103980001D93000179A503D00F011D8B02D00F01FB
:103990001D9B000179A703D00F011D8D02D00F01DF
:1039A0001D9D000179A903D00F011D8F03D00F01C8
:1039B0001D9F00D077C07CF078C07DF079C07EF08C
:1039C0007AC07FF0160E06D00001D8907F337E3388
:1039D0007D337C33E82EF8D77CC081F07DC082F047
:1039E0007EC083F07FC084F0000181510001816FAF
:1039F000826B836B846B81C01CFF12001200000E6F
:103A00000001B36F000EB46F800EB56F3F0EB66F3E
:103A1000A2C1AFF0A3C1B0F0A4C1B1F0A5C1B2F092
:103A20002BEC2EF0AFC0B7F0B0C0B8F0B1C0B9F019
:103A3000B2C0BAF04FEC2BF00001D8B00FD0000E9E
:103A40000101416F210E406F000E0101A26F000EB7
:103A5000A36F000EA46F000EA56F1200000E0101EF
:103A6000A66F000EA76F800EA86F3F0EA96FA2C1B0
:103A700094F0A3C195F0A4C196F0A5C197F0A2C19E
:103A800090F0A3C191F0A4C192F0A5C193F04EECC7
:103A900027F090C0ABF091C0ACF092C0ADF093C0F5
:103AA000AEF04AEC2EF0ABC09FF0ACC0A0F0ADC0C1
:103AB000A1F0AEC0A2F0000E0001A36F000EA46F33
:103AC000800EA56F3F0EA66F1FEC20F09FC0AAF1DD
:103AD000A0C0ABF1A1C0ACF1A2C0ADF1AAC1D1F0C0
:103AE000ABC1D2F0ACC1D3F0ADC1D4F0AEEC23F099
:103AF000D1C0B6F1D2C0B7F1D3C0B8F1D4C0B9F1DA
:103B0000A2C1AFF0A3C1B0F0A4C1B1F0A5C1B2F0A1
:103B10002BEC2EF0AFC0B3F0B0C0B4F0B1C0B5F034
:103B2000B2C0B6F08F0E0001B76FC20EB86F350E7F
:103B3000B96F3F0EBA6F4FEC2BF00001D8B02DD00B
:103B4000A2C181F0A3C182F0A4C183F0A5C184F019
:103B5000B6C185F0B7C186F0B8C187F0B9C188F0A9
:103B600000EC28F081C0BAF182C0BBF183C0BCF187
:103B700084C0BDF1BAC1BFF0BBC1C0F0BCC1C1F0CF
:103B8000BDC1C2F083EC22F0BFC0A2F1C0C0A3F15E
:103B9000C1C0A4F1C2C0A5F112000101A5AF6ED051
:103BA000A2C185F0A3C186F0A4C187F0A5C188F0A9
:103BB000B6C1ABF0B7C1ACF0B8C1ADF0B9C1AEF0B1
:103BC0004AEC2EF0ABC081F0ACC082F0ADC083F007
:103BD000AEC084F000EC28F081C0BAF182C0BBF125
:103BE00083C0BCF184C0BDF1BAC1BFF0BBC1C0F09D
:103BF000BCC1C1F0BDC1C2F083EC22F0BFC0B2F1C4
:103C0000C0C0B3F1C1C0B4F1C2C0B5F1DB0E000158
:103C1000A36F0F0EA46FC90EA56F3F0EA66FB2C1A2
:103C2000ABF0B3C1ACF0B4C1ADF0B5C1AEF04AEC8D
:103C30002EF0ABC09FF0ACC0A0F0ADC0A1F0AEC004
:103C4000A2F01FEC20F09FC0AEF1A0C0AFF1A1C068
:103C5000B0F1A2C0B1F1AEC1ABF0AFC1ACF0B0C138
:103C6000ADF0B1C1AEF04AEC2EF0ABC0A2F1ACC0E9
:103C7000A3F1ADC0A4F1AEC0A5F11200A2C185F0C0
:103C8000A3C186F0A4C187F0A5C188F0B6C181F0B8
:103C9000B7C182F0B8C183F0B9C184F000EC28F05C
:103CA00081C0BAF182C0BBF183C0BCF184C0BDF158
:103CB000BAC1BFF0BBC1C0F0BCC1C1F0BDC1C2F050
:103CC00083EC22F0BFC0B2F1C0C0B3F1C1C0B4F107
:103CD000C2C0B5F1B2C1ABF0B3C1ACF0B4C1ADF08C
:103CE000B5C1AEF04AEC2EF0ABC09FF0ACC0A0F076
:103CF000ADC0A1F0AEC0A2F0DB0E0001A36F0F0EAD
:103D0000A46FC90EA56F3F0EA66F1FEC20F09FC0D9
:103D1000A2F1A0C0A3F1A1C0A4F1A2C0A5F112001C
:103D20001200000E0101996F0001D4AF16D0D1C06E
:103D3000ABF0D2C0ACF0D3C0ADF0D4C0AEF04AEC22
:103D40002EF0ABC0D1F0ACC0D2F0ADC0D3F0AEC05D
:103D5000D4F0010E0101996F00D0D1C090F0D2C013
:103D600091F0D3C092F0D4C093F0830E0001946F11
:103D7000F90E956F220E966F3E0E976F4EEC27F060
:103D800090C0D1F091C0D2F092C0D3F093C0D4F0E3
:103D9000D1C0C9F0D2C0CAF0D3C0CBF0D4C0CCF0EF
:103DA000D1C0BFF0D2C0C0F0D3C0C1F0D4C0C2F007
:103DB0009BEC28F0BFC0CDF0C0C0CEF0C1C0CFF0AA
:103DC000C2C0D0F0A9EC2DF0C9C0D1F0CAC0D2F069
:103DD000CBC0D3F0CCC0D4F0D1C090F0D2C091F021
:103DE000D3C092F0D4C093F0000E0001946F000E87
:103DF000956F800E966F400E976F4EEC27F090C037
:103E0000D1F091C0D2F092C0D3F093C0D4F0000EA4
:103E10000001B36F000EB46F000EB56F400EB66FA9
:103E2000D1C0B7F0D2C0B8F0D3C0B9F0D4C0BAF0A6
:103E30004FEC2BF00001D8B026D0D1C0C9F0D2C0D1
:103E4000CAF0D3C0CBF0D4C0CCF0000E0001CD6FCF
:103E5000000ECE6F000ECF6F400ED06FA9EC2DF08C
:103E6000C9C0D1F0CAC0D2F0CBC0D3F0CCC0D4F01E
:103E7000010199510101D8A402D0010E01D0000E18
:103E80000101996F00D0000E0001B36F000EB46FF6
:103E9000800EB56F3F0EB66FD1C0B7F0D2C0B8F08C
:103EA000D3C0B9F0D4C0BAF04FEC2BF00001D8B0B9
:103EB00025D0D1C0ABF0D2C0ACF0D3C0ADF0D4C0EF
:103EC000AEF04AEC2EF0ABC09FF0ACC0A0F0ADC09D
:103ED000A1F0AEC0A2F0000E0001A36F000EA46F0F
:103EE000000EA56F400EA66F1FEC20F09FC0D1F012
:103EF000A0C0D2F0A1C0D3F0A2C0D4F0D1C090F045
:103F0000D2C091F0D3C092F0D4C093F0D1C094F05D
:103F1000D2C095F0D3C096F0D4C097F04EEC27F005
:103F200090C095F191C096F192C097F193C098F12D
:103F300095C1ABF096C1ACF097C1ADF098C1AEF0B1
:103F4000410E0001AF6F0D0E0001B06F000E0001B9
:103F5000B26F030EB16FB9EC29F0ABC08DF1ACC0FC
:103F60008EF1ADC08FF1AEC090F18DC185F08EC1E4
:103F700086F08FC187F090C188F0000E0001B26F0B
:103F8000040EB16F2D0E0001AF6F0D0E0001B06F6A
:103F900095C1ABF096C1ACF097C1ADF098C1AEF051
:103FA000B9EC29F0ABC081F0ACC082F0ADC083F0B9
:103FB000AEC084F000EC28F081C091F182C092F193
:103FC00083C093F184C094F1D1C090F0D2C091F03D
:103FD000D3C092F0D4C093F091C194F092C195F007
:103FE00093C196F094C197F04EEC27F090C0D1F0B9
:103FF00091C0D2F092C0D3F093C0D4F00101995196
:104000000101D8B413D0D1C0ABF0D2C0ACF0D3C052
:10401000ADF0D4C0AEF04AEC2EF0ABC0D1F0ACC0E5
:10402000D2F0ADC0D3F0AEC0D4F01200D1C0D1F008
:10403000D2C0D2F0D3C0D3F0D4C0D4F0120000016B
:10404000A135A2350001AA6F0001A535A6350001F2
:10405000A96F0001AA510001D8B411D00001A951E3
:104060000001AA5DD8B014D00001AA5100080001D7
:10407000A9250001A76F200E0001A76509D0A3C0E4
:104080009FF0A4C0A0F0A5C0A1F0A6C0A2F01200AD
:104090000001A9510001D8B411D00001AA510001BA
:1040A000A95DD8B014D00001A95100080001AA25CB
:1040B0000001A76F200E0001A76509D09FC09FF0E7
:1040C000A0C0A0F0A1C0A1F0A2C0A2F01200060EF4
:1040D0000001A86F0001A2AF03D00001A88F00D09B
:1040E0000001A6AF02D00001A88D0001A18FFF0E34
:1040F00000019F17FF0EA017FF0EA117000EA217B9
:104100000001A58FFF0E0001A317FF0EA417FF0EDD
:10411000A517000EA6170001A9510001AA5DD8B08D
:104120002AD00001D890A337A437A537A6370001BD
:10413000A9070001AA510001A919D8B414D000019F
:10414000A807A8C0A7F0070E0001A717D8B40BD086
:10415000E8D709D00001D890A233A133A0339F3310
:104160000001AA2B00D00001A9510001AA19D8B45E
:1041700032D0F0D730D00001AA510001A95DD8B0EB
:104180002AD00001D8909F37A037A137A23700016D
:10419000AA070001AA510001A919D8B414D000013E
:1041A000A807A8C0A7F0070E0001A717D8B40BD026
:1041B000E8D709D00001D890A633A533A433A333A0
:1041C0000001A92B00D00001A9510001AA19D8B4FF
:1041D00002D0F0D700D00001A8AF11D0FF0E00012F
:1041E0009F1BFF0EA01BFF0EA11BFF0EA21B010EAB
:1041F00000019F27000EA023A123A22300D00001CD
:10420000A8AD11D0FF0E0001A31BFF0EA41BFF0ED3
:10421000A51BFF0EA61B010E0001A327000EA42361
:10422000A523A62300D0000E0001A86F00019F5116
:104230000001A3270001A0510001A4230001A15106
:104240000001A5230001A2510001A6230001A6AF91
:1042500014D0FF0E0001A31BFF0EA41BFF0EA51B15
:10426000FF0EA61B010E0001A327000EA423A52309
:10427000A623010E0001A86F00D0A3C077F0A4C050
:1042800078F0A5C079F0A6C07AF0AAC07BF0A8C0EB
:104290007CF08EEC26F077C09FF078C0A0F079C05B
:1042A000A1F07AC0A2F01200120020EE2CF0DECFB6
:1042B000D5F0DDCFD6F00001D51FD61FD54BD62BBC
:1042C0002A500001D5250001776F2B500001D6211F
:1042D0000001786FEDEC2EF077C081F078C082F0AD
:1042E00005EC2EF081C0D7F082C0D8F083C0D9F0A1
:1042F00084C0DAF0D7C0B3F0D8C0B4F0D9C0B5F0FC
:10430000DAC0B6F0000E0001B76F000EB86FF00E05
:10431000B96F410EBA6F4FEC2BF00001D8B0ECD062
:104320002B5003E11E0E2A5CD8B012002D5003E181
:104330001E0E2C5CD8B01200D7C094F0D8C095F0F7
:10434000D9C096F0DAC097F0D7C090F0D8C091F0FD
:10435000D9C092F0DAC093F04EEC27F090C09FF0F5
:1043600091C0A0F092C0A1F093C0A2F0000E000195
:10437000A36F000EA46F100EA56F420EA66F1FEC68
:1043800020F09FC0DBF0A0C0DCF0A1C0DDF0A2C037
:10439000DEF0DBC0D1F0DCC0D2F0DDC0D3F0DEC097
:1043A000D4F0AEEC23F0D1C0DBF0D2C0DCF0D3C04F
:1043B000DDF0D4C0DEF0D7C081F0D8C082F0D9C023
:1043C00083F0DAC084F0DBC085F0DCC086F0DDC0AD
:1043D00087F0DEC088F000EC28F081C0DFF082C0FA
:1043E000E0F083C0E1F084C0E2F0DFC0A2F1E0C001
:1043F000A3F1E1C0A4F1E2C0A5F1FFEC1CF0A2C161
:10440000DFF0A3C1E0F0A4C1E1F0A5C1E2F0DB0E52
:104410000001856F0F0E866F490E876F400E886F03
:10442000DFC081F0E0C082F0E1C083F0E2C084F040
:1044300000EC28F081C090F082C091F083C092F02F
:1044400084C093F0000E0001946F000E956F340E3F
:10445000966F430E976F4EEC27F090C0DFF091C03F
:10446000E0F092C0E1F093C0E2F0DFC0AFF0E0C056
:10447000B0F0E1C0B1F0E2C0B2F02CEC29F00001E4
:10448000AF510101656F2C502A5C2D502B58D8B0CC
:1044900002D0000E01D0010E0101666F00D00001B4
:1044A000D7510101341917E10001D8510101351923
:1044B00012E10001D951010136190DE10001DA5173
:1044C00001013719D8A407D0000E52B6010E010120
:1044D0006619D8B41200D7C034F1D8C035F1D9C0AC
:1044E00036F1DAC037F1010166B102D0529601D03F
:1044F000528646EC2AF01200000E0101656F46EC70
:104500002AF012001200BFC0AFF0C0C0B0F0C1C0AE
:10451000B1F0C2C0B2F02BEC2EF0AFC0D0F0B0C002
:10452000D1F0B1C0D2F0B2C0D3F00001D05100013F
:10453000D1110001D2110001D311D8A40AD0000E6C
:104540000001BF6F000EC06F000EC16F000EC26F82
:104550001200000E0001B36F000EB46F800EB56F35
:104560003F0EB66FD0C0B7F0D1C0B8F0D2C0B9F02E
:10457000D3C0BAF04FEC2BF00001D8B002D0010E3E
:1045800001D0000E0001CB6F0001CB51D8B41BD07D
:10459000000E0001816F000E826F800E836F3F0E50
:1045A000846FD0C085F0D1C086F0D2C087F0D3C070
:1045B00088F000EC28F081C0D0F082C0D1F083C038
:1045C000D2F084C0D3F0D0C090F0D1C091F0D2C06E
:1045D00092F0D3C093F0D0C094F0D1C095F0D2C087
:1045E00096F0D3C097F04EEC27F090C0CCF091C07D
:1045F000CDF092C0CEF093C0CFF0CCC0ABF0CDC028
:10460000ACF0CEC0ADF0CFC0AEF0190E0001AF6F70
:104610000D0E0001B06F000E0001B26F040EB16FFD
:10462000B9EC29F0ABC0C3F0ACC0C4F0ADC0C5F06C
:10463000AEC0C6F0CCC0ABF0CDC0ACF0CEC0ADF0DB
:10464000CFC0AEF0010E0001AF6F0D0E0001B06FD4
:10465000000E0001B26F050EB16FB9EC29F0ABC0CE
:10466000C7F0ACC0C8F0ADC0C9F0AEC0CAF0D0C091
:1046700090F0D1C091F0D2C092F0D3C093F0C3C0FB
:1046800085F0C4C086F0C5C087F0C6C088F0C7C03A
:1046900081F0C8C082F0C9C083F0CAC084F000ECC9
:1046A00028F081C094F082C095F083C096F084C059
:1046B00097F04EEC27F090C0D0F091C0D1F092C0AE
:1046C000D2F093C0D3F00001CB510001D8B426D072
:1046D000D0C0ABF0D1C0ACF0D2C0ADF0D3C0AEF022
:1046E0004AEC2EF0ABC09FF0ACC0A0F0ADC0A1F082
:1046F000AEC0A2F0DB0E0001A36F0F0EA46FC90EB7
:10470000A56F3F0EA66F1FEC20F09FC0D0F0A0C099
:10471000D1F0A1C0D2F0A2C0D3F000D00001C2BF3E
:1047200009D0D0C0BFF0D1C0C0F0D2C0C1F0D3C05A
:10473000C2F01200D0C0ABF0D1C0ACF0D2C0ADF02E
:10474000D3C0AEF04AEC2EF0ABC0BFF0ACC0C0F0AE
:10475000ADC0C1F0AEC0C2F012001200000E0001E8
:10476000B36F000EB46F000EB56F000EB66FD1C000
:10477000B7F0D2C0B8F0D3C0B9F0D4C0BAF04FECA3
:104780002BF00001D8A012D00001D4AF05D0000E4C
:104790000101416F210E406F000E0001D16F000E2C
:1047A000D26F000ED36F000ED46F1200D1C095F1FE
:1047B000D2C096F1D3C097F1D4C098F1D1C08DF199
:1047C000D2C08EF1D3C08FF1D4C090F101018D1F02
:1047D0008E1F8F1F901F8D2B000E8E238F239023F3
:1047E0005E0E01018D2501019E6FC80E01018E2113
:1047F00001019F6F6E0E01018F210101A06FBE0E9E
:10480000010190210101A16F0101D890A133A033D2
:104810009F339E33000E0101955F000E965B800E64
:10482000975B000E985B040E0101996F00D09EC14A
:1048300091F19FC192F1A0C193F1A1C194F19EC1E8
:1048400090F09FC191F0A0C192F0A1C193F095C1E9
:1048500094F096C195F097C196F098C197F04EEC00
:1048600027F090C09AF191C09BF192C09CF193C047
:104870009DF19AC190F09BC191F09CC192F09DC1B5
:1048800093F09EC194F09FC195F0A0C196F0A1C194
:1048900097F04EEC27F090C09AF191C09BF192C036
:1048A0009CF193C09DF19AC190F09BC191F09CC185
:1048B00092F09DC193F09EC194F09FC195F0A0C16C
:1048C00096F0A1C197F04EEC27F090C09AF191C0FC
:1048D0009BF192C09CF193C09DF19EC190F09FC14D
:1048E00091F0A0C192F0A1C193F0000E0001946F6D
:1048F000000E956FC00E966F3F0E976F4EEC27F02F
:1049000090C09EF191C09FF192C0A0F193C0A1F11F
:104910009EC1C9F09FC1CAF0A0C1CBF0A1C1CCF02B
:104920009AC1CDF09BC1CEF09CC1CFF09DC1D0F01B
:10493000A9EC2DF0C9C09EF1CAC09FF1CBC0A0F177
:10494000CCC0A1F10101992F72D700D09EC190F087
:104950009FC191F0A0C192F0A1C193F0D1C094F099
:10496000D2C095F0D3C096F0D4C097F04EEC27F0AB
:1049700090C0D1F091C0D2F092C0D3F093C0D4F0E7
:104980001200120000018E6F800E2AEC2FF0000E34
:10499000706E000E716E000E726E00018741E8426B
:1049A000C00B0001876F0001875170120001885110
:1049B000701200018E51711200018539E842F80B26
:1049C0000001856F000185517112000189A5718C6C
:1049D000000189A102D0718E00D0000186517212AF
:1049E000000189A302D0728C00D000018951600BB4
:1049F000606E00018951100BFF0AD8B4608460CF4B
:104A000050FF000E0001776F000E786F000E796F77
:104A1000000E7A6FF70E00017B6F010E2AEC1BF07F
:104A2000000E0001776F000E786F000E796F000E98
:104A30007A6FF70E00017B6F020E2AEC1BF00FD08D
:104A4000F70E00018F6F07D000018F690001906998
:104A500028D000018F69F70E0001906F22D09F0EC1
:104A600000018A6FFF0E00018B6F00018951600BFE
:104A700000018C6F8D6B00018A5100018C130001C5
:104A80008B5100018D1300018D51000AD8A4E1D78C
:104A900000018C51BF0AD8B4D7D7600AD8B4D0D798
:104AA000D8D7000E0001776F000E786F000E796F77
:104AB000000E7A6F8FC07BF0000EA9EC06F0000E9E
:104AC0000001776F000E786F000E796F000E7A6F1D
:104AD0008FC07BF0010EA9EC06F0000E0001776F8D
:104AE000000E786F000E796F000E7A6F90C07BF029
:104AF000020EA9EC06F0000E0001776F000E786F31
:104B0000000E796F000E7A6F90C07BF0030EA9EC57
:104B100006F0000E0001776F000E786F000E796FBF
:104B2000000E7A6F90C07BF0040EA9EC06F0000E28
:104B30000001776F000E786F000E796F000E7A6FAC
:104B400090C07BF0050EA9EC06F0000E2AEC2FF0C9
:104B50001200DDD055EC21F02B5004E1330E2A5C1D
:104B6000D8A02DD052A802D028D000D017EC2FF01A
:104B70000009D8B4FBD70A0E0001776F000E786FDA
:104B8000000E796F000E7A6F550E00017B6F010EDB
:104B900000017C6F080E00017D6FFC0E00017E6F2E
:104BA0003EEC0CF05288000E0001D76F000ED86F5B
:104BB000000ED96F000EDA6F00D08A8827D08A984D
:104BC00020EE2CF0DECFBEF1DDCFBFF10101BE1F24
:104BD000BF1FBE4BBF2B2A500101BE250001776FBE
:104BE0002B500101BF210001786FEDEC2EF077C052
:104BF00081F078C082F005EC2EF081C0D7F082C041
:104C0000D8F083C0D9F084C0DAF000D02B502BE16B
:104C1000320E2A5CD8B027D052A825D02D5023E1DF
:104C2000320E2C5CD8B01FD0529800D017EC2FF069
:104C30000009D8B4FBD7090E0001776F000E786F1A
:104C4000000E796F000E7A6F550E00017B6F010E1A
:104C500000017C6F080E00017D6FFC0E00017E6F6D
:104C60003EEC0CF000D051AC52D001013F5105E1B7
:104C7000420E01013E5DD8A047D0818A010E01019C
:104C8000556F0D0E0001776F000E786F000E796F73
:104C9000000E7A6F550E00017B6F010E00017C6FD4
:104CA000010E00017D6FBC0E00017E6F3EEC0CF02A
:104CB00052BA2DD02B502BE1280E2A5CD8B027D029
:104CC000320E01017D6F518400D017EC2FF00009E6
:104CD000D8B4FBD70F0E0001776F000E786F000E6F
:104CE000796F000E7A6F7D0E00017B6F010E00015F
:104CF0007C6F080E00017D6FBC0E00017E6F3EECE4
:104D00000CF0519E528A03D0519C819A00D051A23E
:104D1000120081BA12001ED71200120000017B514E
:104D20000001D8B40AD000017751000178110001C8
:104D3000791100017A11D8A414D0000E0001776F08
:104D4000000E786F000E796F000E7A6F120009D096
:104D500000017B2B0001D8907A3379337833773395
:104D600000D0000E0001771500017D6F000E0001DC
:104D7000781500017E6F000E0001791500017F6F2C
:104D8000FE0E00017A150001806F00017D510001C7
:104D90007E1100017F1100018011D8B411D0D8D745
:104DA0000FD000017B2B010E00017727000E782326
:104DB00079237A230001D8907A33793378337733A3
:104DC000000E0001771500017D6F000E00017815BF
:104DD00000017E6F000E0001791500017F6FFF0E4C
:104DE00000017A150001806F00017D5100017E11E4
:104DF00000017F1100018011D8B40BD0D2D709D0A7
:104E000000017B070001D8907737783779377A37F8
:104E100000D0000179BF05D0020E00017B61F0D700
:104E200000D000017BB109D0FF0E00017717FF0E03
:104E300078177F0E7917FF0E7A170001D8907B3311
:104E40007BC07DF000017E6B7F6B806B7DC080F04E
:104E500000017F6B7E6B7D6B00017D51000177133C
:104E600000017E510001781300017F510001791388
:104E70000001805100017A1300017C510001D8B477
:104E800003D000017A8F00D077C077F078C078F037
:104E900079C079F07AC07AF01200120000019235E0
:104EA00093350001986F00019851D8A40AD0000EE4
:104EB0000001906F000E916F000E926F000E936FC5
:104EC000120000019635973500019E6F00019E513A
:104ED000D8A40AD0000E0001906F000E916F000E52
:104EE000926F000E936F120000019E517B0F000124
:104EF000982793C09EF00001975100019E1B800EE1
:104F000000019E170001928F0001968FFF0E000195
:104F10009417FF0E9517FF0E9617000E9717000EA9
:104F20000001996F000E9A6F000E9B6F000E9C6F30
:104F3000070E00019D6F00D0000190A111D000016B
:104F40009451000199270001955100019A23000115
:104F5000965100019B230001975100019C2300D032
:104F60000001D89093339233913390330001D8905D
:104F7000943795379637973700019D2FDDD700D0AE
:104F8000110E00019D6F00D0000190A111D0000111
:104F90009451000199270001955100019A230001C5
:104FA000965100019B230001975100019C2300D0E2
:104FB0000001D89093339233913390330001D8900D
:104FC0009C339B339A33993300019D2FDDD700D05A
:104FD00099C077F09AC078F09BC079F09CC07AF0C5
:104FE00098C07BF09EC07CF08EEC26F077C090F0ED
:104FF00078C091F079C092F07AC093F0120012005C
:1050000000018335843500018E6F00018E51D8A4D4
:105010000AD0000E0001816F000E826F000E836FB8
:10502000000E846F120000018735883500018F6FF4
:1050300000018F51D8A40AD0000E0001816F000E2C
:10504000826F000E836F000E846F120000018F517B
:10505000890F00018E5F84C08FF00001885100012C
:105060008F1B800E00018F170001838FFF0E000140
:105070008117FF0E8217FF0E8317000E84170001A1
:10508000878FFF0E00018517FF0E8617FF0E87170B
:10509000000E8817200E00018D6F00D00001D890FF
:1050A00089378A378B378C37000185510001815D44
:1050B0000001865100018259000187510001835986
:1050C0000001885100018459D8A013D000018551F6
:1050D0000001815F000186510001825B0001875160
:1050E0000001835B000188510001845B000189811C
:1050F00000D00001D8908137823783378437000190
:105100008D2FCCD700D089C077F08AC078F08BC0C3
:1051100079F08CC07AF08EC07BF08FC07CF08EEC82
:1051200026F077C081F078C082F079C083F07AC031
:1051300084F012001200BFC077F0C0C078F0C1C088
:1051400079F0C2C07AF0C70E00017B6F000E00013B
:105150007C6FACEC2CF00001C8AF17D00001C2AFDF
:105160000AD0000E0001BF6F000EC06F800EC16F2D
:10517000BF0EC26F1200000E0001BF6F000EC06FA5
:10518000000EC16F000EC26F12000001C85105E190
:105190001D0E0001C75DD8A009D0BFC0BFF0C0C0C0
:1051A000C0F0C1C0C1F0C2C0C2F01200BFC0AFF0B9
:1051B000C0C0B0F0C1C0B1F0C2C0B2F02CEC29F058
:1051C000AFC0B9F0B0C0BAF0B1C0BBF0B2C0BCF073
:1051D000D9EC2DF0B9C0C3F0BAC0C4F0BBC0C5F063
:1051E000BCC0C6F0BFC0B3F0C0C0B4F0C1C0B5F021
:1051F000C2C0B6F0C3C0B7F0C4C0B8F0C5C0B9F003
:10520000C6C0BAF04FEC2BF00001D8B01CD0C3C020
:105210009FF0C4C0A0F0C5C0A1F0C6C0A2F0000EAF
:105220000001A36F000EA46F800EA56FBF0EA66FC6
:105230001FEC20F09FC0BFF0A0C0C0F0A1C0C1F023
:10524000A2C0C2F01200C3C0BFF0C4C0C0F0C5C04D
:10525000C1F0C6C0C2F012000001B135B235000184
:10526000B86F0001B851D8A40AD0000E0001AF6F8A
:10527000000EB06F000EB16F000EB26F1200AFC023
:10528000B3F0B0C0B4F0B1C0B5F0B2C0B6F0200E0B
:1052900006D00001D890B633B533B433B333E82E1B
:1052A000F8D70001B3510001B76F0001B18FFF0EB5
:1052B0000001AF17FF0EB017FF0EB117000EB217A7
:1052C000960E0001B85F0001B8AF1BD00001B851C5
:1052D000800A970FD8B00BD0000E0001AF6F000E00
:1052E000B06F000EB16F000EB26F120000D000015F
:1052F000D890B233B133B033AF330001B83FF7D7F2
:105300001FD01F0E0001B86514D0000E0001AF6F52
:10531000000EB06F000EB16F000EB26F120009D018
:105320000001D890AF37B037B137B2370001B807B6
:1053300000D00001B8510001D8B402D0F1D700D09C
:105340000001B7510001D8B40AD00001B21FB11F4B
:10535000B01FAF6D000EB023B123B22300D0AFC099
:10536000AFF0B0C0B0F0B1C0B1F0B2C0B2F0120056
:105370001200B1C0B3F0B2C0B4F00001D890B3379E
:10538000B4370001D890B337B437AFC0B5F0B0C070
:10539000B6F00001B3510001B5270001B45100017E
:1053A000B623B5C0F6FFB6C0F7FF000EF86E0900D1
:1053B000F5CFB7F00900F5CFB8F00900F5CFB9F097
:1053C0000A00F5CFBAF053D0B7C094F0B8C095F04A
:1053D000B9C096F0BAC097F0ABC090F0ACC091F0F5
:1053E000ADC092F0AEC093F04EEC27F090C09FF0AD
:1053F00091C0A0F092C0A1F093C0A2F00001B1074B
:10540000D8A0B207B1C0B3F0B2C0B4F00001D890D8
:10541000B337B4370001D890B337B437AFC0B5F065
:10542000B0C0B6F00001B3510001B5270001B4517E
:105430000001B623B5C0F6FFB6C0F7FF000EF86E48
:105440000900F5CFA3F00900F5CFA4F00900F5CFCE
:10545000A5F00A00F5CFA6F01FEC20F09FC0B7F032
:10546000A0C0B8F0A1C0B9F0A2C0BAF000D000014D
:10547000B1510001B211D8A4A7D7B7C0ABF0B8C0E2
:10548000ACF0B9C0ADF0BAC0AEF0120052BC02D060
:1054900067D000D017EC2FF0E806D8A4FBD7070E92
:1054A0000001776F000E786F000E796F000E7A6F33
:1054B000750E00017B6F010E00017C6F080E00016C
:1054C0007D6FBC0E00017E6F3EEC0CF0E5C06DF10F
:1054D0000001E65101016E6F000E51B8010E01018D
:1054E0006F6F00D017EC2FF0E806D8A4FBD7050E9D
:1054F0000001776F000E786F000E796F000E7A6FE3
:105500006D0E00017B6F010E00017C6F080E000123
:105510007D6FBC0E00017E6F3EEC0CF0000E0101B1
:105520005E6F00D017EC2FF0E806D8A4FBD7060E6C
:105530000001776F000E786F000E796F000E7A6FA2
:105540005D0E00017B6F010E00017C6F080E0001F3
:105550007D6FBC0E00017E6F3EEC0CF0120000D09F
:1055600017EC2FF0E806D8A4FBD7100E0001776FD8
:10557000000E786F000E796F000E7A6F650E0001D5
:105580007B6F010E00017C6F080E00017D6FBC0E69
:1055900000017E6F3EEC0CF012001200000E3A6E1D
:1055A000010E3B6E020E3C6E030E3D6E040E3E6E0F
:1055B000050E3F6E060E406E070E416E73EC2DF029
:1055C0008198819A819C5298529C010E00017E6FB5
:1055D000F40E7D6F68EC2EF026D0000E00017E6F79
:1055E0000A0E7D6F68EC2EF000D017EC2FF000094A
:1055F000D8B4FBD78178110E0001776F000E786F59
:10560000000E796F000E7A6F850E00017B6F010E20
:1056100000017C6F020E00017D6FBC0E00017E6FE9
:105620003EEC0CF000D051A2D8D7A9EC25F001C176
:1056300042F10101436B010142510101EE6F010191
:1056400000510101426FEEC143F103C144F1010178
:10565000456B010144510101EE6F0101025101014D
:10566000446FEEC145F101014251010144250101A0
:10567000EE6F01014351010145210101EF6FD89007
:105680000101EF310101F06F0101EE3101013C6FC9
:10569000F0C13DF1BCEC18F0C6D7A9EF01F0000154
:1056A000B6AF27D0B3C0BBF0B4C0BCF0B5C0BDF03E
:1056B000B6C0BEF00001BB1FBC1FBD1FBE1FBB2B71
:1056C000000EBC23BD23BE23000E0001BB2500013C
:1056D000B36F000E0001BC210001B46F000E000189
:1056E000BD210001B56F800E0001BE210001B66F23
:1056F00000D00001BAAF26D0B7C0BBF0B8C0BCF034
:10570000B9C0BDF0BAC0BEF00001BB1FBC1FBD1FB9
:10571000BE1FBB2B000EBC23BD23BE23000E000109
:10572000BB250001B76F000E0001BC210001B86F5E
:10573000000E0001BD210001B96F800E0001BE21E5
:105740000001BA6F000E0001B31B000EB41B000E67
:10575000B51B800EB61B000E0001B71B000EB81B58
:10576000000EB91B800EBA1B0001B7510001B35DDA
:105770000001B8510001B4590001B9510001B559F7
:105780000001BA510001B659D8B002D0D890120029
:10579000D88012001200DB0E0001B36F0F0EB46F41
:1057A000490EB56F400EB66FBEC1B7F0BFC1B8F0BD
:1057B000C0C1B9F0C1C1BAF04FEC2BF00001D8B0B4
:1057C0002ED0BEC19FF0BFC1A0F0C0C1A1F0C1C129
:1057D000A2F0E40E0001A36FCB0EA46F960EA56F8E
:1057E000C00EA66F1FEC20F09FC0C2F1A0C0C3F195
:1057F000A1C0C4F1A2C0C5F1C2C1D1F0C3C1D2F0F1
:10580000C4C1D3F0C5C1D4F091EC1EF0D1C0BEF13B
:10581000D2C0BFF1D3C0C0F1D4C0C1F11200BEC12B
:105820009FF0BFC1A0F0C0C1A1F0C1C1A2F0DB0ECA
:105830000001A36F0F0EA46FC90EA56F3F0EA66FD8
:105840001FEC20F09FC0C2F1A0C0C3F1A1C0C4F101
:10585000A2C0C5F1C2C1D1F0C3C1D2F0C4C1D3F05E
:10586000C5C1D4F091EC1EF0D1C0BEF1D2C0BFF1E1
:10587000D3C0C0F1D4C0C1F112001200EACF6CF065
:10588000E1CF6DF0E2CF6EF0D9CF6FF0DACF70F0EC
:10589000F3CF71F0F4CF72F0F6CF73F0F7CF74F06E
:1058A000F8CF75F0F5CF76F0F1AC07D0F19C000E93
:1058B000B36E000EB26E519A31D0B3CF4DF0B2CF6D
:1058C0004EF04DC04AF04B6A4A500001676F4E508F
:1058D0004A6E67C04BF0D8904B300001676F4A307A
:1058E000486E67C049F048C060F049C061F0000EE2
:1058F0000001636F3A0E626FF6EC2CF04C50020D13
:105900002A0EF324D96E000EF420DA6E000160C076
:10591000DEFF000161C0DDFFF18C00D0F29276C0A5
:10592000F5FF75C0F8FF74C0F7FF73C0F6FF72C0D3
:10593000F4FF71C0F3FF70C0DAFF6FC0D9FF6EC013
:10594000E2FF6DC0E1FF6CC0EAFF6BC0E9FF6AC017
:10595000FBFF69C0FAFF11000001775100017811C7
:105960000001791100017A11D8A409D07BC0D9FFB8
:105970007CC0DAFF000EDE6E000EDD6E120000014C
:105980007A517F0B00017D6F7E6BD89000017D37CF
:105990007E377BC0D9FF7CC0DAFF7DC0DEFF7EC0D2
:1059A000DDFF000179AF04D000017D6B7D2B02D0BB
:1059B00000017D6B00017D517BC0D9FF7CC0DAFF07
:1059C000DE12000EDD127BC0D9FF7CC0DAFF820E32
:1059D000DE26FF0EDD227A817A837A857A877A89BC
:1059E0007A8B7A9D0001799F12001200000E00014F
:1059F000666F000E656F0001625100016311D8B43B
:105A000031D0010E0001646F07D00001D8906237D9
:105A100063370001642B00D0000163BF02D0F5D7CB
:105A200000D00001D890653766370001625100014F
:105A3000605D0001635100016159D8A00BD00001E5
:105A400062510001605F000163510001615B000170
:105A5000658100D00001D890633362330001642F68
:105A6000E0D700D065C060F066C061F0120001EEC2
:105A700000F08D0EEE6AE806FDE100EED7F0100EA4
:105A8000EE6AE806FDE1526A516A00EE2AF0270E3E
:105A9000EE6AE806FDE1840EF66E5E0EF76E000E0D
:105AA000F86E01EEF2F010EE08F00900F5CFEEFF0F
:105AB000E550E150FAE18E0EF66E5E0EF76E000EC6
:105AC000F86E0900F5CFE7F08C0EF66E5E0EF76EFD
:105AD000000EF86E0900F5CF53F00900F5CF54F031
:105AE0000001CEEF2AF0000E896EF00E926E000ECD
:105AF0008A6E8A0E936E000E8B6E9468C168060ED5
:105B00000001856F050E0001866F010E0001876F91
:105B1000030E0001886F9D0E0001896F040EC2EC18
:105B200024F0D08EA592A590F194A492A490F29224
:105B3000F294A382A380F28AF298800ED56E340E7E
:105B4000D76EE00ED66E110EB16EF18CF28CF28E25
:105B500012000001CD510001CE110001CF11000152
:105B6000D011D8B40AD0000E0001CD1B000ECE1B00
:105B7000000ECF1B800ED01B00D0C9C09FF0CAC042
:105B8000A0F0CBC0A1F0CCC0A2F0CDC0A3F0CEC09D
:105B9000A4F0CFC0A5F0D0C0A6F01FEC20F09FC0AD
:105BA000C9F0A0C0CAF0A1C0CBF0A2C0CCF01200D6
:105BB0001200000E0001BD6F0001BCAF0DD000014E
:105BC000BC1FBB1FBA1FB96D000EBA23BB23BC2379
:105BD000010E0001BD6F00D0B9C077F0BAC078F0F7
:105BE000BBC079F0BCC07AF0960E00017B6FBDC0DF
:105BF0007CF08EEC26F077C0B9F078C0BAF079C0AE
:105C0000BBF07AC0BCF012001200000E0001856FDC
:105C1000000182AF08D00001816D821FD8B0822BB5
:105C20000001852B00D081C077F082C078F00001A0
:105C3000796B7A6B960E00017B6F85C07CF08EECE1
:105C400026F077C081F078C082F079C083F07AC006
:105C500084F0120012000001B2AF13D0AFC0ABF05D
:105C6000B0C0ACF0B1C0ADF0B2C0AEF04AEC2EF0B6
:105C7000ABC0AFF0ACC0B0F0ADC0B1F0AEC0B2F0F0
:105C80001200AFC0AFF0B0C0B0F0B1C0B1F0B2C060
:105C9000B2F012000001AB510001AC110001AD11D6
:105CA0000001AE11D8B40AD0000E0001AB1B000EEB
:105CB000AC1B000EAD1B800EAE1B00D0ABC0ABF01A
:105CC000ACC0ACF0ADC0ADF0AEC0AEF01200120092
:105CD000E7C077F00001786B7DC079F07EC07AF084
:105CE00085EC2EF077C0E3F078C0E4F007D0500EDA
:105CF000E82EFED70001E307D8A0E4070001E35136
:105D00000001E411D8A4F3D712000001775100017B
:105D10007903F3CF7BF0F4CF7CF0000177510001E1
:105D20007A03F35000017C270001785100017903C8
:105D3000F35000017C277BC077F07CC078F0120024
:105D40001200E7C001F0026A07C003F008C004F0C7
:105D500003EC2FF001C0E3F002C0E4F007D0500ED6
:105D6000E82EFED70001E307D8A0E4070001E351C5
:105D70000001E411D8A4F3D7120081C077F082C0EB
:105D800078F00001796B7A6B960E00017B6F000E44
:105D900000017C6F8EEC26F077C081F078C082F035
:105DA00079C083F07AC084F01200120000017F6F86
:105DB000000E0001806F0AD0030E00017E6FE80E16
:105DC0007D6F68EC2EF00001802B00D000017F5128
:105DD0000001805DD8A0F0D71200000178AF0ED08E
:105DE00077C079F078C07AF00001791F7A1F794B7B
:105DF0007A2B79C077F07AC078F0120077C077F00C
:105E000078C078F0120001500302F3CF05F0F4CF10
:105E100006F001500402F350062602500302F3502C
:105E2000062605C001F006C002F012001200010EA5
:105E30000001776F0F0140A709D00F0130A706D0EE
:105E40000F0120A703D0000E0001776F00017751EA
:105E5000120012000001776F77C06FFF00D06E5004
:105E6000E00B00017719D8A4FAD71200010E016ED9
:105E700060BE05D00F0150BF02D0000E016E015070
:105E8000120012000000044200008C4203061000C1
:020000040020DA
:08000000FFFFFFFFFFFFFFFF00
:020000040030CA
:0E000000FF021F1EFF8081FF3FC03FE03F4018
:00000001FF
