:0400000099EF01F083
:0E0008005582FACF69F0FBCF6AF088EF30F036
:100018005580D8CF3EF0E8CF3FF0E0CF40F0FACFA0
:1000280041F0FBCF42F0E9CF43F0EACF44F0E1CF13
:1000380045F0E2CF46F0D9CF47F0DACF48F0F3CF1A
:1000480049F0F4CF4AF0F6CF4BF0F7CF4CF0F8CFA9
:100058004DF0F5CF4EF0F2A4A3D0F298D59E340E11
:10006800D76EE00ED66ED58E51A80CD02550020D55
:10007800010EF324D96E000EF420DA6E880EDE6EBF
:10008800130EDD6E2550020D010EF324D96E000EFD
:10009800F420DA6E010EDB5013E10A0EDE5CD8A004
:1000A80052BA0ED025C03AF0010E3B6E3A2A02D061
:1000B800D8903B363A2EFCD73B50010183114DD0E6
:1000C8002550020D010EF324D96E000EF420DA6ECD
:1000D800010EDB5034E1040EDE5CD8A052AA2FD00A
:1000E80051B42DD0282A050E286439D02550D8B40B
:1000F80007D02504D8B404D0020E2518D8A42FD0D0
:10010800000E0101546F040E0101536F53EC33F0DC
:100118000009D8B4FBD70B0E2A6E000E2B6E000E0A
:100128002C6E000E2D6E530E2E6E010E2F6E080EC5
:10013800306EBC0E316EF2EC0FF0FF0010D025C00F
:100148003AF0010E3B6E3A2A02D0D8903B363A2E4E
:10015800FCD73B50FF0A010183150101836F252A53
:10016800080E2518D8A402D0000E256E000E4F6E7A
:100178002550010D000EF324D96E010EF420DA6E1D
:10018800DF504F6E4FC080FF93908A80140EE82E88
:10019800FED751888A909380F292F288F294F18C7B
:1001A800A4A0A4B201D09DD0440E2A6E010E2B6EDD
:1001B800FFEC15F00D0E0101441901014511010173
:1001C800461101014711D8B45192070E0101441993
:1001D800010145110101461101014711D8A42DD093
:1001E80001015205D8B429D0000E0001E36F000EBA
:1001F800E26F49C119F01A6A19503A6E0101485163
:10020800196E3AC01AF04BC11BF01C6A1B503A6EAB
:1002180001014A511B6E3AC01CF019501B243A6E5A
:100228001A501C203B6ED8903B303C6E3A3000018F
:10023800E26F3CC0E3F0518A518C0A0E0101441967
:10024800010145110101461101014711D8A40CD043
:1002580001014805D8A403D05180818C05D0519064
:100268008198819A819C52960C0E010144190101D2
:1002780045110101461101014711D8B4528A060EF1
:1002880001014419010145110101461101014711FC
:10029800D8A41AD0000E506E070E506401D014D0A6
:1002A8005050010D480EF324D96E010EF420DA6E79
:1002B8005050010D080EF324E16E010EF420E26E99
:1002C800DFCFE7FF502AE8D70D0E010144190101DD
:1002D80045110101461101014711D8B4519EA4905E
:1002E800A4924EC0F5FF4DC0F8FF4CC0F7FF4BC0BD
:1002F800F6FF4AC0F4FF49C0F3FF48C0DAFF47C021
:10030800D9FF46C0E2FF45C0E1FF44C0EAFF43C051
:10031800E9FF42C0FBFF41C0FAFF40C0E0FF3FC019
:0E032800E8FF3EC0D8FF55901000A5EF31F061
:100D000000063C04427D9F6A425C900142604DBBFC
:100D10004051EC473EDE8D1FBB063C0442C0598B60
:100D20004274044442F99B4F410000803FECF34A77
:100D300048359595C717C1DC45FDDB6DC372B333EC
:100D4000402B3401487F9DB045E7FFD94200008029
:100D50003F000001806F000180510001D8A458D0ED
:100D600000017B29D8A454D00F01019777C07CF0F3
:100D700078C07DF079C07EF07AC07FF0040E06D096
:100D80000001D8907F337E337D337C33E82EF8D753
:100D90007CC081F07DC082F07EC083F07FC084F093
:100DA000000181510001816F826B836B846B81C074
:100DB00000FF070E000177150001816F000E000192
:100DC00078150001826F000E000179150001836F14
:100DD000000E00017A150001846F81C07CF082C092
:100DE0007DF083C07EF084C07FF0050ED8900001B6
:100DF0007C377D377E377F37E82EF8D77CC081F08F
:100E00007DC082F07EC083F07FC084F081C001FF8E
:100E100000018005D8A458D000017B29D8A454D063
:100E20000F01059777C07CF078C07DF079C07EF027
:100E30007AC07FF0040E06D00001D8907F337E3355
:100E40007D337C33E82EF8D77CC081F07DC082F002
:100E50007EC083F07FC084F0000181510001816F6A
:100E6000826B836B846B81C004FF070E00017715D2
:100E70000001816F000E000178150001826F000EE5
:100E8000000179150001836F000E00017A15000141
:100E9000846F81C07CF082C07DF083C07EF084C00E
:100EA0007FF0050ED89000017C377D377E377F3785
:100EB000E82EF8D77CC081F07DC082F07EC083F040
:100EC0007FC084F081C005FF020E00018019D8A404
:100ED00058D000017B29D8A454D00F01099777C0BE
:100EE0007CF078C07DF079C07EF07AC07FF0040E8F
:100EF00006D00001D8907F337E337D337C33E82EDB
:100F0000F8D77CC081F07DC082F07EC083F07FC0C6
:100F100084F0000181510001816F826B836B846BCF
:100F200081C008FF070E000177150001816F000ED8
:100F3000000178150001826F000E00017915000193
:100F4000836F000E00017A150001846F81C07CF070
:100F500082C07DF083C07EF084C07FF0050ED89003
:100F600000017C377D377E377F37E82EF8D77CC08D
:100F700081F07DC082F07EC083F07FC084F081C0AC
:100F800009FF030E00018019D8A458D000017B2965
:100F9000D8A454D00F010D9777C07CF078C07DF0B5
:100FA00079C07EF07AC07FF0040E06D00001D890A0
:100FB0007F337E337D337C33E82EF8D77CC081F0DD
:100FC0007DC082F07EC083F07FC084F0000181513B
:100FD0000001816F826B836B846B81C00CFF070EF5
:100FE000000177150001816F000E000178150001E6
:100FF000826F000E000179150001836F000E000161
:101000007A150001846F81C07CF082C07DF083C0BE
:101010007EF084C07FF0050ED89000017C377D37CC
:101020007E377F37E82EF8D77CC081F07DC082F014
:101030007EC083F07FC084F081C00DFF040E0001EC
:101040008019D8A458D000017B29D8A454D00F010E
:10105000119777C07CF078C07DF079C07EF07AC0BF
:101060007FF0040E06D00001D8907F337E337D33AD
:101070007C33E82EF8D77CC081F07DC082F07EC042
:1010800083F07FC084F0000181510001816F826B89
:10109000836B846B81C010FF070E00017715000180
:1010A000816F000E000178150001826F000E0001B3
:1010B00079150001836F000E00017A150001846F1D
:1010C00081C07CF082C07DF083C07EF084C07FF060
:1010D000050ED89000017C377D377E377F37E82EAC
:1010E000F8D77CC081F07DC082F07EC083F07FC0E5
:1010F00084F081C011FF050E00018019D8A458D0DA
:1011000000017B29D8A454D00F01159777C07CF03B
:1011100078C07DF079C07EF07AC07FF0040E06D0F2
:101120000001D8907F337E337D337C33E82EF8D7AF
:101130007CC081F07DC082F07EC083F07FC084F0EF
:10114000000181510001816F826B836B846B81C0D0
:1011500014FF070E000177150001816F000E0001DA
:1011600078150001826F000E000179150001836F70
:10117000000E00017A150001846F81C07CF082C0EE
:101180007DF083C07EF084C07FF0050ED890000112
:101190007C377D377E377F37E82EF8D77CC081F0EB
:1011A0007DC082F07EC083F07FC084F081C015FFD7
:1011B000000180510001D8A489D0F70E00017B19ED
:1011C000D8A484D00F010187000177510001816FFD
:1011D000826B836B846B81C003FF000E0001771567
:1011E0000001816FFF0E000178150001826F000E73
:1011F000000179150001836F000E00017A150001CE
:10120000846F81C07CF082C07DF083C07EF084C09A
:101210007FF07DC07CF07EC07DF07FC07EF000015D
:101220007F6B7CC081F07DC082F07EC083F07FC088
:1012300084F081C002FF000179A103D00F01018178
:1012400002D00F010191000179A303D00F010183A6
:1012500002D00F010193000179A503D00F01018B8A
:1012600002D00F01019B000179A703D00F01018D6E
:1012700002D00F01019D000179A903D00F01018F58
:1012800002D00F01019F77C07CF078C07DF079C05B
:101290007EF07AC07FF0160E06D00001D8907F3322
:1012A0007E337D337C33E82EF8D77CC081F07DC05F
:1012B00082F07EC083F07FC084F000018151000184
:1012C000816F826B836B846B81C000FF000180059E
:1012D000D8A489D0F70E00017B19D8A484D00F01BF
:1012E0000587000177510001816F826B836B846BEE
:1012F00081C007FF000E000177150001816FFF0E0E
:10130000000178150001826F000E000179150001BF
:10131000836F000E00017A150001846F81C07CF09C
:1013200082C07DF083C07EF084C07FF07DC07CF001
:101330007EC07DF07FC07EF000017F6B7CC081F0BD
:101340007DC082F07EC083F07FC084F081C006FF44
:10135000000179A103D00F01058102D00F01059191
:10136000000179A303D00F01058302D00F0105937B
:10137000000179A503D00F01058B02D00F01059B59
:10138000000179A703D00F01058D02D00F01059D43
:10139000000179A903D00F01058F02D00F01059F2D
:1013A00077C07CF078C07DF079C07EF07AC07FF0A5
:1013B000160E06D00001D8907F337E337D337C3308
:1013C000E82EF8D77CC081F07DC082F07EC083F02B
:1013D0007FC084F0000181510001816F826B836BBB
:1013E000846B81C004FF020E00018019D8A489D04B
:1013F000F70E00017B19D8A484D00F0109870001E2
:1014000077510001816F826B836B846B81C00BFF0E
:10141000000E000177150001816FFF0E00017815A5
:101420000001826F000E000179150001836F000E2C
:1014300000017A150001846F81C07CF082C07DF0CC
:1014400083C07EF084C07FF07DC07CF07EC07DF0E4
:101450007FC07EF000017F6B7CC081F07DC082F098
:101460007EC083F07FC084F081C00AFF000179A1B3
:1014700003D00F01098102D00F010991000179A366
:1014800003D00F01098302D00F010993000179A550
:1014900003D00F01098B02D00F01099B000179A72E
:1014A00003D00F01098D02D00F01099D000179A918
:1014B00003D00F01098F02D00F01099F77C07CF084
:1014C00078C07DF079C07EF07AC07FF0160E06D02D
:1014D0000001D8907F337E337D337C33E82EF8D7FC
:1014E0007CC081F07DC082F07EC083F07FC084F03C
:1014F000000181510001816F826B836B846B81C01D
:1015000008FF030E00018019D8A489D0F70E00014E
:101510007B19D8A484D00F010D87000177510001F9
:10152000816F826B836B846B81C00FFF000E0001A3
:1015300077150001816FFF0E000178150001826FA1
:10154000000E000179150001836F000E00017A156D
:101550000001846F81C07CF082C07DF083C07EF08A
:1015600084C07FF07DC07CF07EC07DF07FC07EF0C7
:1015700000017F6B7CC081F07DC082F07EC083F073
:101580007FC084F081C00EFF000179A103D00F015C
:101590000D8102D00F010D91000179A303D00F013D
:1015A0000D8302D00F010D93000179A503D00F0127
:1015B0000D8B02D00F010D9B000179A703D00F0105
:1015C0000D8D02D00F010D9D000179A903D00F01EF
:1015D0000D8F02D00F010D9F77C07CF078C07DF099
:1015E00079C07EF07AC07FF0160E06D00001D89048
:1015F0007F337E337D337C33E82EF8D77CC081F097
:101600007DC082F07EC083F07FC084F000018151F4
:101610000001816F826B836B846B81C00CFF040EB1
:1016200000018019D8A489D0F70E00017B19D8A435
:1016300084D00F011187000177510001816F826B07
:10164000836B846B81C013FF000E000177150001CE
:10165000816FFF0E000178150001826F000E0001FE
:1016600079150001836F000E00017A150001846F67
:1016700081C07CF082C07DF083C07EF084C07FF0AA
:101680007DC07CF07EC07DF07FC07EF000017F6B6E
:101690007CC081F07DC082F07EC083F07FC084F08A
:1016A00081C012FF000179A103D00F01118102D086
:1016B0000F011191000179A303D00F01118302D012
:1016C0000F011193000179A503D00F01118B02D0F6
:1016D0000F01119B000179A703D00F01118D02D0DA
:1016E0000F01119D000179A903D00F01118F02D0C4
:1016F0000F01119F77C07CF078C07DF079C07EF03B
:101700007AC07FF0160E06D00001D8907F337E336A
:101710007D337C33E82EF8D77CC081F07DC082F029
:101720007EC083F07FC084F0000181510001816F91
:10173000826B836B846B81C010FF050E00018019E2
:10174000D8A41200F70E00017B19D8A412000F01D3
:101750001587000177510001816F826B836B846B69
:1017600081C017FF000E000177150001816FFF0E89
:10177000000178150001826F000E0001791500014B
:10178000836F000E00017A150001846F81C07CF028
:1017900082C07DF083C07EF084C07FF07DC07CF08D
:1017A0007EC07DF07FC07EF000017F6B7CC081F049
:1017B0007DC082F07EC083F07FC084F081C016FFC0
:1017C000000179A103D00F01158102D00F011591FD
:1017D000000179A303D00F01158302D00F011593E7
:1017E000000179A503D00F01158B02D00F01159BC5
:1017F000000179A703D00F01158D02D00F01159DAF
:10180000000179A903D00F01158F02D00F01159F98
:1018100077C07CF078C07DF079C07EF07AC07FF030
:10182000160E06D00001D8907F337E337D337C3393
:10183000E82EF8D77CC081F07DC082F07EC083F0B6
:101840007FC084F0000181510001816F826B836B46
:10185000846B81C014FF12000F0140B73FD17DC0DF
:1018600045FF00017EAD03D00F01458D02D00F0171
:10187000459D00017EA779D0000177510001836F5B
:10188000846B856B866B83C044FF000E0001771567
:101890000001836FFF0E000178150001846F000EB8
:1018A000000179150001856F000E00017A15000115
:1018B000866F83C07FF084C080F085C081F086C0D1
:1018C00082F080C07FF081C080F082C081F0000192
:1018D000826B7FC083F080C084F081C085F082C0BD
:1018E00086F083C043FF000E0F01426F0F01428755
:1018F000000179A102D00F014281000179A302D039
:101900000F014283000179A502D00F01428B000133
:1019100079A702D00F01428D000179A902D00F01F1
:10192000428F77C07FF078C080F079C081F07AC0B4
:1019300082F0160E06D00001D890823381338033B6
:101940007F33E82EF8D77FC083F080C084F081C059
:1019500085F082C086F0000183510001836F846BA3
:10196000856B866B83C041FF59D00F01429777C0CA
:101970007FF078C080F079C081F07AC082F0040EE8
:1019800006D00001D8908233813380337F33E82E34
:10199000F8D77FC083F080C084F081C085F082C01A
:1019A00086F0000183510001836F846B856B866B29
:1019B00083C041FF070E000177150001836F000E01
:1019C000000178150001846F000E000179150001F7
:1019D000856F000E00017A150001866F83C07FF0CD
:1019E00084C080F085C081F086C082F0050ED8905A
:1019F00000017F37803781378237E82EF8D77FC0E4
:101A000083F080C084F081C085F082C086F00F0131
:101A100042511F0B0F01426F83C042FF00017EA1A4
:101A200003D00F01408102D00F01409100017EA33D
:101A300003D00F01408302D00F0140937BC0D9FF38
:101A40007CC0DAFFDF500F01466F000120EE01F08D
:101A50007B51D9267C51DA22DF500F01476F0001FC
:101A600020EE02F07B51D9267C51DA22DF500F01A3
:101A7000486F000120EE03F07B51D9267C51DA2219
:101A8000DF500F01496F000120EE04F07B51D92691
:101A90007C51DA22DF500F014A6F000120EE05F081
:101AA0007B51D9267C51DA22DF500F014B6F0001A8
:101AB00020EE06F07B51D9267C51DA22DF500F014F
:101AC0004C6F000120EE07F07B51D9267C51DA22C1
:101AD000DF500F014D6F0F01408712000F0130B72B
:101AE0003FD17DC035FF00017EAD03D00F01358DA4
:101AF00002D00F01359D00017EA779D000017751FA
:101B00000001836F846B856B866B83C034FF000E8E
:101B1000000177150001836FFF0E000178150001A9
:101B2000846F000E000179150001856F000E000121
:101B30007A150001866F83C07FF084C080F085C075
:101B400081F086C082F080C07FF081C080F082C0CA
:101B500081F00001826B7FC083F080C084F081C07F
:101B600085F082C086F083C033FF000E0F01326F14
:101B70000F013287000179A102D00F0132810001EB
:101B800079A302D00F013283000179A502D00F01A1
:101B9000328B000179A702D00F01328D000179A9A3
:101BA00002D00F01328F77C07FF078C080F079C00B
:101BB00081F07AC082F0160E06D00001D8908233F0
:101BC000813380337F33E82EF8D77FC083F080C025
:101BD00084F081C085F082C086F00001835100014D
:101BE000836F846B856B866B83C031FF59D00F0187
:101BF000329777C07FF078C080F079C081F07AC0EA
:101C000082F0040E06D00001D890823381338033F5
:101C10007F33E82EF8D77FC083F080C084F081C086
:101C200085F082C086F0000183510001836F846BD0
:101C3000856B866B83C031FF070E000177150001AD
:101C4000836F000E000178150001846F000E000103
:101C500079150001856F000E00017A150001866F6D
:101C600083C07FF084C080F085C081F086C082F0A0
:101C7000050ED89000017F37803781378237E82EF4
:101C8000F8D77FC083F080C084F081C085F082C027
:101C900086F00F0132511F0B0F01326F83C032FFEC
:101CA00000017EA103D00F01308102D00F013091DD
:101CB00000017EA303D00F01308302D00F013093C7
:101CC0007BC0D9FF7CC0DAFFDF500F01366F000107
:101CD00020EE01F07B51D9267C51DA22DF500F0132
:101CE000376F000120EE02F07B51D9267C51DA22B9
:101CF000DF500F01386F000120EE03F07B51D92631
:101D00007C51DA22DF500F01396F000120EE04F020
:101D10007B51D9267C51DA22DF500F013A6F000146
:101D200020EE05F07B51D9267C51DA22DF500F01DD
:101D30003B6F000120EE06F07B51D9267C51DA2260
:101D4000DF500F013C6F000120EE07F07B51D926D8
:101D50007C51DA22DF500F013D6F0F0130871200F6
:101D60000F0120B712007DC025FF00017EAD03D01A
:101D70000F01258D02D00F01259D00017EA779D08E
:101D8000000177510001836F846B856B866B83C084
:101D900024FF000E000177150001836FFF0E000184
:101DA00078150001846F000E000179150001856F20
:101DB000000E00017A150001866F83C07FF084C099
:101DC00080F085C081F086C082F080C07FF081C045
:101DD00080F082C081F00001826B7FC083F080C000
:101DE00084F081C085F082C086F083C023FF000E9E
:101DF0000F01226F0F012287000179A102D00F018C
:101E00002281000179A302D00F012283000179A56C
:101E100002D00F01228B000179A702D00F01228D81
:101E2000000179A902D00F01228F77C07FF078C01E
:101E300080F079C081F07AC082F0160E06D00001E1
:101E4000D8908233813380337F33E82EF8D77FC038
:101E500083F080C084F081C085F082C086F00001EC
:101E600083510001836F846B856B866B83C021FF78
:101E700059D00F01229777C07FF078C080F079C0E9
:101E800081F07AC082F0040E06D00001D89082332F
:101E9000813380337F33E82EF8D77FC083F080C052
:101EA00084F081C085F082C086F00001835100017A
:101EB000836F846B856B866B83C021FF070E0001E7
:101EC00077150001836F000E000178150001846F03
:101ED000000E000179150001856F000E00017A15D2
:101EE0000001866F83C07FF084C080F085C081F0E0
:101EF00086C082F0050ED89000017F378037813789
:101F00008237E82EF8D77FC083F080C084F081C08C
:101F100085F082C086F00F0122511F0B0F01226F46
:101F200083C022FF00017EA103D00F01208102D0D7
:101F30000F01209100017EA303D00F01208302D066
:101F40000F0120937BC0D9FF7CC0DAFFDF500F0167
:101F5000266F000120EE01F07B51D9267C51DA2258
:101F6000DF500F01276F000120EE02F07B51D926D0
:101F70007C51DA22DF500F01286F000120EE03F0C0
:101F80007B51D9267C51DA22DF500F01296F0001E5
:101F900020EE04F07B51D9267C51DA22DF500F016C
:101FA0002A6F000120EE05F07B51D9267C51DA2200
:101FB000DF500F012B6F000120EE06F07B51D92678
:101FC0007C51DA22DF500F012C6F000120EE07F068
:101FD0007B51D9267C51DA22DF500F012D6F0F0182
:101FE000208712000F0140B715D130C045FF31AC3A
:101FF00003D00F01458D02D00F01459D31A666D05B
:102000002A50366E376A386A396A36C044FF000E85
:102010002A14366EFF0E2B14376E000E2C14386EF9
:10202000000E2D14396E36C032F037C033F038C090
:1020300034F039C035F033C032F034C033F035C03D
:1020400034F0356A32C036F033C037F034C038F07F
:1020500035C039F036C043FF000E0F01426F0F014B
:1020600042872CA002D00F0142812CA202D00F0186
:1020700042832CA402D00F01428B2CA602D00F0168
:10208000428D2CA802D00F01428F2AC032F02BC003
:1020900033F02CC034F02DC035F0160E05D0D8909A
:1020A0003532343233323232E82EF9D732C036F09C
:1020B00033C037F034C038F035C039F03650366EA2
:1020C000376A386A396A36C041FF4DD00F014297EE
:1020D0002AC032F02BC033F02CC034F02DC035F0C4
:1020E000040E05D0D8903532343233323232E82EF5
:1020F000F9D732C036F033C037F034C038F035C0CD
:1021000039F03650366E376A386A396A36C041FF60
:10211000070E2A14366E000E2B14376E000E2C1488
:10212000386E000E2D14396E36C032F037C033F0E1
:1021300038C034F039C035F0050ED8903236333619
:1021400034363536E82EF9D732C036F033C037F0A2
:1021500034C038F035C039F00F0142511F0B0F0168
:10216000426F36C042FF31A003D00F01408102D040
:102170000F01409131A203D00F01408302D00F0123
:1021800040932EC0D9FF2FC0DAFFDF500F01466FFA
:1021900020EE01F02E50D9262F50DA22DF500F0109
:1021A000476F20EE02F02E50D9262F50DA22DF5052
:1021B0000F01486F20EE03F02E50D9262F50DA225F
:1021C000DF500F01496F20EE04F02E50D9262F501A
:1021D000DA22DF500F014A6F20EE05F02E50D9268B
:1021E0002F50DA22DF500F014B6F20EE06F02E50F9
:1021F000D9262F50DA22DF500F014C6F20EE07F066
:102200002E50D9262F50DA22DF500F014D6F0F01CB
:10221000408712000F0130B715D130C035FF31AC07
:1022200003D00F01358D02D00F01359D31A666D048
:102230002A50366E376A386A396A36C034FF000E63
:102240002A14366EFF0E2B14376E000E2C14386EC7
:10225000000E2D14396E36C032F037C033F038C05E
:1022600034F039C035F033C032F034C033F035C00B
:1022700034F0356A32C036F033C037F034C038F04D
:1022800035C039F036C033FF000E0F01326F0F0139
:1022900032872CA002D00F0132812CA202D00F0174
:1022A00032832CA402D00F01328B2CA602D00F0156
:1022B000328D2CA802D00F01328F2AC032F02BC0F1
:1022C00033F02CC034F02DC035F0160E05D0D89068
:1022D0003532343233323232E82EF9D732C036F06A
:1022E00033C037F034C038F035C039F03650366E70
:1022F000376A386A396A36C031FF4DD00F013297DC
:102300002AC032F02BC033F02CC034F02DC035F091
:10231000040E05D0D8903532343233323232E82EC2
:10232000F9D732C036F033C037F034C038F035C09A
:1023300039F03650366E376A386A396A36C031FF3E
:10234000070E2A14366E000E2B14376E000E2C1456
:10235000386E000E2D14396E36C032F037C033F0AF
:1023600038C034F039C035F0050ED89032363336E7
:1023700034363536E82EF9D732C036F033C037F070
:1023800034C038F035C039F00F0132511F0B0F0146
:10239000326F36C032FF31A003D00F01308102D03E
:1023A0000F01309131A203D00F01308302D00F0111
:1023B00030932EC0D9FF2FC0DAFFDF500F01366FE8
:1023C00020EE01F02E50D9262F50DA22DF500F01D7
:1023D000376F20EE02F02E50D9262F50DA22DF5030
:1023E0000F01386F20EE03F02E50D9262F50DA223D
:1023F000DF500F01396F20EE04F02E50D9262F50F8
:10240000DA22DF500F013A6F20EE05F02E50D92668
:102410002F50DA22DF500F013B6F20EE06F02E50D6
:10242000D9262F50DA22DF500F013C6F20EE07F043
:102430002E50D9262F50DA22DF500F013D6F0F01A9
:10244000308712000F0120B7120030C025FF31ACD9
:1024500003D00F01258D02D00F01259D31A666D036
:102460002A50366E376A386A396A36C024FF000E41
:102470002A14366EFF0E2B14376E000E2C14386E95
:10248000000E2D14396E36C032F037C033F038C02C
:1024900034F039C035F033C032F034C033F035C0D9
:1024A00034F0356A32C036F033C037F034C038F01B
:1024B00035C039F036C023FF000E0F01226F0F0127
:1024C00022872CA002D00F0122812CA202D00F0162
:1024D00022832CA402D00F01228B2CA602D00F0144
:1024E000228D2CA802D00F01228F2AC032F02BC0DF
:1024F00033F02CC034F02DC035F0160E05D0D89036
:102500003532343233323232E82EF9D732C036F037
:1025100033C037F034C038F035C039F03650366E3D
:10252000376A386A396A36C021FF4DD00F012297C9
:102530002AC032F02BC033F02CC034F02DC035F05F
:10254000040E05D0D8903532343233323232E82E90
:10255000F9D732C036F033C037F034C038F035C068
:1025600039F03650366E376A386A396A36C021FF1C
:10257000070E2A14366E000E2B14376E000E2C1424
:10258000386E000E2D14396E36C032F037C033F07D
:1025900038C034F039C035F0050ED89032363336B5
:1025A00034363536E82EF9D732C036F033C037F03E
:1025B00034C038F035C039F00F0122511F0B0F0124
:1025C000226F36C022FF31A003D00F01208102D03C
:1025D0000F01209131A203D00F01208302D00F01FF
:1025E00020932EC0D9FF2FC0DAFFDF500F01266FD6
:1025F00020EE01F02E50D9262F50DA22DF500F01A5
:10260000276F20EE02F02E50D9262F50DA22DF500D
:102610000F01286F20EE03F02E50D9262F50DA221A
:10262000DF500F01296F20EE04F02E50D9262F50D5
:10263000DA22DF500F012A6F20EE05F02E50D92646
:102640002F50DA22DF500F012B6F20EE06F02E50B4
:10265000D9262F50DA22DF500F012C6F20EE07F021
:102660002E50D9262F50DA22DF500F012D6F0F0187
:102670002087120034C1ADF035C1AEF036C1AFF0E5
:1026800037C1B0F0000E00017B6F000E7C6F000EB2
:102690007D6F400E7E6FE8C177F0E9C178F0EAC146
:1026A00079F0EBC17AF059EC21F077C0A9F078C04D
:1026B000AAF079C0ABF07AC0ACF085EC18F0A9C0F4
:1026C000BDF0AAC0BEF0ABC0BFF0ACC0C0F0DEEC45
:1026D00032F0BDC0C0F1BEC0C1F1BFC0C2F1C0C0C8
:1026E000C3F1C0C1ADF0C1C1AEF0C2C1AFF0C3C152
:1026F000B0F0000E0001946F000E956F000E966F03
:10270000400E976FECC190F0EDC191F0EEC192F0E8
:10271000EFC193F0D9EC1AF090C0A9F091C0AAF0E3
:1027200092C0ABF093C0ACF085EC18F0A9C0C4F136
:10273000AAC0C5F1ABC0C6F1ACC0C7F1000E000124
:102740007B6F000E7C6F000E7D6F400E7E6FE8C1C8
:1027500077F0E9C178F0EAC179F0EBC17AF059EC91
:1027600021F077C0BDF078C0BEF079C0BFF07AC06C
:10277000C0F0DEEC32F0BDC0ADF0BEC0AEF0BFC008
:10278000AFF0C0C0B0F0C4C1A9F0C5C1AAF0C6C1C5
:10279000ABF0C7C1ACF085EC18F0A9C0C8F1AAC075
:1027A000C9F1ABC0CAF1ACC0CBF1C8C177F0C9C1A7
:1027B00078F0CAC179F0CBC17AF0000E0001946FB5
:1027C000000E956F000E966F400E976FECC190F063
:1027D000EDC191F0EEC192F0EFC193F0D9EC1AF097
:1027E00090C07BF091C07CF092C07DF093C07EF0F1
:1027F00059EC21F077C0CCF178C0CDF179C0CEF1A1
:102800007AC0CFF1CCC1A0F1CDC1A1F1CEC1A2F16E
:10281000CFC1A3F194EC26F0A0C12CF1A1C12DF100
:10282000A2C12EF1A3C12FF1DB0E00017B6F0F0EB1
:102830007C6F490E7D6F400E7E6F2CC177F02DC1ED
:1028400078F02EC179F02FC17AF059EC21F077C0E1
:1028500090F078C091F079C092F07AC093F0000EB9
:102860000001946F000E956F340E966F430E976FB4
:10287000D9EC1AF090C02CF191C02DF192C02EF13C
:1028800093C02FF12CC1BDF02DC1BEF02EC1BFF001
:102890002FC1C0F0DEEC32F0BDC0A9F0BEC0AAF07E
:1028A000BFC0ABF0C0C0ACF0000E0001AD6F000EB9
:1028B000AE6FB40EAF6F420EB06F85EC18F0A9C0CA
:1028C00030F1AAC031F1ABC032F1ACC033F1DB0E54
:1028D0000001946F0F0E956F490E966F400E976F23
:1028E0002CC190F02DC191F02EC192F02FC193F028
:1028F000D9EC1AF090C077F091C078F092C079F0DE
:1029000093C07AF0000E00017B6F000E7C6F340ED6
:102910007D6F430E7E6F59EC21F077C02CF178C0AB
:102920002DF179C02EF17AC02FF12CC1B8F12DC153
:10293000B9F12EC1BAF12FC1BBF116EC30F0B8C11C
:1029400038F1B9C139F1BAC13AF1BBC13BF138C173
:1029500094F039C195F03AC196F03BC197F0ECC1C3
:1029600090F0EDC191F0EEC192F0EFC193F0D9EC8F
:102970001AF090C0D8F191C0D9F192C0DAF193C0A9
:10298000DBF1D8C190F0D9C191F0DAC192F0DBC18E
:1029900093F0000E0001946F000E956F000E966F7D
:1029A000400E976FD9EC1AF090C038F191C039F110
:1029B00092C03AF193C03BF130C194F031C195F02F
:1029C00032C196F033C197F0ECC190F0EDC191F0B7
:1029D000EEC192F0EFC193F0D9EC1AF090C0D8F1AB
:1029E00091C0D9F192C0DAF193C0DBF1DB0E0001A6
:1029F000946F0F0E956FC90E966F400E976FD8C1EA
:102A000090F0D9C191F0DAC192F0DBC193F0D9EC2A
:102A10001AF090C077F091C078F092C079F093C02E
:102A20007AF0000E00017B6F000E7C6FB40E7D6F9C
:102A3000430E7E6F59EC21F077C040F178C041F130
:102A400079C042F17AC043F1000E00017B6F000EA5
:102A50007C6F400E7D6F400E7E6F000E0001946F04
:102A6000000E956F000E966F400E976FE8C190F0C4
:102A7000E9C191F0EAC192F0EBC193F0D9EC1AF000
:102A800090C077F091C078F092C079F093C07AF05E
:102A900059EC21F077C0A9F078C0AAF079C0ABF06A
:102AA0007AC0ACF0ECC1ADF0EDC1AEF0EEC1AFF06C
:102AB000EFC1B0F085EC18F0A9C024F1AAC025F14F
:102AC000ABC026F1ACC027F1000E00017B6F000EF9
:102AD0007C6F400E7D6F400E7E6F000E0001946F84
:102AE000000E956F000E966F400E976FE8C190F044
:102AF000E9C191F0EAC192F0EBC193F0D9EC1AF080
:102B000090C077F091C078F092C079F093C07AF0DD
:102B100059EC21F077C0BDF078C0BEF079C0BFF0AD
:102B20007AC0C0F0DEEC32F0BDC0A9F0BEC0AAF0A1
:102B3000BFC0ABF0C0C0ACF0ECC1ADF0EDC1AEF0C9
:102B4000EEC1AFF0EFC1B0F085EC18F0A9C020F1F4
:102B5000AAC021F1ABC022F1ACC023F124C17BF0AB
:102B600025C17CF026C17DF027C17EF020C177F021
:102B700021C178F022C179F023C17AF059EC21F01B
:102B800077C0D0F178C0D1F179C0D2F17AC0D3F159
:102B9000D0C1A0F1D1C1A1F1D2C1A2F1D3C1A3F1A1
:102BA00094EC26F0A0C1B8F1A1C1B9F1A2C1BAF16B
:102BB000A3C1BBF116EC30F0B8C1D4F1B9C1D5F165
:102BC000BAC1D6F1BBC1D7F1D4C190F0D5C191F053
:102BD000D6C192F0D7C193F024C194F025C195F0ED
:102BE00026C196F027C197F0D9EC1AF090C028F1D1
:102BF00091C029F192C02AF193C02BF11200000E6E
:102C0000346E74BE348074BC34820F0150AF43D133
:102C10002AC0D9FF2BC0DAFFDE6ADE6ADE6ADD6A0F
:102C200020EE04F02A50D9262B50DA2256CFDFFFAF
:102C300020EE05F02A50D9262B50DA2257CFDFFF9D
:102C400020EE06F02A50D9262B50DA2258CFDFFF8B
:102C500020EE07F02A50D9262B50DA2259CFDFFF79
:102C600020EE08F02A50D9262B50DA225ACFDFFF67
:102C700020EE09F02A50D9262B50DA225BCFDFFF55
:102C800020EE0AF02A50D9262B50DA225CCFDFFF43
:102C900020EE0BF02A50D9262B50DA225DCFDFFF31
:102CA00020EE0EF02A50D9262B50DA220F0155AD16
:102CB00002D0010E01D0000EDF6E20EE0DF02A5082
:102CC000D9262B50DA220F0155510F0BDF6E20EE63
:102CD0000CF02A50D9262B50DA220F0152A702D02D
:102CE000010E01D0000EDF6E0F0152B744D051CF5C
:102CF0002CF02D6A2E6A2F6A030ED8902C362D36B2
:102D00002E362F36E82EF9D72AC0D9FF2BC0DAFF8E
:102D10002CC0DEFF2DC0DEFF2EC0DEFF2FC0DEFF89
:102D20000F015239E842070B070B356E2AC0D9FF55
:102D30002BC0DAFFDECF2CF0DECF2DF0DECF2EF071
:102D4000DECF2FF035502C24306E000E2D20316E4A
:102D5000000E2E20326E000E2F20336E2AC0D9FFB7
:102D60002BC0DAFF30C0DEFF31C0DEFF32C0DEFF35
:102D700033C0DEFF8DD054CF2CF02D6A2E6A2F6A1F
:102D80002AC0D9FF2BC0DAFF2CC0DEFF2DC0DEFF2A
:102D90002EC0DEFF2FC0DEFF53CF2CF02D6A2E6A2F
:102DA0002F6A2EC02FF02DC02EF02CC02DF02C6AD3
:102DB0002AC0D9FF2BC0DAFF2C50DE262D50DE2290
:102DC0002E50DE222F50DE220F0152A10CD02AC03D
:102DD000D9FF2BC0DAFF000EDE12000EDE12010E4C
:102DE000DE12000EDE120F0152A30CD02AC0D9FF52
:102DF0002BC0DAFF000EDE12000EDE12020EDE1213
:102E0000000EDE120F0152AB0CD02AC0D9FF2BC02E
:102E1000DAFF000EDE12000EDE12040EDE12000ECD
:102E2000DE120F0152AD0CD02AC0D9FF2BC0DAFF41
:102E3000000EDE12000EDE12080EDE12000EDE1292
:102E40000F0152AF0CD02AC0D9FF2BC0DAFF000E01
:102E5000DE12000EDE12100EDE12000EDE1251CF58
:102E60002CF02D6A2E6A2F6A150ED8902C362D362E
:102E70002E362F36E82EF9D72AC0D9FF2BC0DAFF1D
:102E80002C50DE122D50DE122E50DE122F50DE128C
:102E90000F01509F120060AE12002AC0D9FF2BC054
:102EA000DAFFDE6ADE6ADE6ADD6A20EE04F02A50AE
:102EB000D9262B50DA2266CFDFFF20EE05F02A500C
:102EC000D9262B50DA2267CFDFFF20EE06F02A50FA
:102ED000D9262B50DA2268CFDFFF20EE07F02A50E8
:102EE000D9262B50DA2269CFDFFF20EE08F02A50D6
:102EF000D9262B50DA226ACFDFFF20EE09F02A50C4
:102F0000D9262B50DA226BCFDFFF20EE0AF02A50B1
:102F1000D9262B50DA226CCFDFFF20EE0BF02A509F
:102F2000D9262B50DA226DCFDFFF20EE0EF02A508B
:102F3000D9262B50DA2265AC02D0010E01D0000E4A
:102F4000DF6E20EE0DF02A50D9262B50DA22655084
:102F50000F0BDF6E20EE0CF02A50D9262B50DA2210
:102F600062A602D0010E01D0000EDF6E62B643D021
:102F700061CF2CF02D6A2E6A2F6A030ED8902C3662
:102F80002D362E362F36E82EF9D72AC0D9FF2BC082
:102F9000DAFF2CC0DEFF2DC0DEFF2EC0DEFF2FC00B
:102FA000DEFF6238E842070B070B356E2AC0D9FFF7
:102FB0002BC0DAFFDECF2CF0DECF2DF0DECF2EF0EF
:102FC000DECF2FF035502C24306E000E2D20316EC8
:102FD000000E2E20326E000E2F20336E2AC0D9FF35
:102FE0002BC0DAFF30C0DEFF31C0DEFF32C0DEFFB3
:102FF00033C0DEFF88D064CF2CF02D6A2E6A2F6A92
:103000002AC0D9FF2BC0DAFF2CC0DEFF2DC0DEFFA7
:103010002EC0DEFF2FC0DEFF63CF2CF02D6A2E6A9C
:103020002F6A2EC02FF02DC02EF02CC02DF02C6A50
:103030002AC0D9FF2BC0DAFF2C50DE262D50DE220D
:103040002E50DE222F50DE2262A00CD02AC0D9FFE3
:103050002BC0DAFF000EDE12000EDE12010EDE12B1
:10306000000EDE1262A20CD02AC0D9FF2BC0DAFFFC
:10307000000EDE12000EDE12020EDE12000EDE1256
:1030800062AA0CD02AC0D9FF2BC0DAFF000EDE12D4
:10309000000EDE12040EDE12000EDE1262AC0CD048
:1030A0002AC0D9FF2BC0DAFF000EDE12000EDE129E
:1030B000080EDE12000EDE1262AE0CD02AC0D9FF5E
:1030C0002BC0DAFF000EDE12000EDE12100EDE1232
:1030D000000EDE1261CF2CF02D6A2E6A2F6A150EBB
:1030E000D8902C362D362E362F36E82EF9D72AC01A
:1030F000D9FF2BC0DAFF2C50DE122D50DE122E50DD
:10310000DE122F50DE12609E12000001AC51800BC7
:103110000001B96F0001AC51AC250001BB6F00018B
:10312000ABAF02D00001BB810001BB510001D8B49C
:1031300012D00001BB29D8A409D0000E0001A96F4C
:10314000000EAA6F000EAB6F000EAC6F0001AB8FCC
:10315000000E000108D0000E0001A96F000EAA6F3A
:10316000000EAB6F000EAC6F0001B051800B000180
:10317000BA6F0001B9510001BA19D8B402D00001E8
:10318000B98D0001B051B0250001BA6F0001AFAF99
:1031900002D00001BA810001BA510001D8B412D0A6
:1031A0000001BA29D8A409D0000E0001AD6F000EAD
:1031B000AE6F000EAF6F000EB06F0001AF8F000E4C
:1031C000000108D0000E0001AD6F000EAE6F000EC2
:1031D000AF6F000EB06F0001BB510001BA5DD8B0F7
:1031E00024D00001B9AD03D0800E0001B91BBBC0D3
:1031F000BCF0BAC0BBF0BCC0BAF0A9C0BCF0ADC056
:10320000A9F0BCC0ADF0AAC0BCF0AEC0AAF0BCC072
:10321000AEF0ABC0BCF0AFC0ABF0BCC0AFF0ACC068
:10322000BCF0B0C0ACF0BCC0B0F0000E0001BC6F90
:103230000001BB510001B16FB26B0001B11FB21FA1
:10324000B14BB22B0001BA510001B36FB46B000156
:10325000B1510001B3270001B2510001B4230001B4
:10326000B4BF3DD00001B45105E11A0E0001B35DB9
:10327000D8A035D00001A9510001AA110001AB115D
:103280000001AC11D8B402D0010E01D0000E000133
:10329000BC6F000E0001A96F000EAA6F000EAB6F8D
:1032A000000EAC6FBAC0BBF020D00001BCA107D0AB
:1032B0000001D890BC3101090001BC6F03D00001AE
:1032C000D890BC330001A9A102D00001BC8F00013D
:1032D000AC35AC33AB33AA33A9330001BB2B0001AF
:1032E000BA510001BB5DD8A0E0D70001B9BD3FD005
:1032F0000001BB510001D8A40AD0000E0001A96F43
:10330000000EAA6F000EAB6F000EAC6F1200000132
:10331000AD510001A9270001AE510001AA2300010F
:10332000AF510001AB230001B0510001AC230001FB
:10333000ACA1CCD00001BCA109D00001D890BC3315
:103340000001BC5101090001BC6F03D00001D890FD
:10335000BC330001A9A102D00001BC8F0001AC3533
:10336000AC33AB33AA33A9330001BB2BAFD0000180
:10337000AD510001A95D0001AE510001AA59000143
:10338000AF510001AB590001AC51800A0001B16F8F
:103390000001B051800A0001B159D8B050D0A9C085
:1033A000B1F0AAC0B2F0ABC0B3F0ACC0B4F0000151
:1033B000B11FB21FB31FB41FB12B000EB223B32332
:1033C000B4230001AD510001B1250001B56F00012A
:1033D000AE510001B2210001B66F0001AF510001F2
:1033E000B3210001B76F0001B0510001B421000109
:1033F000B86FFF0E0001B5250001A96FFF0E000197
:10340000B6210001AA6FFF0E0001B7210001AB6FCA
:10341000FF0E0001B8210001AC6F800E0001B91B46
:103420000001BC6D0001BC510001D8A418D0010EF0
:103430000001A927000EAA23AB23AC2310D0000162
:10344000AD510001A95F0001AE510001AA5B00016E
:10345000AF510001AB5B0001B0510001AC5B00015A
:10346000A9510001AA110001AB110001AC11D8A4AF
:103470002AD00001BC510001D8A425D0000E0001C3
:10348000A96F000EAA6F000EAB6F000EAC6F12009A
:103490000001D890A937AA37AB37AC370001BCAFD1
:1034A00002D00001A9810001BCA103D0D880000195
:1034B00002D00001D890BC370001BB510001D8B444
:1034C00002D00001BB070001ABAFE2D7000E000144
:1034D000BA6F0001BCAF0DD0BCC0B1F07F0E0001CF
:1034E000B117D8A403D00001A9A103D0010E000197
:1034F000BA6F0001BA510001D8B426D0010E000104
:10350000A927000EAA23AB23AC230001ACA11CD039
:10351000A9C0B1F0AAC0B2F0ABC0B3F0ACC0B4F077
:103520000001B435B433B333B233B133B1C0A9F011
:10353000B2C0AAF0B3C0ABF0B4C0ACF00001BB297C
:10354000D8B402D00001BB2B0001BB29D8B405D0F0
:103550000001BB510001D8A411D0000E0001A96FD9
:10356000000EAA6F000EAB6F000EAC6F0001BB51D6
:103570000001D8A403D0000E0001B96F0001BBA167
:1035800003D00001AB8F02D00001AB9F0001D890A7
:10359000BB310001AC6F0001B9AF02D00001AC8FAC
:1035A000A9C0A9F0AAC0AAF0ABC0ABF0ACC0ACF007
:1035B000120000019351800B00019C6F0001935198
:1035C00093250001A26F000192AF02D00001A281F9
:1035D0000001A2510001D8B410D00001A229D8A442
:1035E00009D0000E0001906F000E916F000E926FD7
:1035F000000E936F0001928F09D0000E0001906FB2
:10360000000E916F000E926F000E936F00019751A4
:10361000800B00019C1B00019751972500019D6FB5
:10362000000196AF02D000019D8100019D51000173
:10363000D8B410D000019D29D8A409D0000E0001F3
:10364000946F000E956F000E966F000E976F00013D
:10365000968F09D0000E0001946F000E956F000E3A
:10366000966F000E976F00019D510001D8B405D0F0
:103670000001A2510001D8A40AD0000E0001906FF1
:10368000000E916F000E926F000E936F12000001FA
:10369000965100019003F3CFA7F0F4CFA8F00001FA
:1036A000A75100019E6F9F6BA06BA16B0001A851F9
:1036B0000001A36FA46BA56BA66B000195510001DF
:1036C0009103F3CFA7F0F4CFA8F00001A7510001B8
:1036D0009E27000E9F23A023A1230001A8510001D3
:1036E000A327000EA423A523A623000194510001C3
:1036F0009203F3CFA7F0F4CFA8F00001A751000187
:103700009E27000E9F23A023A1230001A8510001A2
:10371000A327000EA423A523A623A0C0A1F09FC029
:10372000A0F09EC09FF000019E6B0001945100012B
:103730009103F3CFA7F0F4CFA8F00001A751000147
:103740009E270001A85100019F23000E0001A02325
:10375000000E0001A1230001955100019003F3CF59
:10376000A7F0F4CFA8F00001A75100019E270001A7
:10377000A85100019F23000E0001A023000E0001AC
:10378000A123A0C0A1F09FC0A0F09EC09FF00001A7
:103790009E6B0001945100019003F3CFA7F0F4CF8A
:1037A000A8F00001A75100019E270001A8510001C7
:1037B0009F23000E0001A023000E0001A1230001A1
:1037C000965100019103F3CFA7F0F4CFA8F00001C8
:1037D000A7510001A3270001A8510001A423000E56
:1037E0000001A523000E0001A62300019551000150
:1037F0009203F3CFA7F0F4CFA8F00001A751000186
:10380000A3270001A8510001A423000E0001A52355
:10381000000E0001A6230001965100019203F3CF90
:10382000A7F0F4CFA8F00001A7510001986F0001A4
:10383000A8510001996F00019A6B00019B6B9AC01F
:103840009BF099C09AF098C099F00001986B000124
:1038500098510001A327000199510001A423000100
:103860009A510001A52300019B510001A6239EC08F
:1038700098F09FC099F0A0C09AF0A1C09BF0190EDB
:1038800006D00001D8909B339A3399339833E82EB1
:10389000F8D7000198510001A327000199510001B8
:1038A000A42300019A510001A52300019B510001AE
:1038B000A623A0C0A1F09FC0A0F09EC09FF0000171
:1038C0009E6B00019D51A2C098F00001996B000110
:1038D0009827000E9923820E000198250001A76FFA
:1038E000FF0E000199210001A86F15D00001D890AA
:1038F000A337A437A537A6370001A1AF02D0000136
:10390000A3810001D8909E379F37A037A1370001CF
:10391000A707D8A0A8070001A5AFE8D7000E0001AF
:103920009D6F0001A1AF24D0FF0E00019E15000184
:10393000986FFF0E00019F150001996FFF0E0001A7
:10394000A01500019A6F7F0E0001A11500019B6F69
:10395000000198510001991100019A1100019B1179
:10396000D8A403D00001A3A103D0010E00019D6FD4
:1039700000019D510001D8B423D0010E0001A327FE
:10398000000EA423A523A6230001A6A119D0A3C03D
:1039900098F0A4C099F0A5C09AF0A6C09BF00001D1
:1039A0009B359B339A339933983398C0A3F099C0D1
:1039B000A4F09AC0A5F09BC0A6F00001A74BA82BCD
:1039C0000001A8BF10D00001A85104E10001A729FF
:1039D000D8A009D0000E0001A36F000EA46F800EC6
:1039E000A56F7F0E2BD00001A8BF07D00001A85102
:1039F00011E10001A705D8B00DD0000E0001A36FA2
:103A0000000EA46F000EA56F000EA66F000E000141
:103A10009C6F15D0A7C0A2F0FF0E0001A317FF0EE8
:103A2000A4177F0EA517000EA6170001A2A102D0B1
:103A30000001A58F0001D890A2310001A66F0001FE
:103A40009C510001A613A3C090F0A4C091F0A5C0A2
:103A500092F0A6C093F012005194000E0101636F22
:103A60001DEC28F03ED0000E00017E6FC80E7D6F69
:103A7000C1EC32F081AC02D0010E01D0000EFF0A81
:103A80000101DC6F0101DC3BDC47DC4781500101B7
:103A9000DC19BF0BDC19816E1DEC28F01E0E010134
:103AA000636503D0000E0101636F41EC33F0000940
:103AB000D8B4FBD70E0E0001776F000E786F000EA2
:103AC000796F000E7A6F630E00017B6F010E0001AB
:103AD0007C6F080E00017D6FBC0E00017E6F2CEC28
:103AE0000CF051B281AA02D051B0BDD781BA51A019
:103AF0002FD0819C020E0101536F0B0E0001776FD6
:103B0000000E786F000E796F000E7A6F530E000171
:103B10007B6F010E00017C6F010E00017D6FBC0EFA
:103B200000017E6F2CEC0CF013D052B011D0000EBF
:103B30000001E76F000EE66F5A0E0101736F000E71
:103B400001015B6F010E01015C6F94EC2FF052805C
:103B500052AA51A0C2D1E9D78A8801500324010199
:103B6000DC6F025004200101DD6FD8900101DD31CE
:103B70000101DF6F0101DC310101DE6FDEC1CBF03D
:103B8000DFC1CCF00001CD6BCE6B000E7BEC2AF0D8
:103B9000CBC034F1CCC035F1CDC036F1CEC037F159
:103BA0003AEC13F0000E0001E76F000EE66F5A0EBC
:103BB0000101736F000E01015B6F010E01015C6F6B
:103BC00094EC2FF0010E2BEC33F0030E01015B6F30
:103BD000010E01015C6F030E0001E76FE80EE66F56
:103BE00051965A0E0101736F000E0001AD6F000E69
:103BF000AE6F700EAF6F410EB06F38C1A9F039C112
:103C0000AAF03AC1ABF03BC1ACF085EC18F0A9C00A
:103C1000BDF0AAC0BEF0ABC0BFF0ACC0C0F0DEECDF
:103C200032F0BDC0E0F1BEC0E1F1BFC0E2F1C0C002
:103C3000E3F128C1ADF029C1AEF02AC1AFF02BC12C
:103C4000B0F0E0C1A9F0E1C1AAF0E2C1ABF0E3C17C
:103C5000ACF085EC18F0A9C0E4F1AAC0E5F1ABC066
:103C6000E6F1ACC0E7F1000E0001AD6F000EAE6FE3
:103C70005C0EAF6F420EB06FE4C1A9F0E5C1AAF0CF
:103C8000E6C1ABF0E7C1ACF085EC18F0A9C0C1F01B
:103C9000AAC0C2F0ABC0C3F0ACC0C4F00EEC2FF0B1
:103CA0000001C15101017B6F51820D0E0001776F40
:103CB000000E786F000E796F000E7A6F7B0E000198
:103CC0007B6F010E00017C6F080E00017D6FBC0E42
:103CD00000017E6F2CEC0CF094EC2FF051B2FED76B
:103CE000000E0001E76F000EE66F5A0E0101736FC0
:103CF000000E01015B6F010E01015C6F94EC2FF06F
:103D0000010E2BEC33F0030E01015B6F010E01017C
:103D10005C6F030E0001E76FE80EE66F5196B40E7C
:103D20000101736F40C1C1F041C1C2F042C1C3F093
:103D300043C1C4F00EEC2FF00001C15101017B6FB3
:103D400051820D0E0001776F000E786F000E796FB3
:103D5000000E7A6F7B0E00017B6F010E00017C6FFD
:103D6000080E00017D6FBC0E00017E6F2CEC0CF084
:103D700094EC2FF051B2FED7030E0001E76FE80E6E
:103D8000E66F000E0101736F5182000E0001AD6FEE
:103D9000000EAE6F100EAF6F410EB06F40C1A9F0B4
:103DA00041C1AAF042C1ABF043C1ACF085EC18F0C0
:103DB000A9C0C1F0AAC0C2F0ABC0C3F0ACC0C4F08F
:103DC0000EEC2FF00001C15101017B6F0D0E0001BF
:103DD000776F000E786F000E796F000E7A6F7B0E92
:103DE00000017B6F010E00017C6F080E00017D6FEA
:103DF000BC0E00017E6F2CEC0CF094EC2FF051B255
:103E0000FED7000E01015B6F010E01015C6F000E19
:103E10000001E76F000EE66F5A0E0101736F94EC1C
:103E20002FF0010E2BEC33F05184065004E1150EF7
:103E3000055CD8A017D0030E01015B6F010E0101D4
:103E40005C6F010E0001E76FF40EE66F5A0E010180
:103E5000736F518694EC2FF00650FEE1150E055C51
:103E6000D8B0FAD7000E01015B6F010E01015C6F43
:103E7000000E0001E76F000EE66F5A0E0101736F2E
:103E8000519694EC2FF0010E2BEC33F0030E010150
:103E9000536F41EC33F00009D8B4FBD70B0E00018F
:103EA000776F000E786F000E796F000E7A6F530EE9
:103EB00000017B6F010E00017C6F080E00017D6F19
:103EC000BC0E00017E6F2CEC0CF0000E00017E6F2A
:103ED000640E7D6FC1EC32F0FF0081AA120051A088
:103EE000120052AA120038D60001C451800B010101
:103EF0008B6F0001C451C4250101916F0001C3AF54
:103F000002D00101918191C196F10101976BFF0EE1
:103F10000001C11501019C6FFF0E0001C2150101D6
:103F20009D6F7F0E0001C31501019E6F000E000101
:103F3000C41501019F6F0101965101019711D8B479
:103F400008D001019E8F0101962901019711D8A483
:103F500009D0000E01019C6F000E9D6F000E9E6F38
:103F6000000E9F6F0101965101019711D8A40AD04C
:103F7000000E0001C16F000EC26F000EC36F000E75
:103F8000C46F120001018B510101D8B41CD0000E86
:103F90000101986F000E996F400E9A6F000E9B6F93
:103FA0000101800E9A13FF0E9B13000E0001E56FB6
:103FB000210EE46F98C1C1F099C1C2F09AC1C3F05B
:103FC0009BC1C4F012000101962901019711D8A4E8
:103FD00012D0000E0101986F000E996F800E9A6F3B
:103FE0007F0E9B6F98C1C1F099C1C2F09AC1C3F016
:103FF0009BC1C4F012000101810E9627FF0E97238A
:1040000001019651010B0101916F01019735973321
:1040100096337F0E01019627000E9723D890010159
:104020009C3501018D6F01019D3501018E6F0101EC
:104030009E3501018F6F01019F350101906F000EC8
:1040400001019C6F000E9D6F000E9E6F000E9F6F12
:10405000000E0101926F000E936F000E946F010E1F
:10406000956F010191510101D8B406D00101D8909A
:104070008D378E378F379037000E01018C6F7ED0D1
:104080000101925101019C130101935101019D1302
:104090000101945101019E130101955101019F13EA
:1040A00001019C5101018D5D01019D5101018E595C
:1040B00001019E5101018F5901019F510101905948
:1040C000D8A021D001019C5101018D5F01019D51BA
:1040D00001018E5B01019E5101018F5B01019F5126
:1040E0000101905B0101925101019C270101935153
:1040F00001019D230101945101019E23010195516C
:1041000001019F231DD092C1C5F093C1C6F094C197
:10411000C7F095C1C8F00001C51FC61FC71FC81F43
:104120000001C55101019C170001C65101019D17F5
:104130000001C75101019E170001C85101019F17DD
:1041400092C1C5F093C1C6F094C1C7F095C1C8F043
:104150000001D890C833C733C633C533C5C092F108
:10416000C6C093F1C7C094F1C8C095F10101D890C1
:104170008D378E378F37903701018C2B180E010148
:104180008C657ED79CC1C5F09DC1C6F09EC1C7F0AD
:104190009FC1C8F00001D890C833C733C633C533B8
:1041A000C5C09CF1C6C09DF1C7C09EF1C8C09FF1BB
:1041B000010E01019C150101926F000E01019D1578
:1041C0000101936F000E01019E150101946F000E15
:1041D00001019F150101956F9CC1C5F09DC1C6F0FD
:1041E0009EC1C7F09FC1C8F00001D890C833C73343
:1041F000C633C533C5C09CF1C6C09DF1C7C09EF192
:10420000C8C09FF10101925101019C270101935106
:1042100001019D230101945101019E23010195514A
:1042200001019F2301019FA119D09CC1C5F09DC12F
:10423000C6F09EC1C7F09FC1C8F00001D890C83336
:10424000C733C633C533C5C09CF1C6C09DF1C7C0D6
:104250009EF1C8C09FF10101964B972BFF0E010103
:104260009C150101986FFF0E01019D150101996FC9
:104270007F0E01019E1501019A6F000E01019F152D
:1042800001019B6F96C191F1010191A102D0010141
:104290009A8F0101D890913101019B6F01019B9F81
:1042A00098C1C1F099C1C2F09AC1C3F09BC1C4F0DA
:1042B000120000017A51800B0001836F00017A51D6
:1042C0007A2500018E6F000179AF02D000018E8146
:1042D00000018E510001D8B412D000018E29D8A45B
:1042E00009D0000E0001776F000E786F000E796F15
:1042F000000E7A6F0001798F000E000108D0000EC9
:104300000001776F000E786F000E796F000E7A6FE4
:1043100000017E51800B0001831B00017E517E2530
:1043200000018F6F00017DAF02D000018F8100017D
:104330008F510001D8B412D000018F29D8A409D020
:10434000000E00017B6F000E7C6F000E7D6F000E73
:104350007E6F00017D8F000E000108D0000E00016D
:104360007B6F000E7C6F000E7D6F000E7E6F000174
:104370007B5100017C1100017D1100017E11D8A448
:1043800017D0000E0001776F000E786F000E796F66
:10439000000E7A6F0001800E79137F0E7A1377C0BA
:1043A00077F078C078F079C079F07AC07AF01200AE
:1043B00000018E510001D8A412D0000E0001776FC9
:1043C000000E786F000E796F000E7A6F77C077F06D
:1043D00078C078F079C079F07AC07AF012000001E4
:1043E0008F5100017F6F806B00017F1F801F7F4B0B
:1043F000802B00018E510001816F826B00017F5183
:104400000001812700018051000182237F0E0001FD
:1044100081250001886F000E000182210001896F53
:1044200077C084F078C085F079C086F07AC087F0D4
:10443000000E0001776F000E786F000E796F000E8E
:104440007A6F000E00018A6F000E8B6F000E8C6F6A
:10445000000E8D6F000E00018F6F42D000018F5152
:104460000001D8B417D00001D8908437853786373B
:1044700087370001D8907737783779377A37000156
:104480008DAF02D0000177810001D8908A378B3739
:104490008C378D3700017B510001845D00017C5118
:1044A0000001855900017D510001865900017E51AE
:1044B00000018759D8A012D000018D8D00017B51D9
:1044C0000001845F00017C510001855B00017D518A
:1044D0000001865B00017E510001875B00018F2B8C
:1044E000190E00018F65BAD70001845100018511B2
:1044F0000001861100018711D8B418D000018A810B
:1045000015D00001D8907737783779377A3700019E
:104510008DAF02D0000177810001D8908A378B37A8
:104520008C378D3700018807D8A08907000179AF43
:10453000E8D7000E00018F6F00018DAF24D0FF0E71
:1045400000018A1500017F6FFF0E00018B1500012D
:10455000806FFF0E00018C150001816F7F0E00013E
:104560008D150001826F00017F5100018011000153
:10457000811100018211D8A403D0000177A103D0DA
:10458000010E00018F6F00018F510001D8B423D0BC
:10459000010E00017727000E782379237A2300018A
:1045A0007AA119D077C07FF078C080F079C081F00F
:1045B0007AC082F0000182358233813380337F33C9
:1045C0007FC077F080C078F081C079F082C07AF047
:1045D0000001884B892B000189BF14D0000189514B
:1045E00004E100018829D8A00DD0000E0001896FD8
:1045F0008869000E0001776F000E786F000E796FEA
:10460000000E7A6F000189BF07D00001895115E1C2
:1046100000018805D8B011D0000E0001896F000E8E
:10462000886F000E0001776F000E786F000E796FB3
:10463000000E7A6F000E0001836F88C08EF00001BB
:104640008EA103D00001798F02D00001799F000173
:10465000D8908E3100017A6F0001835100017A13E6
:1046600077C077F078C078F079C079F07AC07AF0C6
:1046700012000001806F00018005D8A456D000010F
:104680007B29D8A452D077C07CF078C07DF079C067
:104690007EF07AC07FF0040E06D00001D8907F3300
:1046A0007E337D337C33E82EF8D77CC081F07DC02B
:1046B00082F07EC083F07FC084F000018151000150
:1046C000816F826B836B846B81C018FF070E0001C2
:1046D00077150001816F000E000178150001826FCF
:1046E000000E000179150001836F000E00017A159C
:1046F0000001846F81C07CF082C07DF083C07EF0B9
:1047000084C07FF0050ED89000017C377D377E375E
:104710007F37E82EF8D77CC081F07DC082F07EC064
:1047200083F07FC084F081C019FF020E0001801960
:10473000D8A456D000017B29D8A452D077C07CF0F1
:1047400078C07DF079C07EF07AC07FF0040E06D08C
:104750000001D8907F337E337D337C33E82EF8D749
:104760007CC081F07DC082F07EC083F07FC084F089
:10477000000181510001816F826B836B846B81C06A
:104780001CFF070E000177150001816F000E00016C
:1047900078150001826F000E000179150001836F0A
:1047A000000E00017A150001846F81C07CF082C088
:1047B0007DF083C07EF084C07FF0050ED8900001AC
:1047C0007C377D377E377F37E82EF8D77CC081F085
:1047D0007DC082F07EC083F07FC084F081C01DFF69
:1047E00000018005D8A487D0F70E00017B19D8A45A
:1047F00082D0000177510001816F826B836B846BE3
:1048000081C01BFF000E000177150001816FFF0EB4
:10481000000178150001826F000E0001791500017A
:10482000836F000E00017A150001846F81C07CF057
:1048300082C07DF083C07EF084C07FF07DC07CF0BC
:104840007EC07DF07FC07EF000017F6B7CC081F078
:104850007DC082F07EC083F07FC084F081C01AFFEB
:10486000000179A103D00F01198102D00F01199124
:10487000000179A303D00F01198302D00F0119930E
:10488000000179A503D00F01198B02D00F01199BEC
:10489000000179A703D00F01198D02D00F01199DD6
:1048A000000179A903D00F01198F02D00F01199FC0
:1048B00077C07CF078C07DF079C07EF07AC07FF060
:1048C000160E06D00001D8907F337E337D337C33C3
:1048D000E82EF8D77CC081F07DC082F07EC083F0E6
:1048E0007FC084F0000181510001816F826B836B76
:1048F000846B81C018FF020E00018019D8A4120039
:10490000F70E00017B19D8A41200000177510001B5
:10491000816F826B836B846B81C01FFF000E00016F
:1049200077150001816FFF0E000178150001826F7D
:10493000000E000179150001836F000E00017A1549
:104940000001846F81C07CF082C07DF083C07EF066
:1049500084C07FF07DC07CF07EC07DF07FC07EF0A3
:1049600000017F6B7CC081F07DC082F07EC083F04F
:104970007FC084F081C01EFF000179A103D00F0128
:104980001D8102D00F011D91000179A303D00F01F9
:104990001D8302D00F011D93000179A503D00F01E3
:1049A0001D8B02D00F011D9B000179A703D00F01C1
:1049B0001D8D02D00F011D9D000179A903D00F01AB
:1049C0001D8F02D00F011D9F77C07CF078C07DF055
:1049D00079C07EF07AC07FF0160E06D00001D89024
:1049E0007F337E337D337C33E82EF8D77CC081F073
:1049F0007DC082F07EC083F07FC084F000018151D1
:104A00000001816F826B836B846B81C01CFF12007D
:104A1000000E0101AF6F0101A2AF15D09FC1BDF023
:104A2000A0C1BEF0A1C1BFF0A2C1C0F0DEEC32F067
:104A3000BDC09FF1BEC0A0F1BFC0A1F1C0C0A2F136
:104A4000010E0101AF6F9FC190F0A0C191F0A1C113
:104A500092F0A2C193F0830E0001946FF90E956F4E
:104A6000220E966F3E0E976FD9EC1AF090C09FF110
:104A700091C0A0F192C0A1F193C0A2F19FC197F1A2
:104A8000A0C198F1A1C199F1A2C19AF19FC1D3F03F
:104A9000A0C1D4F0A1C1D5F0A2C1D6F0F0EC2DF0A8
:104AA000D3C09BF1D4C09CF1D5C09DF1D6C09EF17E
:104AB0007EEC32F097C19FF198C1A0F199C1A1F1AC
:104AC0009AC1A2F19FC190F0A0C191F0A1C192F052
:104AD000A2C193F0000E0001946F000E956F800E3E
:104AE000966F400E976FD9EC1AF090C09FF191C06D
:104AF000A0F192C0A1F193C0A2F1000E0001C56F18
:104B0000000EC66F000EC76F400EC86F9FC1C9F080
:104B1000A0C1CAF0A1C1CBF0A2C1CCF028EC2DF00D
:104B20000001D8B025D09FC197F1A0C198F1A1C1D3
:104B300099F1A2C19AF1000E01019B6F000E9C6FCA
:104B4000000E9D6F400E9E6F7EEC32F097C19FF17C
:104B500098C1A0F199C1A1F19AC1A2F10101AF518F
:104B60000101D8A402D0010E01D0000E0101AF6FE7
:104B7000000E0001C56F000EC66F800EC76F3F0E9E
:104B8000C86F9FC1C9F0A0C1CAF0A1C1CBF0A2C13A
:104B9000CCF028EC2DF00001D8B025D09FC1BDF09D
:104BA000A0C1BEF0A1C1BFF0A2C1C0F0DEEC32F0E6
:104BB000BDC0A9F0BEC0AAF0BFC0ABF0C0C0ACF091
:104BC000000E0001AD6F000EAE6F000EAF6F400E15
:104BD000B06F85EC18F0A9C09FF1AAC0A0F1ABC0DE
:104BE000A1F1ACC0A2F19FC190F0A0C191F0A1C110
:104BF00092F0A2C193F09FC194F0A0C195F0A1C121
:104C000096F0A2C197F0D9EC1AF090C0ABF191C028
:104C1000ACF192C0ADF193C0AEF1ABC1BDF0ACC18F
:104C2000BEF0ADC1BFF0AEC1C0F0410E0001C16F1A
:104C30000D0E0001C26F000E0001C46F030EC36FA2
:104C400082EC2EF0BDC0A3F1BEC0A4F1BFC0A5F19F
:104C5000C0C0A6F1A3C17BF0A4C17CF0A5C17DF0CA
:104C6000A6C17EF0000E0001C46F040EC36F2D0EAE
:104C70000001C16F0D0E0001C26FABC1BDF0ACC130
:104C8000BEF0ADC1BFF0AEC1C0F082EC2EF0BDC031
:104C900077F0BEC078F0BFC079F0C0C07AF059ECB0
:104CA00021F077C0A7F178C0A8F179C0A9F17AC046
:104CB000AAF19FC190F0A0C191F0A1C192F0A2C150
:104CC00093F0A7C194F0A8C195F0A9C196F0AAC12C
:104CD00097F0D9EC1AF090C09FF191C0A0F192C06A
:104CE000A1F193C0A2F10101AF510101D8B413D0D9
:104CF0009FC1BDF0A0C1BEF0A1C1BFF0A2C1C0F074
:104D0000DEEC32F0BDC09FF1BEC0A0F1BFC0A1F18A
:104D1000C0C0A2F112009FC19FF1A0C1A0F1A1C12A
:104D2000A1F1A2C1A2F11200000E0001C56F000E98
:104D3000C66F800EC76F3F0EC86FA0C1C1F0A1C182
:104D4000C2F0A2C1C3F0A3C1C4F0A2EC32F0C1C052
:104D5000C9F0C2C0CAF0C3C0CBF0C4C0CCF028ECCC
:104D60002DF00001D8B00FD0000E0001E56F210E2C
:104D7000E46F000E0101A06F000EA16F000EA26F84
:104D8000000EA36F1200000E0101A46F000EA56FAC
:104D9000800EA66F3F0EA76FA0C194F0A1C195F041
:104DA000A2C196F0A3C197F0A0C190F0A1C191F06B
:104DB000A2C192F0A3C193F0D9EC1AF090C0BDF05B
:104DC00091C0BEF092C0BFF093C0C0F0DEEC32F0F4
:104DD000BDC0A9F0BEC0AAF0BFC0ABF0C0C0ACF06F
:104DE000000E0001AD6F000EAE6F800EAF6F3F0E74
:104DF000B06F85EC18F0A9C0C1F0AAC0C2F0ABC07A
:104E0000C3F0ACC0C4F074EC1FF0C1C0B0F1C2C0BC
:104E1000B1F1C3C0B2F1C4C0B3F1A0C1C1F0A1C12E
:104E2000C2F0A2C1C3F0A3C1C4F0A2EC32F0C1C071
:104E3000C5F0C2C0C6F0C3C0C7F0C4C0C8F08F0E72
:104E40000001C96FC20ECA6F350ECB6F3F0ECC6F1B
:104E500028EC2DF00001D8B02DD0A0C177F0A1C171
:104E600078F0A2C179F0A3C17AF0B0C17BF0B1C1F2
:104E70007CF0B2C17DF0B3C17EF059EC21F077C077
:104E8000B4F178C0B5F179C0B6F17AC0B7F1B4C168
:104E9000D1F0B5C1D2F0B6C1D3F0B7C1D4F052EC65
:104EA00029F0D1C0A0F1D2C0A1F1D3C0A2F1D4C0E9
:104EB000A3F112000101A3AF6ED0A0C17BF0A1C18C
:104EC0007CF0A2C17DF0A3C17EF0B0C1BDF0B1C144
:104ED000BEF0B2C1BFF0B3C1C0F0DEEC32F0BDC075
:104EE00077F0BEC078F0BFC079F0C0C07AF059EC5E
:104EF00021F077C0B4F178C0B5F179C0B6F17AC0CD
:104F0000B7F1B4C1D1F0B5C1D2F0B6C1D3F0B7C1D9
:104F1000D4F052EC29F0D1C0ACF1D2C0ADF1D3C085
:104F2000AEF1D4C0AFF1DB0E0001AD6F0F0EAE6F6E
:104F3000C90EAF6F3F0EB06FACC1BDF0ADC1BEF0DA
:104F4000AEC1BFF0AFC1C0F0DEEC32F0BDC0A9F021
:104F5000BEC0AAF0BFC0ABF0C0C0ACF085EC18F08A
:104F6000A9C0A8F1AAC0A9F1ABC0AAF1ACC0ABF12D
:104F7000A8C1BDF0A9C1BEF0AAC1BFF0ABC1C0F0CD
:104F8000DEEC32F0BDC0A0F1BEC0A1F1BFC0A2F105
:104F9000C0C0A3F11200A0C17BF0A1C17CF0A2C1EE
:104FA0007DF0A3C17EF0B0C177F0B1C178F0B2C19D
:104FB00079F0B3C17AF059EC21F077C0B4F178C040
:104FC000B5F179C0B6F17AC0B7F1B4C1D1F0B5C1CD
:104FD000D2F0B6C1D3F0B7C1D4F052EC29F0D1C0B1
:104FE000ACF1D2C0ADF1D3C0AEF1D4C0AFF1ACC121
:104FF000BDF0ADC1BEF0AEC1BFF0AFC1C0F0DEECE0
:1050000032F0BDC0A9F0BEC0AAF0BFC0ABF0C0C0B6
:10501000ACF0DB0E0001AD6F0F0EAE6FC90EAF6FBF
:105020003F0EB06F85EC18F0A9C0A0F1AAC0A1F1A5
:10503000ABC0A2F1ACC0A3F1120020EE03F0DECFB2
:10504000D5F0DDCFD6F00001D51FD61FD54BD62B1E
:1050500001500001D5250001776F02500001D621D3
:105060000001786F15EC33F0000177C0CBF0000140
:1050700078C0CCF00001000ECCBFFF0ECD6FCE6F1C
:10508000010E7BEC2AF0CBC0D8F0CCC0D9F0CDC05B
:10509000DAF0CEC0DBF0D8C0C5F0D9C0C6F0DAC0B7
:1050A000C7F0DBC0C8F0000E0001C96F000ECA6F68
:1050B000A00ECB6F410ECC6F28EC2DF00001D8B0C4
:1050C000EBD0025003E11E0E015CD8B01200045078
:1050D00003E11E0E035CD8B01200D8C094F0D9C012
:1050E00095F0DAC096F0DBC097F0D8C090F0D9C048
:1050F00091F0DAC092F0DBC093F0D9EC1AF090C0D6
:10510000A9F091C0AAF092C0ABF093C0ACF0000E31
:105110000001AD6F000EAE6F290EAF6F440EB06F81
:1051200085EC18F0A9C011F0AAC012F0ABC013F0C2
:10513000ACC014F011C0C1F012C0C2F013C0C3F073
:1051400014C0C4F074EC1FF0C1C011F0C2C012F062
:10515000C3C013F0C4C014F0D8C077F0D9C078F041
:10516000DAC079F0DBC07AF011C07BF012C07CF0BD
:1051700013C07DF014C07EF059EC21F077C0DCF054
:1051800078C0DDF079C0DEF07AC0DFF0DCC0A0F1DD
:10519000DDC0A1F1DEC0A2F1DFC0A3F194EC26F0E6
:1051A000A0C1DCF0A1C1DDF0A2C1DEF0A3C1DFF03F
:1051B000DB0E00017B6F0F0E7C6F490E7D6F400E82
:1051C0007E6FDCC077F0DDC078F0DEC079F0DFC044
:1051D0007AF059EC21F077C090F078C091F079C066
:1051E00092F07AC093F0000E0001946F000E956F5C
:1051F000340E966F430E976FD9EC1AF090C0DCF026
:1052000091C0DDF092C0DEF093C0DFF0DCC0C1F0F1
:10521000DDC0C2F0DEC0C3F0DFC0C4F00EEC2FF082
:105220000001C1510101636F0350015C0450025839
:10523000D8B002D0000E01D0010E0101646F000150
:10524000D85101013C1917E10001D95101013D1963
:1052500012E10001DA5101013E190DE10001DB51BB
:1052600001013F19D8A407D0000E52B4010E01016C
:105270006419D8B41200D8C03CF1D9C03DF1DAC0ED
:105280003EF1DBC03FF1010164A102D0528401D0A4
:10529000529494EC2FF01200000E0101636F94EC15
:1052A0002FF01200D1C0C1F0D2C0C2F0D3C0C3F001
:1052B000D4C0C4F0A2EC32F0C1C098F1C2C099F1E0
:1052C000C3C09AF1C4C09BF1010198510101991129
:1052D00001019A1101019B11D8A40AD0000E00010E
:1052E000D16F000ED26F000ED36F000ED46F12007C
:1052F000000E0001C56F000EC66F800EC76F3F0E17
:10530000C86F98C1C9F099C1CAF09AC1CBF09BC1CE
:10531000CCF028EC2DF00001D8B002D0010E01D065
:10532000000E0101936F01019351D8B41BD0000E00
:105330000001776F000E786F800E796F3F0E7A6FE5
:1053400098C17BF099C17CF09AC17DF09BC17EF041
:1053500059EC21F077C098F178C099F179C09AF1B1
:105360007AC09BF198C190F099C191F09AC192F0E6
:105370009BC193F098C194F099C195F09AC196F0B1
:105380009BC197F0D9EC1AF090C094F191C095F1BF
:1053900092C096F193C097F194C1BDF095C1BEF053
:1053A00096C1BFF097C1C0F0190E0001C16F0D0E7C
:1053B0000001C26F000E0001C46F040EC36F82ECC7
:1053C0002EF0BDC08BF1BEC08CF1BFC08DF1C0C04E
:1053D0008EF194C1BDF095C1BEF096C1BFF097C1EA
:1053E000C0F0010E0001C16F0D0E0001C26F000E72
:1053F0000001C46F050EC36F82EC2EF0BDC08FF1AB
:10540000BEC090F1BFC091F1C0C092F198C190F0C0
:1054100099C191F09AC192F09BC193F08BC17BF03E
:105420008CC17CF08DC17DF08EC17EF08FC177F094
:1054300090C178F091C179F092C17AF059EC21F0E5
:1054400077C094F078C095F079C096F07AC097F064
:10545000D9EC1AF090C098F191C099F192C09AF1EC
:1054600093C09BF1010193510101D8B425D098C19B
:10547000BDF099C1BEF09AC1BFF09BC1C0F0DEEC97
:1054800032F0BDC0A9F0BEC0AAF0BFC0ABF0C0C032
:10549000ACF0DB0E0001AD6F0F0EAE6FC90EAF6F3B
:1054A0003F0EB06F85EC18F0A9C098F1AAC099F131
:1054B000ABC09AF1ACC09BF10001D4BF09D098C138
:1054C000D1F099C1D2F09AC1D3F09BC1D4F01200AF
:1054D00098C1BDF099C1BEF09AC1BFF09BC1C0F0A8
:1054E000DEEC32F0BDC0D1F0BEC0D2F0BFC0D3F010
:1054F000C0C0D4F0120001018B6F01018B5101017A
:10550000D8B41ED00001CEAF1BD0CBC0CFF0CCC0E2
:10551000D0F0CDC0D1F0CEC0D2F00001CF1FD01F4F
:10552000D11FD21FCF2B000ED023D123D223CFC027
:105530008DF1D0C08EF1D1C08FF1D2C090F108D0E2
:10554000CBC08DF1CCC08EF1CDC08FF1CEC090F12B
:105550000001CB510001CC110001CD110001CE1191
:10556000D8A40AD0000E0001CB6F000ECC6F000E45
:10557000CD6F000ECE6F1200960E01018C6F08D019
:1055800001018C2B0101D89090338F338E338D33F2
:10559000000E01018D150001CF6F000E01018E1567
:1055A0000001D06F000E01018F150001D16FFE0EBA
:1055B000010190150001D26F0001CF510001D011FF
:1055C0000001D1110001D211D8B410D0D9D70101F6
:1055D0008C2B010E01018D27000E8E238F2390232B
:1055E0000101D89090338F338E338D33000E01013B
:1055F0008D150001CF6F000E01018E150001D06FD7
:10560000000E01018F150001D16FFF0E01019015F1
:105610000001D26F0001CF510001D0110001D11162
:105620000001D211D8B409D0D2D701018C070101F1
:10563000D8908D378E378F37903701018FBF04D0C8
:10564000020E01018C61F1D701018CB109D0FF0E6E
:1056500001018D17FF0E8E177F0E8F17FF0E90170B
:105660000101D8908C338CC1CFF00001D06BD16B8D
:10567000D26BCFC0D2F00001D16BD06BCF6B0001E9
:10568000CF5101018D130001D05101018E13000192
:10569000D15101018F130001D25101019013010179
:1056A0008B510101D8B405D00001CEAF02D0010169
:1056B000908F8DC1CBF08EC1CCF08FC1CDF090C159
:1056C000CEF01200DDD01DEC28F0025004E1330EC4
:1056D000015CD8A02AD052B626D041EC33F00009A4
:1056E000D8B4FBD7080E0001776F000E786F000E5C
:1056F000796F000E7A6F530E00017B6F010E00016F
:105700007C6F080E00017D6FFC0E00017E6F2CEC9B
:105710000CF05286000E0001D86F000ED96F000EFB
:10572000DA6F000EDB6F8A882FD08A9820EE03F0A4
:10573000DECFB8F1DDCFB9F10101B81FB91FB84B09
:10574000B92B01500101B8250001776F025001010A
:10575000B9210001786F15EC33F0000177C0CBF070
:10576000000178C0CCF00001000ECCBFFF0ECD6F61
:10577000CE6F010E7BEC2AF0CBC0D8F0CCC0D9F0B4
:10578000CDC0DAF0CEC0DBF0025028E1320E015C71
:10579000D8A052A623D0045021E1320E035CD8B029
:1057A0001DD0529641EC33F00009D8B4FBD7070E58
:1057B0000001776F000E786F000E796F000E7A6F20
:1057C000530E00017B6F010E00017C6F080E00017B
:1057D0007D6FFC0E00017E6F2CEC0CF051AA50D0B6
:1057E0000001E35105E1420E0001E25DD8A046D080
:1057F000818A010E0101536F0B0E0001776F000EBD
:10580000786F000E796F000E7A6F530E00017B6F78
:10581000010E00017C6F010E00017D6FBC0E0001C6
:105820007E6F2CEC0CF052B82BD0025029E1280EE0
:10583000015CD8B025D0320E01017B6F518241EC62
:1058400033F00009D8B4FBD70D0E0001776F000EBE
:10585000786F000E796F000E7A6F7B0E00017B6F00
:10586000010E00017C6F080E00017D6FBC0E00016F
:105870007E6F2CEC0CF0519C528802D0519A819A88
:1058800051A0120081BA12001ED700018E6F800E47
:1058900062EC33F0000E706E000E716E000E726ED0
:1058A00000018741E842C00B0001876F000187516A
:1058B000701200018851701200018E5171120001A6
:1058C0008539E842F80B0001856F0001855171129E
:1058D000000189A5718C000189B1718E000186518A
:1058E0007212000189B3728C00018951600B606EE5
:1058F00000018951100BFF0AD8B4608460CF50FFBB
:10590000000E0001776F000E786F000E796F000EA9
:105910007A6FF70E00017B6F010E39EC23F0000E59
:105920000001776F000E786F000E796F000E7A6FAE
:10593000F70E00017B6F020E39EC23F00FD0F70E4B
:1059400000018F6F07D000018F690001906928D096
:1059500000018F69F70E0001906F22D09F0E0001A9
:105960008A6FFF0E00018B6F00018951600B0001EF
:105970008C6F8D6B00018A5100018C1300018B51DB
:1059800000018D1300018D51000AD8A4E1D7000158
:105990008C51BF0AD8B4D7D7600AD8B4D0D7D8D7DB
:1059A000000E0001776F000E786F000E796F000E09
:1059B0007A6F8FC07BF0000EA9EC06F0000E00019C
:1059C000776F000E786F000E796F000E7A6F8FC0C0
:1059D0007BF0010EA9EC06F0000E0001776F000EBF
:1059E000786F000E796F000E7A6F90C07BF0020E18
:1059F000A9EC06F0000E0001776F000E786F000E24
:105A0000796F000E7A6F90C07BF0030EA9EC06F060
:105A1000000E0001776F000E786F000E796F000E98
:105A20007A6F90C07BF0040EA9EC06F0000E000126
:105A3000776F000E786F000E796F000E7A6F90C04E
:105A40007BF0050EA9EC06F0000E62EC33F01200BC
:105A5000000E0001C5150001CD6F000E0001C61536
:105A60000001CE6F800E0001C7150001CF6F7F0EC1
:105A70000001C8150001D06F0001CD510001CE1109
:105A80000001CF110001D011D8A409D0000E0001EF
:105A9000C56F000EC66F000EC76F000EC86F000EF8
:105AA0000001C9150001CD6F000E0001CA150001EB
:105AB000CE6F800E0001CB150001CF6F7F0E00016D
:105AC000CC150001D06F0001CD510001CE110001B5
:105AD000CF110001D011D8A409D0000E0001C96F68
:105AE000000ECA6F000ECB6F000ECC6F0001C8AF66
:105AF00026D0C5C0CDF0C6C0CEF0C7C0CFF0C8C05C
:105B0000D0F00001CD1FCE1FCF1FD01FCD2B000E18
:105B1000CE23CF23D023000E0001CD250001C56F79
:105B2000000E0001CE210001C66F000E0001CF2142
:105B30000001C76F800E0001D0210001C86F000175
:105B4000CCAF26D0C9C0CDF0CAC0CEF0CBC0CFF00C
:105B5000CCC0D0F00001CD1FCE1FCF1FD01FCD2B4A
:105B6000000ECE23CF23D023000E0001CD2500014F
:105B7000C96F000E0001CE210001CA6F000E0001A6
:105B8000CF210001CB6F800E0001D0210001CC6F2E
:105B9000000E0001C51B000EC61B000EC71B800EA9
:105BA000C81B000E0001C91B000ECA1B000ECB1B38
:105BB000800ECC1B0001C9510001C55D0001CA5116
:105BC0000001C6590001CB510001C7590001CC5159
:105BD0000001C859D8B002D0D8901200D880120065
:105BE000D3C077F0D4C078F0D5C079F0D6C07AF0C1
:105BF000950E00017B6F010E00017C6F5BEC31F0B4
:105C0000010196AF17D00001D6AF0AD0000E0001F7
:105C1000D36F000ED46F800ED56FBF0ED66F1200FB
:105C2000000E0001D36F000ED46F000ED56F000E72
:105C3000D66F12000101965105E11D0E0101955D1F
:105C4000D8A009D0D3C0D3F0D4C0D4F0D5C0D5F0FB
:105C5000D6C0D6F01200D3C0C1F0D4C0C2F0D5C0B7
:105C6000C3F0D6C0C4F00EEC2FF0C1C0CBF0C2C060
:105C7000CCF0C3C0CDF0C4C0CEF0010E7BEC2AF056
:105C8000CBC091F1CCC092F1CDC093F1CEC094F1D4
:105C9000D3C0C5F0D4C0C6F0D5C0C7F0D6C0C8F0D8
:105CA00091C1C9F092C1CAF093C1CBF094C1CCF0BC
:105CB00028EC2DF00001D8B01CD091C1A9F092C100
:105CC000AAF093C1ABF094C1ACF0000E0001AD6F2F
:105CD000000EAE6F800EAF6FBF0EB06F85EC18F088
:105CE000A9C0D3F0AAC0D4F0ABC0D5F0ACC0D6F0F8
:105CF000120091C1D3F092C1D4F093C1D5F094C1F8
:105D0000D6F01200C3C0C5F0C4C0C6F00001D890E0
:105D1000C537C6370001D890C537C637C1C0C7F0F0
:105D2000C2C0C8F00001C5510001C7270001C6511B
:105D30000001C823C7C0F6FFC8C0F7FF000EF86E09
:105D40000900F5CFC9F00900F5CFCAF00900F5CF79
:105D5000CBF00A00F5CFCCF052D0C9C094F0CAC045
:105D600095F0CBC096F0CCC097F0BDC090F0BEC00F
:105D700091F0BFC092F0C0C093F0D9EC1AF090C07F
:105D8000A9F091C0AAF092C0ABF093C0ACF00001B2
:105D9000C307D8A0C407C3C0C5F0C4C0C6F0000183
:105DA000D890C537C6370001D890C537C637C1C0AF
:105DB000C7F0C2C0C8F00001C5510001C7270001EB
:105DC000C6510001C823C7C0F6FFC8C0F7FF000EC8
:105DD000F86E0900F5CFADF00900F5CFAEF009007F
:105DE000F5CFAFF00A00F5CFB0F085EC18F0A9C000
:105DF000C9F0AAC0CAF0ABC0CBF0ACC0CCF0000177
:105E0000C3510001C411D8A4A8D7C9C0BDF0CAC0ED
:105E1000BEF0CBC0BFF0CCC0C0F012000001C33553
:105E2000C4350001CA6F0001CA51D8A40AD0000EBF
:105E30000001C16F000EC26F000EC36F000EC46F71
:105E40001200C1C0C5F0C2C0C6F0C3C0C7F0C4C014
:105E5000C8F0200E06D00001D890C833C733C6332F
:105E6000C533E82EF8D70001C5510001C96F000104
:105E7000C38FFF0E0001C117FF0EC217FF0EC3171D
:105E8000000EC417960E0001CA5F0001CAAF1AD0F7
:105E90000001CA51800A970FD8B00AD0000E000145
:105EA000C16F000EC26F000EC36F000EC46F1200F0
:105EB0000001D890C433C333C233C1330001CA3F99
:105EC000F7D71BD01F0E0001CA6512D0000E0001CB
:105ED000C16F000EC26F000EC36F000EC46F1200C0
:105EE0000001D890C137C237C337C4370001CA0791
:105EF0000001CA510001D8A4F3D70001C951000123
:105F0000D8B409D00001C41FC31FC21FC16D000E49
:105F1000C223C323C423C1C0C1F0C2C0C2F0C3C0E6
:105F2000C3F0C4C0C4F0120052AA63D041EC33F0F5
:105F3000E806D8A4FBD7050E0001776F000E786F36
:105F4000000E796F000E7A6F730E00017B6F010EE9
:105F500000017C6F080E00017D6FBC0E00017E6F9A
:105F60002CEC0CF0E6C06BF10001E75101016C6F05
:105F7000000E51B6010E01016D6F41EC33F0E806E1
:105F8000D8A4FBD7030E0001776F000E786F000EC8
:105F9000796F000E7A6F6B0E00017B6F010E0001AE
:105FA0007C6F080E00017D6FBC0E00017E6F2CEC33
:105FB0000CF0000E01015C6F41EC33F0E806D8A450
:105FC000FBD7040E0001776F000E786F000E796F1B
:105FD000000E7A6F5B0E00017B6F010E00017C6F7B
:105FE000080E00017D6FBC0E00017E6F2CEC0CF0E2
:105FF000120041EC33F0E806D8A4FBD70E0E0001E6
:10600000776F000E786F000E796F000E7A6F630E57
:1060100000017B6F010E00017C6F080E00017D6F97
:10602000BC0E00017E6F2CEC0CF01200DB0E0001A8
:10603000C56F0F0EC66F490EC76F400EC86FB8C14F
:10604000C9F0B9C1CAF0BAC1CBF0BBC1CCF028ECE1
:106050002DF00001D8B02ED0B8C1A9F0B9C1AAF076
:10606000BAC1ABF0BBC1ACF0E40E0001AD6FCB0E1A
:10607000AE6F960EAF6FC00EB06F85EC18F0A9C072
:10608000BCF1AAC0BDF1ABC0BEF1ACC0BFF1BCC198
:106090009FF1BDC1A0F1BEC1A1F1BFC1A2F108EC49
:1060A00025F09FC1B8F1A0C1B9F1A1C1BAF1A2C157
:1060B000BBF11200B8C1A9F0B9C1AAF0BAC1ABF0E6
:1060C000BBC1ACF0DB0E0001AD6F0F0EAE6FC90EA1
:1060D000AF6F3F0EB06F85EC18F0A9C0BCF1AAC03D
:1060E000BDF1ABC0BEF1ACC0BFF1BCC19FF1BDC141
:1060F000A0F1BEC1A1F1BFC1A2F108EC25F09FC182
:10610000B8F1A0C1B9F1A1C1BAF1A2C1BBF11200AD
:10611000E9CF6BF0EACF6CF0E1CF6DF0E2CF6EF03B
:10612000D9CF6FF0DACF70F0F3CF71F0F4CF72F017
:10613000F6CF73F0F7CF74F0F8CF75F0F5CF76F0B7
:10614000F1AC07D0F19C000EB36E000EB26E519808
:1061500030D0B3CF26F0B2CF27F026C023F0246A88
:1061600023500001676F2750236E67C024F0D8903A
:1061700024300001676F23301F6E67C020F01FC0FE
:1061800060F020C061F0000E0001636F3A0E626F94
:10619000E3EC31F02550020D010EF324D96E000E10
:1061A000F420DA6E000160C0DEFF000161C0DDFF97
:1061B000F18CF29276C0F5FF75C0F8FF74C0F7FF5E
:1061C00073C0F6FF72C0F4FF71C0F3FF70C0DAFF56
:1061D0006FC0D9FF6EC0E2FF6DC0E1FF6CC0EAFF87
:1061E0006BC0E9FF6AC0FBFF69C0FAFF559211005E
:1061F000000E0101006F010E0101016F020E01018D
:10620000026F030E0101036F040E0101046F050EFE
:106210000101056F060E0101066F070E0101076FF0
:106220001FEC32F08198819A819C5296529A010E0D
:1062300000017E6FF40E7D6FC1EC32F033D0000EA2
:1062400000017E6F640E7D6FC1EC32F041EC33F0E3
:106250000009D8B4FBD781A802D0010E01D0000EEE
:10626000FF0A0001D76F0001D73B81500001D71909
:10627000EF0BD719816E0F0E0001776F000E786F4C
:10628000000E796F000E7A6F830E00017B6F010E96
:1062900000017C6F080E00017D6FFC0E00017E6F17
:1062A0002CEC0CF051A0CBD762EC2BF055EC32F07B
:1062B0002CEC1DF0F7D70001775100017811000197
:1062C000791100017A11D8A409D07BC0D9FF7CC014
:1062D000DAFF000EDE6E000EDD6E120000017A5154
:1062E0007F0B00017D6F7E6BD89000017D377E377C
:1062F0007BC0D9FF7CC0DAFF7DC0DEFF7EC0DDFF42
:10630000000179AF04D000017D6B7D2B02D000012C
:106310007D6B00017D517BC0D9FF7CC0DAFFDE12AE
:10632000000EDD127BC0D9FF7CC0DAFF820EDE26B4
:10633000FF0EDD2200017A817A837A857A877A8955
:106340007A8B7A9D0001799F120001EE00F08B0E8E
:10635000EE6AE806FDE100EED8F0100EEE6AE806FF
:10636000FDE1526A516A00EE01F0290EEE6AE8067C
:10637000FDE1DA0EF66E660EF76E000EF86E01EEB7
:10638000E8F010EE08F00900F5CFEEFFE550E1501F
:10639000FAE1E40EF66E660EF76E000EF86E090076
:1063A000F5CFE8F0E20EF66E660EF76E000EF86EB0
:1063B0000900F5CF53F00900F5CF54F055905592F0
:1063C0000001F8EF30F0000E0001666F000E656FFF
:1063D0000001625100016311D8B42CD0010E0001FC
:1063E000646F06D00001D890623763370001642BD8
:1063F000000163AFF7D70001D89065376637000119
:1064000062510001605D0001635100016159D8A033
:106410000AD0000162510001605F00016351000178
:10642000615B000165810001D89063336233000134
:10643000642FE1D765C060F066C061F01200000E05
:10644000896EF00E926E000E8A6E8A0E936E000EAA
:106450008B6E9468C168060E0001856F050E000101
:10646000866F010E0001876F030E0001886F9D0E7D
:106470000001896F040E45EC2CF0D08EA592A590FA
:10648000F194A492A490F292F294A382A380F28A4F
:10649000F298800ED56E340ED76EE00ED66E110EC9
:1064A000B16EF18CF28CF28E120009C11DF01E6AE1
