:04000000CCEF00F051
:0E0008003E82FACF69F0FBCF6AF0CBEF0FF02B
:100018003E80D8CF11F0E8CF12F0E0CF13F0FACF3E
:1000280014F0FBCF15F0E9CF16F0EACF17F0E1CFC7
:1000380018F0E2CF19F0D9CF1AF0DACF1BF0F3CFCE
:100048001CF0F4CF1DF0F6CF1EF0F7CF1FF0F8CF5D
:1000580020F0F5CF21F0A4A0A4B201D04ED0FEEC40
:1000680010F00009D8B447D0A30E016E000E026E3E
:1000780017EC0AF0070E0001A3190001A4110001F2
:10008800A5110001A611D8A422D0A8C02FF0306A6B
:100098002F500D6E0001A7512F6E0DC030F0AAC071
:1000A80031F0326A2F500D6E0001A951316E0DC02A
:1000B80032F031502F240D6E325030200E6ED89011
:1000C8000E300F6E0D300001A16F0FC0A2F00A0EA6
:1000D8000001A3190001A4110001A5110001A61136
:1000E800D8A409D00001A705D8A403D03C80818CEE
:1000F80002D03C90819CA450A450F2A425D0F29840
:10010800340ED76EE00ED66E392A080E3918D8A4E8
:1001180002D0000E396E000E226E3950010D230EEA
:10012800F324D96E000EF420DA6EDF50226E22C05E
:1001380080FF93908A80140EE82EFED73C828A9026
:100148009380F292F288F29421C0F5FF20C0F8FF64
:100158001FC0F7FF1EC0F6FF1DC0F4FF1CC0F3FF51
:100168001BC0DAFF1AC0D9FF19C0E2FF18C0E1FFAF
:1001780017C0EAFF16C0E9FF15C0FBFF14C0FAFF5D
:1001880013C0E0FF12C0E8FF11C0D8FF3E90100076
:10019800ADEF10F00001806F000180510001D8A47C
:1001A80058D000017B29D8A454D00F01019777C0FB
:1001B8007CF078C07DF079C07EF07AC07FF0040EC4
:1001C80006D00001D8907F337E337D337C33E82E10
:1001D800F8D77CC081F07DC082F07EC083F07FC0FC
:1001E80084F0000181510001816F826B836B846B05
:1001F80081C000FF070E000177150001816F000E16
:10020800000178150001826F000E000179150001C8
:10021800836F000E00017A150001846F81C07CF0A5
:1002280082C07DF083C07EF084C07FF0050ED89038
:1002380000017C377D377E377F37E82EF8D77CC0C2
:1002480081F07DC082F07EC083F07FC084F081C0E1
:1002580001FF00018005D8A458D000017B29D8A44B
:1002680054D00F01059777C07CF078C07DF079C035
:100278007EF07AC07FF0040E06D00001D8907F335C
:100288007E337D337C33E82EF8D77CC081F07DC087
:1002980082F07EC083F07FC084F0000181510001AC
:1002A800816F826B836B846B81C004FF070E000132
:1002B80077150001816F000E000178150001826F2B
:1002C800000E000179150001836F000E00017A15F8
:1002D8000001846F81C07CF082C07DF083C07EF015
:1002E80084C07FF0050ED89000017C377D377E37BB
:1002F8007F37E82EF8D77CC081F07DC082F07EC0C1
:1003080083F07FC084F081C005FF020E00018019D0
:10031800D8A458D000017B29D8A454D00F0109973C
:1003280077C07CF078C07DF079C07EF07AC07FF02D
:10033800040E06D00001D8907F337E337D337C33A2
:10034800E82EF8D77CC081F07DC082F07EC083F0B3
:100358007FC084F0000181510001816F826B836B43
:10036800846B81C008FF070E000177150001816FBB
:10037800000E000178150001826F000E000179154A
:100388000001836F000E00017A150001846F81C09F
:100398007CF082C07DF083C07EF084C07FF0050EC3
:1003A800D89000017C377D377E377F37E82EF8D725
:1003B8007CC081F07DC082F07EC083F07FC084F075
:1003C80081C009FF030E00018019D8A458D000018C
:1003D8007B29D8A454D00F010D9777C07CF078C042
:1003E8007DF079C07EF07AC07FF0040E06D000015F
:1003F800D8907F337E337D337C33E82EF8D77CC0AA
:1004080081F07DC082F07EC083F07FC084F000015F
:1004180081510001816F826B836B846B81C00CFFFB
:10042800070E000177150001816F000E0001781595
:100438000001826F000E000179150001836F000E24
:1004480000017A150001846F81C07CF082C07DF0C4
:1004580083C07EF084C07FF0050ED89000017C3701
:100468007D377E377F37E82EF8D77CC081F07DC096
:1004780082F07EC083F07FC084F081C00DFF040E3F
:1004880000018019D8A458D000017B29D8A454D0E1
:100498000F01119777C07CF078C07DF079C07EF0AD
:1004A8007AC07FF0040E06D00001D8907F337E33E7
:1004B8007D337C33E82EF8D77CC081F07DC082F094
:1004C8007EC083F07FC084F0000181510001816FFC
:1004D800826B836B846B81C010FF070E0001771558
:1004E8000001816F000E000178150001826F000E77
:1004F800000179150001836F000E00017A150001D3
:10050800846F81C07CF082C07DF083C07EF084C09F
:100518007FF0050ED89000017C377D377E377F3716
:10052800E82EF8D77CC081F07DC082F07EC083F0D1
:100538007FC084F081C011FF050E00018019D8A486
:1005480058D000017B29D8A454D00F01159777C043
:100558007CF078C07DF079C07EF07AC07FF0040E20
:1005680006D00001D8907F337E337D337C33E82E6C
:10057800F8D77CC081F07DC082F07EC083F07FC058
:1005880084F0000181510001816F826B836B846B61
:1005980081C014FF070E000177150001816F000E5E
:1005A800000178150001826F000E00017915000125
:1005B800836F000E00017A150001846F81C07CF002
:1005C80082C07DF083C07EF084C07FF0050ED89095
:1005D80000017C377D377E377F37E82EF8D77CC01F
:1005E80081F07DC082F07EC083F07FC084F081C03E
:1005F80015FF000180510001D8A489D0F70E000131
:100608007B19D8A484D00F0101870001775100011C
:10061800816F826B836B846B81C003FF000E0001C6
:1006280077150001816FFF0E000178150001826FB8
:10063800000E000179150001836F000E00017A1584
:100648000001846F81C07CF082C07DF083C07EF0A1
:1006580084C07FF07DC07CF07EC07DF07FC07EF0DE
:1006680000017F6B7CC081F07DC082F07EC083F08A
:100678007FC084F081C002FF000179A103D00F017F
:10068800018102D00F010191000179A303D00F016C
:10069800018302D00F010193000179A503D00F0156
:1006A800018B02D00F01019B000179A703D00F0134
:1006B800018D02D00F01019D000179A903D00F011E
:1006C800018F02D00F01019F77C07CF078C07DF0C8
:1006D80079C07EF07AC07FF0160E06D00001D8905F
:1006E8007F337E337D337C33E82EF8D77CC081F0AE
:1006F8007DC082F07EC083F07FC084F0000181510C
:100708000001816F826B836B846B81C000FF0001E5
:100718008005D8A489D0F70E00017B19D8A484D00D
:100728000F010587000177510001816F826B836B90
:10073800846B81C007FF000E000177150001816FEF
:10074800FF0E000178150001826F000E0001791577
:100758000001836F000E00017A150001846F81C0CB
:100768007CF082C07DF083C07EF084C07FF07DC0C5
:100778007CF07EC07DF07FC07EF000017F6B7CC086
:1007880081F07DC082F07EC083F07FC084F081C09C
:1007980006FF000179A103D00F01058102D00F01E6
:1007A8000591000179A303D00F01058302D00F0141
:1007B8000593000179A503D00F01058B02D00F0125
:1007C800059B000179A703D00F01058D02D00F0109
:1007D800059D000179A903D00F01058F02D00F01F3
:1007E800059F77C07CF078C07DF079C07EF07AC034
:1007F8007FF0160E06D00001D8907F337E337D330C
:100808007C33E82EF8D77CC081F07DC082F07EC0B2
:1008180083F07FC084F0000181510001816F826BF9
:10082800836B846B81C004FF020E00018019D8A479
:1008380089D0F70E00017B19D8A484D00F0109874D
:10084800000177510001816F826B836B846B81C0DB
:100858000BFF000E000177150001816FFF0E0001EC
:1008680078150001826F000E000179150001836F71
:10087800000E00017A150001846F81C07CF082C0EF
:100888007DF083C07EF084C07FF07DC07CF07EC0A8
:100898007DF07FC07EF000017F6B7CC081F07DC061
:1008A80082F07EC083F07FC084F081C00AFF00011F
:1008B80079A103D00F01098102D00F01099100012C
:1008C80079A303D00F01098302D00F010993000116
:1008D80079A503D00F01098B02D00F01099B0001F4
:1008E80079A703D00F01098D02D00F01099D0001DE
:1008F80079A903D00F01098F02D00F01099F77C092
:100908007CF078C07DF079C07EF07AC07FF0160E5A
:1009180006D00001D8907F337E337D337C33E82EB8
:10092800F8D77CC081F07DC082F07EC083F07FC0A4
:1009380084F0000181510001816F826B836B846BAD
:1009480081C008FF030E00018019D8A489D0F70ED2
:1009580000017B19D8A484D00F010D8700017751BD
:100968000001816F826B836B846B81C00FFF000E67
:10097800000177150001816FFF0E00017815000155
:10098800826F000E000179150001836F000E0001CF
:100998007A150001846F81C07CF082C07DF083C02D
:1009A8007EF084C07FF07DC07CF07EC07DF07FC08B
:1009B8007EF000017F6B7CC081F07DC082F07EC03C
:1009C80083F07FC084F081C00EFF000179A103D0BD
:1009D8000F010D8102D00F010D91000179A303D001
:1009E8000F010D8302D00F010D93000179A503D0EB
:1009F8000F010D8B02D00F010D9B000179A703D0C9
:100A08000F010D8D02D00F010D9D000179A903D0B2
:100A18000F010D8F02D00F010D9F77C07CF078C0B9
:100A28007DF079C07EF07AC07FF0160E06D0000106
:100A3800D8907F337E337D337C33E82EF8D77CC063
:100A480081F07DC082F07EC083F07FC084F0000119
:100A580081510001816F826B836B846B81C00CFFB5
:100A6800040E00018019D8A489D0F70E00017B1963
:100A7800D8A484D00F011187000177510001816F3C
:100A8800826B836B846B81C013FF000E00017715A6
:100A98000001816FFF0E000178150001826F000EC2
:100AA800000179150001836F000E00017A1500011D
:100AB800846F81C07CF082C07DF083C07EF084C0EA
:100AC8007FF07DC07CF07EC07DF07FC07EF00001AD
:100AD8007F6B7CC081F07DC082F07EC083F07FC0D8
:100AE80084F081C012FF000179A103D00F011181A8
:100AF80002D00F011191000179A303D00F011183D6
:100B080002D00F011193000179A503D00F01118BB9
:100B180002D00F01119B000179A703D00F01118D9D
:100B280002D00F01119D000179A903D00F01118F87
:100B380002D00F01119F77C07CF078C07DF079C09A
:100B48007EF07AC07FF0160E06D00001D8907F3371
:100B58007E337D337C33E82EF8D77CC081F07DC0AE
:100B680082F07EC083F07FC084F0000181510001D3
:100B7800816F826B836B846B81C010FF050E00014F
:100B88008019D8A41200F70E00017B19D8A412000E
:100B98000F011587000177510001816F826B836B0C
:100BA800846B81C017FF000E000177150001816F6B
:100BB800FF0E000178150001826F000E0001791503
:100BC8000001836F000E00017A150001846F81C057
:100BD8007CF082C07DF083C07EF084C07FF07DC051
:100BE8007CF07EC07DF07FC07EF000017F6B7CC012
:100BF80081F07DC082F07EC083F07FC084F081C028
:100C080016FF000179A103D00F01158102D00F0151
:100C18001591000179A303D00F01158302D00F01AC
:100C28001593000179A503D00F01158B02D00F0190
:100C3800159B000179A703D00F01158D02D00F0174
:100C4800159D000179A903D00F01158F02D00F015E
:100C5800159F77C07CF078C07DF079C07EF07AC0AF
:100C68007FF0160E06D00001D8907F337E337D3397
:100C78007C33E82EF8D77CC081F07DC082F07EC03E
:100C880083F07FC084F0000181510001816F826B85
:100C9800836B846B81C014FF12000F0140B73FD1F2
:100CA8007DC045FF00017EAD03D00F01458D02D008
:100CB8000F01459D00017EA779D000017751000101
:100CC800836F846B856B866B83C044FF000E0001C5
:100CD80077150001836FFF0E000178150001846FFE
:100CE800000E000179150001856F000E00017A15CC
:100CF8000001866F83C07FF084C080F085C081F0DA
:100D080086C082F080C07FF081C080F082C081F010
:100D18000001826B7FC083F080C084F081C085F0C1
:100D280082C086F083C043FF000E0F01426F0F019F
:100D38004287000179A102D00F014281000179A305
:100D480002D00F014283000179A502D00F01428B26
:100D5800000179A702D00F01428D000179A902D0C4
:100D68000F01428F77C07FF078C080F079C081F0A2
:100D78007AC082F0160E06D00001D89082338133F3
:100D880080337F33E82EF8D77FC083F080C084F0AB
:100D980081C085F082C086F0000183510001836F15
:100DA800846B856B866B83C041FF59D00F014297D6
:100DB80077C07FF078C080F079C081F07AC082F087
:100DC800040E06D00001D8908233813380337F33FC
:100DD800E82EF8D77FC083F080C084F081C085F00A
:100DE80082C086F0000183510001836F846B856B9C
:100DF800866B83C041FF070E000177150001836FE2
:100E0800000E000178150001846F000E00017915AD
:100E18000001856F000E00017A150001866F83C0FE
:100E28007FF084C080F085C081F086C082F0050E16
:100E3800D89000017F37803781378237E82EF8D77E
:100E48007FC083F080C084F081C085F082C086F0C6
:100E58000F0142511F0B0F01426F83C042FF000177
:100E68007EA103D00F01408102D00F014091000103
:100E78007EA303D00F01408302D00F0140937BC0B3
:100E8800D9FF7CC0DAFFDF500F01466F000120EE6A
:100E980001F07B51D9267C51DA22DF500F01476FD0
:100EA800000120EE02F07B51D9267C51DA22DF5076
:100EB8000F01486F000120EE03F07B51D9267C51C9
:100EC800DA22DF500F01496F000120EE04F07B5158
:100ED800D9267C51DA22DF500F014A6F000120EE3B
:100EE80005F07B51D9267C51DA22DF500F014B6F78
:100EF800000120EE06F07B51D9267C51DA22DF5022
:100F08000F014C6F000120EE07F07B51D9267C5170
:100F1800DA22DF500F014D6F0F01408712000F01D9
:100F280030B73FD17DC035FF00017EAD03D00F0142
:100F3800358D02D00F01359D00017EA779D00001C3
:100F480077510001836F846B856B866B83C034FF98
:100F5800000E000177150001836FFF0E0001781560
:100F68000001846F000E000179150001856F000EE5
:100F780000017A150001866F83C07FF084C080F07D
:100F880085C081F086C082F080C07FF081C080F08B
:100F980082C081F00001826B7FC083F080C084F042
:100FA80081C085F082C086F083C033FF000E0F0138
:100FB800326F0F013287000179A102D00F0132810F
:100FC800000179A302D00F013283000179A502D074
:100FD8000F01328B000179A702D00F01328D000179
:100FE80079A902D00F01328F77C07FF078C080F0E6
:100FF80079C081F07AC082F0160E06D00001D89030
:101008008233813380337F33E82EF8D77FC083F073
:1010180080C084F081C085F082C086F000018351D1
:101028000001836F846B856B866B83C031FF59D059
:101038000F01329777C07FF078C080F079C081F0D7
:101048007AC082F0040E06D00001D8908233813332
:1010580080337F33E82EF8D77FC083F080C084F0D8
:1010680081C085F082C086F0000183510001836F42
:10107800846B856B866B83C031FF070E0001771583
:101088000001836F000E000178150001846F000EC7
:10109800000179150001856F000E00017A15000125
:1010A800866F83C07FF084C080F085C081F086C0E1
:1010B80082F0050ED89000017F378037813782375C
:1010C800E82EF8D77FC083F080C084F081C085F017
:1010D80082C086F00F0132511F0B0F01326F83C09F
:1010E80032FF00017EA103D00F01308102D00F0131
:1010F800309100017EA303D00F01308302D00F018D
:1011080030937BC0D9FF7CC0DAFFDF500F01366F08
:10111800000120EE01F07B51D9267C51DA22DF5004
:101128000F01376F000120EE02F07B51D9267C5168
:10113800DA22DF500F01386F000120EE03F07B51F7
:10114800D9267C51DA22DF500F01396F000120EED9
:1011580004F07B51D9267C51DA22DF500F013A6F17
:10116800000120EE05F07B51D9267C51DA22DF50B0
:101178000F013B6F000120EE06F07B51D9267C5110
:10118800DA22DF500F013C6F000120EE07F07B519F
:10119800D9267C51DA22DF500F013D6F0F013087CD
:1011A80012000F0120B712007DC025FF00017EAD9F
:1011B80003D00F01258D02D00F01259D00017EA7C8
:1011C80079D0000177510001836F846B856B866B42
:1011D80083C024FF000E000177150001836FFF0E06
:1011E800000178150001846F000E000179150001D7
:1011F800856F000E00017A150001866F83C07FF0AD
:1012080084C080F085C081F086C082F080C07FF005
:1012180081C080F082C081F00001826B7FC083F0C2
:1012280080C084F081C085F082C086F083C023FF2F
:10123800000E0F01226F0F012287000179A102D051
:101248000F012281000179A302D00F01228300013E
:1012580079A502D00F01228B000179A702D00F01D6
:10126800228D000179A902D00F01228F77C07FF06B
:1012780078C080F079C081F07AC082F0160E06D06E
:101288000001D8908233813380337F33E82EF8D73A
:101298007FC083F080C084F081C085F082C086F072
:1012A800000183510001836F846B856B866B83C05B
:1012B80021FF59D00F01229777C07FF078C080F0C6
:1012C80079C081F07AC082F0040E06D00001D8906F
:1012D8008233813380337F33E82EF8D77FC083F0A1
:1012E80080C084F081C085F082C086F000018351FF
:1012F8000001836F846B856B866B83C021FF070EAB
:10130800000177150001836F000E000178150001B8
:10131800846F000E000179150001856F000E000131
:101328007A150001866F83C07FF084C080F085C085
:1013380081F086C082F0050ED89000017F37803793
:1013480081378237E82EF8D77FC083F080C084F0D9
:1013580081C085F082C086F00F0122511F0B0F015A
:10136800226F83C022FF00017EA103D00F012081DC
:1013780002D00F01209100017EA303D00F0120832A
:1013880002D00F0120937BC0D9FF7CC0DAFFDF5069
:101398000F01266F000120EE01F07B51D9267C5108
:1013A800DA22DF500F01276F000120EE02F07B5197
:1013B800D9267C51DA22DF500F01286F000120EE78
:1013C80003F07B51D9267C51DA22DF500F01296FB7
:1013D800000120EE04F07B51D9267C51DA22DF503F
:1013E8000F012A6F000120EE05F07B51D9267C51B0
:1013F800DA22DF500F012B6F000120EE06F07B513F
:10140800D9267C51DA22DF500F012C6F000120EE23
:1014180007F07B51D9267C51DA22DF500F012D6F5E
:101428000F0120871200000E0B6E74BE0B8074BC77
:101438000B820F0150AF43D101C0D9FF02C0DAFFC0
:10144800DE6ADE6ADE6ADD6A20EE04F00150D92623
:101458000250DA2256CFDFFF20EE05F00150D926E0
:101468000250DA2257CFDFFF20EE06F00150D926CE
:101478000250DA2258CFDFFF20EE07F00150D926BC
:101488000250DA2259CFDFFF20EE08F00150D926AA
:101498000250DA225ACFDFFF20EE09F00150D92698
:1014A8000250DA225BCFDFFF20EE0AF00150D92686
:1014B8000250DA225CCFDFFF20EE0BF00150D92674
:1014C8000250DA225DCFDFFF20EE0EF00150D92660
:1014D8000250DA220F0155AD02D0010E01D0000EE4
:1014E800DF6E20EE0DF00150D9260250DA220F01EE
:1014F80055510F0BDF6E20EE0CF00150D92602502B
:10150800DA220F0152A702D0010E01D0000EDF6EC1
:101518000F0152B744D051CF03F0046A056A066A36
:10152800030ED8900336043605360636E82EF9D76A
:1015380001C0D9FF02C0DAFF03C0DEFF04C0DEFF2E
:1015480005C0DEFF06C0DEFF0F015239E842070B77
:10155800070B0C6E01C0D9FF02C0DAFFDECF03F023
:10156800DECF04F0DECF05F0DECF06F00C5003240A
:10157800076E000E0420086E000E0520096E000E8E
:1015880006200A6E01C0D9FF02C0DAFF07C0DEFFDD
:1015980008C0DEFF09C0DEFF0AC0DEFF8DD054CFD1
:1015A80003F0046A056A066A01C0D9FF02C0DAFFBF
:1015B80003C0DEFF04C0DEFF05C0DEFF06C0DEFF9D
:1015C80053CF03F0046A056A066A05C006F004C032
:1015D80005F003C004F0036A01C0D9FF02C0DAFFB6
:1015E8000350DE260450DE220550DE220650DE229D
:1015F8000F0152A10CD001C0D9FF02C0DAFF000EC2
:10160800DE12000EDE12010EDE12000EDE120F01D7
:1016180052A30CD001C0D9FF02C0DAFF000EDE12BF
:10162800000EDE12020EDE12000EDE120F0152ABA9
:101638000CD001C0D9FF02C0DAFF000EDE12000E86
:10164800DE12040EDE12000EDE120F0152AD0CD0B7
:1016580001C0D9FF02C0DAFF000EDE12000EDE1252
:10166800080EDE12000EDE120F0152AF0CD001C0C0
:10167800D9FF02C0DAFF000EDE12000EDE12100ED5
:10168800DE12000EDE1251CF03F0046A056A066A04
:10169800150ED8900336043605360636E82EF9D7E7
:1016A80001C0D9FF02C0DAFF0350DE120450DE1277
:1016B8000550DE120650DE120F01509F120060AE78
:1016C800120001C0D9FF02C0DAFFDE6ADE6ADE6AF4
:1016D800DD6A20EE04F00150D9260250DA2266CFE6
:1016E800DFFF20EE05F00150D9260250DA2267CF3D
:1016F800DFFF20EE06F00150D9260250DA2268CF2B
:10170800DFFF20EE07F00150D9260250DA2269CF18
:10171800DFFF20EE08F00150D9260250DA226ACF06
:10172800DFFF20EE09F00150D9260250DA226BCFF4
:10173800DFFF20EE0AF00150D9260250DA226CCFE2
:10174800DFFF20EE0BF00150D9260250DA226DCFD0
:10175800DFFF20EE0EF00150D9260250DA2265ACE8
:1017680002D0010E01D0000EDF6E20EE0DF0015008
:10177800D9260250DA2265500F0BDF6E20EE0CF0EE
:101788000150D9260250DA2262A602D0010E01D0F9
:10179800000EDF6E62B643D061CF03F0046A056ABB
:1017A800066A030ED8900336043605360636E82E48
:1017B800F9D701C0D9FF02C0DAFF03C0DEFF04C0B9
:1017C800DEFF05C0DEFF06C0DEFF6238E842070B19
:1017D800070B0C6E01C0D9FF02C0DAFFDECF03F0A1
:1017E800DECF04F0DECF05F0DECF06F00C50032488
:1017F800076E000E0420086E000E0520096E000E0C
:1018080006200A6E01C0D9FF02C0DAFF07C0DEFF5A
:1018180008C0DEFF09C0DEFF0AC0DEFF88D064CF43
:1018280003F0046A056A066A01C0D9FF02C0DAFF3C
:1018380003C0DEFF04C0DEFF05C0DEFF06C0DEFF1A
:1018480063CF03F0046A056A066A05C006F004C09F
:1018580005F003C004F0036A01C0D9FF02C0DAFF33
:101868000350DE260450DE220550DE220650DE221A
:1018780062A00CD001C0D9FF02C0DAFF000EDE1250
:10188800000EDE12010EDE12000EDE1262A20CD075
:1018980001C0D9FF02C0DAFF000EDE12000EDE1210
:1018A800020EDE12000EDE1262AA0CD001C0D9FFB1
:1018B80002C0DAFF000EDE12000EDE12040EDE1287
:1018C800000EDE1262AC0CD001C0D9FF02C0DAFFF4
:1018D800000EDE12000EDE12080EDE12000EDE1200
:1018E80062AE0CD001C0D9FF02C0DAFF000EDE12D2
:1018F800000EDE12100EDE12000EDE1261CF03F0B3
:10190800046A056A066A150ED89003360436053649
:101918000636E82EF9D701C0D9FF02C0DAFF035016
:10192800DE120450DE120550DE120650DE12609EF2
:1019380012000001806F00018005D8A456D0000174
:101948007B29D8A452D077C07CF078C07DF079C0CC
:101958007EF07AC07FF0040E06D00001D8907F3365
:101968007E337D337C33E82EF8D77CC081F07DC090
:1019780082F07EC083F07FC084F0000181510001B5
:10198800816F826B836B846B81C018FF070E000127
:1019980077150001816F000E000178150001826F34
:1019A800000E000179150001836F000E00017A1501
:1019B8000001846F81C07CF082C07DF083C07EF01E
:1019C80084C07FF0050ED89000017C377D377E37C4
:1019D8007F37E82EF8D77CC081F07DC082F07EC0CA
:1019E80083F07FC084F081C019FF020E00018019C6
:1019F800D8A456D000017B29D8A452D077C07CF057
:101A080078C07DF079C07EF07AC07FF0040E06D0F1
:101A18000001D8907F337E337D337C33E82EF8D7AE
:101A28007CC081F07DC082F07EC083F07FC084F0EE
:101A3800000181510001816F826B836B846B81C0CF
:101A48001CFF070E000177150001816F000E0001D1
:101A580078150001826F000E000179150001836F6F
:101A6800000E00017A150001846F81C07CF082C0ED
:101A78007DF083C07EF084C07FF0050ED890000111
:101A88007C377D377E377F37E82EF8D77CC081F0EA
:101A98007DC082F07EC083F07FC084F081C01DFFCE
:101AA80000018005D8A487D0F70E00017B19D8A4BF
:101AB80082D0000177510001816F826B836B846B48
:101AC80081C01BFF000E000177150001816FFF0E1A
:101AD800000178150001826F000E000179150001E0
:101AE800836F000E00017A150001846F81C07CF0BD
:101AF80082C07DF083C07EF084C07FF07DC07CF022
:101B08007EC07DF07FC07EF000017F6B7CC081F0DD
:101B18007DC082F07EC083F07FC084F081C01AFF50
:101B2800000179A103D00F01198102D00F01199189
:101B3800000179A303D00F01198302D00F01199373
:101B4800000179A503D00F01198B02D00F01199B51
:101B5800000179A703D00F01198D02D00F01199D3B
:101B6800000179A903D00F01198F02D00F01199F25
:101B780077C07CF078C07DF079C07EF07AC07FF0C5
:101B8800160E06D00001D8907F337E337D337C3328
:101B9800E82EF8D77CC081F07DC082F07EC083F04B
:101BA8007FC084F0000181510001816F826B836BDB
:101BB800846B81C018FF020E00018019D8A412009E
:101BC800F70E00017B19D8A412000001775100011B
:101BD800816F826B836B846B81C01FFF000E0001D5
:101BE80077150001816FFF0E000178150001826FE3
:101BF800000E000179150001836F000E00017A15AF
:101C08000001846F81C07CF082C07DF083C07EF0CB
:101C180084C07FF07DC07CF07EC07DF07FC07EF008
:101C280000017F6B7CC081F07DC082F07EC083F0B4
:101C38007FC084F081C01EFF000179A103D00F018D
:101C48001D8102D00F011D91000179A303D00F015E
:101C58001D8302D00F011D93000179A503D00F0148
:101C68001D8B02D00F011D9B000179A703D00F0126
:101C78001D8D02D00F011D9D000179A903D00F0110
:101C88001D8F02D00F011D9F77C07CF078C07DF0BA
:101C980079C07EF07AC07FF0160E06D00001D89089
:101CA8007F337E337D337C33E82EF8D77CC081F0D8
:101CB8007DC082F07EC083F07FC084F00001815136
:101CC8000001816F826B836B846B81C01CFF1200E3
:101CD80000018E6F800EF3EC10F0000E706E000E97
:101CE800716E000E726E00018741E842C00B000160
:101CF800876F00018751701200018851701200012E
:101D08008E51711200018539E842F80B0001856F88
:101D1800000185517112000189A5718C000189B1FA
:101D2800718E000186517212000189B3728C000114
:101D38008951600B606E00018951100BFF0AD8B4FD
:101D4800608460CF50FF000E0001776F000E786F3F
:101D5800000E796F000E7A6FF70E00017B6F010E8F
:101D68009DEC0CF0000E0001776F000E786F000EEE
:101D7800796F000E7A6FF70E00017B6F020E9DECF3
:101D88000CF00FD0F70E00018F6F07D000018F699C
:101D98000001906928D000018F69F70E0001906F4B
:101DA80022D09F0E00018A6FFF0E00018B6F000189
:101DB8008951600B00018C6F8D6B00018A51000105
:101DC8008C1300018B5100018D1300018D51000A05
:101DD800D8A4E1D700018C51BF0AD8B4D7D7600A7C
:101DE800D8B4D0D7D8D7000E0001776F000E786F1F
:101DF800000E796F000E7A6F8FC07BF0000ECEEC6C
:101E080000F0000E0001776F000E786F000E796FFA
:101E1800000E7A6F8FC07BF0010ECEEC00F0000E42
:101E28000001776F000E786F000E796F000E7A6FE1
:101E380090C07BF0020ECEEC00F0000E0001776F30
:101E4800000E786F000E796F000E7A6F90C07BF0ED
:101E5800030ECEEC00F0000E0001776F000E786FD5
:101E6800000E796F000E7A6F90C07BF0040ECEECF6
:101E780000F0000E0001776F000E786F000E796F8A
:101E8800000E7A6F90C07BF0050ECEEC00F0000ECD
:101E9800F3EC10F0120076D00001925105E1330EF8
:101EA8000001915DD8A020D03CB41ED0E1EC10F028
:101EB8000009D8B4FBD7080E0001776F000E786FC1
:101EC800000E796F000E7A6FB20E00017B6F000E64
:101ED80000017C6F080E00017D6FFC0E00017E6F13
:101EE80051EC06F03C848A880001925123E1320EBD
:101EF8000001915DD8A03CA41DD03C94E1EC10F009
:101F08000009D8B4FBD7070E0001776F000E786F71
:101F1800000E796F000E7A6FB20E00017B6F000E13
:101F280000017C6F080E00017D6FFC0E00017E6FC2
:101F380051EC06F00001A25105E1330E0001A15D4C
:101F4800D8A020D0818AE1EC10F00009D8B4FBD7E2
:101F5800010E0001B26F0B0E0001776F000E786F53
:101F6800000E796F000E7A6FB20E00017B6F000EC3
:101F780000017C6F010E00017D6FBC0E00017E6FB9
:101F880051EC06F081AC12003CA0120085D7E9CFD5
:101F98006BF0EACF6CF0E1CF6DF0E2CF6EF0D9CF05
:101FA8006FF0DACF70F0F3CF71F0F4CF72F0F6CFB4
:101FB80073F0F7CF74F0F8CF75F0F5CF76F0F1AC99
:101FC80007D0F19C000EB36E000EB26E3C9230D07A
:101FD800B3CF3BF0B2CF3AF03BC037F0386A375056
:101FE8000001676F3A50376E67C038F0D8903830C4
:101FF8000001676F3730336E67C034F033C060F06C
:1020080034C061F0000E0001636F3A0E626F3BEC62
:1020180010F03950020D910EF324D96E000EF42001
:10202800DA6E000160C0DEFF000161C0DDFFF18CE7
:10203800F29276C0F5FF75C0F8FF74C0F7FF73C061
:10204800F6FF72C0F4FF71C0F3FF70C0DAFF6FC013
:10205800D9FF6EC0E2FF6DC0E1FF6CC0EAFF6BC044
:10206800E9FF6AC0FBFF69C0FAFF3E921100000E4B
:102078000001666F000E656F000162510001631177
:10208800D8B42CD0010E0001646F06D00001D8909E
:10209800623763370001642B000163AFF7D7000193
:1020A800D89065376637000162510001605D000114
:1020B800635100016159D8A00AD0000162510001A2
:1020C800605F000163510001615B000165810001EF
:1020D800D890633362330001642FE1D765C060F0A4
:1020E80066C061F01200000E896EF00E926E000E4E
:1020F8008A6E8A0E936E000E8B6E9468C168060E07
:102108000001856F050E0001866F010E0001876FC3
:10211800030E0001886F9D0E0001896F040E6CECA0
:102128000EF0D08EA492A490A592A590A382A3802D
:10213800F194800ED56E110EB16E340ED76EE00E8E
:10214800D66EF294F28AF18CF292F298F28CF28EB8
:10215800120000EE91F0290EEE6AE806FDE13C6AF5
:1021680000EE23F0190EEE6AE806FDE1120EF66E97
:10217800220EF76E000EF86E0900F5CF3DF03E9086
:102188003E920001C8EF10F077EC10F0000E236EBD
:10219800010E246E020E256E030E266E040E276EA7
:1021A800050E286E060E296E070E2A6E8198819AF2
:1021B800819C3C944FEC0FF0FDD7010E0001776F26
:1021C8000F0140A709D00F0130A706D00F0120A7A3
:1021D80003D0000E0001776F000177511200000153
:1021E800776F77C06FFF6E50E00B00017719D8B496
:1021F8001200F9D7010E016E60BE05D00F0150BF65
:0C22080002D0000E016E01501200100008
:020000040020DA
:08000000FFFFFFFFFFFFFFFF00
:020000040030CA
:0E000000FF021F1EFF8081FF3FC03FE03F4018
:00000001FF
