:040000002AEF01F0F2
:0E0008004882FACF69F0FBCF6AF050EF2DF07E
:100018004880D8CF11F0E8CF12F0E0CF13F0FACF34
:1000280014F0FBCF15F0E9CF16F0EACF17F0E1CFC7
:1000380018F0E2CF19F0D9CF1AF0DACF1BF0F3CFCE
:100048001CF0F4CF1DF0F6CF1EF0F7CF1FF0F8CF5D
:1000580020F0F5CF21F0F2A436D0F298D59E340ED8
:10006800D76EE00ED66ED58E46A60CD04250020D45
:10007800240EF324D96E000EF420DA6E880EDE6E9C
:10008800130EDD6E422A080E4218D8A402D0000EC4
:10009800426E000E226E4250010D000EF324D96EFE
:1000A800010EF420DA6EDF50226E22C080FF93909A
:1000B8008A80140EE82EFED746868A909380F292A4
:1000C800F288F294F18CA4A0A4B201D09BD04E0E79
:1000D800016E010E026EB7EC12F00D0E01014E1901
:1000E80001014F110101501101015111D8B446927B
:1000F800070E01014E1901014F11010150110101B3
:100108005111D8A42BD001015C05D8B427D0000E1A
:10011800376E000E366E53C138F0396A38500D6E9E
:1001280001015251386E0DC039F055C13AF03B6AA1
:100138003A500D6E010154513A6E0DC03BF03850E3
:100148003A240D6E39503B200E6ED8900E300F6E4B
:100158000D30366E0FC037F04688468A0A0E010108
:100168004E1901014F110101501101015111D8A47B
:100178000CD001015205D8A403D04680818C05D04B
:1001880046908198819A819C47920C0E01014E19E4
:1001980001014F110101501101015111D8B44786D5
:1001A800060E01014E1901014F1101015011010103
:1001B8005111D8A425D0000E236E070E236401D058
:1001C80014D02350010D520EF324D96E010EF420E1
:1001D800DA6E2350010D080EF324E16E010EF420AF
:1001E800E26EDFCFE7FF232AE8D70D0E01014E1993
:1001F80001014F110101501101015111D8B4469C60
:10020800A490A49221C0F5FF20C0F8FF1FC0F7FFFB
:100218001EC0F6FF1DC0F4FF1CC0F3FF1BC0DAFFB1
:100228001AC0D9FF19C0E2FF18C0E1FF17C0EAFFE2
:1002380016C0E9FF15C0FBFF14C0FAFF13C0E0FFAA
:1002480012C0E8FF11C0D8FF489010007DEF2EF0D3
:100D000000063C04427D9F6A425C900142604DBBFC
:100D10004051EC473EDE8D1FBB063C0442C0598B60
:100D20004274044442F99B4F410000803FECF34A77
:100D300048359595C717C1DC45FDDB6DC372B333EC
:100D4000402B3401487F9DB045E7FFD94200008029
:100D50003F000001806F000180510001D8A458D0ED
:100D600000017B29D8A454D00F01019777C07CF0F3
:100D700078C07DF079C07EF07AC07FF0040E06D096
:100D80000001D8907F337E337D337C33E82EF8D753
:100D90007CC081F07DC082F07EC083F07FC084F093
:100DA000000181510001816F826B836B846B81C074
:100DB00000FF070E000177150001816F000E000192
:100DC00078150001826F000E000179150001836F14
:100DD000000E00017A150001846F81C07CF082C092
:100DE0007DF083C07EF084C07FF0050ED8900001B6
:100DF0007C377D377E377F37E82EF8D77CC081F08F
:100E00007DC082F07EC083F07FC084F081C001FF8E
:100E100000018005D8A458D000017B29D8A454D063
:100E20000F01059777C07CF078C07DF079C07EF027
:100E30007AC07FF0040E06D00001D8907F337E3355
:100E40007D337C33E82EF8D77CC081F07DC082F002
:100E50007EC083F07FC084F0000181510001816F6A
:100E6000826B836B846B81C004FF070E00017715D2
:100E70000001816F000E000178150001826F000EE5
:100E8000000179150001836F000E00017A15000141
:100E9000846F81C07CF082C07DF083C07EF084C00E
:100EA0007FF0050ED89000017C377D377E377F3785
:100EB000E82EF8D77CC081F07DC082F07EC083F040
:100EC0007FC084F081C005FF020E00018019D8A404
:100ED00058D000017B29D8A454D00F01099777C0BE
:100EE0007CF078C07DF079C07EF07AC07FF0040E8F
:100EF00006D00001D8907F337E337D337C33E82EDB
:100F0000F8D77CC081F07DC082F07EC083F07FC0C6
:100F100084F0000181510001816F826B836B846BCF
:100F200081C008FF070E000177150001816F000ED8
:100F3000000178150001826F000E00017915000193
:100F4000836F000E00017A150001846F81C07CF070
:100F500082C07DF083C07EF084C07FF0050ED89003
:100F600000017C377D377E377F37E82EF8D77CC08D
:100F700081F07DC082F07EC083F07FC084F081C0AC
:100F800009FF030E00018019D8A458D000017B2965
:100F9000D8A454D00F010D9777C07CF078C07DF0B5
:100FA00079C07EF07AC07FF0040E06D00001D890A0
:100FB0007F337E337D337C33E82EF8D77CC081F0DD
:100FC0007DC082F07EC083F07FC084F0000181513B
:100FD0000001816F826B836B846B81C00CFF070EF5
:100FE000000177150001816F000E000178150001E6
:100FF000826F000E000179150001836F000E000161
:101000007A150001846F81C07CF082C07DF083C0BE
:101010007EF084C07FF0050ED89000017C377D37CC
:101020007E377F37E82EF8D77CC081F07DC082F014
:101030007EC083F07FC084F081C00DFF040E0001EC
:101040008019D8A458D000017B29D8A454D00F010E
:10105000119777C07CF078C07DF079C07EF07AC0BF
:101060007FF0040E06D00001D8907F337E337D33AD
:101070007C33E82EF8D77CC081F07DC082F07EC042
:1010800083F07FC084F0000181510001816F826B89
:10109000836B846B81C010FF070E00017715000180
:1010A000816F000E000178150001826F000E0001B3
:1010B00079150001836F000E00017A150001846F1D
:1010C00081C07CF082C07DF083C07EF084C07FF060
:1010D000050ED89000017C377D377E377F37E82EAC
:1010E000F8D77CC081F07DC082F07EC083F07FC0E5
:1010F00084F081C011FF050E00018019D8A458D0DA
:1011000000017B29D8A454D00F01159777C07CF03B
:1011100078C07DF079C07EF07AC07FF0040E06D0F2
:101120000001D8907F337E337D337C33E82EF8D7AF
:101130007CC081F07DC082F07EC083F07FC084F0EF
:10114000000181510001816F826B836B846B81C0D0
:1011500014FF070E000177150001816F000E0001DA
:1011600078150001826F000E000179150001836F70
:10117000000E00017A150001846F81C07CF082C0EE
:101180007DF083C07EF084C07FF0050ED890000112
:101190007C377D377E377F37E82EF8D77CC081F0EB
:1011A0007DC082F07EC083F07FC084F081C015FFD7
:1011B000000180510001D8A489D0F70E00017B19ED
:1011C000D8A484D00F010187000177510001816FFD
:1011D000826B836B846B81C003FF000E0001771567
:1011E0000001816FFF0E000178150001826F000E73
:1011F000000179150001836F000E00017A150001CE
:10120000846F81C07CF082C07DF083C07EF084C09A
:101210007FF07DC07CF07EC07DF07FC07EF000015D
:101220007F6B7CC081F07DC082F07EC083F07FC088
:1012300084F081C002FF000179A103D00F01018178
:1012400002D00F010191000179A303D00F010183A6
:1012500002D00F010193000179A503D00F01018B8A
:1012600002D00F01019B000179A703D00F01018D6E
:1012700002D00F01019D000179A903D00F01018F58
:1012800002D00F01019F77C07CF078C07DF079C05B
:101290007EF07AC07FF0160E06D00001D8907F3322
:1012A0007E337D337C33E82EF8D77CC081F07DC05F
:1012B00082F07EC083F07FC084F000018151000184
:1012C000816F826B836B846B81C000FF000180059E
:1012D000D8A489D0F70E00017B19D8A484D00F01BF
:1012E0000587000177510001816F826B836B846BEE
:1012F00081C007FF000E000177150001816FFF0E0E
:10130000000178150001826F000E000179150001BF
:10131000836F000E00017A150001846F81C07CF09C
:1013200082C07DF083C07EF084C07FF07DC07CF001
:101330007EC07DF07FC07EF000017F6B7CC081F0BD
:101340007DC082F07EC083F07FC084F081C006FF44
:10135000000179A103D00F01058102D00F01059191
:10136000000179A303D00F01058302D00F0105937B
:10137000000179A503D00F01058B02D00F01059B59
:10138000000179A703D00F01058D02D00F01059D43
:10139000000179A903D00F01058F02D00F01059F2D
:1013A00077C07CF078C07DF079C07EF07AC07FF0A5
:1013B000160E06D00001D8907F337E337D337C3308
:1013C000E82EF8D77CC081F07DC082F07EC083F02B
:1013D0007FC084F0000181510001816F826B836BBB
:1013E000846B81C004FF020E00018019D8A489D04B
:1013F000F70E00017B19D8A484D00F0109870001E2
:1014000077510001816F826B836B846B81C00BFF0E
:10141000000E000177150001816FFF0E00017815A5
:101420000001826F000E000179150001836F000E2C
:1014300000017A150001846F81C07CF082C07DF0CC
:1014400083C07EF084C07FF07DC07CF07EC07DF0E4
:101450007FC07EF000017F6B7CC081F07DC082F098
:101460007EC083F07FC084F081C00AFF000179A1B3
:1014700003D00F01098102D00F010991000179A366
:1014800003D00F01098302D00F010993000179A550
:1014900003D00F01098B02D00F01099B000179A72E
:1014A00003D00F01098D02D00F01099D000179A918
:1014B00003D00F01098F02D00F01099F77C07CF084
:1014C00078C07DF079C07EF07AC07FF0160E06D02D
:1014D0000001D8907F337E337D337C33E82EF8D7FC
:1014E0007CC081F07DC082F07EC083F07FC084F03C
:1014F000000181510001816F826B836B846B81C01D
:1015000008FF030E00018019D8A489D0F70E00014E
:101510007B19D8A484D00F010D87000177510001F9
:10152000816F826B836B846B81C00FFF000E0001A3
:1015300077150001816FFF0E000178150001826FA1
:10154000000E000179150001836F000E00017A156D
:101550000001846F81C07CF082C07DF083C07EF08A
:1015600084C07FF07DC07CF07EC07DF07FC07EF0C7
:1015700000017F6B7CC081F07DC082F07EC083F073
:101580007FC084F081C00EFF000179A103D00F015C
:101590000D8102D00F010D91000179A303D00F013D
:1015A0000D8302D00F010D93000179A503D00F0127
:1015B0000D8B02D00F010D9B000179A703D00F0105
:1015C0000D8D02D00F010D9D000179A903D00F01EF
:1015D0000D8F02D00F010D9F77C07CF078C07DF099
:1015E00079C07EF07AC07FF0160E06D00001D89048
:1015F0007F337E337D337C33E82EF8D77CC081F097
:101600007DC082F07EC083F07FC084F000018151F4
:101610000001816F826B836B846B81C00CFF040EB1
:1016200000018019D8A489D0F70E00017B19D8A435
:1016300084D00F011187000177510001816F826B07
:10164000836B846B81C013FF000E000177150001CE
:10165000816FFF0E000178150001826F000E0001FE
:1016600079150001836F000E00017A150001846F67
:1016700081C07CF082C07DF083C07EF084C07FF0AA
:101680007DC07CF07EC07DF07FC07EF000017F6B6E
:101690007CC081F07DC082F07EC083F07FC084F08A
:1016A00081C012FF000179A103D00F01118102D086
:1016B0000F011191000179A303D00F01118302D012
:1016C0000F011193000179A503D00F01118B02D0F6
:1016D0000F01119B000179A703D00F01118D02D0DA
:1016E0000F01119D000179A903D00F01118F02D0C4
:1016F0000F01119F77C07CF078C07DF079C07EF03B
:101700007AC07FF0160E06D00001D8907F337E336A
:101710007D337C33E82EF8D77CC081F07DC082F029
:101720007EC083F07FC084F0000181510001816F91
:10173000826B836B846B81C010FF050E00018019E2
:10174000D8A41200F70E00017B19D8A412000F01D3
:101750001587000177510001816F826B836B846B69
:1017600081C017FF000E000177150001816FFF0E89
:10177000000178150001826F000E0001791500014B
:10178000836F000E00017A150001846F81C07CF028
:1017900082C07DF083C07EF084C07FF07DC07CF08D
:1017A0007EC07DF07FC07EF000017F6B7CC081F049
:1017B0007DC082F07EC083F07FC084F081C016FFC0
:1017C000000179A103D00F01158102D00F011591FD
:1017D000000179A303D00F01158302D00F011593E7
:1017E000000179A503D00F01158B02D00F01159BC5
:1017F000000179A703D00F01158D02D00F01159DAF
:10180000000179A903D00F01158F02D00F01159F98
:1018100077C07CF078C07DF079C07EF07AC07FF030
:10182000160E06D00001D8907F337E337D337C3393
:10183000E82EF8D77CC081F07DC082F07EC083F0B6
:101840007FC084F0000181510001816F826B836B46
:10185000846B81C014FF12000F0140B73FD17DC0DF
:1018600045FF00017EAD03D00F01458D02D00F0171
:10187000459D00017EA779D0000177510001836F5B
:10188000846B856B866B83C044FF000E0001771567
:101890000001836FFF0E000178150001846F000EB8
:1018A000000179150001856F000E00017A15000115
:1018B000866F83C07FF084C080F085C081F086C0D1
:1018C00082F080C07FF081C080F082C081F0000192
:1018D000826B7FC083F080C084F081C085F082C0BD
:1018E00086F083C043FF000E0F01426F0F01428755
:1018F000000179A102D00F014281000179A302D039
:101900000F014283000179A502D00F01428B000133
:1019100079A702D00F01428D000179A902D00F01F1
:10192000428F77C07FF078C080F079C081F07AC0B4
:1019300082F0160E06D00001D890823381338033B6
:101940007F33E82EF8D77FC083F080C084F081C059
:1019500085F082C086F0000183510001836F846BA3
:10196000856B866B83C041FF59D00F01429777C0CA
:101970007FF078C080F079C081F07AC082F0040EE8
:1019800006D00001D8908233813380337F33E82E34
:10199000F8D77FC083F080C084F081C085F082C01A
:1019A00086F0000183510001836F846B856B866B29
:1019B00083C041FF070E000177150001836F000E01
:1019C000000178150001846F000E000179150001F7
:1019D000856F000E00017A150001866F83C07FF0CD
:1019E00084C080F085C081F086C082F0050ED8905A
:1019F00000017F37803781378237E82EF8D77FC0E4
:101A000083F080C084F081C085F082C086F00F0131
:101A100042511F0B0F01426F83C042FF00017EA1A4
:101A200003D00F01408102D00F01409100017EA33D
:101A300003D00F01408302D00F0140937BC0D9FF38
:101A40007CC0DAFFDF500F01466F000120EE01F08D
:101A50007B51D9267C51DA22DF500F01476F0001FC
:101A600020EE02F07B51D9267C51DA22DF500F01A3
:101A7000486F000120EE03F07B51D9267C51DA2219
:101A8000DF500F01496F000120EE04F07B51D92691
:101A90007C51DA22DF500F014A6F000120EE05F081
:101AA0007B51D9267C51DA22DF500F014B6F0001A8
:101AB00020EE06F07B51D9267C51DA22DF500F014F
:101AC0004C6F000120EE07F07B51D9267C51DA22C1
:101AD000DF500F014D6F0F01408712000F0130B72B
:101AE0003FD17DC035FF00017EAD03D00F01358DA4
:101AF00002D00F01359D00017EA779D000017751FA
:101B00000001836F846B856B866B83C034FF000E8E
:101B1000000177150001836FFF0E000178150001A9
:101B2000846F000E000179150001856F000E000121
:101B30007A150001866F83C07FF084C080F085C075
:101B400081F086C082F080C07FF081C080F082C0CA
:101B500081F00001826B7FC083F080C084F081C07F
:101B600085F082C086F083C033FF000E0F01326F14
:101B70000F013287000179A102D00F0132810001EB
:101B800079A302D00F013283000179A502D00F01A1
:101B9000328B000179A702D00F01328D000179A9A3
:101BA00002D00F01328F77C07FF078C080F079C00B
:101BB00081F07AC082F0160E06D00001D8908233F0
:101BC000813380337F33E82EF8D77FC083F080C025
:101BD00084F081C085F082C086F00001835100014D
:101BE000836F846B856B866B83C031FF59D00F0187
:101BF000329777C07FF078C080F079C081F07AC0EA
:101C000082F0040E06D00001D890823381338033F5
:101C10007F33E82EF8D77FC083F080C084F081C086
:101C200085F082C086F0000183510001836F846BD0
:101C3000856B866B83C031FF070E000177150001AD
:101C4000836F000E000178150001846F000E000103
:101C500079150001856F000E00017A150001866F6D
:101C600083C07FF084C080F085C081F086C082F0A0
:101C7000050ED89000017F37803781378237E82EF4
:101C8000F8D77FC083F080C084F081C085F082C027
:101C900086F00F0132511F0B0F01326F83C032FFEC
:101CA00000017EA103D00F01308102D00F013091DD
:101CB00000017EA303D00F01308302D00F013093C7
:101CC0007BC0D9FF7CC0DAFFDF500F01366F000107
:101CD00020EE01F07B51D9267C51DA22DF500F0132
:101CE000376F000120EE02F07B51D9267C51DA22B9
:101CF000DF500F01386F000120EE03F07B51D92631
:101D00007C51DA22DF500F01396F000120EE04F020
:101D10007B51D9267C51DA22DF500F013A6F000146
:101D200020EE05F07B51D9267C51DA22DF500F01DD
:101D30003B6F000120EE06F07B51D9267C51DA2260
:101D4000DF500F013C6F000120EE07F07B51D926D8
:101D50007C51DA22DF500F013D6F0F0130871200F6
:101D60000F0120B712007DC025FF00017EAD03D01A
:101D70000F01258D02D00F01259D00017EA779D08E
:101D8000000177510001836F846B856B866B83C084
:101D900024FF000E000177150001836FFF0E000184
:101DA00078150001846F000E000179150001856F20
:101DB000000E00017A150001866F83C07FF084C099
:101DC00080F085C081F086C082F080C07FF081C045
:101DD00080F082C081F00001826B7FC083F080C000
:101DE00084F081C085F082C086F083C023FF000E9E
:101DF0000F01226F0F012287000179A102D00F018C
:101E00002281000179A302D00F012283000179A56C
:101E100002D00F01228B000179A702D00F01228D81
:101E2000000179A902D00F01228F77C07FF078C01E
:101E300080F079C081F07AC082F0160E06D00001E1
:101E4000D8908233813380337F33E82EF8D77FC038
:101E500083F080C084F081C085F082C086F00001EC
:101E600083510001836F846B856B866B83C021FF78
:101E700059D00F01229777C07FF078C080F079C0E9
:101E800081F07AC082F0040E06D00001D89082332F
:101E9000813380337F33E82EF8D77FC083F080C052
:101EA00084F081C085F082C086F00001835100017A
:101EB000836F846B856B866B83C021FF070E0001E7
:101EC00077150001836F000E000178150001846F03
:101ED000000E000179150001856F000E00017A15D2
:101EE0000001866F83C07FF084C080F085C081F0E0
:101EF00086C082F0050ED89000017F378037813789
:101F00008237E82EF8D77FC083F080C084F081C08C
:101F100085F082C086F00F0122511F0B0F01226F46
:101F200083C022FF00017EA103D00F01208102D0D7
:101F30000F01209100017EA303D00F01208302D066
:101F40000F0120937BC0D9FF7CC0DAFFDF500F0167
:101F5000266F000120EE01F07B51D9267C51DA2258
:101F6000DF500F01276F000120EE02F07B51D926D0
:101F70007C51DA22DF500F01286F000120EE03F0C0
:101F80007B51D9267C51DA22DF500F01296F0001E5
:101F900020EE04F07B51D9267C51DA22DF500F016C
:101FA0002A6F000120EE05F07B51D9267C51DA2200
:101FB000DF500F012B6F000120EE06F07B51D92678
:101FC0007C51DA22DF500F012C6F000120EE07F068
:101FD0007B51D9267C51DA22DF500F012D6F0F0182
:101FE0002087120024C1ADF025C1AEF026C1AFF0AC
:101FF00027C1B0F0000E00017B6F000E7C6F000E59
:102000007D6F400E7E6FE2C177F0E3C178F0E4C1EE
:1020100079F0E5C17AF0FFEC1DF077C0A9F078C047
:10202000AAF079C0ABF07AC0ACF03DEC15F0A9C0D5
:10203000BDF0AAC0BEF0ABC0BFF0ACC0C0F043EC76
:102040002FF0BDC0BAF1BEC0BBF1BFC0BCF1C0C073
:10205000BDF1BAC1ADF0BBC1AEF0BCC1AFF0BDC106
:10206000B0F0000E0001946F000E956F000E966F99
:10207000400E976FE8C190F0E9C191F0EAC192F08B
:10208000EBC193F091EC17F090C0A9F091C0AAF0C9
:1020900092C0ABF093C0ACF03DEC15F0A9C0BEF11E
:1020A000AAC0BFF1ABC0C0F1ACC0C1F1000E0001CD
:1020B0007B6F000E7C6F000E7D6F400E7E6FE2C165
:1020C00077F0E3C178F0E4C179F0E5C17AF0FFEC94
:1020D0001DF077C0BDF078C0BEF079C0BFF07AC007
:1020E000C0F043EC2FF0BDC0ADF0BEC0AEF0BFC03D
:1020F000AFF0C0C0B0F0BEC1A9F0BFC1AAF0C0C16E
:10210000ABF0C1C1ACF03DEC15F0A9C0C2F1AAC062
:10211000C3F1ABC0C4F1ACC0C5F1C2C177F0C3C15B
:1021200078F0C4C179F0C5C17AF0000E0001946F57
:10213000000E956F000E966F400E976FE8C190F0FD
:10214000E9C191F0EAC192F0EBC193F091EC17F084
:1021500090C07BF091C07CF092C07DF093C07EF087
:10216000FFEC1DF077C0C6F178C0C7F179C0C8F1A7
:102170007AC0C9F1C6C1DEF0C7C1DFF0C8C1E0F066
:10218000C9C1E1F03AEC23F0DEC01CF1DFC01DF163
:10219000E0C01EF1E1C01FF1DB0E00017B6F0F0EEE
:1021A0007C6F490E7D6F400E7E6F1CC177F01DC1A4
:1021B00078F01EC179F01FC17AF0FFEC1DF077C0F6
:1021C00090F078C091F079C092F07AC093F0000E50
:1021D0000001946F000E956F340E966F430E976F4B
:1021E00091EC17F090C01CF191C01DF192C01EF14E
:1021F00093C01FF11CC1BDF01DC1BEF01EC1BFF0D8
:102200001FC1C0F043EC2FF0BDC0A9F0BEC0AAF0C2
:10221000BFC0ABF0C0C0ACF0000E0001AD6F000E4F
:10222000AE6FB40EAF6F420EB06F3DEC15F0A9C0AB
:1022300020F1AAC021F1ABC022F1ACC023F1DB0E2A
:102240000001946F0F0E956F490E966F400E976FB9
:102250001CC190F01DC191F01EC192F01FC193F0FE
:1022600091EC17F090C077F091C078F092C079F0BF
:1022700093C07AF0000E00017B6F000E7C6F340E6D
:102280007D6F430E7E6FFFEC1DF077C01CF178C0B0
:102290001DF179C01EF17AC01FF11CC1B2F11DC140
:1022A000B3F11EC1B4F11FC1B5F1DEEC2CF0B2C127
:1022B00030F1B3C131F1B4C132F1B5C133F130C144
:1022C00094F031C195F032C196F033C197F0E8C176
:1022D00090F0E9C191F0EAC192F0EBC193F091EC7A
:1022E00017F090C0D2F191C0D3F192C0D4F193C055
:1022F000D5F1D2C190F0D3C191F0D4C192F0D5C143
:1023000093F0000E0001946F000E956F000E966F13
:10231000400E976F91EC17F090C030F191C031F101
:1023200092C032F193C033F120C194F021C195F0F5
:1023300022C196F023C197F0E8C190F0E9C191F075
:10234000EAC192F0EBC193F091EC17F090C0D2F19A
:1023500091C0D3F192C0D4F193C0D5F1DB0E00014E
:10236000946F0F0E956FC90E966F400E976FD2C186
:1023700090F0D3C191F0D4C192F0D5C193F091EC1B
:1023800017F090C077F091C078F092C079F093C0C8
:102390007AF0000E00017B6F000E7C6FB40E7D6F33
:1023A000430E7E6FFFEC1DF077C038F178C039F135
:1023B00079C03AF17AC03BF1000E00017B6F000E4C
:1023C0007C6F400E7D6F400E7E6F000E0001946F9B
:1023D000000E956F000E966F400E976FE2C190F061
:1023E000E3C191F0E4C192F0E5C193F091EC17F0F4
:1023F00090C077F091C078F092C079F093C07AF0F5
:10240000FFEC1DF077C0A9F078C0AAF079C0ABF05E
:102410007AC0ACF0E8C1ADF0E9C1AEF0EAC1AFF00E
:10242000EBC1B0F03DEC15F0A9C02CF1AAC02DF124
:10243000ABC02EF1ACC02FF1000E00017B6F000E7F
:102440007C6F400E7D6F400E7E6F000E0001946F1A
:10245000000E956F000E966F400E976FE2C190F0E0
:10246000E3C191F0E4C192F0E5C193F091EC17F073
:1024700090C077F091C078F092C079F093C07AF074
:10248000FFEC1DF077C0BDF078C0BEF079C0BFF0A2
:102490007AC0C0F043EC2FF0BDC0A9F0BEC0AAF0D6
:1024A000BFC0ABF0C0C0ACF0E8C1ADF0E9C1AEF068
:1024B000EAC1AFF0EBC1B0F03DEC15F0A9C028F1D6
:1024C000AAC029F1ABC02AF1ACC02BF12CC17BF022
:1024D0002DC17CF02EC17DF02FC17EF028C177F098
:1024E00029C178F02AC179F02BC17AF0FFEC1DF0F8
:1024F00077C0CAF178C0CBF179C0CCF17AC0CDF108
:10250000CAC1DEF0CBC1DFF0CCC1E0F0CDC1E1F05B
:102510003AEC23F0DEC0B2F1DFC0B3F1E0C0B4F1B9
:10252000E1C0B5F1DEEC2CF0B2C1CEF1B3C1CFF118
:10253000B4C1D0F1B5C1D1F1CEC190F0CFC191F00D
:10254000D0C192F0D1C193F02CC194F02DC195F07F
:102550002EC196F02FC197F091EC17F090C018F1B2
:1025600091C019F192C01AF193C01BF11200000E34
:102570000B6E74BE0B8074BC0B820F0150AF43D145
:1025800001C0D9FF02C0DAFFDE6ADE6ADE6ADD6AF8
:1025900020EE04F00150D9260250DA2256CFDFFF98
:1025A00020EE05F00150D9260250DA2257CFDFFF86
:1025B00020EE06F00150D9260250DA2258CFDFFF74
:1025C00020EE07F00150D9260250DA2259CFDFFF62
:1025D00020EE08F00150D9260250DA225ACFDFFF50
:1025E00020EE09F00150D9260250DA225BCFDFFF3E
:1025F00020EE0AF00150D9260250DA225CCFDFFF2C
:1026000020EE0BF00150D9260250DA225DCFDFFF19
:1026100020EE0EF00150D9260250DA220F0155ADFE
:1026200002D0010E01D0000EDF6E20EE0DF0015041
:10263000D9260250DA220F0155510F0BDF6E20EE22
:102640000CF00150D9260250DA220F0152A702D015
:10265000010E01D0000EDF6E0F0152B744D051CFF2
:1026600003F0046A056A066A030ED890033604363E
:1026700005360636E82EF9D701C0D9FF02C0DAFFC9
:1026800003C0DEFF04C0DEFF05C0DEFF06C0DEFFC4
:102690000F015239E842070B070B0C6E01C0D9FF3E
:1026A00002C0DAFFDECF03F0DECF04F0DECF05F0AC
:1026B000DECF06F00C500324076E000E0420086ED7
:1026C000000E0520096E000E06200A6E01C0D9FF1B
:1026D00002C0DAFF07C0DEFF08C0DEFF09C0DEFF70
:1026E0000AC0DEFF8DD054CF03F0046A056A066A83
:1026F00001C0D9FF02C0DAFF03C0DEFF04C0DEFF65
:1027000005C0DEFF06C0DEFF53CF03F0046A056A92
:10271000066A05C006F004C005F003C004F0036AB1
:1027200001C0D9FF02C0DAFF0350DE260450DE22CA
:102730000550DE220650DE220F0152A10CD001C04E
:10274000D9FF02C0DAFF000EDE12000EDE12010E0B
:10275000DE12000EDE120F0152A30CD001C0D9FF11
:1027600002C0DAFF000EDE12000EDE12020EDE12D2
:10277000000EDE120F0152AB0CD001C0D9FF02C017
:10278000DAFF000EDE12000EDE12040EDE12000E64
:10279000DE120F0152AD0CD001C0D9FF02C0DAFF2A
:1027A000000EDE12000EDE12080EDE12000EDE1229
:1027B0000F0152AF0CD001C0D9FF02C0DAFF000EEA
:1027C000DE12000EDE12100EDE12000EDE1251CFEF
:1027D00003F0046A056A066A150ED89003360436BB
:1027E00005360636E82EF9D701C0D9FF02C0DAFF58
:1027F0000350DE120450DE120550DE120650DE12C7
:102800000F01509F120060AE120001C0D9FF02C03C
:10281000DAFFDE6ADE6ADE6ADD6A20EE04F001506D
:10282000D9260250DA2266CFDFFF20EE05F00150F4
:10283000D9260250DA2267CFDFFF20EE06F00150E2
:10284000D9260250DA2268CFDFFF20EE07F00150D0
:10285000D9260250DA2269CFDFFF20EE08F00150BE
:10286000D9260250DA226ACFDFFF20EE09F00150AC
:10287000D9260250DA226BCFDFFF20EE0AF001509A
:10288000D9260250DA226CCFDFFF20EE0BF0015088
:10289000D9260250DA226DCFDFFF20EE0EF0015074
:1028A000D9260250DA2265AC02D0010E01D0000E0A
:1028B000DF6E20EE0DF00150D9260250DA2265506D
:1028C0000F0BDF6E20EE0CF00150D9260250DA22F9
:1028D00062A602D0010E01D0000EDF6E62B643D0B8
:1028E00061CF03F0046A056A066A030ED8900336C6
:1028F000043605360636E82EF9D701C0D9FF02C0E6
:10290000DAFF03C0DEFF04C0DEFF05C0DEFF06C045
:10291000DEFF6238E842070B070B0C6E01C0D9FFDF
:1029200002C0DAFFDECF03F0DECF04F0DECF05F029
:10293000DECF06F00C500324076E000E0420086E54
:10294000000E0520096E000E06200A6E01C0D9FF98
:1029500002C0DAFF07C0DEFF08C0DEFF09C0DEFFED
:102960000AC0DEFF88D064CF03F0046A056A066AF5
:1029700001C0D9FF02C0DAFF03C0DEFF04C0DEFFE2
:1029800005C0DEFF06C0DEFF63CF03F0046A056A00
:10299000066A05C006F004C005F003C004F0036A2F
:1029A00001C0D9FF02C0DAFF0350DE260450DE2248
:1029B0000550DE220650DE2262A00CD001C0D9FFF5
:1029C00002C0DAFF000EDE12000EDE12010EDE1271
:1029D000000EDE1262A20CD001C0D9FF02C0DAFFE5
:1029E000000EDE12000EDE12020EDE12000EDE12ED
:1029F00062AA0CD001C0D9FF02C0DAFF000EDE12BD
:102A0000000EDE12040EDE12000EDE1262AC0CD0DE
:102A100001C0D9FF02C0DAFF000EDE12000EDE1286
:102A2000080EDE12000EDE1262AE0CD001C0D9FF1D
:102A300002C0DAFF000EDE12000EDE12100EDE12F1
:102A4000000EDE1261CF03F0046A056A066A150EF5
:102A5000D8900336043605360636E82EF9D701C07D
:102A6000D9FF02C0DAFF0350DE120450DE12055017
:102A7000DE120650DE12609E12000001AC51800B87
:102A80000001B96F0001AC51AC250001BB6F000122
:102A9000ABAF02D00001BB810001BB510001D8B433
:102AA00012D00001BB29D8A409D0000E0001A96FE3
:102AB000000EAA6F000EAB6F000EAC6F0001AB8F63
:102AC000000E000108D0000E0001A96F000EAA6FD1
:102AD000000EAB6F000EAC6F0001B051800B000117
:102AE000BA6F0001B9510001BA19D8B402D000017F
:102AF000B98D0001B051B0250001BA6F0001AFAF30
:102B000002D00001BA810001BA510001D8B412D03C
:102B10000001BA29D8A409D0000E0001AD6F000E43
:102B2000AE6F000EAF6F000EB06F0001AF8F000EE2
:102B3000000108D0000E0001AD6F000EAE6F000E58
:102B4000AF6F000EB06F0001BB510001BA5DD8B08D
:102B500024D00001B9AD03D0800E0001B91BBBC069
:102B6000BCF0BAC0BBF0BCC0BAF0A9C0BCF0ADC0EC
:102B7000A9F0BCC0ADF0AAC0BCF0AEC0AAF0BCC009
:102B8000AEF0ABC0BCF0AFC0ABF0BCC0AFF0ACC0FF
:102B9000BCF0B0C0ACF0BCC0B0F0000E0001BC6F27
:102BA0000001BB510001B16FB26B0001B11FB21F38
:102BB000B14BB22B0001BA510001B36FB46B0001ED
:102BC000B1510001B3270001B2510001B42300014B
:102BD000B4BF3DD00001B45105E11A0E0001B35D50
:102BE000D8A035D00001A9510001AA110001AB11F4
:102BF0000001AC11D8B402D0010E01D0000E0001CA
:102C0000BC6F000E0001A96F000EAA6F000EAB6F23
:102C1000000EAC6FBAC0BBF020D00001BCA107D041
:102C20000001D890BC3101090001BC6F03D0000144
:102C3000D890BC330001A9A102D00001BC8F0001D3
:102C4000AC35AC33AB33AA33A9330001BB2B000145
:102C5000BA510001BB5DD8A0E0D70001B9BD3FD09B
:102C60000001BB510001D8A40AD0000E0001A96FD9
:102C7000000EAA6F000EAB6F000EAC6F12000001C9
:102C8000AD510001A9270001AE510001AA230001A6
:102C9000AF510001AB230001B0510001AC23000192
:102CA000ACA1CCD00001BCA109D00001D890BC33AC
:102CB0000001BC5101090001BC6F03D00001D89094
:102CC000BC330001A9A102D00001BC8F0001AC35CA
:102CD000AC33AB33AA33A9330001BB2BAFD0000117
:102CE000AD510001A95D0001AE510001AA590001DA
:102CF000AF510001AB590001AC51800A0001B16F26
:102D00000001B051800A0001B159D8B050D0A9C01B
:102D1000B1F0AAC0B2F0ABC0B3F0ACC0B4F00001E7
:102D2000B11FB21FB31FB41FB12B000EB223B323C8
:102D3000B4230001AD510001B1250001B56F0001C0
:102D4000AE510001B2210001B66F0001AF51000188
:102D5000B3210001B76F0001B0510001B42100019F
:102D6000B86FFF0E0001B5250001A96FFF0E00012D
:102D7000B6210001AA6FFF0E0001B7210001AB6F61
:102D8000FF0E0001B8210001AC6F800E0001B91BDD
:102D90000001BC6D0001BC510001D8A418D0010E87
:102DA0000001A927000EAA23AB23AC2310D00001F9
:102DB000AD510001A95F0001AE510001AA5B000105
:102DC000AF510001AB5B0001B0510001AC5B0001F1
:102DD000A9510001AA110001AB110001AC11D8A446
:102DE0002AD00001BC510001D8A425D0000E00015A
:102DF000A96F000EAA6F000EAB6F000EAC6F120031
:102E00000001D890A937AA37AB37AC370001BCAF67
:102E100002D00001A9810001BCA103D0D88000012B
:102E200002D00001D890BC370001BB510001D8B4DA
:102E300002D00001BB070001ABAFE2D7000E0001DA
:102E4000BA6F0001BCAF0DD0BCC0B1F07F0E000165
:102E5000B117D8A403D00001A9A103D0010E00012D
:102E6000BA6F0001BA510001D8B426D0010E00019A
:102E7000A927000EAA23AB23AC230001ACA11CD0D0
:102E8000A9C0B1F0AAC0B2F0ABC0B3F0ACC0B4F00E
:102E90000001B435B433B333B233B133B1C0A9F0A8
:102EA000B2C0AAF0B3C0ABF0B4C0ACF00001BB2913
:102EB000D8B402D00001BB2B0001BB29D8B405D087
:102EC0000001BB510001D8A411D0000E0001A96F70
:102ED000000EAA6F000EAB6F000EAC6F0001BB516D
:102EE0000001D8A403D0000E0001B96F0001BBA1FE
:102EF00003D00001AB8F02D00001AB9F0001D8903E
:102F0000BB310001AC6F0001B9AF02D00001AC8F42
:102F1000A9C0A9F0AAC0AAF0ABC0ABF0ACC0ACF09D
:102F2000120000019351800B00019C6F000193512E
:102F300093250001A26F000192AF02D00001A2818F
:102F40000001A2510001D8B410D00001A229D8A4D8
:102F500009D0000E0001906F000E916F000E926F6D
:102F6000000E936F0001928F09D0000E0001906F48
:102F7000000E916F000E926F000E936F000197513B
:102F8000800B00019C1B00019751972500019D6F4C
:102F9000000196AF02D000019D8100019D5100010A
:102FA000D8B410D000019D29D8A409D0000E00018A
:102FB000946F000E956F000E966F000E976F0001D4
:102FC000968F09D0000E0001946F000E956F000ED1
:102FD000966F000E976F00019D510001D8B405D087
:102FE0000001A2510001D8A40AD0000E0001906F88
:102FF000000E916F000E926F000E936F1200000191
:10300000965100019003F3CFA7F0F4CFA8F0000190
:10301000A75100019E6F9F6BA06BA16B0001A8518F
:103020000001A36FA46BA56BA66B00019551000175
:103030009103F3CFA7F0F4CFA8F00001A75100014E
:103040009E27000E9F23A023A1230001A851000169
:10305000A327000EA423A523A62300019451000159
:103060009203F3CFA7F0F4CFA8F00001A75100011D
:103070009E27000E9F23A023A1230001A851000139
:10308000A327000EA423A523A623A0C0A1F09FC0C0
:10309000A0F09EC09FF000019E6B000194510001C2
:1030A0009103F3CFA7F0F4CFA8F00001A7510001DE
:1030B0009E270001A85100019F23000E0001A023BC
:1030C000000E0001A1230001955100019003F3CFF0
:1030D000A7F0F4CFA8F00001A75100019E2700013E
:1030E000A85100019F23000E0001A023000E000143
:1030F000A123A0C0A1F09FC0A0F09EC09FF000013E
:103100009E6B0001945100019003F3CFA7F0F4CF20
:10311000A8F00001A75100019E270001A85100015D
:103120009F23000E0001A023000E0001A123000137
:10313000965100019103F3CFA7F0F4CFA8F000015E
:10314000A7510001A3270001A8510001A423000EEC
:103150000001A523000E0001A623000195510001E6
:103160009203F3CFA7F0F4CFA8F00001A75100011C
:10317000A3270001A8510001A423000E0001A523EC
:10318000000E0001A6230001965100019203F3CF27
:10319000A7F0F4CFA8F00001A7510001986F00013B
:1031A000A8510001996F00019A6B00019B6B9AC0B6
:1031B0009BF099C09AF098C099F00001986B0001BB
:1031C00098510001A327000199510001A423000197
:1031D0009A510001A52300019B510001A6239EC026
:1031E00098F09FC099F0A0C09AF0A1C09BF0190E72
:1031F00006D00001D8909B339A3399339833E82E48
:10320000F8D7000198510001A3270001995100014E
:10321000A42300019A510001A52300019B51000144
:10322000A623A0C0A1F09FC0A0F09EC09FF0000107
:103230009E6B00019D51A2C098F00001996B0001A6
:103240009827000E9923820E000198250001A76F90
:10325000FF0E000199210001A86F15D00001D89040
:10326000A337A437A537A6370001A1AF02D00001CC
:10327000A3810001D8909E379F37A037A137000166
:10328000A707D8A0A8070001A5AFE8D7000E000146
:103290009D6F0001A1AF24D0FF0E00019E1500011B
:1032A000986FFF0E00019F150001996FFF0E00013E
:1032B000A01500019A6F7F0E0001A11500019B6F00
:1032C000000198510001991100019A1100019B1110
:1032D000D8A403D00001A3A103D0010E00019D6F6B
:1032E00000019D510001D8B423D0010E0001A32795
:1032F000000EA423A523A6230001A6A119D0A3C0D4
:1033000098F0A4C099F0A5C09AF0A6C09BF0000167
:103310009B359B339A339933983398C0A3F099C067
:10332000A4F09AC0A5F09BC0A6F00001A74BA82B63
:103330000001A8BF10D00001A85104E10001A72995
:10334000D8A009D0000E0001A36F000EA46F800E5C
:10335000A56F7F0E2BD00001A8BF07D00001A85198
:1033600011E10001A705D8B00DD0000E0001A36F38
:10337000000EA46F000EA56F000EA66F000E0001D8
:103380009C6F15D0A7C0A2F0FF0E0001A317FF0E7F
:10339000A4177F0EA517000EA6170001A2A102D048
:1033A0000001A58F0001D890A2310001A66F000195
:1033B0009C510001A613A3C090F0A4C091F0A5C039
:1033C00092F0A6C093F0120037D081AC02D0010E6B
:1033D00001D0000EFF0A0101D66F0101D63BD6478E
:1033E000D64781500101D619BF0BD619816EC3ECA7
:1033F00024F0C0EC2FF00009D8B4FBD70E0E00016A
:10340000776F000E786F000E796F000E7A6F6D0E79
:1034100000017B6F010E00017C6F080E00017D6FC3
:10342000BC0E00017E6F2CEC0CF0000E00017E6FD4
:10343000640E7D6F7AEC2FF046B281AA02D046B0BE
:10344000C4D781BA46A02FD0819C020E01015D6FC6
:103450000B0E0001776F000E786F000E796F000E73
:103460007A6F5D0E00017B6F010E00017C6F010E13
:1034700000017D6FBC0E00017E6F2CEC0CF013D0B0
:1034800046BE11D0000E01014D6F000E4C6F5A0E5A
:1034900001017D6F000E0101656F010E0101666F74
:1034A0009FEC2AF0468E47A646A0BDD1E9D78A8870
:1034B000245026240101D66F255027200101D76F03
:1034C000D8900101D7310101D96F0101D631010135
:1034D000D86FD8C1CBF0D9C1CCF00001CD6BCE6B89
:1034E000000E32EC27F0CBC024F1CCC025F1CDC0CA
:1034F00026F1CEC027F1F2EC0FF0000E01014D6F66
:10350000000E4C6F5A0E01017D6F000E0101656FB8
:10351000010E0101666F9FEC2AF0010EAAEC2FF05C
:10352000030E0101656F010E0101666F030E0101BB
:103530004D6FE80E4C6F46945A0E01017D6F000EE0
:103540000001AD6F000EAE6F240EAF6F420EB06F74
:1035500030C1A9F031C1AAF032C1ABF033C1ACF037
:103560003DEC15F0A9C0BDF0AAC0BEF0ABC0BFF0E5
:10357000ACC0C0F043EC2FF0BDC0DAF1BEC0DBF14F
:10358000BFC0DCF1C0C0DDF118C1ADF019C1AEF0B3
:103590001AC1AFF01BC1B0F0DAC1A9F0DBC1AAF0CB
:1035A000DCC1ABF0DDC1ACF03DEC15F0A9C0DEF143
:1035B000AAC0DFF1ABC0E0F1ACC0E1F1000E000148
:1035C000AD6F000EAE6FAA0EAF6F420EB06FDEC1D0
:1035D000A9F0DFC1AAF0E0C1ABF0E1C1ACF03DEC75
:1035E00015F0A9C0C1F0AAC0C2F0ABC0C3F0ACC016
:1035F000C4F058EC2CF00001C1510101856F4682E6
:103600000D0E0001776F000E786F000E796F000EBF
:103610007A6F850E00017B6F010E00017C6F080E32
:1036200000017D6FBC0E00017E6F2CEC0CF09FEC56
:103630002AF046B2FED7000E01014D6F000E4C6F0E
:103640005A0E01017D6F000E0101656F010E01012F
:10365000666F9FEC2AF0010EAAEC2FF0030E010119
:10366000656F010E0101666F030E01014D6FE80EDB
:103670004C6F4694B40E01017D6F38C1C1F039C161
:10368000C2F03AC1C3F03BC1C4F058EC2CF00001C9
:10369000C1510101856F46820D0E0001776F000E4A
:1036A000786F000E796F000E7A6F850E00017B6FC8
:1036B000010E00017C6F080E00017D6FBC0E000141
:1036C0007E6F2CEC0CF09FEC2AF046B2FED7030E76
:1036D00001014D6FE80E4C6F000E01017D6F4682B7
:1036E000000E0001AD6F000EAE6F500EAF6F410EB9
:1036F000B06F38C1A9F039C1AAF03AC1ABF03BC1F3
:10370000ACF03DEC15F0A9C0C1F0AAC0C2F0ABC04E
:10371000C3F0ACC0C4F058EC2CF00001C151010161
:10372000856F0D0E0001776F000E786F000E796FB8
:10373000000E7A6F850E00017B6F010E00017C6F19
:10374000080E00017D6FBC0E00017E6F2CEC0CF0AA
:103750009FEC2AF046B2FED7000E0101656F010E04
:103760000101666F000E01014D6F000E4C6F5A0E85
:1037700001017D6F9FEC2AF0010EAAEC2FF0295079
:1037800004E1150E285CD8A017D0030E0101656F67
:10379000010E0101666F010E01014D6FF40E4C6FB9
:1037A0005A0E01017D6F46849FEC2AF02950FEE1FC
:1037B000150E285CD8B0FAD7000E0101656F010E16
:1037C0000101666F000E01014D6F000E4C6F5A0E25
:1037D00001017D6F46949FEC2AF0010EAAEC2FF0B8
:1037E0004690819A4796030E01015D6FC0EC2FF061
:1037F0000009D8B4FBD70B0E0001776F000E786F6D
:10380000000E796F000E7A6F5D0E00017B6F010E66
:1038100000017C6F010E00017D6FBC0E00017E6F08
:103820002CEC0CF0FF0081AA120046A0120047A663
:1038300012003DD60001C451800B0001C96F000188
:10384000C451C4250001CF6F0001C3AF02D00001F5
:10385000CF81CFC0D4F00001D56BFF0E0001C115A0
:103860000001DA6FFF0E0001C2150001DB6F7F0E51
:103870000001C3150001DC6F000E0001C41500013A
:10388000DD6F0001D4510001D511D8B408D000017A
:10389000DC8F0001D4290001D511D8A409D0000E75
:1038A0000001DA6F000EDB6F000EDC6F000EDD6FC3
:1038B0000001D4510001D511D8A40AD0000E000196
:1038C000C16F000EC26F000EC36F000EC46F1200F6
:1038D0000001C9510001D8B41CD0000E0001D66F00
:1038E000000ED76F400ED86F000ED96F0001800E0A
:1038F000D813FF0ED913000E0101496F210E486F36
:10390000D6C0C1F0D7C0C2F0D8C0C3F0D9C0C4F08F
:1039100012000001D4290001D511D8A412D0000E44
:103920000001D66F000ED76F800ED86F7F0ED96F53
:10393000D6C0C1F0D7C0C2F0D8C0C3F0D9C0C4F05F
:1039400012000001810ED427FF0ED5230001D451AF
:10395000010B0001CF6F0001D535D533D4337F0E75
:103960000001D427000ED523D8900001DA350001DC
:10397000CB6F0001DB350001CC6F0001DC350001AD
:10398000CD6F0001DD350001CE6F000E0001DA6F52
:10399000000EDB6F000EDC6F000EDD6F000E00010D
:1039A000D06F000ED16F000ED26F010ED36F0001E9
:1039B000CF510001D8B406D00001D890CB37CC3716
:1039C000CD37CE37000E0001CA6F7ED00001D05136
:1039D0000001DA130001D1510001DB130001D251C3
:1039E0000001DC130001D3510001DD130001DA51A5
:1039F0000001CB5D0001DB510001CC590001DC511D
:103A00000001CD590001DD510001CE59D8A021D0CF
:103A10000001DA510001CB5F0001DB510001CC5BFA
:103A20000001DC510001CD5B0001DD510001CE5BE6
:103A30000001D0510001DA270001D1510001DB2340
:103A40000001D2510001DC230001D3510001DD232C
:103A50001DD0D0C0C5F0D1C0C6F0D2C0C7F0D3C011
:103A6000C8F00001C51FC61FC71FC81F0001C551F0
:103A70000001DA170001C6510001DB170001C75130
:103A80000001DC170001C8510001DD17D0C0C5F0EE
:103A9000D1C0C6F0D2C0C7F0D3C0C8F00001D890E2
:103AA000C833C733C633C533C5C0D0F0C6C0D1F0A4
:103AB000C7C0D2F0C8C0D3F00001D890CB37CC3704
:103AC000CD37CE370001CA2B180E0001CA657ED74C
:103AD000DAC0C5F0DBC0C6F0DCC0C7F0DDC0C8F09E
:103AE0000001D890C833C733C633C533C5C0DAF038
:103AF000C6C0DBF0C7C0DCF0C8C0DDF0010E0001BD
:103B0000DA150001D06F000E0001DB150001D16F46
:103B1000000E0001DC150001D26F000E0001DD1562
:103B20000001D36FDAC0C5F0DBC0C6F0DCC0C7F05F
:103B3000DDC0C8F00001D890C833C733C633C533E1
:103B4000C5C0DAF0C6C0DBF0C7C0DCF0C8C0DDF02D
:103B50000001D0510001DA270001D1510001DB231F
:103B60000001D2510001DC230001D3510001DD230B
:103B70000001DDA119D0DAC0C5F0DBC0C6F0DCC0A1
:103B8000C7F0DDC0C8F00001D890C833C733C633D2
:103B9000C533C5C0DAF0C6C0DBF0C7C0DCF0C8C0B2
:103BA000DDF00001D44BD52BFF0E0001DA1500012A
:103BB000D66FFF0E0001DB150001D76F7F0E0001ED
:103BC000DC150001D86F000E0001DD150001D96F72
:103BD000D4C0CFF00001CFA102D00001D88F0001E6
:103BE000D890CF310001D96F0001D99FD6C0C1F064
:103BF000D7C0C2F0D8C0C3F0D9C0C4F012000001D1
:103C00007A51800B0001836F00017A517A250001FF
:103C10008E6F000179AF02D000018E8100018E51BC
:103C20000001D8B412D000018E29D8A409D0000E0A
:103C30000001776F000E786F000E796F000E7A6FBB
:103C40000001798F000E000108D0000E0001776F8F
:103C5000000E786F000E796F000E7A6F00017E51B2
:103C6000800B0001831B00017E517E2500018F6FB8
:103C700000017DAF02D000018F8100018F51000152
:103C8000D8B412D000018F29D8A409D0000E0001A9
:103C90007B6F000E7C6F000E7D6F000E7E6F00014B
:103CA0007D8F000E000108D0000E00017B6F000E1A
:103CB0007C6F000E7D6F000E7E6F00017B51000156
:103CC0007C1100017D1100017E11D8A417D0000ED7
:103CD0000001776F000E786F000E796F000E7A6F1B
:103CE0000001800E79137F0E7A1377C077F078C0C9
:103CF00078F079C079F07AC07AF0120000018E5124
:103D00000001D8A412D0000E0001776F000E786F6A
:103D1000000E796F000E7A6F77C077F078C078F078
:103D200079C079F07AC07AF0120000018F51000159
:103D30007F6F806B00017F1F801F7F4B802B0001F6
:103D40008E510001816F826B00017F51000181273C
:103D500000018051000182237F0E000181250001B6
:103D6000886F000E000182210001896F77C084F006
:103D700078C085F079C086F07AC087F0000E000127
:103D8000776F000E786F000E796F000E7A6F000E5D
:103D900000018A6F000E8B6F000E8C6F000E8D6F0E
:103DA000000E00018F6F42D000018F510001D8B486
:103DB00017D00001D89084378537863787370001C0
:103DC000D8907737783779377A3700018DAF02D0BE
:103DD000000177810001D8908A378B378C378D3777
:103DE00000017B510001845D00017C510001855977
:103DF00000017D510001865900017E510001875963
:103E0000D8A012D000018D8D00017B510001845F8C
:103E100000017C510001855B00017D510001865B42
:103E200000017E510001875B00018F2B190E0001FC
:103E30008F65BAD7000184510001851100018611F8
:103E400000018711D8B418D000018A8115D0000173
:103E5000D8907737783779377A3700018DAF02D02D
:103E6000000177810001D8908A378B378C378D37E6
:103E700000018807D8A08907000179AFE8D7000EB4
:103E800000018F6F00018DAF24D0FF0E00018A1555
:103E900000017F6FFF0E00018B150001806FFF0E88
:103EA00000018C150001816F7F0E00018D1500014E
:103EB000826F00017F51000180110001811100011A
:103EC0008211D8A403D0000177A103D0010E000114
:103ED0008F6F00018F510001D8B423D0010E000173
:103EE0007727000E782379237A2300017AA119D04D
:103EF00077C07FF078C080F079C081F07AC082F01E
:103F0000000182358233813380337F337FC077F085
:103F100080C078F081C079F082C07AF00001884BCF
:103F2000892B000189BF14D00001895104E10001EF
:103F30008829D8A00DD0000E0001896F8869000E75
:103F40000001776F000E786F000E796F000E7A6FA8
:103F5000000189BF07D00001895115E100018805E2
:103F6000D8B011D0000E0001896F000E886F000ECE
:103F70000001776F000E786F000E796F000E7A6F78
:103F8000000E0001836F88C08EF000018EA103D067
:103F90000001798F02D00001799F0001D8908E3105
:103FA00000017A6F0001835100017A1377C077F026
:103FB00078C078F079C079F07AC07AF01200000108
:103FC000806F00018005D8A456D000017B29D8A4B9
:103FD00052D077C07CF078C07DF079C07EF07AC096
:103FE0007FF0040E06D00001D8907F337E337D33FE
:103FF0007C33E82EF8D77CC081F07DC082F07EC093
:1040000083F07FC084F0000181510001816F826BD9
:10401000836B846B81C018FF070E000177150001C8
:10402000816F000E000178150001826F000E000103
:1040300079150001836F000E00017A150001846F6D
:1040400081C07CF082C07DF083C07EF084C07FF0B0
:10405000050ED89000017C377D377E377F37E82EFC
:10406000F8D77CC081F07DC082F07EC083F07FC035
:1040700084F081C019FF020E00018019D8A456D027
:1040800000017B29D8A452D077C07CF078C07DF0A5
:1040900079C07EF07AC07FF0040E06D00001D8907F
:1040A0007F337E337D337C33E82EF8D77CC081F0BC
:1040B0007DC082F07EC083F07FC084F0000181511A
:1040C0000001816F826B836B846B81C01CFF070EC4
:1040D000000177150001816F000E000178150001C5
:1040E000826F000E000179150001836F000E000140
:1040F0007A150001846F81C07CF082C07DF083C09E
:104100007EF084C07FF0050ED89000017C377D37AB
:104110007E377F37E82EF8D77CC081F07DC082F0F3
:104120007EC083F07FC084F081C01DFF0001800548
:10413000D8A487D0F70E00017B19D8A482D0000143
:1041400077510001816F826B836B846B81C01BFF91
:10415000000E000177150001816FFF0E0001781538
:104160000001826F000E000179150001836F000EBF
:1041700000017A150001846F81C07CF082C07DF05F
:1041800083C07EF084C07FF07DC07CF07EC07DF077
:104190007FC07EF000017F6B7CC081F07DC082F02B
:1041A0007EC083F07FC084F081C01AFF000179A136
:1041B00003D00F01198102D00F011991000179A3D9
:1041C00003D00F01198302D00F011993000179A5C3
:1041D00003D00F01198B02D00F01199B000179A7A1
:1041E00003D00F01198D02D00F01199D000179A98B
:1041F00003D00F01198F02D00F01199F77C07CF0F7
:1042000078C07DF079C07EF07AC07FF0160E06D0BF
:104210000001D8907F337E337D337C33E82EF8D78E
:104220007CC081F07DC082F07EC083F07FC084F0CE
:10423000000181510001816F826B836B846B81C0AF
:1042400018FF020E00018019D8A41200F70E000119
:104250007B19D8A41200000177510001816F826B95
:10426000836B846B81C01FFF000E00017715000176
:10427000816FFF0E000178150001826F000E0001B2
:1042800079150001836F000E00017A150001846F1B
:1042900081C07CF082C07DF083C07EF084C07FF05E
:1042A0007DC07CF07EC07DF07FC07EF000017F6B22
:1042B0007CC081F07DC082F07EC083F07FC084F03E
:1042C00081C01EFF000179A103D00F011D8102D022
:1042D0000F011D91000179A303D00F011D8302D0AE
:1042E0000F011D93000179A503D00F011D8B02D092
:1042F0000F011D9B000179A703D00F011D8D02D076
:104300000F011D9D000179A903D00F011D8F02D05F
:104310000F011D9F77C07CF078C07DF079C07EF0E2
:104320007AC07FF0160E06D00001D8907F337E331E
:104330007D337C33E82EF8D77CC081F07DC082F0DD
:104340007EC083F07FC084F0000181510001816F45
:10435000826B836B846B81C01CFF1200000E010115
:10436000A56F010198AF15D095C1BDF096C1BEF003
:1043700097C1BFF098C1C0F043EC2FF0BDC095F1DC
:10438000BEC096F1BFC097F1C0C098F1010E010107
:10439000A56F95C190F096C191F097C192F098C128
:1043A00093F0830E0001946FF90E956F220E966FB5
:1043B0003E0E976F91EC17F090C095F191C096F179
:1043C00092C097F193C098F195C18DF196C18EF18D
:1043D00097C18FF198C190F195C1D9F096C1DAF0EB
:1043E00097C1DBF098C1DCF03AEC2BF0D9C091F129
:1043F000DAC092F1DBC093F1DCC094F100EC2FF055
:104400008DC195F18EC196F18FC197F190C198F150
:1044100095C190F096C191F097C192F098C193F038
:10442000000E0001946F000E956F800E966F400E87
:10443000976F91EC17F090C095F191C096F192C0F2
:1044400097F193C098F1000E0001C56F000EC66F82
:10445000000EC76F400EC86F95C1C9F096C1CAF073
:1044600097C1CBF098C1CCF0D7EC29F00001D8B0BF
:1044700025D095C18DF196C18EF197C18FF198C16C
:1044800090F1000E0101916F000E926F000E936F7C
:10449000400E946F00EC2FF08DC195F18EC196F116
:1044A0008FC197F190C198F10101A5510101D8A4E4
:1044B00002D0010E01D0000E0101A56F000E000117
:1044C000C56F000EC66F800EC76F3F0EC86F95C1D7
:1044D000C9F096C1CAF097C1CBF098C1CCF0D7EC27
:1044E00029F00001D8B025D095C1BDF096C1BEF02D
:1044F00097C1BFF098C1C0F043EC2FF0BDC0A9F048
:10450000BEC0AAF0BFC0ABF0C0C0ACF0000E00014E
:10451000AD6F000EAE6F000EAF6F400EB06F3DEC92
:1045200015F0A9C095F1AAC096F1ABC097F1ACC047
:1045300098F195C190F096C191F097C192F098C111
:1045400093F095C194F096C195F097C196F098C1FB
:1045500097F091EC17F090C0A1F191C0A2F192C038
:10456000A3F193C0A4F1A1C1BDF0A2C1BEF0A3C14B
:10457000BFF0A4C1C0F0410E0001C16F0D0E0001DB
:10458000C26F000E0001C46F030EC36FCCEC2BF0A2
:10459000BDC099F1BEC09AF1BFC09BF1C0C09CF1F3
:1045A00099C17BF09AC17CF09BC17DF09CC17EF0EB
:1045B000000E0001C46F040EC36F2D0E0001C16F09
:1045C0000D0E0001C26FA1C1BDF0A2C1BEF0A3C11A
:1045D000BFF0A4C1C0F0CCEC2BF0BDC077F0BEC0E2
:1045E00078F0BFC079F0C0C07AF0FFEC1DF077C062
:1045F0009DF178C09EF179C09FF17AC0A0F195C17C
:1046000090F096C191F097C192F098C193F09DC13E
:1046100094F09EC195F09FC196F0A0C197F091ECE7
:1046200017F090C095F191C096F192C097F193C0A8
:1046300098F10101A5510101D8B413D095C1BDF085
:1046400096C1BEF097C1BFF098C1C0F043EC2FF007
:10465000BDC095F1BEC096F1BFC097F1C0C098F142
:10466000120095C195F196C196F197C197F198C145
:1046700098F11200000E0001C56F000EC66F800E8B
:10468000C76F3F0EC86FDEC0C1F0DFC0C2F0E0C030
:10469000C3F0E1C0C4F024EC2FF0C1C0C9F0C2C027
:1046A000CAF0C3C0CBF0C4C0CCF0D7EC29F00001F5
:1046B000D8B00FD0000E0101496F210E486F000ED7
:1046C0000001DE6F000EDF6F000EE06F000EE16F85
:1046D0001200000E01019E6F000E9F6F800EA06FF2
:1046E0003F0EA16FDEC094F0DFC095F0E0C096F001
:1046F000E1C097F0DEC090F0DFC091F0E0C092F032
:10470000E1C093F091EC17F090C0BDF091C0BEF005
:1047100092C0BFF093C0C0F043EC2FF0BDC0A9F031
:10472000BEC0AAF0BFC0ABF0C0C0ACF0000E00012C
:10473000AD6F000EAE6F800EAF6F3F0EB06F3DECF1
:1047400015F0A9C0C1F0AAC0C2F0ABC0C3F0ACC0A4
:10475000C4F01AEC1CF0C1C0AAF1C2C0ABF1C3C0D6
:10476000ACF1C4C0ADF1DEC0C1F0DFC0C2F0E0C04A
:10477000C3F0E1C0C4F024EC2FF0C1C0C5F0C2C04A
:10478000C6F0C3C0C7F0C4C0C8F08F0E0001C96F27
:10479000C20ECA6F350ECB6F3F0ECC6FD7EC29F02F
:1047A0000001D8B02DD0DEC077F0DFC078F0E0C0D7
:1047B00079F0E1C07AF0AAC17BF0ABC17CF0ACC16A
:1047C0007DF0ADC17EF0FFEC1DF077C0AEF178C09A
:1047D000AFF179C0B0F17AC0B1F1AEC1D1F0AFC1E3
:1047E000D2F0B0C1D3F0B1C1D4F009EC26F0D1C001
:1047F000DEF0D2C0DFF0D3C0E0F0D4C0E1F01200B0
:104800000001E1AF6ED0DEC07BF0DFC07CF0E0C025
:104810007DF0E1C07EF0AAC1BDF0ABC1BEF0ACC17D
:10482000BFF0ADC1C0F043EC2FF0BDC077F0BEC00B
:1048300078F0BFC079F0C0C07AF0FFEC1DF077C00F
:10484000AEF178C0AFF179C0B0F17AC0B1F1AEC1CC
:10485000D1F0AFC1D2F0B0C1D3F0B1C1D4F009EC06
:1048600026F0D1C0A6F1D2C0A7F1D3C0A8F1D4C020
:10487000A9F1DB0E0001AD6F0F0EAE6FC90EAF6F69
:104880003F0EB06FA6C1BDF0A7C1BEF0A8C1BFF07A
:10489000A9C1C0F043EC2FF0BDC0A9F0BEC0AAF082
:1048A000BFC0ABF0C0C0ACF03DEC15F0A9C0A2F1A8
:1048B000AAC0A3F1ABC0A4F1ACC0A5F1A2C1BDF0E8
:1048C000A3C1BEF0A4C1BFF0A5C1C0F043EC2FF05E
:1048D000BDC0DEF0BEC0DFF0BFC0E0F0C0C0E1F0A0
:1048E0001200DEC07BF0DFC07CF0E0C07DF0E1C0F4
:1048F0007EF0AAC177F0ABC178F0ACC179F0ADC160
:104900007AF0FFEC1DF077C0AEF178C0AFF179C05E
:10491000B0F17AC0B1F1AEC1D1F0AFC1D2F0B0C147
:10492000D3F0B1C1D4F009EC26F0D1C0A6F1D2C0C9
:10493000A7F1D3C0A8F1D4C0A9F1A6C1BDF0A7C109
:10494000BEF0A8C1BFF0A9C1C0F043EC2FF0BDC0BC
:10495000A9F0BEC0AAF0BFC0ABF0C0C0ACF0DB0E87
:104960000001AD6F0F0EAE6FC90EAF6F3F0EB06F8F
:104970003DEC15F0A9C0DEF0AAC0DFF0ABC0E0F05E
:10498000ACC0E1F0120020EE26F0DECFE2F0DDCF89
:10499000E3F00001E21FE31FE24BE32B2450000190
:1049A000E2250001776F25500001E3210001786FB7
:1049B00094EC2FF0000177C0CBF0000178C0CCF070
:1049C0000001000ECCBFFF0ECD6FCE6F010E32EC9A
:1049D00027F0CBC0E4F0CCC0E5F0CDC0E6F0CEC00F
:1049E000E7F0E4C0C5F0E5C0C6F0E6C0C7F0E7C038
:1049F000C8F0000E0001C96F000ECA6FF00ECB6F39
:104A0000410ECC6FD7EC29F00001D8B0F9D0255079
:104A100003E1280E245CD8B0E5D0275003E1280E2E
:104A2000265CD8B0DFD0E4C094F0E5C095F0E6C0D5
:104A300096F0E7C097F0E4C090F0E5C091F0E6C0D2
:104A400092F0E7C093F091EC17F090C0A9F091C0FC
:104A5000AAF092C0ABF093C0ACF0000E0001AD6FB5
:104A6000000EAE6FC80EAF6F420EB06F3DEC15F08A
:104A7000A9C03CF1AAC03DF1ABC03EF1ACC03FF1D2
:104A80003CC1C1F03DC1C2F03EC1C3F03FC1C4F062
:104A90001AEC1CF0C1C03CF1C2C03DF1C3C03EF1F4
:104AA000C4C03FF1E4C077F0E5C078F0E6C079F02B
:104AB000E7C07AF03CC17BF03DC17CF03EC17DF0A7
:104AC0003FC17EF0FFEC1DF077C040F178C041F1AE
:104AD00079C042F17AC043F140C1DEF041C1DFF05C
:104AE00042C1E0F043C1E1F03AEC23F0DEC040F116
:104AF000DFC041F1E0C042F1E1C043F1DB0E000153
:104B00007B6F0F0E7C6F490E7D6F400E7E6F40C134
:104B100077F041C178F042C179F043C17AF0FFECFF
:104B20001DF077C090F078C091F079C092F07AC013
:104B300093F0000E0001946F000E956F340E966F87
:104B4000430E976F91EC17F090C040F191C041F186
:104B500092C042F193C043F140C1C1F041C1C2F0E3
:104B600042C1C3F043C1C4F058EC2CF00001C15164
:104B700001016D6F2650245C27502558D8B002D013
:104B8000000E01D0010E01016E6F0001E451010120
:104B9000341917E10001E5510101351912E1000155
:104BA000E651010136190DE10001E7510101371904
:104BB000D8A407D0000E47B0010E01016E19D8B479
:104BC0001200E4C034F1E5C035F1E6C036F1E7C0CB
:104BD00037F101016EA102D0478001D047909FECD0
:104BE0002AF01200000E47B0010E01016D19D8B471
:104BF0001200000E01016D6F47909FEC2AF0120029
:104C000047A01200000E01016D6F47909FEC2AF043
:104C10001200D1C0C1F0D2C0C2F0D3C0C3F0D4C022
:104C2000C4F024EC2FF0C1C09AF1C2C09BF1C3C004
:104C30009CF1C4C09DF101019A5101019B11010138
:104C40009C1101019D11D8A40AD0000E0001D16F62
:104C5000000ED26F000ED36F000ED46F1200000E44
:104C60000001C56F000EC66F800EC76F3F0EC86F84
:104C70009AC1C9F09BC1CAF09CC1CBF09DC1CCF0D8
:104C8000D7EC29F00001D8B002D0010E01D0000EFF
:104C90000101956F01019551D8B41BD0000E0001A0
:104CA000776F000E786F800E796F3F0E7A6F9AC122
:104CB0007BF09BC17CF09CC17DF09DC17EF0FFEC40
:104CC0001DF077C09AF178C09BF179C09CF17AC051
:104CD0009DF19AC190F09BC191F09CC192F09DC151
:104CE00093F09AC194F09BC195F09CC196F09DC140
:104CF00097F091EC17F090C096F191C097F192C0A7
:104D000098F193C099F196C1BDF097C1BEF098C1DA
:104D1000BFF099C1C0F0190E0001C16F0D0E000166
:104D2000C26F000E0001C46F040EC36FCCEC2BF0F9
:104D3000BDC08DF1BEC08EF1BFC08FF1C0C090F17B
:104D400096C1BDF097C1BEF098C1BFF099C1C0F047
:104D5000010E0001C16F0D0E0001C26F000E0001B7
:104D6000C46F050EC36FCCEC2BF0BDC091F1BEC07B
:104D700092F1BFC093F1C0C094F19AC190F09BC171
:104D800091F09CC192F09DC193F08DC17BF08EC1DA
:104D90007CF08FC17DF090C17EF091C177F092C11F
:104DA00078F093C179F094C17AF0FFEC1DF077C0F0
:104DB00094F078C095F079C096F07AC097F091ECB5
:104DC00017F090C09AF191C09BF192C09CF193C0F2
:104DD0009DF1010195510101D8B425D09AC1BDF0D2
:104DE0009BC1BEF09CC1BFF09DC1C0F043EC2FF051
:104DF000BDC0A9F0BEC0AAF0BFC0ABF0C0C0ACF04F
:104E0000DB0E0001AD6F0F0EAE6FC90EAF6F3F0E20
:104E1000B06F3DEC15F0A9C09AF1AAC09BF1ABC0F0
:104E20009CF1ACC09DF10001D4BF09D09AC1D1F072
:104E30009BC1D2F09CC1D3F09DC1D4F012009AC1A5
:104E4000BDF09BC1BEF09CC1BFF09DC1C0F043EC62
:104E50002FF0BDC0D1F0BEC0D2F0BFC0D3F0C0C0F3
:104E6000D4F012000001D36F0001D3510001D8B477
:104E70001ED00001CEAF1BD0CBC0CFF0CCC0D0F045
:104E8000CDC0D1F0CEC0D2F00001CF1FD01FD11FB6
:104E9000D21FCF2B000ED023D123D223CFC0D5F0E9
:104EA000D0C0D6F0D1C0D7F0D2C0D8F008D0CBC097
:104EB000D5F0CCC0D6F0CDC0D7F0CEC0D8F0000130
:104EC000CB510001CC110001CD110001CE11D8A4AD
:104ED0000AD0000E0001CB6F000ECC6F000ECD6F1C
:104EE000000ECE6F1200960E0001D46F08D00001A4
:104EF000D42B0001D890D833D733D633D533000E16
:104F00000001D5150001CF6F000E0001D61500017C
:104F1000D06F000E0001D7150001D16FFE0E000109
:104F2000D8150001D26F0001CF510001D01100014E
:104F3000D1110001D211D8B410D0D9D70001D42B8F
:104F4000010E0001D527000ED623D723D823000158
:104F5000D890D833D733D633D533000E0001D515CA
:104F60000001CF6F000E0001D6150001D06F000EBA
:104F70000001D7150001D16FFF0E0001D815000107
:104F8000D26F0001CF510001D0110001D1110001F9
:104F9000D211D8B409D0D2D70001D4070001D890DB
:104FA000D537D637D737D8370001D7BF04D0020E50
:104FB0000001D461F1D70001D4B109D0FF0E000186
:104FC000D517FF0ED6177F0ED717FF0ED817000183
:104FD000D890D433D4C0CFF00001D06BD16BD26B5A
:104FE000CFC0D2F00001D16BD06BCF6B0001CF519D
:104FF0000001D5130001D0510001D6130001D15199
:105000000001D7130001D2510001D8130001D35180
:105010000001D8B405D00001CEAF02D00001D88F76
:10502000D5C0CBF0D6C0CCF0D7C0CDF0D8C0CEF034
:10503000120000018E6F800ED2EC2FF0000E706E09
:10504000000E716E000E726E00018741E842C00BC7
:105050000001876F000187517012000188517012A2
:1050600000018E51711200018539E842F80B0001F0
:10507000856F000185517112000189A5718C0001B5
:1050800089B1718E000186517212000189B3728C50
:1050900000018951600B606E00018951100BFF0AFD
:1050A000D8B4608460CF50FF000E0001776F000E0F
:1050B000786F000E796F000E7A6FF70E00017B6F2C
:1050C000010EDFEC1FF0000E0001776F000E786F0D
:1050D000000E796F000E7A6FF70E00017B6F020EE3
:1050E000DFEC1FF00FD0F70E00018F6F07D000012B
:1050F0008F690001906928D000018F69F70E0001C7
:10510000906F22D09F0E00018A6FFF0E00018B6FFF
:1051100000018951600B00018C6F8D6B00018A5179
:1051200000018C1300018B5100018D1300018D5182
:10513000000AD8A4E1D700018C51BF0AD8B4D7D750
:10514000600AD8B4D0D7D8D7000E0001776F000E10
:10515000786F000E796F000E7A6F8FC07BF0000EB3
:10516000A9EC06F0000E0001776F000E786F000EBC
:10517000796F000E7A6F8FC07BF0010EA9EC06F0FC
:10518000000E0001776F000E786F000E796F000E31
:105190007A6F90C07BF0020EA9EC06F0000E0001C1
:1051A000776F000E786F000E796F000E7A6F90C0E7
:1051B0007BF0030EA9EC06F0000E0001776F000EE5
:1051C000786F000E796F000E7A6F90C07BF0040E3E
:1051D000A9EC06F0000E0001776F000E786F000E4C
:1051E000796F000E7A6F90C07BF0050EA9EC06F087
:1051F000000ED2EC2FF01200D5D0C3EC24F02550D5
:1052000004E1330E245CD8A02AD047B257D0C0ECBA
:105210002FF00009D8B4FBD7080E0001776F000EFD
:10522000786F000E796F000E7A6F5D0E00017B6F54
:10523000010E00017C6F080E00017D6FFC0E000165
:105240007E6F2CEC0CF04782000E0001E46F000E24
:10525000E56F000EE66F000EE76F8A882FD08A9800
:1052600020EE26F0DECFB2F1DDCFB3F10101B21FA7
:10527000B31FB24BB32B24500101B2250001776F4D
:1052800025500101B3210001786F94EC2FF000014B
:1052900077C0CBF0000178C0CCF00001000ECCBF8D
:1052A000FF0ECD6FCE6F010E32EC27F0CBC0E4F0D5
:1052B000CCC0E5F0CDC0E6F0CEC0E7F0255022E14D
:1052C000320E245CD8A047A21DD04792C0EC2FF02C
:1052D0000009D8B4FBD7070E0001776F000E786F76
:1052E000000E796F000E7A6F5D0E00017B6F010E6C
:1052F00000017C6F080E00017D6FFC0E00017E6FC7
:105300002CEC0CF046A84ED0375004E1420E365C2F
:10531000D8A046D0818A010E01015D6F0B0E0001FD
:10532000776F000E786F000E796F000E7A6F5D0E4A
:1053300000017B6F010E00017C6F010E00017D6F8B
:10534000BC0E00017E6F2CEC0CF047B42BD0255026
:1053500029E1280E245CD8B025D0500E0101856FBC
:105360004682C0EC2FF00009D8B4FBD70D0E000127
:10537000776F000E786F000E796F000E7A6F850ED2
:1053800000017B6F010E00017C6F080E00017D6F34
:10539000BC0E00017E6F2CEC0CF0469A478402D0C4
:1053A0004698819A46A0120081BA120026D7000EB4
:1053B0000001C5150001CD6F000E0001C6150001EA
:1053C000CE6F800E0001C7150001CF6F7F0E000168
:1053D000C8150001D06F0001CD510001CE110001B0
:1053E000CF110001D011D8A409D0000E0001C56F63
:1053F000000EC66F000EC76F000EC86F000E0001D2
:10540000C9150001CD6F000E0001CA150001CE6F55
:10541000800E0001CB150001CF6F7F0E0001CC156F
:105420000001D06F0001CD510001CE110001CF115C
:105430000001D011D8A409D0000E0001C96F000EE0
:10544000CA6F000ECB6F000ECC6F0001C8AF26D024
:10545000C5C0CDF0C6C0CEF0C7C0CFF0C8C0D0F038
:105460000001CD1FCE1FCF1FD01FCD2B000ECE238E
:10547000CF23D023000E0001CD250001C56F000E03
:105480000001CE210001C66F000E0001CF210001F6
:10549000C76F800E0001D0210001C86F0001CCAFA2
:1054A00026D0C9C0CDF0CAC0CEF0CBC0CFF0CCC0A2
:1054B000D0F00001CD1FCE1FCF1FD01FCD2B000E6F
:1054C000CE23CF23D023000E0001CD250001C96FCC
:1054D000000E0001CE210001CA6F000E0001CF2195
:1054E0000001CB6F800E0001D0210001CC6F000EB7
:1054F0000001C51B000EC61B000EC71B800EC81B7B
:10550000000E0001C91B000ECA1B000ECB1B800E33
:10551000CC1B0001C9510001C55D0001CA51000149
:10552000C6590001CB510001C7590001CC510001FF
:10553000C859D8B002D0D8901200D880120081AAE1
:1055400063D0C0EC2FF0E806D8A4FBD7050E00010D
:10555000776F000E786F000E796F000E7A6F7D0EF8
:1055600000017B6F010E00017C6F080E00017D6F52
:10557000BC0E00017E6F2CEC0CF04CC175F10101EA
:105580004D510101766F000E46B4010E0101776F97
:10559000C0EC2FF0E806D8A4FBD7030E0001776F0C
:1055A000000E786F000E796F000E7A6F750E000195
:1055B0007B6F010E00017C6F080E00017D6FBC0E39
:1055C00000017E6F2CEC0CF0C0EC2FF0E806D8A4A4
:1055D000FBD7000E0101666F040E0001776F000E0D
:1055E000786F000E796F000E7A6F650E00017B6F89
:1055F000010E00017C6F080E00017D6FBC0E0001E2
:105600007E6F2CEC0CF012000E0E0001776F000E76
:10561000786F000E796F000E7A6F6D0E00017B6F50
:10562000010E00017C6F080E00017D6FBC0E0001B1
:105630007E6F2CEC0CF020EE87F06DC1DFFF000ECA
:10564000E8CF88F0AA0E0001776F000E786F000E89
:10565000796F000E7A6F870E00017B6F000E0001DC
:105660007C6F080E00017D6FBC0E00017E6F2CEC7C
:105670000CF01200D9C077F0DAC078F0DBC079F016
:10568000DCC07AF0E10E00017B6F000E00017C6F40
:10569000C1EC2DF00001E2AF17D00001DCAF0AD061
:1056A000000E0001D96F000EDA6F800EDB6FBF0EA7
:1056B000DC6F1200000E0001D96F000EDA6F000ED1
:1056C000DB6F000EDC6F12000001E25105E11D0EE0
:1056D0000001E15DD8A009D0D9C0D9F0DAC0DAF074
:1056E000DBC0DBF0DCC0DCF01200D9C0C1F0DAC0F6
:1056F000C2F0DBC0C3F0DCC0C4F058EC2CF0C1C079
:10570000CBF0C2C0CCF0C3C0CDF0C4C0CEF0010E0F
:1057100032EC27F0CBC0DDF0CCC0DEF0CDC0DFF046
:10572000CEC0E0F0D9C0C5F0DAC0C6F0DBC0C7F02B
:10573000DCC0C8F0DDC0C9F0DEC0CAF0DFC0CBF00D
:10574000E0C0CCF0D7EC29F00001D8B01CD0DDC00F
:10575000A9F0DEC0AAF0DFC0ABF0E0C0ACF0000EF4
:105760000001AD6F000EAE6F800EAF6FBF0EB06F59
:105770003DEC15F0A9C0D9F0AAC0DAF0ABC0DBF05F
:10578000ACC0DCF01200DDC0D9F0DEC0DAF0DFC062
:10579000DBF0E0C0DCF01200C3C0C5F0C4C0C6F04E
:1057A0000001D890C537C6370001D890C537C63735
:1057B000C1C0C7F0C2C0C8F00001C5510001C72771
:1057C0000001C6510001C823C7C0F6FFC8C0F7FFDB
:1057D000000EF86E0900F5CFC9F00900F5CFCAF048
:1057E0000900F5CFCBF00A00F5CFCCF052D0C9C0FC
:1057F00094F0CAC095F0CBC096F0CCC097F0BDC075
:1058000090F0BEC091F0BFC092F0C0C093F091EC98
:1058100017F090C0A9F091C0AAF092C0ABF093C06D
:10582000ACF00001C307D8A0C407C3C0C5F0C4C012
:10583000C6F00001D890C537C6370001D890C537EB
:10584000C637C1C0C7F0C2C0C8F00001C5510001D1
:10585000C7270001C6510001C823C7C0F6FFC8C052
:10586000F7FF000EF86E0900F5CFADF00900F5CF97
:10587000AEF00900F5CFAFF00A00F5CFB0F03DEC87
:1058800015F0A9C0C9F0AAC0CAF0ABC0CBF0ACC03B
:10589000CCF00001C3510001C411D8A4A8D7C9C0DD
:1058A000BDF0CAC0BEF0CBC0BFF0CCC0C0F012008B
:1058B0000001C335C4350001CA6F0001CA51D8A424
:1058C0000AD0000E0001C16F000EC26F000EC36F40
:1058D000000EC46F1200C1C0C5F0C2C0C6F0C3C084
:1058E000C7F0C4C0C8F0200E06D00001D890C8335D
:1058F000C733C633C533E82EF8D70001C5510001C0
:10590000C96F0001C38FFF0E0001C117FF0EC21740
:10591000FF0EC317000EC417960E0001CA5F0001E8
:10592000CAAF1AD00001CA51800A970FD8B00AD066
:10593000000E0001C16F000EC26F000EC36F000E9B
:10594000C46F12000001D890C433C333C233C133D3
:105950000001CA3FF7D71BD01F0E0001CA6512D045
:10596000000E0001C16F000EC26F000EC36F000E6B
:10597000C46F12000001D890C137C237C337C43793
:105980000001CA070001CA510001D8A4F3D70001E1
:10599000C9510001D8B409D00001C41FC31FC21FE0
:1059A000C16D000EC223C323C423C1C0C1F0C2C055
:1059B000C2F0C3C0C3F0C4C0C4F01200DB0E0001CB
:1059C000C56F0F0EC66F490EC76F400EC86FB2C1CC
:1059D000C9F0B3C1CAF0B4C1CBF0B5C1CCF0D7ECBB
:1059E00029F00001D8B02ED0B2C1A9F0B3C1AAF0FD
:1059F000B4C1ABF0B5C1ACF0E40E0001AD6FCB0E9D
:105A0000AE6F960EAF6FC00EB06F3DEC15F0A9C033
:105A1000B6F1AAC0B7F1ABC0B8F1ACC0B9F1B6C12C
:105A200095F1B7C196F1B8C197F1B9C198F1AEEC53
:105A300021F095C1B2F196C1B3F197C1B4F198C10B
:105A4000B5F11200B2C1A9F0B3C1AAF0B4C1ABF074
:105A5000B5C1ACF0DB0E0001AD6F0F0EAE6FC90E1D
:105A6000AF6F3F0EB06F3DEC15F0A9C0B6F1AAC004
:105A7000B7F1ABC0B8F1ACC0B9F1B6C195F1B7C1DF
:105A800096F1B8C197F1B9C198F1AEEC21F095C18A
:105A9000B2F196C1B3F197C1B4F198C1B5F112005A
:105AA000E9CF6BF0EACF6CF0E1CF6DF0E2CF6EF0B2
:105AB000D9CF6FF0DACF70F0F3CF71F0F4CF72F08E
:105AC000F6CF73F0F7CF74F0F8CF75F0F5CF76F02E
:105AD000F1AC07D0F19C000EB36E000EB26E46968C
:105AE00031D0B3CF44F0B2CF43F044C040F0416A6C
:105AF00040500001676F4350406E67C041F0D8903E
:105B000041300001676F403001014A6F67C04BF1BF
:105B10004AC160F04BC161F0000E0001636F3A0EA4
:105B2000626F0BEC2EF04250020D240EF324D96E5E
:105B3000000EF420DA6E000160C0DEFF000161C0DB
:105B4000DDFFF18CF29276C0F5FF75C0F8FF74C0EE
:105B5000F7FF73C0F6FF72C0F4FF71C0F3FF70C0AF
:105B6000DAFF6FC0D9FF6EC0E2FF6DC0E1FF6CC00D
:105B7000EAFF6BC0E9FF6AC0FBFF69C0FAFF489209
:105B80001100000177510001781100017911000125
:105B90007A11D8A409D07BC0D9FF7CC0DAFF000EEF
:105BA000DE6E000EDD6E120000017A517F0B0001E7
:105BB0007D6F7E6BD89000017D377E377BC0D9FF2B
:105BC0007CC0DAFF7DC0DEFF7EC0DDFF000179AF63
:105BD00004D000017D6B7D2B02D000017D6B0001A4
:105BE0007D517BC0D9FF7CC0DAFFDE12000EDD12D2
:105BF0007BC0D9FF7CC0DAFF820EDE26FF0EDD22DD
:105C000000017A817A837A857A877A897A8B7A9D7C
:105C10000001799F1200000E0001666F000E656F93
:105C20000001625100016311D8B42CD0010E0001B3
:105C3000646F06D00001D890623763370001642B8F
:105C4000000163AFF7D70001D890653766370001D0
:105C500062510001605D0001635100016159D8A0EB
:105C60000AD0000162510001605F00016351000130
:105C7000615B000165810001D890633362330001EC
:105C8000642FE1D765C060F066C061F01200000EBD
:105C9000896EF00E926E000E8A6E8A0E936E000E62
:105CA0008B6E9468C168060E0001856F050E0001B9
:105CB000866F010E0001876F030E0001886F9D0E35
:105CC0000001896F040E19EC28F0D08EA492A490E4
:105CD000A592A590A382A380F194800ED56E110E9B
:105CE000B16E340ED76EE00ED66EF294F28AF18C5D
:105CF000F292F298F28CF28E120001EE00F08D0E0C
:105D0000EE6AE806FDE10001E76BE66BE56BE46B2C
:105D1000476A466A00EE24F0220EEE6AE806FDE1CC
:105D2000BA0EF66E5F0EF76E000EF86E01EEE2F040
:105D300010EE0AF00900F5CFEEFFE550E150FAE170
:105D4000C40EF66E5F0EF76E000EF86E0900F5CF0A
:105D5000E8F0489048920001D8EF2EF009C13CF0DD
:105D60003D6A3C500001776F010108513C6E77C0DD
:105D70003DF00BC13EF03F6A3E500001776F0101DC
:105D80000A513E6E77C03FF03C503E240001776FD1
:105D90003D503F200001786FD8900001783100011C
:105DA000796F000177310101446F79C045F112002C
:105DB000000E0101006F010E0101016F020E0101D1
:105DC000026F030E0101036F040E0101046F050E43
:105DD0000101056F060E0101066F070E0101076F35
:105DE00047EC2EF08198819A819C4792479646A075
:105DF000FED7FCEC28F0AEEC2EF0E4EC19F0F7D76F
:105E0000000E0101911B000E921B000E931B800ED1
:105E1000941B8DC1A9F08EC1AAF08FC1ABF090C1C7
:105E2000ACF091C1ADF092C1AEF093C1AFF094C1AE
:105E3000B0F03DEC15F0A9C08DF1AAC08EF1ABC059
:105E40008FF1ACC090F112000001C4AF13D0C1C0FB
:105E5000BDF0C2C0BEF0C3C0BFF0C4C0C0F043ECD0
:105E60002FF0BDC0C1F0BEC0C2F0BFC0C3F0C0C003
:105E7000C4F01200C1C0C1F0C2C0C2F0C3C0C3F0C0
:105E8000C4C0C4F012000001BD510001BE110001E8
:105E9000BF110001C011D8B409D0000E0001BD1B14
:105EA000000EBE1B000EBF1B800EC01BBDC0BDF090
:105EB000BEC0BEF0BFC0BFF0C0C0C0F01200000145
:105EC000775100017903F3CF7BF0F4CF7CF0000130
:105ED000775100017A03F35000017C2700017851CB
:105EE00000017903F35000017C277BC077F07CC070
:105EF00078F01200E8C077F00001786B7DC079F08F
:105F00007EC07AF05FEC2FF077C034F078C035F0C7
:105F100006D0500EE82EFED73406D8A035063450F1
:105F20003510D8B41200F5D7000178AF0ED077C085
:105F300079F078C07AF00001791F7A1F794B7A2BBB
:105F400079C077F07AC078F0120077C077F078C027
:105F500078F0120000017F6F000E0001806F09D001
:105F6000030E00017E6FE80E7D6F7AEC2FF00001CA
:105F7000802B00017F510001805DD8B01200F0D766
:105F8000010E0001776F0F0140A709D00F0130A764
:105F900006D00F0120A703D0000E0001776F00018B
:105FA000775112000001776F77C06FFF6E50E00BE2
:105FB00000017719D8B41200F9D70000004264003C
:065FC00000004C4210003D
:020000040020DA
:08000000FFFFFFFFFFFFFFFF00
:020000040030CA
:0E000000FF021F1EFF8081FF3FC03FE03F4018
:00000001FF
