:04000000A6EF01F076
:0E0008004882FACF0AF0FBCF0BF088EF30F001
:100018004880D8CF64F0E8CF65F0E0CF66F0FACF3B
:1000280067F0FBCF68F0E9CF69F0EACF6AF0E1CF7B
:100038006BF0E2CF6CF0D9CF6DF0DACF6EF0F3CF82
:100048006FF0F4CF70F0F6CF71F0F7CF72F0F8CF11
:1000580073F0F5CF74F0F2A4AFD0F298D59E340EB9
:10006800D76EE00ED66ED58E45A80CD04050020D46
:10007800280EF324D96E000EF420DA6E880EDE6E98
:10008800130EDD6E4050020D280EF324D96E000EBB
:10009800F420DA6E010EDB5018E10A0EDE5CD8A0FF
:1000A80046BA13D040C060F0010E0001616F000134
:1000B800602B03D00001D89061370001602FFAD778
:1000C8000001615101019B1152D04050020D280ED0
:1000D800F324D96E000EF420DA6E010EDB5034E101
:1000E800040EDE5CD8A046AA2FD045B42DD0432AF2
:1000F800030E43643ED04050D8B407D04004D8B46F
:1001080004D0020E4018D8A434D0000E01016C6F40
:10011800040E01016B6F37EC33F00009D8B4FBD73C
:100128000B0E186E000E196E000E1A6E000E1B6E66
:100138006B0E1C6E010E1D6E080E1E6EBC0E1F6E21
:10014800F2EC0FF0FF0015D040C060F0010E000186
:10015800616F0001602B03D00001D8906137000166
:10016800602FFAD700016151FF0A01019B150101B7
:100178009B6F402A080E4018D8A402D0000E406E8B
:10018800000E0001756F4050010D000EF324D96E6A
:10019800010EF420DA6EDF500001756F75C080FF24
:1001A80093908A80140EE82EFED745888A90938013
:1001B800F292F288F294F18CA4A0A4B201D09ED05D
:1001C8005C0E186E010E196EFFEC15F00D0E010194
:1001D8005C1901015D1101015E1101015F11D8B4C3
:1001E8004592070E01015C1901015D1101015E11C3
:1001F80001015F11D8A434D001016A05D8B430D008
:10020800000E0101516F000E506F61C13AF03B6A58
:100218003A500001606F010160513A6E60C03BF0D6
:1002280063C13CF03D6A3C500001606F01016251BE
:100238003C6E60C03DF03A503C240001606F3B507A
:100248003D200001616FD890000161310001626FAB
:10025800000160310101506F62C051F1458A458C3F
:100268000A0E01015C1901015D1101015E11010114
:100278005F11D8A40CD001016005D8A403D0458033
:10028800818C05D045908198819A819C46960C0E68
:1002980001015C1901015D1101015E1101015F118C
:1002A800D8B4468A060E01015C1901015D110101ED
:1002B8005E1101015F11D8A41FD0000E0001766FF6
:1002C800070E0001766501D017D000017651010DA7
:1002D800600EF324D96E010EF420DA6E0001765117
:1002E800010D080EF324E16E010EF420E26EDFCF5B
:1002F800E7FF0001762BE4D7A490A49274C0F5FF21
:1003080073C0F8FF72C0F7FF71C0F6FF70C0F4FF4A
:100318006FC0F3FF6EC0DAFF6DC0D9FF6CC0E2FF9B
:100328006BC0E1FF6AC0EAFF69C0E9FF68C0FBFF74
:1003380067C0FAFF66C0E0FF65C0E8FF64C0D8FF89
:08034800489010000BEF32F0A9
:100D000000063C04427D9F6A425C900142604DBBFC
:100D10004051EC473EDE8D1FBB063C0442C0598B60
:100D20004274044442F99B4F410000803FECF34A77
:100D300048359595C717C1DC45FDDB6DC372B333EC
:100D4000402B3401487F9DB045E7FFD94200008029
:100D50003F000001806F000180510001D8A458D0ED
:100D600000017B29D8A454D00F01019777C07CF0F3
:100D700078C07DF079C07EF07AC07FF0040E06D096
:100D80000001D8907F337E337D337C33E82EF8D753
:100D90007CC081F07DC082F07EC083F07FC084F093
:100DA000000181510001816F826B836B846B81C074
:100DB00000FF070E000177150001816F000E000192
:100DC00078150001826F000E000179150001836F14
:100DD000000E00017A150001846F81C07CF082C092
:100DE0007DF083C07EF084C07FF0050ED8900001B6
:100DF0007C377D377E377F37E82EF8D77CC081F08F
:100E00007DC082F07EC083F07FC084F081C001FF8E
:100E100000018005D8A458D000017B29D8A454D063
:100E20000F01059777C07CF078C07DF079C07EF027
:100E30007AC07FF0040E06D00001D8907F337E3355
:100E40007D337C33E82EF8D77CC081F07DC082F002
:100E50007EC083F07FC084F0000181510001816F6A
:100E6000826B836B846B81C004FF070E00017715D2
:100E70000001816F000E000178150001826F000EE5
:100E8000000179150001836F000E00017A15000141
:100E9000846F81C07CF082C07DF083C07EF084C00E
:100EA0007FF0050ED89000017C377D377E377F3785
:100EB000E82EF8D77CC081F07DC082F07EC083F040
:100EC0007FC084F081C005FF020E00018019D8A404
:100ED00058D000017B29D8A454D00F01099777C0BE
:100EE0007CF078C07DF079C07EF07AC07FF0040E8F
:100EF00006D00001D8907F337E337D337C33E82EDB
:100F0000F8D77CC081F07DC082F07EC083F07FC0C6
:100F100084F0000181510001816F826B836B846BCF
:100F200081C008FF070E000177150001816F000ED8
:100F3000000178150001826F000E00017915000193
:100F4000836F000E00017A150001846F81C07CF070
:100F500082C07DF083C07EF084C07FF0050ED89003
:100F600000017C377D377E377F37E82EF8D77CC08D
:100F700081F07DC082F07EC083F07FC084F081C0AC
:100F800009FF030E00018019D8A458D000017B2965
:100F9000D8A454D00F010D9777C07CF078C07DF0B5
:100FA00079C07EF07AC07FF0040E06D00001D890A0
:100FB0007F337E337D337C33E82EF8D77CC081F0DD
:100FC0007DC082F07EC083F07FC084F0000181513B
:100FD0000001816F826B836B846B81C00CFF070EF5
:100FE000000177150001816F000E000178150001E6
:100FF000826F000E000179150001836F000E000161
:101000007A150001846F81C07CF082C07DF083C0BE
:101010007EF084C07FF0050ED89000017C377D37CC
:101020007E377F37E82EF8D77CC081F07DC082F014
:101030007EC083F07FC084F081C00DFF040E0001EC
:101040008019D8A458D000017B29D8A454D00F010E
:10105000119777C07CF078C07DF079C07EF07AC0BF
:101060007FF0040E06D00001D8907F337E337D33AD
:101070007C33E82EF8D77CC081F07DC082F07EC042
:1010800083F07FC084F0000181510001816F826B89
:10109000836B846B81C010FF070E00017715000180
:1010A000816F000E000178150001826F000E0001B3
:1010B00079150001836F000E00017A150001846F1D
:1010C00081C07CF082C07DF083C07EF084C07FF060
:1010D000050ED89000017C377D377E377F37E82EAC
:1010E000F8D77CC081F07DC082F07EC083F07FC0E5
:1010F00084F081C011FF050E00018019D8A458D0DA
:1011000000017B29D8A454D00F01159777C07CF03B
:1011100078C07DF079C07EF07AC07FF0040E06D0F2
:101120000001D8907F337E337D337C33E82EF8D7AF
:101130007CC081F07DC082F07EC083F07FC084F0EF
:10114000000181510001816F826B836B846B81C0D0
:1011500014FF070E000177150001816F000E0001DA
:1011600078150001826F000E000179150001836F70
:10117000000E00017A150001846F81C07CF082C0EE
:101180007DF083C07EF084C07FF0050ED890000112
:101190007C377D377E377F37E82EF8D77CC081F0EB
:1011A0007DC082F07EC083F07FC084F081C015FFD7
:1011B000000180510001D8A489D0F70E00017B19ED
:1011C000D8A484D00F010187000177510001816FFD
:1011D000826B836B846B81C003FF000E0001771567
:1011E0000001816FFF0E000178150001826F000E73
:1011F000000179150001836F000E00017A150001CE
:10120000846F81C07CF082C07DF083C07EF084C09A
:101210007FF07DC07CF07EC07DF07FC07EF000015D
:101220007F6B7CC081F07DC082F07EC083F07FC088
:1012300084F081C002FF000179A103D00F01018178
:1012400002D00F010191000179A303D00F010183A6
:1012500002D00F010193000179A503D00F01018B8A
:1012600002D00F01019B000179A703D00F01018D6E
:1012700002D00F01019D000179A903D00F01018F58
:1012800002D00F01019F77C07CF078C07DF079C05B
:101290007EF07AC07FF0160E06D00001D8907F3322
:1012A0007E337D337C33E82EF8D77CC081F07DC05F
:1012B00082F07EC083F07FC084F000018151000184
:1012C000816F826B836B846B81C000FF000180059E
:1012D000D8A489D0F70E00017B19D8A484D00F01BF
:1012E0000587000177510001816F826B836B846BEE
:1012F00081C007FF000E000177150001816FFF0E0E
:10130000000178150001826F000E000179150001BF
:10131000836F000E00017A150001846F81C07CF09C
:1013200082C07DF083C07EF084C07FF07DC07CF001
:101330007EC07DF07FC07EF000017F6B7CC081F0BD
:101340007DC082F07EC083F07FC084F081C006FF44
:10135000000179A103D00F01058102D00F01059191
:10136000000179A303D00F01058302D00F0105937B
:10137000000179A503D00F01058B02D00F01059B59
:10138000000179A703D00F01058D02D00F01059D43
:10139000000179A903D00F01058F02D00F01059F2D
:1013A00077C07CF078C07DF079C07EF07AC07FF0A5
:1013B000160E06D00001D8907F337E337D337C3308
:1013C000E82EF8D77CC081F07DC082F07EC083F02B
:1013D0007FC084F0000181510001816F826B836BBB
:1013E000846B81C004FF020E00018019D8A489D04B
:1013F000F70E00017B19D8A484D00F0109870001E2
:1014000077510001816F826B836B846B81C00BFF0E
:10141000000E000177150001816FFF0E00017815A5
:101420000001826F000E000179150001836F000E2C
:1014300000017A150001846F81C07CF082C07DF0CC
:1014400083C07EF084C07FF07DC07CF07EC07DF0E4
:101450007FC07EF000017F6B7CC081F07DC082F098
:101460007EC083F07FC084F081C00AFF000179A1B3
:1014700003D00F01098102D00F010991000179A366
:1014800003D00F01098302D00F010993000179A550
:1014900003D00F01098B02D00F01099B000179A72E
:1014A00003D00F01098D02D00F01099D000179A918
:1014B00003D00F01098F02D00F01099F77C07CF084
:1014C00078C07DF079C07EF07AC07FF0160E06D02D
:1014D0000001D8907F337E337D337C33E82EF8D7FC
:1014E0007CC081F07DC082F07EC083F07FC084F03C
:1014F000000181510001816F826B836B846B81C01D
:1015000008FF030E00018019D8A489D0F70E00014E
:101510007B19D8A484D00F010D87000177510001F9
:10152000816F826B836B846B81C00FFF000E0001A3
:1015300077150001816FFF0E000178150001826FA1
:10154000000E000179150001836F000E00017A156D
:101550000001846F81C07CF082C07DF083C07EF08A
:1015600084C07FF07DC07CF07EC07DF07FC07EF0C7
:1015700000017F6B7CC081F07DC082F07EC083F073
:101580007FC084F081C00EFF000179A103D00F015C
:101590000D8102D00F010D91000179A303D00F013D
:1015A0000D8302D00F010D93000179A503D00F0127
:1015B0000D8B02D00F010D9B000179A703D00F0105
:1015C0000D8D02D00F010D9D000179A903D00F01EF
:1015D0000D8F02D00F010D9F77C07CF078C07DF099
:1015E00079C07EF07AC07FF0160E06D00001D89048
:1015F0007F337E337D337C33E82EF8D77CC081F097
:101600007DC082F07EC083F07FC084F000018151F4
:101610000001816F826B836B846B81C00CFF040EB1
:1016200000018019D8A489D0F70E00017B19D8A435
:1016300084D00F011187000177510001816F826B07
:10164000836B846B81C013FF000E000177150001CE
:10165000816FFF0E000178150001826F000E0001FE
:1016600079150001836F000E00017A150001846F67
:1016700081C07CF082C07DF083C07EF084C07FF0AA
:101680007DC07CF07EC07DF07FC07EF000017F6B6E
:101690007CC081F07DC082F07EC083F07FC084F08A
:1016A00081C012FF000179A103D00F01118102D086
:1016B0000F011191000179A303D00F01118302D012
:1016C0000F011193000179A503D00F01118B02D0F6
:1016D0000F01119B000179A703D00F01118D02D0DA
:1016E0000F01119D000179A903D00F01118F02D0C4
:1016F0000F01119F77C07CF078C07DF079C07EF03B
:101700007AC07FF0160E06D00001D8907F337E336A
:101710007D337C33E82EF8D77CC081F07DC082F029
:101720007EC083F07FC084F0000181510001816F91
:10173000826B836B846B81C010FF050E00018019E2
:10174000D8A41200F70E00017B19D8A412000F01D3
:101750001587000177510001816F826B836B846B69
:1017600081C017FF000E000177150001816FFF0E89
:10177000000178150001826F000E0001791500014B
:10178000836F000E00017A150001846F81C07CF028
:1017900082C07DF083C07EF084C07FF07DC07CF08D
:1017A0007EC07DF07FC07EF000017F6B7CC081F049
:1017B0007DC082F07EC083F07FC084F081C016FFC0
:1017C000000179A103D00F01158102D00F011591FD
:1017D000000179A303D00F01158302D00F011593E7
:1017E000000179A503D00F01158B02D00F01159BC5
:1017F000000179A703D00F01158D02D00F01159DAF
:10180000000179A903D00F01158F02D00F01159F98
:1018100077C07CF078C07DF079C07EF07AC07FF030
:10182000160E06D00001D8907F337E337D337C3393
:10183000E82EF8D77CC081F07DC082F07EC083F0B6
:101840007FC084F0000181510001816F826B836B46
:10185000846B81C014FF12000F0140B73FD17DC0DF
:1018600045FF00017EAD03D00F01458D02D00F0171
:10187000459D00017EA779D0000177510001836F5B
:10188000846B856B866B83C044FF000E0001771567
:101890000001836FFF0E000178150001846F000EB8
:1018A000000179150001856F000E00017A15000115
:1018B000866F83C07FF084C080F085C081F086C0D1
:1018C00082F080C07FF081C080F082C081F0000192
:1018D000826B7FC083F080C084F081C085F082C0BD
:1018E00086F083C043FF000E0F01426F0F01428755
:1018F000000179A102D00F014281000179A302D039
:101900000F014283000179A502D00F01428B000133
:1019100079A702D00F01428D000179A902D00F01F1
:10192000428F77C07FF078C080F079C081F07AC0B4
:1019300082F0160E06D00001D890823381338033B6
:101940007F33E82EF8D77FC083F080C084F081C059
:1019500085F082C086F0000183510001836F846BA3
:10196000856B866B83C041FF59D00F01429777C0CA
:101970007FF078C080F079C081F07AC082F0040EE8
:1019800006D00001D8908233813380337F33E82E34
:10199000F8D77FC083F080C084F081C085F082C01A
:1019A00086F0000183510001836F846B856B866B29
:1019B00083C041FF070E000177150001836F000E01
:1019C000000178150001846F000E000179150001F7
:1019D000856F000E00017A150001866F83C07FF0CD
:1019E00084C080F085C081F086C082F0050ED8905A
:1019F00000017F37803781378237E82EF8D77FC0E4
:101A000083F080C084F081C085F082C086F00F0131
:101A100042511F0B0F01426F83C042FF00017EA1A4
:101A200003D00F01408102D00F01409100017EA33D
:101A300003D00F01408302D00F0140937BC0D9FF38
:101A40007CC0DAFFDF500F01466F000120EE01F08D
:101A50007B51D9267C51DA22DF500F01476F0001FC
:101A600020EE02F07B51D9267C51DA22DF500F01A3
:101A7000486F000120EE03F07B51D9267C51DA2219
:101A8000DF500F01496F000120EE04F07B51D92691
:101A90007C51DA22DF500F014A6F000120EE05F081
:101AA0007B51D9267C51DA22DF500F014B6F0001A8
:101AB00020EE06F07B51D9267C51DA22DF500F014F
:101AC0004C6F000120EE07F07B51D9267C51DA22C1
:101AD000DF500F014D6F0F01408712000F0130B72B
:101AE0003FD17DC035FF00017EAD03D00F01358DA4
:101AF00002D00F01359D00017EA779D000017751FA
:101B00000001836F846B856B866B83C034FF000E8E
:101B1000000177150001836FFF0E000178150001A9
:101B2000846F000E000179150001856F000E000121
:101B30007A150001866F83C07FF084C080F085C075
:101B400081F086C082F080C07FF081C080F082C0CA
:101B500081F00001826B7FC083F080C084F081C07F
:101B600085F082C086F083C033FF000E0F01326F14
:101B70000F013287000179A102D00F0132810001EB
:101B800079A302D00F013283000179A502D00F01A1
:101B9000328B000179A702D00F01328D000179A9A3
:101BA00002D00F01328F77C07FF078C080F079C00B
:101BB00081F07AC082F0160E06D00001D8908233F0
:101BC000813380337F33E82EF8D77FC083F080C025
:101BD00084F081C085F082C086F00001835100014D
:101BE000836F846B856B866B83C031FF59D00F0187
:101BF000329777C07FF078C080F079C081F07AC0EA
:101C000082F0040E06D00001D890823381338033F5
:101C10007F33E82EF8D77FC083F080C084F081C086
:101C200085F082C086F0000183510001836F846BD0
:101C3000856B866B83C031FF070E000177150001AD
:101C4000836F000E000178150001846F000E000103
:101C500079150001856F000E00017A150001866F6D
:101C600083C07FF084C080F085C081F086C082F0A0
:101C7000050ED89000017F37803781378237E82EF4
:101C8000F8D77FC083F080C084F081C085F082C027
:101C900086F00F0132511F0B0F01326F83C032FFEC
:101CA00000017EA103D00F01308102D00F013091DD
:101CB00000017EA303D00F01308302D00F013093C7
:101CC0007BC0D9FF7CC0DAFFDF500F01366F000107
:101CD00020EE01F07B51D9267C51DA22DF500F0132
:101CE000376F000120EE02F07B51D9267C51DA22B9
:101CF000DF500F01386F000120EE03F07B51D92631
:101D00007C51DA22DF500F01396F000120EE04F020
:101D10007B51D9267C51DA22DF500F013A6F000146
:101D200020EE05F07B51D9267C51DA22DF500F01DD
:101D30003B6F000120EE06F07B51D9267C51DA2260
:101D4000DF500F013C6F000120EE07F07B51D926D8
:101D50007C51DA22DF500F013D6F0F0130871200F6
:101D60000F0120B712007DC025FF00017EAD03D01A
:101D70000F01258D02D00F01259D00017EA779D08E
:101D8000000177510001836F846B856B866B83C084
:101D900024FF000E000177150001836FFF0E000184
:101DA00078150001846F000E000179150001856F20
:101DB000000E00017A150001866F83C07FF084C099
:101DC00080F085C081F086C082F080C07FF081C045
:101DD00080F082C081F00001826B7FC083F080C000
:101DE00084F081C085F082C086F083C023FF000E9E
:101DF0000F01226F0F012287000179A102D00F018C
:101E00002281000179A302D00F012283000179A56C
:101E100002D00F01228B000179A702D00F01228D81
:101E2000000179A902D00F01228F77C07FF078C01E
:101E300080F079C081F07AC082F0160E06D00001E1
:101E4000D8908233813380337F33E82EF8D77FC038
:101E500083F080C084F081C085F082C086F00001EC
:101E600083510001836F846B856B866B83C021FF78
:101E700059D00F01229777C07FF078C080F079C0E9
:101E800081F07AC082F0040E06D00001D89082332F
:101E9000813380337F33E82EF8D77FC083F080C052
:101EA00084F081C085F082C086F00001835100017A
:101EB000836F846B856B866B83C021FF070E0001E7
:101EC00077150001836F000E000178150001846F03
:101ED000000E000179150001856F000E00017A15D2
:101EE0000001866F83C07FF084C080F085C081F0E0
:101EF00086C082F0050ED89000017F378037813789
:101F00008237E82EF8D77FC083F080C084F081C08C
:101F100085F082C086F00F0122511F0B0F01226F46
:101F200083C022FF00017EA103D00F01208102D0D7
:101F30000F01209100017EA303D00F01208302D066
:101F40000F0120937BC0D9FF7CC0DAFFDF500F0167
:101F5000266F000120EE01F07B51D9267C51DA2258
:101F6000DF500F01276F000120EE02F07B51D926D0
:101F70007C51DA22DF500F01286F000120EE03F0C0
:101F80007B51D9267C51DA22DF500F01296F0001E5
:101F900020EE04F07B51D9267C51DA22DF500F016C
:101FA0002A6F000120EE05F07B51D9267C51DA2200
:101FB000DF500F012B6F000120EE06F07B51D92678
:101FC0007C51DA22DF500F012C6F000120EE07F068
:101FD0007B51D9267C51DA22DF500F012D6F0F0182
:101FE000208712000F0140B715D11EC045FF1FAC5E
:101FF00003D00F01458D02D00F01459D1FA666D06D
:102000001850246E256A266A276A24C044FF000EF1
:102010001814246EFF0E1914256E000E1A14266E65
:10202000000E1B14276E24C020F025C021F026C00E
:1020300022F027C023F021C020F022C021F023C0CD
:1020400022F0236A20C024F021C025F022C026F00F
:1020500023C027F024C043FF000E0F01426F0F0181
:1020600042871AA002D00F0142811AA202D00F01AA
:1020700042831AA402D00F01428B1AA602D00F018C
:10208000428D1AA802D00F01428F18C020F019C04B
:1020900021F01AC022F01BC023F0160E05D0D890F4
:1020A0002332223221322032E82EF9D720C024F008
:1020B00021C025F022C026F023C027F02450246E32
:1020C000256A266A276A24C041FF4DD00F01429736
:1020D00018C020F019C021F01AC022F01BC023F054
:1020E000040E05D0D8902332223221322032E82E3D
:1020F000F9D720C024F021C025F022C026F023C04B
:1021000027F02450246E256A266A276A24C041FFDE
:10211000070E1814246E000E1914256E000E1A14E2
:10212000266E000E1B14276E24C020F025C021F05F
:1021300026C022F027C023F0050ED8902036213685
:1021400022362336E82EF9D720C024F021C025F00E
:1021500022C026F023C027F00F0142511F0B0F01B0
:10216000426F24C042FF1FA003D00F01408102D064
:102170000F0140911FA203D00F01408302D00F0135
:1021800040931CC0D9FF1DC0DAFFDF500F01466F1E
:1021900020EE01F01C50D9261D50DA22DF500F012D
:1021A000476F20EE02F01C50D9261D50DA22DF5076
:1021B0000F01486F20EE03F01C50D9261D50DA2283
:1021C000DF500F01496F20EE04F01C50D9261D503E
:1021D000DA22DF500F014A6F20EE05F01C50D9269D
:1021E0001D50DA22DF500F014B6F20EE06F01C501D
:1021F000D9261D50DA22DF500F014C6F20EE07F078
:102200001C50D9261D50DA22DF500F014D6F0F01EF
:10221000408712000F0130B715D11EC035FF1FAC2B
:1022200003D00F01358D02D00F01359D1FA666D05A
:102230001850246E256A266A276A24C034FF000ECF
:102240001814246EFF0E1914256E000E1A14266E33
:10225000000E1B14276E24C020F025C021F026C0DC
:1022600022F027C023F021C020F022C021F023C09B
:1022700022F0236A20C024F021C025F022C026F0DD
:1022800023C027F024C033FF000E0F01326F0F016F
:1022900032871AA002D00F0132811AA202D00F0198
:1022A00032831AA402D00F01328B1AA602D00F017A
:1022B000328D1AA802D00F01328F18C020F019C039
:1022C00021F01AC022F01BC023F0160E05D0D890C2
:1022D0002332223221322032E82EF9D720C024F0D6
:1022E00021C025F022C026F023C027F02450246E00
:1022F000256A266A276A24C031FF4DD00F01329724
:1023000018C020F019C021F01AC022F01BC023F021
:10231000040E05D0D8902332223221322032E82E0A
:10232000F9D720C024F021C025F022C026F023C018
:1023300027F02450246E256A266A276A24C031FFBC
:10234000070E1814246E000E1914256E000E1A14B0
:10235000266E000E1B14276E24C020F025C021F02D
:1023600026C022F027C023F0050ED8902036213653
:1023700022362336E82EF9D720C024F021C025F0DC
:1023800022C026F023C027F00F0132511F0B0F018E
:10239000326F24C032FF1FA003D00F01308102D062
:1023A0000F0130911FA203D00F01308302D00F0123
:1023B00030931CC0D9FF1DC0DAFFDF500F01366F0C
:1023C00020EE01F01C50D9261D50DA22DF500F01FB
:1023D000376F20EE02F01C50D9261D50DA22DF5054
:1023E0000F01386F20EE03F01C50D9261D50DA2261
:1023F000DF500F01396F20EE04F01C50D9261D501C
:10240000DA22DF500F013A6F20EE05F01C50D9267A
:102410001D50DA22DF500F013B6F20EE06F01C50FA
:10242000D9261D50DA22DF500F013C6F20EE07F055
:102430001C50D9261D50DA22DF500F013D6F0F01CD
:10244000308712000F0120B712001EC025FF1FACFD
:1024500003D00F01258D02D00F01259D1FA666D048
:102460001850246E256A266A276A24C024FF000EAD
:102470001814246EFF0E1914256E000E1A14266E01
:10248000000E1B14276E24C020F025C021F026C0AA
:1024900022F027C023F021C020F022C021F023C069
:1024A00022F0236A20C024F021C025F022C026F0AB
:1024B00023C027F024C023FF000E0F01226F0F015D
:1024C00022871AA002D00F0122811AA202D00F0186
:1024D00022831AA402D00F01228B1AA602D00F0168
:1024E000228D1AA802D00F01228F18C020F019C027
:1024F00021F01AC022F01BC023F0160E05D0D89090
:102500002332223221322032E82EF9D720C024F0A3
:1025100021C025F022C026F023C027F02450246ECD
:10252000256A266A276A24C021FF4DD00F01229711
:1025300018C020F019C021F01AC022F01BC023F0EF
:10254000040E05D0D8902332223221322032E82ED8
:10255000F9D720C024F021C025F022C026F023C0E6
:1025600027F02450246E256A266A276A24C021FF9A
:10257000070E1814246E000E1914256E000E1A147E
:10258000266E000E1B14276E24C020F025C021F0FB
:1025900026C022F027C023F0050ED8902036213621
:1025A00022362336E82EF9D720C024F021C025F0AA
:1025B00022C026F023C027F00F0122511F0B0F016C
:1025C000226F24C022FF1FA003D00F01208102D060
:1025D0000F0120911FA203D00F01208302D00F0111
:1025E00020931CC0D9FF1DC0DAFFDF500F01266FFA
:1025F00020EE01F01C50D9261D50DA22DF500F01C9
:10260000276F20EE02F01C50D9261D50DA22DF5031
:102610000F01286F20EE03F01C50D9261D50DA223E
:10262000DF500F01296F20EE04F01C50D9261D50F9
:10263000DA22DF500F012A6F20EE05F01C50D92658
:102640001D50DA22DF500F012B6F20EE06F01C50D8
:10265000D9261D50DA22DF500F012C6F20EE07F033
:102660001C50D9261D50DA22DF500F012D6F0F01AB
:102670002087120034C1ADF035C1AEF036C1AFF0E5
:1026800037C1B0F0000E00017B6F000E7C6F000EB2
:102690007D6F400E7E6FF0C177F0F1C178F0F2C12E
:1026A00079F0F3C17AF059EC21F077C0A9F078C045
:1026B000AAF079C0ABF07AC0ACF085EC18F0A9C0F4
:1026C000BDF0AAC0BEF0ABC0BFF0ACC0C0F0A8EC7B
:1026D00032F0BDC0D0F1BEC0D1F1BFC0D2F1C0C098
:1026E000D3F1D0C1ADF0D1C1AEF0D2C1AFF0D3C102
:1026F000B0F0000E0001946F000E956F000E966F03
:10270000400E976FF6C190F0F7C191F0F8C192F0CA
:10271000F9C193F0D9EC1AF090C0A9F091C0AAF0D9
:1027200092C0ABF093C0ACF085EC18F0A9C0D4F126
:10273000AAC0D5F1ABC0D6F1ACC0D7F1000E0001F4
:102740007B6F000E7C6F000E7D6F400E7E6FF0C1C0
:1027500077F0F1C178F0F2C179F0F3C17AF059EC79
:1027600021F077C0BDF078C0BEF079C0BFF07AC06C
:10277000C0F0A8EC32F0BDC0ADF0BEC0AEF0BFC03E
:10278000AFF0C0C0B0F0D4C1A9F0D5C1AAF0D6C195
:10279000ABF0D7C1ACF085EC18F0A9C0D8F1AAC055
:1027A000D9F1ABC0DAF1ACC0DBF1D8C177F0D9C157
:1027B00078F0DAC179F0DBC17AF0000E0001946F95
:1027C000000E956F000E966F400E976FF6C190F059
:1027D000F7C191F0F8C192F0F9C193F0D9EC1AF079
:1027E00090C07BF091C07CF092C07DF093C07EF0F1
:1027F00059EC21F077C0DCF178C0DDF179C0DEF171
:102800007AC0DFF1DCC1DEF0DDC1DFF0DEC1E0F077
:10281000DFC1E1F094EC26F0DEC02CF1DFC02DF139
:10282000E0C02EF1E1C02FF1DB0E00017B6F0F0E37
:102830007C6F490E7D6F400E7E6F2CC177F02DC1ED
:1028400078F02EC179F02FC17AF059EC21F077C0E1
:1028500090F078C091F079C092F07AC093F0000EB9
:102860000001946F000E956F340E966F430E976FB4
:10287000D9EC1AF090C02CF191C02DF192C02EF13C
:1028800093C02FF12CC1BDF02DC1BEF02EC1BFF001
:102890002FC1C0F0A8EC32F0BDC0A9F0BEC0AAF0B4
:1028A000BFC0ABF0C0C0ACF0000E0001AD6F000EB9
:1028B000AE6FB40EAF6F420EB06F85EC18F0A9C0CA
:1028C00030F1AAC031F1ABC032F1ACC033F1DB0E54
:1028D0000001946F0F0E956F490E966F400E976F23
:1028E0002CC190F02DC191F02EC192F02FC193F028
:1028F000D9EC1AF090C077F091C078F092C079F0DE
:1029000093C07AF0000E00017B6F000E7C6F340ED6
:102910007D6F430E7E6F59EC21F077C02CF178C0AB
:102920002DF179C02EF17AC02FF12CC1C8F12DC143
:10293000C9F12EC1CAF12FC1CBF116EC30F0C8C1DC
:1029400038F1C9C139F1CAC13AF1CBC13BF138C143
:1029500094F039C195F03AC196F03BC197F0F6C1B9
:1029600090F0F7C191F0F8C192F0F9C193F0D9EC71
:102970001AF090C0E8F191C0E9F192C0EAF193C079
:10298000EBF1E8C190F0E9C191F0EAC192F0EBC13E
:1029900093F0000E0001946F000E956F000E966F7D
:1029A000400E976FD9EC1AF090C038F191C039F110
:1029B00092C03AF193C03BF130C194F031C195F02F
:1029C00032C196F033C197F0F6C190F0F7C191F0A3
:1029D000F8C192F0F9C193F0D9EC1AF090C0E8F187
:1029E00091C0E9F192C0EAF193C0EBF1DB0E000176
:1029F000946F0F0E956FC90E966F400E976FE8C1DA
:102A000090F0E9C191F0EAC192F0EBC193F0D9ECFA
:102A10001AF090C077F091C078F092C079F093C02E
:102A20007AF0000E00017B6F000E7C6FB40E7D6F9C
:102A3000430E7E6F59EC21F077C040F178C041F130
:102A400079C042F17AC043F1000E00017B6F000EA5
:102A50007C6F400E7D6F400E7E6F000E0001946F04
:102A6000000E956F000E966F400E976FF0C190F0BC
:102A7000F1C191F0F2C192F0F3C193F0D9EC1AF0E8
:102A800090C077F091C078F092C079F093C07AF05E
:102A900059EC21F077C0A9F078C0AAF079C0ABF06A
:102AA0007AC0ACF0F6C1ADF0F7C1AEF0F8C1AFF04E
:102AB000F9C1B0F085EC18F0A9C024F1AAC025F145
:102AC000ABC026F1ACC027F1000E00017B6F000EF9
:102AD0007C6F400E7D6F400E7E6F000E0001946F84
:102AE000000E956F000E966F400E976FF0C190F03C
:102AF000F1C191F0F2C192F0F3C193F0D9EC1AF068
:102B000090C077F091C078F092C079F093C07AF0DD
:102B100059EC21F077C0BDF078C0BEF079C0BFF0AD
:102B20007AC0C0F0A8EC32F0BDC0A9F0BEC0AAF0D7
:102B3000BFC0ABF0C0C0ACF0F6C1ADF0F7C1AEF0B5
:102B4000F8C1AFF0F9C1B0F085EC18F0A9C020F1E0
:102B5000AAC021F1ABC022F1ACC023F124C17BF0AB
:102B600025C17CF026C17DF027C17EF020C177F021
:102B700021C178F022C179F023C17AF059EC21F01B
:102B800077C0E0F178C0E1F179C0E2F17AC0E3F119
:102B9000E0C1DEF0E1C1DFF0E2C1E0F0E3C1E1F06D
:102BA00094EC26F0DEC0C8F1DFC0C9F1E0C0CAF184
:102BB000E1C0CBF116EC30F0C8C1E4F1C9C1E5F1D8
:102BC000CAC1E6F1CBC1E7F1E4C190F0E5C191F0F3
:102BD000E6C192F0E7C193F024C194F025C195F0CD
:102BE00026C196F027C197F0D9EC1AF090C028F1D1
:102BF00091C029F192C02AF193C02BF11200000E6E
:102C0000226E74BE228074BC22820F0150AF43D169
:102C100018C0D9FF19C0DAFFDE6ADE6ADE6ADD6A33
:102C200020EE04F01850D9261950DA2256CFDFFFD3
:102C300020EE05F01850D9261950DA2257CFDFFFC1
:102C400020EE06F01850D9261950DA2258CFDFFFAF
:102C500020EE07F01850D9261950DA2259CFDFFF9D
:102C600020EE08F01850D9261950DA225ACFDFFF8B
:102C700020EE09F01850D9261950DA225BCFDFFF79
:102C800020EE0AF01850D9261950DA225CCFDFFF67
:102C900020EE0BF01850D9261950DA225DCFDFFF55
:102CA00020EE0EF01850D9261950DA220F0155AD3A
:102CB00002D0010E01D0000EDF6E20EE0DF0185094
:102CC000D9261950DA220F0155510F0BDF6E20EE75
:102CD0000CF01850D9261950DA220F0152A702D051
:102CE000010E01D0000EDF6E0F0152B744D051CF5C
:102CF0001AF01B6A1C6A1D6A030ED8901A361B361E
:102D00001C361D36E82EF9D718C0D9FF19C0DAFFD6
:102D10001AC0DEFF1BC0DEFF1CC0DEFF1DC0DEFFD1
:102D20000F015239E842070B070B236E18C0D9FF79
:102D300019C0DAFFDECF1AF0DECF1BF0DECF1CF0B9
:102D4000DECF1DF023501A241E6E000E1B201F6EB6
:102D5000000E1C20206E000E1D20216E18C0D9FF11
:102D600019C0DAFF1EC0DEFF1FC0DEFF20C0DEFF7D
:102D700021C0DEFF8DD054CF1AF01B6A1C6A1D6A79
:102D800018C0D9FF19C0DAFF1AC0DEFF1BC0DEFF72
:102D90001CC0DEFF1DC0DEFF53CF1AF01B6A1C6A89
:102DA0001D6A1CC01DF01BC01CF01AC01BF01A6A63
:102DB00018C0D9FF19C0DAFF1A50DE261B50DE22D8
:102DC0001C50DE221D50DE220F0152A10CD018C073
:102DD000D9FF19C0DAFF000EDE12000EDE12010E5E
:102DE000DE12000EDE120F0152A30CD018C0D9FF64
:102DF00019C0DAFF000EDE12000EDE12020EDE1225
:102E0000000EDE120F0152AB0CD018C0D9FF19C052
:102E1000DAFF000EDE12000EDE12040EDE12000ECD
:102E2000DE120F0152AD0CD018C0D9FF19C0DAFF65
:102E3000000EDE12000EDE12080EDE12000EDE1292
:102E40000F0152AF0CD018C0D9FF19C0DAFF000E25
:102E5000DE12000EDE12100EDE12000EDE1251CF58
:102E60001AF01B6A1C6A1D6A150ED8901A361B369A
:102E70001C361D36E82EF9D718C0D9FF19C0DAFF65
:102E80001A50DE121B50DE121C50DE121D50DE12D4
:102E90000F01509F120060AE120018C0D9FF19C078
:102EA000DAFFDE6ADE6ADE6ADD6A20EE04F01850C0
:102EB000D9261950DA2266CFDFFF20EE05F0185030
:102EC000D9261950DA2267CFDFFF20EE06F018501E
:102ED000D9261950DA2268CFDFFF20EE07F018500C
:102EE000D9261950DA2269CFDFFF20EE08F01850FA
:102EF000D9261950DA226ACFDFFF20EE09F01850E8
:102F0000D9261950DA226BCFDFFF20EE0AF01850D5
:102F1000D9261950DA226CCFDFFF20EE0BF01850C3
:102F2000D9261950DA226DCFDFFF20EE0EF01850AF
:102F3000D9261950DA2265AC02D0010E01D0000E5C
:102F4000DF6E20EE0DF01850D9261950DA226550A8
:102F50000F0BDF6E20EE0CF01850D9261950DA2234
:102F600062A602D0010E01D0000EDF6E62B643D021
:102F700061CF1AF01B6A1C6A1D6A030ED8901A36BC
:102F80001B361C361D36E82EF9D718C0D9FF19C0DC
:102F9000DAFF1AC0DEFF1BC0DEFF1CC0DEFF1DC053
:102FA000DEFF6238E842070B070B236E18C0D9FF1B
:102FB00019C0DAFFDECF1AF0DECF1BF0DECF1CF037
:102FC000DECF1DF023501A241E6E000E1B201F6E34
:102FD000000E1C20206E000E1D20216E18C0D9FF8F
:102FE00019C0DAFF1EC0DEFF1FC0DEFF20C0DEFFFB
:102FF00021C0DEFF88D064CF1AF01B6A1C6A1D6AEC
:1030000018C0D9FF19C0DAFF1AC0DEFF1BC0DEFFEF
:103010001CC0DEFF1DC0DEFF63CF1AF01B6A1C6AF6
:103020001D6A1CC01DF01BC01CF01AC01BF01A6AE0
:1030300018C0D9FF19C0DAFF1A50DE261B50DE2255
:103040001C50DE221D50DE2262A00CD018C0D9FF19
:1030500019C0DAFF000EDE12000EDE12010EDE12C3
:10306000000EDE1262A20CD018C0D9FF19C0DAFF20
:10307000000EDE12000EDE12020EDE12000EDE1256
:1030800062AA0CD018C0D9FF19C0DAFF000EDE12F8
:10309000000EDE12040EDE12000EDE1262AC0CD048
:1030A00018C0D9FF19C0DAFF000EDE12000EDE12C2
:1030B000080EDE12000EDE1262AE0CD018C0D9FF70
:1030C00019C0DAFF000EDE12000EDE12100EDE1244
:1030D000000EDE1261CF1AF01B6A1C6A1D6A150E03
:1030E000D8901A361B361C361D36E82EF9D718C074
:1030F000D9FF19C0DAFF1A50DE121B50DE121C5025
:10310000DE121D50DE12609E12000001AC51800BD9
:103110000001B96F0001AC51AC250001BB6F00018B
:10312000ABAF02D00001BB810001BB510001D8B49C
:1031300012D00001BB29D8A409D0000E0001A96F4C
:10314000000EAA6F000EAB6F000EAC6F0001AB8FCC
:10315000000E000108D0000E0001A96F000EAA6F3A
:10316000000EAB6F000EAC6F0001B051800B000180
:10317000BA6F0001B9510001BA19D8B402D00001E8
:10318000B98D0001B051B0250001BA6F0001AFAF99
:1031900002D00001BA810001BA510001D8B412D0A6
:1031A0000001BA29D8A409D0000E0001AD6F000EAD
:1031B000AE6F000EAF6F000EB06F0001AF8F000E4C
:1031C000000108D0000E0001AD6F000EAE6F000EC2
:1031D000AF6F000EB06F0001BB510001BA5DD8B0F7
:1031E00024D00001B9AD03D0800E0001B91BBBC0D3
:1031F000BCF0BAC0BBF0BCC0BAF0A9C0BCF0ADC056
:10320000A9F0BCC0ADF0AAC0BCF0AEC0AAF0BCC072
:10321000AEF0ABC0BCF0AFC0ABF0BCC0AFF0ACC068
:10322000BCF0B0C0ACF0BCC0B0F0000E0001BC6F90
:103230000001BB510001B16FB26B0001B11FB21FA1
:10324000B14BB22B0001BA510001B36FB46B000156
:10325000B1510001B3270001B2510001B4230001B4
:10326000B4BF3DD00001B45105E11A0E0001B35DB9
:10327000D8A035D00001A9510001AA110001AB115D
:103280000001AC11D8B402D0010E01D0000E000133
:10329000BC6F000E0001A96F000EAA6F000EAB6F8D
:1032A000000EAC6FBAC0BBF020D00001BCA107D0AB
:1032B0000001D890BC3101090001BC6F03D00001AE
:1032C000D890BC330001A9A102D00001BC8F00013D
:1032D000AC35AC33AB33AA33A9330001BB2B0001AF
:1032E000BA510001BB5DD8A0E0D70001B9BD3FD005
:1032F0000001BB510001D8A40AD0000E0001A96F43
:10330000000EAA6F000EAB6F000EAC6F1200000132
:10331000AD510001A9270001AE510001AA2300010F
:10332000AF510001AB230001B0510001AC230001FB
:10333000ACA1CCD00001BCA109D00001D890BC3315
:103340000001BC5101090001BC6F03D00001D890FD
:10335000BC330001A9A102D00001BC8F0001AC3533
:10336000AC33AB33AA33A9330001BB2BAFD0000180
:10337000AD510001A95D0001AE510001AA59000143
:10338000AF510001AB590001AC51800A0001B16F8F
:103390000001B051800A0001B159D8B050D0A9C085
:1033A000B1F0AAC0B2F0ABC0B3F0ACC0B4F0000151
:1033B000B11FB21FB31FB41FB12B000EB223B32332
:1033C000B4230001AD510001B1250001B56F00012A
:1033D000AE510001B2210001B66F0001AF510001F2
:1033E000B3210001B76F0001B0510001B421000109
:1033F000B86FFF0E0001B5250001A96FFF0E000197
:10340000B6210001AA6FFF0E0001B7210001AB6FCA
:10341000FF0E0001B8210001AC6F800E0001B91B46
:103420000001BC6D0001BC510001D8A418D0010EF0
:103430000001A927000EAA23AB23AC2310D0000162
:10344000AD510001A95F0001AE510001AA5B00016E
:10345000AF510001AB5B0001B0510001AC5B00015A
:10346000A9510001AA110001AB110001AC11D8A4AF
:103470002AD00001BC510001D8A425D0000E0001C3
:10348000A96F000EAA6F000EAB6F000EAC6F12009A
:103490000001D890A937AA37AB37AC370001BCAFD1
:1034A00002D00001A9810001BCA103D0D880000195
:1034B00002D00001D890BC370001BB510001D8B444
:1034C00002D00001BB070001ABAFE2D7000E000144
:1034D000BA6F0001BCAF0DD0BCC0B1F07F0E0001CF
:1034E000B117D8A403D00001A9A103D0010E000197
:1034F000BA6F0001BA510001D8B426D0010E000104
:10350000A927000EAA23AB23AC230001ACA11CD039
:10351000A9C0B1F0AAC0B2F0ABC0B3F0ACC0B4F077
:103520000001B435B433B333B233B133B1C0A9F011
:10353000B2C0AAF0B3C0ABF0B4C0ACF00001BB297C
:10354000D8B402D00001BB2B0001BB29D8B405D0F0
:103550000001BB510001D8A411D0000E0001A96FD9
:10356000000EAA6F000EAB6F000EAC6F0001BB51D6
:103570000001D8A403D0000E0001B96F0001BBA167
:1035800003D00001AB8F02D00001AB9F0001D890A7
:10359000BB310001AC6F0001B9AF02D00001AC8FAC
:1035A000A9C0A9F0AAC0AAF0ABC0ABF0ACC0ACF007
:1035B000120000019351800B00019C6F0001935198
:1035C00093250001A26F000192AF02D00001A281F9
:1035D0000001A2510001D8B410D00001A229D8A442
:1035E00009D0000E0001906F000E916F000E926FD7
:1035F000000E936F0001928F09D0000E0001906FB2
:10360000000E916F000E926F000E936F00019751A4
:10361000800B00019C1B00019751972500019D6FB5
:10362000000196AF02D000019D8100019D51000173
:10363000D8B410D000019D29D8A409D0000E0001F3
:10364000946F000E956F000E966F000E976F00013D
:10365000968F09D0000E0001946F000E956F000E3A
:10366000966F000E976F00019D510001D8B405D0F0
:103670000001A2510001D8A40AD0000E0001906FF1
:10368000000E916F000E926F000E936F12000001FA
:10369000965100019003F3CFA7F0F4CFA8F00001FA
:1036A000A75100019E6F9F6BA06BA16B0001A851F9
:1036B0000001A36FA46BA56BA66B000195510001DF
:1036C0009103F3CFA7F0F4CFA8F00001A7510001B8
:1036D0009E27000E9F23A023A1230001A8510001D3
:1036E000A327000EA423A523A623000194510001C3
:1036F0009203F3CFA7F0F4CFA8F00001A751000187
:103700009E27000E9F23A023A1230001A8510001A2
:10371000A327000EA423A523A623A0C0A1F09FC029
:10372000A0F09EC09FF000019E6B0001945100012B
:103730009103F3CFA7F0F4CFA8F00001A751000147
:103740009E270001A85100019F23000E0001A02325
:10375000000E0001A1230001955100019003F3CF59
:10376000A7F0F4CFA8F00001A75100019E270001A7
:10377000A85100019F23000E0001A023000E0001AC
:10378000A123A0C0A1F09FC0A0F09EC09FF00001A7
:103790009E6B0001945100019003F3CFA7F0F4CF8A
:1037A000A8F00001A75100019E270001A8510001C7
:1037B0009F23000E0001A023000E0001A1230001A1
:1037C000965100019103F3CFA7F0F4CFA8F00001C8
:1037D000A7510001A3270001A8510001A423000E56
:1037E0000001A523000E0001A62300019551000150
:1037F0009203F3CFA7F0F4CFA8F00001A751000186
:10380000A3270001A8510001A423000E0001A52355
:10381000000E0001A6230001965100019203F3CF90
:10382000A7F0F4CFA8F00001A7510001986F0001A4
:10383000A8510001996F00019A6B00019B6B9AC01F
:103840009BF099C09AF098C099F00001986B000124
:1038500098510001A327000199510001A423000100
:103860009A510001A52300019B510001A6239EC08F
:1038700098F09FC099F0A0C09AF0A1C09BF0190EDB
:1038800006D00001D8909B339A3399339833E82EB1
:10389000F8D7000198510001A327000199510001B8
:1038A000A42300019A510001A52300019B510001AE
:1038B000A623A0C0A1F09FC0A0F09EC09FF0000171
:1038C0009E6B00019D51A2C098F00001996B000110
:1038D0009827000E9923820E000198250001A76FFA
:1038E000FF0E000199210001A86F15D00001D890AA
:1038F000A337A437A537A6370001A1AF02D0000136
:10390000A3810001D8909E379F37A037A1370001CF
:10391000A707D8A0A8070001A5AFE8D7000E0001AF
:103920009D6F0001A1AF24D0FF0E00019E15000184
:10393000986FFF0E00019F150001996FFF0E0001A7
:10394000A01500019A6F7F0E0001A11500019B6F69
:10395000000198510001991100019A1100019B1179
:10396000D8A403D00001A3A103D0010E00019D6FD4
:1039700000019D510001D8B423D0010E0001A327FE
:10398000000EA423A523A6230001A6A119D0A3C03D
:1039900098F0A4C099F0A5C09AF0A6C09BF00001D1
:1039A0009B359B339A339933983398C0A3F099C0D1
:1039B000A4F09AC0A5F09BC0A6F00001A74BA82BCD
:1039C0000001A8BF10D00001A85104E10001A729FF
:1039D000D8A009D0000E0001A36F000EA46F800EC6
:1039E000A56F7F0E2BD00001A8BF07D00001A85102
:1039F00011E10001A705D8B00DD0000E0001A36FA2
:103A0000000EA46F000EA56F000EA66F000E000141
:103A10009C6F15D0A7C0A2F0FF0E0001A317FF0EE8
:103A2000A4177F0EA517000EA6170001A2A102D0B1
:103A30000001A58F0001D890A2310001A66F0001FE
:103A40009C510001A613A3C090F0A4C091F0A5C0A2
:103A500092F0A6C093F012004594000E01017B6F16
:103A60001DEC28F03ED0000E00017E6FC80E7D6F69
:103A7000DFEC32F081AC02D0010E01D0000EFF0A63
:103A80000101EC6F0101EC3BEC47EC478150010177
:103A9000EC19BF0BEC19816E1DEC28F01E0E010114
:103AA0007B6503D0000E01017B6F25EC33F000092C
:103AB000D8B4FBD70E0E0001776F000E786F000EA2
:103AC000796F000E7A6F7B0E00017B6F010E000193
:103AD0007C6F080E00017D6FBC0E00017E6F2CEC28
:103AE0000CF045B281AA02D045B0BDD781BA45A03D
:103AF0002FD0819C020E01016B6F0B0E0001776FBE
:103B0000000E786F000E796F000E7A6F6B0E000159
:103B10007B6F010E00017C6F010E00017D6FBC0EFA
:103B200000017E6F2CEC0CF013D046B011D0000ECB
:103B300001015B6F000E5A6F5A0E01018B6F000E70
:103B40000101736F010E0101746F94EC2FF0468038
:103B500046AA45A0C2D1E9D78A8828502A24010163
:103B6000EC6F29502B200101ED6FD8900101ED3150
:103B70000101EF6F0101EC310101EE6FEEC1CBF0FD
:103B8000EFC1CCF00001CD6BCE6B000E7BEC2AF0C8
:103B9000CBC034F1CCC035F1CDC036F1CEC037F159
:103BA0003AEC13F0000E01015B6F000E5A6F5A0ED3
:103BB00001018B6F000E0101736F010E0101746F23
:103BC00094EC2FF0010E0FEC33F0030E0101736F34
:103BD000010E0101746F030E01015B6F200E5A6F1D
:103BE00045965A0E01018B6F000E0001AD6F000E5D
:103BF000AE6F700EAF6F410EB06F38C1A9F039C112
:103C0000AAF03AC1ABF03BC1ACF085EC18F0A9C00A
:103C1000BDF0AAC0BEF0ABC0BFF0ACC0C0F0A8EC15
:103C200032F0BDC000F2BEC001F2BFC002F2C0C09F
:103C300003F228C1ADF029C1AEF02AC1AFF02BC10B
:103C4000B0F000C2A9F001C2AAF002C2ABF003C2F8
:103C5000ACF085EC18F0A9C004F2AAC005F2ABC024
:103C600006F2ACC007F2000E0001AD6F000EAE6FA1
:103C7000820EAF6F420EB06F04C2A9F005C2AAF067
:103C800006C2ABF007C2ACF085EC18F0A9C0C1F0D9
:103C9000AAC0C2F0ABC0C3F0ACC0C4F00EEC2FF0B1
:103CA0000001C1510101936F45820D0E0001776F34
:103CB000000E786F000E796F000E7A6F930E000180
:103CC0007B6F010E00017C6F080E00017D6FBC0E42
:103CD00000017E6F2CEC0CF094EC2FF045B2FED777
:103CE000000E01015B6F000E5A6F5A0E01018B6FBF
:103CF000000E0101736F010E0101746F94EC2FF03F
:103D0000010E0FEC33F0030E0101736F010E010180
:103D1000746F030E01015B6FE80E5A6F4596B40E87
:103D200001018B6F40C1C1F041C1C2F042C1C3F07B
:103D300043C1C4F00EEC2FF00001C1510101936F9B
:103D400045820D0E0001776F000E786F000E796FBF
:103D5000000E7A6F930E00017B6F010E00017C6FE5
:103D6000080E00017D6FBC0E00017E6F2CEC0CF084
:103D700094EC2FF045B2FED7030E01015B6FE80E05
:103D80005A6F000E01018B6F4582000E0001AD6F6E
:103D9000000EAE6F100EAF6F410EB06F40C1A9F0B4
:103DA00041C1AAF042C1ABF043C1ACF085EC18F0C0
:103DB000A9C0C1F0AAC0C2F0ABC0C3F0ACC0C4F08F
:103DC0000EEC2FF00001C1510101936F0D0E0001A7
:103DD000776F000E786F000E796F000E7A6F930E7A
:103DE00000017B6F010E00017C6F080E00017D6FEA
:103DF000BC0E00017E6F2CEC0CF094EC2FF045B261
:103E0000FED7000E0101736F010E0101746F000EE9
:103E100001015B6F000E5A6F5A0E01018B6F94EC1B
:103E20002FF0010E0FEC33F045842D5004E1150EF8
:103E30002C5CD8A017D0030E0101736F010E010195
:103E4000746F010E01015B6FF40E5A6F5A0E01017F
:103E50008B6F458694EC2FF02D50FEE1150E2C5CF7
:103E6000D8B0FAD7000E0101736F010E0101746F13
:103E7000000E01015B6F000E5A6F5A0E01018B6F2D
:103E8000459694EC2FF0010E0FEC33F0030E010178
:103E90006B6F25EC33F00009D8B4FBD70B0E000193
:103EA000776F000E786F000E796F000E7A6F6B0ED1
:103EB00000017B6F010E00017C6F080E00017D6F19
:103EC000BC0E00017E6F2CEC0CF0000E00017E6F2A
:103ED000640E7D6FDFEC32F0FF0081AA120045A076
:103EE000120046AA120038D60001C451800B00010E
:103EF000C96F0001C451C4250001CF6F0001C3AFD9
:103F000002D00001CF81CFC0D4F00001D56BFF0EED
:103F10000001C1150001DA6FFF0E0001C21500019A
:103F2000DB6F7F0E0001C3150001DC6F000E000186
:103F3000C4150001DD6F0001D4510001D511D8B4C2
:103F400008D00001DC8F0001D4290001D511D8A4CC
:103F500009D0000E0001DA6F000EDB6F000EDC6F7F
:103F6000000EDD6F0001D4510001D511D8A40AD094
:103F7000000E0001C16F000EC26F000EC36F000E75
:103F8000C46F12000001C9510001D8B41CD0000E4A
:103F90000001D66F000ED76F400ED86F000ED96F9C
:103FA0000001800ED813FF0ED913000E0101536FCC
:103FB000210E526FD6C0C1F0D7C0C2F0D8C0C3F036
:103FC000D9C0C4F012000001D4290001D511D8A431
:103FD00012D0000E0001D66F000ED76F800ED86F82
:103FE0007F0ED96FD6C0C1F0D7C0C2F0D8C0C3F021
:103FF000D9C0C4F012000001810ED427FF0ED523D2
:104000000001D451010B0001CF6F0001D535D5332C
:10401000D4337F0E0001D427000ED523D8900001A1
:10402000DA350001CB6F0001DB350001CC6F0001F8
:10403000DC350001CD6F0001DD350001CE6F000ED3
:104040000001DA6F000EDB6F000EDC6F000EDD6F1B
:10405000000E0001D06F000ED16F000ED26F010E66
:10406000D36F0001CF510001D8B406D00001D89021
:10407000CB37CC37CD37CE37000E0001CA6F7ED09C
:104080000001D0510001DA130001D1510001DB130E
:104090000001D2510001DC130001D3510001DD13F6
:1040A0000001DA510001CB5D0001DB510001CC5968
:1040B0000001DC510001CD590001DD510001CE5954
:1040C000D8A021D00001DA510001CB5F0001DB5103
:1040D0000001CC5B0001DC510001CD5B0001DD5132
:1040E0000001CE5B0001D0510001DA270001D1515F
:1040F0000001DB230001D2510001DC230001D35178
:104100000001DD231DD0D0C0C5F0D1C0C6F0D2C0A3
:10411000C7F0D3C0C8F00001C51FC61FC71FC81F06
:104120000001C5510001DA170001C6510001DB177B
:104130000001C7510001DC170001C8510001DD1763
:10414000D0C0C5F0D1C0C6F0D2C0C7F0D3C0C8F04F
:104150000001D890C833C733C633C533C5C0D0F0CB
:10416000C6C0D1F0C7C0D2F0C8C0D3F00001D8900B
:10417000CB37CC37CD37CE370001CA2B180E000114
:10418000CA657ED7DAC0C5F0DBC0C6F0DCC0C7F0B8
:10419000DDC0C8F00001D890C833C733C633C5337B
:1041A000C5C0DAF0C6C0DBF0C7C0DCF0C8C0DDF0C7
:1041B000010E0001DA150001D06F000E0001DB15C1
:1041C0000001D16F000E0001DC150001D26F000E5E
:1041D0000001DD150001D36FDAC0C5F0DBC0C6F009
:1041E000DCC0C7F0DDC0C8F00001D890C833C733C9
:1041F000C633C533C5C0DAF0C6C0DBF0C7C0DCF0DB
:10420000C8C0DDF00001D0510001DA270001D15112
:104210000001DB230001D2510001DC230001D35156
:104220000001DD230001DDA119D0DAC0C5F0DBC03B
:10423000C6F0DCC0C7F0DDC0C8F00001D890C833BC
:10424000C733C633C533C5C0DAF0C6C0DBF0C7C05C
:10425000DCF0C8C0DDF00001D44BD52BFF0E00010F
:10426000DA150001D66FFF0E0001DB150001D76FD4
:104270007F0E0001DC150001D86F000E0001DD1576
:104280000001D96FD4C0CFF00001CFA102D000014E
:10429000D88F0001D890CF310001D96F0001D99F8C
:1042A000D6C0C1F0D7C0C2F0D8C0C3F0D9C0C4F0E6
:1042B000120000017A51800B0001836F00017A51D6
:1042C0007A2500018E6F000179AF02D000018E8146
:1042D00000018E510001D8B412D000018E29D8A45B
:1042E00009D0000E0001776F000E786F000E796F15
:1042F000000E7A6F0001798F000E000108D0000EC9
:104300000001776F000E786F000E796F000E7A6FE4
:1043100000017E51800B0001831B00017E517E2530
:1043200000018F6F00017DAF02D000018F8100017D
:104330008F510001D8B412D000018F29D8A409D020
:10434000000E00017B6F000E7C6F000E7D6F000E73
:104350007E6F00017D8F000E000108D0000E00016D
:104360007B6F000E7C6F000E7D6F000E7E6F000174
:104370007B5100017C1100017D1100017E11D8A448
:1043800017D0000E0001776F000E786F000E796F66
:10439000000E7A6F0001800E79137F0E7A1377C0BA
:1043A00077F078C078F079C079F07AC07AF01200AE
:1043B00000018E510001D8A412D0000E0001776FC9
:1043C000000E786F000E796F000E7A6F77C077F06D
:1043D00078C078F079C079F07AC07AF012000001E4
:1043E0008F5100017F6F806B00017F1F801F7F4B0B
:1043F000802B00018E510001816F826B00017F5183
:104400000001812700018051000182237F0E0001FD
:1044100081250001886F000E000182210001896F53
:1044200077C084F078C085F079C086F07AC087F0D4
:10443000000E0001776F000E786F000E796F000E8E
:104440007A6F000E00018A6F000E8B6F000E8C6F6A
:10445000000E8D6F000E00018F6F42D000018F5152
:104460000001D8B417D00001D8908437853786373B
:1044700087370001D8907737783779377A37000156
:104480008DAF02D0000177810001D8908A378B3739
:104490008C378D3700017B510001845D00017C5118
:1044A0000001855900017D510001865900017E51AE
:1044B00000018759D8A012D000018D8D00017B51D9
:1044C0000001845F00017C510001855B00017D518A
:1044D0000001865B00017E510001875B00018F2B8C
:1044E000190E00018F65BAD70001845100018511B2
:1044F0000001861100018711D8B418D000018A810B
:1045000015D00001D8907737783779377A3700019E
:104510008DAF02D0000177810001D8908A378B37A8
:104520008C378D3700018807D8A08907000179AF43
:10453000E8D7000E00018F6F00018DAF24D0FF0E71
:1045400000018A1500017F6FFF0E00018B1500012D
:10455000806FFF0E00018C150001816F7F0E00013E
:104560008D150001826F00017F5100018011000153
:10457000811100018211D8A403D0000177A103D0DA
:10458000010E00018F6F00018F510001D8B423D0BC
:10459000010E00017727000E782379237A2300018A
:1045A0007AA119D077C07FF078C080F079C081F00F
:1045B0007AC082F0000182358233813380337F33C9
:1045C0007FC077F080C078F081C079F082C07AF047
:1045D0000001884B892B000189BF14D0000189514B
:1045E00004E100018829D8A00DD0000E0001896FD8
:1045F0008869000E0001776F000E786F000E796FEA
:10460000000E7A6F000189BF07D00001895115E1C2
:1046100000018805D8B011D0000E0001896F000E8E
:10462000886F000E0001776F000E786F000E796FB3
:10463000000E7A6F000E0001836F88C08EF00001BB
:104640008EA103D00001798F02D00001799F000173
:10465000D8908E3100017A6F0001835100017A13E6
:1046600077C077F078C078F079C079F07AC07AF0C6
:1046700012000001806F00018005D8A456D000010F
:104680007B29D8A452D077C07CF078C07DF079C067
:104690007EF07AC07FF0040E06D00001D8907F3300
:1046A0007E337D337C33E82EF8D77CC081F07DC02B
:1046B00082F07EC083F07FC084F000018151000150
:1046C000816F826B836B846B81C018FF070E0001C2
:1046D00077150001816F000E000178150001826FCF
:1046E000000E000179150001836F000E00017A159C
:1046F0000001846F81C07CF082C07DF083C07EF0B9
:1047000084C07FF0050ED89000017C377D377E375E
:104710007F37E82EF8D77CC081F07DC082F07EC064
:1047200083F07FC084F081C019FF020E0001801960
:10473000D8A456D000017B29D8A452D077C07CF0F1
:1047400078C07DF079C07EF07AC07FF0040E06D08C
:104750000001D8907F337E337D337C33E82EF8D749
:104760007CC081F07DC082F07EC083F07FC084F089
:10477000000181510001816F826B836B846B81C06A
:104780001CFF070E000177150001816F000E00016C
:1047900078150001826F000E000179150001836F0A
:1047A000000E00017A150001846F81C07CF082C088
:1047B0007DF083C07EF084C07FF0050ED8900001AC
:1047C0007C377D377E377F37E82EF8D77CC081F085
:1047D0007DC082F07EC083F07FC084F081C01DFF69
:1047E00000018005D8A487D0F70E00017B19D8A45A
:1047F00082D0000177510001816F826B836B846BE3
:1048000081C01BFF000E000177150001816FFF0EB4
:10481000000178150001826F000E0001791500017A
:10482000836F000E00017A150001846F81C07CF057
:1048300082C07DF083C07EF084C07FF07DC07CF0BC
:104840007EC07DF07FC07EF000017F6B7CC081F078
:104850007DC082F07EC083F07FC084F081C01AFFEB
:10486000000179A103D00F01198102D00F01199124
:10487000000179A303D00F01198302D00F0119930E
:10488000000179A503D00F01198B02D00F01199BEC
:10489000000179A703D00F01198D02D00F01199DD6
:1048A000000179A903D00F01198F02D00F01199FC0
:1048B00077C07CF078C07DF079C07EF07AC07FF060
:1048C000160E06D00001D8907F337E337D337C33C3
:1048D000E82EF8D77CC081F07DC082F07EC083F0E6
:1048E0007FC084F0000181510001816F826B836B76
:1048F000846B81C018FF020E00018019D8A4120039
:10490000F70E00017B19D8A41200000177510001B5
:10491000816F826B836B846B81C01FFF000E00016F
:1049200077150001816FFF0E000178150001826F7D
:10493000000E000179150001836F000E00017A1549
:104940000001846F81C07CF082C07DF083C07EF066
:1049500084C07FF07DC07CF07EC07DF07FC07EF0A3
:1049600000017F6B7CC081F07DC082F07EC083F04F
:104970007FC084F081C01EFF000179A103D00F0128
:104980001D8102D00F011D91000179A303D00F01F9
:104990001D8302D00F011D93000179A503D00F01E3
:1049A0001D8B02D00F011D9B000179A703D00F01C1
:1049B0001D8D02D00F011D9D000179A903D00F01AB
:1049C0001D8F02D00F011D9F77C07CF078C07DF055
:1049D00079C07EF07AC07FF0160E06D00001D89024
:1049E0007F337E337D337C33E82EF8D77CC081F073
:1049F0007DC082F07EC083F07FC084F000018151D1
:104A00000001816F826B836B846B81C01CFF12007D
:104A1000000E0101BB6F0101AEAF15D0ABC1BDF0FF
:104A2000ACC1BEF0ADC1BFF0AEC1C0F0A8EC32F079
:104A3000BDC0ABF1BEC0ACF1BFC0ADF1C0C0AEF106
:104A4000010E0101BB6FABC190F0ACC191F0ADC1E3
:104A500092F0AEC193F0830E0001946FF90E956F42
:104A6000220E966F3E0E976FD9EC1AF090C0ABF104
:104A700091C0ACF192C0ADF193C0AEF1ABC1A3F166
:104A8000ACC1A4F1ADC1A5F1AEC1A6F1ABC1D9F0E5
:104A9000ACC1DAF0ADC1DBF0AEC1DCF0F0EC2DF072
:104AA000D9C0A7F1DAC0A8F1DBC0A9F1DCC0AAF136
:104AB00065EC32F0A3C1ABF1A4C1ACF1A5C1ADF17D
:104AC000A6C1AEF1ABC190F0ACC191F0ADC192F016
:104AD000AEC193F0000E0001946F000E956F800E32
:104AE000966F400E976FD9EC1AF090C0ABF191C061
:104AF000ACF192C0ADF193C0AEF1000E0001C56FF4
:104B0000000EC66F000EC76F400EC86FABC1C9F074
:104B1000ACC1CAF0ADC1CBF0AEC1CCF028EC2DF0E9
:104B20000001D8B025D0ABC1A3F1ACC1A4F1ADC197
:104B3000A5F1AEC1A6F1000E0101A76F000EA86F8E
:104B4000000EA96F400EAA6F65EC32F0A3C1ABF165
:104B5000A4C1ACF1A5C1ADF1A6C1AEF10101BB513B
:104B60000101D8A402D0010E01D0000E0101BB6FDB
:104B7000000E0001C56F000EC66F800EC76F3F0E9E
:104B8000C86FABC1C9F0ACC1CAF0ADC1CBF0AEC10A
:104B9000CCF028EC2DF00001D8B025D0ABC1BDF091
:104BA000ACC1BEF0ADC1BFF0AEC1C0F0A8EC32F0F8
:104BB000BDC0A9F0BEC0AAF0BFC0ABF0C0C0ACF091
:104BC000000E0001AD6F000EAE6F000EAF6F400E15
:104BD000B06F85EC18F0A9C0ABF1AAC0ACF1ABC0C6
:104BE000ADF1ACC0AEF1ABC190F0ACC191F0ADC1D4
:104BF00092F0AEC193F0ABC194F0ACC195F0ADC1F1
:104C000096F0AEC197F0D9EC1AF090C0B7F191C010
:104C1000B8F192C0B9F193C0BAF1B7C1BDF0B8C153
:104C2000BEF0B9C1BFF0BAC1C0F0410E0001C16F02
:104C30000D0E0001C26F000E0001C46F030EC36FA2
:104C400082EC2EF0BDC0AFF1BEC0B0F1BFC0B1F17B
:104C5000C0C0B2F1AFC17BF0B0C17CF0B1C17DF09A
:104C6000B2C17EF0000E0001C46F040EC36F2D0EA2
:104C70000001C16F0D0E0001C26FB7C1BDF0B8C118
:104C8000BEF0B9C1BFF0BAC1C0F082EC2EF0BDC019
:104C900077F0BEC078F0BFC079F0C0C07AF059ECB0
:104CA00021F077C0B3F178C0B4F179C0B5F17AC022
:104CB000B6F1ABC190F0ACC191F0ADC192F0AEC114
:104CC00093F0B3C194F0B4C195F0B5C196F0B6C1FC
:104CD00097F0D9EC1AF090C0ABF191C0ACF192C052
:104CE000ADF193C0AEF10101BB510101D8B413D0B5
:104CF000ABC1BDF0ACC1BEF0ADC1BFF0AEC1C0F044
:104D0000A8EC32F0BDC0ABF1BEC0ACF1BFC0ADF19C
:104D1000C0C0AEF11200ABC1ABF1ACC1ACF1ADC1E2
:104D2000ADF1AEC1AEF11200000E0001C56F000E74
:104D3000C66F800EC76F3F0EC86FDEC0C1F0DFC008
:104D4000C2F0E0C0C3F0E1C0C4F089EC32F0C1C0F1
:104D5000C9F0C2C0CAF0C3C0CBF0C4C0CCF028ECCC
:104D60002DF00001D8B00FD0000E0101536F210EBD
:104D7000526F000E0001DE6F000EDF6F000EE06F5D
:104D8000000EE16F1200000E0101B46F000EB56F4E
:104D9000800EB66F3F0EB76FDEC094F0DFC095F0A7
:104DA000E0C096F0E1C097F0DEC090F0DFC091F077
:104DB000E0C092F0E1C093F0D9EC1AF090C0BDF0E1
:104DC00091C0BEF092C0BFF093C0C0F0A8EC32F02A
:104DD000BDC0A9F0BEC0AAF0BFC0ABF0C0C0ACF06F
:104DE000000E0001AD6F000EAE6F800EAF6F3F0E74
:104DF000B06F85EC18F0A9C0C1F0AAC0C2F0ABC07A
:104E0000C3F0ACC0C4F074EC1FF0C1C0C0F1C2C0AC
:104E1000C1F1C3C0C2F1C4C0C3F1DEC0C1F0DFC084
:104E2000C2F0E0C0C3F0E1C0C4F089EC32F0C1C010
:104E3000C5F0C2C0C6F0C3C0C7F0C4C0C8F08F0E72
:104E40000001C96FC20ECA6F350ECB6F3F0ECC6F1B
:104E500028EC2DF00001D8B02DD0DEC077F0DFC0F7
:104E600078F0E0C079F0E1C07AF0C0C17BF0C1C158
:104E70007CF0C2C17DF0C3C17EF059EC21F077C057
:104E8000C4F178C0C5F179C0C6F17AC0C7F1C4C118
:104E9000D1F0C5C1D2F0C6C1D3F0C7C1D4F052EC35
:104EA00029F0D1C0DEF0D2C0DFF0D3C0E0F0D4C032
:104EB000E1F012000001E1AF6ED0DEC07BF0DFC098
:104EC0007CF0E0C07DF0E1C07EF0C0C1BDF0C1C1AA
:104ED000BEF0C2C1BFF0C3C1C0F0A8EC32F0BDC08B
:104EE00077F0BEC078F0BFC079F0C0C07AF059EC5E
:104EF00021F077C0C4F178C0C5F179C0C6F17AC09D
:104F0000C7F1C4C1D1F0C5C1D2F0C6C1D3F0C7C189
:104F1000D4F052EC29F0D1C0BCF1D2C0BDF1D3C065
:104F2000BEF1D4C0BFF1DB0E0001AD6F0F0EAE6F4E
:104F3000C90EAF6F3F0EB06FBCC1BDF0BDC1BEF0BA
:104F4000BEC1BFF0BFC1C0F0A8EC32F0BDC0A9F037
:104F5000BEC0AAF0BFC0ABF0C0C0ACF085EC18F08A
:104F6000A9C0B8F1AAC0B9F1ABC0BAF1ACC0BBF1ED
:104F7000B8C1BDF0B9C1BEF0BAC1BFF0BBC1C0F08D
:104F8000A8EC32F0BDC0DEF0BEC0DFF0BFC0E0F084
:104F9000C0C0E1F01200DEC07BF0DFC07CF0E0C0FA
:104FA0007DF0E1C07EF0C0C177F0C1C178F0C2C130
:104FB00079F0C3C17AF059EC21F077C0C4F178C020
:104FC000C5F179C0C6F17AC0C7F1C4C1D1F0C5C17D
:104FD000D2F0C6C1D3F0C7C1D4F052EC29F0D1C091
:104FE000BCF1D2C0BDF1D3C0BEF1D4C0BFF1BCC1D1
:104FF000BDF0BDC1BEF0BEC1BFF0BFC1C0F0A8ECE6
:1050000032F0BDC0A9F0BEC0AAF0BFC0ABF0C0C0B6
:10501000ACF0DB0E0001AD6F0F0EAE6FC90EAF6FBF
:105020003F0EB06F85EC18F0A9C0DEF0AAC0DFF02B
:10503000ABC0E0F0ACC0E1F0120020EE2AF0DECF11
:10504000E2F0DDCFE3F00001E21FE31FE24BE32BD0
:1050500028500001E2250001776F29500001E3216B
:105060000001786FF9EC32F0000177C0CBF000015D
:1050700078C0CCF00001000ECCBFFF0ECD6FCE6F1C
:10508000010E7BEC2AF0CBC0E5F0CCC0E6F0CDC041
:10509000E7F0CEC0E8F0E5C0C5F0E6C0C6F0E7C076
:1050A000C7F0E8C0C8F0000E0001C96F000ECA6F5B
:1050B000F00ECB6F410ECC6F28EC2DF00001D8B074
:1050C000EBD0295003E11E0E285CD8B012002B5003
:1050D00003E11E0E2A5CD8B01200E5C094F0E6C0D1
:1050E00095F0E7C096F0E8C097F0E5C090F0E6C014
:1050F00091F0E7C092F0E8C093F0D9EC1AF090C0BC
:10510000A9F091C0AAF092C0ABF093C0ACF0000E31
:105110000001AD6F000EAE6FC80EAF6F420EB06FE4
:1051200085EC18F0A9C044F1AAC045F1ABC046F126
:10513000ACC047F144C1C1F045C1C2F046C1C3F0A3
:1051400047C1C4F074EC1FF0C1C044F1C2C045F1C6
:10515000C3C046F1C4C047F1E5C077F0E6C078F0BF
:10516000E7C079F0E8C07AF044C17BF045C17CF03B
:1051700046C17DF047C17EF059EC21F077C048F17F
:1051800078C049F179C04AF17AC04BF148C1DEF0EC
:1051900049C1DFF04AC1E0F04BC1E1F094EC26F0E8
:1051A000DEC048F1DFC049F1E0C04AF1E1C04BF197
:1051B000DB0E00017B6F0F0E7C6F490E7D6F400E82
:1051C0007E6F48C177F049C178F04AC179F04BC190
:1051D0007AF059EC21F077C090F078C091F079C066
:1051E00092F07AC093F0000E0001946F000E956F5C
:1051F000340E966F430E976FD9EC1AF090C048F1B9
:1052000091C049F192C04AF193C04BF148C1C1F03D
:1052100049C1C2F04AC1C3F04BC1C4F00EEC2FF03B
:105220000001C15101017B6F2A50285C2B50295885
:10523000D8B002D0000E01D0010E01017C6F000138
:10524000E55101013C1917E10001E65101013D1949
:1052500012E10001E75101013E190DE10001E851A1
:1052600001013F19D8A407D0000E46B4010E010178
:105270007C19D8B41200E5C03CF1E6C03DF1E7C0AE
:105280003EF1E8C03FF101017CA102D0468401D08B
:10529000469494EC2FF01200000E01017B6F94EC09
:1052A0002FF01200D1C0C1F0D2C0C2F0D3C0C3F001
:1052B000D4C0C4F089EC32F0C1C0B0F1C2C0B1F1C9
:1052C000C3C0B2F1C4C0B3F10101B0510101B111C9
:1052D0000101B2110101B311D8A40AD0000E0001DE
:1052E000D16F000ED26F000ED36F000ED46F12007C
:1052F000000E0001C56F000EC66F800EC76F3F0E17
:10530000C86FB0C1C9F0B1C1CAF0B2C1CBF0B3C16E
:10531000CCF028EC2DF00001D8B002D0010E01D065
:10532000000E0101AB6F0101AB51D8B41BD0000ED0
:105330000001776F000E786F800E796F3F0E7A6FE5
:10534000B0C17BF0B1C17CF0B2C17DF0B3C17EF0E1
:1053500059EC21F077C0B0F178C0B1F179C0B2F169
:105360007AC0B3F1B0C190F0B1C191F0B2C192F086
:10537000B3C193F0B0C194F0B1C195F0B2C196F051
:10538000B3C197F0D9EC1AF090C0ACF191C0ADF177
:1053900092C0AEF193C0AFF1ACC1BDF0ADC1BEF0F3
:1053A000AEC1BFF0AFC1C0F0190E0001C16F0D0E4C
:1053B0000001C26F000E0001C46F040EC36F82ECC7
:1053C0002EF0BDC0A3F1BEC0A4F1BFC0A5F1C0C006
:1053D000A6F1ACC1BDF0ADC1BEF0AEC1BFF0AFC172
:1053E000C0F0010E0001C16F0D0E0001C26F000E72
:1053F0000001C46F050EC36F82EC2EF0BDC0A7F193
:10540000BEC0A8F1BFC0A9F1C0C0AAF1B0C190F060
:10541000B1C191F0B2C192F0B3C193F0A3C17BF0DE
:10542000A4C17CF0A5C17DF0A6C17EF0A7C177F034
:10543000A8C178F0A9C179F0AAC17AF059EC21F09D
:1054400077C094F078C095F079C096F07AC097F064
:10545000D9EC1AF090C0B0F191C0B1F192C0B2F1A4
:1054600093C0B3F10101AB510101D8B425D0B0C153
:10547000BDF0B1C1BEF0B2C1BFF0B3C1C0F0A8EC85
:1054800032F0BDC0A9F0BEC0AAF0BFC0ABF0C0C032
:10549000ACF0DB0E0001AD6F0F0EAE6FC90EAF6F3B
:1054A0003F0EB06F85EC18F0A9C0B0F1AAC0B1F101
:1054B000ABC0B2F1ACC0B3F10001D4BF09D0B0C1F0
:1054C000D1F0B1C1D2F0B2C1D3F0B3C1D4F0120067
:1054D000B0C1BDF0B1C1BEF0B2C1BFF0B3C1C0F048
:1054E000A8EC32F0BDC0D1F0BEC0D2F0BFC0D3F046
:1054F000C0C0D4F012000001D36F0001D3510001ED
:10550000D8B41ED00001CEAF1BD0CBC0CFF0CCC0E2
:10551000D0F0CDC0D1F0CEC0D2F00001CF1FD01F4F
:10552000D11FD21FCF2B000ED023D123D223CFC027
:10553000D5F0D0C0D6F0D1C0D7F0D2C0D8F008D0C6
:10554000CBC0D5F0CCC0D6F0CDC0D7F0CEC0D8F00F
:105550000001CB510001CC110001CD110001CE1191
:10556000D8A40AD0000E0001CB6F000ECC6F000E45
:10557000CD6F000ECE6F1200960E0001D46F08D0D2
:105580000001D42B0001D890D833D733D633D5338C
:10559000000E0001D5150001CF6F000E0001D615D9
:1055A0000001D06F000E0001D7150001D16FFE0E73
:1055B0000001D8150001D26F0001CF510001D011B8
:1055C0000001D1110001D211D8B410D0D9D70001F7
:1055D000D42B010E0001D527000ED623D723D823C4
:1055E0000001D890D833D733D633D533000E00011D
:1055F000D5150001CF6F000E0001D6150001D06F48
:10560000000E0001D7150001D16FFF0E0001D81563
:105610000001D26F0001CF510001D0110001D11162
:105620000001D211D8B409D0D2D70001D4070001AB
:10563000D890D537D637D737D8370001D7BF04D061
:10564000020E0001D461F1D70001D4B109D0FF0EE0
:105650000001D517FF0ED6177F0ED717FF0ED817EC
:105660000001D890D433D4C0CFF00001D06BD16BFF
:10567000D26BCFC0D2F00001D16BD06BCF6B0001E9
:10568000CF510001D5130001D0510001D613000104
:10569000D1510001D7130001D2510001D8130001EC
:1056A000D3510001D8B405D00001CEAF02D0000123
:1056B000D88FD5C0CBF0D6C0CCF0D7C0CDF0D8C0F5
:1056C000CEF01200DDD01DEC28F0295004E1330E9D
:1056D000285CD8A02AD046B626D025EC33F00009A5
:1056E000D8B4FBD7080E0001776F000E786F000E5C
:1056F000796F000E7A6F6B0E00017B6F010E000157
:105700007C6F080E00017D6FFC0E00017E6F2CEC9B
:105710000CF04686000E0001E56F000EE66F000EED
:10572000E76F000EE86F8A882FD08A9820EE2AF063
:10573000DECFC8F1DDCFC9F10101C81FC91FC84BB9
:10574000C92B28500101C8250001776F295001019C
:10575000C9210001786FF9EC32F0000177C0CBF07D
:10576000000178C0CCF00001000ECCBFFF0ECD6F61
:10577000CE6F010E7BEC2AF0CBC0E5F0CCC0E6F09A
:10578000CDC0E7F0CEC0E8F0295028E1320E285C09
:10579000D8A046A623D02B5021E1320E2A5CD8B0E7
:1057A0001DD0469625EC33F00009D8B4FBD7070E80
:1057B0000001776F000E786F000E796F000E7A6F20
:1057C0006B0E00017B6F010E00017C6F080E000163
:1057D0007D6FFC0E00017E6F2CEC0CF045AA50D0C2
:1057E0000101515105E1420E0101505DD8A046D0A2
:1057F000818A010E01016B6F0B0E0001776F000EA5
:10580000786F000E796F000E7A6F6B0E00017B6F60
:10581000010E00017C6F010E00017D6FBC0E0001C6
:105820007E6F2CEC0CF046B82BD0295029E1280EC5
:10583000285CD8B025D0320E0101936F458225EC4B
:1058400033F00009D8B4FBD70D0E0001776F000EBE
:10585000786F000E796F000E7A6F930E00017B6FE8
:10586000010E00017C6F080E00017D6FBC0E00016F
:105870007E6F2CEC0CF0459C468802D0459A819AAC
:1058800045A0120081BA12001ED700018E6F800E53
:1058900046EC33F0000E706E000E716E000E726EEC
:1058A00000018741E842C00B0001876F000187516A
:1058B000701200018851701200018E5171120001A6
:1058C0008539E842F80B0001856F0001855171129E
:1058D000000189A5718C000189B1718E000186518A
:1058E0007212000189B3728C00018951600B606EE5
:1058F00000018951100BFF0AD8B4608460CF50FFBB
:10590000000E0001776F000E786F000E796F000EA9
:105910007A6FF70E00017B6F010E39EC23F0000E59
:105920000001776F000E786F000E796F000E7A6FAE
:10593000F70E00017B6F020E39EC23F00FD0F70E4B
:1059400000018F6F07D000018F690001906928D096
:1059500000018F69F70E0001906F22D09F0E0001A9
:105960008A6FFF0E00018B6F00018951600B0001EF
:105970008C6F8D6B00018A5100018C1300018B51DB
:1059800000018D1300018D51000AD8A4E1D7000158
:105990008C51BF0AD8B4D7D7600AD8B4D0D7D8D7DB
:1059A000000E0001776F000E786F000E796F000E09
:1059B0007A6F8FC07BF0000EA9EC06F0000E00019C
:1059C000776F000E786F000E796F000E7A6F8FC0C0
:1059D0007BF0010EA9EC06F0000E0001776F000EBF
:1059E000786F000E796F000E7A6F90C07BF0020E18
:1059F000A9EC06F0000E0001776F000E786F000E24
:105A0000796F000E7A6F90C07BF0030EA9EC06F060
:105A1000000E0001776F000E786F000E796F000E98
:105A20007A6F90C07BF0040EA9EC06F0000E000126
:105A3000776F000E786F000E796F000E7A6F90C04E
:105A40007BF0050EA9EC06F0000E46EC33F01200D8
:105A5000000E0001C5150001CD6F000E0001C61536
:105A60000001CE6F800E0001C7150001CF6F7F0EC1
:105A70000001C8150001D06F0001CD510001CE1109
:105A80000001CF110001D011D8A409D0000E0001EF
:105A9000C56F000EC66F000EC76F000EC86F000EF8
:105AA0000001C9150001CD6F000E0001CA150001EB
:105AB000CE6F800E0001CB150001CF6F7F0E00016D
:105AC000CC150001D06F0001CD510001CE110001B5
:105AD000CF110001D011D8A409D0000E0001C96F68
:105AE000000ECA6F000ECB6F000ECC6F0001C8AF66
:105AF00026D0C5C0CDF0C6C0CEF0C7C0CFF0C8C05C
:105B0000D0F00001CD1FCE1FCF1FD01FCD2B000E18
:105B1000CE23CF23D023000E0001CD250001C56F79
:105B2000000E0001CE210001C66F000E0001CF2142
:105B30000001C76F800E0001D0210001C86F000175
:105B4000CCAF26D0C9C0CDF0CAC0CEF0CBC0CFF00C
:105B5000CCC0D0F00001CD1FCE1FCF1FD01FCD2B4A
:105B6000000ECE23CF23D023000E0001CD2500014F
:105B7000C96F000E0001CE210001CA6F000E0001A6
:105B8000CF210001CB6F800E0001D0210001CC6F2E
:105B9000000E0001C51B000EC61B000EC71B800EA9
:105BA000C81B000E0001C91B000ECA1B000ECB1B38
:105BB000800ECC1B0001C9510001C55D0001CA5116
:105BC0000001C6590001CB510001C7590001CC5159
:105BD0000001C859D8B002D0D8901200D880120065
:105BE000D9C077F0DAC078F0DBC079F0DCC07AF0A9
:105BF000E10E00017B6F000E00017C6F57EC31F06D
:105C00000001E2AF17D00001DCAF0AD0000E0001A6
:105C1000D96F000EDA6F800EDB6FBF0EDC6F1200E3
:105C2000000E0001D96F000EDA6F000EDB6F000E60
:105C3000DC6F12000001E25105E11D0E0001E15D83
:105C4000D8A009D0D9C0D9F0DAC0DAF0DBC0DBF0D7
:105C5000DCC0DCF01200D9C0C1F0DAC0C2F0DBC099
:105C6000C3F0DCC0C4F00EEC2FF0C1C0CBF0C2C05A
:105C7000CCF0C3C0CDF0C4C0CEF0010E7BEC2AF056
:105C8000CBC0DDF0CCC0DEF0CDC0DFF0CEC0E0F0A8
:105C9000D9C0C5F0DAC0C6F0DBC0C7F0DCC0C8F0C0
:105CA000DDC0C9F0DEC0CAF0DFC0CBF0E0C0CCF090
:105CB00028EC2DF00001D8B01CD0DDC0A9F0DEC06A
:105CC000AAF0DFC0ABF0E0C0ACF0000E0001AD6F99
:105CD000000EAE6F800EAF6FBF0EB06F85EC18F088
:105CE000A9C0D9F0AAC0DAF0ABC0DBF0ACC0DCF0E0
:105CF0001200DDC0D9F0DEC0DAF0DFC0DBF0E0C0BA
:105D0000DCF01200C3C0C5F0C4C0C6F00001D890DA
:105D1000C537C6370001D890C537C637C1C0C7F0F0
:105D2000C2C0C8F00001C5510001C7270001C6511B
:105D30000001C823C7C0F6FFC8C0F7FF000EF86E09
:105D40000900F5CFC9F00900F5CFCAF00900F5CF79
:105D5000CBF00A00F5CFCCF052D0C9C094F0CAC045
:105D600095F0CBC096F0CCC097F0BDC090F0BEC00F
:105D700091F0BFC092F0C0C093F0D9EC1AF090C07F
:105D8000A9F091C0AAF092C0ABF093C0ACF00001B2
:105D9000C307D8A0C407C3C0C5F0C4C0C6F0000183
:105DA000D890C537C6370001D890C537C637C1C0AF
:105DB000C7F0C2C0C8F00001C5510001C7270001EB
:105DC000C6510001C823C7C0F6FFC8C0F7FF000EC8
:105DD000F86E0900F5CFADF00900F5CFAEF009007F
:105DE000F5CFAFF00A00F5CFB0F085EC18F0A9C000
:105DF000C9F0AAC0CAF0ABC0CBF0ACC0CCF0000177
:105E0000C3510001C411D8A4A8D7C9C0BDF0CAC0ED
:105E1000BEF0CBC0BFF0CCC0C0F012000001C33553
:105E2000C4350001CA6F0001CA51D8A40AD0000EBF
:105E30000001C16F000EC26F000EC36F000EC46F71
:105E40001200C1C0C5F0C2C0C6F0C3C0C7F0C4C014
:105E5000C8F0200E06D00001D890C833C733C6332F
:105E6000C533E82EF8D70001C5510001C96F000104
:105E7000C38FFF0E0001C117FF0EC217FF0EC3171D
:105E8000000EC417960E0001CA5F0001CAAF1AD0F7
:105E90000001CA51800A970FD8B00AD0000E000145
:105EA000C16F000EC26F000EC36F000EC46F1200F0
:105EB0000001D890C433C333C233C1330001CA3F99
:105EC000F7D71BD01F0E0001CA6512D0000E0001CB
:105ED000C16F000EC26F000EC36F000EC46F1200C0
:105EE0000001D890C137C237C337C4370001CA0791
:105EF0000001CA510001D8A4F3D70001C951000123
:105F0000D8B409D00001C41FC31FC21FC16D000E49
:105F1000C223C323C423C1C0C1F0C2C0C2F0C3C0E6
:105F2000C3F0C4C0C4F0120046AA63D025EC33F01D
:105F3000E806D8A4FBD7050E0001776F000E786F36
:105F4000000E796F000E7A6F8B0E00017B6F010ED1
:105F500000017C6F080E00017D6FBC0E00017E6F9A
:105F60002CEC0CF05AC183F101015B510101846FEB
:105F7000000E45B6010E0101856F25EC33F0E806F1
:105F8000D8A4FBD7030E0001776F000E786F000EC8
:105F9000796F000E7A6F830E00017B6F010E000196
:105FA0007C6F080E00017D6FBC0E00017E6F2CEC33
:105FB0000CF0000E0101746F25EC33F0E806D8A454
:105FC000FBD7040E0001776F000E786F000E796F1B
:105FD000000E7A6F730E00017B6F010E00017C6F63
:105FE000080E00017D6FBC0E00017E6F2CEC0CF0E2
:105FF000120025EC33F0E806D8A4FBD70E0E000102
:10600000776F000E786F000E796F000E7A6F7B0E3F
:1060100000017B6F010E00017C6F080E00017D6F97
:10602000BC0E00017E6F2CEC0CF01200DB0E0001A8
:10603000C56F0F0EC66F490EC76F400EC86FC8C13F
:10604000C9F0C9C1CAF0CAC1CBF0CBC1CCF028ECB1
:106050002DF00001D8B02ED0C8C1A9F0C9C1AAF056
:10606000CAC1ABF0CBC1ACF0E40E0001AD6FCB0EFA
:10607000AE6F960EAF6FC00EB06F85EC18F0A9C072
:10608000CCF1AAC0CDF1ABC0CEF1ACC0CFF1CCC148
:10609000ABF1CDC1ACF1CEC1ADF1CFC1AEF108ECE9
:1060A00025F0ABC1C8F1ACC1C9F1ADC1CAF1AEC1F7
:1060B000CBF11200C8C1A9F0C9C1AAF0CAC1ABF0A6
:1060C000CBC1ACF0DB0E0001AD6F0F0EAE6FC90E91
:1060D000AF6F3F0EB06F85EC18F0A9C0CCF1AAC02D
:1060E000CDF1ABC0CEF1ACC0CFF1CCC1ABF1CDC1E5
:1060F000ACF1CEC1ADF1CFC1AEF108EC25F0ABC132
:10610000C8F1ACC1C9F1ADC1CAF1AEC1CBF1120049
:10611000E9CF0CF0EACF0DF0E1CF0EF0E2CF0FF0B7
:10612000D9CF10F0DACF11F0F3CF12F0F4CF13F093
:10613000F6CF14F0F7CF15F0F8CF16F0F5CF17F033
:10614000F1AC07D0F19C000EB36E000EB26E459814
:106150002CD0B3CF41F0B2CF42F041C03EF03F6A05
:106160003E50086E42503E6E08C03FF0D8903F301F
:10617000086E3E300101566F08C057F156C101F05C
:1061800057C102F0000E046E3A0E036E3CEC32F082
:106190004050020D280EF324D96E000EF420DA6E62
:1061A00001C0DEFF02C0DDFFF18CF29217C0F5FFE7
:1061B00016C0F8FF15C0F7FF14C0F6FF13C0F4FFB8
:1061C00012C0F3FF11C0DAFF10C0D9FF0FC0E2FF09
:1061D0000EC0E1FF0DC0EAFF0CC0E9FF0BC0FBFFE2
:1061E0000AC0FAFF48921100000E0101006F010E73
:1061F0000101016F020E0101026F030E0101036F25
:10620000040E0101046F050E0101056F060E010168
:10621000066F070E0101076FA1EC31F08198819A9A
:10622000819C4696469A010E00017E6FF40E7D6FAA
:10623000DFEC32F033D0000E00017E6F640E7D6F14
:10624000DFEC32F025EC33F00009D8B4FBD781A89D
:1062500002D0010E01D0000EFF0A0001E46F000120
:10626000E43B81500001E419EF0BE419816E0F0E3D
:106270000001776F000E786F000E796F000E7A6F55
:106280009B0E00017B6F010E00017C6F080E000168
:106290007D6FFC0E00017E6F2CEC0CF045A0CBD77F
:1062A00062EC2BF0D7EC31F02CEC1DF0F7D70001AD
:1062B0007751000178110001791100017A11D8A4F9
:1062C00009D07BC0D9FF7CC0DAFF000EDE6E000E65
:1062D000DD6E120000017A517F0B00017D6F7E6B35
:1062E000D89000017D377E377BC0D9FF7CC0DAFFB4
:1062F0007DC0DEFF7EC0DDFF000179AF04D000016C
:106300007D6B7D2B02D000017D6B00017D517BC038
:10631000D9FF7CC0DAFFDE12000EDD127BC0D9FF90
:106320007CC0DAFF820EDE26FF0EDD2200017A81BC
:106330007A837A857A877A897A8B7A9D0001799F28
:106340001200000E896EF00E926E000E8A6E8A0E9A
:10635000936E000E8B6E9468C168060E0001856F07
:10636000050E0001866F010E0001876F030E00010C
:10637000886F9D0E0001896F040E45EC2CF0D08EC5
:10638000A592A590F194A492A490F292F294A38283
:10639000A380F28AF298800ED56E340ED76EE00E8E
:1063A000D66E110EB16EF18CF28CF28E120009C114
:1063B00054F10101556B010154510001776F010146
:1063C00008510101546F77C055F10BC158F101011B
:1063D000596B010158510001776F01010A51010108
:1063E000586F77C059F1010154510101582500013E
:1063F000776F01015551010159210001786FD89043
:10640000000178310001796F0001773101014C6F93
:1064100079C04DF1120001EE00F0A30EEE6AE8061D
:10642000FDE10001E86BE76BE66BE56B466A456AE8
:1064300000EE28F01D0EEE6AE806FDE1A20EF66EF3
:10644000660EF76E000EF86E01EEF0F010EE0AF038
:106450000900F5CFEEFFE550E150FAE1AC0EF66E23
:10646000660EF76E000EF86E0900F5CF47F0489003
:1064700048920001F4EF30F0000E066E000E056E3B
:1064800003500410D8B41CD0010E076E04D0D8906D
