:0400000096EF01F086
:10000800FACF69F0FBCF6AF0E9CF6BF07CEF2FF005
:10001800D8CF42F0E8CF43F0E0CF44F0FACF45F034
:10002800FBCF46F0E9CF47F0EACF48F0E1CF49F0FF
:10003800E2CF4AF0D9CF4BF0DACF4CF0F3CF4DF006
:10004800F4CF4EF0F6CF4FF0F7CF50F0F8CF51F095
:10005800F5CF52F0F2A4CCD0F298D59E340ED76EDC
:10006800E00ED66ED58E56AA0CD02150020D010E88
:10007800F324D96E000EF420DA6EB80EDE6E0B0E85
:10008800DD6E2150020D010EF324D96E000EF4200E
:10009800DA6E010EDB5018E1FA0EDE5CD8B014D02F
:1000A80057BC12D0030E2118D8B404D0060E21185C
:1000B800D8A40AD0030E2118D8A403D007C07CF115
:1000C80011D00DC07BF10ED0030E2118D8A403D097
:1000D80001017E6907D0060E2118D8A403D00101BA
:1000E800816900D02150020D010EF324D96E000E53
:1000F800F420DA6E010EDB5042E1050EDE5CD8B06A
:100108003ED057BC56B63BD02150D8A403D02104CA
:10011800D8B435D0242A2450D8B431D0000E0001E8
:10012800E66F000EE56F5A0E01016B6F000E266E2A
:10013800010E276E09EC2FF0000E356E640E346E3A
:1001480025EC32F0040E0101536F0D0E2E6E000ED9
:100158002F6E000E306E000E316E530E326E010E91
:10016800336E080E346EBC0E356EA9EC15F0000E19
:10017800356E1E0E346E25EC32F0FF0000D0212AB9
:1001880056B215D0E0C153F0E1C154F0567056A0F4
:1001980002D0010E01D0000E3E6E3F6A530E3E247F
:1001A800D96E000E3F20DA6EDF50216E00D0080EA7
:1001B8002118D8A402D0000E216E000E556E2150D1
:1001C800010D000EF324D96E010EF420DA6EDF5013
:1001D800556E55C080FF93908A80140EE82EFED786
:1001E800568A8A909380F292F18CF288F29400D029
:1001F800A4B002D0A4A273D0CAEC32F0E806D8A406
:100208006ED0440E2E6E010E2F6ED2EC1BF00F0E28
:10021800010144190101451101014611010147116C
:10022800D8A402D0569400D0090E01014419010146
:1002380045110101461101014711D8A42ED0010131
:100248005205D8B42AD0000E0001E46F000EE36F07
:1002580049C119F01A6A19503E6E01014851196EC8
:100268003EC01AF04BC11BF01C6A1B503E6E0101C8
:100278004A511B6E3EC01CF019501B243E6E1A508A
:100288001C203F6ED8903F30406E3E300001E36F37
:1002980040C0E4F0568C568E00D00C0E0101441973
:1002A800010145110101461101014711D8A409D0E6
:1002B80001014805D8A403D05682818C02D0FF00E2
:1002C80000D00E0E0101441901014511010146112A
:1002D80001014711D8B4578CA490A49200D052C001
:1002E800F5FF51C0F8FF50C0F7FF4FC0F6FF4EC0F2
:1002F800F4FF4DC0F3FF4CC0DAFF4BC0D9FF4AC032
:10030800E2FF49C0E1FF48C0EAFF47C0E9FF46C035
:10031800FBFF45C0FAFF44C0E0FF43C0E8FF42C00E
:08032800D8FF100031EF31F0A5
:100D000000063C04427D9F6A425C900142604DBBFC
:100D10004051EC473EDE8D1FBB063C0442C0598B60
:100D20004274044442F99B4F410000803FECF34A77
:100D300048359595C717C1DC45FDDB6DC372B333EC
:100D4000402B3401487F9DB045E7FFD94200008029
:100D50003F005696000E01015B6FBFEC25F02FD0CF
:100D6000000E00017E6F320E7D6FECEC31F0817C65
:100D7000BFEC25F01E0E01015B6504D0000E0101E1
:100D80005B6F00D09BEC32F00009D8B4FBD7100E9B
:100D90000001776F000E786F000E796F000E7A6F8A
:100DA0005B0E00017B6F010E00017C6F080E0001DD
:100DB0007D6FBC0E00017E6FD9EC11F000D056B4EF
:100DC00081AA02D056B2CCD781BA56A22ED0819C2D
:100DD000020E0101536F0D0E0001776F000E786F48
:100DE000000E796F000E7A6F530E00017B6F010EBB
:100DF00000017C6F010E00017D6FBC0E00017E6F53
:100E0000D9EC11F012D057B210D0000E0001E66FED
:100E1000000EE56F5A0E01016B6F000E266E010E7B
:100E2000276E93EC2DF0578200D057AC56A23AEFC4
:100E30000CF0E9D73AEF0CF08A8801500324010145
:100E4000B86F025004200101B96FD8900101B93187
:100E50000101BA6F0101B8310001816FBAC182F09E
:100E600041EC32F081C034F182C035F183C036F1FB
:100E700084C037F1000E00017E6F640E7D6FECECD4
:100E800031F0015003240101B86F02500420010128
:100E9000B96FD8900101B9310101BA6F0101B831C0
:100EA0000001816FBAC182F041EC32F081C09FF045
:100EB00082C0A0F083C0A1F084C0A2F034C1A3F02E
:100EC00035C1A4F036C1A5F037C1A6F05EEC23F021
:100ED0009FC034F1A0C035F1A1C036F1A2C037F1F6
:100EE00034C190F035C191F036C192F037C193F022
:100EF000000E0001946F000E956F000E966F400E6D
:100F0000976F4DEC2BF090C034F191C035F192C049
:100F100036F193C037F1000E0101DC6F000EDD6F7A
:100F2000600EDE6F420EDF6F000E0101D86F000E03
:100F3000D96F040EDA6F420EDB6F34C1A3F035C1F6
:100F4000A4F036C1A5F037C1A6F0000E0001946FE1
:100F5000000E956F000E966F400E976FD8C190F0FF
:100F6000D9C191F0DAC192F0DBC193F04DEC2BF0D6
:100F700090C09FF091C0A0F092C0A1F093C0A2F0E9
:100F80005EEC23F09FC0ABF0A0C0ACF0A1C0ADF010
:100F9000A2C0AEF0CEEC31F0ABC0CCF1ACC0CDF124
:100FA000ADC0CEF1AEC0CFF1CCC1A3F0CDC1A4F0A5
:100FB000CEC1A5F0CFC1A6F0000E0001856F000ED6
:100FC000866F000E876F400E886FDCC181F0DDC137
:100FD00082F0DEC183F0DFC184F09BEC2AF081C097
:100FE0009FF082C0A0F083C0A1F084C0A2F05EECAC
:100FF00023F09FC0D0F1A0C0D1F1A1C0D2F1A2C016
:10100000D3F1000E0001946F000E956F000E966FE5
:10101000400E976FD8C190F0D9C191F0DAC192F02B
:10102000DBC193F04DEC2BF090C0ABF091C0ACF075
:1010300092C0ADF093C0AEF0CEEC31F0ABC0A3F0F7
:10104000ACC0A4F0ADC0A5F0AEC0A6F0D0C19FF07A
:10105000D1C1A0F0D2C1A1F0D3C1A2F05EEC23F0C7
:101060009FC0BCF1A0C0BDF1A1C0BEF1A2C0BFF144
:10107000BCC190F0BDC191F0BEC192F0BFC193F070
:10108000000E0001856F000E866F000E876F400E08
:10109000886FDCC181F0DDC182F0DEC183F0DFC189
:1010A00084F09BEC2AF081C094F082C095F083C05C
:1010B00096F084C097F04DEC2BF090C0C0F191C039
:1010C000C1F192C0C2F193C0C3F1C0C194F1C1C1DA
:1010D00095F1C2C196F1C3C197F13EEC20F094C1E5
:1010E0002CF195C12DF196C12EF197C12FF1DB0E98
:1010F0000001946F0F0E956F490E966F400E976F1B
:101100002CC190F02DC191F02EC192F02FC193F01F
:101110004DEC2BF090C081F091C082F092C083F032
:1011200093C084F0000E0001856F000E866F340EB0
:10113000876F430E886F9BEC2AF081C02CF182C030
:101140002DF183C02EF184C02FF12CC1ABF02DC145
:10115000ACF02EC1ADF02FC1AEF0CEEC31F0ABC093
:101160009FF0ACC0A0F0ADC0A1F0AEC0A2F0000EE8
:101170000001A36F000EA46FB40EA56F420EA66F00
:101180005EEC23F09FC030F1A0C031F1A1C032F17C
:10119000A2C033F1DB0E0001856F0F0E866F490E82
:1011A000876F400E886F2CC181F02DC182F02EC157
:1011B00083F02FC184F09BEC2AF081C090F082C0B4
:1011C00091F083C092F084C093F0000E0001946F00
:1011D000000E956F340E966F430E976F4DEC2BF00B
:1011E00090C02CF191C02DF192C02EF193C02FF13F
:1011F0002CC1B0F12DC1B1F12EC1B2F12FC1B3F1AB
:1012000096EC2EF0B0C138F1B1C139F1B2C13AF16A
:10121000B3C13BF138C185F039C186F03AC187F0DE
:101220003BC188F0DCC181F0DDC182F0DEC183F01A
:10123000DFC184F09BEC2AF081C0D4F182C0D5F1EB
:1012400083C0D6F184C0D7F1D4C181F0D5C182F07A
:10125000D6C183F0D7C184F0000E0001856F000E67
:10126000866F000E876F400E886F9BEC2AF081C05E
:1012700038F182C039F183C03AF184C03BF1DCC15E
:1012800085F0DDC186F0DEC187F0DFC188F0000E99
:101290000001946F000E956FB40E966F430E976F1A
:1012A00030C190F031C191F032C192F033C193F06E
:1012B0004DEC2BF090C081F091C082F092C083F091
:1012C00093C084F09BEC2AF081C0D4F182C0D5F1A8
:1012D00083C0D6F184C0D7F1D4C181F0D5C182F0EA
:1012E000D6C183F0D7C184F0DB0E0001856F0F0EED
:1012F000866FC90E876F400E886F9BEC2AF081C005
:101300003CF182C03DF183C03EF184C03FF1000E4C
:101310000001946F000E956F400E966F400E976F10
:10132000000E0001856F000E866F000E876F400E65
:10133000886FD8C181F0D9C182F0DAC183F0DBC1F6
:1013400084F09BEC2AF081C090F082C091F083C0C1
:1013500092F084C093F04DEC2BF090C09FF091C0C0
:10136000A0F092C0A1F093C0A2F0DCC1A3F0DDC157
:10137000A4F0DEC1A5F0DFC1A6F05EEC23F09FC0B3
:1013800024F1A0C025F1A1C026F1A2C027F1000ED2
:101390000001946F000E956F400E966F400E976F90
:1013A000000E0001856F000E866F000E876F400EE5
:1013B000886FD8C181F0D9C182F0DAC183F0DBC176
:1013C00084F09BEC2AF081C090F082C091F083C041
:1013D00092F084C093F04DEC2BF090C0ABF091C034
:1013E000ACF092C0ADF093C0AEF0CEEC31F0ABC03B
:1013F0009FF0ACC0A0F0ADC0A1F0AEC0A2F0DCC1C7
:10140000A3F0DDC1A4F0DEC1A5F0DFC1A6F05EEC63
:1014100023F09FC020F1A0C021F1A1C022F1A2C001
:1014200023F124C194F025C195F026C196F027C17F
:1014300097F020C190F021C191F022C192F023C118
:1014400093F04DEC2BF090C0C4F191C0C5F192C067
:10145000C6F193C0C7F1C4C194F1C5C195F1C6C12D
:1014600096F1C7C197F13EEC20F094C1B0F195C15F
:10147000B1F196C1B2F197C1B3F196EC2EF0B0C1C3
:10148000C8F1B1C1C9F1B2C1CAF1B3C1CBF1C8C190
:1014900081F0C9C182F0CAC183F0CBC184F024C1FC
:1014A00085F025C186F026C187F027C188F09BEC26
:1014B0002AF081C028F182C029F183C02AF184C0BA
:1014C0002BF1000E0001E66F000EE56F5A0E0101D0
:1014D0006B6F000E266E010E276E93EC2DF0010E41
:1014E0005AEC32F0030E266E010E276E010E00013B
:1014F000E66F2C0EE56F56985A0E01016B6F000EC9
:101500000001A36F000EA46F700EA56F410EA66FB1
:1015100038C19FF039C1A0F03AC1A1F03BC1A2F09F
:101520005EEC23F09FC0ABF0A0C0ACF0A1C0ADF06A
:10153000A2C0AEF0CEEC31F0ABC0CCF1ACC0CDF17E
:10154000ADC0CEF1AEC0CFF128C1A3F029C1A4F047
:101550002AC1A5F02BC1A6F0CCC19FF0CDC1A0F04F
:10156000CEC1A1F0CFC1A2F05EEC23F09FC0D0F1BC
:10157000A0C0D1F1A1C0D2F1A2C0D3F1000E0001F0
:10158000A36F000EA46F840EA56F420EA66FD0C18C
:101590009FF0D1C1A0F0D2C1A1F0D3C1A2F05EEC06
:1015A00023F09FC0AFF0A0C0B0F0A1C0B1F0A2C0C6
:1015B000B2F079EC2CF00001AF510101736F568449
:1015C00000D09BEC32F00009D8B4FBD70F0E00011D
:1015D000776F000E786F000E796F000E7A6F730EC2
:1015E00000017B6F010E00017C6F080E00017D6F12
:1015F000BC0E00017E6FD9EC11F093EC2DF000D001
:1016000056B4FED7000E0001E66F000EE56F5A0ECD
:1016100001016B6F000E266E010E276E93EC2DF00C
:10162000010E5AEC32F0030E266E010E276E010EEB
:101630000001E66F2C0EE56F5698B40E01016B6F3A
:10164000000E0001A36F000EA46F200EA56FC10E47
:10165000A66F3CC19FF03DC1A0F03EC1A1F03FC1CB
:10166000A2F05EEC23F09FC0AFF0A0C0B0F0A1C02C
:10167000B1F0A2C0B2F079EC2CF00001AF51010141
:10168000736F568400D09BEC32F00009D8B4FBD7BE
:101690000F0E0001776F000E786F000E796F000E4D
:1016A0007A6F730E00017B6F010E00017C6F010EDB
:1016B00000017D6FBC0E00017E6FD9EC11F000D0EF
:1016C0009BEC32F00009D8B4FBD7AA0E0001776F6B
:1016D000000E786F000E796F000E7A6F730E0001A6
:1016E0007B6F010E00017C6F020E00017D6FBC0E4E
:1016F00000017E6FD9EC11F093EC2DF000D056B4C0
:10170000FED7000E01016B6F5684000E0001A36F1F
:10171000000EA46F800EA56FBF0EA66F3CC19FF098
:101720003DC1A0F03EC1A1F03FC1A2F05EEC23F0AC
:101730009FC0AFF0A0C0B0F0A1C0B1F0A2C0B2F0A5
:1017400079EC2CF00001AF510101736F00D09BECDC
:1017500032F00009D8B4FBD70F0E0001776F000EEE
:10176000786F000E796F000E7A6F730E00017B6F39
:10177000010E00017C6F010E00017D6FBC0E0001A7
:101780007E6FD9EC11F0000E0001E66FC80EE56F18
:10179000030E266E93EC2DF000D056B4FED7000E4B
:1017A000266E010E276E000E0001E66F000EE56F3B
:1017B0005A0E01016B6F93EC2DF0010E5AEC32F0D2
:1017C00056860E5004E1150E0D5CD8A018D0030EFD
:1017D000266E010E276E010E0001E66F2C0EE56FDE
:1017E0005A0E01016B6F568893EC2DF000D00E500D
:1017F000FEE1150E0D5CD8A002D0F9D700D0000E86
:10180000266E010E276E000E0001E66F000EE56FDA
:101810005A0E01016B6F569893EC2DF0010E5AECA5
:1018200032F0030E0101536F00D09BEC32F000093F
:10183000D8B4FBD70D0E0001776F000E786F000E45
:10184000796F000E7A6F530E00017B6F010E00015D
:101850007C6F080E00017D6FBC0E00017E6FD9EC1D
:1018600011F0000E00017E6F640E7D6FECEC31F024
:10187000FF0000D081AA120056A2120057AC12003D
:101880001CEF07F0120012000001806F0001805170
:101890000001D8A459D000017B29D8A455D00F014C
:1018A000019777C07CF078C07DF079C07EF07AC077
:1018B0007FF0040E06D00001D8907F337E337D3355
:1018C0007C33E82EF8D77CC081F07DC082F07EC0EA
:1018D00083F07FC084F0000181510001816F826B31
:1018E000836B846B81C000FF070E00017715000138
:1018F000816F000E000178150001826F000E00015B
:1019000079150001836F000E00017A150001846FC4
:1019100081C07CF082C07DF083C07EF084C07FF007
:10192000050ED89000017C377D377E377F37E82E53
:10193000F8D77CC081F07DC082F07EC083F07FC08C
:1019400084F081C001FF00D000018005D8A459D0E7
:1019500000017B29D8A455D00F01059777C07CF0F2
:1019600078C07DF079C07EF07AC07FF0040E06D09A
:101970000001D8907F337E337D337C33E82EF8D757
:101980007CC081F07DC082F07EC083F07FC084F097
:10199000000181510001816F826B836B846B81C078
:1019A00004FF070E000177150001816F000E000192
:1019B00078150001826F000E000179150001836F18
:1019C000000E00017A150001846F81C07CF082C096
:1019D0007DF083C07EF084C07FF0050ED8900001BA
:1019E0007C377D377E377F37E82EF8D77CC081F093
:1019F0007DC082F07EC083F07FC084F081C005FF8F
:101A000000D0020E00018019D8A459D000017B2912
:101A1000D8A455D00F01099777C07CF078C07DF02D
:101A200079C07EF07AC07FF0040E06D00001D89015
:101A30007F337E337D337C33E82EF8D77CC081F052
:101A40007DC082F07EC083F07FC084F000018151B0
:101A50000001816F826B836B846B81C008FF070E6E
:101A6000000177150001816F000E0001781500015B
:101A7000826F000E000179150001836F000E0001D6
:101A80007A150001846F81C07CF082C07DF083C034
:101A90007EF084C07FF0050ED89000017C377D3742
:101AA0007E377F37E82EF8D77CC081F07DC082F08A
:101AB0007EC083F07FC084F081C009FF00D0030E98
:101AC00000018019D8A459D000017B29D8A455D091
:101AD0000F010D9777C07CF078C07DF079C07EF063
:101AE0007AC07FF0040E06D00001D8907F337E3399
:101AF0007D337C33E82EF8D77CC081F07DC082F046
:101B00007EC083F07FC084F0000181510001816FAD
:101B1000826B836B846B81C00CFF070E000177150D
:101B20000001816F000E000178150001826F000E28
:101B3000000179150001836F000E00017A15000184
:101B4000846F81C07CF082C07DF083C07EF084C051
:101B50007FF0050ED89000017C377D377E377F37C8
:101B6000E82EF8D77CC081F07DC082F07EC083F083
:101B70007FC084F081C00DFF00D0040E00018019E9
:101B8000D8A459D000017B29D8A455D00F011197B2
:101B900077C07CF078C07DF079C07EF07AC07FF0AD
:101BA000040E06D00001D8907F337E337D337C3322
:101BB000E82EF8D77CC081F07DC082F07EC083F033
:101BC0007FC084F0000181510001816F826B836BC3
:101BD000846B81C010FF070E000177150001816F33
:101BE000000E000178150001826F000E00017915CA
:101BF0000001836F000E00017A150001846F81C01F
:101C00007CF082C07DF083C07EF084C07FF0050E42
:101C1000D89000017C377D377E377F37E82EF8D7A4
:101C20007CC081F07DC082F07EC083F07FC084F0F4
:101C300081C011FF00D0050E00018019D8A459D031
:101C400000017B29D8A455D00F01159777C07CF0EF
:101C500078C07DF079C07EF07AC07FF0040E06D0A7
:101C60000001D8907F337E337D337C33E82EF8D764
:101C70007CC081F07DC082F07EC083F07FC084F0A4
:101C8000000181510001816F826B836B846B81C085
:101C900014FF070E000177150001816F000E00018F
:101CA00078150001826F000E000179150001836F25
:101CB000000E00017A150001846F81C07CF082C0A3
:101CC0007DF083C07EF084C07FF0050ED8900001C7
:101CD0007C377D377E377F37E82EF8D77CC081F0A0
:101CE0007DC082F07EC083F07FC084F081C015FF8C
:101CF00000D0000180510001D8A48BD0F70E000164
:101D00007B19D8A486D00F0101870001775100010B
:101D1000816F826B836B846B81C003FF000E0001B7
:101D200077150001816FFF0E000178150001826FA9
:101D3000000E000179150001836F000E00017A1575
:101D40000001846F81C07CF082C07DF083C07EF092
:101D500084C07FF07DC07CF07EC07DF07FC07EF0CF
:101D600000017F6B7CC081F07DC082F07EC083F07B
:101D70007FC084F081C002FF000179A103D00F0170
:101D8000018102D00F010191000179A303D00F015D
:101D9000018302D00F010193000179A503D00F0147
:101DA000018B02D00F01019B000179A703D00F0125
:101DB000018D02D00F01019D000179A903D00F010F
:101DC000018F03D00F01019F00D077C07CF078C055
:101DD0007DF079C07EF07AC07FF0160E06D000014B
:101DE000D8907F337E337D337C33E82EF8D77CC0A8
:101DF00081F07DC082F07EC083F07FC084F000015E
:101E000081510001816F826B836B846B81C000FF05
:101E100000D000018005D8A48BD0F70E00017B19FB
:101E2000D8A486D00F010587000177510001816F8A
:101E3000826B836B846B81C007FF000E00017715F6
:101E40000001816FFF0E000178150001826F000E06
:101E5000000179150001836F000E00017A15000161
:101E6000846F81C07CF082C07DF083C07EF084C02E
:101E70007FF07DC07CF07EC07DF07FC07EF00001F1
:101E80007F6B7CC081F07DC082F07EC083F07FC01C
:101E900084F081C006FF000179A103D00F01058104
:101EA00002D00F010591000179A303D00F01058332
:101EB00002D00F010593000179A503D00F01058B16
:101EC00002D00F01059B000179A703D00F01058DFA
:101ED00002D00F01059D000179A903D00F01058FE4
:101EE00003D00F01059F00D077C07CF078C07DF053
:101EF00079C07EF07AC07FF0160E06D00001D8902F
:101F00007F337E337D337C33E82EF8D77CC081F07D
:101F10007DC082F07EC083F07FC084F000018151DB
:101F20000001816F826B836B846B81C004FF00D0E2
:101F3000020E00018019D8A48BD0F70E00017B1986
:101F4000D8A486D00F010987000177510001816F65
:101F5000826B836B846B81C00BFF000E00017715D1
:101F60000001816FFF0E000178150001826F000EE5
:101F7000000179150001836F000E00017A15000140
:101F8000846F81C07CF082C07DF083C07EF084C00D
:101F90007FF07DC07CF07EC07DF07FC07EF00001D0
:101FA0007F6B7CC081F07DC082F07EC083F07FC0FB
:101FB00084F081C00AFF000179A103D00F010981DB
:101FC00002D00F010991000179A303D00F01098309
:101FD00002D00F010993000179A503D00F01098BED
:101FE00002D00F01099B000179A703D00F01098DD1
:101FF00002D00F01099D000179A903D00F01098FBB
:1020000003D00F01099F00D077C07CF078C07DF02D
:1020100079C07EF07AC07FF0160E06D00001D8900D
:102020007F337E337D337C33E82EF8D77CC081F05C
:102030007DC082F07EC083F07FC084F000018151BA
:102040000001816F826B836B846B81C008FF00D0BD
:10205000030E00018019D8A48BD0F70E00017B1964
:10206000D8A486D00F010D87000177510001816F40
:10207000826B836B846B81C00FFF000E00017715AC
:102080000001816FFF0E000178150001826F000EC4
:10209000000179150001836F000E00017A1500011F
:1020A000846F81C07CF082C07DF083C07EF084C0EC
:1020B0007FF07DC07CF07EC07DF07FC07EF00001AF
:1020C0007F6B7CC081F07DC082F07EC083F07FC0DA
:1020D00084F081C00EFF000179A103D00F010D81B2
:1020E00002D00F010D91000179A303D00F010D83E0
:1020F00002D00F010D93000179A503D00F010D8BC4
:1021000002D00F010D9B000179A703D00F010D8DA7
:1021100002D00F010D9D000179A903D00F010D8F91
:1021200003D00F010D9F00D077C07CF078C07DF008
:1021300079C07EF07AC07FF0160E06D00001D890EC
:102140007F337E337D337C33E82EF8D77CC081F03B
:102150007DC082F07EC083F07FC084F00001815199
:102160000001816F826B836B846B81C00CFF00D098
:10217000040E00018019D8A48BD0F70E00017B1942
:10218000D8A486D00F011187000177510001816F1B
:10219000826B836B846B81C013FF000E0001771587
:1021A0000001816FFF0E000178150001826F000EA3
:1021B000000179150001836F000E00017A150001FE
:1021C000846F81C07CF082C07DF083C07EF084C0CB
:1021D0007FF07DC07CF07EC07DF07FC07EF000018E
:1021E0007F6B7CC081F07DC082F07EC083F07FC0B9
:1021F00084F081C012FF000179A103D00F01118189
:1022000002D00F011191000179A303D00F011183B6
:1022100002D00F011193000179A503D00F01118B9A
:1022200002D00F01119B000179A703D00F01118D7E
:1022300002D00F01119D000179A903D00F01118F68
:1022400003D00F01119F00D077C07CF078C07DF0E3
:1022500079C07EF07AC07FF0160E06D00001D890CB
:102260007F337E337D337C33E82EF8D77CC081F01A
:102270007DC082F07EC083F07FC084F00001815178
:102280000001816F826B836B846B81C010FF00D073
:10229000050E00018019D8A41200F70E00017B1969
:1022A000D8A412000F011587000177510001816F3A
:1022B000826B836B846B81C017FF000E0001771562
:1022C0000001816FFF0E000178150001826F000E82
:1022D000000179150001836F000E00017A150001DD
:1022E000846F81C07CF082C07DF083C07EF084C0AA
:1022F0007FF07DC07CF07EC07DF07FC07EF000016D
:102300007F6B7CC081F07DC082F07EC083F07FC097
:1023100084F081C016FF000179A103D00F0115815F
:1023200002D00F011591000179A303D00F0115838D
:1023300002D00F011593000179A503D00F01158B71
:1023400002D00F01159B000179A703D00F01158D55
:1023500002D00F01159D000179A903D00F01158F3F
:1023600003D00F01159F00D077C07CF078C07DF0BE
:1023700079C07EF07AC07FF0160E06D00001D890AA
:102380007F337E337D337C33E82EF8D77CC081F0F9
:102390007DC082F07EC083F07FC084F00001815157
:1023A0000001816F826B836B846B81C014FF12000C
:1023B00012000F0140B742D17DC045FF00017EAD44
:1023C00003D00F01458D02D00F01459D00017EA76E
:1023D0007AD0000177510001836F846B856B866B27
:1023E00083C044FF000E000177150001836FFF0ECC
:1023F000000178150001846F000E000179150001BD
:10240000856F000E00017A150001866F83C07FF092
:1024100084C080F085C081F086C082F080C07FF0EB
:1024200081C080F082C081F00001826B7FC083F0A8
:1024300080C084F081C085F082C086F083C043FFF5
:10244000000E0F01426F0F014287000179A102D0F7
:102450000F014281000179A302D00F0142830001E4
:1024600079A502D00F01428B000179A702D00F019C
:10247000428D000179A903D00F01428F00D077C0AF
:102480007FF078C080F079C081F07AC082F0160EBB
:1024900006D00001D8908233813380337F33E82E19
:1024A000F8D77FC083F080C084F081C085F082C0FF
:1024B00086F0000183510001836F846B856B866B0E
:1024C00083C041FF5AD00F01429777C07FF078C098
:1024D00080F079C081F07AC082F0040E06D000014D
:1024E000D8908233813380337F33E82EF8D77FC092
:1024F00083F080C084F081C085F082C086F0000146
:1025000083510001836F846B856B866B83C041FFB1
:10251000070E000177150001836F000E000178158A
:102520000001846F000E000179150001856F000E17
:1025300000017A150001866F83C07FF084C080F0AF
:1025400085C081F086C082F0050ED89000017F37EB
:10255000803781378237E82EF8D77FC083F080C07C
:1025600084F081C085F082C086F00F0142511F0BBC
:102570000F01426F83C042FF00D000017EA103D053
:102580000F01408102D00F01409100017EA303D0D2
:102590000F01408303D00F01409300D07BC0D9FFCF
:1025A0007CC0DAFFDF500F01466F000120EE01F022
:1025B0007B51D9267C51DA22DF500F01476F000191
:1025C00020EE02F07B51D9267C51DA22DF500F0138
:1025D000486F000120EE03F07B51D9267C51DA22AE
:1025E000DF500F01496F000120EE04F07B51D92626
:1025F0007C51DA22DF500F014A6F000120EE05F016
:102600007B51D9267C51DA22DF500F014B6F00013C
:1026100020EE06F07B51D9267C51DA22DF500F01E3
:102620004C6F000120EE07F07B51D9267C51DA2255
:10263000DF500F014D6F0F01408712000F0130B7BF
:1026400042D17DC035FF00017EAD03D00F01358D35
:1026500002D00F01359D00017EA77AD0000177518D
:102660000001836F846B856B866B83C034FF000E23
:10267000000177150001836FFF0E0001781500013E
:10268000846F000E000179150001856F000E0001B6
:102690007A150001866F83C07FF084C080F085C00A
:1026A00081F086C082F080C07FF081C080F082C05F
:1026B00081F00001826B7FC083F080C084F081C014
:1026C00085F082C086F083C033FF000E0F01326FA9
:1026D0000F013287000179A102D00F013281000180
:1026E00079A302D00F013283000179A502D00F0136
:1026F000328B000179A702D00F01328D000179A938
:1027000003D00F01328F00D077C07FF078C080F007
:1027100079C081F07AC082F0160E06D00001D89000
:102720008233813380337F33E82EF8D77FC083F044
:1027300080C084F081C085F082C086F000018351A2
:102740000001836F846B856B866B83C031FF5AD029
:102750000F01329777C07FF078C080F079C081F0A8
:102760007AC082F0040E06D00001D8908233813303
:1027700080337F33E82EF8D77FC083F080C084F0A9
:1027800081C085F082C086F0000183510001836F13
:10279000846B856B866B83C031FF070E0001771554
:1027A0000001836F000E000178150001846F000E98
:1027B000000179150001856F000E00017A150001F6
:1027C000866F83C07FF084C080F085C081F086C0B2
:1027D00082F0050ED89000017F378037813782372D
:1027E000E82EF8D77FC083F080C084F081C085F0E8
:1027F00082C086F00F0132511F0B0F01326F83C070
:1028000032FF00D000017EA103D00F01308102D041
:102810000F01309100017EA303D00F01308303D05C
:102820000F01309300D07BC0D9FF7CC0DAFFDF50AE
:102830000F01366F000120EE01F07B51D9267C514B
:10284000DA22DF500F01376F000120EE02F07B51DA
:10285000D9267C51DA22DF500F01386F000120EEBB
:1028600003F07B51D9267C51DA22DF500F01396FFA
:10287000000120EE04F07B51D9267C51DA22DF5092
:102880000F013A6F000120EE05F07B51D9267C51F3
:10289000DA22DF500F013B6F000120EE06F07B5182
:1028A000D9267C51DA22DF500F013C6F000120EE67
:1028B00007F07B51D9267C51DA22DF500F013D6FA2
:1028C0000F01308712000F0120B712007DC025FFD5
:1028D00000017EAD03D00F01258D02D00F01259D93
:1028E00000017EA77AD0000177510001836F846BCD
:1028F000856B866B83C024FF000E000177150001F5
:10290000836FFF0E000178150001846F000E000137
:1029100079150001856F000E00017A150001866FA0
:1029200083C07FF084C080F085C081F086C082F0D3
:1029300080C07FF081C080F082C081F00001826B96
:102940007FC083F080C084F081C085F082C086F0B3
:1029500083C023FF000E0F01226F0F0122870001A9
:1029600079A102D00F012281000179A302D00F01C9
:102970002283000179A502D00F01228B000179A7E3
:1029800002D00F01228D000179A903D00F01228FFF
:1029900000D077C07FF078C080F079C081F07AC035
:1029A00082F0160E06D00001D89082338133803336
:1029B0007F33E82EF8D77FC083F080C084F081C0D9
:1029C00085F082C086F0000183510001836F846B23
:1029D000856B866B83C021FF5AD00F01229777C089
:1029E0007FF078C080F079C081F07AC082F0040E68
:1029F00006D00001D8908233813380337F33E82EB4
:102A0000F8D77FC083F080C084F081C085F082C099
:102A100086F0000183510001836F846B856B866BA8
:102A200083C021FF070E000177150001836F000EA0
:102A3000000178150001846F000E00017915000176
:102A4000856F000E00017A150001866F83C07FF04C
:102A500084C080F085C081F086C082F0050ED890D9
:102A600000017F37803781378237E82EF8D77FC063
:102A700083F080C084F081C085F082C086F00F01B1
:102A800022511F0B0F01226F83C022FF00D00001D3
:102A90007EA103D00F01208102D00F0120910001FF
:102AA0007EA303D00F01208303D00F01209300D019
:102AB0007BC0D9FF7CC0DAFFDF500F01266F000119
:102AC00020EE01F07B51D9267C51DA22DF500F0134
:102AD000276F000120EE02F07B51D9267C51DA22CB
:102AE000DF500F01286F000120EE03F07B51D92643
:102AF0007C51DA22DF500F01296F000120EE04F033
:102B00007B51D9267C51DA22DF500F012A6F000158
:102B100020EE05F07B51D9267C51DA22DF500F01DF
:102B20002B6F000120EE06F07B51D9267C51DA2272
:102B3000DF500F012C6F000120EE07F07B51D926EA
:102B40007C51DA22DF500F012D6F0F012087120018
:102B500012000F0140B718D134C045FF35AC03D087
:102B60000F01458D02D00F01459D35A667D02E502F
:102B70003A6E3B6A3C6A3D6A3AC044FF000E2E142E
:102B80003A6EFF0E2F143B6E000E30143C6E000E9A
:102B900031143D6E3AC036F03BC037F03CC038F0DF
:102BA0003DC039F037C036F038C037F039C038F0A2
:102BB000396A36C03AF037C03BF038C03CF039C013
:102BC0003DF03AC043FF000E0F01426F0F014287F4
:102BD00030A002D00F01428130A202D00F01428307
:102BE00030A402D00F01428B30A602D00F01428DDB
:102BF00030A803D00F01428F00D02EC036F02FC076
:102C000037F030C038F031C039F0160E05D0D8900A
:102C10003932383237323632E82EF9D736C03AF008
:102C200037C03BF038C03CF039C03DF03A503A6E06
:102C30003B6A3C6A3D6A3AC041FF4ED00F01429761
:102C40002EC036F02FC037F030C038F031C039F028
:102C5000040E05D0D8903932383237323632E82E69
:102C6000F9D736C03AF037C03BF038C03CF039C035
:102C70003DF03A503A6E3B6A3C6A3D6A3AC041FFC9
:102C8000070E2E143A6E000E2F143B6E000E3014F9
:102C90003C6E000E31143D6E3AC036F03BC037F04A
:102CA0003CC038F03DC039F0050ED8903636373686
:102CB00038363936E82EF9D736C03AF037C03BF00F
:102CC00038C03CF039C03DF00F0142511F0B0F01DD
:102CD000426F3AC042FF00D035A003D00F014081BF
:102CE00002D00F01409135A203D00F01408303D0E1
:102CF0000F01409300D032C0D9FF33C0DAFFDF505C
:102D00000F01466F20EE01F03250D9263350DA22FF
:102D1000DF500F01476F20EE02F03250D9263350BA
:102D2000DA22DF500F01486F20EE03F03250D9262F
:102D30003350DA22DF500F01496F20EE04F0325099
:102D4000D9263350DA22DF500F014A6F20EE05F00A
:102D50003250D9263350DA22DF500F014B6F20EE6C
:102D600006F03250D9263350DA22DF500F014C6F73
:102D700020EE07F03250D9263350DA22DF500F010F
:102D80004D6F0F01408712000F0130B718D134C0CA
:102D900035FF35AC03D00F01358D02D00F01359DC5
:102DA00035A667D02E503A6E3B6A3C6A3D6A3AC0FF
:102DB00034FF000E2E143A6EFF0E2F143B6E000EE1
:102DC00030143C6E000E31143D6E3AC036F03BC0FC
:102DD00037F03CC038F03DC039F037C036F038C06D
:102DE00037F039C038F0396A36C03AF037C03BF0B6
:102DF00038C03CF039C03DF03AC033FF000E0F013F
:102E0000326F0F01328730A002D00F01328130A221
:102E100002D00F01328330A402D00F01328B30A6D2
:102E200002D00F01328D30A803D00F01328F00D0B5
:102E30002EC036F02FC037F030C038F031C039F036
:102E4000160E05D0D8903932383237323632E82E65
:102E5000F9D736C03AF037C03BF038C03CF039C043
:102E60003DF03A503A6E3B6A3C6A3D6A3AC031FFE7
:102E70004ED00F0132972EC036F02FC037F030C041
:102E800038F031C039F0040E05D0D89039323832DC
:102E900037323632E82EF9D736C03AF037C03BF039
:102EA00038C03CF039C03DF03A503A6E3B6A3C6A5B
:102EB0003D6A3AC031FF070E2E143A6E000E2F14F1
:102EC0003B6E000E30143C6E000E31143D6E3AC065
:102ED00036F03BC037F03CC038F03DC039F0050E4D
:102EE000D8903636373638363936E82EF9D736C0E8
:102EF0003AF037C03BF038C03CF039C03DF00F012C
:102F000032511F0B0F01326F3AC032FF00D035A093
:102F100003D00F01308102D00F01309135A203D0D0
:102F20000F01308303D00F01309300D032C0D9FF9E
:102F300033C0DAFFDF500F01366F20EE01F0325060
:102F4000D9263350DA22DF500F01376F20EE02F01E
:102F50003250D9263350DA22DF500F01386F20EE7D
:102F600003F03250D9263350DA22DF500F01396F87
:102F700020EE04F03250D9263350DA22DF500F0110
:102F80003A6F20EE05F03250D9263350DA22DF5066
:102F90000F013B6F20EE06F03250D9263350DA2273
:102FA000DF500F013C6F20EE07F03250D92633502E
:102FB000DA22DF500F013D6F0F01308712000F0141
:102FC00020B7120034C025FF35AC03D00F01258D8A
:102FD00002D00F01259D35A667D02E503A6E3B6A70
:102FE0003C6A3D6A3AC024FF000E2E143A6EFF0E72
:102FF0002F143B6E000E30143C6E000E31143D6EEB
:103000003AC036F03BC037F03CC038F03DC039F034
:1030100037C036F038C037F039C038F0396A36C0BA
:103020003AF037C03BF038C03CF039C03DF03AC010
:1030300023FF000E0F01226F0F01228730A002D064
:103040000F01228130A202D00F01228330A402D0CE
:103050000F01228B30A602D00F01228D30A803D0A1
:103060000F01228F00D02EC036F02FC037F030C0B5
:1030700038F031C039F0160E05D0D89039323832D8
:1030800037323632E82EF9D736C03AF037C03BF047
:1030900038C03CF039C03DF03A503A6E3B6A3C6A69
:1030A0003D6A3AC021FF4ED00F0122972EC036F064
:1030B0002FC037F030C038F031C039F0040E05D0E1
:1030C000D8903932383237323632E82EF9D736C016
:1030D0003AF037C03BF038C03CF039C03DF03A50D0
:1030E0003A6E3B6A3C6A3D6A3AC021FF070E2E14D5
:1030F0003A6E000E2F143B6E000E30143C6E000E24
:1031000031143D6E3AC036F03BC037F03CC038F069
:103110003DC039F0050ED890363637363836393658
:10312000E82EF9D736C03AF037C03BF038C03CF053
:1031300039C03DF00F0122511F0B0F01226F3AC021
:1031400022FF00D035A003D00F01208102D00F0153
:10315000209135A203D00F01208303D00F012093CB
:1031600000D032C0D9FF33C0DAFFDF500F01266F25
:1031700020EE01F03250D9263350DA22DF500F0111
:10318000276F20EE02F03250D9263350DA22DF507A
:103190000F01286F20EE03F03250D9263350DA2287
:1031A000DF500F01296F20EE04F03250D926335042
:1031B000DA22DF500F012A6F20EE05F03250D926B7
:1031C0003350DA22DF500F012B6F20EE06F0325021
:1031D000D9263350DA22DF500F012C6F20EE07F092
:1031E0003250D9263350DA22DF500F012D6F0F01F4
:1031F000208712001200000E0101D86F000ED96F57
:10320000600EDA6F420EDB6F000E0101D46F000E0C
:10321000D56F040ED66F420ED76F34C1A3F035C1FF
:10322000A4F036C1A5F037C1A6F0000E0001946FDE
:10323000000E956F000E966F400E976FD4C190F000
:10324000D5C191F0D6C192F0D7C193F04DEC2BF0DF
:1032500090C09FF091C0A0F092C0A1F093C0A2F0E6
:103260005EEC23F09FC0ABF0A0C0ACF0A1C0ADF00D
:10327000A2C0AEF0CEEC31F0ABC0B8F1ACC0B9F149
:10328000ADC0BAF1AEC0BBF1B8C1A3F0B9C1A4F0F2
:10329000BAC1A5F0BBC1A6F0000E0001856F000EFB
:1032A000866F000E876F400E886FD8C181F0D9C13C
:1032B00082F0DAC183F0DBC184F09BEC2AF081C09C
:1032C0009FF082C0A0F083C0A1F084C0A2F05EECA9
:1032D00023F09FC0BCF1A0C0BDF1A1C0BEF1A2C04F
:1032E000BFF1000E0001946F000E956F000E966FF7
:1032F000400E976FD4C190F0D5C191F0D6C192F035
:10330000D7C193F04DEC2BF090C0ABF091C0ACF076
:1033100092C0ADF093C0AEF0CEEC31F0ABC0A3F0F4
:10332000ACC0A4F0ADC0A5F0AEC0A6F0BCC19FF08B
:10333000BDC1A0F0BEC1A1F0BFC1A2F05EEC23F000
:103340009FC0C0F1A0C0C1F1A1C0C2F1A2C0C3F131
:10335000C0C190F0C1C191F0C2C192F0C3C193F05D
:10336000000E0001856F000E866F000E876F400E05
:10337000886FD8C181F0D9C182F0DAC183F0DBC196
:1033800084F09BEC2AF081C094F082C095F083C059
:1033900096F084C097F04DEC2BF090C0C4F191C032
:1033A000C5F192C0C6F193C0C7F1C4C194F1C5C1C3
:1033B00095F1C6C196F1C7C197F13EEC20F094C1DA
:1033C0002CF195C12DF196C12EF197C12FF1DB0E95
:1033D0000001946F0F0E956F490E966F400E976F18
:1033E0002CC190F02DC191F02EC192F02FC193F01D
:1033F0004DEC2BF090C081F091C082F092C083F030
:1034000093C084F0000E0001856F000E866F340EAD
:10341000876F430E886F9BEC2AF081C02CF182C02D
:103420002DF183C02EF184C02FF12CC1ABF02DC142
:10343000ACF02EC1ADF02FC1AEF0CEEC31F0ABC090
:103440009FF0ACC0A0F0ADC0A1F0AEC0A2F0000EE5
:103450000001A36F000EA46FB40EA56F420EA66FFD
:103460005EEC23F09FC030F1A0C031F1A1C032F179
:10347000A2C033F1DB0E0001856F0F0E866F490E7F
:10348000876F400E886F2CC181F02DC182F02EC154
:1034900083F02FC184F09BEC2AF081C090F082C0B1
:1034A00091F083C092F084C093F0000E0001946FFD
:1034B000000E956F340E966F430E976F4DEC2BF008
:1034C00090C02CF191C02DF192C02EF193C02FF13C
:1034D0002CC1B0F12DC1B1F12EC1B2F12FC1B3F1A8
:1034E00096EC2EF0B0C138F1B1C139F1B2C13AF168
:1034F000B3C13BF138C185F039C186F03AC187F0DC
:103500003BC188F0D8C181F0D9C182F0DAC183F023
:10351000DBC184F09BEC2AF081C0D0F182C0D1F1F4
:1035200083C0D2F184C0D3F1D0C181F0D1C182F087
:10353000D2C183F0D3C184F0000E0001856F000E6C
:10354000866F000E876F400E886F9BEC2AF081C05B
:1035500038F182C039F183C03AF184C03BF1D8C15F
:1035600085F0D9C186F0DAC187F0DBC188F0000EA2
:103570000001946F000E956FB40E966F430E976F17
:1035800030C190F031C191F032C192F033C193F06B
:103590004DEC2BF090C081F091C082F092C083F08E
:1035A00093C084F09BEC2AF081C0D0F182C0D1F1AD
:1035B00083C0D2F184C0D3F1D0C181F0D1C182F0F7
:1035C000D2C183F0D3C184F0DB0E0001856F0F0EF2
:1035D000866FC90E876F400E886F9BEC2AF081C002
:1035E0003CF182C03DF183C03EF184C03FF1000E4A
:1035F0000001946F000E956F400E966F400E976F0E
:10360000000E0001856F000E866F000E876F400E62
:10361000886FD4C181F0D5C182F0D6C183F0D7C103
:1036200084F09BEC2AF081C090F082C091F083C0BE
:1036300092F084C093F04DEC2BF090C09FF091C0BD
:10364000A0F092C0A1F093C0A2F0D8C1A3F0D9C15C
:10365000A4F0DAC1A5F0DBC1A6F05EEC23F09FC0B8
:1036600024F1A0C025F1A1C026F1A2C027F1000ECF
:103670000001946F000E956F400E966F400E976F8D
:10368000000E0001856F000E866F000E876F400EE2
:10369000886FD4C181F0D5C182F0D6C183F0D7C183
:1036A00084F09BEC2AF081C090F082C091F083C03E
:1036B00092F084C093F04DEC2BF090C0ABF091C031
:1036C000ACF092C0ADF093C0AEF0CEEC31F0ABC038
:1036D0009FF0ACC0A0F0ADC0A1F0AEC0A2F0D8C1C8
:1036E000A3F0D9C1A4F0DAC1A5F0DBC1A6F05EEC6D
:1036F00023F09FC020F1A0C021F1A1C022F1A2C0FF
:1037000023F124C194F025C195F026C196F027C17C
:1037100097F020C190F021C191F022C192F023C115
:1037200093F04DEC2BF090C0C8F191C0C9F192C05C
:10373000CAF193C0CBF1C8C194F1C9C195F1CAC116
:1037400096F1CBC197F13EEC20F094C1B0F195C158
:10375000B1F196C1B2F197C1B3F196EC2EF0B0C1C0
:10376000CCF1B1C1CDF1B2C1CEF1B3C1CFF1CCC179
:1037700081F0CDC182F0CEC183F0CFC184F024C1ED
:1037800085F025C186F026C187F027C188F09BEC23
:103790002AF081C028F182C029F183C02AF184C0B7
:1037A0002BF11200000E386E74AE02D0388000D0BB
:1037B00074AC02D0388200D00F0150AF49D12EC076
:1037C000D9FF2FC0DAFFDE6ADE6ADE6ADD6A20EE2C
:1037D00004F02E50D9262F50DA2256CFDFFF20EEEC
:1037E00005F02E50D9262F50DA2257CFDFFF20EEDA
:1037F00006F02E50D9262F50DA2258CFDFFF20EEC8
:1038000007F02E50D9262F50DA2259CFDFFF20EEB5
:1038100008F02E50D9262F50DA225ACFDFFF20EEA3
:1038200009F02E50D9262F50DA225BCFDFFF20EE91
:103830000AF02E50D9262F50DA225CCFDFFF20EE7F
:103840000BF02E50D9262F50DA225DCFDFFF20EE6D
:103850000EF02E50D9262F50DA220F0155AD02D08E
:10386000010E01D0000EDF6E20EE0DF02E50D92695
:103870002F50DA220F0155510F0BDF6E20EE0CF0A6
:103880002E50D9262F50DA220F0152A702D0010E56
:1038900001D0000EDF6E0F0152B744D051CF30F08F
:1038A000316A326A336A030ED89030363136323696
:1038B0003336E82EF9D72EC0D9FF2FC0DAFF30C03B
:1038C000DEFF31C0DEFF32C0DEFF33C0DEFF0F019E
:1038D0005239E842070B070B396E2EC0D9FF2FC0B3
:1038E000DAFFDECF30F0DECF31F0DECF32F0DECFE8
:1038F00033F039503024346E000E3120356E000E16
:103900003220366E000E3320376E2EC0D9FF2FC006
:10391000DAFF34C0DEFF35C0DEFF36C0DEFF37C061
:10392000DEFF93D054CF30F0316A326A336A2EC052
:10393000D9FF2FC0DAFF30C0DEFF31C0DEFF32C05A
:10394000DEFF33C0DEFF53CF30F0316A326A336AB4
:1039500032C033F031C032F030C031F0306A2EC0A6
:10396000D9FF2FC0DAFF3050DE263150DE22325030
:10397000DE223350DE220F0152A10DD02EC0D9FF1E
:103980002FC0DAFF000EDE12000EDE12010EDE1274
:10399000000EDE1200D00F0152A30DD02EC0D9FFB1
:1039A0002FC0DAFF000EDE12000EDE12020EDE1253
:1039B000000EDE1200D00F0152AB0DD02EC0D9FF89
:1039C0002FC0DAFF000EDE12000EDE12040EDE1231
:1039D000000EDE1200D00F0152AD0DD02EC0D9FF67
:1039E0002FC0DAFF000EDE12000EDE12080EDE120D
:1039F000000EDE1200D00F0152AF0DD02EC0D9FF45
:103A00002FC0DAFF000EDE12000EDE12100EDE12E4
:103A1000000EDE1200D051CF30F0316A326A336AC4
:103A2000150ED8903036313632363336E82EF9D787
:103A30002EC0D9FF2FC0DAFF3050DE123150DE1217
:103A40003250DE123350DE1200D00F01509F1200B0
:103A500060AE12002EC0D9FF2FC0DAFFDE6ADE6A28
:103A6000DE6ADD6A20EE04F02E50D9262F50DA22CD
:103A700066CFDFFF20EE05F02E50D9262F50DA2238
:103A800067CFDFFF20EE06F02E50D9262F50DA2226
:103A900068CFDFFF20EE07F02E50D9262F50DA2214
:103AA00069CFDFFF20EE08F02E50D9262F50DA2202
:103AB0006ACFDFFF20EE09F02E50D9262F50DA22F0
:103AC0006BCFDFFF20EE0AF02E50D9262F50DA22DE
:103AD0006CCFDFFF20EE0BF02E50D9262F50DA22CC
:103AE0006DCFDFFF20EE0EF02E50D9262F50DA22B8
:103AF00065AC02D0010E01D0000EDF6E20EE0DF09D
:103B00002E50D9262F50DA2265500F0BDF6E20EE93
:103B10000CF02E50D9262F50DA2262A602D0010EC8
:103B200001D0000EDF6E62B643D061CF30F0316A53
:103B3000326A336A030ED890303631363236333635
:103B4000E82EF9D72EC0D9FF2FC0DAFF30C0DEFF34
:103B500031C0DEFF32C0DEFF33C0DEFF6238E84234
:103B6000070B070B396E2EC0D9FF2FC0DAFFDECF4F
:103B700030F0DECF31F0DECF32F0DECF33F039502F
:103B80003024346E000E3120356E000E3220366E39
:103B9000000E3320376E2EC0D9FF2FC0DAFF34C09D
:103BA000DEFF35C0DEFF36C0DEFF37C0DEFF8ED061
:103BB00064CF30F0316A326A336A2EC0D9FF2FC029
:103BC000DAFF30C0DEFF31C0DEFF32C0DEFF33C0BF
:103BD000DEFF63CF30F0316A326A336A32C033F0CD
:103BE00031C032F030C031F0306A2EC0D9FF2FC062
:103BF000DAFF3050DE263150DE223250DE223350E2
:103C0000DE2262A00DD02EC0D9FF2FC0DAFF000E39
:103C1000DE12000EDE12010EDE12000EDE1200D0E9
:103C200062A20DD02EC0D9FF2FC0DAFF000EDE1227
:103C3000000EDE12020EDE12000EDE1200D062AAAC
:103C40000DD02EC0D9FF2FC0DAFF000EDE12000EFD
:103C5000DE12040EDE12000EDE1200D062AC0DD0B9
:103C60002EC0D9FF2FC0DAFF000EDE12000EDE12CA
:103C7000080EDE12000EDE1200D062AE0DD02EC095
:103C8000D9FF2FC0DAFF000EDE12000EDE12100E7A
:103C9000DE12000EDE1200D061CF30F0316A326ADF
:103CA000336A150ED8903036313632363336E82E38
:103CB000F9D72EC0D9FF2FC0DAFF3050DE123150B5
:103CC000DE123250DE123350DE1200D0609E12003F
:103CD00012000001806F00018005D8A457D00001B8
:103CE0007B29D8A453D077C07CF078C07DF079C010
:103CF0007EF07AC07FF0040E06D00001D8907F33AA
:103D00007E337D337C33E82EF8D77CC081F07DC0D4
:103D100082F07EC083F07FC084F0000181510001F9
:103D2000816F826B836B846B81C018FF070E00016B
:103D300077150001816F000E000178150001826F78
:103D4000000E000179150001836F000E00017A1545
:103D50000001846F81C07CF082C07DF083C07EF062
:103D600084C07FF0050ED89000017C377D377E3708
:103D70007F37E82EF8D77CC081F07DC082F07EC00E
:103D800083F07FC084F081C019FF00D0020E0001D3
:103D90008019D8A457D000017B29D8A453D077C06C
:103DA0007CF078C07DF079C07EF07AC07FF0040EA0
:103DB00006D00001D8907F337E337D337C33E82EEC
:103DC000F8D77CC081F07DC082F07EC083F07FC0D8
:103DD00084F0000181510001816F826B836B846BE1
:103DE00081C01CFF070E000177150001816F000ED6
:103DF000000178150001826F000E000179150001A5
:103E0000836F000E00017A150001846F81C07CF081
:103E100082C07DF083C07EF084C07FF0050ED89014
:103E200000017C377D377E377F37E82EF8D77CC09E
:103E300081F07DC082F07EC083F07FC084F081C0BD
:103E40001DFF00D000018005D8A489D0F70E000125
:103E50007B19D8A484D0000177510001816F826B57
:103E6000836B846B81C01BFF000E0001771500017E
:103E7000816FFF0E000178150001826F000E0001B6
:103E800079150001836F000E00017A150001846F1F
:103E900081C07CF082C07DF083C07EF084C07FF062
:103EA0007DC07CF07EC07DF07FC07EF000017F6B26
:103EB0007CC081F07DC082F07EC083F07FC084F042
:103EC00081C01AFF000179A103D00F01198102D02E
:103ED0000F011991000179A303D00F01198302D0BA
:103EE0000F011993000179A503D00F01198B02D09E
:103EF0000F01199B000179A703D00F01198D02D082
:103F00000F01199D000179A903D00F01198F03D06A
:103F10000F01199F00D077C07CF078C07DF079C088
:103F20007EF07AC07FF0160E06D00001D8907F3365
:103F30007E337D337C33E82EF8D77CC081F07DC0A2
:103F400082F07EC083F07FC084F0000181510001C7
:103F5000816F826B836B846B81C018FF00D0020E6F
:103F600000018019D8A41200F70E00017B19D8A413
:103F70001200000177510001816F826B836B846BAB
:103F800081C01FFF000E000177150001816FFF0E39
:103F9000000178150001826F000E00017915000103
:103FA000836F000E00017A150001846F81C07CF0E0
:103FB00082C07DF083C07EF084C07FF07DC07CF045
:103FC0007EC07DF07FC07EF000017F6B7CC081F001
:103FD0007DC082F07EC083F07FC084F081C01EFF70
:103FE000000179A103D00F011D8102D00F011D91A5
:103FF000000179A303D00F011D8302D00F011D938F
:10400000000179A503D00F011D8B02D00F011D9B6C
:10401000000179A703D00F011D8D02D00F011D9D56
:10402000000179A903D00F011D8F03D00F011D9F3F
:1040300000D077C07CF078C07DF079C07EF07AC087
:104040007FF0160E06D00001D8907F337E337D338B
:104050007C33E82EF8D77CC081F07DC082F07EC032
:1040600083F07FC084F0000181510001816F826B79
:10407000836B846B81C01CFF12001200000E0001D4
:10408000B36F000EB46F800EB56F3F0EB66F94C164
:10409000AFF095C1B0F096C1B1F097C1B2F0AFECFE
:1040A00031F0AFC0B7F0B0C0B8F0B1C0B9F0B2C035
:1040B000BAF01AEC2EF00001D8B00FD0000E0101BA
:1040C000436F210E426F000E0101946F000E956F39
:1040D000000E966F000E976F1200000E0101986F90
:1040E000000E996F800E9A6F3F0E9B6F94C185F002
:1040F00095C186F096C187F097C188F094C181F090
:1041000095C182F096C183F097C184F09BEC2AF0B0
:1041100081C0ABF082C0ACF083C0ADF084C0AEF023
:10412000CEEC31F0ABC09FF0ACC0A0F0ADC0A1F0C0
:10413000AEC0A2F0000E0001A36F000EA46F800EAF
:10414000A56F3F0EA66F5EEC23F09FC09CF1A0C050
:104150009DF1A1C09EF1A2C09FF19CC1D1F09DC173
:10416000D2F09EC1D3F09FC1D4F0E9EC26F0D1C0CB
:10417000A8F1D2C0A9F1D3C0AAF1D4C0ABF194C1C7
:10418000AFF095C1B0F096C1B1F097C1B2F0AFEC0D
:1041900031F0AFC0B3F0B0C0B4F0B1C0B5F0B2C050
:1041A000B6F08F0E0001B76FC20EB86F350EB96F43
:1041B0003F0EBA6F1AEC2EF00001D8B02DD094C18A
:1041C00090F095C191F096C192F097C193F0A8C17B
:1041D00094F0A9C195F0AAC196F0ABC197F04DEC4F
:1041E0002BF090C0ACF191C0ADF192C0AEF193C094
:1041F000AFF1ACC1BFF0ADC1C0F0AEC1C1F0AFC155
:10420000C2F094EC24F0BFC094F1C0C095F1C1C0DD
:1042100096F1C2C097F11200010197AF6ED094C120
:1042200094F095C195F096C196F097C197F0A8C10A
:10423000ABF0A9C1ACF0AAC1ADF0ABC1AEF0CEEC11
:1042400031F0ABC090F0ACC091F0ADC092F0AEC018
:1042500093F04DEC2BF090C0ACF191C0ADF192C059
:10426000AEF193C0AFF1ACC1BFF0ADC1C0F0AEC113
:10427000C1F0AFC1C2F094EC24F0BFC0A4F1C0C043
:10428000A5F1C1C0A6F1C2C0A7F1DB0E0001A36F6A
:104290000F0EA46FC90EA56F3F0EA66FA4C1ABF0A1
:1042A000A5C1ACF0A6C1ADF0A7C1AEF0CEEC31F027
:1042B000ABC09FF0ACC0A0F0ADC0A1F0AEC0A2F00A
:1042C0005EEC23F09FC0A0F1A0C0A1F1A1C0A2F1BB
:1042D000A2C0A3F1A0C1ABF0A1C1ACF0A2C1ADF0EE
:1042E000A3C1AEF0CEEC31F0ABC094F1ACC095F10F
:1042F000ADC096F1AEC097F1120094C194F095C193
:1043000095F096C196F097C197F0A8C190F0A9C119
:1043100091F0AAC192F0ABC193F04DEC2BF090C09C
:10432000ACF191C0ADF192C0AEF193C0AFF1ACC1B0
:10433000BFF0ADC1C0F0AEC1C1F0AFC1C2F094ECEE
:1043400024F0BFC0A4F1C0C0A5F1C1C0A6F1C2C095
:10435000A7F1A4C1ABF0A5C1ACF0A6C1ADF0A7C157
:10436000AEF0CEEC31F0ABC09FF0ACC0A0F0ADC071
:10437000A1F0AEC0A2F0DB0E0001A36F0F0EA46F80
:10438000C90EA56F3F0EA66F5EEC23F09FC094F19F
:10439000A0C095F1A1C096F1A2C097F11200120041
:1043A000000E01018F6F0001D4AF16D0D1C0ABF069
:1043B000D2C0ACF0D3C0ADF0D4C0AEF0CEEC31F092
:1043C000ABC0D1F0ACC0D2F0ADC0D3F0AEC0D4F031
:1043D000010E01018F6F00D0D1C081F0D2C082F0F8
:1043E000D3C083F0D4C084F0830E0001856FF90E32
:1043F000866F220E876F3E0E886F9BEC2AF081C07D
:10440000D1F082C0D2F083C0D3F084C0D4F0D1C048
:10441000C9F0D2C0CAF0D3C0CBF0D4C0CCF0D1C068
:10442000BFF0D2C0C0F0D3C0C1F0D4C0C2F0E8EC3D
:104430002BF0BFC0CDF0C0C0CEF0C1C0CFF0C2C025
:10444000D0F001EC31F0C9C0D1F0CAC0D2F0CBC07D
:10445000D3F0CCC0D4F0D1C081F0D2C082F0D3C0B0
:1044600083F0D4C084F0000E0001856F000E866FCB
:10447000800E876F400E886F9BEC2AF081C0D1F0D0
:1044800082C0D2F083C0D3F084C0D4F0000E00010B
:10449000B36F000EB46F000EB56F400EB66FD1C093
:1044A000B7F0D2C0B8F0D3C0B9F0D4C0BAF01AECAB
:1044B0002EF00001D8B026D0D1C0C9F0D2C0CAF0C9
:1044C000D3C0CBF0D4C0CCF0000E0001CD6F000EF5
:1044D000CE6F000ECF6F400ED06F01EC31F0C9C02F
:1044E000D1F0CAC0D2F0CBC0D3F0CCC0D4F001011F
:1044F0008F510101D8A402D0010E01D0000E01019C
:104500008F6F00D0000E0001B36F000EB46F800EED
:10451000B56F3F0EB66FD1C0B7F0D2C0B8F0D3C000
:10452000B9F0D4C0BAF01AEC2EF00001D8B025D002
:10453000D1C0ABF0D2C0ACF0D3C0ADF0D4C0AEF0BF
:10454000CEEC31F0ABC09FF0ACC0A0F0ADC0A1F09C
:10455000AEC0A2F0000E0001A36F000EA46F000E0B
:10456000A56F400EA66F5EEC23F09FC0D1F0A0C0F7
:10457000D2F0A1C0D3F0A2C0D4F0D1C081F0D2C09B
:1045800082F0D3C083F0D4C084F0D1C085F0D2C013
:1045900086F0D3C087F0D4C088F09BEC2AF081C0AD
:1045A0008BF182C08CF183C08DF184C08EF18BC100
:1045B000ABF08CC1ACF08DC1ADF08EC1AEF0410E50
:1045C0000001AF6F0D0E0001B06F000E0001B26F61
:1045D000030EB16F06EC2DF0ABC083F1ACC084F1DB
:1045E000ADC085F1AEC086F183C194F084C195F071
:1045F00085C196F086C197F0000E0001B26F040EDF
:10460000B16F2D0E0001AF6F0D0E0001B06F8BC1A9
:10461000ABF08CC1ACF08DC1ADF08EC1AEF006EC4C
:104620002DF0ABC090F0ACC091F0ADC092F0AEC038
:1046300093F04DEC2BF090C087F191C088F192C0BF
:1046400089F193C08AF1D1C081F0D2C082F0D3C089
:1046500083F0D4C084F087C185F088C186F089C119
:1046600087F08AC188F09BEC2AF081C0D1F082C02B
:10467000D2F083C0D3F084C0D4F001018F51010186
:10468000D8B413D0D1C0ABF0D2C0ACF0D3C0ADF031
:10469000D4C0AEF0CEEC31F0ABC0D1F0ACC0D2F0B3
:1046A000ADC0D3F0AEC0D4F01200D1C0D1F0D2C0B2
:1046B000D2F0D3C0D3F0D4C0D4F012000001A135A1
:1046C000A2350001AA6F0001A535A6350001A96F2A
:1046D0000001AA510001D8B411D00001A951000174
:1046E000AA5DD8B014D00001AA5100080001A92584
:1046F0000001A76F200E0001A76509D0A3C09FF09D
:10470000A4C0A0F0A5C0A1F0A6C0A2F012000001B4
:10471000A9510001D8B411D00001AA510001A95D2E
:10472000D8B014D00001A95100080001AA25000149
:10473000A76F200E0001A76509D09FC09FF0A0C001
:10474000A0F0A1C0A1F0A2C0A2F01200060E0001CC
:10475000A86F0001A2AF03D00001A88F00D0000114
:10476000A6AF02D00001A88D0001A18FFF0E0001AD
:104770009F17FF0EA017FF0EA117000EA217000132
:10478000A58FFF0E0001A317FF0EA417FF0EA5179C
:10479000000EA6170001A9510001AA5DD8B02AD0C9
:1047A0000001D890A337A437A537A6370001A90781
:1047B0000001AA510001A919D8B414D00001A8071A
:1047C000A8C0A7F0070E0001A717D8B40BD0E8D7F0
:1047D00009D00001D890A233A133A0339F33000148
:1047E000AA2B00D00001A9510001AA19D8B432D0D7
:1047F000F0D730D00001AA510001A95DD8B02AD06D
:104800000001D8909F37A037A137A2370001AA072F
:104810000001AA510001A919D8B414D00001A807B9
:10482000A8C0A7F0070E0001A717D8B40BD0E8D78F
:1048300009D00001D890A633A533A433A3330001D7
:10484000A92B00D00001A9510001AA19D8B402D0A7
:10485000F0D700D00001A8AF11D0FF0E00019F1BC0
:10486000FF0EA01BFF0EA11BFF0EA21B010E0001DD
:104870009F27000EA023A123A22300D00001A8ADF2
:1048800011D0FF0E0001A31BFF0EA41BFF0EA51BE2
:10489000FF0EA61B010E0001A327000EA423A523D3
:1048A000A62300D0000E0001A86F00019F51000157
:1048B000A3270001A0510001A4230001A151000180
:1048C000A5230001A2510001A6230001A6AF14D028
:1048D000FF0E0001A31BFF0EA41BFF0EA51BFF0E66
:1048E000A61B010E0001A327000EA423A523A623C7
:1048F000010E0001A86F00D0A3C077F0A4C078F02B
:10490000A5C079F0A6C07AF0AAC07BF0A8C07CF060
:10491000DBEC29F077C09FF078C0A0F079C0A1F05F
:104920007AC0A2F012001200BFC0AFF0C0C0B0F059
:10493000C1C0B1F0C2C0B2F0AFEC31F0AFC0D0F046
:10494000B0C0D1F0B1C0D2F0B2C0D3F00001D051AC
:104950000001D1110001D2110001D311D8A40AD055
:10496000000E0001BF6F000EC06F000EC16F000E81
:10497000C26F1200000E0001B36F000EB46F800E04
:10498000B56F3F0EB66FD0C0B7F0D1C0B8F0D2C08F
:10499000B9F0D3C0BAF01AEC2EF00001D8B002D0B2
:1049A000010E01D0000E0001CB6F0001CB51D8B435
:1049B0001BD0000E0001906F000E916F800E926F61
:1049C0003F0E936FD0C094F0D1C095F0D2C096F056
:1049D000D3C097F04DEC2BF090C0D0F091C0D1F047
:1049E00092C0D2F093C0D3F0D0C081F0D1C082F099
:1049F000D2C083F0D3C084F0D0C085F0D1C086F09F
:104A0000D2C087F0D3C088F09BEC2AF081C0CCF0F4
:104A100082C0CDF083C0CEF084C0CFF0CCC0ABF06C
:104A2000CDC0ACF0CEC0ADF0CFC0AEF0190E0001DD
:104A3000AF6F0D0E0001B06F000E0001B26F040EDB
:104A4000B16F06EC2DF0ABC0C3F0ACC0C4F0ADC08C
:104A5000C5F0AEC0C6F0CCC0ABF0CDC0ACF0CEC09F
:104A6000ADF0CFC0AEF0010E0001AF6F0D0E000132
:104A7000B06F000E0001B26F050EB16F06EC2DF0A5
:104A8000ABC0C7F0ACC0C8F0ADC0C9F0AEC0CAF092
:104A9000D0C081F0D1C082F0D2C083F0D3C084F006
:104AA000C3C094F0C4C095F0C5C096F0C6C097F0DE
:104AB000C7C090F0C8C091F0C9C092F0CAC093F0CE
:104AC0004DEC2BF090C085F091C086F092C087F03D
:104AD00093C088F09BEC2AF081C0D0F082C0D1F066
:104AE00083C0D2F084C0D3F00001CB510001D8B410
:104AF00026D0D0C0ABF0D1C0ACF0D2C0ADF0D3C0A6
:104B0000AEF0CEEC31F0ABC09FF0ACC0A0F0ADC0C9
:104B1000A1F0AEC0A2F0DB0E0001A36F0F0EA46FD8
:104B2000C90EA56F3F0EA66F5EEC23F09FC0D0F0BC
:104B3000A0C0D1F0A1C0D2F0A2C0D3F000D000013B
:104B4000C2BF09D0D0C0BFF0D1C0C0F0D2C0C1F048
:104B5000D3C0C2F01200D0C0ABF0D1C0ACF0D2C014
:104B6000ADF0D3C0AEF0CEEC31F0ABC0BFF0ACC016
:104B7000C0F0ADC0C1F0AEC0C2F01200120020EE15
:104B800003F0DECFB0F1DDCFB1F10101B01FB11FF5
:104B9000B04BB12B01500101B0250001776F0250DD
:104BA0000101B1210001786F71EC32F077C081F022
:104BB00078C082F089EC31F081C0D9F082C0DAF09F
:104BC00083C0DBF084C0DCF0D9C0B3F0DAC0B4F04D
:104BD000DBC0B5F0DCC0B6F0000E0001B76F000E10
:104BE000B86FF00EB96F410EBA6F1AEC2EF00001DB
:104BF000D8B0E8D0025003E11E0E015CD8B012001C
:104C0000045003E11E0E035CD8B01200D9C085F039
:104C1000DAC086F0DBC087F0DCC088F0D9C081F054
:104C2000DAC082F0DBC083F0DCC084F09BEC2AF0B9
:104C300081C09FF082C0A0F083C0A1F084C0A2F028
:104C4000000E0001A36F000EA46F100EA56F420EA0
:104C5000A66F5EEC23F09FC015F0A0C016F0A1C0B7
:104C600017F0A2C018F015C0D1F016C0D2F017C0CE
:104C7000D3F018C0D4F0E9EC26F0D1C015F0D2C0C2
:104C800016F0D3C017F0D4C018F0D9C090F0DAC035
:104C900091F0DBC092F0DCC093F015C094F016C028
:104CA00095F017C096F018C097F04DEC2BF090C01F
:104CB000DDF091C0DEF092C0DFF093C0E0F0DDC027
:104CC00094F1DEC095F1DFC096F1E0C097F13EECC3
:104CD00020F094C1DDF095C1DEF096C1DFF097C100
:104CE000E0F0DB0E0001946F0F0E956F490E966F8A
:104CF000400E976FDDC090F0DEC091F0DFC092F003
:104D0000E0C093F04DEC2BF090C081F091C082F0A8
:104D100092C083F093C084F0000E0001856F000EF6
:104D2000866F340E876F430E886F9BEC2AF081C02C
:104D3000DDF082C0DEF083C0DFF084C0E0F0DDC0D3
:104D4000AFF0DEC0B0F0DFC0B1F0E0C0B2F079EC9F
:104D50002CF00001AF5101015B6F0350015C045066
:104D60000258D8B002D0000E01D0010E01015C6FD4
:104D700000D00001D951111814E10001DA511218C4
:104D800010E10001DB5113180CE10001DC51141893
:104D9000D8A407D0000E57B6010E01015C19D8B493
:104DA0001200D9C011F0DAC012F0DBC013F0DCC081
:104DB00014F001015CB102D0579601D0578693ECF4
:104DC0002DF01200000E01015B6F93EC2DF012002C
:104DD0001200000E0001B36F000EB46F000EB56F2D
:104DE000000EB66FD1C0B7F0D2C0B8F0D3C0B9F0E2
:104DF000D4C0BAF01AEC2EF00001D8A012D00001F5
:104E0000D4AF05D0000E0101436F210E426F000E9A
:104E10000001D16F000ED26F000ED36F000ED46F61
:104E20001200D1C087F1D2C088F1D3C089F1D4C0BB
:104E30008AF1D1C0D5F0D2C0D6F0D3C0D7F0D4C05B
:104E4000D8F00001D51FD61FD71FD81FD52B000EB5
:104E5000D623D723D8235E0E0001D5250101906FFC
:104E6000C80E0001D6210101916F6E0E0001D721FD
:104E70000101926FBE0E0001D8210101936F010163
:104E8000D8909333923391339033000E0101875FB2
:104E9000000E885B800E895B000E8A5B040E0101A8
:104EA0008B6F00D090C183F191C184F192C185F1E3
:104EB00093C186F190C181F091C182F092C183F0DB
:104EC00093C184F087C185F088C186F089C187F0DD
:104ED0008AC188F09BEC2AF081C08CF182C08DF1F0
:104EE00083C08EF184C08FF18CC181F08DC182F0BE
:104EF0008EC183F08FC184F090C185F091C186F09E
:104F000092C187F093C188F09BEC2AF081C08CF1AC
:104F100082C08DF183C08EF184C08FF18CC181F08D
:104F20008DC182F08EC183F08FC184F090C185F075
:104F300091C186F092C187F093C188F09BEC2AF072
:104F400081C08CF182C08DF183C08EF184C08FF15D
:104F500090C181F091C182F092C183F093C184F03D
:104F6000000E0001856F000E866FC00E876F3F0E2A
:104F7000886F9BEC2AF081C090F182C091F183C0D0
:104F800092F184C093F190C1C9F091C1CAF092C16D
:104F9000CBF093C1CCF08CC1CDF08DC1CEF08EC1E1
:104FA000CFF08FC1D0F001EC31F0C9C090F1CAC090
:104FB00091F1CBC092F1CCC093F101018B2F72D74C
:104FC00000D090C181F091C182F092C183F093C171
:104FD00084F0D1C085F0D2C086F0D3C087F0D4C0B1
:104FE00088F09BEC2AF081C0D1F082C0D2F083C05F
:104FF000D3F084C0D4F012001200EFD0BFEC25F043
:10500000025004E1330E015CD8A024D057A802D08E
:105010001FD000D09BEC32F00009D8B4FBD70A0EA9
:105020000001776F000E786F000E796F000E7A6FB7
:10503000530E00017B6F010E00017C6F080E000112
:105040007D6FFC0E00017E6FD9EC11F0578800D007
:105050008A8827D08A9820EE03F0DECFDCF1DDCFFE
:10506000DDF10101DC1FDD1FDC4BDD2B01500101F7
:10507000DC250001776F02500101DD210001786F0E
:1050800071EC32F077C081F078C082F089EC31F0B9
:1050900081C0D9F082C0DAF083C0DBF084C0DCF0DC
:1050A00000D0025031E1320E015CD8B02DD057A8AB
:1050B0002BD0045029E1320E035CD8B025D000017A
:1050C000E72B010E0001E7651FD0579800D09BEC3D
:1050D00032F00009D8B4FBD7090E0001776F000E3B
:1050E000786F000E796F000E7A6F530E00017B6FA0
:1050F000010E00017C6F080E00017D6FFC0E0001A7
:105100007E6FD9EC11F000D056AC67D0FBEC18F0F4
:1051100028C1B3F029C1B4F02AC1B5F02BC1B6F053
:10512000E3C081F0E4C082F041EC32F081C0B7F01E
:1051300082C0B8F083C0B9F084C0BAF01AEC2EF087
:105140000001D8B047D0818A010E0101536F0D0EC6
:105150000001776F000E786F000E796F000E7A6F86
:10516000530E00017B6F010E00017C6F010E0001E8
:105170007D6FBC0E00017E6FD9EC11F057BA2DD0B7
:1051800002502BE1280E015CD8B027D0320E01016D
:10519000736F568400D09BEC32F00009D8B4FBD773
:1051A0000F0E0001776F000E786F000E796F000E02
:1051B0007A6F730E00017B6F010E00017C6F080E89
:1051C00000017D6FBC0E00017E6FD9EC11F0569E80
:1051D000578A03D0569C819A00D056A2120081BAF9
:1051E00012000CD71200120000018E6F800EBEEC70
:1051F00032F0000E706E000E716E000E726E0001C5
:105200008741E842C00B0001876F0001875170128F
:1052100000018851701200018E5171120001853910
:10522000E842F80B0001856F000185517112000101
:1052300089A5718C000189A102D0718E00D0000176
:1052400086517212000189A302D0728C00D0000135
:105250008951600B606E00018951100BFF0AD8B4B0
:10526000608460CF50FF000E0001776F000E786FF2
:10527000000E796F000E7A6FF70E00017B6F010E42
:1052800069EC1EF0000E0001776F000E786F000EC3
:10529000796F000E7A6FF70E00017B6F020E69ECDA
:1052A0001EF00FD0F70E00018F6F07D000018F693D
:1052B0000001906928D000018F69F70E0001906FFE
:1052C00022D09F0E00018A6FFF0E00018B6F00013C
:1052D0008951600B00018C6F8D6B00018A510001B8
:1052E0008C1300018B5100018D1300018D51000AB8
:1052F000D8A4E1D700018C51BF0AD8B4D7D7600A2F
:10530000D8B4D0D7D8D7000E0001776F000E786FD1
:10531000000E796F000E7A6F8FC07BF0000E44ECA8
:105320000CF0000E0001776F000E786F000E796FA1
:10533000000E7A6F8FC07BF0010E44EC0CF0000E73
:105340000001776F000E786F000E796F000E7A6F94
:1053500090C07BF0020E44EC0CF0000E0001776F61
:10536000000E786F000E796F000E7A6F90C07BF0A0
:10537000030E44EC0CF0000E0001776F000E786F06
:10538000000E796F000E7A6F90C07BF0040E44EC33
:105390000CF0000E0001776F000E786F000E796F31
:1053A000000E7A6F90C07BF0050E44EC0CF0000EFE
:1053B000BEEC32F0120000017B510001D8B40AD0DB
:1053C00000017751000178110001791100017A1173
:1053D000D8A414D0000E0001776F000E786F000E75
:1053E000796F000E7A6F120009D000017B2B00014B
:1053F000D8907A3379337833773300D0000E0001B8
:10540000771500017D6F000E0001781500017E6F99
:10541000000E0001791500017F6FFE0E00017A1564
:105420000001806F00017D5100017E1100017F119C
:1054300000018011D8B411D0D8D70FD000017B2B38
:10544000010E00017727000E782379237A230001CB
:10545000D8907A33793378337733000E000177159B
:1054600000017D6F000E0001781500017E6F000EB7
:105470000001791500017F6FFF0E00017A15000110
:10548000806F00017D5100017E1100017F1100013C
:105490008011D8B40BD0D2D709D000017B0700010E
:1054A000D8907737783779377A3700D0000179BFCD
:1054B00005D0020E00017B61F0D700D000017BB166
:1054C00009D0FF0E00017717FF0E78177F0E7917AE
:1054D000FF0E7A170001D8907B337BC07DF000016E
:1054E0007E6B7F6B806B7DC080F000017F6B7E6B7D
:1054F0007D6B00017D510001771300017E51000199
:10550000781300017F5100017913000180510001DF
:105510007A1300017C510001D8B403D000017A8FC6
:1055200000D077C077F078C078F079C079F07AC091
:105530007AF0120012000001833584350001896F72
:1055400000018951D8A40AD0000E0001816F000E1D
:10555000826F000E836F000E846F1200000187358A
:10556000883500018F6F00018F51D8A40AD0000E3A
:105570000001816F000E826F000E836F000E846F3A
:10558000120000018F517B0F0001892784C08FF02A
:105590000001885100018F1B800E00018F17000150
:1055A000838F0001878FFF0E00018517FF0E86177E
:1055B000FF0E8717000E8817000E00018A6F000E7D
:1055C0008B6F000E8C6F000E8D6F070E00018E6FBB
:1055D00000D0000181A111D00001855100018A276E
:1055E0000001865100018B230001875100018C23AB
:1055F0000001885100018D2300D00001D890843330
:105600008333823381330001D890853786378737DB
:10561000883700018E2FDDD700D0110E00018E6F6C
:1056200000D0000181A111D00001855100018A271D
:105630000001865100018B230001875100018C235A
:105640000001885100018D2300D00001D8908433DF
:105650008333823381330001D8908D338C338B3385
:105660008A3300018E2FDDD700D08AC077F08BC03F
:1056700078F08CC079F08DC07AF089C07BF08FC053
:105680007CF0DBEC29F077C081F078C082F079C043
:1056900083F07AC084F01200120000019235933535
:1056A00000019D6F00019D51D8A40AD0000E000199
:1056B000906F000E916F000E926F000E936F1200AC
:1056C00000019635973500019E6F00019E51D8A4C8
:1056D0000AD0000E0001906F000E916F000E926FC5
:1056E000000E936F120000019E51890F00019D5F13
:1056F00093C09EF00001975100019E1B800E000197
:105700009E170001928FFF0E00019017FF0E911758
:10571000FF0E9217000E93170001968FFF0E0001E7
:105720009417FF0E9517FF0E9617000E9717200E71
:1057300000019C6F00D00001D890983799379A37B4
:105740009B37000194510001905D000195510001CB
:1057500091590001965100019259000197510001A1
:105760009359D8A013D0000194510001905F00011B
:1057700095510001915B000196510001925B00017F
:1057800097510001935B0001988100D00001D890EF
:10579000903791379237933700019C2FCCD700D0A8
:1057A00098C077F099C078F09AC079F09BC07AF0F1
:1057B0009DC07BF09EC07CF0DBEC29F077C090F0C0
:1057C00078C091F079C092F07AC093F01200120084
:1057D000BFC077F0C0C078F0C1C079F0C2C07AF025
:1057E000C70E00017B6F000E00017C6F40EC30F0B3
:1057F0000001C8AF17D00001C2AF0AD0000E0001EF
:10580000BF6F000EC06F800EC16FBF0EC26F12005F
:10581000000E0001BF6F000EC06F000EC16F000EC2
:10582000C26F12000001C85105E11D0E0001C75DE5
:10583000D8A009D0BFC0BFF0C0C0C0F0C1C0C1F087
:10584000C2C0C2F01200BFC0AFF0C0C0B0F0C1C053
:10585000B1F0C2C0B2F079EC2CF0AFC0B9F0B0C07A
:10586000BAF0B1C0BBF0B2C0BCF05DEC31F0B9C071
:10587000C3F0BAC0C4F0BBC0C5F0BCC0C6F0BFC066
:10588000B3F0C0C0B4F0C1C0B5F0C2C0B6F0C3C080
:10589000B7F0C4C0B8F0C5C0B9F0C6C0BAF01AECD1
:1058A0002EF00001D8B01CD0C3C09FF0C4C0A0F03F
:1058B000C5C0A1F0C6C0A2F0000E0001A36F000E8B
:1058C000A46F800EA56FBF0EA66F5EEC23F09FC085
:1058D000BFF0A0C0C0F0A1C0C1F0A2C0C2F01200D1
:1058E000C3C0BFF0C4C0C0F0C5C0C1F0C6C0C2F0E4
:1058F00012000001B135B2350001B86F0001B85196
:10590000D8A40AD0000E0001AF6F000EB06F000ED9
:10591000B16F000EB26F1200AFC0B3F0B0C0B4F000
:10592000B1C0B5F0B2C0B6F0200E06D00001D890DC
:10593000B633B533B433B333E82EF8D70001B351DF
:105940000001B76F0001B18FFF0E0001AF17FF0E0E
:10595000B017FF0EB117000EB217960E0001B85F18
:105960000001B8AF1BD00001B851800A970FD8B022
:105970000BD0000E0001AF6F000EB06F000EB16FC4
:10598000000EB26F120000D00001D890B233B133D4
:10599000B033AF330001B83FF7D71FD01F0E00015F
:1059A000B86514D0000E0001AF6F000EB06F000E8E
:1059B000B16F000EB26F120009D00001D890AF375E
:1059C000B037B137B2370001B80700D00001B85185
:1059D0000001D8B402D0F1D700D00001B7510001C6
:1059E000D8B40AD00001B21FB11FB01FAF6D000EB6
:1059F000B023B123B22300D0AFC0AFF0B0C0B0F03D
:105A0000B1C0B1F0B2C0B2F012001200B1C0B3F038
:105A1000B2C0B4F00001D890B337B4370001D890C9
:105A2000B337B437AFC0B5F0B0C0B6F00001B35172
:105A30000001B5270001B4510001B623B5C0F6FF3F
:105A4000B6C0F7FF000EF86E0900F5CFB7F00900F9
:105A5000F5CFB8F00900F5CFB9F00A00F5CFBAF0EC
:105A600053D0B7C085F0B8C086F0B9C087F0BAC0CF
:105A700088F0ABC081F0ACC082F0ADC083F0AEC0A6
:105A800084F09BEC2AF081C09FF082C0A0F083C01C
:105A9000A1F084C0A2F00001B107D8A0B207B1C044
:105AA000B3F0B2C0B4F00001D890B337B4370001FE
:105AB000D890B337B437AFC0B5F0B0C0B6F000017E
:105AC000B3510001B5270001B4510001B623B5C0A0
:105AD000F6FFB6C0F7FF000EF86E0900F5CFA3F091
:105AE0000900F5CFA4F00900F5CFA5F00A00F5CF25
:105AF000A6F05EEC23F09FC0B7F0A0C0B8F0A1C044
:105B0000B9F0A2C0BAF000D00001B1510001B21149
:105B1000D8A4A7D7B7C0ABF0B8C0ACF0B9C0ADF04F
:105B2000BAC0AEF0120057BC02D066D000D09BECD9
:105B300032F0E806D8A4FBD7070E0001776F000EFD
:105B4000786F000E796F000E7A6F6B0E00017B6F1D
:105B5000010E00017C6F080E00017D6FBC0E00017C
:105B60007E6FD9EC11F0E5C063F10001E65101014F
:105B7000646F000E56B8010E0101656F00D09BECFA
:105B800032F0E806D8A4FBD7050E0001776F000EAF
:105B9000786F000E796F000E7A6F630E00017B6FD5
:105BA000010E00017C6F080E00017D6FBC0E00012C
:105BB0007E6FD9EC11F0000E276E00D09BEC32F016
:105BC000E806D8A4FBD7060E0001776F000E786FA9
:105BD000000E796F000E7A6F260E00017B6F000EAB
:105BE00000017C6F080E00017D6FBC0E00017E6F0E
:105BF000D9EC11F0120000D09BEC32F0E806D8A4EA
:105C0000FBD7100E0001776F000E786F000E796FD2
:105C1000000E7A6F5B0E00017B6F010E00017C6F3E
:105C2000080E00017D6FBC0E00017E6FD9EC11F0F3
:105C3000120012000001B6AF27D0B3C0BBF0B4C051
:105C4000BCF0B5C0BDF0B6C0BEF00001BB1FBC1FAC
:105C5000BD1FBE1FBB2B000EBC23BD23BE23000EE9
:105C60000001BB250001B36F000E0001BC21000143
:105C7000B46F000E0001BD210001B56F800E000160
:105C8000BE210001B66F00D00001BAAF26D0B7C068
:105C9000BBF0B8C0BCF0B9C0BDF0BAC0BEF00001E6
:105CA000BB1FBC1FBD1FBE1FBB2B000EBC23BD23D3
:105CB000BE23000E0001BB250001B76F000E0001DE
:105CC000BC210001B86F000E0001BD210001B96FB9
:105CD000800E0001BE210001BA6F000E0001B31B4F
:105CE000000EB41B000EB51B800EB61B000E00018B
:105CF000B71B000EB81B000EB91B800EBA1B0001AB
:105D0000B7510001B35D0001B8510001B459000161
:105D1000B9510001B5590001BA510001B659D8B0C6
:105D200002D0D8901200D88012001200DB0E0001C1
:105D3000B36F0F0EB46F490EB56F400EB66FB0C1A2
:105D4000B7F0B1C1B8F0B2C1B9F0B3C1BAF01AEC52
:105D50002EF00001D8B02ED0B0C19FF0B1C1A0F09C
:105D6000B2C1A1F0B3C1A2F0E40E0001A36FCB0E4B
:105D7000A46F960EA56FC00EA66F5EEC23F09FC0B9
:105D8000B4F1A0C0B5F1A1C0B6F1A2C0B7F1B4C1E1
:105D9000D1F0B5C1D2F0B6C1D3F0B7C1D4F0D0ECD8
:105DA00021F0D1C0B0F1D2C0B1F1D3C0B2F1D4C0B2
:105DB000B3F11200B0C19FF0B1C1A0F0B2C1A1F027
:105DC000B3C1A2F0DB0E0001A36F0F0EA46FC90ECA
:105DD000A56F3F0EA66F5EEC23F09FC0B4F1A0C08C
:105DE000B5F1A1C0B6F1A2C0B7F1B4C1D1F0B5C14F
:105DF000D2F0B6C1D3F0B7C1D4F0D0EC21F0D1C00D
:105E0000B0F1D2C0B1F1D3C0B2F1D4C0B3F112003D
:105E1000120057BC02D057D000D0AEEC32F0E806EA
:105E2000D8A4FBD7070E2E6E000E2F6E000E306E1C
:105E3000000E316E6B0E326E010E336E080E346E34
:105E4000BC0E356EA9EC15F0E5C063F10001E6511A
:105E50000101646F000E56B8010E0101656F00D09C
:105E6000AEEC32F0E806D8A4FBD7050E2E6E000E7D
:105E70002F6E000E306E000E316E630E326E010E0C
:105E8000336E080E346EBC0E356EA9EC15F0000EA4
:105E9000276E00D0AEEC32F0E806D8A4FBD7060E91
:105EA0002E6E000E2F6E000E306E000E316E260E1E
:105EB000326E000E336E080E346EBC0E356EA9ECD9
:105EC00015F0120000D0AEEC32F0E806D8A4FBD7F3
:105ED000100E2E6E000E2F6E000E306E000E316E04
:105EE0005B0E326E010E336E080E346EBC0E356ED4
:105EF000A9EC15F012001200EACF6CF0E1CF6DF0C2
:105F0000E2CF6EF0D9CF6FF0DACF70F0F3CF71F04F
:105F1000F4CF72F0F6CF73F0F7CF74F0F8CF75F0DE
:105F2000F5CF76F0F1AC07D0F19C000EB36E000E09
:105F3000B26E569A31D0B3CF22F0B2CF23F022C046
:105F40001FF0206A1F500001676F23501F6E67C04B
:105F500020F0D89020300001676F1F301D6E67C0A1
:105F60001EF01DC060F01EC061F0000E0001636FE6
:105F70003A0E626F8AEC30F02150020D010EF324CC
:105F8000D96E000EF420DA6E000160C0DEFF000161
:105F900061C0DDFFF18C00D0F29276C0F5FF75C0D4
:105FA000F8FF74C0F7FF73C0F6FF72C0F4FF71C052
:105FB000F3FF70C0DAFF6FC0D9FF6EC0E2FF6DC0A3
:105FC000E1FF6CC0EAFF6BC0E9FF6AC0FBFF69C07C
:105FD000FAFF1100000E0101006F010E0101016FB7
:105FE000020E0101026F030E0101036F040E010195
:105FF000046F050E0101056F060E0101066F070E05
:106000000101076FCBEC30F08198819A819C579801
:10601000579C010E00017E6FF40E7D6FECEC31F0A9
:1060200026D0000E00017E6F0A0E7D6FECEC31F081
:1060300000D09BEC32F00009D8B4FBD78178110E68
:106040000001776F000E786F000E796F000E7A6F87
:106050007B0E00017B6F010E00017C6F020E0001C0
:106060007D6FBC0E00017E6FD9EC11F000D056A2FE
:10607000D8D7FDEC27F0A9EC06F0F9D796EF01F0A0
:1060800000017751000178110001791100017A11A6
:10609000D8A409D07BC0D9FF7CC0DAFF000EDE6E29
:1060A000000EDD6E120000017A517F0B00017D6F42
:1060B0007E6BD89000017D377E377BC0D9FF7CC0D6
:1060C000DAFF7DC0DEFF7EC0DDFF000179AF04D0C6
:1060D00000017D6B7D2B02D000017D6B00017D51A5
:1060E0007BC0D9FF7CC0DAFFDE12000EDD127BC060
:1060F000D9FF7CC0DAFF820EDE26FF0EDD227A8118
:106100007A837A857A877A897A8B7A9D0001799F5A
:1061100012001200000E0001666F000E656F000194
:10612000625100016311D8B431D0010E0001646FD7
:1061300007D00001D890623763370001642B00D08C
:10614000000163BF02D0F5D700D00001D8906537B9
:106150006637000162510001605D0001635100017A
:106160006159D8A00BD0000162510001605F0001AD
:1061700063510001615B0001658100D00001D8908E
:10618000633362330001642FE0D700D065C060F054
:1061900066C061F01200000E896EF00E926E000E65
:1061A0008A6E8A0E936E000E8B6E9468C168060E1E
:1061B0000001856F050E0001866F010E0001876FDB
:1061C000030E0001886F9D0E0001896F040EF4EC30
:1061D00028F0D08EA592A590F194A492A490F2926A
:1061E000F294A382A380F28AF298800ED56E340EC8
:1061F000D76EE00ED66E110EB16EF18CF28CF28E6F
:1062000012000001CD510001CE110001CF1100019B
:10621000D011D8B40AD0000E0001CD1B000ECE1B49
:10622000000ECF1B800ED01B00D0C9C09FF0CAC08B
:10623000A0F0CBC0A1F0CCC0A2F0CDC0A3F0CEC0E6
:10624000A4F0CFC0A5F0D0C0A6F05EEC23F09FC0B4
:10625000C9F0A0C0CAF0A1C0CBF0A2C0CCF012001F
:10626000120001EE00F0830EEE6AE806FDE100EE9A
:10627000D9F00F0EEE6AE806FDE1576A566A00EEA5
:1062800001F02D0EEE6AE806FDE1AC0EF66E650E2D
:10629000F76E000EF86E0900F5CFE0F10900F5CFBA
:1062A000E1F1AE0EF66E650EF76E000EF86E0900A7
:1062B000F5CFE8F00001EAEF2FF0000E0001BD6F0E
:1062C0000001BCAF0DD00001BC1FBB1FBA1FB96DD0
:1062D000000EBA23BB23BC23010E0001BD6F00D00A
:1062E000B9C077F0BAC078F0BBC079F0BCC07AF022
:1062F000960E00017B6FBDC07CF0DBEC29F077C00F
:10630000B9F078C0BAF079C0BBF07AC0BCF0120026
:106310001200000E0001856F000182AF08D000015D
:10632000816D821FD8B0822B0001852B00D081C0E7
:1063300077F082C078F00001796B7A6B960E0001DD
:106340007B6F85C07CF0DBEC29F077C081F078C0F2
:1063500082F079C083F07AC084F01200120000014C
:10636000B2AF13D0AFC0ABF0B0C0ACF0B1C0ADF0C5
:10637000B2C0AEF0CEEC31F0ABC0AFF0ACC0B0F01C
:10638000ADC0B1F0AEC0B2F01200AFC0AFF0B0C05F
:10639000B0F0B1C0B1F0B2C0B2F012000001AB5128
:1063A0000001AC110001AD110001AE11D8B40AD04A
:1063B000000E0001AB1B000EAC1B000EAD1B800ECF
:1063C000AE1B00D0ABC0ABF0ACC0ACF0ADC0ADF01C
:1063D000AEC0AEF012001200E8C077F00001786B9A
:1063E0007DC079F07EC07AF009EC32F077C0E1F040
:1063F00078C0E2F007D0500EE82EFED70001E1078A
:10640000D8A0E2070001E1510001E211D8A4F3D7BE
:1064100012000001775100017903F3CF7BF0F4CF34
:106420007CF00001775100017A03F35000017C27D2
:106430000001785100017903F35000017C277BC0F3
:1064400077F07CC078F012001200E8C02EF02F6ABE
:1064500034C030F035C031F087EC32F02EC0E1F0BE
:106460002FC0E2F007D0500EE82EFED70001E10762
:10647000D8A0E2070001E1510001E211D8A4F3D74E
:10648000120081C077F082C078F00001796B7A6BDE
:10649000960E00017B6F000E00017C6FDBEC29F093
:1064A00077C081F078C082F079C083F07AC084F040
