:040000002CEF01F0F0
:0E0008004882FACF69F0FBCF6AF086EF2BF04A
:100018004880D8CF11F0E8CF12F0E0CF13F0FACF34
:1000280014F0FBCF15F0E9CF16F0EACF17F0E1CFC7
:1000380018F0E2CF19F0D9CF1AF0DACF1BF0F3CFCE
:100048001CF0F4CF1DF0F6CF1EF0F7CF1FF0F8CF5D
:1000580020F0F5CF21F0F2A436D0F298D59E340ED8
:10006800D76EE00ED66ED58E44A60CD04050020D49
:10007800240EF324D96E000EF420DA6E880EDE6E9C
:10008800130EDD6E402A080E4018D8A402D0000EC8
:10009800406E000E226E4050010D000EF324D96E02
:1000A800010EF420DA6EDF50226E22C080FF93909A
:1000B8008A80140EE82EFED744868A909380F292A6
:1000C800F288F294F18CA4A0A4B201D09DD0400E85
:1000D800016E010E026EF2EC0FF00D0E01014019D7
:1000E800010141110101421101014311D8B44492A7
:1000F800070E0101401901014111010142110101DD
:100108004311D8A42DD001014E05D8B429D0000E32
:100118000001E46F000EE36F45C134F0356A3450D6
:100128000D6E01014451346E0DC035F047C136F0F3
:10013800376A36500D6E01014651366E0DC037F0E4
:10014800345036240D6E355037200E6ED8900E3050
:100158000F6E0D300001E36F0FC0E4F04488448A4D
:100168000A0E010140190101411101014211010169
:100178004311D8A40CD001014405D8A403D044806D
:10018800818C05D044908198819A819C45900C0E71
:1001980001014019010141110101421101014311FD
:1001A800D8B44584060E010140190101411101012D
:1001B800421101014311D8A425D0000E236E070E69
:1001C800236401D014D02350010D440EF324D96EBA
:1001D800010EF420DA6E2350010D080EF324E16EAF
:1001E800010EF420E26EDFCFE7FF232AE8D70D0ED9
:1001F800010140190101411101014211010143119D
:10020800D8B4449CA490A49221C0F5FF20C0F8FF64
:100218001FC0F7FF1EC0F6FF1DC0F4FF1CC0F3FF90
:100228001BC0DAFF1AC0D9FF19C0E2FF18C0E1FFEE
:1002380017C0EAFF16C0E9FF15C0FBFF14C0FAFF9C
:1002480013C0E0FF12C0E8FF11C0D8FF48901000AB
:0402580040EF2CF057
:100D000000063C04427D9F6A425C900142604DBBFC
:100D10004051EC473EDE8D1FBB063C0442C0598B60
:100D20004274044442F99B4F410000803FECF34A77
:100D300048359595C717C1DC45FDDB6DC372B333EC
:100D4000402B3401487F9DB045E7FFD94200008029
:100D50003F000001806F000180510001D8A458D0ED
:100D600000017B29D8A454D00F01019777C07CF0F3
:100D700078C07DF079C07EF07AC07FF0040E06D096
:100D80000001D8907F337E337D337C33E82EF8D753
:100D90007CC081F07DC082F07EC083F07FC084F093
:100DA000000181510001816F826B836B846B81C074
:100DB00000FF070E000177150001816F000E000192
:100DC00078150001826F000E000179150001836F14
:100DD000000E00017A150001846F81C07CF082C092
:100DE0007DF083C07EF084C07FF0050ED8900001B6
:100DF0007C377D377E377F37E82EF8D77CC081F08F
:100E00007DC082F07EC083F07FC084F081C001FF8E
:100E100000018005D8A458D000017B29D8A454D063
:100E20000F01059777C07CF078C07DF079C07EF027
:100E30007AC07FF0040E06D00001D8907F337E3355
:100E40007D337C33E82EF8D77CC081F07DC082F002
:100E50007EC083F07FC084F0000181510001816F6A
:100E6000826B836B846B81C004FF070E00017715D2
:100E70000001816F000E000178150001826F000EE5
:100E8000000179150001836F000E00017A15000141
:100E9000846F81C07CF082C07DF083C07EF084C00E
:100EA0007FF0050ED89000017C377D377E377F3785
:100EB000E82EF8D77CC081F07DC082F07EC083F040
:100EC0007FC084F081C005FF020E00018019D8A404
:100ED00058D000017B29D8A454D00F01099777C0BE
:100EE0007CF078C07DF079C07EF07AC07FF0040E8F
:100EF00006D00001D8907F337E337D337C33E82EDB
:100F0000F8D77CC081F07DC082F07EC083F07FC0C6
:100F100084F0000181510001816F826B836B846BCF
:100F200081C008FF070E000177150001816F000ED8
:100F3000000178150001826F000E00017915000193
:100F4000836F000E00017A150001846F81C07CF070
:100F500082C07DF083C07EF084C07FF0050ED89003
:100F600000017C377D377E377F37E82EF8D77CC08D
:100F700081F07DC082F07EC083F07FC084F081C0AC
:100F800009FF030E00018019D8A458D000017B2965
:100F9000D8A454D00F010D9777C07CF078C07DF0B5
:100FA00079C07EF07AC07FF0040E06D00001D890A0
:100FB0007F337E337D337C33E82EF8D77CC081F0DD
:100FC0007DC082F07EC083F07FC084F0000181513B
:100FD0000001816F826B836B846B81C00CFF070EF5
:100FE000000177150001816F000E000178150001E6
:100FF000826F000E000179150001836F000E000161
:101000007A150001846F81C07CF082C07DF083C0BE
:101010007EF084C07FF0050ED89000017C377D37CC
:101020007E377F37E82EF8D77CC081F07DC082F014
:101030007EC083F07FC084F081C00DFF040E0001EC
:101040008019D8A458D000017B29D8A454D00F010E
:10105000119777C07CF078C07DF079C07EF07AC0BF
:101060007FF0040E06D00001D8907F337E337D33AD
:101070007C33E82EF8D77CC081F07DC082F07EC042
:1010800083F07FC084F0000181510001816F826B89
:10109000836B846B81C010FF070E00017715000180
:1010A000816F000E000178150001826F000E0001B3
:1010B00079150001836F000E00017A150001846F1D
:1010C00081C07CF082C07DF083C07EF084C07FF060
:1010D000050ED89000017C377D377E377F37E82EAC
:1010E000F8D77CC081F07DC082F07EC083F07FC0E5
:1010F00084F081C011FF050E00018019D8A458D0DA
:1011000000017B29D8A454D00F01159777C07CF03B
:1011100078C07DF079C07EF07AC07FF0040E06D0F2
:101120000001D8907F337E337D337C33E82EF8D7AF
:101130007CC081F07DC082F07EC083F07FC084F0EF
:10114000000181510001816F826B836B846B81C0D0
:1011500014FF070E000177150001816F000E0001DA
:1011600078150001826F000E000179150001836F70
:10117000000E00017A150001846F81C07CF082C0EE
:101180007DF083C07EF084C07FF0050ED890000112
:101190007C377D377E377F37E82EF8D77CC081F0EB
:1011A0007DC082F07EC083F07FC084F081C015FFD7
:1011B000000180510001D8A489D0F70E00017B19ED
:1011C000D8A484D00F010187000177510001816FFD
:1011D000826B836B846B81C003FF000E0001771567
:1011E0000001816FFF0E000178150001826F000E73
:1011F000000179150001836F000E00017A150001CE
:10120000846F81C07CF082C07DF083C07EF084C09A
:101210007FF07DC07CF07EC07DF07FC07EF000015D
:101220007F6B7CC081F07DC082F07EC083F07FC088
:1012300084F081C002FF000179A103D00F01018178
:1012400002D00F010191000179A303D00F010183A6
:1012500002D00F010193000179A503D00F01018B8A
:1012600002D00F01019B000179A703D00F01018D6E
:1012700002D00F01019D000179A903D00F01018F58
:1012800002D00F01019F77C07CF078C07DF079C05B
:101290007EF07AC07FF0160E06D00001D8907F3322
:1012A0007E337D337C33E82EF8D77CC081F07DC05F
:1012B00082F07EC083F07FC084F000018151000184
:1012C000816F826B836B846B81C000FF000180059E
:1012D000D8A489D0F70E00017B19D8A484D00F01BF
:1012E0000587000177510001816F826B836B846BEE
:1012F00081C007FF000E000177150001816FFF0E0E
:10130000000178150001826F000E000179150001BF
:10131000836F000E00017A150001846F81C07CF09C
:1013200082C07DF083C07EF084C07FF07DC07CF001
:101330007EC07DF07FC07EF000017F6B7CC081F0BD
:101340007DC082F07EC083F07FC084F081C006FF44
:10135000000179A103D00F01058102D00F01059191
:10136000000179A303D00F01058302D00F0105937B
:10137000000179A503D00F01058B02D00F01059B59
:10138000000179A703D00F01058D02D00F01059D43
:10139000000179A903D00F01058F02D00F01059F2D
:1013A00077C07CF078C07DF079C07EF07AC07FF0A5
:1013B000160E06D00001D8907F337E337D337C3308
:1013C000E82EF8D77CC081F07DC082F07EC083F02B
:1013D0007FC084F0000181510001816F826B836BBB
:1013E000846B81C004FF020E00018019D8A489D04B
:1013F000F70E00017B19D8A484D00F0109870001E2
:1014000077510001816F826B836B846B81C00BFF0E
:10141000000E000177150001816FFF0E00017815A5
:101420000001826F000E000179150001836F000E2C
:1014300000017A150001846F81C07CF082C07DF0CC
:1014400083C07EF084C07FF07DC07CF07EC07DF0E4
:101450007FC07EF000017F6B7CC081F07DC082F098
:101460007EC083F07FC084F081C00AFF000179A1B3
:1014700003D00F01098102D00F010991000179A366
:1014800003D00F01098302D00F010993000179A550
:1014900003D00F01098B02D00F01099B000179A72E
:1014A00003D00F01098D02D00F01099D000179A918
:1014B00003D00F01098F02D00F01099F77C07CF084
:1014C00078C07DF079C07EF07AC07FF0160E06D02D
:1014D0000001D8907F337E337D337C33E82EF8D7FC
:1014E0007CC081F07DC082F07EC083F07FC084F03C
:1014F000000181510001816F826B836B846B81C01D
:1015000008FF030E00018019D8A489D0F70E00014E
:101510007B19D8A484D00F010D87000177510001F9
:10152000816F826B836B846B81C00FFF000E0001A3
:1015300077150001816FFF0E000178150001826FA1
:10154000000E000179150001836F000E00017A156D
:101550000001846F81C07CF082C07DF083C07EF08A
:1015600084C07FF07DC07CF07EC07DF07FC07EF0C7
:1015700000017F6B7CC081F07DC082F07EC083F073
:101580007FC084F081C00EFF000179A103D00F015C
:101590000D8102D00F010D91000179A303D00F013D
:1015A0000D8302D00F010D93000179A503D00F0127
:1015B0000D8B02D00F010D9B000179A703D00F0105
:1015C0000D8D02D00F010D9D000179A903D00F01EF
:1015D0000D8F02D00F010D9F77C07CF078C07DF099
:1015E00079C07EF07AC07FF0160E06D00001D89048
:1015F0007F337E337D337C33E82EF8D77CC081F097
:101600007DC082F07EC083F07FC084F000018151F4
:101610000001816F826B836B846B81C00CFF040EB1
:1016200000018019D8A489D0F70E00017B19D8A435
:1016300084D00F011187000177510001816F826B07
:10164000836B846B81C013FF000E000177150001CE
:10165000816FFF0E000178150001826F000E0001FE
:1016600079150001836F000E00017A150001846F67
:1016700081C07CF082C07DF083C07EF084C07FF0AA
:101680007DC07CF07EC07DF07FC07EF000017F6B6E
:101690007CC081F07DC082F07EC083F07FC084F08A
:1016A00081C012FF000179A103D00F01118102D086
:1016B0000F011191000179A303D00F01118302D012
:1016C0000F011193000179A503D00F01118B02D0F6
:1016D0000F01119B000179A703D00F01118D02D0DA
:1016E0000F01119D000179A903D00F01118F02D0C4
:1016F0000F01119F77C07CF078C07DF079C07EF03B
:101700007AC07FF0160E06D00001D8907F337E336A
:101710007D337C33E82EF8D77CC081F07DC082F029
:101720007EC083F07FC084F0000181510001816F91
:10173000826B836B846B81C010FF050E00018019E2
:10174000D8A41200F70E00017B19D8A412000F01D3
:101750001587000177510001816F826B836B846B69
:1017600081C017FF000E000177150001816FFF0E89
:10177000000178150001826F000E0001791500014B
:10178000836F000E00017A150001846F81C07CF028
:1017900082C07DF083C07EF084C07FF07DC07CF08D
:1017A0007EC07DF07FC07EF000017F6B7CC081F049
:1017B0007DC082F07EC083F07FC084F081C016FFC0
:1017C000000179A103D00F01158102D00F011591FD
:1017D000000179A303D00F01158302D00F011593E7
:1017E000000179A503D00F01158B02D00F01159BC5
:1017F000000179A703D00F01158D02D00F01159DAF
:10180000000179A903D00F01158F02D00F01159F98
:1018100077C07CF078C07DF079C07EF07AC07FF030
:10182000160E06D00001D8907F337E337D337C3393
:10183000E82EF8D77CC081F07DC082F07EC083F0B6
:101840007FC084F0000181510001816F826B836B46
:10185000846B81C014FF12000F0140B73FD17DC0DF
:1018600045FF00017EAD03D00F01458D02D00F0171
:10187000459D00017EA779D0000177510001836F5B
:10188000846B856B866B83C044FF000E0001771567
:101890000001836FFF0E000178150001846F000EB8
:1018A000000179150001856F000E00017A15000115
:1018B000866F83C07FF084C080F085C081F086C0D1
:1018C00082F080C07FF081C080F082C081F0000192
:1018D000826B7FC083F080C084F081C085F082C0BD
:1018E00086F083C043FF000E0F01426F0F01428755
:1018F000000179A102D00F014281000179A302D039
:101900000F014283000179A502D00F01428B000133
:1019100079A702D00F01428D000179A902D00F01F1
:10192000428F77C07FF078C080F079C081F07AC0B4
:1019300082F0160E06D00001D890823381338033B6
:101940007F33E82EF8D77FC083F080C084F081C059
:1019500085F082C086F0000183510001836F846BA3
:10196000856B866B83C041FF59D00F01429777C0CA
:101970007FF078C080F079C081F07AC082F0040EE8
:1019800006D00001D8908233813380337F33E82E34
:10199000F8D77FC083F080C084F081C085F082C01A
:1019A00086F0000183510001836F846B856B866B29
:1019B00083C041FF070E000177150001836F000E01
:1019C000000178150001846F000E000179150001F7
:1019D000856F000E00017A150001866F83C07FF0CD
:1019E00084C080F085C081F086C082F0050ED8905A
:1019F00000017F37803781378237E82EF8D77FC0E4
:101A000083F080C084F081C085F082C086F00F0131
:101A100042511F0B0F01426F83C042FF00017EA1A4
:101A200003D00F01408102D00F01409100017EA33D
:101A300003D00F01408302D00F0140937BC0D9FF38
:101A40007CC0DAFFDF500F01466F000120EE01F08D
:101A50007B51D9267C51DA22DF500F01476F0001FC
:101A600020EE02F07B51D9267C51DA22DF500F01A3
:101A7000486F000120EE03F07B51D9267C51DA2219
:101A8000DF500F01496F000120EE04F07B51D92691
:101A90007C51DA22DF500F014A6F000120EE05F081
:101AA0007B51D9267C51DA22DF500F014B6F0001A8
:101AB00020EE06F07B51D9267C51DA22DF500F014F
:101AC0004C6F000120EE07F07B51D9267C51DA22C1
:101AD000DF500F014D6F0F01408712000F0130B72B
:101AE0003FD17DC035FF00017EAD03D00F01358DA4
:101AF00002D00F01359D00017EA779D000017751FA
:101B00000001836F846B856B866B83C034FF000E8E
:101B1000000177150001836FFF0E000178150001A9
:101B2000846F000E000179150001856F000E000121
:101B30007A150001866F83C07FF084C080F085C075
:101B400081F086C082F080C07FF081C080F082C0CA
:101B500081F00001826B7FC083F080C084F081C07F
:101B600085F082C086F083C033FF000E0F01326F14
:101B70000F013287000179A102D00F0132810001EB
:101B800079A302D00F013283000179A502D00F01A1
:101B9000328B000179A702D00F01328D000179A9A3
:101BA00002D00F01328F77C07FF078C080F079C00B
:101BB00081F07AC082F0160E06D00001D8908233F0
:101BC000813380337F33E82EF8D77FC083F080C025
:101BD00084F081C085F082C086F00001835100014D
:101BE000836F846B856B866B83C031FF59D00F0187
:101BF000329777C07FF078C080F079C081F07AC0EA
:101C000082F0040E06D00001D890823381338033F5
:101C10007F33E82EF8D77FC083F080C084F081C086
:101C200085F082C086F0000183510001836F846BD0
:101C3000856B866B83C031FF070E000177150001AD
:101C4000836F000E000178150001846F000E000103
:101C500079150001856F000E00017A150001866F6D
:101C600083C07FF084C080F085C081F086C082F0A0
:101C7000050ED89000017F37803781378237E82EF4
:101C8000F8D77FC083F080C084F081C085F082C027
:101C900086F00F0132511F0B0F01326F83C032FFEC
:101CA00000017EA103D00F01308102D00F013091DD
:101CB00000017EA303D00F01308302D00F013093C7
:101CC0007BC0D9FF7CC0DAFFDF500F01366F000107
:101CD00020EE01F07B51D9267C51DA22DF500F0132
:101CE000376F000120EE02F07B51D9267C51DA22B9
:101CF000DF500F01386F000120EE03F07B51D92631
:101D00007C51DA22DF500F01396F000120EE04F020
:101D10007B51D9267C51DA22DF500F013A6F000146
:101D200020EE05F07B51D9267C51DA22DF500F01DD
:101D30003B6F000120EE06F07B51D9267C51DA2260
:101D4000DF500F013C6F000120EE07F07B51D926D8
:101D50007C51DA22DF500F013D6F0F0130871200F6
:101D60000F0120B712007DC025FF00017EAD03D01A
:101D70000F01258D02D00F01259D00017EA779D08E
:101D8000000177510001836F846B856B866B83C084
:101D900024FF000E000177150001836FFF0E000184
:101DA00078150001846F000E000179150001856F20
:101DB000000E00017A150001866F83C07FF084C099
:101DC00080F085C081F086C082F080C07FF081C045
:101DD00080F082C081F00001826B7FC083F080C000
:101DE00084F081C085F082C086F083C023FF000E9E
:101DF0000F01226F0F012287000179A102D00F018C
:101E00002281000179A302D00F012283000179A56C
:101E100002D00F01228B000179A702D00F01228D81
:101E2000000179A902D00F01228F77C07FF078C01E
:101E300080F079C081F07AC082F0160E06D00001E1
:101E4000D8908233813380337F33E82EF8D77FC038
:101E500083F080C084F081C085F082C086F00001EC
:101E600083510001836F846B856B866B83C021FF78
:101E700059D00F01229777C07FF078C080F079C0E9
:101E800081F07AC082F0040E06D00001D89082332F
:101E9000813380337F33E82EF8D77FC083F080C052
:101EA00084F081C085F082C086F00001835100017A
:101EB000836F846B856B866B83C021FF070E0001E7
:101EC00077150001836F000E000178150001846F03
:101ED000000E000179150001856F000E00017A15D2
:101EE0000001866F83C07FF084C080F085C081F0E0
:101EF00086C082F0050ED89000017F378037813789
:101F00008237E82EF8D77FC083F080C084F081C08C
:101F100085F082C086F00F0122511F0B0F01226F46
:101F200083C022FF00017EA103D00F01208102D0D7
:101F30000F01209100017EA303D00F01208302D066
:101F40000F0120937BC0D9FF7CC0DAFFDF500F0167
:101F5000266F000120EE01F07B51D9267C51DA2258
:101F6000DF500F01276F000120EE02F07B51D926D0
:101F70007C51DA22DF500F01286F000120EE03F0C0
:101F80007B51D9267C51DA22DF500F01296F0001E5
:101F900020EE04F07B51D9267C51DA22DF500F016C
:101FA0002A6F000120EE05F07B51D9267C51DA2200
:101FB000DF500F012B6F000120EE06F07B51D92678
:101FC0007C51DA22DF500F012C6F000120EE07F068
:101FD0007B51D9267C51DA22DF500F012D6F0F0182
:101FE00020871200000E0B6E74BE0B8074BC0B8237
:101FF0000F0150AF43D101C0D9FF02C0DAFFDE6A42
:10200000DE6ADE6ADD6A20EE04F00150D926025055
:10201000DA2256CFDFFF20EE05F00150D92602501C
:10202000DA2257CFDFFF20EE06F00150D92602500A
:10203000DA2258CFDFFF20EE07F00150D9260250F8
:10204000DA2259CFDFFF20EE08F00150D9260250E6
:10205000DA225ACFDFFF20EE09F00150D9260250D4
:10206000DA225BCFDFFF20EE0AF00150D9260250C2
:10207000DA225CCFDFFF20EE0BF00150D9260250B0
:10208000DA225DCFDFFF20EE0EF00150D92602509C
:10209000DA220F0155AD02D0010E01D0000EDF6E25
:1020A00020EE0DF00150D9260250DA220F015551D1
:1020B0000F0BDF6E20EE0CF00150D9260250DA2211
:1020C0000F0152A702D0010E01D0000EDF6E0F01EA
:1020D00052B744D051CF03F0046A056A066A030E72
:1020E000D8900336043605360636E82EF9D701C0F7
:1020F000D9FF02C0DAFF03C0DEFF04C0DEFF05C067
:10210000DEFF06C0DEFF0F015239E842070B070B66
:102110000C6E01C0D9FF02C0DAFFDECF03F0DECFC4
:1021200004F0DECF05F0DECF06F00C500324076E7E
:10213000000E0420086E000E0520096E000E062019
:102140000A6E01C0D9FF02C0DAFF07C0DEFF08C077
:10215000DEFF09C0DEFF0AC0DEFF8DD054CF03F0E2
:10216000046A056A066A01C0D9FF02C0DAFF03C02B
:10217000DEFF04C0DEFF05C0DEFF06C0DEFF53CF7A
:1021800003F0046A056A066A05C006F004C005F09B
:1021900003C004F0036A01C0D9FF02C0DAFF035094
:1021A000DE260450DE220550DE220650DE220F011C
:1021B00052A10CD001C0D9FF02C0DAFF000EDE121E
:1021C000000EDE12010EDE12000EDE120F0152A30F
:1021D0000CD001C0D9FF02C0DAFF000EDE12000EE3
:1021E000DE12020EDE12000EDE120F0152AB0CD018
:1021F00001C0D9FF02C0DAFF000EDE12000EDE12AF
:10220000040EDE12000EDE120F0152AD0CD001C022
:10221000D9FF02C0DAFF000EDE12000EDE12080E39
:10222000DE12000EDE120F0152AF0CD001C0D9FF3A
:1022300002C0DAFF000EDE12000EDE12100EDE12F9
:10224000000EDE1251CF03F0046A056A066A150E0D
:10225000D8900336043605360636E82EF9D701C085
:10226000D9FF02C0DAFF0350DE120450DE1205501F
:10227000DE120650DE120F01509F120060AE1200F7
:1022800001C0D9FF02C0DAFFDE6ADE6ADE6ADD6AFB
:1022900020EE04F00150D9260250DA2266CFDFFF8B
:1022A00020EE05F00150D9260250DA2267CFDFFF79
:1022B00020EE06F00150D9260250DA2268CFDFFF67
:1022C00020EE07F00150D9260250DA2269CFDFFF55
:1022D00020EE08F00150D9260250DA226ACFDFFF43
:1022E00020EE09F00150D9260250DA226BCFDFFF31
:1022F00020EE0AF00150D9260250DA226CCFDFFF1F
:1023000020EE0BF00150D9260250DA226DCFDFFF0C
:1023100020EE0EF00150D9260250DA2265AC02D030
:10232000010E01D0000EDF6E20EE0DF00150D92617
:102330000250DA2265500F0BDF6E20EE0CF00150D8
:10234000D9260250DA2262A602D0010E01D0000E78
:10235000DF6E62B643D061CF03F0046A056A066A95
:10236000030ED8900336043605360636E82EF9D724
:1023700001C0D9FF02C0DAFF03C0DEFF04C0DEFFE8
:1023800005C0DEFF06C0DEFF6238E842070B070B20
:102390000C6E01C0D9FF02C0DAFFDECF03F0DECF42
:1023A00004F0DECF05F0DECF06F00C500324076EFC
:1023B000000E0420086E000E0520096E000E062097
:1023C0000A6E01C0D9FF02C0DAFF07C0DEFF08C0F5
:1023D000DEFF09C0DEFF0AC0DEFF88D064CF03F055
:1023E000046A056A066A01C0D9FF02C0DAFF03C0A9
:1023F000DEFF04C0DEFF05C0DEFF06C0DEFF63CFE8
:1024000003F0046A056A066A05C006F004C005F018
:1024100003C004F0036A01C0D9FF02C0DAFF035011
:10242000DE260450DE220550DE220650DE2262A0A7
:102430000CD001C0D9FF02C0DAFF000EDE12000E80
:10244000DE12010EDE12000EDE1262A20CD001C0FE
:10245000D9FF02C0DAFF000EDE12000EDE12020EFD
:10246000DE12000EDE1262AA0CD001C0D9FF02C03B
:10247000DAFF000EDE12000EDE12040EDE12000E77
:10248000DE1262AC0CD001C0D9FF02C0DAFF000E30
:10249000DE12000EDE12080EDE12000EDE1262AE3A
:1024A0000CD001C0D9FF02C0DAFF000EDE12000E10
:1024B000DE12100EDE12000EDE1261CF03F0046A8F
:1024C000056A066A150ED8900336043605360636B8
:1024D000E82EF9D701C0D9FF02C0DAFF0350DE129F
:1024E0000450DE120550DE120650DE12609E12000D
:1024F000D4C1A9F0D5C1AAF0D6C1ABF0D7C1ACF018
:10250000A0EC2DF0A9C0B1F0AAC0B2F0ABC0B3F0FE
:10251000ACC0B4F0000E0001946F000E956F000E79
:10252000966F400E976FDCC190F0DDC191F0DEC177
:1025300092F0DFC193F036EC17F090C0ADF091C08F
:10254000AEF092C0AFF093C0B0F0E2EC14F0ADC0CA
:10255000B4F1AEC0B5F1AFC0B6F1B0C0B7F1000E86
:1025600000017B6F000E7C6F000E7D6F400E7E6F52
:10257000D8C177F0D9C178F0DAC179F0DBC17AF04F
:102580006EEC1BF077C0A9F078C0AAF079C0ABF070
:102590007AC0ACF0A0EC2DF0A9C0B1F0AAC0B2F0A6
:1025A000ABC0B3F0ACC0B4F0B4C1ADF0B5C1AEF0E7
:1025B000B6C1AFF0B7C1B0F0E2EC14F0ADC0B8F105
:1025C000AEC0B9F1AFC0BAF1B0C0BBF1B8C177F0DD
:1025D000B9C178F0BAC179F0BBC17AF0000E000140
:1025E000946F000E956F000E966F400E976FDCC1D2
:1025F00090F0DDC191F0DEC192F0DFC193F036ECD6
:1026000017F090C07BF091C07CF092C07DF093C039
:102610007EF06EEC1BF077C0BCF178C0BDF179C0E4
:10262000BEF17AC0BFF1BCC194F1BDC195F1BEC18C
:1026300096F1BFC197F1A9EC20F094C11CF195C1AE
:102640001DF196C11EF197C11FF1DB0E00017B6FDA
:102650000F0E7C6F490E7D6F400E7E6F1CC177F0B0
:102660001DC178F01EC179F01FC17AF06EEC1BF02D
:1026700077C090F078C091F079C092F07AC093F072
:10268000000E0001946F000E956F340E966F430E8E
:10269000976F36EC17F090C01CF191C01DF192C0FD
:1026A0001EF193C01FF11CC1A9F01DC1AAF01EC1EB
:1026B000ABF01FC1ACF0A0EC2DF0A9C0ADF0AAC0EA
:1026C000AEF0ABC0AFF0ACC0B0F0000E0001B16F27
:1026D000000EB26FB40EB36F420EB46FE2EC14F0A2
:1026E000ADC020F1AEC021F1AFC022F1B0C023F1E6
:1026F0001CC1ACF11DC1ADF11EC1AEF11FC1AFF1E6
:1027000014EC2BF0ACC1C0F1ADC1C1F1AEC1C2F14E
:10271000AFC1C3F1DCC194F0DDC195F0DEC196F02C
:10272000DFC197F0C0C190F0C1C191F0C2C192F079
:10273000C3C193F036EC17F090C0C4F191C0C5F15D
:1027400092C0C6F193C0C7F1C4C190F0C5C191F069
:10275000C6C192F0C7C193F0000E0001946F000E45
:10276000956F000E966F400E976F36EC17F090C085
:102770002CF191C02DF192C02EF193C02FF120C108
:1027800094F021C195F022C196F023C197F0DCC1ED
:1027900090F0DDC191F0DEC192F0DFC193F036EC34
:1027A00017F090C0C8F191C0C9F192C0CAF193C0AE
:1027B000CBF1DB0E0001946F0F0E956FC90E966F73
:1027C000400E976FC8C190F0C9C191F0CAC192F094
:1027D000CBC193F036EC17F090C077F091C078F051
:1027E00092C079F093C07AF0000E00017B6F000E6A
:1027F0007C6FB40E7D6F430E7E6F6EEC1BF077C066
:1028000034F178C035F179C036F17AC037F1000E75
:1028100000017B6F000E7C6F400E7D6F400E7E6F5F
:10282000000E0001946F000E956F000E966F400E23
:10283000976FD8C190F0D9C191F0DAC192F0DBC1A5
:1028400093F036EC17F090C077F091C078F092C01A
:1028500079F093C07AF06EEC1BF077C0ADF078C0E1
:10286000AEF079C0AFF07AC0B0F0DCC1B1F0DDC13C
:10287000B2F0DEC1B3F0DFC1B4F0E2EC14F0ADC0F1
:1028800028F1AEC029F1AFC02AF1B0C02BF1000E83
:1028900000017B6F000E7C6F400E7D6F400E7E6FDF
:1028A000000E0001946F000E956F000E966F400EA3
:1028B000976FD8C190F0D9C191F0DAC192F0DBC125
:1028C00093F036EC17F090C077F091C078F092C09A
:1028D00079F093C07AF06EEC1BF077C0A9F078C065
:1028E000AAF079C0ABF07AC0ACF0A0EC2DF0A9C092
:1028F000ADF0AAC0AEF0ABC0AFF0ACC0B0F0DCC180
:10290000B1F0DDC1B2F0DEC1B3F0DFC1B4F0E2EC92
:1029100014F0ADC024F1AEC025F1AFC026F1B0C0B7
:1029200027F128C17BF029C17CF02AC17DF02BC1A1
:102930007EF024C177F025C178F026C179F027C157
:102940007AF06EEC1BF077C0CCF178C0CDF179C095
:10295000CEF17AC0CFF1CCC194F1CDC195F1CEC109
:1029600096F1CFC197F1A9EC20F094C1ACF195C1DB
:10297000ADF196C1AEF197C1AFF114EC2BF0ACC143
:10298000D0F1ADC1D1F1AEC1D2F1AFC1D3F1D0C15F
:1029900090F0D1C191F0D2C192F0D3C193F028C18F
:1029A00094F029C195F02AC196F02BC197F036EC2E
:1029B00017F090C018F191C019F192C01AF193C0AC
:1029C0001BF112000001B051800B0001BD6F00012E
:1029D000B051B0250001BF6F0001AFAF02D00001C0
:1029E000BF810001BF510001D8B412D00001BF293E
:1029F000D8A409D0000E0001AD6F000EAE6F000E1E
:102A0000AF6F000EB06F0001AF8F000E000108D055
:102A1000000E0001AD6F000EAE6F000EAF6F000E26
:102A2000B06F0001B451800B0001BE6F0001BD51B9
:102A30000001BE19D8B402D00001BD8D0001B4510F
:102A4000B4250001BE6F0001B3AF02D00001BE810A
:102A50000001BE510001D8B412D00001BE29D8A493
:102A600009D0000E0001B16F000EB26F000EB36FFF
:102A7000000EB46F0001B38F000E000108D0000EED
:102A80000001B16F000EB26F000EB36F000EB46F95
:102A90000001BF510001BE5DD8B024D00001BDAD22
:102AA00003D0800E0001BD1BBFC0C0F0BEC0BFF090
:102AB000C0C0BEF0ADC0C0F0B1C0ADF0C0C0B1F09C
:102AC000AEC0C0F0B2C0AEF0C0C0B2F0AFC0C0F097
:102AD000B3C0AFF0C0C0B3F0B0C0C0F0B4C0B0F08D
:102AE000C0C0B4F0000E0001C06F0001BF51000172
:102AF000B56FB66B0001B51FB61FB54BB62B000105
:102B0000BE510001B76FB86B0001B5510001B72786
:102B10000001B6510001B8230001B8BF3DD000014B
:102B2000B85105E11A0E0001B75DD8A035D00001FB
:102B3000AD510001AE110001AF110001B011D8B4C8
:102B400002D0010E01D0000E0001C06F000E000186
:102B5000AD6F000EAE6F000EAF6F000EB06FBEC057
:102B6000BFF020D00001C0A107D00001D890C03133
:102B700001090001C06F03D00001D890C0330001EB
:102B8000ADA102D00001C08F0001B035B033AF332A
:102B9000AE33AD330001BF2B0001BE510001BF5D5C
:102BA000D8A0E0D70001BDBD3FD00001BF5100015A
:102BB000D8A40AD0000E0001AD6F000EAE6F000E5B
:102BC000AF6F000EB06F12000001B1510001AD27D0
:102BD0000001B2510001AE230001B3510001AF2347
:102BE0000001B4510001B0230001B0A1CCD000011C
:102BF000C0A109D00001D890C0330001C051010923
:102C00000001C06F03D00001D890C0330001ADA116
:102C100002D00001C08F0001B035B033AF33AE3306
:102C2000AD330001BF2BAFD00001B1510001AD5D4C
:102C30000001B2510001AE590001B3510001AF597A
:102C40000001B051800A0001B56F0001B451800A43
:102C50000001B559D8B050D0ADC0B5F0AEC0B6F097
:102C6000AFC0B7F0B0C0B8F00001B51FB61FB71FB6
:102C7000B81FB52B000EB623B723B8230001B151FE
:102C80000001B5250001B96F0001B2510001B62164
:102C90000001BA6F0001B3510001B7210001BB6F01
:102CA0000001B4510001B8210001BC6FFF0E00010A
:102CB000B9250001AD6FFF0E0001BA210001AE6F12
:102CC000FF0E0001BB210001AF6FFF0E0001BC2110
:102CD0000001B06F800E0001BD1B0001C06D00013E
:102CE000C0510001D8A418D0010E0001AD27000E7C
:102CF000AE23AF23B02310D00001B1510001AD5F6E
:102D00000001B2510001AE5B0001B3510001AF5BA5
:102D10000001B4510001B05B0001AD510001AE11E2
:102D20000001AF110001B011D8A42AD00001C05198
:102D30000001D8A425D0000E0001AD6F000EAE6FCB
:102D4000000EAF6F000EB06F12000001D890AD37CB
:102D5000AE37AF37B0370001C0AF02D00001AD8150
:102D60000001C0A103D0D880000102D00001D8909A
:102D7000C0370001BF510001D8B402D00001BF0725
:102D80000001AFAFE2D7000E0001BE6F0001C0AF7F
:102D90000DD0C0C0B5F07F0E0001B517D8A403D088
:102DA0000001ADA103D0010E0001BE6F0001BE51B4
:102DB0000001D8B426D0010E0001AD27000EAE23CD
:102DC000AF23B0230001B0A11CD0ADC0B5F0AEC0A0
:102DD000B6F0AFC0B7F0B0C0B8F00001B835B83346
:102DE000B733B633B533B5C0ADF0B6C0AEF0B7C08B
:102DF000AFF0B8C0B0F00001BF29D8B402D00001D4
:102E0000BF2B0001BF29D8B405D00001BF5100017C
:102E1000D8A411D0000E0001AD6F000EAE6F000EF1
:102E2000AF6F000EB06F0001BF510001D8A403D0F6
:102E3000000E0001BD6F0001BFA103D00001AF8FE4
:102E400002D00001AF9F0001D890BF310001B06FE8
:102E50000001BDAF02D00001B08FADC0ADF0AEC07B
:102E6000AEF0AFC0AFF0B0C0B0F0120000019351AF
:102E7000800B00019C6F0001935193250001A26F0C
:102E8000000192AF02D00001A2810001A251000115
:102E9000D8B410D00001A229D8A409D0000E000196
:102EA000906F000E916F000E926F000E936F0001F5
:102EB000928F09D0000E0001906F000E916F000EEE
:102EC000926F000E936F00019751800B00019C1BC5
:102ED00000019751972500019D6F000196AF02D028
:102EE00000019D8100019D510001D8B410D0000166
:102EF0009D29D8A409D0000E0001946F000E956F93
:102F0000000E966F000E976F0001968F09D0000E8D
:102F10000001946F000E956F000E966F000E976F74
:102F200000019D510001D8B405D00001A25100015B
:102F3000D8A40AD0000E0001906F000E916F000E11
:102F4000926F000E936F12000001965100019003E2
:102F5000F3CFA7F0F4CFA8F00001A75100019E6FB6
:102F60009F6BA06BA16B0001A8510001A36FA46B24
:102F7000A56BA66B0001955100019103F3CFA7F05B
:102F8000F4CFA8F00001A75100019E27000E9F2357
:102F9000A023A1230001A8510001A327000EA42310
:102FA000A523A6230001945100019203F3CFA7F0BB
:102FB000F4CFA8F00001A75100019E27000E9F2327
:102FC000A023A1230001A8510001A327000EA423E0
:102FD000A523A623A0C0A1F09FC0A0F09EC09FF093
:102FE00000019E6B0001945100019103F3CFA7F003
:102FF000F4CFA8F00001A75100019E270001A851BD
:1030000000019F23000E0001A023000E0001A12358
:103010000001955100019003F3CFA7F0F4CFA8F081
:103020000001A75100019E270001A85100019F2324
:10303000000E0001A023000E0001A123A0C0A1F0FA
:103040009FC0A0F09EC09FF000019E6B00019451B4
:1030500000019003F3CFA7F0F4CFA8F00001A7512F
:1030600000019E270001A85100019F23000E0001CE
:10307000A023000E0001A12300019651000191033D
:10308000F3CFA7F0F4CFA8F00001A7510001A327C8
:103090000001A8510001A423000E0001A523000E89
:1030A0000001A6230001955100019203F3CFA7F080
:1030B000F4CFA8F00001A7510001A3270001A851F7
:1030C0000001A423000E0001A523000E0001A62389
:1030D0000001965100019203F3CFA7F0F4CFA8F0BE
:1030E0000001A7510001986F0001A8510001996FDC
:1030F00000019A6B00019B6B9AC09BF099C09AF0FB
:1031000098C099F00001986B000198510001A32725
:10311000000199510001A42300019A510001A52347
:1031200000019B510001A6239EC098F09FC099F01A
:10313000A0C09AF0A1C09BF0190E06D00001D89053
:103140009B339A3399339833E82EF8D7000198517E
:103150000001A327000199510001A42300019A5105
:103160000001A52300019B510001A623A0C0A1F0EE
:103170009FC0A0F09EC09FF000019E6B00019D517A
:10318000A2C098F00001996B00019827000E9923C6
:10319000820E000198250001A76FFF0E0001992102
:1031A0000001A86F15D00001D890A337A437A53728
:1031B000A6370001A1AF02D00001A3810001D89081
:1031C0009E379F37A037A1370001A707D8A0A807CF
:1031D0000001A5AFE8D7000E00019D6F0001A1AF6F
:1031E00024D0FF0E00019E150001986FFF0E000114
:1031F0009F150001996FFF0E0001A01500019A6F45
:103200007F0E0001A11500019B6F00019851000184
:10321000991100019A1100019B11D8A403D000015B
:10322000A3A103D0010E00019D6F00019D5100017B
:10323000D8B423D0010E0001A327000EA423A52398
:10324000A6230001A6A119D0A3C098F0A4C099F0AC
:10325000A5C09AF0A6C09BF000019B359B339A3322
:103260009933983398C0A3F099C0A4F09AC0A5F000
:103270009BC0A6F00001A74BA82B0001A8BF10D04F
:103280000001A85104E10001A729D8A009D0000E2F
:103290000001A36F000EA46F800EA56F7F0E2BD0D0
:1032A0000001A8BF07D00001A85111E10001A70546
:1032B000D8B00DD0000E0001A36F000EA46F000E59
:1032C000A56F000EA66F000E00019C6F15D0A7C061
:1032D000A2F0FF0E0001A317FF0EA4177F0EA51783
:1032E000000EA6170001A2A102D00001A58F0001C7
:1032F000D890A2310001A66F00019C510001A613D5
:10330000A3C090F0A4C091F0A5C092F0A6C093F025
:1033100012000001C451800B01017F6F0001C451F4
:10332000C4250101856F0001C3AF02D00101858171
:1033300085C18AF101018B6BFF0E0001C1150101EE
:10334000906FFF0E0001C2150101916F7F0E000109
:10335000C3150101926F000E0001C4150101936FA6
:1033600001018A5101018B11D8B408D00101928F5B
:1033700001018A2901018B11D8A409D0000E010195
:10338000906F000E916F000E926F000E936F01010F
:103390008A5101018B11D8A40AD0000E0001C16F1F
:1033A000000EC26F000EC36F000EC46F1200010149
:1033B0007F510101D8B41CD0000E01018C6F000EAA
:1033C0008D6F400E8E6F000E8F6F0101800E8E1379
:1033D000FF0E8F13000E01013F6F210E3E6F8CC157
:1033E000C1F08DC1C2F08EC1C3F08FC1C4F0120014
:1033F00001018A2901018B11D8A412D0000E01010C
:103400008C6F000E8D6F800E8E6F7F0E8F6F8CC154
:10341000C1F08DC1C2F08EC1C3F08FC1C4F01200E3
:103420000101810E8A27FF0E8B2301018A51010BB6
:103430000101856F01018B358B338A337F0E0101CA
:103440008A27000E8B23D890010190350101816FEE
:10345000010191350101826F010192350101836FF4
:10346000010193350101846F000E0101906F000E80
:10347000916F000E926F000E936F000E0101866F28
:10348000000E876F000E886F010E896F0101855154
:103490000101D8B406D00101D89081378237833733
:1034A0008437000E0101806F7ED001018651010139
:1034B000901301018751010191130101885101010C
:1034C00092130101895101019313010190510101EE
:1034D000815D010191510101825901019251010166
:1034E00083590101935101018459D8A021D00101D0
:1034F00090510101815F010191510101825B010144
:1035000092510101835B010193510101845B01012F
:103510008651010190270101875101019123010189
:1035200088510101922301018951010193231DD08A
:1035300086C1C5F087C1C6F088C1C7F089C1C8F08F
:103540000001C51FC61FC71FC81F0001C5510101CB
:1035500090170001C651010191170001C7510101E7
:1035600092170001C8510101931786C1C5F087C1A8
:10357000C6F088C1C7F089C1C8F00001D890C8332F
:10358000C733C633C533C5C086F1C6C087F1C7C0CF
:1035900088F1C8C089F10101D8908137823783371B
:1035A00084370101802B180E010180657ED790C100
:1035B000C5F091C1C6F092C1C7F093C1C8F0000137
:1035C000D890C833C733C633C533C5C090F1C6C021
:1035D00091F1C7C092F1C8C093F1010E010190159D
:1035E0000101866F000E010191150101876F000E28
:1035F000010192150101886F000E0101931501016F
:10360000896F90C1C5F091C1C6F092C1C7F093C156
:10361000C8F00001D890C833C733C633C533C5C01E
:1036200090F1C6C091F1C7C092F1C8C093F10101F9
:103630008651010190270101875101019123010168
:103640008851010192230101895101019323010154
:1036500093A119D090C1C5F091C1C6F092C1C7F035
:1036600093C1C8F00001D890C833C733C633C533FF
:10367000C5C090F1C6C091F1C7C092F1C8C093F126
:1036800001018A4B8B2BFF0E0101901501018C6FFC
:10369000FF0E0101911501018D6F7F0E0101921541
:1036A00001018E6F000E0101931501018F6F8AC118
:1036B00085F1010185A102D001018E8F0101D89011
:1036C000853101018F6F01018F9F8CC1C1F08DC1C8
:1036D000C2F08EC1C3F08FC1C4F0120000017A5154
:1036E000800B0001836F00017A517A2500018E6FF3
:1036F000000179AF02D000018E8100018E510001DE
:10370000D8B412D000018E29D8A409D0000E00012F
:10371000776F000E786F000E796F000E7A6F0001E0
:10372000798F000E000108D0000E0001776F000EA7
:10373000786F000E796F000E7A6F00017E51800B5A
:103740000001831B00017E517E2500018F6F000167
:103750007DAF02D000018F8100018F510001D8B4EC
:1037600012D000018F29D8A409D0000E00017B6F70
:10377000000E7C6F000E7D6F000E7E6F00017D8F4E
:10378000000E000108D0000E00017B6F000E7C6F60
:10379000000E7D6F000E7E6F00017B5100017C11D9
:1037A00000017D1100017E11D8A417D0000E000188
:1037B000776F000E786F000E796F000E7A6F000140
:1037C000800E79137F0E7A1377C077F078C078F087
:1037D00079C079F07AC07AF0120000018E510001B0
:1037E000D8A412D0000E0001776F000E786F000E83
:1037F000796F000E7A6F77C077F078C078F079C073
:1038000079F07AC07AF0120000018F5100017F6FC9
:10381000806B00017F1F801F7F4B802B00018E512A
:103820000001816F826B00017F510001812700013F
:103830008051000182237F0E000181250001886FE5
:10384000000E000182210001896F77C084F078C0EA
:1038500085F079C086F07AC087F0000E0001776F9E
:10386000000E786F000E796F000E7A6F000E000167
:103870008A6F000E8B6F000E8C6F000E8D6F000E26
:1038800000018F6F42D000018F510001D8B417D0D2
:103890000001D89084378537863787370001D89064
:1038A0007737783779377A3700018DAF02D000014A
:1038B00077810001D8908A378B378C378D3700019C
:1038C0007B510001845D00017C510001855900019C
:1038D0007D510001865900017E5100018759D8A011
:1038E00012D000018D8D00017B510001845F000129
:1038F0007C510001855B00017D510001865B000168
:103900007E510001875B00018F2B190E00018F652E
:10391000BAD7000184510001851100018611000110
:103920008711D8B418D000018A8115D00001D89031
:103930007737783779377A3700018DAF02D00001B9
:1039400077810001D8908A378B378C378D3700010B
:103950008807D8A08907000179AFE8D7000E0001D9
:103960008F6F00018DAF24D0FF0E00018A1500017A
:103970007F6FFF0E00018B150001806FFF0E0001AD
:103980008C150001816F7F0E00018D150001826F83
:1039900000017F510001801100018111000182119D
:1039A000D8A403D0000177A103D0010E00018F6FCE
:1039B00000018F510001D8B423D0010E00017727F8
:1039C000000E782379237A2300017AA119D077C0D9
:1039D0007FF078C080F079C081F07AC082F0000179
:1039E00082358233813380337F337FC077F080C06C
:1039F00078F081C079F082C07AF00001884B892B81
:103A0000000189BF14D00001895104E10001882917
:103A1000D8A00DD0000E0001896F8869000E00014A
:103A2000776F000E786F000E796F000E7A6F0001CD
:103A300089BF07D00001895115E100018805D8B080
:103A400011D0000E0001896F000E886F000E00017A
:103A5000776F000E786F000E796F000E7A6F000E90
:103A60000001836F88C08EF000018EA103D0000199
:103A7000798F02D00001799F0001D8908E3100012A
:103A80007A6F0001835100017A1377C077F078C014
:103A900078F079C079F07AC07AF012000001806F76
:103AA00000018005D8A456D000017B29D8A452D0AB
:103AB00077C07CF078C07DF079C07EF07AC07FF06E
:103AC000040E06D00001D8907F337E337D337C33E3
:103AD000E82EF8D77CC081F07DC082F07EC083F0F4
:103AE0007FC084F0000181510001816F826B836B84
:103AF000846B81C018FF070E000177150001816FEC
:103B0000000E000178150001826F000E000179158A
:103B10000001836F000E00017A150001846F81C0DF
:103B20007CF082C07DF083C07EF084C07FF0050E03
:103B3000D89000017C377D377E377F37E82EF8D765
:103B40007CC081F07DC082F07EC083F07FC084F0B5
:103B500081C019FF020E00018019D8A456D00001BF
:103B60007B29D8A452D077C07CF078C07DF079C092
:103B70007EF07AC07FF0040E06D00001D8907F332B
:103B80007E337D337C33E82EF8D77CC081F07DC056
:103B900082F07EC083F07FC084F00001815100017B
:103BA000816F826B836B846B81C01CFF070E0001E9
:103BB00077150001816F000E000178150001826FFA
:103BC000000E000179150001836F000E00017A15C7
:103BD0000001846F81C07CF082C07DF083C07EF0E4
:103BE00084C07FF0050ED89000017C377D377E378A
:103BF0007F37E82EF8D77CC081F07DC082F07EC090
:103C000083F07FC084F081C01DFF00018005D8A42F
:103C100087D0F70E00017B19D8A482D0000177511C
:103C20000001816F826B836B846B81C01BFF000E70
:103C3000000177150001816FFF0E0001781500016A
:103C4000826F000E000179150001836F000E0001E4
:103C50007A150001846F81C07CF082C07DF083C042
:103C60007EF084C07FF07DC07CF07EC07DF07FC0A0
:103C70007EF000017F6B7CC081F07DC082F07EC051
:103C800083F07FC084F081C01AFF000179A103D0C6
:103C90000F01198102D00F011991000179A303D0FE
:103CA0000F01198302D00F011993000179A503D0E8
:103CB0000F01198B02D00F01199B000179A703D0C6
:103CC0000F01198D02D00F01199D000179A903D0B0
:103CD0000F01198F02D00F01199F77C07CF078C0B7
:103CE0007DF079C07EF07AC07FF0160E06D000011C
:103CF000D8907F337E337D337C33E82EF8D77CC079
:103D000081F07DC082F07EC083F07FC084F000012E
:103D100081510001816F826B836B846B81C018FFBE
:103D2000020E00018019D8A41200F70E00017B19C1
:103D3000D8A41200000177510001816F826B836B60
:103D4000846B81C01FFF000E000177150001816F99
:103D5000FF0E000178150001826F000E0001791539
:103D60000001836F000E00017A150001846F81C08D
:103D70007CF082C07DF083C07EF084C07FF07DC087
:103D80007CF07EC07DF07FC07EF000017F6B7CC048
:103D900081F07DC082F07EC083F07FC084F081C05E
:103DA0001EFF000179A103D00F011D8102D00F0178
:103DB0001D91000179A303D00F011D8302D00F01D3
:103DC0001D93000179A503D00F011D8B02D00F01B7
:103DD0001D9B000179A703D00F011D8D02D00F019B
:103DE0001D9D000179A903D00F011D8F02D00F0185
:103DF0001D9F77C07CF078C07DF079C07EF07AC0DE
:103E00007FF0160E06D00001D8907F337E337D33CD
:103E10007C33E82EF8D77CC081F07DC082F07EC074
:103E200083F07FC084F0000181510001816F826BBB
:103E3000836B846B81C01CFF1200000E01018B6F2D
:103E40000001D6AF15D0D3C0A9F0D4C0AAF0D5C018
:103E5000ABF0D6C0ACF0A0EC2DF0A9C0D3F0AAC056
:103E6000D4F0ABC0D5F0ACC0D6F0010E01018B6F21
:103E7000D3C090F0D4C091F0D5C092F0D6C093F0EA
:103E8000830E0001946FF90E956F220E966F3E0E11
:103E9000976F36EC17F090C0D3F091C0D4F092C079
:103EA000D5F093C0D6F0D3C0CBF0D4C0CCF0D5C001
:103EB000CDF0D6C0CEF0D3C0C1F0D4C0C2F0D5C0D2
:103EC000C3F0D6C0C4F070EC29F0C1C0CFF0C2C0BE
:103ED000D0F0C3C0D1F0C4C0D2F040EC2DF0CBC0C4
:103EE000D3F0CCC0D4F0CDC0D5F0CEC0D6F0D3C086
:103EF00090F0D4C091F0D5C092F0D6C093F0000EEF
:103F00000001946F000E956F800E966F400E976FB4
:103F100036EC17F090C0D3F091C0D4F092C0D5F039
:103F200093C0D6F0000E0001B16F000EB26F000E0C
:103F3000B36F400EB46FD3C0B5F0D4C0B6F0D5C0E7
:103F4000B7F0D6C0B8F010EC28F00001D8B025D0FA
:103F5000D3C0CBF0D4C0CCF0D5C0CDF0D6C0CEF01D
:103F6000000E0001CF6F000ED06F000ED16F400E1B
:103F7000D26F40EC2DF0CBC0D3F0CCC0D4F0CDC08C
:103F8000D5F0CEC0D6F001018B510101D8A402D0EA
:103F9000010E01D0000E01018B6F000E0001B16F08
:103FA000000EB26F800EB36F3F0EB46FD3C0B5F08A
:103FB000D4C0B6F0D5C0B7F0D6C0B8F010EC28F039
:103FC0000001D8B025D0D3C0A9F0D4C0AAF0D5C084
:103FD000ABF0D6C0ACF0A0EC2DF0A9C0ADF0AAC0FB
:103FE000AEF0ABC0AFF0ACC0B0F0000E0001B16FEE
:103FF000000EB26F000EB36F400EB46FE2EC14F01F
:10400000ADC0D3F0AEC0D4F0AFC0D5F0B0C0D6F0E4
:10401000D3C090F0D4C091F0D5C092F0D6C093F048
:10402000D3C094F0D4C095F0D5C096F0D6C097F028
:1040300036EC17F090C087F191C088F192C089F1F9
:1040400093C08AF187C1C1F088C1C2F089C1C3F0B1
:104050008AC1C4F0410E0001C56F0D0E0001C66F8C
:10406000000E0001C86F030EC76F02EC2AF0C1C03A
:104070007FF1C2C080F1C3C081F1C4C082F17FC1B1
:104080007BF080C17CF081C17DF082C17EF0000EAA
:104090000001C86F040EC76F2D0E0001C56F0D0E15
:1040A0000001C66F87C1C1F088C1C2F089C1C3F0E9
:1040B0008AC1C4F002EC2AF0C1C077F0C2C078F027
:1040C000C3C079F0C4C07AF06EEC1BF077C083F106
:1040D00078C084F179C085F17AC086F1D3C090F0C0
:1040E000D4C091F0D5C092F0D6C093F083C194F0C3
:1040F00084C195F085C196F086C197F036EC17F033
:1041000090C0D3F091C0D4F092C0D5F093C0D6F057
:1041100001018B510101D8B413D0D3C0A9F0D4C090
:10412000AAF0D5C0ABF0D6C0ACF0A0EC2DF0A9C081
:10413000D3F0AAC0D4F0ABC0D5F0ACC0D6F012001A
:10414000D3C0D3F0D4C0D4F0D5C0D5F0D6C0D6F00B
:104150001200000E0001B16F000EB26F800EB36F3F
:104160003F0EB46F94C1ADF095C1AEF096C1AFF003
:1041700097C1B0F064EC2DF0ADC0B5F0AEC0B6F0B4
:10418000AFC0B7F0B0C0B8F010EC28F00001D8B064
:104190000FD0000E01013F6F210E3E6F000E010196
:1041A000946F000E956F000E966F000E976F1200C1
:1041B000000E0101986F000E996F800E9A6F3F0EEE
:1041C0009B6F94C194F095C195F096C196F097C1FC
:1041D00097F094C190F095C191F096C192F097C17B
:1041E00093F036EC17F090C0A9F091C0AAF092C0FD
:1041F000ABF093C0ACF0A0EC2DF0A9C0ADF0AAC01C
:10420000AEF0ABC0AFF0ACC0B0F0000E0001B16FCB
:10421000000EB26F800EB36F3F0EB46FE2EC14F07D
:10422000ADC0C1F0AEC0C2F0AFC0C3F0B0C0C4F00A
:1042300089EC19F0C1C0A4F1C2C0A5F1C3C0A6F1B8
:10424000C4C0A7F194C1ADF095C1AEF096C1AFF076
:1042500097C1B0F064EC2DF0ADC0B1F0AEC0B2F0DB
:10426000AFC0B3F0B0C0B4F08F0E0001B56FC20E96
:10427000B66F350EB76F3F0EB86F10EC28F0000127
:10428000D8B02DD094C177F095C178F096C179F06F
:1042900097C17AF0A4C17BF0A5C17CF0A6C17DF0E6
:1042A000A7C17EF06EEC1BF077C0A8F178C0A9F131
:1042B00079C0AAF17AC0ABF1A8C1D1F0A9C1D2F0FE
:1042C000AAC1D3F0ABC1D4F078EC23F0D1C094F103
:1042D000D2C095F1D3C096F1D4C097F1120001017C
:1042E00097AF6ED094C17BF095C17CF096C17DF004
:1042F00097C17EF0A4C1A9F0A5C1AAF0A6C1ABF0F8
:10430000A7C1ACF0A0EC2DF0A9C077F0AAC078F05E
:10431000ABC079F0ACC07AF06EEC1BF077C0A8F1BE
:1043200078C0A9F179C0AAF17AC0ABF1A8C1D1F0E7
:10433000A9C1D2F0AAC1D3F0ABC1D4F078EC23F07C
:10434000D1C0A0F1D2C0A1F1D3C0A2F1D4C0A3F1D9
:10435000DB0E0001B16F0F0EB26FC90EB36F3F0ECF
:10436000B46FA0C1A9F0A1C1AAF0A2C1ABF0A3C1D2
:10437000ACF0A0EC2DF0A9C0ADF0AAC0AEF0ABC07F
:10438000AFF0ACC0B0F0E2EC14F0ADC09CF1AEC048
:104390009DF1AFC09EF1B0C09FF19CC1A9F09DC13D
:1043A000AAF09EC1ABF09FC1ACF0A0EC2DF0A9C06B
:1043B00094F1AAC095F1ABC096F1ACC097F1120090
:1043C00094C17BF095C17CF096C17DF097C17EF0E1
:1043D000A4C177F0A5C178F0A6C179F0A7C17AF0A1
:1043E0006EEC1BF077C0A8F178C0A9F179C0AAF1F2
:1043F0007AC0ABF1A8C1D1F0A9C1D2F0AAC1D3F063
:10440000ABC1D4F078EC23F0D1C0A0F1D2C0A1F1BF
:10441000D3C0A2F1D4C0A3F1A0C1A9F0A1C1AAF058
:10442000A2C1ABF0A3C1ACF0A0EC2DF0A9C0ADF0DF
:10443000AAC0AEF0ABC0AFF0ACC0B0F0DB0E000174
:10444000B16F0F0EB26FC90EB36F3F0EB46FE2ECD7
:1044500014F0ADC094F1AEC095F1AFC096F1B0C00C
:1044600097F1120020EE26F0DECFD5F0DDCFD6F0AA
:104470000001D51FD61FD54BD62B24500001D525C2
:104480000001776F25500001D6210001786FD7EC2D
:104490002DF0000177C081F0000178C082F00001AA
:1044A000000E82BFFF0E836F846F010EA1EC24F01B
:1044B00081C0D7F082C0D8F083C0D9F084C0DAF0D0
:1044C000D7C0B1F0D8C0B2F0D9C0B3F0DAC0B4F000
:1044D000000E0001B56F000EB66FF00EB76F410E03
:1044E000B86F10EC28F00001D8B0F9D0255003E1E6
:1044F000280E245CD8B0E5D0275003E1280E265CB6
:10450000D8B0DFD0D7C094F0D8C095F0D9C096F01D
:10451000DAC097F0D7C090F0D8C091F0D9C092F02F
:10452000DAC093F036EC17F090C0ADF091C0AEF069
:1045300092C0AFF093C0B0F0000E0001B16F000E5A
:10454000B26FC80EB36F420EB46FE2EC14F0ADC0A0
:1045500038F1AEC039F1AFC03AF1B0C03BF138C16B
:10456000C1F039C1C2F03AC1C3F03BC1C4F089EC1B
:1045700019F0C1C038F1C2C039F1C3C03AF1C4C0AA
:104580003BF1D7C077F0D8C078F0D9C079F0DAC065
:104590007AF038C17BF039C17CF03AC17DF03BC183
:1045A0007EF06EEC1BF077C0DBF078C0DCF079C0F9
:1045B000DDF07AC0DEF0DBC094F1DCC095F1DDC047
:1045C00096F1DEC097F1A9EC20F094C1DBF095C123
:1045D000DCF096C1DDF097C1DEF0DB0E00017B6FF1
:1045E0000F0E7C6F490E7D6F400E7E6FDBC077F043
:1045F000DCC078F0DDC079F0DEC07AF06EEC1BF044
:1046000077C090F078C091F079C092F07AC093F0C2
:10461000000E0001946F000E956F340E966F430EDE
:10462000976F36EC17F090C0DBF091C0DCF092C0D1
:10463000DDF093C0DEF0DBC077F0DCC078F0DDC0E9
:1046400079F0DEC07AF08EEC2AF00001775101019A
:104650005F6F2650245C27502558D8B002D0000E3A
:1046600001D0010E0101606F0001D7510101301925
:1046700017E10001D8510101311912E10001D951AE
:10468000010132190DE10001DA5101013319D8A4F9
:1046900007D0000E44BE010E01016019D8B412000B
:1046A000D7C030F1D8C031F1D9C032F1DAC033F11E
:1046B000010160A102D0448E01D0449ED8EC28F0C4
:1046C0001200000E44BE010E01015F19D8B41200A1
:1046D000000E01015F6F449ED8EC28F0120044AE3A
:1046E0001200000E01015F6F449ED8EC28F012000A
:1046F000D1C0ADF0D2C0AEF0D3C0AFF0D4C0B0F0F6
:1047000064EC2DF0ADC08CF1AEC08DF1AFC08EF178
:10471000B0C08FF101018C5101018D1101018E1189
:1047200001018F11D8A40AD0000E0001D16F000E34
:10473000D26F000ED36F000ED46F1200000E000176
:10474000B16F000EB26F800EB36F3F0EB46F8CC1AD
:10475000B5F08DC1B6F08EC1B7F08FC1B8F010ECD6
:1047600028F00001D8B002D0010E01D0000E0101E6
:10477000876F01018751D8B41BD0000E0001776FFD
:10478000000E786F800E796F3F0E7A6F8CC17BF0D0
:104790008DC17CF08EC17DF08FC17EF06EEC1BF080
:1047A00077C08CF178C08DF179C08EF17AC08FF12D
:1047B0008CC190F08DC191F08EC192F08FC193F0B9
:1047C0008CC194F08DC195F08EC196F08FC197F099
:1047D00036EC17F090C088F191C089F192C08AF14F
:1047E00093C08BF188C1C1F089C1C2F08AC1C3F006
:1047F0008BC1C4F0190E0001C56F0D0E0001C66F0C
:10480000000E0001C86F040EC76F02EC2AF0C1C091
:104810007FF1C2C080F1C3C081F1C4C082F188C100
:10482000C1F089C1C2F08AC1C3F08BC1C4F0010ECE
:104830000001C56F0D0E0001C66F000E0001C86FAC
:10484000050EC76F02EC2AF0C1C083F1C2C084F12B
:10485000C3C085F1C4C086F18CC190F08DC191F0C8
:104860008EC192F08FC193F07FC17BF080C17CF04C
:1048700081C17DF082C17EF083C177F084C178F080
:1048800085C179F086C17AF06EEC1BF077C094F0A8
:1048900078C095F079C096F07AC097F036EC17F0B2
:1048A00090C08CF191C08DF192C08EF193C08FF1C8
:1048B000010187510101D8B425D08CC1A9F08DC167
:1048C000AAF08EC1ABF08FC1ACF0A0EC2DF0A9C066
:1048D000ADF0AAC0AEF0ABC0AFF0ACC0B0F0DB0E34
:1048E0000001B16F0F0EB26FC90EB36F3F0EB46F00
:1048F000E2EC14F0ADC08CF1AEC08DF1AFC08EF122
:10490000B0C08FF10001D4BF09D08CC1D1F08DC1EE
:10491000D2F08EC1D3F08FC1D4F012008CC1A9F0B7
:104920008DC1AAF08EC1ABF08FC1ACF0A0EC2DF020
:10493000A9C0D1F0AAC0D2F0ABC0D3F0ACC0D4F0C3
:1049400012000001896F000189510001D8B41ED006
:10495000000184AF1BD081C085F082C086F083C087
:1049600087F084C088F00001851F861F871F881F7D
:10497000852B000E86238723882385C08BF086C075
:104980008CF087C08DF088C08EF008D081C08BF08D
:1049900082C08CF083C08DF084C08EF00001815104
:1049A000000182110001831100018411D8A40AD0F2
:1049B000000E0001816F000E826F000E836F000EEB
:1049C000846F1200960E00018A6F08D000018A2BB6
:1049D0000001D8908E338D338C338B33000E000161
:1049E0008B150001856F000E00018C150001866F8C
:1049F000000E00018D150001876FFE0E00018E155F
:104A00000001886F000185510001861100018711A6
:104A100000018811D8B410D0D9D700018A2B010E1B
:104A200000018B27000E8C238D238E230001D8904C
:104A30008E338D338C338B33000E00018B150001C8
:104A4000856F000E00018C150001866F000E0001BD
:104A50008D150001876FFF0E00018E150001886F14
:104A600000018551000186110001871100018811A4
:104A7000D8B409D0D2D700018A070001D8908B376B
:104A80008C378D378E3700018DBF04D0020E0001A8
:104A90008A61F1D700018AB109D0FF0E00018B179E
:104AA000FF0E8C177F0E8D17FF0E8E170001D8900A
:104AB0008A338AC085F00001866B876B886B85C05E
:104AC00088F00001876B866B856B000185510001C2
:104AD0008B130001865100018C13000187510001E6
:104AE0008D130001885100018E13000189510001CE
:104AF000D8B405D0000184AF02D000018E8F8BC0E6
:104B000081F08CC082F08DC083F08EC084F01200E2
:104B100000018E6F800E15EC2EF0000E706E000EF0
:104B2000716E000E726E00018741E842C00B0001F9
:104B3000876F0001875170120001885170120001C7
:104B40008E51711200018539E842F80B0001856F22
:104B5000000185517112000189A5718C000189B194
:104B6000718E000186517212000189B3728C0001AE
:104B70008951600B606E00018951100BFF0AD8B497
:104B8000608460CF50FF000E0001776F000E786FD9
:104B9000000E796F000E7A6FF70E00017B6F010E29
:104BA0004EEC1DF0000E0001776F000E786F000EC6
:104BB000796F000E7A6FF70E00017B6F020E4EECDC
:104BC0001DF00FD0F70E00018F6F07D000018F6925
:104BD0000001906928D000018F69F70E0001906FE5
:104BE00022D09F0E00018A6FFF0E00018B6F000123
:104BF0008951600B00018C6F8D6B00018A5100019F
:104C00008C1300018B5100018D1300018D51000A9E
:104C1000D8A4E1D700018C51BF0AD8B4D7D7600A15
:104C2000D8B4D0D7D8D7000E0001776F000E786FB8
:104C3000000E796F000E7A6F8FC07BF0000EA9EC2A
:104C400006F0000E0001776F000E786F000E796F8E
:104C5000000E7A6F8FC07BF0010EA9EC06F0000EFB
:104C60000001776F000E786F000E796F000E7A6F7B
:104C700090C07BF0020EA9EC06F0000E0001776FE9
:104C8000000E786F000E796F000E7A6F90C07BF087
:104C9000030EA9EC06F0000E0001776F000E786F8E
:104CA000000E796F000E7A6F90C07BF0040EA9ECB5
:104CB00006F0000E0001776F000E786F000E796F1E
:104CC000000E7A6F90C07BF0050EA9EC06F0000E86
:104CD00015EC2EF01200CED032EC22F0255004E17B
:104CE000330E245CD8A02AD045B057D003EC2EF068
:104CF0000009D8B4FBD7080E0001776F000E786F5B
:104D0000000E796F000E7A6F4F0E00017B6F010E5F
:104D100000017C6F080E00017D6FFC0E00017E6FAC
:104D20002CEC0CF04580000E0001D76F000ED86F00
:104D3000000ED96F000EDA6F8A882FD08A9820EE85
:104D400026F0DECFACF1DDCFADF10101AC1FAD1F20
:104D5000AC4BAD2B24500101AC250001776F2550E1
:104D60000101AD210001786FD7EC2DF0000177C073
:104D700081F0000178C082F00001000E82BFFF0EBA
:104D8000836F846F010EA1EC24F081C0D7F082C044
:104D9000D8F083C0D9F084C0DAF0255022E1320E79
:104DA000245CD8A045A01DD0459003EC2EF000094E
:104DB000D8B4FBD7070E0001776F000E786F000E96
:104DC000796F000E7A6F4F0E00017B6F010E0001AC
:104DD0007C6F080E00017D6FFC0E00017E6F2CECD5
:104DE0000CF044A847D00001E45105E1380E000161
:104DF000E35DD8A03DD0818A010E01014F6F0B0EFB
:104E00000001776F000E786F000E796F000E7A6FD9
:104E10004F0E00017B6F010E00017C6F010E00013F
:104E20007D6FBC0E00017E6F2CEC0CF045B222D0E1
:104E3000255020E1280E245CD8B01CD0080E0001BB
:104E4000776F000E786F000E796F000E7A6F4F0E3D
:104E500000017B6F010E00017C6F080E00017D6F69
:104E6000FC0E00017E6F2CEC0CF0449A458202D0BF
:104E70004498819A44A0120081BA12002DD7C9D05B
:104E8000070E0001776F000E786F000E796F000E2D
:104E90007A6F4F0E00017B6F010E00017C6F080ED0
:104EA00000017D6FFC0E00017E6F2CEC0CF078ECA5
:104EB00012F0000E0001E66F000EE56F000E01011A
:104EC000576F5A0E01016F6FD8EC28F0010EEDEC10
:104ED0002DF044AAFED70001E45105E1200E0001A7
:104EE000E35DD8A02AD0000E0001E66F320EE56F18
:104EF00044945A0E01016F6F0001E351E20F01016A
:104F0000776F44820D0E0001776F000E786F000EF0
:104F1000796F000E7A6F770E00017B6F010E000132
:104F20007C6F080E00017D6FBC0E00017E6F2CECC3
:104F30000CF0D8EC28F044B2FED7000E0001E66F6A
:104F4000000EE56F5A0E01016F6FD8EC28F0010ECC
:104F5000EDEC2DF0000E0001E66F320EE56F44948B
:104F6000B40E01016F6F34C177F035C178F036C1EE
:104F700079F037C17AF08EEC2AF000017751010107
:104F8000776F44820D0E0001776F000E786F000E70
:104F9000796F000E7A6F770E00017B6F010E0001B2
:104FA0007C6F080E00017D6FBC0E00017E6F2CEC43
:104FB0000CF0D8EC28F044B2FED7000E0001E66FEA
:104FC000320EE56F000E01016F6F44820D0E00017D
:104FD000776F000E786F000E796F000E7A6F770E84
:104FE00000017B6F010E00017C6F080E00017D6FD8
:104FF000BC0E00017E6F2CEC0CF0D8EC28F044B213
:10500000FED7000E0001E66F000EE56FD8EC28F029
:10501000FFD781AA120044A0120045A4120030D785
:10502000000E0001B1150001B96F000E0001B215AC
:105030000001BA6F800E0001B3150001BB6F7F0E37
:105040000001B4150001BC6F0001B9510001BA1193
:105050000001BB110001BC11D8A409D0000E000151
:10506000B16F000EB26F000EB36F000EB46F000E82
:105070000001B5150001B96F000E0001B615000161
:10508000BA6F800E0001B7150001BB6F7F0E0001E3
:10509000B8150001BC6F0001B9510001BA1100013F
:1050A000BB110001BC11D8A409D0000E0001B56FDE
:1050B000000EB66F000EB76F000EB86F0001B4AFF0
:1050C00026D0B1C0B9F0B2C0BAF0B3C0BBF0B4C022
:1050D000BCF00001B91FBA1FBB1FBC1FB92B000ECB
:1050E000BA23BB23BC23000E0001B9250001B16F18
:1050F000000E0001BA210001B26F000E0001BB21B9
:105100000001B36F800E0001BC210001B46F0001EB
:10511000B8AF26D0B5C0B9F0B6C0BAF0B7C0BBF0D2
:10512000B8C0BCF00001B91FBA1FBB1FBC1FB92B10
:10513000000EBA23BB23BC23000E0001B9250001D9
:10514000B56F000E0001BA210001B66F000E00011C
:10515000BB210001B76F800E0001BC210001B86FB8
:10516000000E0001B11B000EB21B000EB31B800E1F
:10517000B41B000E0001B51B000EB61B000EB71BC2
:10518000800EB81B0001B5510001B15D0001B651A0
:105190000001B2590001B7510001B3590001B851E3
:1051A0000001B459D8B002D0D8901200D8801200B3
:1051B00081AA60D003EC2EF0E806D8A4FBD7050E38
:1051C0000001776F000E786F000E796F000E7A6F16
:1051D0006F0E00017B6F010E00017C6F080E000155
:1051E0007D6FBC0E00017E6F2CEC0CF0E5C067F10A
:1051F0000001E6510101686F000E44B4010E010187
:10520000696F03EC2EF0E806D8A4FBD7030E00016B
:10521000776F000E786F000E796F000E7A6F670E51
:1052200000017B6F010E00017C6F080E00017D6F95
:10523000BC0E00017E6F2CEC0CF003EC2EF0E806A7
:10524000D8A4FBD7040E0001776F000E786F000E14
:10525000796F000E7A6F570E00017B6F010E00010F
:105260007C6F080E00017D6FBC0E00017E6F2CEC80
:105270000CF012000E0E0001776F000E786F000E1A
:10528000796F000E7A6F5F0E00017B6F010E0001D7
:105290007C6F080E00017D6FBC0E00017E6F2CEC50
:1052A0000CF020EE87F05FC1DFFF000EE8CF88F042
:1052B000AA0E0001776F000E786F000E796F000E56
:1052C0007A6F870E00017B6F000E00017C6F080E65
:1052D00000017D6FBC0E00017E6F2CEC0CF0120003
:1052E000C1C077F0C2C078F0C3C079F0C4C07AF012
:1052F000C90E00017B6F000E00017C6FF6EC2BF0F5
:105300000001CAAF17D00001C4AF0AD0000E0001DF
:10531000C16F000EC26F800EC36FBF0EC46F12004C
:10532000000E0001C16F000EC26F000EC36F000EB1
:10533000C46F12000001CA5105E11D0E0001C95DD4
:10534000D8A009D0C1C0C1F0C2C0C2F0C3C0C3F070
:10535000C4C0C4F01200C1C077F0C2C078F0C3C0AE
:1053600079F0C4C07AF08EEC2AF077C081F078C072
:1053700082F079C083F07AC084F0010EA1EC24F0B1
:1053800081C0C5F082C0C6F083C0C7F084C0C8F039
:10539000C1C0B1F0C2C0B2F0C3C0B3F0C4C0B4F079
:1053A000C5C0B5F0C6C0B6F0C7C0B7F0C8C0B8F049
:1053B00010EC28F00001D8B01CD0C5C0ADF0C6C0BC
:1053C000AEF0C7C0AFF0C8C0B0F0000E0001B16FC2
:1053D000000EB26F800EB36FBF0EB46FE2EC14F02C
:1053E000ADC0C1F0AEC0C2F0AFC0C3F0B0C0C4F039
:1053F0001200C5C0C1F0C6C0C2F0C7C0C3F0C8C06B
:10540000C4F01200C7C0C9F0C8C0CAF00001D890EB
:10541000C937CA370001D890C937CA37C5C0CBF0E1
:10542000C6C0CCF00001C9510001CB270001CA5110
:105430000001CC23CBC0F6FFCCC0F7FF000EF86E06
:105440000900F5CFCDF00900F5CFCEF00900F5CF7A
:10545000CFF00A00F5CFD0F052D0CDC094F0CEC03E
:1054600095F0CFC096F0D0C097F0C1C090F0C2C008
:1054700091F0C3C092F0C4C093F036EC17F090C026
:10548000ADF091C0AEF092C0AFF093C0B0F00001AB
:10549000C707D8A0C807C7C0C9F0C8C0CAF0000174
:1054A000D890C937CA370001D890C937CA37C5C0A4
:1054B000CBF0C6C0CCF00001C9510001CB270001E0
:1054C000CA510001CC23CBC0F6FFCCC0F7FF000EC1
:1054D000F86E0900F5CFB1F00900F5CFB2F0090080
:1054E000F5CFB3F00A00F5CFB4F0E2EC14F0ADC0A4
:1054F000CDF0AEC0CEF0AFC0CFF0B0C0D0F0000164
:10550000C7510001C811D8A4A8D7CDC0C1F0CEC0E2
:10551000C2F0CFC0C3F0D0C0C4F012000001793592
:105520007A350001806F00018051D8A40AD0000EA6
:105530000001776F000E786F000E796F000E7A6FA2
:10554000120077C07BF078C07CF079C07DF07AC023
:105550007EF0200E06D00001D8907E337D337C3360
:105560007B33E82EF8D700017B5100017F6F0001EB
:10557000798FFF0E00017717FF0E7817FF0E79174E
:10558000000E7A17960E0001805F000180AF1AD0DE
:1055900000018051800A970FD8B00AD0000E000198
:1055A000776F000E786F000E796F000E7A6F120021
:1055B0000001D8907A337933783377330001803F14
:1055C000F7D71BD01F0E0001806512D0000E00011E
:1055D000776F000E786F000E796F000E7A6F1200F1
:1055E0000001D8907737783779377A37000180070C
:1055F000000180510001D8A4F3D700017F510001C0
:10560000D8B409D000017A1F791F781F776D000E7A
:10561000782379237A2377C077F078C078F079C03F
:1056200079F07AC07AF01200DB0E0001B16F0F0E34
:10563000B26F490EB36F400EB46FACC1B5F0ADC1DF
:10564000B6F0AEC1B7F0AFC1B8F010EC28F0000171
:10565000D8B02ED0ACC1ADF0ADC1AEF0AEC1AFF0A0
:10566000AFC1B0F0E40E0001B16FCB0EB26F960E79
:10567000B36FC00EB46FE2EC14F0ADC0B0F1AEC0C9
:10568000B1F1AFC0B2F1B0C0B3F1B0C1D3F0B1C1AC
:10569000D4F0B2C1D5F0B3C1D6F01DEC1FF0D3C029
:1056A000ACF1D4C0ADF1D5C0AEF1D6C0AFF11200AF
:1056B000ACC1ADF0ADC1AEF0AEC1AFF0AFC1B0F0B6
:1056C000DB0E0001B16F0F0EB26FC90EB36F3F0E4C
:1056D000B46FE2EC14F0ADC0B0F1AEC0B1F1AFC048
:1056E000B2F1B0C0B3F1B0C1D3F0B1C1D4F0B2C126
:1056F000D5F0B3C1D6F01DEC1FF0D3C0ACF1D4C0CF
:10570000ADF1D5C0AEF1D6C0AFF11200E9CF6BF06C
:10571000EACF6CF0E1CF6DF0E2CF6EF0D9CF6FF051
:10572000DACF70F0F3CF71F0F4CF72F0F6CF73F000
:10573000F7CF74F0F8CF75F0F5CF76F0F1AC07D075
:10574000F19C000EB36E000EB26E449630D0B3CF13
:1057500042F0B2CF41F042C03EF03F6A3E500001FD
:10576000676F41503E6E67C03FF0D8903F300001F8
:10577000676F3E303A6E67C03BF03AC060F03BC0A6
:1057800061F0000E0001636F3A0E626F7EEC2CF048
:105790004050020D240EF324D96E000EF420DA6E70
:1057A000000160C0DEFF000161C0DDFFF18CF292FC
:1057B00076C0F5FF75C0F8FF74C0F7FF73C0F6FF41
:1057C00072C0F4FF71C0F3FF70C0DAFF6FC0D9FF81
:1057D0006EC0E2FF6DC0E1FF6CC0EAFF6BC0E9FF85
:1057E0006AC0FBFF69C0FAFF4892110000017751BF
:1057F000000178110001791100017A11D8A409D0B3
:105800007BC0D9FF7CC0DAFF000EDE6E000EDD6EBD
:10581000120000017A517F0B00017D6F7E6BD890E2
:1058200000017D377E377BC0D9FF7CC0DAFF7DC0A9
:10583000DEFF7EC0DDFF000179AF04D000017D6B8B
:105840007D2B02D000017D6B00017D517BC0D9FF13
:105850007CC0DAFFDE12000EDD127BC0D9FF7CC0F7
:10586000DAFF820EDE26FF0EDD2200017A817A83C6
:105870007A857A877A897A8B7A9D0001799F1200DE
:1058800001EE00F07F0EEE6AE806FDE100EED7F0D3
:10589000100EEE6AE806FDE1456A446A00EE24F067
:1058A000200EEE6AE806FDE1400EF66E5C0EF76E25
:1058B000000EF86E01EED4F010EE0CF00900F5CFFA
:1058C000EEFFE550E150FAE14E0EF66E5C0EF76E1B
:1058D000000EF86E0900F5CFE7F04C0EF66E5C0E88
:1058E000F76E000EF86E0900F5CF46F00900F5CF0F
:1058F00047F04890489200011AEF2DF0000E000189
:10590000666F000E656F0001625100016311D8B42B
:105910002CD0010E0001646F06D00001D8906237D0
:1059200063370001642B000163AFF7D70001D89003
:1059300065376637000162510001605D0001635107
:1059400000016159D8A00AD0000162510001605FD6
:10595000000163510001615B000165810001D89085
:10596000633362330001642FE1D765C060F066C025
:1059700061F01200000E896EF00E926E000E8A6EBB
:105980008A0E936E000E8B6E9468C168060E00013D
:10599000856F050E0001866F010E0001876F030EF3
:1059A0000001886F9D0E0001896F040E88EC25F0C0
:1059B000D08EA492A490A592A590A382A380F194E6
:1059C000800ED56E110EB16E340ED76EE00ED66E0F
:1059D000F294F28AF18CF292F298F28CF28E12002A
:1059E00009C138F0396A38500001776F0101085158
:1059F000386E77C039F00BC13CF03D6A3C50000175
:105A0000776F01010A513C6E77C03DF038503C245D
:105A10000001776F39503D200001786FD890000168
:105A200078310001796F000177310001DF6F79C0B3
:105A3000E0F01200000E0101006F010E0101016F84
:105A4000020E0101026F030E0101036F040E01013A
:105A5000046F050E0101056F060E0101066F070EAA
:105A60000101076FBAEC2CF08198819A819C4590D6
:105A700045946BEC26F0F0EC2CF03FEC27F0F9D7D6
:105A8000000E0001CF1B000ED01B000ED11B800E9C
:105A9000D21BCBC0ADF0CCC0AEF0CDC0AFF0CEC00D
:105AA000B0F0CFC0B1F0D0C0B2F0D1C0B3F0D2C02E
:105AB000B4F0E2EC14F0ADC0CBF0AEC0CCF0AFC0AF
:105AC000CDF0B0C0CEF012000001B0AF13D0ADC029
:105AD000A9F0AEC0AAF0AFC0ABF0B0C0ACF0A0EC83
:105AE0002DF0A9C0ADF0AAC0AEF0ABC0AFF0ACC015
:105AF000B0F01200ADC0ADF0AEC0AEF0AFC0AFF0D0
:105B0000B0C0B0F01200E7C077F00001786B7DC044
:105B100079F07EC07AF0BCEC2DF077C0E1F078C06F
:105B2000E2F007D0500EE82EFED70001E107D8A022
:105B3000E2070001E1510001E211D8B41200F2D7EE
:105B40000001A9510001AA110001AB110001AC1123
:105B5000D8B409D0000E0001A91B000EAA1B000E2C
:105B6000AB1B800EAC1BA9C0A9F0AAC0AAF0ABC0A9
:105B7000ABF0ACC0ACF0120000017751000179032A
:105B8000F3CF7BF0F4CF7CF00001775100017A0372
:105B9000F35000017C270001785100017903F35094
:105BA00000017C277BC077F07CC078F012000001F8
:105BB00078AF0ED077C079F078C07AF00001791F05
:105BC0007A1F794B7A2B79C077F07AC078F012007F
:105BD00077C077F078C078F0120000017F6F000E78
:105BE0000001806F09D0030E00017E6FE80E7D6F0B
:105BF00083EC2DF00001802B00017F510001805DBE
:105C0000D8B01200F0D7010E0001776F0F0140A746
:105C100009D00F0130A706D00F0120A703D0000E36
:105C20000001776F0001775112000001776F77C094
:105C30006FFF6E50E00B00017719D8B41200F9D74E
:105C40000000F0410000004200002042640010000B
:020000040020DA
:08000000FFFFFFFFFFFFFFFF00
:020000040030CA
:0E000000FF021F1EFF8081FF3FC03FE03F4018
:00000001FF
