:040000002CEF01F0F0
:0E0008004882FACF69F0FBCF6AF027EF2CF0A8
:100018004880D8CF11F0E8CF12F0E0CF13F0FACF34
:1000280014F0FBCF15F0E9CF16F0EACF17F0E1CFC7
:1000380018F0E2CF19F0D9CF1AF0DACF1BF0F3CFCE
:100048001CF0F4CF1DF0F6CF1EF0F7CF1FF0F8CF5D
:1000580020F0F5CF21F0F2A436D0F298D59E340ED8
:10006800D76EE00ED66ED58E44A60CD04050020D49
:10007800240EF324D96E000EF420DA6E880EDE6E9C
:10008800130EDD6E402A080E4018D8A402D0000EC8
:10009800406E000E226E4050010D000EF324D96E02
:1000A800010EF420DA6EDF50226E22C080FF93909A
:1000B8008A80140EE82EFED744868A909380F292A6
:1000C800F288F294F18CA4A0A4B201D09DD0440E81
:1000D800016E010E026EF2EC0FF00D0E01014419D3
:1000E800010145110101461101014711D8B444929B
:1000F800070E0101441901014511010146110101D1
:100108004711D8A42DD001015205D8B429D0000E2A
:100118000001E46F000EE36F49C134F0356A3450D2
:100128000D6E01014851346E0DC035F04BC136F0EB
:10013800376A36500D6E01014A51366E0DC037F0E0
:10014800345036240D6E355037200E6ED8900E3050
:100158000F6E0D300001E36F0FC0E4F04488448A4D
:100168000A0E01014419010145110101461101015D
:100178004711D8A40CD001014805D8A403D0448065
:10018800818C05D044908198819A819C45900C0E71
:1001980001014419010145110101461101014711ED
:1001A800D8B44584060E0101441901014511010125
:1001B800461101014711D8A425D0000E236E070E61
:1001C800236401D014D02350010D480EF324D96EB6
:1001D800010EF420DA6E2350010D080EF324E16EAF
:1001E800010EF420E26EDFCFE7FF232AE8D70D0ED9
:1001F800010144190101451101014611010147118D
:10020800D8B4449CA490A49221C0F5FF20C0F8FF64
:100218001FC0F7FF1EC0F6FF1DC0F4FF1CC0F3FF90
:100228001BC0DAFF1AC0D9FF19C0E2FF18C0E1FFEE
:1002380017C0EAFF16C0E9FF15C0FBFF14C0FAFF9C
:1002480013C0E0FF12C0E8FF11C0D8FF48901000AB
:04025800E1EF2CF0B6
:100D000000063C04427D9F6A425C900142604DBBFC
:100D10004051EC473EDE8D1FBB063C0442C0598B60
:100D20004274044442F99B4F410000803FECF34A77
:100D300048359595C717C1DC45FDDB6DC372B333EC
:100D4000402B3401487F9DB045E7FFD94200008029
:100D50003F000001806F000180510001D8A458D0ED
:100D600000017B29D8A454D00F01019777C07CF0F3
:100D700078C07DF079C07EF07AC07FF0040E06D096
:100D80000001D8907F337E337D337C33E82EF8D753
:100D90007CC081F07DC082F07EC083F07FC084F093
:100DA000000181510001816F826B836B846B81C074
:100DB00000FF070E000177150001816F000E000192
:100DC00078150001826F000E000179150001836F14
:100DD000000E00017A150001846F81C07CF082C092
:100DE0007DF083C07EF084C07FF0050ED8900001B6
:100DF0007C377D377E377F37E82EF8D77CC081F08F
:100E00007DC082F07EC083F07FC084F081C001FF8E
:100E100000018005D8A458D000017B29D8A454D063
:100E20000F01059777C07CF078C07DF079C07EF027
:100E30007AC07FF0040E06D00001D8907F337E3355
:100E40007D337C33E82EF8D77CC081F07DC082F002
:100E50007EC083F07FC084F0000181510001816F6A
:100E6000826B836B846B81C004FF070E00017715D2
:100E70000001816F000E000178150001826F000EE5
:100E8000000179150001836F000E00017A15000141
:100E9000846F81C07CF082C07DF083C07EF084C00E
:100EA0007FF0050ED89000017C377D377E377F3785
:100EB000E82EF8D77CC081F07DC082F07EC083F040
:100EC0007FC084F081C005FF020E00018019D8A404
:100ED00058D000017B29D8A454D00F01099777C0BE
:100EE0007CF078C07DF079C07EF07AC07FF0040E8F
:100EF00006D00001D8907F337E337D337C33E82EDB
:100F0000F8D77CC081F07DC082F07EC083F07FC0C6
:100F100084F0000181510001816F826B836B846BCF
:100F200081C008FF070E000177150001816F000ED8
:100F3000000178150001826F000E00017915000193
:100F4000836F000E00017A150001846F81C07CF070
:100F500082C07DF083C07EF084C07FF0050ED89003
:100F600000017C377D377E377F37E82EF8D77CC08D
:100F700081F07DC082F07EC083F07FC084F081C0AC
:100F800009FF030E00018019D8A458D000017B2965
:100F9000D8A454D00F010D9777C07CF078C07DF0B5
:100FA00079C07EF07AC07FF0040E06D00001D890A0
:100FB0007F337E337D337C33E82EF8D77CC081F0DD
:100FC0007DC082F07EC083F07FC084F0000181513B
:100FD0000001816F826B836B846B81C00CFF070EF5
:100FE000000177150001816F000E000178150001E6
:100FF000826F000E000179150001836F000E000161
:101000007A150001846F81C07CF082C07DF083C0BE
:101010007EF084C07FF0050ED89000017C377D37CC
:101020007E377F37E82EF8D77CC081F07DC082F014
:101030007EC083F07FC084F081C00DFF040E0001EC
:101040008019D8A458D000017B29D8A454D00F010E
:10105000119777C07CF078C07DF079C07EF07AC0BF
:101060007FF0040E06D00001D8907F337E337D33AD
:101070007C33E82EF8D77CC081F07DC082F07EC042
:1010800083F07FC084F0000181510001816F826B89
:10109000836B846B81C010FF070E00017715000180
:1010A000816F000E000178150001826F000E0001B3
:1010B00079150001836F000E00017A150001846F1D
:1010C00081C07CF082C07DF083C07EF084C07FF060
:1010D000050ED89000017C377D377E377F37E82EAC
:1010E000F8D77CC081F07DC082F07EC083F07FC0E5
:1010F00084F081C011FF050E00018019D8A458D0DA
:1011000000017B29D8A454D00F01159777C07CF03B
:1011100078C07DF079C07EF07AC07FF0040E06D0F2
:101120000001D8907F337E337D337C33E82EF8D7AF
:101130007CC081F07DC082F07EC083F07FC084F0EF
:10114000000181510001816F826B836B846B81C0D0
:1011500014FF070E000177150001816F000E0001DA
:1011600078150001826F000E000179150001836F70
:10117000000E00017A150001846F81C07CF082C0EE
:101180007DF083C07EF084C07FF0050ED890000112
:101190007C377D377E377F37E82EF8D77CC081F0EB
:1011A0007DC082F07EC083F07FC084F081C015FFD7
:1011B000000180510001D8A489D0F70E00017B19ED
:1011C000D8A484D00F010187000177510001816FFD
:1011D000826B836B846B81C003FF000E0001771567
:1011E0000001816FFF0E000178150001826F000E73
:1011F000000179150001836F000E00017A150001CE
:10120000846F81C07CF082C07DF083C07EF084C09A
:101210007FF07DC07CF07EC07DF07FC07EF000015D
:101220007F6B7CC081F07DC082F07EC083F07FC088
:1012300084F081C002FF000179A103D00F01018178
:1012400002D00F010191000179A303D00F010183A6
:1012500002D00F010193000179A503D00F01018B8A
:1012600002D00F01019B000179A703D00F01018D6E
:1012700002D00F01019D000179A903D00F01018F58
:1012800002D00F01019F77C07CF078C07DF079C05B
:101290007EF07AC07FF0160E06D00001D8907F3322
:1012A0007E337D337C33E82EF8D77CC081F07DC05F
:1012B00082F07EC083F07FC084F000018151000184
:1012C000816F826B836B846B81C000FF000180059E
:1012D000D8A489D0F70E00017B19D8A484D00F01BF
:1012E0000587000177510001816F826B836B846BEE
:1012F00081C007FF000E000177150001816FFF0E0E
:10130000000178150001826F000E000179150001BF
:10131000836F000E00017A150001846F81C07CF09C
:1013200082C07DF083C07EF084C07FF07DC07CF001
:101330007EC07DF07FC07EF000017F6B7CC081F0BD
:101340007DC082F07EC083F07FC084F081C006FF44
:10135000000179A103D00F01058102D00F01059191
:10136000000179A303D00F01058302D00F0105937B
:10137000000179A503D00F01058B02D00F01059B59
:10138000000179A703D00F01058D02D00F01059D43
:10139000000179A903D00F01058F02D00F01059F2D
:1013A00077C07CF078C07DF079C07EF07AC07FF0A5
:1013B000160E06D00001D8907F337E337D337C3308
:1013C000E82EF8D77CC081F07DC082F07EC083F02B
:1013D0007FC084F0000181510001816F826B836BBB
:1013E000846B81C004FF020E00018019D8A489D04B
:1013F000F70E00017B19D8A484D00F0109870001E2
:1014000077510001816F826B836B846B81C00BFF0E
:10141000000E000177150001816FFF0E00017815A5
:101420000001826F000E000179150001836F000E2C
:1014300000017A150001846F81C07CF082C07DF0CC
:1014400083C07EF084C07FF07DC07CF07EC07DF0E4
:101450007FC07EF000017F6B7CC081F07DC082F098
:101460007EC083F07FC084F081C00AFF000179A1B3
:1014700003D00F01098102D00F010991000179A366
:1014800003D00F01098302D00F010993000179A550
:1014900003D00F01098B02D00F01099B000179A72E
:1014A00003D00F01098D02D00F01099D000179A918
:1014B00003D00F01098F02D00F01099F77C07CF084
:1014C00078C07DF079C07EF07AC07FF0160E06D02D
:1014D0000001D8907F337E337D337C33E82EF8D7FC
:1014E0007CC081F07DC082F07EC083F07FC084F03C
:1014F000000181510001816F826B836B846B81C01D
:1015000008FF030E00018019D8A489D0F70E00014E
:101510007B19D8A484D00F010D87000177510001F9
:10152000816F826B836B846B81C00FFF000E0001A3
:1015300077150001816FFF0E000178150001826FA1
:10154000000E000179150001836F000E00017A156D
:101550000001846F81C07CF082C07DF083C07EF08A
:1015600084C07FF07DC07CF07EC07DF07FC07EF0C7
:1015700000017F6B7CC081F07DC082F07EC083F073
:101580007FC084F081C00EFF000179A103D00F015C
:101590000D8102D00F010D91000179A303D00F013D
:1015A0000D8302D00F010D93000179A503D00F0127
:1015B0000D8B02D00F010D9B000179A703D00F0105
:1015C0000D8D02D00F010D9D000179A903D00F01EF
:1015D0000D8F02D00F010D9F77C07CF078C07DF099
:1015E00079C07EF07AC07FF0160E06D00001D89048
:1015F0007F337E337D337C33E82EF8D77CC081F097
:101600007DC082F07EC083F07FC084F000018151F4
:101610000001816F826B836B846B81C00CFF040EB1
:1016200000018019D8A489D0F70E00017B19D8A435
:1016300084D00F011187000177510001816F826B07
:10164000836B846B81C013FF000E000177150001CE
:10165000816FFF0E000178150001826F000E0001FE
:1016600079150001836F000E00017A150001846F67
:1016700081C07CF082C07DF083C07EF084C07FF0AA
:101680007DC07CF07EC07DF07FC07EF000017F6B6E
:101690007CC081F07DC082F07EC083F07FC084F08A
:1016A00081C012FF000179A103D00F01118102D086
:1016B0000F011191000179A303D00F01118302D012
:1016C0000F011193000179A503D00F01118B02D0F6
:1016D0000F01119B000179A703D00F01118D02D0DA
:1016E0000F01119D000179A903D00F01118F02D0C4
:1016F0000F01119F77C07CF078C07DF079C07EF03B
:101700007AC07FF0160E06D00001D8907F337E336A
:101710007D337C33E82EF8D77CC081F07DC082F029
:101720007EC083F07FC084F0000181510001816F91
:10173000826B836B846B81C010FF050E00018019E2
:10174000D8A41200F70E00017B19D8A412000F01D3
:101750001587000177510001816F826B836B846B69
:1017600081C017FF000E000177150001816FFF0E89
:10177000000178150001826F000E0001791500014B
:10178000836F000E00017A150001846F81C07CF028
:1017900082C07DF083C07EF084C07FF07DC07CF08D
:1017A0007EC07DF07FC07EF000017F6B7CC081F049
:1017B0007DC082F07EC083F07FC084F081C016FFC0
:1017C000000179A103D00F01158102D00F011591FD
:1017D000000179A303D00F01158302D00F011593E7
:1017E000000179A503D00F01158B02D00F01159BC5
:1017F000000179A703D00F01158D02D00F01159DAF
:10180000000179A903D00F01158F02D00F01159F98
:1018100077C07CF078C07DF079C07EF07AC07FF030
:10182000160E06D00001D8907F337E337D337C3393
:10183000E82EF8D77CC081F07DC082F07EC083F0B6
:101840007FC084F0000181510001816F826B836B46
:10185000846B81C014FF12000F0140B73FD17DC0DF
:1018600045FF00017EAD03D00F01458D02D00F0171
:10187000459D00017EA779D0000177510001836F5B
:10188000846B856B866B83C044FF000E0001771567
:101890000001836FFF0E000178150001846F000EB8
:1018A000000179150001856F000E00017A15000115
:1018B000866F83C07FF084C080F085C081F086C0D1
:1018C00082F080C07FF081C080F082C081F0000192
:1018D000826B7FC083F080C084F081C085F082C0BD
:1018E00086F083C043FF000E0F01426F0F01428755
:1018F000000179A102D00F014281000179A302D039
:101900000F014283000179A502D00F01428B000133
:1019100079A702D00F01428D000179A902D00F01F1
:10192000428F77C07FF078C080F079C081F07AC0B4
:1019300082F0160E06D00001D890823381338033B6
:101940007F33E82EF8D77FC083F080C084F081C059
:1019500085F082C086F0000183510001836F846BA3
:10196000856B866B83C041FF59D00F01429777C0CA
:101970007FF078C080F079C081F07AC082F0040EE8
:1019800006D00001D8908233813380337F33E82E34
:10199000F8D77FC083F080C084F081C085F082C01A
:1019A00086F0000183510001836F846B856B866B29
:1019B00083C041FF070E000177150001836F000E01
:1019C000000178150001846F000E000179150001F7
:1019D000856F000E00017A150001866F83C07FF0CD
:1019E00084C080F085C081F086C082F0050ED8905A
:1019F00000017F37803781378237E82EF8D77FC0E4
:101A000083F080C084F081C085F082C086F00F0131
:101A100042511F0B0F01426F83C042FF00017EA1A4
:101A200003D00F01408102D00F01409100017EA33D
:101A300003D00F01408302D00F0140937BC0D9FF38
:101A40007CC0DAFFDF500F01466F000120EE01F08D
:101A50007B51D9267C51DA22DF500F01476F0001FC
:101A600020EE02F07B51D9267C51DA22DF500F01A3
:101A7000486F000120EE03F07B51D9267C51DA2219
:101A8000DF500F01496F000120EE04F07B51D92691
:101A90007C51DA22DF500F014A6F000120EE05F081
:101AA0007B51D9267C51DA22DF500F014B6F0001A8
:101AB00020EE06F07B51D9267C51DA22DF500F014F
:101AC0004C6F000120EE07F07B51D9267C51DA22C1
:101AD000DF500F014D6F0F01408712000F0130B72B
:101AE0003FD17DC035FF00017EAD03D00F01358DA4
:101AF00002D00F01359D00017EA779D000017751FA
:101B00000001836F846B856B866B83C034FF000E8E
:101B1000000177150001836FFF0E000178150001A9
:101B2000846F000E000179150001856F000E000121
:101B30007A150001866F83C07FF084C080F085C075
:101B400081F086C082F080C07FF081C080F082C0CA
:101B500081F00001826B7FC083F080C084F081C07F
:101B600085F082C086F083C033FF000E0F01326F14
:101B70000F013287000179A102D00F0132810001EB
:101B800079A302D00F013283000179A502D00F01A1
:101B9000328B000179A702D00F01328D000179A9A3
:101BA00002D00F01328F77C07FF078C080F079C00B
:101BB00081F07AC082F0160E06D00001D8908233F0
:101BC000813380337F33E82EF8D77FC083F080C025
:101BD00084F081C085F082C086F00001835100014D
:101BE000836F846B856B866B83C031FF59D00F0187
:101BF000329777C07FF078C080F079C081F07AC0EA
:101C000082F0040E06D00001D890823381338033F5
:101C10007F33E82EF8D77FC083F080C084F081C086
:101C200085F082C086F0000183510001836F846BD0
:101C3000856B866B83C031FF070E000177150001AD
:101C4000836F000E000178150001846F000E000103
:101C500079150001856F000E00017A150001866F6D
:101C600083C07FF084C080F085C081F086C082F0A0
:101C7000050ED89000017F37803781378237E82EF4
:101C8000F8D77FC083F080C084F081C085F082C027
:101C900086F00F0132511F0B0F01326F83C032FFEC
:101CA00000017EA103D00F01308102D00F013091DD
:101CB00000017EA303D00F01308302D00F013093C7
:101CC0007BC0D9FF7CC0DAFFDF500F01366F000107
:101CD00020EE01F07B51D9267C51DA22DF500F0132
:101CE000376F000120EE02F07B51D9267C51DA22B9
:101CF000DF500F01386F000120EE03F07B51D92631
:101D00007C51DA22DF500F01396F000120EE04F020
:101D10007B51D9267C51DA22DF500F013A6F000146
:101D200020EE05F07B51D9267C51DA22DF500F01DD
:101D30003B6F000120EE06F07B51D9267C51DA2260
:101D4000DF500F013C6F000120EE07F07B51D926D8
:101D50007C51DA22DF500F013D6F0F0130871200F6
:101D60000F0120B712007DC025FF00017EAD03D01A
:101D70000F01258D02D00F01259D00017EA779D08E
:101D8000000177510001836F846B856B866B83C084
:101D900024FF000E000177150001836FFF0E000184
:101DA00078150001846F000E000179150001856F20
:101DB000000E00017A150001866F83C07FF084C099
:101DC00080F085C081F086C082F080C07FF081C045
:101DD00080F082C081F00001826B7FC083F080C000
:101DE00084F081C085F082C086F083C023FF000E9E
:101DF0000F01226F0F012287000179A102D00F018C
:101E00002281000179A302D00F012283000179A56C
:101E100002D00F01228B000179A702D00F01228D81
:101E2000000179A902D00F01228F77C07FF078C01E
:101E300080F079C081F07AC082F0160E06D00001E1
:101E4000D8908233813380337F33E82EF8D77FC038
:101E500083F080C084F081C085F082C086F00001EC
:101E600083510001836F846B856B866B83C021FF78
:101E700059D00F01229777C07FF078C080F079C0E9
:101E800081F07AC082F0040E06D00001D89082332F
:101E9000813380337F33E82EF8D77FC083F080C052
:101EA00084F081C085F082C086F00001835100017A
:101EB000836F846B856B866B83C021FF070E0001E7
:101EC00077150001836F000E000178150001846F03
:101ED000000E000179150001856F000E00017A15D2
:101EE0000001866F83C07FF084C080F085C081F0E0
:101EF00086C082F0050ED89000017F378037813789
:101F00008237E82EF8D77FC083F080C084F081C08C
:101F100085F082C086F00F0122511F0B0F01226F46
:101F200083C022FF00017EA103D00F01208102D0D7
:101F30000F01209100017EA303D00F01208302D066
:101F40000F0120937BC0D9FF7CC0DAFFDF500F0167
:101F5000266F000120EE01F07B51D9267C51DA2258
:101F6000DF500F01276F000120EE02F07B51D926D0
:101F70007C51DA22DF500F01286F000120EE03F0C0
:101F80007B51D9267C51DA22DF500F01296F0001E5
:101F900020EE04F07B51D9267C51DA22DF500F016C
:101FA0002A6F000120EE05F07B51D9267C51DA2200
:101FB000DF500F012B6F000120EE06F07B51D92678
:101FC0007C51DA22DF500F012C6F000120EE07F068
:101FD0007B51D9267C51DA22DF500F012D6F0F0182
:101FE00020871200000E0B6E74BE0B8074BC0B8237
:101FF0000F0150AF43D101C0D9FF02C0DAFFDE6A42
:10200000DE6ADE6ADD6A20EE04F00150D926025055
:10201000DA2256CFDFFF20EE05F00150D92602501C
:10202000DA2257CFDFFF20EE06F00150D92602500A
:10203000DA2258CFDFFF20EE07F00150D9260250F8
:10204000DA2259CFDFFF20EE08F00150D9260250E6
:10205000DA225ACFDFFF20EE09F00150D9260250D4
:10206000DA225BCFDFFF20EE0AF00150D9260250C2
:10207000DA225CCFDFFF20EE0BF00150D9260250B0
:10208000DA225DCFDFFF20EE0EF00150D92602509C
:10209000DA220F0155AD02D0010E01D0000EDF6E25
:1020A00020EE0DF00150D9260250DA220F015551D1
:1020B0000F0BDF6E20EE0CF00150D9260250DA2211
:1020C0000F0152A702D0010E01D0000EDF6E0F01EA
:1020D00052B744D051CF03F0046A056A066A030E72
:1020E000D8900336043605360636E82EF9D701C0F7
:1020F000D9FF02C0DAFF03C0DEFF04C0DEFF05C067
:10210000DEFF06C0DEFF0F015239E842070B070B66
:102110000C6E01C0D9FF02C0DAFFDECF03F0DECFC4
:1021200004F0DECF05F0DECF06F00C500324076E7E
:10213000000E0420086E000E0520096E000E062019
:102140000A6E01C0D9FF02C0DAFF07C0DEFF08C077
:10215000DEFF09C0DEFF0AC0DEFF8DD054CF03F0E2
:10216000046A056A066A01C0D9FF02C0DAFF03C02B
:10217000DEFF04C0DEFF05C0DEFF06C0DEFF53CF7A
:1021800003F0046A056A066A05C006F004C005F09B
:1021900003C004F0036A01C0D9FF02C0DAFF035094
:1021A000DE260450DE220550DE220650DE220F011C
:1021B00052A10CD001C0D9FF02C0DAFF000EDE121E
:1021C000000EDE12010EDE12000EDE120F0152A30F
:1021D0000CD001C0D9FF02C0DAFF000EDE12000EE3
:1021E000DE12020EDE12000EDE120F0152AB0CD018
:1021F00001C0D9FF02C0DAFF000EDE12000EDE12AF
:10220000040EDE12000EDE120F0152AD0CD001C022
:10221000D9FF02C0DAFF000EDE12000EDE12080E39
:10222000DE12000EDE120F0152AF0CD001C0D9FF3A
:1022300002C0DAFF000EDE12000EDE12100EDE12F9
:10224000000EDE1251CF03F0046A056A066A150E0D
:10225000D8900336043605360636E82EF9D701C085
:10226000D9FF02C0DAFF0350DE120450DE1205501F
:10227000DE120650DE120F01509F120060AE1200F7
:1022800001C0D9FF02C0DAFFDE6ADE6ADE6ADD6AFB
:1022900020EE04F00150D9260250DA2266CFDFFF8B
:1022A00020EE05F00150D9260250DA2267CFDFFF79
:1022B00020EE06F00150D9260250DA2268CFDFFF67
:1022C00020EE07F00150D9260250DA2269CFDFFF55
:1022D00020EE08F00150D9260250DA226ACFDFFF43
:1022E00020EE09F00150D9260250DA226BCFDFFF31
:1022F00020EE0AF00150D9260250DA226CCFDFFF1F
:1023000020EE0BF00150D9260250DA226DCFDFFF0C
:1023100020EE0EF00150D9260250DA2265AC02D030
:10232000010E01D0000EDF6E20EE0DF00150D92617
:102330000250DA2265500F0BDF6E20EE0CF00150D8
:10234000D9260250DA2262A602D0010E01D0000E78
:10235000DF6E62B643D061CF03F0046A056A066A95
:10236000030ED8900336043605360636E82EF9D724
:1023700001C0D9FF02C0DAFF03C0DEFF04C0DEFFE8
:1023800005C0DEFF06C0DEFF6238E842070B070B20
:102390000C6E01C0D9FF02C0DAFFDECF03F0DECF42
:1023A00004F0DECF05F0DECF06F00C500324076EFC
:1023B000000E0420086E000E0520096E000E062097
:1023C0000A6E01C0D9FF02C0DAFF07C0DEFF08C0F5
:1023D000DEFF09C0DEFF0AC0DEFF88D064CF03F055
:1023E000046A056A066A01C0D9FF02C0DAFF03C0A9
:1023F000DEFF04C0DEFF05C0DEFF06C0DEFF63CFE8
:1024000003F0046A056A066A05C006F004C005F018
:1024100003C004F0036A01C0D9FF02C0DAFF035011
:10242000DE260450DE220550DE220650DE2262A0A7
:102430000CD001C0D9FF02C0DAFF000EDE12000E80
:10244000DE12010EDE12000EDE1262A20CD001C0FE
:10245000D9FF02C0DAFF000EDE12000EDE12020EFD
:10246000DE12000EDE1262AA0CD001C0D9FF02C03B
:10247000DAFF000EDE12000EDE12040EDE12000E77
:10248000DE1262AC0CD001C0D9FF02C0DAFF000E30
:10249000DE12000EDE12080EDE12000EDE1262AE3A
:1024A0000CD001C0D9FF02C0DAFF000EDE12000E10
:1024B000DE12100EDE12000EDE1261CF03F0046A8F
:1024C000056A066A150ED8900336043605360636B8
:1024D000E82EF9D701C0D9FF02C0DAFF0350DE129F
:1024E0000450DE120550DE120650DE12609E12000D
:1024F00024C1A9F025C1AAF026C1ABF027C1ACF0D8
:1025000041EC2EF0A9C0B1F0AAC0B2F0ABC0B3F05C
:10251000ACC0B4F0000E0001946F000E956F000E79
:10252000966F400E976FDCC190F0DDC191F0DEC177
:1025300092F0DFC193F036EC17F090C0ADF091C08F
:10254000AEF092C0AFF093C0B0F0E2EC14F0ADC0CA
:10255000B8F1AEC0B9F1AFC0BAF1B0C0BBF1000E76
:1025600000017B6F000E7C6F000E7D6F400E7E6F52
:10257000D8C177F0D9C178F0DAC179F0DBC17AF04F
:102580006EEC1BF077C0A9F078C0AAF079C0ABF070
:102590007AC0ACF041EC2EF0A9C0B1F0AAC0B2F004
:1025A000ABC0B3F0ACC0B4F0B8C1ADF0B9C1AEF0DF
:1025B000BAC1AFF0BBC1B0F0E2EC14F0ADC0BCF1F9
:1025C000AEC0BDF1AFC0BEF1B0C0BFF1BCC177F0CD
:1025D000BDC178F0BEC179F0BFC17AF0000E000134
:1025E000946F000E956F000E966F400E976FDCC1D2
:1025F00090F0DDC191F0DEC192F0DFC193F036ECD6
:1026000017F090C07BF091C07CF092C07DF093C039
:102610007EF06EEC1BF077C0C0F178C0C1F179C0DC
:10262000C2F17AC0C3F1C0C198F1C1C199F1C2C170
:102630009AF1C3C19BF1A9EC20F098C11CF199C19A
:102640001DF19AC11EF19BC11FF1DB0E00017B6FD2
:102650000F0E7C6F490E7D6F400E7E6F1CC177F0B0
:102660001DC178F01EC179F01FC17AF06EEC1BF02D
:1026700077C090F078C091F079C092F07AC093F072
:10268000000E0001946F000E956F340E966F430E8E
:10269000976F36EC17F090C01CF191C01DF192C0FD
:1026A0001EF193C01FF11CC1A9F01DC1AAF01EC1EB
:1026B000ABF01FC1ACF041EC2EF0A9C0ADF0AAC048
:1026C000AEF0ABC0AFF0ACC0B0F0000E0001B16F27
:1026D000000EB26FB40EB36F420EB46FE2EC14F0A2
:1026E000ADC020F1AEC021F1AFC022F1B0C023F1E6
:1026F0001CC1B0F11DC1B1F11EC1B2F11FC1B3F1D6
:10270000B5EC2BF0B0C1C4F1B1C1C5F1B2C1C6F195
:10271000B3C1C7F1DCC194F0DDC195F0DEC196F024
:10272000DFC197F0C4C190F0C5C191F0C6C192F06D
:10273000C7C193F036EC17F090C0C8F191C0C9F151
:1027400092C0CAF193C0CBF1C8C190F0C9C191F059
:10275000CAC192F0CBC193F0000E0001946F000E3D
:10276000956F000E966F400E976F36EC17F090C085
:1027700030F191C031F192C032F193C033F120C1F8
:1027800094F021C195F022C196F023C197F0DCC1ED
:1027900090F0DDC191F0DEC192F0DFC193F036EC34
:1027A00017F090C0CCF191C0CDF192C0CEF193C0A2
:1027B000CFF1DB0E0001946F0F0E956FC90E966F6F
:1027C000400E976FCCC190F0CDC191F0CEC192F088
:1027D000CFC193F036EC17F090C077F091C078F04D
:1027E00092C079F093C07AF0000E00017B6F000E6A
:1027F0007C6FB40E7D6F430E7E6F6EEC1BF077C066
:1028000038F178C039F179C03AF17AC03BF1000E65
:1028100000017B6F000E7C6F400E7D6F400E7E6F5F
:10282000000E0001946F000E956F000E966F400E23
:10283000976FD8C190F0D9C191F0DAC192F0DBC1A5
:1028400093F036EC17F090C077F091C078F092C01A
:1028500079F093C07AF06EEC1BF077C0ADF078C0E1
:10286000AEF079C0AFF07AC0B0F0DCC1B1F0DDC13C
:10287000B2F0DEC1B3F0DFC1B4F0E2EC14F0ADC0F1
:102880002CF1AEC02DF1AFC02EF1B0C02FF1000E73
:1028900000017B6F000E7C6F400E7D6F400E7E6FDF
:1028A000000E0001946F000E956F000E966F400EA3
:1028B000976FD8C190F0D9C191F0DAC192F0DBC125
:1028C00093F036EC17F090C077F091C078F092C09A
:1028D00079F093C07AF06EEC1BF077C0A9F078C065
:1028E000AAF079C0ABF07AC0ACF041EC2EF0A9C0F0
:1028F000ADF0AAC0AEF0ABC0AFF0ACC0B0F0DCC180
:10290000B1F0DDC1B2F0DEC1B3F0DFC1B4F0E2EC92
:1029100014F0ADC028F1AEC029F1AFC02AF1B0C0AB
:102920002BF12CC17BF02DC17CF02EC17DF02FC18D
:102930007EF028C177F029C178F02AC179F02BC147
:102940007AF06EEC1BF077C0D0F178C0D1F179C08D
:10295000D2F17AC0D3F1D0C198F1D1C199F1D2C1ED
:102960009AF1D3C19BF1A9EC20F098C1B0F199C1C3
:10297000B1F19AC1B2F19BC1B3F1B5EC2BF0B0C18A
:10298000D4F1B1C1D5F1B2C1D6F1B3C1D7F1D4C13F
:1029900090F0D5C191F0D6C192F0D7C193F02CC17F
:1029A00094F02DC195F02EC196F02FC197F036EC22
:1029B00017F090C018F191C019F192C01AF193C0AC
:1029C0001BF112000001B051800B0001BD6F00012E
:1029D000B051B0250001BF6F0001AFAF02D00001C0
:1029E000BF810001BF510001D8B412D00001BF293E
:1029F000D8A409D0000E0001AD6F000EAE6F000E1E
:102A0000AF6F000EB06F0001AF8F000E000108D055
:102A1000000E0001AD6F000EAE6F000EAF6F000E26
:102A2000B06F0001B451800B0001BE6F0001BD51B9
:102A30000001BE19D8B402D00001BD8D0001B4510F
:102A4000B4250001BE6F0001B3AF02D00001BE810A
:102A50000001BE510001D8B412D00001BE29D8A493
:102A600009D0000E0001B16F000EB26F000EB36FFF
:102A7000000EB46F0001B38F000E000108D0000EED
:102A80000001B16F000EB26F000EB36F000EB46F95
:102A90000001BF510001BE5DD8B024D00001BDAD22
:102AA00003D0800E0001BD1BBFC0C0F0BEC0BFF090
:102AB000C0C0BEF0ADC0C0F0B1C0ADF0C0C0B1F09C
:102AC000AEC0C0F0B2C0AEF0C0C0B2F0AFC0C0F097
:102AD000B3C0AFF0C0C0B3F0B0C0C0F0B4C0B0F08D
:102AE000C0C0B4F0000E0001C06F0001BF51000172
:102AF000B56FB66B0001B51FB61FB54BB62B000105
:102B0000BE510001B76FB86B0001B5510001B72786
:102B10000001B6510001B8230001B8BF3DD000014B
:102B2000B85105E11A0E0001B75DD8A035D00001FB
:102B3000AD510001AE110001AF110001B011D8B4C8
:102B400002D0010E01D0000E0001C06F000E000186
:102B5000AD6F000EAE6F000EAF6F000EB06FBEC057
:102B6000BFF020D00001C0A107D00001D890C03133
:102B700001090001C06F03D00001D890C0330001EB
:102B8000ADA102D00001C08F0001B035B033AF332A
:102B9000AE33AD330001BF2B0001BE510001BF5D5C
:102BA000D8A0E0D70001BDBD3FD00001BF5100015A
:102BB000D8A40AD0000E0001AD6F000EAE6F000E5B
:102BC000AF6F000EB06F12000001B1510001AD27D0
:102BD0000001B2510001AE230001B3510001AF2347
:102BE0000001B4510001B0230001B0A1CCD000011C
:102BF000C0A109D00001D890C0330001C051010923
:102C00000001C06F03D00001D890C0330001ADA116
:102C100002D00001C08F0001B035B033AF33AE3306
:102C2000AD330001BF2BAFD00001B1510001AD5D4C
:102C30000001B2510001AE590001B3510001AF597A
:102C40000001B051800A0001B56F0001B451800A43
:102C50000001B559D8B050D0ADC0B5F0AEC0B6F097
:102C6000AFC0B7F0B0C0B8F00001B51FB61FB71FB6
:102C7000B81FB52B000EB623B723B8230001B151FE
:102C80000001B5250001B96F0001B2510001B62164
:102C90000001BA6F0001B3510001B7210001BB6F01
:102CA0000001B4510001B8210001BC6FFF0E00010A
:102CB000B9250001AD6FFF0E0001BA210001AE6F12
:102CC000FF0E0001BB210001AF6FFF0E0001BC2110
:102CD0000001B06F800E0001BD1B0001C06D00013E
:102CE000C0510001D8A418D0010E0001AD27000E7C
:102CF000AE23AF23B02310D00001B1510001AD5F6E
:102D00000001B2510001AE5B0001B3510001AF5BA5
:102D10000001B4510001B05B0001AD510001AE11E2
:102D20000001AF110001B011D8A42AD00001C05198
:102D30000001D8A425D0000E0001AD6F000EAE6FCB
:102D4000000EAF6F000EB06F12000001D890AD37CB
:102D5000AE37AF37B0370001C0AF02D00001AD8150
:102D60000001C0A103D0D880000102D00001D8909A
:102D7000C0370001BF510001D8B402D00001BF0725
:102D80000001AFAFE2D7000E0001BE6F0001C0AF7F
:102D90000DD0C0C0B5F07F0E0001B517D8A403D088
:102DA0000001ADA103D0010E0001BE6F0001BE51B4
:102DB0000001D8B426D0010E0001AD27000EAE23CD
:102DC000AF23B0230001B0A11CD0ADC0B5F0AEC0A0
:102DD000B6F0AFC0B7F0B0C0B8F00001B835B83346
:102DE000B733B633B533B5C0ADF0B6C0AEF0B7C08B
:102DF000AFF0B8C0B0F00001BF29D8B402D00001D4
:102E0000BF2B0001BF29D8B405D00001BF5100017C
:102E1000D8A411D0000E0001AD6F000EAE6F000EF1
:102E2000AF6F000EB06F0001BF510001D8A403D0F6
:102E3000000E0001BD6F0001BFA103D00001AF8FE4
:102E400002D00001AF9F0001D890BF310001B06FE8
:102E50000001BDAF02D00001B08FADC0ADF0AEC07B
:102E6000AEF0AFC0AFF0B0C0B0F0120000019351AF
:102E7000800B00019C6F0001935193250001A26F0C
:102E8000000192AF02D00001A2810001A251000115
:102E9000D8B410D00001A229D8A409D0000E000196
:102EA000906F000E916F000E926F000E936F0001F5
:102EB000928F09D0000E0001906F000E916F000EEE
:102EC000926F000E936F00019751800B00019C1BC5
:102ED00000019751972500019D6F000196AF02D028
:102EE00000019D8100019D510001D8B410D0000166
:102EF0009D29D8A409D0000E0001946F000E956F93
:102F0000000E966F000E976F0001968F09D0000E8D
:102F10000001946F000E956F000E966F000E976F74
:102F200000019D510001D8B405D00001A25100015B
:102F3000D8A40AD0000E0001906F000E916F000E11
:102F4000926F000E936F12000001965100019003E2
:102F5000F3CFA7F0F4CFA8F00001A75100019E6FB6
:102F60009F6BA06BA16B0001A8510001A36FA46B24
:102F7000A56BA66B0001955100019103F3CFA7F05B
:102F8000F4CFA8F00001A75100019E27000E9F2357
:102F9000A023A1230001A8510001A327000EA42310
:102FA000A523A6230001945100019203F3CFA7F0BB
:102FB000F4CFA8F00001A75100019E27000E9F2327
:102FC000A023A1230001A8510001A327000EA423E0
:102FD000A523A623A0C0A1F09FC0A0F09EC09FF093
:102FE00000019E6B0001945100019103F3CFA7F003
:102FF000F4CFA8F00001A75100019E270001A851BD
:1030000000019F23000E0001A023000E0001A12358
:103010000001955100019003F3CFA7F0F4CFA8F081
:103020000001A75100019E270001A85100019F2324
:10303000000E0001A023000E0001A123A0C0A1F0FA
:103040009FC0A0F09EC09FF000019E6B00019451B4
:1030500000019003F3CFA7F0F4CFA8F00001A7512F
:1030600000019E270001A85100019F23000E0001CE
:10307000A023000E0001A12300019651000191033D
:10308000F3CFA7F0F4CFA8F00001A7510001A327C8
:103090000001A8510001A423000E0001A523000E89
:1030A0000001A6230001955100019203F3CFA7F080
:1030B000F4CFA8F00001A7510001A3270001A851F7
:1030C0000001A423000E0001A523000E0001A62389
:1030D0000001965100019203F3CFA7F0F4CFA8F0BE
:1030E0000001A7510001986F0001A8510001996FDC
:1030F00000019A6B00019B6B9AC09BF099C09AF0FB
:1031000098C099F00001986B000198510001A32725
:10311000000199510001A42300019A510001A52347
:1031200000019B510001A6239EC098F09FC099F01A
:10313000A0C09AF0A1C09BF0190E06D00001D89053
:103140009B339A3399339833E82EF8D7000198517E
:103150000001A327000199510001A42300019A5105
:103160000001A52300019B510001A623A0C0A1F0EE
:103170009FC0A0F09EC09FF000019E6B00019D517A
:10318000A2C098F00001996B00019827000E9923C6
:10319000820E000198250001A76FFF0E0001992102
:1031A0000001A86F15D00001D890A337A437A53728
:1031B000A6370001A1AF02D00001A3810001D89081
:1031C0009E379F37A037A1370001A707D8A0A807CF
:1031D0000001A5AFE8D7000E00019D6F0001A1AF6F
:1031E00024D0FF0E00019E150001986FFF0E000114
:1031F0009F150001996FFF0E0001A01500019A6F45
:103200007F0E0001A11500019B6F00019851000184
:10321000991100019A1100019B11D8A403D000015B
:10322000A3A103D0010E00019D6F00019D5100017B
:10323000D8B423D0010E0001A327000EA423A52398
:10324000A6230001A6A119D0A3C098F0A4C099F0AC
:10325000A5C09AF0A6C09BF000019B359B339A3322
:103260009933983398C0A3F099C0A4F09AC0A5F000
:103270009BC0A6F00001A74BA82B0001A8BF10D04F
:103280000001A85104E10001A729D8A009D0000E2F
:103290000001A36F000EA46F800EA56F7F0E2BD0D0
:1032A0000001A8BF07D00001A85111E10001A70546
:1032B000D8B00DD0000E0001A36F000EA46F000E59
:1032C000A56F000EA66F000E00019C6F15D0A7C061
:1032D000A2F0FF0E0001A317FF0EA4177F0EA51783
:1032E000000EA6170001A2A102D00001A58F0001C7
:1032F000D890A2310001A66F00019C510001A613D5
:10330000A3C090F0A4C091F0A5C092F0A6C093F025
:1033100012000001C451800B0101836F0001C451F0
:10332000C4250101896F0001C3AF02D00101898169
:1033300089C18EF101018F6BFF0E0001C1150101E2
:10334000946FFF0E0001C2150101956F7F0E000101
:10335000C3150101966F000E0001C4150101976F9E
:1033600001018E5101018F11D8B408D00101968F4F
:1033700001018E2901018F11D8A409D0000E01018D
:10338000946F000E956F000E966F000E976F0101FF
:103390008E5101018F11D8A40AD0000E0001C16F17
:1033A000000EC26F000EC36F000EC46F1200010149
:1033B00083510101D8B41CD0000E0101906F000EA2
:1033C000916F400E926F000E936F0101800E921369
:1033D000FF0E9313000E0101436F210E426F90C147
:1033E000C1F091C1C2F092C1C3F093C1C4F0120008
:1033F00001018E2901018F11D8A412D0000E010104
:10340000906F000E916F800E926F7F0E936F90C140
:10341000C1F091C1C2F092C1C3F093C1C4F01200D7
:103420000101810E8E27FF0E8F2301018E51010BAA
:103430000101896F01018F358F338E337F0E0101BA
:103440008E27000E8F23D890010194350101856FDE
:10345000010195350101866F010196350101876FE4
:10346000010197350101886F000E0101946F000E74
:10347000956F000E966F000E976F000E01018A6F18
:10348000000E8B6F000E8C6F010E8D6F0101895144
:103490000101D8B406D00101D89085378637873727
:1034A0008837000E0101846F7ED001018A5101012D
:1034B000941301018B510101951301018C510101FC
:1034C000961301018D5101019713010194510101DE
:1034D000855D010195510101865901019651010156
:1034E00087590101975101018859D8A021D00101C4
:1034F00094510101855F010195510101865B010134
:1035000096510101875B010197510101885B01011F
:103510008A510101942701018B5101019523010179
:103520008C510101962301018D51010197231DD07A
:103530008AC1C5F08BC1C6F08CC1C7F08DC1C8F07F
:103540000001C51FC61FC71FC81F0001C5510101CB
:1035500094170001C651010195170001C7510101DF
:1035600096170001C851010197178AC1C5F08BC198
:10357000C6F08CC1C7F08DC1C8F00001D890C83327
:10358000C733C633C533C5C08AF1C6C08BF1C7C0C7
:103590008CF1C8C08DF10101D89085378637873707
:1035A00088370101842B180E010184657ED794C1F0
:1035B000C5F095C1C6F096C1C7F097C1C8F000012B
:1035C000D890C833C733C633C533C5C094F1C6C01D
:1035D00095F1C7C096F1C8C097F1010E010194158D
:1035E00001018A6F000E0101951501018B6F000E1C
:1035F0000101961501018C6F000E01019715010163
:103600008D6F94C1C5F095C1C6F096C1C7F097C142
:10361000C8F00001D890C833C733C633C533C5C01E
:1036200094F1C6C095F1C7C096F1C8C097F10101E9
:103630008A510101942701018B5101019523010158
:103640008C510101962301018D5101019723010144
:1036500097A119D094C1C5F095C1C6F096C1C7F025
:1036600097C1C8F00001D890C833C733C633C533FB
:10367000C5C094F1C6C095F1C7C096F1C8C097F116
:1036800001018E4B8F2BFF0E010194150101906FEC
:10369000FF0E010195150101916F7F0E0101961535
:1036A0000101926F000E010197150101936F8EC108
:1036B00089F1010189A102D00101928F0101D89005
:1036C00089310101936F0101939F90C1C1F091C1B4
:1036D000C2F092C1C3F093C1C4F0120000017A514C
:1036E000800B0001836F00017A517A2500018E6FF3
:1036F000000179AF02D000018E8100018E510001DE
:10370000D8B412D000018E29D8A409D0000E00012F
:10371000776F000E786F000E796F000E7A6F0001E0
:10372000798F000E000108D0000E0001776F000EA7
:10373000786F000E796F000E7A6F00017E51800B5A
:103740000001831B00017E517E2500018F6F000167
:103750007DAF02D000018F8100018F510001D8B4EC
:1037600012D000018F29D8A409D0000E00017B6F70
:10377000000E7C6F000E7D6F000E7E6F00017D8F4E
:10378000000E000108D0000E00017B6F000E7C6F60
:10379000000E7D6F000E7E6F00017B5100017C11D9
:1037A00000017D1100017E11D8A417D0000E000188
:1037B000776F000E786F000E796F000E7A6F000140
:1037C000800E79137F0E7A1377C077F078C078F087
:1037D00079C079F07AC07AF0120000018E510001B0
:1037E000D8A412D0000E0001776F000E786F000E83
:1037F000796F000E7A6F77C077F078C078F079C073
:1038000079F07AC07AF0120000018F5100017F6FC9
:10381000806B00017F1F801F7F4B802B00018E512A
:103820000001816F826B00017F510001812700013F
:103830008051000182237F0E000181250001886FE5
:10384000000E000182210001896F77C084F078C0EA
:1038500085F079C086F07AC087F0000E0001776F9E
:10386000000E786F000E796F000E7A6F000E000167
:103870008A6F000E8B6F000E8C6F000E8D6F000E26
:1038800000018F6F42D000018F510001D8B417D0D2
:103890000001D89084378537863787370001D89064
:1038A0007737783779377A3700018DAF02D000014A
:1038B00077810001D8908A378B378C378D3700019C
:1038C0007B510001845D00017C510001855900019C
:1038D0007D510001865900017E5100018759D8A011
:1038E00012D000018D8D00017B510001845F000129
:1038F0007C510001855B00017D510001865B000168
:103900007E510001875B00018F2B190E00018F652E
:10391000BAD7000184510001851100018611000110
:103920008711D8B418D000018A8115D00001D89031
:103930007737783779377A3700018DAF02D00001B9
:1039400077810001D8908A378B378C378D3700010B
:103950008807D8A08907000179AFE8D7000E0001D9
:103960008F6F00018DAF24D0FF0E00018A1500017A
:103970007F6FFF0E00018B150001806FFF0E0001AD
:103980008C150001816F7F0E00018D150001826F83
:1039900000017F510001801100018111000182119D
:1039A000D8A403D0000177A103D0010E00018F6FCE
:1039B00000018F510001D8B423D0010E00017727F8
:1039C000000E782379237A2300017AA119D077C0D9
:1039D0007FF078C080F079C081F07AC082F0000179
:1039E00082358233813380337F337FC077F080C06C
:1039F00078F081C079F082C07AF00001884B892B81
:103A0000000189BF14D00001895104E10001882917
:103A1000D8A00DD0000E0001896F8869000E00014A
:103A2000776F000E786F000E796F000E7A6F0001CD
:103A300089BF07D00001895115E100018805D8B080
:103A400011D0000E0001896F000E886F000E00017A
:103A5000776F000E786F000E796F000E7A6F000E90
:103A60000001836F88C08EF000018EA103D0000199
:103A7000798F02D00001799F0001D8908E3100012A
:103A80007A6F0001835100017A1377C077F078C014
:103A900078F079C079F07AC07AF012000001806F76
:103AA00000018005D8A456D000017B29D8A452D0AB
:103AB00077C07CF078C07DF079C07EF07AC07FF06E
:103AC000040E06D00001D8907F337E337D337C33E3
:103AD000E82EF8D77CC081F07DC082F07EC083F0F4
:103AE0007FC084F0000181510001816F826B836B84
:103AF000846B81C018FF070E000177150001816FEC
:103B0000000E000178150001826F000E000179158A
:103B10000001836F000E00017A150001846F81C0DF
:103B20007CF082C07DF083C07EF084C07FF0050E03
:103B3000D89000017C377D377E377F37E82EF8D765
:103B40007CC081F07DC082F07EC083F07FC084F0B5
:103B500081C019FF020E00018019D8A456D00001BF
:103B60007B29D8A452D077C07CF078C07DF079C092
:103B70007EF07AC07FF0040E06D00001D8907F332B
:103B80007E337D337C33E82EF8D77CC081F07DC056
:103B900082F07EC083F07FC084F00001815100017B
:103BA000816F826B836B846B81C01CFF070E0001E9
:103BB00077150001816F000E000178150001826FFA
:103BC000000E000179150001836F000E00017A15C7
:103BD0000001846F81C07CF082C07DF083C07EF0E4
:103BE00084C07FF0050ED89000017C377D377E378A
:103BF0007F37E82EF8D77CC081F07DC082F07EC090
:103C000083F07FC084F081C01DFF00018005D8A42F
:103C100087D0F70E00017B19D8A482D0000177511C
:103C20000001816F826B836B846B81C01BFF000E70
:103C3000000177150001816FFF0E0001781500016A
:103C4000826F000E000179150001836F000E0001E4
:103C50007A150001846F81C07CF082C07DF083C042
:103C60007EF084C07FF07DC07CF07EC07DF07FC0A0
:103C70007EF000017F6B7CC081F07DC082F07EC051
:103C800083F07FC084F081C01AFF000179A103D0C6
:103C90000F01198102D00F011991000179A303D0FE
:103CA0000F01198302D00F011993000179A503D0E8
:103CB0000F01198B02D00F01199B000179A703D0C6
:103CC0000F01198D02D00F01199D000179A903D0B0
:103CD0000F01198F02D00F01199F77C07CF078C0B7
:103CE0007DF079C07EF07AC07FF0160E06D000011C
:103CF000D8907F337E337D337C33E82EF8D77CC079
:103D000081F07DC082F07EC083F07FC084F000012E
:103D100081510001816F826B836B846B81C018FFBE
:103D2000020E00018019D8A41200F70E00017B19C1
:103D3000D8A41200000177510001816F826B836B60
:103D4000846B81C01FFF000E000177150001816F99
:103D5000FF0E000178150001826F000E0001791539
:103D60000001836F000E00017A150001846F81C08D
:103D70007CF082C07DF083C07EF084C07FF07DC087
:103D80007CF07EC07DF07FC07EF000017F6B7CC048
:103D900081F07DC082F07EC083F07FC084F081C05E
:103DA0001EFF000179A103D00F011D8102D00F0178
:103DB0001D91000179A303D00F011D8302D00F01D3
:103DC0001D93000179A503D00F011D8B02D00F01B7
:103DD0001D9B000179A703D00F011D8D02D00F019B
:103DE0001D9D000179A903D00F011D8F02D00F0185
:103DF0001D9F77C07CF078C07DF079C07EF07AC0DE
:103E00007FF0160E06D00001D8907F337E337D33CD
:103E10007C33E82EF8D77CC081F07DC082F07EC074
:103E200083F07FC084F0000181510001816F826BBB
:103E3000836B846B81C01CFF1200000E0101A76F11
:103E400001019AAF15D097C1A9F098C1AAF099C104
:103E5000ABF09AC1ACF041EC2EF0A9C097F1AAC02A
:103E600098F1ABC099F1ACC09AF1010E0101A76FB6
:103E700097C190F098C191F099C192F09AC193F0D6
:103E8000830E0001946FF90E956F220E966F3E0E11
:103E9000976F36EC17F090C097F191C098F192C0EF
:103EA00099F193C09AF197C18FF198C190F199C19E
:103EB00091F19AC192F197C1D3F098C1D4F099C110
:103EC000D5F09AC1D6F011EC2AF0D3C093F1D4C04A
:103ED00094F1D5C095F1D6C096F1E1EC2DF08FC1EB
:103EE00097F190C198F191C199F192C19AF197C15E
:103EF00090F098C191F099C192F09AC193F0000EA0
:103F00000001946F000E956F800E966F400E976FB4
:103F100036EC17F090C097F191C098F192C099F1EA
:103F200093C09AF1000E0001B16F000EB26F000E47
:103F3000B36F400EB46F97C1B5F098C1B6F099C198
:103F4000B7F09AC1B8F0AEEC28F00001D8B025D097
:103F500097C18FF198C190F199C191F19AC192F1F5
:103F6000000E0101936F000E946F000E956F400ECE
:103F7000966FE1EC2DF08FC197F190C198F191C14E
:103F800099F192C19AF10101A7510101D8A402D07F
:103F9000010E01D0000E0101A76F000E0001B16FEC
:103FA000000EB26F800EB36F3F0EB46F97C1B5F0C5
:103FB00098C1B6F099C1B7F09AC1B8F0AEEC28F04C
:103FC0000001D8B025D097C1A9F098C1AAF099C135
:103FD000ABF09AC1ACF041EC2EF0A9C0ADF0AAC094
:103FE000AEF0ABC0AFF0ACC0B0F0000E0001B16FEE
:103FF000000EB26F000EB36F400EB46FE2EC14F01F
:10400000ADC097F1AEC098F1AFC099F1B0C09AF1D0
:1040100097C190F098C191F099C192F09AC193F034
:1040200097C194F098C195F099C196F09AC197F014
:1040300036EC17F090C0A3F191C0A4F192C0A5F1A5
:1040400093C0A6F1A3C1C1F0A4C1C2F0A5C1C3F041
:10405000A6C1C4F0410E0001C56F0D0E0001C66F70
:10406000000E0001C86F030EC76FA3EC2AF0C1C099
:104070009BF1C2C09CF1C3C09DF1C4C09EF19BC125
:104080007BF09CC17CF09DC17DF09EC17EF0000E56
:104090000001C86F040EC76F2D0E0001C56F0D0E15
:1040A0000001C66FA3C1C1F0A4C1C2F0A5C1C3F095
:1040B000A6C1C4F0A3EC2AF0C1C077F0C2C078F06A
:1040C000C3C079F0C4C07AF06EEC1BF077C09FF1EA
:1040D00078C0A0F179C0A1F17AC0A2F197C190F0A7
:1040E00098C191F099C192F09AC193F09FC194F058
:1040F000A0C195F0A1C196F0A2C197F036EC17F0DF
:1041000090C097F191C098F192C099F193C09AF143
:104110000101A7510101D8B413D097C1A9F098C1EA
:10412000AAF099C1ABF09AC1ACF041EC2EF0A9C055
:1041300097F1AAC098F1ABC099F1ACC09AF1120006
:1041400097C197F198C198F199C199F19AC19AF1E3
:104150001200000E0001B16F000EB26F800EB36F3F
:104160003F0EB46F98C1ADF099C1AEF09AC1AFF0F7
:104170009BC1B0F005EC2EF0ADC0B5F0AEC0B6F00E
:10418000AFC0B7F0B0C0B8F0AEEC28F00001D8B0C6
:104190000FD0000E0101436F210E426F000E01018E
:1041A000986F000E996F000E9A6F000E9B6F1200B1
:1041B000000E01019C6F000E9D6F800E9E6F3F0EE2
:1041C0009F6F98C194F099C195F09AC196F09BC1E8
:1041D00097F098C190F099C191F09AC192F09BC16B
:1041E00093F036EC17F090C0A9F091C0AAF092C0FD
:1041F000ABF093C0ACF041EC2EF0A9C0ADF0AAC07A
:10420000AEF0ABC0AFF0ACC0B0F0000E0001B16FCB
:10421000000EB26F800EB36F3F0EB46FE2EC14F07D
:10422000ADC0C1F0AEC0C2F0AFC0C3F0B0C0C4F00A
:1042300089EC19F0C1C0A8F1C2C0A9F1C3C0AAF1AC
:10424000C4C0ABF198C1ADF099C1AEF09AC1AFF066
:104250009BC1B0F005EC2EF0ADC0B1F0AEC0B2F035
:10426000AFC0B3F0B0C0B4F08F0E0001B56FC20E96
:10427000B66F350EB76F3F0EB86FAEEC28F0000189
:10428000D8B02DD098C177F099C178F09AC179F063
:104290009BC17AF0A8C17BF0A9C17CF0AAC17DF0D6
:1042A000ABC17EF06EEC1BF077C0ACF178C0ADF125
:1042B00079C0AEF17AC0AFF1ACC1D1F0ADC1D2F0EE
:1042C000AEC1D3F0AFC1D4F0E7EC24F0D1C098F187
:1042D000D2C099F1D3C09AF1D4C09BF11200010170
:1042E0009BAF6ED098C17BF099C17CF09AC17DF0F4
:1042F0009BC17EF0A8C1A9F0A9C1AAF0AAC1ABF0E8
:10430000ABC1ACF041EC2EF0A9C077F0AAC078F0B8
:10431000ABC079F0ACC07AF06EEC1BF077C0ACF1BA
:1043200078C0ADF179C0AEF17AC0AFF1ACC1D1F0D7
:10433000ADC1D2F0AEC1D3F0AFC1D4F0E7EC24F000
:10434000D1C0A4F1D2C0A5F1D3C0A6F1D4C0A7F1C9
:10435000DB0E0001B16F0F0EB26FC90EB36F3F0ECF
:10436000B46FA4C1A9F0A5C1AAF0A6C1ABF0A7C1C2
:10437000ACF041EC2EF0A9C0ADF0AAC0AEF0ABC0DD
:10438000AFF0ACC0B0F0E2EC14F0ADC0A0F1AEC044
:10439000A1F1AFC0A2F1B0C0A3F1A0C1A9F0A1C129
:1043A000AAF0A2C1ABF0A3C1ACF041EC2EF0A9C0C1
:1043B00098F1AAC099F1ABC09AF1ACC09BF1120080
:1043C00098C17BF099C17CF09AC17DF09BC17EF0D1
:1043D000A8C177F0A9C178F0AAC179F0ABC17AF091
:1043E0006EEC1BF077C0ACF178C0ADF179C0AEF1E6
:1043F0007AC0AFF1ACC1D1F0ADC1D2F0AEC1D3F053
:10440000AFC1D4F0E7EC24F0D1C0A4F1D2C0A5F143
:10441000D3C0A6F1D4C0A7F1A4C1A9F0A5C1AAF048
:10442000A6C1ABF0A7C1ACF041EC2EF0A9C0ADF035
:10443000AAC0AEF0ABC0AFF0ACC0B0F0DB0E000174
:10444000B16F0F0EB26FC90EB36F3F0EB46FE2ECD7
:1044500014F0ADC098F1AEC099F1AFC09AF1B0C000
:104460009BF1120067D1070E0001776F000E786F85
:10447000000E796F000E7A6F530E00017B6F010EF4
:1044800000017C6F080E00017D6FFC0E00017E6F45
:104490002CEC0CF024C0CBF025C0CCF00001CD6B8F
:1044A000CE6B000E10EC26F0CBC024F1CCC025F171
:1044B000CDC026F1CEC027F178EC12F0000E00013D
:1044C000E66F000EE56F5A0E0101736F000E0101D9
:1044D0005B6F010E01015C6F76EC29F0010E8EEC32
:1044E0002EF0030E01015B6F010E01015C6F44AA07
:1044F000FED70001E45105E1330E0001E35DD8A0D1
:104500002AD0030E0001E66FE80EE56F44945A0EC0
:104510000101736F0001E351D20F01017B6F4482EF
:104520000D0E0001776F000E786F000E796F000E90
:104530007A6F7B0E00017B6F010E00017C6F080E0D
:1045400000017D6FBC0E00017E6F2CEC0CF076EC50
:1045500029F044B2FED7000E0001E66F000EE56FB1
:104560005A0E0101736F000E01015B6F010E010114
:104570005C6F76EC29F0010E8EEC2EF0030E01013B
:104580005B6F010E01015C6F030E0001E66FE80E28
:10459000E56F4494B40E0101736F38C1C1F039C1A5
:1045A000C2F03AC1C3F03BC1C4F02FEC2BF00001C4
:1045B000C15101017B6F44820D0E0001776F000E27
:1045C000786F000E796F000E7A6F7B0E00017B6FA3
:1045D000010E00017C6F080E00017D6FBC0E000112
:1045E0007E6F2CEC0CF076EC29F044B2FED7030E73
:1045F0000001E66FE80EE56F000E0101736F448263
:10460000000E0001B16F000EB26F200EB36F410EAD
:10461000B46F38C1ADF039C1AEF03AC1AFF03BC1B3
:10462000B0F0E2EC14F0ADC0C1F0AEC0C2F0AFC06B
:10463000C3F0B0C0C4F02FEC2BF00001C151010158
:104640007B6F0D0E0001776F000E786F000E796F93
:10465000000E7A6F7B0E00017B6F010E00017C6FF4
:10466000080E00017D6FBC0E00017E6F2CEC0CF07B
:1046700076EC29F044B2FED7000E01015B6F010E0B
:1046800001015C6F000E0001E66F000EE56F5A0E2F
:104690000101736F76EC29F0010E8EEC2EF029509B
:1046A00004E1150E285CD8A017D0030E01015B6F42
:1046B000010E01015C6F030E0001E66FE80EE56F6D
:1046C0005A0E0101736F448476EC29F02950FEE103
:1046D000150E285CD8B0FAD7000E01015B6F010EF1
:1046E00001015C6F000E0001E66F000EE56F5A0ECF
:1046F0000101736F449476EC29F04490819A4594BB
:10470000030E0101536F0B0E0001776F000E786FDF
:10471000000E796F000E7A6F530E00017B6F010E51
:1047200000017C6F010E00017D6FBC0E00017E6FE9
:104730002CEC0CF081AA120044A0120045A4120037
:1047400092D620EE26F0DECFD5F0DDCFD6F00001F8
:10475000D51FD61FD54BD62B24500001D5250001DF
:10476000776F25500001D6210001786F78EC2EF08C
:10477000000177C0CBF0000178C0CCF00001000E42
:10478000CCBFFF0ECD6FCE6F010E10EC26F0CBC06C
:10479000D7F0CCC0D8F0CDC0D9F0CEC0DAF0D7C0B9
:1047A000B1F0D8C0B2F0D9C0B3F0DAC0B4F0000EA6
:1047B0000001B56F000EB66FF00EB76F410EB86F07
:1047C000AEEC28F00001D8B0F9D0255003E1280E56
:1047D000245CD8B0E5D0275003E1280E265CD8B081
:1047E000DFD0D7C094F0D8C095F0D9C096F0DAC029
:1047F00097F0D7C090F0D8C091F0D9C092F0DAC04D
:1048000093F036EC17F090C0ADF091C0AEF092C0CE
:10481000AFF093C0B0F0000E0001B16F000EB26FA8
:10482000C80EB36F420EB46FE2EC14F0ADC03CF1B1
:10483000AEC03DF1AFC03EF1B0C03FF13CC1C1F0F0
:104840003DC1C2F03EC1C3F03FC1C4F089EC19F0D4
:10485000C1C03CF1C2C03DF1C3C03EF1C4C03FF194
:10486000D7C077F0D8C078F0D9C079F0DAC07AF044
:104870003CC17BF03DC17CF03EC17DF03FC17EF08C
:104880006EEC1BF077C0DBF078C0DCF079C0DDF0B7
:104890007AC0DEF0DBC098F1DCC099F1DDC09AF19E
:1048A000DEC09BF1A9EC20F098C1DBF099C1DCF0EF
:1048B0009AC1DDF09BC1DEF0DB0E00017B6F0F0EB5
:1048C0007C6F490E7D6F400E7E6FDBC077F0DCC0E1
:1048D00078F0DDC079F0DEC07AF06EEC1BF077C0C6
:1048E00090F078C091F079C092F07AC093F0000E09
:1048F0000001946F000E956F340E966F430E976F04
:1049000036EC17F090C0DBF091C0DCF092C0DDF027
:1049100093C0DEF0DBC0C1F0DCC0C2F0DDC0C3F08C
:10492000DEC0C4F02FEC2BF00001C1510101636F18
:104930002650245C27502558D8B002D0000E01D054
:10494000010E0101646F0001D7510101341917E113
:104950000001D8510101351912E10001D9510101BD
:1049600036190DE10001DA5101013719D8A407D039
:10497000000E44BE010E01016419D8B41200D7C064
:1049800034F1D8C035F1D9C036F1DAC037F10101C0
:1049900064A102D0448E01D0449E76EC29F012002E
:1049A000000E44BE010E01016319D8B41200000EBE
:1049B0000101636F449E76EC29F0120044AE1200B0
:1049C000000E0101636F449E76EC29F01200D1C005
:1049D000ADF0D2C0AEF0D3C0AFF0D4C0B0F005ECB3
:1049E0002EF0ADC090F1AEC091F1AFC092F1B0C069
:1049F00093F1010190510101911101019211010105
:104A00009311D8A40AD0000E0001D16F000ED26F0E
:104A1000000ED36F000ED46F1200000E0001B16FB4
:104A2000000EB26F800EB36F3F0EB46F90C1B5F041
:104A300091C1B6F092C1B7F093C1B8F0AEEC28F0D6
:104A40000001D8B002D0010E01D0000E01018B6F21
:104A500001018B51D8B41BD0000E0001776F000EFE
:104A6000786F800E796F3F0E7A6F90C17BF091C1A5
:104A70007CF092C17DF093C17EF06EEC1BF077C0AC
:104A800090F178C091F179C092F17AC093F190C120
:104A900090F091C191F092C192F093C193F090C1C6
:104AA00094F091C195F092C196F093C197F036ECD5
:104AB00017F090C08CF191C08DF192C08EF193C02F
:104AC0008FF18CC1C1F08DC1C2F08EC1C3F08FC116
:104AD000C4F0190E0001C56F0D0E0001C66F000E67
:104AE0000001C86F040EC76FA3EC2AF0C1C083F1A8
:104AF000C2C084F1C3C085F1C4C086F18CC1C1F0CD
:104B00008DC1C2F08EC1C3F08FC1C4F0010E00018F
:104B1000C56F0D0E0001C66F000E0001C86F050EB7
:104B2000C76FA3EC2AF0C1C087F1C2C088F1C3C02F
:104B300089F1C4C08AF190C190F091C191F092C105
:104B400092F093C193F083C17BF084C17CF085C166
:104B50007DF086C17EF087C177F088C178F089C189
:104B600079F08AC17AF06EEC1BF077C094F078C0CF
:104B700095F079C096F07AC097F036EC17F090C0B7
:104B800090F191C091F192C092F193C093F1010123
:104B90008B510101D8B425D090C1A9F091C1AAF0E0
:104BA00092C1ABF093C1ACF041EC2EF0A9C0ADF0D6
:104BB000AAC0AEF0ABC0AFF0ACC0B0F0DB0E0001ED
:104BC000B16F0F0EB26FC90EB36F3F0EB46FE2EC50
:104BD00014F0ADC090F1AEC091F1AFC092F1B0C091
:104BE00093F10001D4BF09D090C1D1F091C1D2F0AE
:104BF00092C1D3F093C1D4F0120090C1A9F091C139
:104C0000AAF092C1ABF093C1ACF041EC2EF0A9C078
:104C1000D1F0AAC0D2F0ABC0D3F0ACC0D4F0120037
:104C20000101836F010183510101D8B41ED000013D
:104C3000CEAF1BD0CBC0CFF0CCC0D0F0CDC0D1F028
:104C4000CEC0D2F00001CF1FD01FD11FD21FCF2B5B
:104C5000000ED023D123D223CFC085F1D0C086F15E
:104C6000D1C087F1D2C088F108D0CBC085F1CCC0CB
:104C700086F1CDC087F1CEC088F10001CB51000193
:104C8000CC110001CD110001CE11D8A40AD0000E24
:104C90000001CB6F000ECC6F000ECD6F000ECE6FFB
:104CA0001200960E0101846F08D00101842B0101CE
:104CB000D8908833873386338533000E01018515FC
:104CC0000001CF6F000E010186150001D06F000EAC
:104CD000010187150001D16FFE0E01018815000149
:104CE000D26F0001CF510001D0110001D11100019C
:104CF000D211D8B410D0D9D70101842B010E0101F3
:104D00008527000E8623872388230101D8908833C6
:104D1000873386338533000E010185150001CF6F7F
:104D2000000E010186150001D06F000E01018715EC
:104D30000001D16FFF0E010188150001D26F000143
:104D4000CF510001D0110001D1110001D211D8B40E
:104D500009D0D2D7010184070101D8908537863761
:104D600087378837010187BF04D0020E01018461B3
:104D7000F1D7010184B109D0FF0E01018517FF0EA3
:104D800086177F0E8717FF0E88170101D89084338E
:104D900084C1CFF00001D06BD16BD26BCFC0D2F009
:104DA0000001D16BD06BCF6B0001CF510101851396
:104DB0000001D051010186130001D1510101871377
:104DC0000001D25101018813010183510101D8B4BE
:104DD00005D00001CEAF02D00101888F85C1CBF094
:104DE00086C1CCF087C1CDF088C1CEF012000001A1
:104DF0008E6F800EB6EC2EF0000E706E000E716E8F
:104E0000000E726E00018741E842C00B0001876FFF
:104E100000018751701200018851701200018E51FB
:104E2000711200018539E842F80B0001856F00011D
:104E300085517112000189A5718C000189B1718EB3
:104E4000000186517212000189B3728C00018951F0
:104E5000600B606E00018951100BFF0AD8B46084AA
:104E600060CF50FF000E0001776F000E786F000ECC
:104E7000796F000E7A6FF70E00017B6F010E4EEC1A
:104E80001DF0000E0001776F000E786F000E796F35
:104E9000000E7A6FF70E00017B6F020E4EEC1DF0D4
:104EA0000FD0F70E00018F6F07D000018F6900014E
:104EB000906928D000018F69F70E0001906F22D011
:104EC0009F0E00018A6FFF0E00018B6F0001895158
:104ED000600B00018C6F8D6B00018A5100018C13F7
:104EE00000018B5100018D1300018D51000AD8A4DF
:104EF000E1D700018C51BF0AD8B4D7D7600AD8B423
:104F0000D0D7D8D7000E0001776F000E786F000E53
:104F1000796F000E7A6F8FC07BF0000EA9EC06F05F
:104F2000000E0001776F000E786F000E796F000E93
:104F30007A6F8FC07BF0010EA9EC06F0000E000125
:104F4000776F000E786F000E796F000E7A6F90C049
:104F50007BF0020EA9EC06F0000E0001776F000E48
:104F6000786F000E796F000E7A6F90C07BF0030EA1
:104F7000A9EC06F0000E0001776F000E786F000EAE
:104F8000796F000E7A6F90C07BF0040EA9EC06F0EA
:104F9000000E0001776F000E786F000E796F000E23
:104FA0007A6F90C07BF0050EA9EC06F0000EB6EC0F
:104FB0002EF01200CED0A1EC23F0255004E1330EE8
:104FC000245CD8A02AD045B057D0A4EC2EF000091C
:104FD000D8B4FBD7080E0001776F000E786F000E73
:104FE000796F000E7A6F530E00017B6F010E000186
:104FF0007C6F080E00017D6FFC0E00017E6F2CECB3
:105000000CF04580000E0001D76F000ED86F000E27
:10501000D96F000EDA6F8A882FD08A9820EE26F09A
:10502000DECFB0F1DDCFB1F10101B01FB11FB04B48
:10503000B12B24500101B0250001776F25500101EB
:10504000B1210001786F78EC2EF0000177C0CBF031
:10505000000178C0CCF00001000ECCBFFF0ECD6F78
:10506000CE6F010E10EC26F0CBC0D7F0CCC0D8F03C
:10507000CDC0D9F0CEC0DAF0255022E1320E245C4A
:10508000D8A045A01DD04590A4EC2EF00009D8B4BE
:10509000FBD7070E0001776F000E786F000E796F57
:1050A000000E7A6F530E00017B6F010E00017C6FC2
:1050B000080E00017D6FFC0E00017E6F2CEC0CF0E1
:1050C00044A847D00001E45105E1380E0001E35D3A
:1050D000D8A03DD0818A010E0101536F0B0E000153
:1050E000776F000E786F000E796F000E7A6F530E97
:1050F00000017B6F010E00017C6F010E00017D6FCE
:10510000BC0E00017E6F2CEC0CF045B222D0255075
:1051100020E1280E245CD8B01CD0080E0001776F67
:10512000000E786F000E796F000E7A6F530E00013B
:105130007B6F010E00017C6F080E00017D6FFC0E7D
:1051400000017E6F2CEC0CF0449A458202D044980A
:10515000819A44A0120081BA12002DD7000E0001DE
:10516000B1150001B96F000E0001B2150001BA6F50
:10517000800E0001B3150001BB6F7F0E0001B41556
:105180000001BC6F0001B9510001BA110001BB114F
:105190000001BC11D8A409D0000E0001B16F000EAF
:1051A000B26F000EB36F000EB46F000E0001B515A4
:1051B0000001B96F000E0001B6150001BA6F800E34
:1051C0000001B7150001BB6F7F0E0001B81500018B
:1051D000BC6F0001B9510001BA110001BB110001FF
:1051E000BC11D8A409D0000E0001B56F000EB66F37
:1051F000000EB76F000EB86F0001B4AF26D0B1C07B
:10520000B9F0B2C0BAF0B3C0BBF0B4C0BCF000019A
:10521000B91FBA1FBB1FBC1FB92B000EBA23BB237B
:10522000BC23000E0001B9250001B16F000E000182
:10523000BA210001B26F000E0001BB210001B36F63
:10524000800E0001BC210001B46F0001B8AF26D070
:10525000B5C0B9F0B6C0BAF0B7C0BBF0B8C0BCF0CA
:105260000001B91FBA1FBB1FBC1FB92B000EBA2308
:10527000BB23BC23000E0001B9250001B56F000E51
:105280000001BA210001B66F000E0001BB21000130
:10529000B76F800E0001BC210001B86F000E000145
:1052A000B11B000EB21B000EB31B800EB41B000E10
:1052B0000001B51B000EB61B000EB71B800EB81BFD
:1052C0000001B5510001B15D0001B6510001B259B4
:1052D0000001B7510001B3590001B8510001B459A0
:1052E000D8B002D0D8901200D880120081AA63D022
:1052F000A4EC2EF0E806D8A4FBD7050E0001776FCA
:10530000000E786F000E796F000E7A6F730E000139
:105310007B6F010E00017C6F080E00017D6FBC0EDB
:1053200000017E6F2CEC0CF0E5C06BF10001E65142
:1053300001016C6F000E44B4010E01016D6FA4EC0D
:105340002EF0E806D8A4FBD7030E0001776F000EFD
:10535000786F000E796F000E7A6F6B0E00017B6F15
:10536000010E00017C6F080E00017D6FBC0E000174
:105370007E6F2CEC0CF0A4EC2EF0E806D8A4FBD742
:10538000000E01015C6F040E0001776F000E786F54
:10539000000E796F000E7A6F5B0E00017B6F010EBD
:1053A00000017C6F080E00017D6FBC0E00017E6F56
:1053B0002CEC0CF012000E0E0001776F000E786FCF
:1053C000000E796F000E7A6F630E00017B6F010E85
:1053D00000017C6F080E00017D6FBC0E00017E6F26
:1053E0002CEC0CF020EE87F063C1DFFF000EE8CF5D
:1053F00088F0AA0E0001776F000E786F000E796FAB
:10540000000E7A6F870E00017B6F000E00017C6F2B
:10541000080E00017D6FBC0E00017E6F2CEC0CF0BD
:105420001200D3C077F0D4C078F0D5C079F0D6C0E0
:105430007AF08D0E00017B6F010E00017C6F97ECFE
:105440002CF001018EAF17D00001D6AF0AD0000EAC
:105450000001D36F000ED46F800ED56FBF0ED66FD4
:105460001200000E0001D36F000ED46F000ED56F36
:10547000000ED66F120001018E5105E11D0E0101D3
:105480008D5DD8A009D0D3C0D3F0D4C0D4F0D5C09E
:10549000D5F0D6C0D6F01200D3C0C1F0D4C0C2F04F
:1054A000D5C0C3F0D6C0C4F02FEC2BF0C1C0CBF0F8
:1054B000C2C0CCF0C3C0CDF0C4C0CEF0010E10EC21
:1054C00026F0CBC089F1CCC08AF1CDC08BF1CEC023
:1054D0008CF1D3C0B1F0D4C0B2F0D5C0B3F0D6C017
:1054E000B4F089C1B5F08AC1B6F08BC1B7F08CC1F8
:1054F000B8F0AEEC28F00001D8B01CD089C1ADF0F6
:105500008AC1AEF08BC1AFF08CC1B0F0000E0001CB
:10551000B16F000EB26F800EB36FBF0EB46FE2ECCE
:1055200014F0ADC0D3F0AEC0D4F0AFC0D5F0B0C071
:10553000D6F0120089C1D3F08AC1D4F08BC1D5F066
:105540008CC1D6F01200C7C0C9F0C8C0CAF00001B3
:10555000D890C937CA370001D890C937CA37C5C0F3
:10556000CBF0C6C0CCF00001C9510001CB2700012F
:10557000CA510001CC23CBC0F6FFCCC0F7FF000E10
:10558000F86E0900F5CFCDF00900F5CFCEF0090097
:10559000F5CFCFF00A00F5CFD0F052D0CDC094F0C7
:1055A000CEC095F0CFC096F0D0C097F0C1C090F0BB
:1055B000C2C091F0C3C092F0C4C093F036EC17F0B3
:1055C00090C0ADF091C0AEF092C0AFF093C0B0F01B
:1055D0000001C707D8A0C807C7C0C9F0C8C0CAF033
:1055E0000001D890C937CA370001D890C937CA37E7
:1055F000C5C0CBF0C6C0CCF00001C9510001CB271B
:105600000001CA510001CC23CBC0F6FFCCC0F7FF8C
:10561000000EF86E0900F5CFB1F00900F5CFB2F039
:105620000900F5CFB3F00A00F5CFB4F0E2EC14F0C6
:10563000ADC0CDF0AEC0CEF0AFC0CFF0B0C0D0F0B6
:105640000001C7510001C811D8A4A8D7CDC0C1F02E
:10565000CEC0C2F0CFC0C3F0D0C0C4F01200000171
:10566000C335C4350001CA6F0001CA51D8A40AD09D
:10567000000E0001C16F000EC26F000EC36F000E5E
:10568000C46F1200C1C0C5F0C2C0C6F0C3C0C7F02D
:10569000C4C0C8F0200E06D00001D890C833C7336C
:1056A000C633C533E82EF8D70001C5510001C96FD4
:1056B0000001C38FFF0E0001C117FF0EC217FF0EBE
:1056C000C317000EC417960E0001CA5F0001CAAFCF
:1056D0001AD00001CA51800A970FD8B00AD0000E24
:1056E0000001C16F000EC26F000EC36F000EC46FC9
:1056F00012000001D890C433C333C233C133000158
:10570000CA3FF7D71BD01F0E0001CA6512D0000E8A
:105710000001C16F000EC26F000EC36F000EC46F98
:1057200012000001D890C137C237C337C437000117
:10573000CA070001CA510001D8A4F3D70001C9511A
:105740000001D8B409D00001C41FC31FC21FC16D1E
:10575000000EC223C323C423C1C0C1F0C2C0C2F023
:10576000C3C0C3F0C4C0C4F01200DB0E0001B16FAF
:105770000F0EB26F490EB36F400EB46FB0C1B5F0EB
:10578000B1C1B6F0B2C1B7F0B3C1B8F0AEEC28F019
:105790000001D8B02ED0B0C1ADF0B1C1AEF0B2C1F1
:1057A000AFF0B3C1B0F0E40E0001B16FCB0EB26F39
:1057B000960EB36FC00EB46FE2EC14F0ADC0B4F14E
:1057C000AEC0B5F1AFC0B6F1B0C0B7F1B4C197F19A
:1057D000B5C198F1B6C199F1B7C19AF11DEC1FF0AE
:1057E00097C1B0F198C1B1F199C1B2F19AC1B3F1C9
:1057F0001200B0C1ADF0B1C1AEF0B2C1AFF0B3C1F3
:10580000B0F0DB0E0001B16F0F0EB26FC90EB36FB7
:105810003F0EB46FE2EC14F0ADC0B4F1AEC0B5F120
:10582000AFC0B6F1B0C0B7F1B4C197F1B5C198F14E
:10583000B6C199F1B7C19AF11DEC1FF097C1B0F153
:1058400098C1B1F199C1B2F19AC1B3F11200E9CF97
:105850006BF0EACF6CF0E1CF6DF0E2CF6EF0D9CF14
:105860006FF0DACF70F0F3CF71F0F4CF72F0F6CFC3
:1058700073F0F7CF74F0F8CF75F0F5CF76F0F1ACA8
:1058800007D0F19C000EB36E000EB26E449630D07D
:10589000B3CF42F0B2CF41F042C03EF03F6A3E503B
:1058A0000001676F41503E6E67C03FF0D8903F30B7
:1058B0000001676F3E303A6E67C03BF03AC060F05F
:1058C0003BC061F0000E0001636F3A0E626F1FEC87
:1058D0002DF04050020D240EF324D96E000EF4205A
:1058E000DA6E000160C0DEFF000161C0DDFFF18CF7
:1058F000F29276C0F5FF75C0F8FF74C0F7FF73C071
:10590000F6FF72C0F4FF71C0F3FF70C0DAFF6FC022
:10591000D9FF6EC0E2FF6DC0E1FF6CC0EAFF6BC053
:10592000E9FF6AC0FBFF69C0FAFF4892110000015D
:105930007751000178110001791100017A11D8A482
:1059400009D07BC0D9FF7CC0DAFF000EDE6E000EEE
:10595000DD6E120000017A517F0B00017D6F7E6BBE
:10596000D89000017D377E377BC0D9FF7CC0DAFF3D
:105970007DC0DEFF7EC0DDFF000179AF04D00001F5
:105980007D6B7D2B02D000017D6B00017D517BC0C2
:10599000D9FF7CC0DAFFDE12000EDD127BC0D9FF1A
:1059A0007CC0DAFF820EDE26FF0EDD2200017A8146
:1059B0007A837A857A877A897A8B7A9D0001799FB2
:1059C000120001EE00F0830EEE6AE806FDE100EE43
:1059D000D7F0100EEE6AE806FDE1456A446A00EE73
:1059E00024F0200EEE6AE806FDE1820EF66E5D0EF2
:1059F000F76E000EF86E01EED8F010EE08F0090018
:105A0000F5CFEEFFE550E150FAE18C0EF66E5D0E3B
:105A1000F76E000EF86E0900F5CFE7F08A0EF66E0D
:105A20005D0EF76E000EF86E0900F5CF46F0090026
:105A3000F5CF47F0489048920001BBEF2DF0000EE3
:105A40000001666F000E656F000162510001631175
:105A5000D8B42CD0010E0001646F06D00001D8909C
:105A6000623763370001642B000163AFF7D7000191
:105A7000D89065376637000162510001605D000112
:105A8000635100016159D8A00AD0000162510001A0
:105A9000605F000163510001615B000165810001ED
:105AA000D890633362330001642FE1D765C060F0A2
:105AB00066C061F01200000E896EF00E926E000E4C
:105AC0008A6E8A0E936E000E8B6E9468C168060E05
:105AD0000001856F050E0001866F010E0001876FC2
:105AE000030E0001886F9D0E0001896F040EF7EC14
:105AF00026F0D08EA492A490A592A590A382A38014
:105B0000F194800ED56E110EB16E340ED76EE00E8C
:105B1000D66EF294F28AF18CF292F298F28CF28EB6
:105B2000120009C138F0396A38500001776F01015D
:105B30000851386E77C039F00BC13CF03D6A3C50DB
:105B40000001776F01010A513C6E77C03DF038507B
:105B50003C240001776F39503D200001786FD890C8
:105B6000000178310001796F000177310001DF6FAA
:105B700079C0E0F01200000E0101006F010E01017A
:105B8000016F020E0101026F030E0101036F040E8B
:105B90000101046F050E0101056F060E0101066F7C
:105BA000070E0101076F5BEC2DF08198819A819CB3
:105BB00045904594DAEC27F091EC2DF032EC22F090
:105BC000F9D7000E0101931B000E941B000E951BCC
:105BD000800E961B8FC1ADF090C1AEF091C1AFF0B9
:105BE00092C1B0F093C1B1F094C1B2F095C1B3F0DD
:105BF00096C1B4F0E2EC14F0ADC08FF1AEC090F1FC
:105C0000AFC091F1B0C092F112000001B0AF13D05B
:105C1000ADC0A9F0AEC0AAF0AFC0ABF0B0C0ACF060
:105C200041EC2EF0A9C0ADF0AAC0AEF0ABC0AFF011
:105C3000ACC0B0F01200ADC0ADF0AEC0AEF0AFC0C1
:105C4000AFF0B0C0B0F01200E7C077F00001786BA1
:105C50007DC079F07EC07AF05DEC2EF077C0E1F087
:105C600078C0E2F007D0500EE82EFED70001E10721
:105C7000D8A0E2070001E1510001E211D8B41200FE
:105C8000F2D70001A9510001AA110001AB110001D6
:105C9000AC11D8B409D0000E0001A91B000EAA1B3C
:105CA000000EAB1B800EAC1BA9C0A9F0AAC0AAF0C5
:105CB000ABC0ABF0ACC0ACF01200000177510001FA
:105CC0007903F3CF7BF0F4CF7CF000017751000132
:105CD0007A03F35000017C27000178510001790319
:105CE000F35000017C277BC077F07CC078F0120075
:105CF000000178AF0ED077C079F078C07AF000015B
:105D0000791F7A1F794B7A2B79C077F07AC078F0B7
:105D1000120077C077F078C078F0120000017F6F32
:105D2000000E0001806F09D0030E00017E6FE80EA7
:105D30007D6F24EC2EF00001802B00017F510001CB
:105D4000805DD8B01200F0D7010E0001776F0F010F
:105D500040A709D00F0130A706D00F0120A703D01C
:105D6000000E0001776F0001775112000001776F7C
:105D700077C06FFF6E50E00B00017719D8B41200A6
:0E5D8000F9D7000000420000964264001000B7
:020000040020DA
:08000000FFFFFFFFFFFFFFFF00
:020000040030CA
:0E000000FF021F1EFF8081FF3FC03FE03F4018
:00000001FF
