:04000000A8EF01F074
:0E0008004582FACF0AF0FBCF0BF031EF31F05A
:100018004580D8CF64F0E8CF65F0E0CF66F0FACF3E
:1000280067F0FBCF68F0E9CF69F0EACF6AF0E1CF7B
:100038006BF0E2CF6CF0D9CF6DF0DACF6EF0F3CF82
:100048006FF0F4CF70F0F6CF71F0F7CF72F0F8CF11
:1000580073F0F5CF74F0F2A4B3D0F298D59E340EB5
:10006800D76EE00ED66ED58E43AA0CD03E50020D48
:10007800000EF324D96E010EF420DA6E880EDE6EBF
:10008800130EDD6E3E50020D000EF324D96E010EE4
:10009800F420DA6E010EDB5017E1FA0EDE5CD8A010
:1000A80044BC12D0030E3E18D8B404D0060E3E1835
:1000B800D8A40AD0030E3E18D8A403D006C1A2F1D2
:1000C8000DD00CC1A1F10AD03E50010DA10EF324B0
:1000D800D96E010EF420DA6EFF0EDF6E3E50020D6F
:1000E800000EF324D96E010EF420DA6E010EDB50F7
:1000F80027E10A0EDE5CD8A044AC22D043B620D05B
:10010800412A010E41641CD0040E0101716F0D0ECD
:10011800186E000E196E000E1A6E000E1B6E710E10
:100128001C6E010E1D6E080E1E6EBC0E1F6EF2ECCC
:100138000FF0000E1F6E640E1E6E06EC33F0FF000B
:100148003E2A43B21BD0FAC175F0FBC176F043B02A
:1001580002D0438001D0439043A002D0010E01D0C9
:10016800000E0001606F616B750E00016025D96E8D
:10017800000E00016121DA6EDF503E6E080E3E1857
:10018800D8A402D0000E3E6E000E0001776F3E50DC
:10019800010D100EF324D96E010EF420DA6EDF5033
:1001A8000001776F77C080FF93908A80140EE82E45
:1001B800FED7438A8A909380F292F18CF288F29467
:1001C800A4A0A4B201D09CD0620E186E010E196EC4
:1001D800FFEC15F00F0E0101621901016311010115
:1001E800641101016511D8B44394090E0101621923
:1001F800010163110101641101016511D8A432D014
:1002080001017005D8B42ED0000E376E000E366E80
:1002180067C138F0396A38500001606F01016651D2
:10022800386E60C039F069C13AF03B6A3A50000153
:10023800606F010168513A6E60C03BF038503A2453
:100248000001606F39503B200001616FD8900001B8
:1002580061310001626F00016031366E62C037F0B3
:10026800438C438E0C0E01016219010163110101D7
:10027800641101016511D8A40CD001016605D8A448
:1002880003D04382818C05D043928198819A819CC6
:1002980044980E0E010162190101631101016411F4
:1002A80001016511D8B4448C080E010162190101DD
:1002B80063110101641101016511D8A41FD0000E5A
:1002C8000001786F070E0001786501D017D0000192
:1002D8007851010D660EF324D96E010EF420DA6E02
:1002E80000017851010D180EF324E16E010EF4207F
:1002F800E26EDFCFE7FF0001782BE4D7A490A49249
:1003080074C0F5FF73C0F8FF72C0F7FF71C0F6FF45
:1003180070C0F4FF6FC0F3FF6EC0DAFF6DC0D9FF85
:100328006CC0E2FF6BC0E1FF6AC0EAFF69C0E9FF89
:1003380068C0FBFF67C0FAFF66C0E0FF65C0E8FF62
:0C03480064C0D8FF459010001DEF32F09B
:100D000000063C04427D9F6A425C900142604DBBFC
:100D10004051EC473EDE8D1FBB063C0442C0598B60
:100D20004274044442F99B4F410000803FECF34A77
:100D300048359595C717C1DC45FDDB6DC372B333EC
:100D4000402B3401487F9DB045E7FFD94200008029
:100D50003F000001826F000182510001D8A458D0E9
:100D600000017D29D8A454D00F01019779C07EF0ED
:100D70007AC07FF07BC080F07CC081F0040E06D08A
:100D80000001D890813380337F337E33E82EF8D74B
:100D90007EC083F07FC084F080C085F081C086F083
:100DA000000183510001836F846B856B866B83C068
:100DB00000FF070E000179150001836F000E00018E
:100DC0007A150001846F000E00017B150001856F0C
:100DD000000E00017C150001866F83C07EF084C088
:100DE0007FF085C080F086C081F0050ED8900001AC
:100DF0007E377F3780378137E82EF8D77EC083F083
:100E00007FC084F080C085F081C086F083C001FF80
:100E100000018205D8A458D000017D29D8A454D05F
:100E20000F01059779C07EF07AC07FF07BC080F01B
:100E30007CC081F0040E06D00001D890813380334D
:100E40007F337E33E82EF8D77EC083F07FC084F0F6
:100E500080C085F081C086F0000183510001836F5E
:100E6000846B856B866B83C004FF070E00017915C8
:100E70000001836F000E00017A150001846F000EDF
:100E800000017B150001856F000E00017C1500013B
:100E9000866F83C07EF084C07FF085C080F086C0FE
:100EA00081F0050ED89000017E377F37803781377B
:100EB000E82EF8D77EC083F07FC084F080C085F034
:100EC00081C086F083C005FF020E00018219D8A4FC
:100ED00058D000017D29D8A454D00F01099779C0BA
:100EE0007EF07AC07FF07BC080F07CC081F0040E81
:100EF00006D00001D890813380337F337E33E82ED3
:100F0000F8D77EC083F07FC084F080C085F081C0B8
:100F100086F0000183510001836F846B856B866BC3
:100F200083C008FF070E000179150001836F000ED2
:100F300000017A150001846F000E00017B1500018D
:100F4000856F000E00017C150001866F83C07EF066
:100F500084C07FF085C080F086C081F0050ED890F7
:100F600000017E377F3780378137E82EF8D77EC083
:100F700083F07FC084F080C085F081C086F083C09C
:100F800009FF030E00018219D8A458D000017D2961
:100F9000D8A454D00F010D9779C07EF07AC07FF0AD
:100FA0007BC080F07CC081F0040E06D00001D89098
:100FB000813380337F337E33E82EF8D77EC083F0D1
:100FC0007FC084F080C085F081C086F0000183512D
:100FD0000001836F846B856B866B83C00CFF070EEB
:100FE000000179150001836F000E00017A150001E0
:100FF000846F000E00017B150001856F000E00015B
:101000007C150001866F83C07EF084C07FF085C0B0
:1010100080F086C081F0050ED89000017E377F37C2
:1010200080378137E82EF8D77EC083F07FC084F008
:1010300080C085F081C086F083C00DFF040E0001E2
:101040008219D8A458D000017D29D8A454D00F010A
:10105000119779C07EF07AC07FF07BC080F07CC0B1
:1010600081F0040E06D00001D890813380337F33A5
:101070007E33E82EF8D77EC083F07FC084F080C036
:1010800085F081C086F0000183510001836F846B7D
:10109000856B866B83C010FF070E00017915000178
:1010A000836F000E00017A150001846F000E0001AD
:1010B0007B150001856F000E00017C150001866F15
:1010C00083C07EF084C07FF085C080F086C081F050
:1010D000050ED89000017E377F3780378137E82EA4
:1010E000F8D77EC083F07FC084F080C085F081C0D7
:1010F00086F083C011FF050E00018219D8A458D0D4
:1011000000017D29D8A454D00F01159779C07EF035
:101110007AC07FF07BC080F07CC081F0040E06D0E6
:101120000001D890813380337F337E33E82EF8D7A7
:101130007EC083F07FC084F080C085F081C086F0DF
:10114000000183510001836F846B856B866B83C0C4
:1011500014FF070E000179150001836F000E0001D6
:101160007A150001846F000E00017B150001856F68
:10117000000E00017C150001866F83C07EF084C0E4
:101180007FF085C080F086C081F0050ED890000108
:101190007E377F3780378137E82EF8D77EC083F0DF
:1011A0007FC084F080C085F081C086F083C015FFC9
:1011B000000182510001D8A489D0F70E00017D19E9
:1011C000D8A484D00F010187000179510001836FF9
:1011D000846B856B866B83C003FF000E000179155D
:1011E0000001836FFF0E00017A150001846F000E6D
:1011F00000017B150001856F000E00017C150001C8
:10120000866F83C07EF084C07FF085C080F086C08A
:1012100081F07FC07EF080C07FF081C080F000014F
:10122000816B7EC083F07FC084F080C085F081C078
:1012300086F083C002FF00017BA103D00F01018172
:1012400002D00F01019100017BA303D00F010183A4
:1012500002D00F01019300017BA503D00F01018B88
:1012600002D00F01019B00017BA703D00F01018D6C
:1012700002D00F01019D00017BA903D00F01018F56
:1012800002D00F01019F79C07EF07AC07FF07BC051
:1012900080F07CC081F0160E06D00001D89081331A
:1012A00080337F337E33E82EF8D77EC083F07FC053
:1012B00084F080C085F081C086F000018351000178
:1012C000836F846B856B866B83C000FF0001820592
:1012D000D8A489D0F70E00017D19D8A484D00F01BD
:1012E0000587000179510001836F846B856B866BE4
:1012F00083C007FF000E000179150001836FFF0E08
:1013000000017A150001846F000E00017B150001B9
:10131000856F000E00017C150001866F83C07EF092
:1013200084C07FF085C080F086C081F07FC07EF0F1
:1013300080C07FF081C080F00001816B7EC083F0AF
:101340007FC084F080C085F081C086F083C006FF36
:1013500000017BA103D00F01058102D00F0105918F
:1013600000017BA303D00F01058302D00F01059379
:1013700000017BA503D00F01058B02D00F01059B57
:1013800000017BA703D00F01058D02D00F01059D41
:1013900000017BA903D00F01058F02D00F01059F2B
:1013A00079C07EF07AC07FF07BC080F07CC081F095
:1013B000160E06D00001D890813380337F337E3300
:1013C000E82EF8D77EC083F07FC084F080C085F01F
:1013D00081C086F0000183510001836F846B856BAF
:1013E000866B83C004FF020E00018219D8A489D045
:1013F000F70E00017D19D8A484D00F0109870001E0
:1014000079510001836F846B856B866B83C00BFF02
:10141000000E000179150001836FFF0E00017A159F
:101420000001846F000E00017B150001856F000E26
:1014300000017C150001866F83C07EF084C07FF0C0
:1014400085C080F086C081F07FC07EF080C07FF0D4
:1014500081C080F00001816B7EC083F07FC084F08A
:1014600080C085F081C086F083C00AFF00017BA1A7
:1014700003D00F01098102D00F01099100017BA364
:1014800003D00F01098302D00F01099300017BA54E
:1014900003D00F01098B02D00F01099B00017BA72C
:1014A00003D00F01098D02D00F01099D00017BA916
:1014B00003D00F01098F02D00F01099F79C07EF080
:1014C0007AC07FF07BC080F07CC081F0160E06D021
:1014D0000001D890813380337F337E33E82EF8D7F4
:1014E0007EC083F07FC084F080C085F081C086F02C
:1014F000000183510001836F846B856B866B83C011
:1015000008FF030E00018219D8A489D0F70E00014C
:101510007D19D8A484D00F010D87000179510001F5
:10152000836F846B856B866B83C00FFF000E000199
:1015300079150001836FFF0E00017A150001846F99
:10154000000E00017B150001856F000E00017C1567
:101550000001866F83C07EF084C07FF085C080F07C
:1015600086C081F07FC07EF080C07FF081C080F0B7
:101570000001816B7EC083F07FC084F080C085F065
:1015800081C086F083C00EFF00017BA103D00F0154
:101590000D8102D00F010D9100017BA303D00F013B
:1015A0000D8302D00F010D9300017BA503D00F0125
:1015B0000D8B02D00F010D9B00017BA703D00F0103
:1015C0000D8D02D00F010D9D00017BA903D00F01ED
:1015D0000D8F02D00F010D9F79C07EF07AC07FF091
:1015E0007BC080F07CC081F0160E06D00001D89040
:1015F000813380337F337E33E82EF8D77EC083F08B
:101600007FC084F080C085F081C086F000018351E6
:101610000001836F846B856B866B83C00CFF040EA7
:1016200000018219D8A489D0F70E00017D19D8A431
:1016300084D00F011187000179510001836F846B01
:10164000856B866B83C013FF000E000179150001C6
:10165000836FFF0E00017A150001846F000E0001F8
:101660007B150001856F000E00017C150001866F5F
:1016700083C07EF084C07FF085C080F086C081F09A
:101680007FC07EF080C07FF081C080F00001816B60
:101690007EC083F07FC084F080C085F081C086F07A
:1016A00083C012FF00017BA103D00F01118102D082
:1016B0000F01119100017BA303D00F01118302D010
:1016C0000F01119300017BA503D00F01118B02D0F4
:1016D0000F01119B00017BA703D00F01118D02D0D8
:1016E0000F01119D00017BA903D00F01118F02D0C2
:1016F0000F01119F79C07EF07AC07FF07BC080F02F
:101700007CC081F0160E06D00001D8908133803362
:101710007F337E33E82EF8D77EC083F07FC084F01D
:1017200080C085F081C086F0000183510001836F85
:10173000846B856B866B83C010FF050E00018219D8
:10174000D8A41200F70E00017D19D8A412000F01D1
:101750001587000179510001836F846B856B866B5F
:1017600083C017FF000E000179150001836FFF0E83
:1017700000017A150001846F000E00017B15000145
:10178000856F000E00017C150001866F83C07EF01E
:1017900084C07FF085C080F086C081F07FC07EF07D
:1017A00080C07FF081C080F00001816B7EC083F03B
:1017B0007FC084F080C085F081C086F083C016FFB2
:1017C00000017BA103D00F01158102D00F011591FB
:1017D00000017BA303D00F01158302D00F011593E5
:1017E00000017BA503D00F01158B02D00F01159BC3
:1017F00000017BA703D00F01158D02D00F01159DAD
:1018000000017BA903D00F01158F02D00F01159F96
:1018100079C07EF07AC07FF07BC080F07CC081F020
:10182000160E06D00001D890813380337F337E338B
:10183000E82EF8D77EC083F07FC084F080C085F0AA
:1018400081C086F0000183510001836F846B856B3A
:10185000866B83C014FF12000F0140B73FD17FC0D9
:1018600045FF000180AD03D00F01458D02D00F016F
:10187000459D000180A779D0000179510001856F55
:10188000866B876B886B85C044FF000E000179155D
:101890000001856FFF0E00017A150001866F000EB2
:1018A00000017B150001876F000E00017C1500010F
:1018B000886F85C081F086C082F087C083F088C0C1
:1018C00084F082C081F083C082F084C083F0000184
:1018D000846B81C085F082C086F083C087F084C0AD
:1018E00088F085C043FF000E0F01426F0F01428751
:1018F00000017BA102D00F01428100017BA302D035
:101900000F01428300017BA502D00F01428B000131
:101910007BA702D00F01428D00017BA902D00F01ED
:10192000428F79C081F07AC082F07BC083F07CC0A6
:1019300084F0160E06D00001D890843383338233AE
:101940008133E82EF8D781C085F082C086F083C04D
:1019500087F084C088F0000185510001856F866B97
:10196000876B886B85C041FF59D00F01429779C0C2
:1019700081F07AC082F07BC083F07CC084F0040EDA
:1019800006D00001D8908433833382338133E82E2C
:10199000F8D781C085F082C086F083C087F084C00C
:1019A00088F0000185510001856F866B876B886B1D
:1019B00085C041FF070E000179150001856F000EFB
:1019C00000017A150001866F000E00017B150001F1
:1019D000876F000E00017C150001886F85C081F0C3
:1019E00086C082F087C083F088C084F0050ED8904E
:1019F00000018137823783378437E82EF8D781C0DA
:101A000085F082C086F083C087F084C088F00F0123
:101A100042511F0B0F01426F85C042FF000180A1A0
:101A200003D00F01408102D00F014091000180A33B
:101A300003D00F01408302D00F0140937DC0D9FF36
:101A40007EC0DAFFDF500F01466F000120EE01F08B
:101A50007D51D9267E51DA22DF500F01476F0001F8
:101A600020EE02F07D51D9267E51DA22DF500F019F
:101A7000486F000120EE03F07D51D9267E51DA2215
:101A8000DF500F01496F000120EE04F07D51D9268F
:101A90007E51DA22DF500F014A6F000120EE05F07F
:101AA0007D51D9267E51DA22DF500F014B6F0001A4
:101AB00020EE06F07D51D9267E51DA22DF500F014B
:101AC0004C6F000120EE07F07D51D9267E51DA22BD
:101AD000DF500F014D6F0F01408712000F0130B72B
:101AE0003FD17FC035FF000180AD03D00F01358DA0
:101AF00002D00F01359D000180A779D000017951F6
:101B00000001856F866B876B886B85C034FF000E84
:101B1000000179150001856FFF0E00017A150001A3
:101B2000866F000E00017B150001876F000E00011B
:101B30007C150001886F85C081F086C082F087C067
:101B400083F088C084F082C081F083C082F084C0BA
:101B500083F00001846B81C085F082C086F083C071
:101B600087F084C088F085C033FF000E0F01326F0C
:101B70000F01328700017BA102D00F0132810001E9
:101B80007BA302D00F01328300017BA502D00F019D
:101B9000328B00017BA702D00F01328D00017BA99F
:101BA00002D00F01328F79C081F07AC082F07BC001
:101BB00083F07CC084F0160E06D00001D8908433E8
:101BC000833382338133E82EF8D781C085F082C019
:101BD00086F083C087F084C088F000018551000141
:101BE000856F866B876B886B85C031FF59D00F017D
:101BF000329779C081F07AC082F07BC083F07CC0DC
:101C000084F0040E06D00001D890843383338233ED
:101C10008133E82EF8D781C085F082C086F083C07A
:101C200087F084C088F0000185510001856F866BC4
:101C3000876B886B85C031FF070E000179150001A5
:101C4000856F000E00017A150001866F000E0001FD
:101C50007B150001876F000E00017C150001886F65
:101C600085C081F086C082F087C083F088C084F090
:101C7000050ED89000018137823783378437E82EEC
:101C8000F8D781C085F082C086F083C087F084C019
:101C900088F00F0132511F0B0F01326F85C032FFE8
:101CA000000180A103D00F01308102D00F013091DB
:101CB000000180A303D00F01308302D00F013093C5
:101CC0007DC0D9FF7EC0DAFFDF500F01366F000103
:101CD00020EE01F07D51D9267E51DA22DF500F012E
:101CE000376F000120EE02F07D51D9267E51DA22B5
:101CF000DF500F01386F000120EE03F07D51D9262F
:101D00007E51DA22DF500F01396F000120EE04F01E
:101D10007D51D9267E51DA22DF500F013A6F000142
:101D200020EE05F07D51D9267E51DA22DF500F01D9
:101D30003B6F000120EE06F07D51D9267E51DA225C
:101D4000DF500F013C6F000120EE07F07D51D926D6
:101D50007E51DA22DF500F013D6F0F0130871200F4
:101D60000F0120B712007FC025FF000180AD03D016
:101D70000F01258D02D00F01259D000180A779D08C
:101D8000000179510001856F866B876B886B85C078
:101D900024FF000E000179150001856FFF0E000180
:101DA0007A150001866F000E00017B150001876F18
:101DB000000E00017C150001886F85C081F086C08F
:101DC00082F087C083F088C084F082C081F083C035
:101DD00082F084C083F00001846B81C085F082C0F2
:101DE00086F083C087F084C088F085C023FF000E92
:101DF0000F01226F0F01228700017BA102D00F018A
:101E0000228100017BA302D00F01228300017BA568
:101E100002D00F01228B00017BA702D00F01228D7F
:101E200000017BA902D00F01228F79C081F07AC016
:101E300082F07BC083F07CC084F0160E06D00001D7
:101E4000D8908433833382338133E82EF8D781C02E
:101E500085F082C086F083C087F084C088F00001DE
:101E600085510001856F866B876B886B85C021FF6C
:101E700059D00F01229779C081F07AC082F07BC0DF
:101E800083F07CC084F0040E06D00001D890843327
:101E9000833382338133E82EF8D781C085F082C046
:101EA00086F083C087F084C088F00001855100016E
:101EB000856F866B876B886B85C021FF070E0001DD
:101EC00079150001856F000E00017A150001866FFB
:101ED000000E00017B150001876F000E00017C15CC
:101EE0000001886F85C081F086C082F087C083F0D2
:101EF00088C084F0050ED89000018137823783377F
:101F00008437E82EF8D781C085F082C086F083C080
:101F100087F084C088F00F0122511F0B0F01226F40
:101F200085C022FF000180A103D00F01208102D0D3
:101F30000F012091000180A303D00F01208302D064
:101F40000F0120937DC0D9FF7EC0DAFFDF500F0163
:101F5000266F000120EE01F07D51D9267E51DA2254
:101F6000DF500F01276F000120EE02F07D51D926CE
:101F70007E51DA22DF500F01286F000120EE03F0BE
:101F80007D51D9267E51DA22DF500F01296F0001E1
:101F900020EE04F07D51D9267E51DA22DF500F0168
:101FA0002A6F000120EE05F07D51D9267E51DA22FC
:101FB000DF500F012B6F000120EE06F07D51D92676
:101FC0007E51DA22DF500F012C6F000120EE07F066
:101FD0007D51D9267E51DA22DF500F012D6F0F017E
:101FE000208712000F0140B715D11EC045FF1FAC5E
:101FF00003D00F01458D02D00F01459D1FA666D06D
:102000001850246E256A266A276A24C044FF000EF1
:102010001814246EFF0E1914256E000E1A14266E65
:10202000000E1B14276E24C020F025C021F026C00E
:1020300022F027C023F021C020F022C021F023C0CD
:1020400022F0236A20C024F021C025F022C026F00F
:1020500023C027F024C043FF000E0F01426F0F0181
:1020600042871AA002D00F0142811AA202D00F01AA
:1020700042831AA402D00F01428B1AA602D00F018C
:10208000428D1AA802D00F01428F18C020F019C04B
:1020900021F01AC022F01BC023F0160E05D0D890F4
:1020A0002332223221322032E82EF9D720C024F008
:1020B00021C025F022C026F023C027F02450246E32
:1020C000256A266A276A24C041FF4DD00F01429736
:1020D00018C020F019C021F01AC022F01BC023F054
:1020E000040E05D0D8902332223221322032E82E3D
:1020F000F9D720C024F021C025F022C026F023C04B
:1021000027F02450246E256A266A276A24C041FFDE
:10211000070E1814246E000E1914256E000E1A14E2
:10212000266E000E1B14276E24C020F025C021F05F
:1021300026C022F027C023F0050ED8902036213685
:1021400022362336E82EF9D720C024F021C025F00E
:1021500022C026F023C027F00F0142511F0B0F01B0
:10216000426F24C042FF1FA003D00F01408102D064
:102170000F0140911FA203D00F01408302D00F0135
:1021800040931CC0D9FF1DC0DAFFDF500F01466F1E
:1021900020EE01F01C50D9261D50DA22DF500F012D
:1021A000476F20EE02F01C50D9261D50DA22DF5076
:1021B0000F01486F20EE03F01C50D9261D50DA2283
:1021C000DF500F01496F20EE04F01C50D9261D503E
:1021D000DA22DF500F014A6F20EE05F01C50D9269D
:1021E0001D50DA22DF500F014B6F20EE06F01C501D
:1021F000D9261D50DA22DF500F014C6F20EE07F078
:102200001C50D9261D50DA22DF500F014D6F0F01EF
:10221000408712000F0130B715D11EC035FF1FAC2B
:1022200003D00F01358D02D00F01359D1FA666D05A
:102230001850246E256A266A276A24C034FF000ECF
:102240001814246EFF0E1914256E000E1A14266E33
:10225000000E1B14276E24C020F025C021F026C0DC
:1022600022F027C023F021C020F022C021F023C09B
:1022700022F0236A20C024F021C025F022C026F0DD
:1022800023C027F024C033FF000E0F01326F0F016F
:1022900032871AA002D00F0132811AA202D00F0198
:1022A00032831AA402D00F01328B1AA602D00F017A
:1022B000328D1AA802D00F01328F18C020F019C039
:1022C00021F01AC022F01BC023F0160E05D0D890C2
:1022D0002332223221322032E82EF9D720C024F0D6
:1022E00021C025F022C026F023C027F02450246E00
:1022F000256A266A276A24C031FF4DD00F01329724
:1023000018C020F019C021F01AC022F01BC023F021
:10231000040E05D0D8902332223221322032E82E0A
:10232000F9D720C024F021C025F022C026F023C018
:1023300027F02450246E256A266A276A24C031FFBC
:10234000070E1814246E000E1914256E000E1A14B0
:10235000266E000E1B14276E24C020F025C021F02D
:1023600026C022F027C023F0050ED8902036213653
:1023700022362336E82EF9D720C024F021C025F0DC
:1023800022C026F023C027F00F0132511F0B0F018E
:10239000326F24C032FF1FA003D00F01308102D062
:1023A0000F0130911FA203D00F01308302D00F0123
:1023B00030931CC0D9FF1DC0DAFFDF500F01366F0C
:1023C00020EE01F01C50D9261D50DA22DF500F01FB
:1023D000376F20EE02F01C50D9261D50DA22DF5054
:1023E0000F01386F20EE03F01C50D9261D50DA2261
:1023F000DF500F01396F20EE04F01C50D9261D501C
:10240000DA22DF500F013A6F20EE05F01C50D9267A
:102410001D50DA22DF500F013B6F20EE06F01C50FA
:10242000D9261D50DA22DF500F013C6F20EE07F055
:102430001C50D9261D50DA22DF500F013D6F0F01CD
:10244000308712000F0120B712001EC025FF1FACFD
:1024500003D00F01258D02D00F01259D1FA666D048
:102460001850246E256A266A276A24C024FF000EAD
:102470001814246EFF0E1914256E000E1A14266E01
:10248000000E1B14276E24C020F025C021F026C0AA
:1024900022F027C023F021C020F022C021F023C069
:1024A00022F0236A20C024F021C025F022C026F0AB
:1024B00023C027F024C023FF000E0F01226F0F015D
:1024C00022871AA002D00F0122811AA202D00F0186
:1024D00022831AA402D00F01228B1AA602D00F0168
:1024E000228D1AA802D00F01228F18C020F019C027
:1024F00021F01AC022F01BC023F0160E05D0D89090
:102500002332223221322032E82EF9D720C024F0A3
:1025100021C025F022C026F023C027F02450246ECD
:10252000256A266A276A24C021FF4DD00F01229711
:1025300018C020F019C021F01AC022F01BC023F0EF
:10254000040E05D0D8902332223221322032E82ED8
:10255000F9D720C024F021C025F022C026F023C0E6
:1025600027F02450246E256A266A276A24C021FF9A
:10257000070E1814246E000E1914256E000E1A147E
:10258000266E000E1B14276E24C020F025C021F0FB
:1025900026C022F027C023F0050ED8902036213621
:1025A00022362336E82EF9D720C024F021C025F0AA
:1025B00022C026F023C027F00F0122511F0B0F016C
:1025C000226F24C022FF1FA003D00F01208102D060
:1025D0000F0120911FA203D00F01208302D00F0111
:1025E00020931CC0D9FF1DC0DAFFDF500F01266FFA
:1025F00020EE01F01C50D9261D50DA22DF500F01C9
:10260000276F20EE02F01C50D9261D50DA22DF5031
:102610000F01286F20EE03F01C50D9261D50DA223E
:10262000DF500F01296F20EE04F01C50D9261D50F9
:10263000DA22DF500F012A6F20EE05F01C50D92658
:102640001D50DA22DF500F012B6F20EE06F01C50D8
:10265000D9261D50DA22DF500F012C6F20EE07F033
:102660001C50D9261D50DA22DF500F012D6F0F01AB
:102670002087120044C1AFF045C1B0F046C1B1F0AF
:1026800047C1B2F0000E00017D6F000E7E6F000E9C
:102690007F6F400E806FF6C179F0F7C17AF0F8C114
:1026A0007BF0F9C17CF061EC21F079C0ABF07AC02D
:1026B000ACF07BC0ADF07CC0AEF085EC18F0ABC0E8
:1026C000BFF0ACC0C0F0ADC0C1F0AEC0C2F0B5EC60
:1026D00032F0BFC0D6F1C0C0D7F1C1C0D8F1C2C07E
:1026E000D9F1D6C1AFF0D7C1B0F0D8C1B1F0D9C1DE
:1026F000B2F0000E0001966F000E976F000E986FFB
:10270000400E996FFCC192F0FDC193F0FEC194F0B0
:10271000FFC195F0D9EC1AF092C0ABF093C0ACF0C9
:1027200094C0ADF095C0AEF085EC18F0ABC0DAF116
:10273000ACC0DBF1ADC0DCF1AEC0DDF1000E0001DC
:102740007D6F000E7E6F000E7F6F400E806FF6C1B2
:1027500079F0F7C17AF0F8C17BF0F9C17CF061EC57
:1027600021F079C0BFF07AC0C0F07BC0C1F07CC05E
:10277000C2F0B5EC32F0BFC0AFF0C0C0B0F0C1C025
:10278000B1F0C2C0B2F0DAC1ABF0DBC1ACF0DCC179
:10279000ADF0DDC1AEF085EC18F0ABC0DEF1ACC041
:1027A000DFF1ADC0E0F1AEC0E1F1DEC179F0DFC133
:1027B0007AF0E0C17BF0E1C17CF0000E0001966F81
:1027C000000E976F000E986F400E996FFCC192F04B
:1027D000FDC193F0FEC194F0FFC195F0D9EC1AF061
:1027E00092C07DF093C07EF094C07FF095C080F0E1
:1027F00061EC21F079C0E2F17AC0E3F17BC0E4F151
:102800007CC0E5F1E2C1E0F0E3C1E1F0E4C1E2F057
:10281000E5C1E3F09CEC26F0E0C03CF1E1C03DF105
:10282000E2C03EF1E3C03FF1DB0E00017D6F0F0E11
:102830007E6F490E7F6F400E806F3CC179F03DC1C5
:102840007AF03EC17BF03FC17CF061EC21F079C0B1
:1028500092F07AC093F07BC094F07CC095F0000EAB
:102860000001966F000E976F340E986F430E996FAC
:10287000D9EC1AF092C03CF193C03DF194C03EF106
:1028800095C03FF13CC1BFF03DC1C0F03EC1C1F0B9
:102890003FC1C2F0B5EC32F0BFC0ABF0C0C0ACF08D
:1028A000C1C0ADF0C2C0AEF0000E0001AF6F000EAF
:1028B000B06FB40EB16F420EB26F85EC18F0ABC0C2
:1028C00040F1ACC041F1ADC042F1AEC043F1DB0E0E
:1028D0000001966F0F0E976F490E986F400E996F1B
:1028E0003CC192F03DC193F03EC194F03FC195F0E0
:1028F000D9EC1AF092C079F093C07AF094C07BF0D2
:1029000095C07CF0000E00017D6F000E7E6F340ECE
:102910007F6F430E806F61EC21F079C03CF17AC08B
:102920003DF17BC03EF17CC03FF13CC1CEF13DC1E9
:10293000CFF13EC1D0F13FC1D1F1BFEC30F0CEC1FB
:1029400048F1CFC149F1D0C14AF1D1C14BF148C1E1
:1029500096F049C197F04AC198F04BC199F0FCC17B
:1029600092F0FDC193F0FEC194F0FFC195F0D9EC57
:102970001AF092C0EEF193C0EFF194C0F0F195C05F
:10298000F1F1EEC192F0EFC193F0F0C194F0F1C11A
:1029900095F0000E0001966F000E976F000E986F75
:1029A000400E996FD9EC1AF092C048F193C049F1EA
:1029B00094C04AF195C04BF140C196F041C197F0E7
:1029C00042C198F043C199F0FCC192F0FDC193F06F
:1029D000FEC194F0FFC195F0D9EC1AF092C0EEF16F
:1029E00093C0EFF194C0F0F195C0F1F1DB0E00015E
:1029F000966F0F0E976FC90E986F400E996FEEC1CC
:102A000092F0EFC193F0F0C194F0F1C195F0D9ECE0
:102A10001AF092C079F093C07AF094C07BF095C020
:102A20007CF0000E00017D6F000E7E6FB40E7F6F94
:102A3000430E806F61EC21F079C050F17AC051F102
:102A40007BC052F17CC053F1000E00017D6F000E7F
:102A50007E6F400E7F6F400E806F000E0001966FFC
:102A6000000E976F000E986F400E996FF6C192F0AE
:102A7000F7C193F0F8C194F0F9C195F0D9EC1AF0D0
:102A800092C079F093C07AF094C07BF095C07CF04E
:102A900061EC21F079C0ABF07AC0ACF07BC0ADF056
:102AA0007CC0AEF0FCC1AFF0FDC1B0F0FEC1B1F032
:102AB000FFC1B2F085EC18F0ABC034F1ACC035F119
:102AC000ADC036F1AEC037F1000E00017D6F000ED3
:102AD0007E6F400E7F6F400E806F000E0001966F7C
:102AE000000E976F000E986F400E996FF6C192F02E
:102AF000F7C193F0F8C194F0F9C195F0D9EC1AF050
:102B000092C079F093C07AF094C07BF095C07CF0CD
:102B100061EC21F079C0BFF07AC0C0F07BC0C1F099
:102B20007CC0C2F0B5EC32F0BFC0ABF0C0C0ACF0BE
:102B3000C1C0ADF0C2C0AEF0FCC1AFF0FDC1B0F09D
:102B4000FEC1B1F0FFC1B2F085EC18F0ABC030F1BE
:102B5000ACC031F1ADC032F1AEC033F134C17DF063
:102B600035C17EF036C17FF037C180F030C179F0D9
:102B700031C17AF032C17BF033C17CF061EC21F0DD
:102B800079C0E6F17AC0E7F17BC0E8F17CC0E9F1F9
:102B9000E6C1E0F0E7C1E1F0E8C1E2F0E9C1E3F04D
:102BA0009CEC26F0E0C0CEF1E1C0CFF1E2C0D0F164
:102BB000E3C0D1F1BFEC30F0CEC1EAF1CFC1EBF10F
:102BC000D0C1ECF1D1C1EDF1EAC192F0EBC193F0CB
:102BD000ECC194F0EDC195F034C196F035C197F099
:102BE00036C198F037C199F0D9EC1AF092C038F19B
:102BF00093C039F194C03AF195C03BF11200000E38
:102C0000226E74BE228074BC22820F0150AF43D169
:102C100018C0D9FF19C0DAFFDE6ADE6ADE6ADD6A33
:102C200020EE04F01850D9261950DA2256CFDFFFD3
:102C300020EE05F01850D9261950DA2257CFDFFFC1
:102C400020EE06F01850D9261950DA2258CFDFFFAF
:102C500020EE07F01850D9261950DA2259CFDFFF9D
:102C600020EE08F01850D9261950DA225ACFDFFF8B
:102C700020EE09F01850D9261950DA225BCFDFFF79
:102C800020EE0AF01850D9261950DA225CCFDFFF67
:102C900020EE0BF01850D9261950DA225DCFDFFF55
:102CA00020EE0EF01850D9261950DA220F0155AD3A
:102CB00002D0010E01D0000EDF6E20EE0DF0185094
:102CC000D9261950DA220F0155510F0BDF6E20EE75
:102CD0000CF01850D9261950DA220F0152A702D051
:102CE000010E01D0000EDF6E0F0152B744D051CF5C
:102CF0001AF01B6A1C6A1D6A030ED8901A361B361E
:102D00001C361D36E82EF9D718C0D9FF19C0DAFFD6
:102D10001AC0DEFF1BC0DEFF1CC0DEFF1DC0DEFFD1
:102D20000F015239E842070B070B236E18C0D9FF79
:102D300019C0DAFFDECF1AF0DECF1BF0DECF1CF0B9
:102D4000DECF1DF023501A241E6E000E1B201F6EB6
:102D5000000E1C20206E000E1D20216E18C0D9FF11
:102D600019C0DAFF1EC0DEFF1FC0DEFF20C0DEFF7D
:102D700021C0DEFF8DD054CF1AF01B6A1C6A1D6A79
:102D800018C0D9FF19C0DAFF1AC0DEFF1BC0DEFF72
:102D90001CC0DEFF1DC0DEFF53CF1AF01B6A1C6A89
:102DA0001D6A1CC01DF01BC01CF01AC01BF01A6A63
:102DB00018C0D9FF19C0DAFF1A50DE261B50DE22D8
:102DC0001C50DE221D50DE220F0152A10CD018C073
:102DD000D9FF19C0DAFF000EDE12000EDE12010E5E
:102DE000DE12000EDE120F0152A30CD018C0D9FF64
:102DF00019C0DAFF000EDE12000EDE12020EDE1225
:102E0000000EDE120F0152AB0CD018C0D9FF19C052
:102E1000DAFF000EDE12000EDE12040EDE12000ECD
:102E2000DE120F0152AD0CD018C0D9FF19C0DAFF65
:102E3000000EDE12000EDE12080EDE12000EDE1292
:102E40000F0152AF0CD018C0D9FF19C0DAFF000E25
:102E5000DE12000EDE12100EDE12000EDE1251CF58
:102E60001AF01B6A1C6A1D6A150ED8901A361B369A
:102E70001C361D36E82EF9D718C0D9FF19C0DAFF65
:102E80001A50DE121B50DE121C50DE121D50DE12D4
:102E90000F01509F120060AE120018C0D9FF19C078
:102EA000DAFFDE6ADE6ADE6ADD6A20EE04F01850C0
:102EB000D9261950DA2266CFDFFF20EE05F0185030
:102EC000D9261950DA2267CFDFFF20EE06F018501E
:102ED000D9261950DA2268CFDFFF20EE07F018500C
:102EE000D9261950DA2269CFDFFF20EE08F01850FA
:102EF000D9261950DA226ACFDFFF20EE09F01850E8
:102F0000D9261950DA226BCFDFFF20EE0AF01850D5
:102F1000D9261950DA226CCFDFFF20EE0BF01850C3
:102F2000D9261950DA226DCFDFFF20EE0EF01850AF
:102F3000D9261950DA2265AC02D0010E01D0000E5C
:102F4000DF6E20EE0DF01850D9261950DA226550A8
:102F50000F0BDF6E20EE0CF01850D9261950DA2234
:102F600062A602D0010E01D0000EDF6E62B643D021
:102F700061CF1AF01B6A1C6A1D6A030ED8901A36BC
:102F80001B361C361D36E82EF9D718C0D9FF19C0DC
:102F9000DAFF1AC0DEFF1BC0DEFF1CC0DEFF1DC053
:102FA000DEFF6238E842070B070B236E18C0D9FF1B
:102FB00019C0DAFFDECF1AF0DECF1BF0DECF1CF037
:102FC000DECF1DF023501A241E6E000E1B201F6E34
:102FD000000E1C20206E000E1D20216E18C0D9FF8F
:102FE00019C0DAFF1EC0DEFF1FC0DEFF20C0DEFFFB
:102FF00021C0DEFF88D064CF1AF01B6A1C6A1D6AEC
:1030000018C0D9FF19C0DAFF1AC0DEFF1BC0DEFFEF
:103010001CC0DEFF1DC0DEFF63CF1AF01B6A1C6AF6
:103020001D6A1CC01DF01BC01CF01AC01BF01A6AE0
:1030300018C0D9FF19C0DAFF1A50DE261B50DE2255
:103040001C50DE221D50DE2262A00CD018C0D9FF19
:1030500019C0DAFF000EDE12000EDE12010EDE12C3
:10306000000EDE1262A20CD018C0D9FF19C0DAFF20
:10307000000EDE12000EDE12020EDE12000EDE1256
:1030800062AA0CD018C0D9FF19C0DAFF000EDE12F8
:10309000000EDE12040EDE12000EDE1262AC0CD048
:1030A00018C0D9FF19C0DAFF000EDE12000EDE12C2
:1030B000080EDE12000EDE1262AE0CD018C0D9FF70
:1030C00019C0DAFF000EDE12000EDE12100EDE1244
:1030D000000EDE1261CF1AF01B6A1C6A1D6A150E03
:1030E000D8901A361B361C361D36E82EF9D718C074
:1030F000D9FF19C0DAFF1A50DE121B50DE121C5025
:10310000DE121D50DE12609E12000001AE51800BD7
:103110000001BB6F0001AE51AE250001BD6F000183
:10312000ADAF02D00001BD810001BD510001D8B496
:1031300012D00001BD29D8A409D0000E0001AB6F48
:10314000000EAC6F000EAD6F000EAE6F0001AD8FC4
:10315000000E000108D0000E0001AB6F000EAC6F36
:10316000000EAD6F000EAE6F0001B251800B00017A
:10317000BC6F0001BB510001BC19D8B402D00001E2
:10318000BB8D0001B251B2250001BC6F0001B1AF8F
:1031900002D00001BC810001BC510001D8B412D0A2
:1031A0000001BC29D8A409D0000E0001AF6F000EA9
:1031B000B06F000EB16F000EB26F0001B18F000E44
:1031C000000108D0000E0001AF6F000EB06F000EBE
:1031D000B16F000EB26F0001BD510001BC5DD8B0EF
:1031E00024D00001BBAD03D0800E0001BB1BBDC0CD
:1031F000BEF0BCC0BDF0BEC0BCF0ABC0BEF0AFC046
:10320000ABF0BEC0AFF0ACC0BEF0B0C0ACF0BEC062
:10321000B0F0ADC0BEF0B1C0ADF0BEC0B1F0AEC058
:10322000BEF0B2C0AEF0BEC0B2F0000E0001BE6F84
:103230000001BD510001B36FB46B0001B31FB41F97
:10324000B34BB42B0001BC510001B56FB66B00014C
:10325000B3510001B5270001B4510001B6230001AC
:10326000B6BF3DD00001B65105E11A0E0001B55DB3
:10327000D8A035D00001AB510001AC110001AD1157
:103280000001AE11D8B402D0010E01D0000E000131
:10329000BE6F000E0001AB6F000EAC6F000EAD6F85
:1032A000000EAE6FBCC0BDF020D00001BEA107D0A3
:1032B0000001D890BE3101090001BE6F03D00001AA
:1032C000D890BE330001ABA102D00001BE8F000137
:1032D000AE35AE33AD33AC33AB330001BD2B0001A3
:1032E000BC510001BD5DD8A0E0D70001BBBD3FD0FF
:1032F0000001BD510001D8A40AD0000E0001AB6F3F
:10330000000EAC6F000EAD6F000EAE6F120000012C
:10331000AF510001AB270001B0510001AC23000107
:10332000B1510001AD230001B2510001AE230001F3
:10333000AEA1CCD00001BEA109D00001D890BE330F
:103340000001BE5101090001BE6F03D00001D890F9
:10335000BE330001ABA102D00001BE8F0001AE352B
:10336000AE33AD33AC33AB330001BD2BAFD0000176
:10337000AF510001AB5D0001B0510001AC5900013B
:10338000B1510001AD590001AE51800A0001B36F87
:103390000001B251800A0001B359D8B050D0ABC07F
:1033A000B3F0ACC0B4F0ADC0B5F0AEC0B6F0000143
:1033B000B31FB41FB51FB61FB32B000EB423B52324
:1033C000B6230001AF510001B3250001B76F000122
:1033D000B0510001B4210001B86F0001B1510001EA
:1033E000B5210001B96F0001B2510001B621000101
:1033F000BA6FFF0E0001B7250001AB6FFF0E000191
:10340000B8210001AC6FFF0E0001B9210001AD6FC2
:10341000FF0E0001BA210001AE6F800E0001BB1B40
:103420000001BE6D0001BE510001D8A418D0010EEC
:103430000001AB27000EAC23AD23AE2310D000015A
:10344000AF510001AB5F0001B0510001AC5B000166
:10345000B1510001AD5B0001B2510001AE5B000152
:10346000AB510001AC110001AD110001AE11D8A4A7
:103470002AD00001BE510001D8A425D0000E0001C1
:10348000AB6F000EAC6F000EAD6F000EAE6F120092
:103490000001D890AB37AC37AD37AE370001BEAFC7
:1034A00002D00001AB810001BEA103D0D880000191
:1034B00002D00001D890BE370001BD510001D8B440
:1034C00002D00001BD070001ADAFE2D7000E000140
:1034D000BC6F0001BEAF0DD0BEC0B3F07F0E0001C7
:1034E000B317D8A403D00001ABA103D0010E000193
:1034F000BC6F0001BC510001D8B426D0010E000100
:10350000AB27000EAC23AD23AE230001AEA11CD02F
:10351000ABC0B3F0ACC0B4F0ADC0B5F0AEC0B6F067
:103520000001B635B633B533B433B333B3C0ABF003
:10353000B4C0ACF0B5C0ADF0B6C0AEF00001BD296E
:10354000D8B402D00001BD2B0001BD29D8B405D0EC
:103550000001BD510001D8A411D0000E0001AB6FD5
:10356000000EAC6F000EAD6F000EAE6F0001BD51CE
:103570000001D8A403D0000E0001BB6F0001BDA163
:1035800003D00001AD8F02D00001AD9F0001D890A3
:10359000BD310001AE6F0001BBAF02D00001AE8FA4
:1035A000ABC0ABF0ACC0ACF0ADC0ADF0AEC0AEF0F7
:1035B000120000019551800B00019E6F0001955192
:1035C00095250001A46F000194AF02D00001A481F1
:1035D0000001A4510001D8B410D00001A429D8A43E
:1035E00009D0000E0001926F000E936F000E946FD1
:1035F000000E956F0001948F09D0000E0001926FAC
:10360000000E936F000E946F000E956F000199519C
:10361000800B00019E1B00019951992500019F6FAD
:10362000000198AF02D000019F8100019F5100016D
:10363000D8B410D000019F29D8A409D0000E0001F1
:10364000966F000E976F000E986F000E996F000135
:10365000988F09D0000E0001966F000E976F000E34
:10366000986F000E996F00019F510001D8B405D0EA
:103670000001A4510001D8A40AD0000E0001926FED
:10368000000E936F000E946F000E956F12000001F4
:10369000985100019203F3CFA9F0F4CFAAF00001F2
:1036A000A9510001A06FA16BA26BA36B0001AA51ED
:1036B0000001A56FA66BA76BA86B000197510001D5
:1036C0009303F3CFA9F0F4CFAAF00001A9510001B0
:1036D000A027000EA123A223A3230001AA510001C9
:1036E000A527000EA623A723A823000196510001B9
:1036F0009403F3CFA9F0F4CFAAF00001A95100017F
:10370000A027000EA123A223A3230001AA51000198
:10371000A527000EA623A723A823A2C0A3F0A1C01B
:10372000A2F0A0C0A1F00001A06B00019651000121
:103730009303F3CFA9F0F4CFAAF00001A95100013F
:10374000A0270001AA510001A123000E0001A2231D
:10375000000E0001A3230001975100019203F3CF53
:10376000A9F0F4CFAAF00001A9510001A02700019F
:10377000AA510001A123000E0001A223000E0001A6
:10378000A323A2C0A3F0A1C0A2F0A0C0A1F0000199
:10379000A06B0001965100019203F3CFA9F0F4CF82
:1037A000AAF00001A9510001A0270001AA510001BF
:1037B000A123000E0001A223000E0001A32300019B
:1037C000985100019303F3CFA9F0F4CFAAF00001C0
:1037D000A9510001A5270001AA510001A623000E4E
:1037E0000001A723000E0001A8230001975100014A
:1037F0009403F3CFA9F0F4CFAAF00001A95100017E
:10380000A5270001AA510001A623000E0001A7234D
:10381000000E0001A8230001985100019403F3CF8A
:10382000A9F0F4CFAAF00001A95100019A6F00019C
:10383000AA5100019B6F00019C6B00019D6B9CC015
:103840009DF09BC09CF09AC09BF000019A6B000118
:103850009A510001A52700019B510001A6230001F8
:103860009C510001A72300019D510001A823A0C085
:103870009AF0A1C09BF0A2C09CF0A3C09DF0190ECD
:1038800006D00001D8909D339C339B339A33E82EA9
:10389000F8D700019A510001A52700019B510001B2
:1038A000A62300019C510001A72300019D510001A6
:1038B000A823A2C0A3F0A1C0A2F0A0C0A1F0000163
:1038C000A06B00019F51A4C09AF000019B6B000106
:1038D0009A27000E9B23820E00019A250001A96FF2
:1038E000FF0E00019B210001AA6F15D00001D890A6
:1038F000A537A637A737A8370001A3AF02D000012C
:10390000A5810001D890A037A137A237A3370001C5
:10391000A907D8A0AA070001A7AFE8D7000E0001A9
:103920009F6F0001A3AF24D0FF0E0001A01500017E
:103930009A6FFF0E0001A11500019B6FFF0E0001A1
:10394000A21500019C6F7F0E0001A31500019D6F61
:1039500000019A5100019B1100019C1100019D1171
:10396000D8A403D00001A5A103D0010E00019F6FD0
:1039700000019F510001D8B423D0010E0001A527FA
:10398000000EA623A723A8230001A8A119D0A5C033
:103990009AF0A6C09BF0A7C09CF0A8C09DF00001C3
:1039A0009D359D339C339B339A339AC0A5F09BC0C1
:1039B000A6F09CC0A7F09DC0A8F00001A94BAA2BBF
:1039C0000001AABF10D00001AA5104E10001A929F9
:1039D000D8A009D0000E0001A56F000EA66F800EC2
:1039E000A76F7F0E2BD00001AABF07D00001AA51FC
:1039F00011E10001A905D8B00DD0000E0001A56F9E
:103A0000000EA66F000EA76F000EA86F000E00013B
:103A10009E6F15D0A9C0A4F0FF0E0001A517FF0EE0
:103A2000A6177F0EA717000EA8170001A4A102D0A9
:103A30000001A78F0001D890A4310001A86F0001F8
:103A40009E510001A813A5C092F0A6C093F0A7C094
:103A500094F0A8C095F012004396000E0101816F0A
:103A600025EC28F03ED0000E0001806FC80E7F6F5D
:103A7000ECEC32F081AC02D0010E01D0000EFF0A56
:103A80000101F26F0101F23BF247F247815001015F
:103A9000F219BF0BF219816E25EC28F01E0E010100
:103AA000816503D0000E0101816F5EEC33F00009E7
:103AB000D8B4FBD7100E0001796F000E7A6F000E9C
:103AC0007B6F000E7C6F810E00017D6F010E000187
:103AD0007E6F080E00017F6FBC0E0001806F2CEC22
:103AE0000CF043B481AA02D043B2BDD781BA43A23D
:103AF0002FD0819C020E0101716F0D0E0001796FB4
:103B0000000E7A6F000E7B6F000E7C6F710E00014D
:103B10007D6F010E00017E6F010E00017F6FBC0EF4
:103B20000001806F2CEC0CF013D044B211D0000EC9
:103B30000101616F000E606F5A0E0101916F000E5E
:103B40000101796F010E01017A6F3DEC30F0448282
:103B500044AC43A2CAD1E9D78A88010100510101CE
:103B600002250101F26F010101510101032101014F
:103B7000F36FD8900101F3310101F56F0101F231CA
:103B80000101F46FF4C1CDF0F5C1CEF00001CF6BAF
:103B9000D06B000E73EC2BF0CDC044F1CEC045F1DC
:103BA000CFC046F1D0C047F13AEC13F0000E01014E
:103BB000616F000E606F5A0E0101916F000E0101DE
:103BC000796F010E01017A6F3DEC30F0010E35EC9A
:103BD00033F0030E0101796F010E01017A6F010EBE
:103BE0000101616F2C0E606F43985A0E0101916FB5
:103BF000000E0001AF6F000EB06F700EB16F410E7E
:103C0000B26F48C1ABF049C1ACF04AC1ADF04BC195
:103C1000AEF085EC18F0ABC0BFF0ACC0C0F0ADC0EA
:103C2000C1F0AEC0C2F0B5EC32F0BFC000F2C0C00F
:103C300001F2C1C002F2C2C003F238C1AFF039C113
:103C4000B0F03AC1B1F03BC1B2F000C2ABF001C27A
:103C5000ACF002C2ADF003C2AEF085EC18F0ABC020
:103C600004F2ACC005F2ADC006F2AEC007F2000E21
:103C70000001AF6F000EB06F820EB16F420EB26FD7
:103C800004C2ABF005C2ACF006C2ADF007C2AEF0A4
:103C900085EC18F0ABC0C3F0ACC0C4F0ADC0C5F04B
:103CA000AEC0C6F0B7EC2FF00001C3510101996F0F
:103CB00043840F0E0001796F000E7A6F000E7B6F48
:103CC000000E7C6F990E00017D6F010E00017E6F6A
:103CD000080E00017F6FBC0E0001806F2CEC0CF011
:103CE0003DEC30F043B4FED7000E0101616F000ED1
:103CF000606F5A0E0101916F000E0101796F010E84
:103D000001017A6F3DEC30F0010E35EC33F0030E1B
:103D10000101796F010E01017A6F010E0101616FDE
:103D20002C0E606F4398B40E0101916F50C1C3F027
:103D300051C1C4F052C1C5F053C1C6F0B7EC2FF069
:103D40000001C3510101996F43840F0E0001796F87
:103D5000000E7A6F000E7B6F000E7C6F990E0001D3
:103D60007D6F010E00017E6F080E00017F6FBC0E9B
:103D70000001806F2CEC0CF03DEC30F043B4FED72A
:103D8000010E0101616F2C0E606F000E0101916F39
:103D90004384000E0001AF6F000EB06F100EB16FC4
:103DA000410EB26F50C1ABF051C1ACF052C1ADF099
:103DB00053C1AEF085EC18F0ABC0C3F0ACC0C4F09A
:103DC000ADC0C5F0AEC0C6F0B7EC2FF00001C351D6
:103DD0000101996F0F0E0001796F000E7A6F000ECE
:103DE0007B6F000E7C6F990E00017D6F010E00014C
:103DF0007E6F080E00017F6FBC0E0001806F2CECFF
:103E00000CF03DEC30F043B4FED7000E0101796FA9
:103E1000010E01017A6F000E0101616F000E606FEB
:103E20005A0E0101916F3DEC30F0010E35EC33F08C
:103E3000438601010D5105E1150E01010C5DD8A06D
:103E400019D0030E0101796F010E01017A6F010E85
:103E50000101616F2C0E606F5A0E0101916F438852
:103E60003DEC30F001010D51FDE1150E01010C5D3D
:103E7000D8B0F8D7000E0101796F010E01017A6FF9
:103E8000000E0101616F000E606F5A0E0101916F0B
:103E900043983DEC30F0010E35EC33F0030E010198
:103EA000716F5EEC33F00009D8B4FBD70D0E000142
:103EB000796F000E7A6F000E7B6F000E7C6F710EB3
:103EC00000017D6F010E00017E6F080E00017F6F03
:103ED000BC0E0001806F2CEC0CF0000E0001806F16
:103EE000640E7F6FECEC32F0FF0081AA120043A257
:103EF000120044AC120030D60001C651800B000104
:103F0000CB6F0001C651C6250001D16F0001C5AFBE
:103F100002D00001D181D1C0D6F00001D76BFF0ED5
:103F20000001C3150001DC6FFF0E0001C415000184
:103F3000DD6F7F0E0001C5150001DE6F000E000170
:103F4000C6150001DF6F0001D6510001D711D8B4AA
:103F500008D00001DE8F0001D6290001D711D8A4B6
:103F600009D0000E0001DC6F000EDD6F000EDE6F69
:103F7000000EDF6F0001D6510001D711D8A40AD07E
:103F8000000E0001C36F000EC46F000EC56F000E5F
:103F9000C66F12000001CB510001D8B41CD0000E36
:103FA0000001D86F000ED96F400EDA6F000EDB6F84
:103FB0000001800EDA13FF0EDB13000E0101596FB2
:103FC000210E586FD8C0C3F0D9C0C4F0DAC0C5F014
:103FD000DBC0C6F012000001D6290001D711D8A419
:103FE00012D0000E0001D86F000ED96F800EDA6F6C
:103FF0007F0EDB6FD8C0C3F0D9C0C4F0DAC0C5F003
:10400000DBC0C6F012000001810ED627FF0ED723B9
:104010000001D651010B0001D16F0001D735D73314
:10402000D6337F0E0001D627000ED723D89000018B
:10403000DC350001CD6F0001DD350001CE6F0001E0
:10404000DE350001CF6F0001DF350001D06F000EBB
:104050000001DC6F000EDD6F000EDE6F000EDF6F03
:10406000000E0001D26F000ED36F000ED46F010E50
:10407000D56F0001D1510001D8B406D00001D8900D
:10408000CD37CE37CF37D037000E0001CC6F7ED082
:104090000001D2510001DC130001D3510001DD13F6
:1040A0000001D4510001DE130001D5510001DF13DE
:1040B0000001DC510001CD5D0001DD510001CE5950
:1040C0000001DE510001CF590001DF510001D0593C
:1040D000D8A021D00001DC510001CD5F0001DD51ED
:1040E0000001CE5B0001DE510001CF5B0001DF511A
:1040F0000001D05B0001D2510001DC270001D35147
:104100000001DD230001D4510001DE230001D5515F
:104110000001DF231DD0D2C0C7F0D3C0C8F0D4C087
:10412000C9F0D5C0CAF00001C71FC81FC91FCA1FE8
:104130000001C7510001DC170001C8510001DD1763
:104140000001C9510001DE170001CA510001DF174B
:10415000D2C0C7F0D3C0C8F0D4C0C9F0D5C0CAF02F
:104160000001D890CA33C933C833C733C7C0D2F0AF
:10417000C8C0D3F0C9C0D4F0CAC0D5F00001D890EF
:10418000CD37CE37CF37D0370001CC2B180E0001FA
:10419000CC657ED7DCC0C7F0DDC0C8F0DEC0C9F09A
:1041A000DFC0CAF00001D890CA33C933C833C7335F
:1041B000C7C0DCF0C8C0DDF0C9C0DEF0CAC0DFF0A7
:1041C000010E0001DC150001D26F000E0001DD15AB
:1041D0000001D36F000E0001DE150001D46F000E48
:1041E0000001DF150001D56FDCC0C7F0DDC0C8F0ED
:1041F000DEC0C9F0DFC0CAF00001D890CA33C933AD
:10420000C833C733C7C0DCF0C8C0DDF0C9C0DEF0BA
:10421000CAC0DFF00001D2510001DC270001D351F8
:104220000001DD230001D4510001DE230001D5513E
:104230000001DF230001DFA119D0DCC0C7F0DDC021
:10424000C8F0DEC0C9F0DFC0CAF00001D890CA33A0
:10425000C933C833C733C7C0DCF0C8C0DDF0C9C03C
:10426000DEF0CAC0DFF00001D64BD72BFF0E0001F5
:10427000DC150001D86FFF0E0001DD150001D96FBC
:104280007F0E0001DE150001DA6F000E0001DF1560
:104290000001DB6FD6C0D1F00001D1A102D0000136
:1042A000DA8F0001D890D1310001DB6F0001DB9F74
:1042B000D8C0C3F0D9C0C4F0DAC0C5F0DBC0C6F0C6
:1042C000120000017C51800B0001856F00017C51C0
:1042D0007C250001906F00017BAF02D0000190812E
:1042E000000190510001D8B412D000019029D8A447
:1042F00009D0000E0001796F000E7A6F000E7B6FFF
:10430000000E7C6F00017B8F000E000108D0000EB4
:104310000001796F000E7A6F000E7B6F000E7C6FCC
:1043200000018051800B0001851B00018051802518
:104330000001916F00017FAF02D000019181000167
:1043400091510001D8B412D000019129D8A409D00C
:10435000000E00017D6F000E7E6F000E7F6F000E5D
:10436000806F00017F8F000E000108D0000E000159
:104370007D6F000E7E6F000E7F6F000E806F00015C
:104380007D5100017E1100017F1100018011D8A430
:1043900017D0000E0001796F000E7A6F000E7B6F50
:1043A000000E7C6F0001800E7B137F0E7C1379C0A2
:1043B00079F07AC07AF07BC07BF07CC07CF0120090
:1043C000000190510001D8A412D0000E0001796FB5
:1043D000000E7A6F000E7B6F000E7C6F79C079F053
:1043E0007AC07AF07BC07BF07CC07CF012000001C8
:1043F00091510001816F826B0001811F821F814BEF
:10440000822B000190510001836F846B0001815168
:104410000001832700018251000184237F0E0001E7
:10442000832500018A6F000E0001842100018B6F3B
:1044300079C086F07AC087F07BC088F07CC089F0B4
:10444000000E0001796F000E7A6F000E7B6F000E78
:104450007C6F000E00018C6F000E8D6F000E8E6F52
:10446000000E8F6F000E0001916F42D0000191513C
:104470000001D8B417D00001D89086378737883725
:1044800089370001D89079377A377B377C3700013C
:104490008FAF02D0000179810001D8908C378D3721
:1044A0008E378F3700017D510001865D00017E51FE
:1044B0000001875900017F51000188590001805196
:1044C00000018959D8A012D000018F8D00017D51C3
:1044D0000001865F00017E510001875B00017F5172
:1044E0000001885B000180510001895B0001912B74
:1044F000190E00019165BAD700018651000187119C
:104500000001881100018911D8B418D000018C81F4
:1045100015D00001D89079377A377B377C37000186
:104520008FAF02D0000179810001D8908C378D3790
:104530008E378F3700018A07D8A08B0700017BAF29
:10454000E8D7000E0001916F00018FAF24D0FF0E5D
:1045500000018C150001816FFF0E00018D15000117
:10456000826FFF0E00018E150001836F7F0E000128
:104570008F150001846F000181510001821100013B
:10458000831100018411D8A403D0000179A103D0C4
:10459000010E0001916F000191510001D8B423D0A8
:1045A000010E00017927000E7A237B237C23000172
:1045B0007CA119D079C081F07AC082F07BC083F0F1
:1045C0007CC084F0000184358433833382338133AB
:1045D00081C079F082C07AF083C07BF084C07CF027
:1045E00000018A4B8B2B00018BBF14D000018B5133
:1045F00004E100018A29D8A00DD0000E00018B6FC4
:104600008A69000E0001796F000E7A6F000E7B6FD1
:10461000000E7C6F00018BBF07D000018B5115E1AC
:1046200000018A05D8B011D0000E00018B6F000E7A
:104630008A6F000E0001796F000E7A6F000E7B6F9B
:10464000000E7C6F000E0001856F8AC090F00001A3
:1046500090A103D000017B8F02D000017B9F00015D
:10466000D890903100017C6F0001855100017C13CE
:1046700079C079F07AC07AF07BC07BF07CC07CF0A6
:1046800012000001826F00018205D8A456D00001FB
:104690007D29D8A452D079C07EF07AC07FF07BC04B
:1046A00080F07CC081F0040E06D00001D8908133E8
:1046B00080337F337E33E82EF8D77EC083F07FC00F
:1046C00084F080C085F081C086F000018351000134
:1046D000836F846B856B866B83C018FF070E0001A8
:1046E00079150001836F000E00017A150001846FB7
:1046F000000E00017B150001856F000E00017C1586
:104700000001866F83C07EF084C07FF085C080F09A
:1047100086C081F0050ED89000017E377F37803744
:104720008137E82EF8D77EC083F07FC084F080C048
:1047300085F081C086F083C019FF020E0001821946
:10474000D8A456D000017D29D8A452D079C07EF0DB
:104750007AC07FF07BC080F07CC081F0040E06D070
:104760000001D890813380337F337E33E82EF8D731
:104770007EC083F07FC084F080C085F081C086F069
:10478000000183510001836F846B856B866B83C04E
:104790001CFF070E000179150001836F000E000158
:1047A0007A150001846F000E00017B150001856FF2
:1047B000000E00017C150001866F83C07EF084C06E
:1047C0007FF085C080F086C081F0050ED890000192
:1047D0007E377F3780378137E82EF8D77EC083F069
:1047E0007FC084F080C085F081C086F083C01DFF4B
:1047F00000018205D8A487D0F70E00017D19D8A446
:1048000082D0000179510001836F846B856B866BC8
:1048100083C01BFF000E000179150001836FFF0E9E
:1048200000017A150001846F000E00017B15000164
:10483000856F000E00017C150001866F83C07EF03D
:1048400084C07FF085C080F086C081F07FC07EF09C
:1048500080C07FF081C080F00001816B7EC083F05A
:104860007FC084F080C085F081C086F083C01AFFCD
:1048700000017BA103D00F01198102D00F01199112
:1048800000017BA303D00F01198302D00F011993FC
:1048900000017BA503D00F01198B02D00F01199BDA
:1048A00000017BA703D00F01198D02D00F01199DC4
:1048B00000017BA903D00F01198F02D00F01199FAE
:1048C00079C07EF07AC07FF07BC080F07CC081F040
:1048D000160E06D00001D890813380337F337E33AB
:1048E000E82EF8D77EC083F07FC084F080C085F0CA
:1048F00081C086F0000183510001836F846B856B5A
:10490000866B83C018FF020E00018219D8A4120022
:10491000F70E00017D19D8A41200000179510001A1
:10492000836F846B856B866B83C01FFF000E000155
:1049300079150001836FFF0E00017A150001846F65
:10494000000E00017B150001856F000E00017C1533
:104950000001866F83C07EF084C07FF085C080F048
:1049600086C081F07FC07EF080C07FF081C080F083
:104970000001816B7EC083F07FC084F080C085F031
:1049800081C086F083C01EFF00017BA103D00F0110
:104990001D8102D00F011D9100017BA303D00F01E7
:1049A0001D8302D00F011D9300017BA503D00F01D1
:1049B0001D8B02D00F011D9B00017BA703D00F01AF
:1049C0001D8D02D00F011D9D00017BA903D00F0199
:1049D0001D8F02D00F011D9F79C07EF07AC07FF03D
:1049E0007BC080F07CC081F0160E06D00001D8900C
:1049F000813380337F337E33E82EF8D77EC083F057
:104A00007FC084F080C085F081C086F000018351B2
:104A10000001836F846B856B866B83C01CFF120063
:104A2000000E0101C16F0101B4AF15D0B1C1BFF0DB
:104A3000B2C1C0F0B3C1C1F0B4C1C2F0B5EC32F044
:104A4000BFC0B1F1C0C0B2F1C1C0B3F1C2C0B4F1D6
:104A5000010E0101C16FB1C192F0B2C193F0B3C1B7
:104A600094F0B4C195F0830E0001966FF90E976F24
:104A7000220E986F3E0E996FD9EC1AF092C0B1F1E8
:104A800093C0B2F194C0B3F195C0B4F1B1C1A9F132
:104A9000B2C1AAF1B3C1ABF1B4C1ACF1B1C1DBF0A9
:104AA000B2C1DCF0B3C1DDF0B4C1DEF099EC2EF0A0
:104AB000DBC0ADF1DCC0AEF1DDC0AFF1DEC0B0F106
:104AC00072EC32F0A9C1B1F1AAC1B2F1ABC1B3F13C
:104AD000ACC1B4F1B1C192F0B2C193F0B3C194F0E2
:104AE000B4C195F0000E0001966F000E976F800E16
:104AF000986F400E996FD9EC1AF092C0B1F193C043
:104B0000B2F194C0B3F195C0B4F1000E0001C76FCB
:104B1000000EC86F000EC96F400ECA6FB1C1CBF056
:104B2000B2C1CCF0B3C1CDF0B4C1CEF03DEC2DF0AC
:104B30000001D8B025D0B1C1A9F1B2C1AAF1B3C169
:104B4000ABF1B4C1ACF1000E0101AD6F000EAE6F60
:104B5000000EAF6F400EB06F72EC32F0A9C1B1F130
:104B6000AAC1B2F1ABC1B3F1ACC1B4F10101C15101
:104B70000101D8A402D0010E01D0000E0101C16FC5
:104B8000000E0001C76F000EC86F800EC96F3F0E88
:104B9000CA6FB1C1CBF0B2C1CCF0B3C1CDF0B4C1DA
:104BA000CEF03DEC2DF00001D8B025D0B1C1BFF062
:104BB000B2C1C0F0B3C1C1F0B4C1C2F0B5EC32F0C3
:104BC000BFC0ABF0C0C0ACF0C1C0ADF0C2C0AEF071
:104BD000000E0001AF6F000EB06F000EB16F400EFF
:104BE000B26F85EC18F0ABC0B1F1ACC0B2F1ADC0A2
:104BF000B3F1AEC0B4F1B1C192F0B2C193F0B3C1A0
:104C000094F0B4C195F0B1C196F0B2C197F0B3C1C0
:104C100098F0B4C199F0D9EC1AF092C0BDF193C0EC
:104C2000BEF194C0BFF195C0C0F1BDC1BFF0BEC11F
:104C3000C0F0BFC1C1F0C0C1C2F0410E0001C36FDE
:104C40000D0E0001C46F000E0001C66F030EC56F8C
:104C50002BEC2FF0BFC0B5F1C0C0B6F1C1C0B7F1A9
:104C6000C2C0B8F1B5C17DF0B6C17EF0B7C17FF06A
:104C7000B8C180F0000E0001C66F040EC56F2D0E86
:104C80000001C36F0D0E0001C46FBDC1BFF0BEC1F6
:104C9000C0F0BFC1C1F0C0C1C2F02BEC2FF0BFC04B
:104CA00079F0C0C07AF0C1C07BF0C2C07CF061EC8A
:104CB00021F079C0B9F17AC0BAF17BC0BBF17CC0F8
:104CC000BCF1B1C192F0B2C193F0B3C194F0B4C1E0
:104CD00095F0B9C196F0BAC197F0BBC198F0BCC1CC
:104CE00099F0D9EC1AF092C0B1F193C0B2F194C02E
:104CF000B3F195C0B4F10101C1510101D8B413D091
:104D0000B1C1BFF0B2C1C0F0B3C1C1F0B4C1C2F013
:104D1000B5EC32F0BFC0B1F1C0C0B2F1C1C0B3F167
:104D2000C2C0B4F11200B1C1B1F1B2C1B2F1B3C1AC
:104D3000B3F1B4C1B4F11200000E0001C76F000E50
:104D4000C86F800EC96F3F0ECA6FE0C0C3F0E1C0EC
:104D5000C4F0E2C0C5F0E3C0C6F096EC32F0C3C0C8
:104D6000CBF0C4C0CCF0C5C0CDF0C6C0CEF03DEC99
:104D70002DF00001D8B00FD0000E0101596F210EA7
:104D8000586F000E0001E06F000EE16F000EE26F41
:104D9000000EE36F1200000E0101BA6F000EBB6F30
:104DA000800EBC6F3F0EBD6FE0C096F0E1C097F083
:104DB000E2C098F0E3C099F0E0C092F0E1C093F057
:104DC000E2C094F0E3C095F0D9EC1AF092C0BFF0C5
:104DD00093C0C0F094C0C1F095C0C2F0B5EC32F001
:104DE000BFC0ABF0C0C0ACF0C1C0ADF0C2C0AEF04F
:104DF000000E0001AF6F000EB06F800EB16F3F0E5E
:104E0000B26F85EC18F0ABC0C3F0ACC0C4F0ADC05D
:104E1000C5F0AEC0C6F07CEC1FF0C3C0C6F1C4C084
:104E2000C7F1C5C0C8F1C6C0C9F1E0C0C3F0E1C058
:104E3000C4F0E2C0C5F0E3C0C6F096EC32F0C3C0E7
:104E4000C7F0C4C0C8F0C5C0C9F0C6C0CAF08F0E54
:104E50000001CB6FC20ECC6F350ECD6F3F0ECE6F03
:104E60003DEC2DF00001D8B02DD0E0C079F0E1C0CC
:104E70007AF0E2C07BF0E3C07CF0C6C17DF0C7C130
:104E80007EF0C8C17FF0C9C180F061EC21F079C02B
:104E9000CAF17AC0CBF17BC0CCF17CC0CDF1CAC1E4
:104EA000D3F0CBC1D4F0CCC1D5F0CDC1D6F060ECFD
:104EB00029F0D3C0E0F0D4C0E1F0D5C0E2F0D6C014
:104EC000E3F012000001E3AF6ED0E0C07DF0E1C07E
:104ED0007EF0E2C07FF0E3C080F0C6C1BFF0C7C182
:104EE000C0F0C8C1C1F0C9C1C2F0B5EC32F0BFC05A
:104EF00079F0C0C07AF0C1C07BF0C2C07CF061EC38
:104F000021F079C0CAF17AC0CBF17BC0CCF17CC072
:104F1000CDF1CAC1D3F0CBC1D4F0CCC1D5F0CDC155
:104F2000D6F060EC29F0D3C0C2F1D4C0C3F1D5C033
:104F3000C4F1D6C0C5F1DB0E0001AF6F0F0EB06F2C
:104F4000C90EB16F3F0EB26FC2C1BFF0C3C1C0F096
:104F5000C4C1C1F0C5C1C2F0B5EC32F0BFC0ABF006
:104F6000C0C0ACF0C1C0ADF0C2C0AEF085EC18F06E
:104F7000ABC0BEF1ACC0BFF1ADC0C0F1AEC0C1F1BD
:104F8000BEC1BFF0BFC1C0F0C0C1C1F0C1C1C2F05D
:104F9000B5EC32F0BFC0E0F0C0C0E1F0C1C0E2F05B
:104FA000C2C0E3F01200E0C07DF0E1C07EF0E2C0DC
:104FB0007FF0E3C080F0C6C179F0C7C17AF0C8C104
:104FC0007BF0C9C17CF061EC21F079C0CAF17AC0F4
:104FD000CBF17BC0CCF17CC0CDF1CAC1D3F0CBC149
:104FE000D4F0CCC1D5F0CDC1D6F060EC29F0D3C05F
:104FF000C2F1D4C0C3F1D5C0C4F1D6C0C5F1C2C19D
:10500000BFF0C3C1C0F0C4C1C1F0C5C1C2F0B5ECAE
:1050100032F0BFC0ABF0C0C0ACF0C1C0ADF0C2C098
:10502000AEF0DB0E0001AF6F0F0EB06FC90EB16FA7
:105030003F0EB26F85EC18F0ABC0E0F0ACC0E1F011
:10504000ADC0E2F0AEC0E3F0120021EE02F0DECF20
:10505000E4F0DDCFE5F00001E41FE51FE44BE52BB4
:10506000010100510001E4250001796F01010151A6
:105070000001E52100017A6F1FEC33F0000179C0D7
:10508000CDF000017AC0CEF00001000ECEBFFF0EC1
:10509000CF6FD06F010E73EC2BF0CDC028F0CEC0D7
:1050A00029F0CFC02AF0D0C02BF028C0C7F029C00B
:1050B000C8F02AC0C9F02BC0CAF0000E0001CB6FA7
:1050C000000ECC6FF00ECD6F410ECE6F3DEC2DF08B
:1050D0000001D8B0EFD00101015104E11E0E010121
:1050E000005DD8B012000101035104E11E0E010160
:1050F000025DD8B0120028C096F029C097F02AC0EF
:1051000098F02BC099F028C092F029C093F02AC0E3
:1051100094F02BC095F0D9EC1AF092C0ABF093C08C
:10512000ACF094C0ADF095C0AEF0000E0001AF6FD2
:10513000000EB06F100EB16F420EB26F85EC18F01A
:10514000ABC02CF0ACC02DF0ADC02EF0AEC02FF037
:105150002CC0C3F02DC0C4F02EC0C5F02FC0C6F0C7
:105160007CEC1FF0C3C02CF0C4C02DF0C5C02EF0E5
:10517000C6C02FF028C079F029C07AF02AC07BF091
:105180002BC07CF02CC07DF02DC07EF02EC07FF0B7
:105190002FC080F061EC21F079C030F07AC031F09E
:1051A0007BC032F07CC033F030C0E0F031C0E1F0C1
:1051B00032C0E2F033C0E3F09CEC26F0E0C030F007
:1051C000E1C031F0E2C032F0E3C033F0DB0E0001A9
:1051D0007D6F0F0E7E6F490E7F6F400E806F30C067
:1051E00079F031C07AF032C07BF033C07CF061ECF2
:1051F00021F079C092F07AC093F07BC094F07CC02B
:1052000095F0000E0001966F000E976F340E986FA8
:10521000430E996FD9EC1AF092C030F093C031F080
:1052200094C032F095C033F030C0C3F031C0C4F048
:1052300032C0C5F033C0C6F0B7EC2FF00001C35147
:105240000101816F010102510101005D0101035162
:1052500001010159D8B002D0000E01D0010E0101A8
:10526000826F285001014C1914E1295001014D1998
:1052700010E12A5001014E190CE12B5001014F1988
:10528000D8A407D0000E44B6010E01018219D8B48B
:10529000120028C04CF129C04DF12AC04EF12BC09C
:1052A0004FF1010182A102D0448601D044963DEC29
:1052B00030F01200000E0101816F3DEC30F0120061
:1052C000D3C0C3F0D4C0C4F0D5C0C5F0D6C0C6F0BA
:1052D00096EC32F0C3C0B6F1C4C0B7F1C5C0B8F1A6
:1052E000C6C0B9F10101B6510101B7110101B811F0
:1052F0000101B911D8A40AD0000E0001D36F000E2D
:10530000D46F000ED56F000ED66F1200000E000194
:10531000C76F000EC86F800EC96F3F0ECA6FB6C14F
:10532000CBF0B7C1CCF0B8C1CDF0B9C1CEF03DECF7
:105330002DF00001D8B002D0010E01D0000E010105
:10534000B16F0101B151D8B41BD0000E0001796FCB
:10535000000E7A6F800E7B6F3F0E7C6FB6C17DF0C2
:10536000B7C17EF0B8C17FF0B9C180F061EC21F027
:1053700079C0B6F17AC0B7F17BC0B8F17CC0B9F1A1
:10538000B6C192F0B7C193F0B8C194F0B9C195F02D
:10539000B6C196F0B7C197F0B8C198F0B9C199F00D
:1053A000D9EC1AF092C0B2F193C0B3F194C0B4F149
:1053B00095C0B5F1B2C1BFF0B3C1C0F0B4C1C1F086
:1053C000B5C1C2F0190E0001C36F0D0E0001C46F0C
:1053D000000E0001C66F040EC56F2BEC2FF0BFC08E
:1053E000A9F1C0C0AAF1C1C0ABF1C2C0ACF1B2C159
:1053F000BFF0B3C1C0F0B4C1C1F0B5C1C2F0010E7D
:105400000001C36F0D0E0001C46F000E0001C66FD6
:10541000050EC56F2BEC2FF0BFC0ADF1C0C0AEF1D3
:10542000C1C0AFF1C2C0B0F1B6C192F0B7C193F044
:10543000B8C194F0B9C195F0A9C17DF0AAC17EF0C0
:10544000ABC17FF0ACC180F0ADC179F0AEC17AF0F4
:10545000AFC17BF0B0C17CF061EC21F079C096F077
:105460007AC097F07BC098F07CC099F0D9EC1AF024
:1054700092C0B6F193C0B7F194C0B8F195C0B9F13C
:105480000101B1510101D8B425D0B6C1BFF0B7C1F7
:10549000C0F0B8C1C1F0B9C1C2F0B5EC32F0BFC0C4
:1054A000ABF0C0C0ACF0C1C0ADF0C2C0AEF0DB0E1E
:1054B0000001AF6F0F0EB06FC90EB16F3F0EB26F2C
:1054C00085EC18F0ABC0B6F1ACC0B7F1ADC0B8F127
:1054D000AEC0B9F10001D6BF09D0B6C1D3F0B7C193
:1054E000D4F0B8C1D5F0B9C1D6F01200B6C1BFF042
:1054F000B7C1C0F0B8C1C1F0B9C1C2F0B5EC32F06B
:10550000BFC0D3F0C0C0D4F0C1C0D5F0C2C0D6F087
:105510001200E4D025EC28F00101015105E1330E21
:105520000101005DD8A029D044B825D05EEC33F04D
:105530000009D8B4FBD70A0E0001796F000E7A6F0C
:10554000000E7B6F000E7C6F710E00017D6F010EEF
:1055500000017E6F080E00017F6FFC0E0001806F5E
:105560002CEC0CF04488000E286E000E296E000E04
:105570002A6E000E2B6E8A8831D08A9821EE02F0B6
:10558000DECFCEF1DDCFCFF10101CE1FCF1FCE4B4D
:10559000CF2B010100510101CE250001796F0101DE
:1055A00001510101CF2100017A6F1FEC33F000019E
:1055B00079C0CDF000017AC0CEF00001000ECEBF60
:1055C000FF0ECF6FD06F010E73EC2BF0CDC028F023
:1055D000CEC029F0CFC02AF0D0C02BF0010101517C
:1055E0002BE1320E0101005DD8A044A825D00101B5
:1055F000035122E1320E0101025DD8B01DD0449862
:105600005EEC33F00009D8B4FBD7090E0001796FC6
:10561000000E7A6F000E7B6F000E7C6F710E000122
:105620007D6F010E00017E6F080E00017F6FFC0E82
:105630000001806F2CEC0CF043AC50D0375004E1EB
:10564000420E365CD8A048D0818A010E0101716FEC
:105650000D0E0001796F000E7A6F000E7B6F000E49
:105660007C6F710E00017D6F010E00017E6F010ED7
:1056700000017F6FBC0E0001806F2CEC0CF044BA6F
:105680002DD0010101512AE1280E0101005DD8B0A1
:1056900025D0320E0101996F43845EEC33F000098E
:1056A000D8B4FBD70F0E0001796F000E7A6F000E91
:1056B0007B6F000E7C6F990E00017D6F010E000163
:1056C0007E6F080E00017F6FBC0E0001806F2CEC16
:1056D0000CF0439E448A02D0439C819A43A212005C
:1056E00081BA120017D70001D56F0001D551000112
:1056F000D8B41ED00001D0AF1BD0CDC0D1F0CEC0E9
:10570000D2F0CFC0D3F0D0C0D4F00001D11FD21F4F
:10571000D31FD41FD12B000ED223D323D423D1C027
:10572000D7F0D2C0D8F0D3C0D9F0D4C0DAF008D0C6
:10573000CDC0D7F0CEC0D8F0CFC0D9F0D0C0DAF00D
:105740000001CD510001CE110001CF110001D01197
:10575000D8A40AD0000E0001CD6F000ECE6F000E4F
:10576000CF6F000ED06F1200960E0001D66F08D0DA
:105770000001D62B0001D890DA33D933D833D73390
:10578000000E0001D7150001D16F000E0001D815E1
:105790000001D26F000E0001D9150001D36FFE0E7B
:1057A0000001DA150001D46F0001D1510001D211BE
:1057B0000001D3110001D411D8B410D0D9D7000101
:1057C000D62B010E0001D727000ED823D923DA23C8
:1057D0000001D890DA33D933D833D733000E000123
:1057E000D7150001D16F000E0001D8150001D26F4E
:1057F000000E0001D9150001D36FFF0E0001DA156C
:105800000001D46F0001D1510001D2110001D31168
:105810000001D411D8B409D0D2D70001D6070001B5
:10582000D890D737D837D937DA370001D9BF04D065
:10583000020E0001D661F1D70001D6B109D0FF0EEA
:105840000001D717FF0ED8177F0ED917FF0EDA17F2
:105850000001D890D633D6C0D1F00001D26BD36B03
:10586000D46BD1C0D4F00001D36BD26BD16B0001EB
:10587000D1510001D7130001D2510001D81300010A
:10588000D3510001D9130001D4510001DA130001F2
:10589000D5510001D8B405D00001D0AF02D000012D
:1058A000DA8FD7C0CDF0D8C0CEF0D9C0CFF0DAC0F3
:1058B000D0F012000001906F800E70EC33F0000EFB
:1058C000706E000E716E000E726E00018941E8422A
:1058D000C00B0001896F00018951701200018A51CB
:1058E000701200019051711200018739E842F80BE3
:1058F0000001876F00018751711200018BA5718C27
:1059000000018BB1718E00018851721200018BB3BE
:10591000728C00018B51600B606E00018B51100B7B
:10592000FF0AD8B4608460CF50FF000E0001796F89
:10593000000E7A6F000E7B6F000E7C6FF70E000179
:105940007D6F010E41EC23F0000E0001796F000E17
:105950007A6F000E7B6F000E7C6FF70E00017D6F7B
:10596000020E41EC23F00FD0F70E0001916F07D02B
:10597000000191690001926928D000019169F70E38
:105980000001926F22D09F0E00018C6FFF0E00016C
:105990008D6F00018B51600B00018E6F8F6B0001CA
:1059A0008C5100018E1300018D5100018F130001F5
:1059B0008F51000AD8A4E1D700018E51BF0AD8B494
:1059C000D7D7600AD8B4D0D7D8D7000E0001796FE6
:1059D000000E7A6F000E7B6F000E7C6F91C07DF021
:1059E000000EA9EC06F0000E0001796F000E7A6F30
:1059F000000E7B6F000E7C6F91C07DF0010EA9EC54
:105A000006F0000E0001796F000E7A6F000E7B6FBA
:105A1000000E7C6F92C07DF0020EA9EC06F0000E25
:105A20000001796F000E7A6F000E7B6F000E7C6FA5
:105A300092C07DF0030EA9EC06F0000E0001796F14
:105A4000000E7A6F000E7B6F000E7C6F92C07DF0AF
:105A5000040EA9EC06F0000E0001796F000E7A6FBB
:105A6000000E7B6F000E7C6F92C07DF0050EA9ECDE
:105A700006F0000E70EC33F01200000E0001C715A6
:105A80000001CF6F000E0001C8150001D06F800E1D
:105A90000001C9150001D16F7F0E0001CA15000178
:105AA000D26F0001CF510001D0110001D1110001CE
:105AB000D211D8A409D0000E0001C76F000EC86F24
:105AC000000EC96F000ECA6F000E0001CB15000159
:105AD000CF6F000E0001CC150001D06F800E0001C9
:105AE000CD150001D16F7F0E0001CE150001D26FE0
:105AF0000001CF510001D0110001D1110001D211DC
:105B0000D8A409D0000E0001CB6F000ECC6F000EA0
:105B1000CD6F000ECE6F0001CAAF26D0C7C0CFF048
:105B2000C8C0D0F0C9C0D1F0CAC0D2F00001CF1FA8
:105B3000D01FD11FD21FCF2B000ED023D123D223B1
:105B4000000E0001CF250001C76F000E0001D0211B
:105B50000001C86F000E0001D1210001C96F800E45
:105B60000001D2210001CA6F0001CEAF26D0CBC008
:105B7000CFF0CCC0D0F0CDC0D1F0CEC0D2F000017B
:105B8000CF1FD01FD11FD21FCF2B000ED023D12368
:105B9000D223000E0001CF250001CB6F000E0001C3
:105BA000D0210001CC6F000E0001D1210001CD6F8A
:105BB000800E0001D2210001CE6F000E0001C71B34
:105BC000000EC81B000EC91B800ECA1B000E000170
:105BD000CB1B000ECC1B000ECD1B800ECE1B00017C
:105BE000CB510001C75D0001CC510001C859000133
:105BF000CD510001C9590001CE510001CA59D8B098
:105C000002D0D8901200D8801200000E0101106F4F
:105C1000010E0101116F020E0101126F030E01014D
:105C2000136F040E0101146F050E0101156F060EAE
:105C30000101166F070E0101176FE7EC31F0819833
:105C4000819A819C4498449C010E0001806FF40E5F
:105C50007F6FECEC32F033D0000E0001806F0A0E43
:105C60007F6FECEC32F05EEC33F00009D8B4FBD778
:105C700081A802D0010E01D0000EFF0A0201086FB8
:105C80000201083B815002010819EF0B0819816ECF
:105C9000110E0001796F000E7A6F000E7B6F000EFF
:105CA0007C6FA10E00017D6F010E00017E6F020E60
:105CB00000017F6FBC0E0001806F2CEC0CF043A242
:105CC000CBD789EC2AF019C15AF101015B6B0101B4
:105CD0005A510201086F0101185101015A6F08C29F
:105CE0005BF11BC15EF101015F6B01015E510201BD
:105CF000086F01011A5101015E6F08C25FF10101D5
:105D00005A5101015E250201086F01015B51010139
:105D10005F210201096FD8900201093102010A6F67
:105D2000020108310101546F0AC255F12CEC1DF03B
:105D3000C6D7DBC079F0DCC07AF0DDC07BF0DEC016
:105D40007CF0E30E00017D6F000E00017E6F9DEC84
:105D500031F00001E4AF17D00001DEAF0AD0000E31
:105D60000001DB6F000EDC6F800EDD6FBF0EDE6F9B
:105D70001200000E0001DB6F000EDC6F000EDD6F05
:105D8000000EDE6F12000001E45105E11D0E00015E
:105D9000E35DD8A009D0DBC0DBF0DCC0DCF0DDC007
:105DA000DDF0DEC0DEF01200DBC0C3F0DCC0C4F00A
:105DB000DDC0C5F0DEC0C6F0B7EC2FF0C3C0CDF03B
:105DC000C4C0CEF0C5C0CFF0C6C0D0F0010E73EC99
:105DD0002BF0CDC0DFF0CEC0E0F0CFC0E1F0D0C0FE
:105DE000E2F0DBC0C7F0DCC0C8F0DDC0C9F0DEC047
:105DF000CAF0DFC0CBF0E0C0CCF0E1C0CDF0E2C033
:105E0000CEF03DEC2DF00001D8B01CD0DFC0ABF0DF
:105E1000E0C0ACF0E1C0ADF0E2C0AEF0000E0001B9
:105E2000AF6F000EB06F800EB16FBF0EB26F85EC1A
:105E300018F0ABC0DBF0ACC0DCF0ADC0DDF0AEC044
:105E4000DEF01200DFC0DBF0E0C0DCF0E1C0DDF02E
:105E5000E2C0DEF01200C5C0C7F0C6C0C8F0000145
:105E6000D890C737C8370001D890C737C837C3C0E4
:105E7000C9F0C4C0CAF00001C7510001C927000120
:105E8000C8510001CA23C9C0F6FFCAC0F7FF000EFF
:105E9000F86E0900F5CFCBF00900F5CFCCF0090082
:105EA000F5CFCDF00A00F5CFCEF052D0CBC096F0B2
:105EB000CCC097F0CDC098F0CEC099F0BFC092F0A2
:105EC000C0C093F0C1C094F0C2C095F0D9EC1AF0F4
:105ED00092C0ABF093C0ACF094C0ADF095C0AEF002
:105EE0000001C507D8A0C607C5C0C7F0C6C0C8F026
:105EF0000001D890C737C8370001D890C737C837D6
:105F0000C3C0C9F0C4C0CAF00001C7510001C9270D
:105F10000001C8510001CA23C9C0F6FFCAC0F7FF7B
:105F2000000EF86E0900F5CFAFF00900F5CFB0F024
:105F30000900F5CFB1F00A00F5CFB2F085EC18F00A
:105F4000ABC0CBF0ACC0CCF0ADC0CDF0AEC0CEF0AD
:105F50000001C5510001C611D8A4A8D7CBC0BFF01D
:105F6000CCC0C0F0CDC0C1F0CEC0C2F01200000164
:105F7000C535C6350001CC6F0001CC51D8A40AD07C
:105F8000000E0001C36F000EC46F000EC56F000E3F
:105F9000C66F1200C3C0C7F0C4C0C8F0C5C0C9F006
:105FA000C6C0CAF0200E06D00001D890CA33C9334B
:105FB000C833C733E82EF8D70001C7510001CB6FB3
:105FC0000001C58FFF0E0001C317FF0EC417FF0E9F
:105FD000C517000EC617960E0001CC5F0001CCAFAE
:105FE0001AD00001CC51800A970FD8B00AD0000E09
:105FF0000001C36F000EC46F000EC56F000EC66FA8
:1060000012000001D890C633C533C433C333000136
:10601000CC3FF7D71BD01F0E0001CC6512D0000E6D
:106020000001C36F000EC46F000EC56F000EC66F77
:1060300012000001D890C337C437C537C6370001F6
:10604000CC070001CC510001D8A4F3D70001CB51FB
:106050000001D8B409D00001C61FC51FC41FC36DFD
:10606000000EC423C523C623C3C0C3F0C4C0C4F0FC
:10607000C5C0C5F0C6C0C6F0120044AC63D05EEC2B
:1060800033F0E806D8A4FBD7070E0001796F000EA5
:106090007A6F000E7B6F000E7C6F910E00017D6F9A
:1060A000010E00017E6F080E00017F6FBC0E000123
:1060B000806F2CEC0CF060C189F10101615101018C
:1060C0008A6F000E43B8010E01018B6F5EEC33F056
:1060D000E806D8A4FBD7050E0001796F000E7A6F91
:1060E000000E7B6F000E7C6F890E00017D6F010E2C
:1060F00000017E6F080E00017F6FBC0E0001806FF3
:106100002CEC0CF0000E01017A6F5EEC33F0E80627
:10611000D8A4FBD7060E0001796F000E7A6F000E2F
:106120007B6F000E7C6F790E00017D6F010E000108
:106130007E6F080E00017F6FBC0E0001806F2CEC9B
:106140000CF012005EEC33F0E806D8A4FBD7100E7A
:106150000001796F000E7A6F000E7B6F000E7C6F6E
:10616000810E00017D6F010E00017E6F080E00019F
:106170007F6FBC0E0001806F2CEC0CF01200DB0E68
:106180000001C76F0F0EC86F490EC96F400ECA6F6E
:10619000CEC1CBF0CFC1CCF0D0C1CDF0D1C1CEF0CB
:1061A0003DEC2DF00001D8B02ED0CEC1ABF0CFC168
:1061B000ACF0D0C1ADF0D1C1AEF0E40E0001AF6FD4
:1061C000CB0EB06F960EB16FC00EB26F85EC18F0AB
:1061D000ABC0D2F1ACC0D3F1ADC0D4F1AEC0D5F1FB
:1061E000D2C1B1F1D3C1B2F1D4C1B3F1D5C1B4F1CF
:1061F00010EC25F0B1C1CEF1B2C1CFF1B3C1D0F1F5
:10620000B4C1D1F11200CEC1ABF0CFC1ACF0D0C15E
:10621000ADF0D1C1AEF0DB0E0001AF6F0F0EB06F6D
:10622000C90EB16F3F0EB26F85EC18F0ABC0D2F162
:10623000ACC0D3F1ADC0D4F1AEC0D5F1D2C1B1F193
:10624000D3C1B2F1D4C1B3F1D5C1B4F110EC25F092
:10625000B1C1CEF1B2C1CFF1B3C1D0F1B4C1D1F16E
:106260001200E9CF0CF0EACF0DF0E1CF0EF0E2CF53
:106270000FF0D9CF10F0DACF11F0F3CF12F0F4CF46
:1062800013F0F6CF14F0F7CF15F0F8CF16F0F5CFE6
:1062900017F0F1AC07D0F19C000EB36E000EB26E99
:1062A000439A2CD0B3CF3FF0B2CF40F03FC03CF088
:1062B0003D6A3C50086E40503C6E08C03DF0D8909E
:1062C0003D30086E3C3001015C6F08C05DF15CC17F
:1062D00001F05DC102F0000E046E3A0E036E49EC4F
:1062E00032F03E50020D000EF324D96E010EF42060
:1062F000DA6E01C0DEFF02C0DDFFF18CF29217C042
:10630000F5FF16C0F8FF15C0F7FF14C0F6FF13C065
:10631000F4FF12C0F3FF11C0DAFF10C0D9FF0FC0A5
:10632000E2FF0EC0E1FF0DC0EAFF0CC0E9FF0BC0A9
:10633000FBFF0AC0FAFF45921100000179510001EC
:106340007A1100017B1100017C11D8A409D07DC015
:10635000D9FF7EC0DAFF000EDE6E000EDD6E120089
:1063600000017C517F0B00017F6F806BD890000192
:106370007F3780377DC0D9FF7EC0DAFF7FC0DEFF68
:1063800080C0DDFF00017BAF04D000017F6B7F2B5D
:1063900002D000017F6B00017F517DC0D9FF7EC01C
:1063A000DAFFDE12000EDD127DC0D9FF7EC0DAFFFB
:1063B000820EDE26FF0EDD2200017C817C837C853F
:1063C0007C877C897C8B7C9D00017B9F1200000E6A
:1063D000896EF00E926E000E8A6E8A0E936E000E1B
:1063E0008B6E9468C168060E0001876F050E000170
:1063F000886F010E0001896F030E00018A6F9D0EE8
:1064000000018B6F040E5AEC2CF0D08EA592A59053
:10641000F194A492A490F292F294A382A380F28ABF
:10642000F298800ED56E340ED76EE00ED66E110E39
:10643000B16EF18CF28CF28E120001EE00F0A90E1A
:10644000EE6AE806FDE1446A436A00EE28F01B0E9E
:10645000EE6AE806FDE1F60EF66E660EF76E000EC9
:10646000F86E01EEF6F010EE0AF00900F5CFEEFF3F
:10647000E550E150FAE1000EF66E670EF76E000E81
:10648000F86E0900F5CFE6F045904592000105EF62
