:040000002AEF01F0F2
:0E0008004882FACF69F0FBCF6AF0D0EF2CF0FF
:100018004880D8CF11F0E8CF12F0E0CF13F0FACF34
:1000280014F0FBCF15F0E9CF16F0EACF17F0E1CFC7
:1000380018F0E2CF19F0D9CF1AF0DACF1BF0F3CFCE
:100048001CF0F4CF1DF0F6CF1EF0F7CF1FF0F8CF5D
:1000580020F0F5CF21F0F2A436D0F298D59E340ED8
:10006800D76EE00ED66ED58E46A60CD04250020D45
:10007800240EF324D96E000EF420DA6E880EDE6E9C
:10008800130EDD6E422A080E4218D8A402D0000EC4
:10009800426E000E226E4250010D000EF324D96EFE
:1000A800010EF420DA6EDF50226E22C080FF93909A
:1000B8008A80140EE82EFED746868A909380F292A4
:1000C800F288F294F18CA4A0A4B201D09BD04A0E7D
:1000D800016E010E026E89EC12F00D0E01014A1933
:1000E80001014B1101014C1101014D11D8B4469287
:1000F800070E01014A1901014B1101014C110101BF
:100108004D11D8A42BD001015805D8B427D0000E22
:10011800356E000E346E4FC136F0376A36500D6EAC
:1001280001014E51366E0DC037F051C138F0396AB1
:1001380038500D6E01015051386E0DC039F03650EF
:1001480038240D6E375039200E6ED8900E300F6E51
:100158000D30346E0FC035F04688468A0A0E01010C
:100168004A1901014B1101014C1101014D11D8A48B
:100178000CD001014E05D8A403D04680818C05D04F
:1001880046908198819A819C47900C0E01014A19EA
:1001980001014B1101014C1101014D11D8B44784E3
:1001A800060E01014A1901014B1101014C1101010F
:1001B8004D11D8A425D0000E236E070E236401D05C
:1001C80014D02350010D4E0EF324D96E010EF420E5
:1001D800DA6E2350010D080EF324E16E010EF420AF
:1001E800E26EDFCFE7FF232AE8D70D0E01014A1997
:1001F80001014B1101014C1101014D11D8B4469C6C
:10020800A490A49221C0F5FF20C0F8FF1FC0F7FFFB
:100218001EC0F6FF1DC0F4FF1CC0F3FF1BC0DAFFB1
:100228001AC0D9FF19C0E2FF18C0E1FF17C0EAFFE2
:1002380016C0E9FF15C0FBFF14C0FAFF13C0E0FFAA
:1002480012C0E8FF11C0D8FF48901000FCEF2DF055
:100D000000063C04427D9F6A425C900142604DBBFC
:100D10004051EC473EDE8D1FBB063C0442C0598B60
:100D20004274044442F99B4F410000803FECF34A77
:100D300048359595C717C1DC45FDDB6DC372B333EC
:100D4000402B3401487F9DB045E7FFD94200008029
:100D50003F000001806F000180510001D8A458D0ED
:100D600000017B29D8A454D00F01019777C07CF0F3
:100D700078C07DF079C07EF07AC07FF0040E06D096
:100D80000001D8907F337E337D337C33E82EF8D753
:100D90007CC081F07DC082F07EC083F07FC084F093
:100DA000000181510001816F826B836B846B81C074
:100DB00000FF070E000177150001816F000E000192
:100DC00078150001826F000E000179150001836F14
:100DD000000E00017A150001846F81C07CF082C092
:100DE0007DF083C07EF084C07FF0050ED8900001B6
:100DF0007C377D377E377F37E82EF8D77CC081F08F
:100E00007DC082F07EC083F07FC084F081C001FF8E
:100E100000018005D8A458D000017B29D8A454D063
:100E20000F01059777C07CF078C07DF079C07EF027
:100E30007AC07FF0040E06D00001D8907F337E3355
:100E40007D337C33E82EF8D77CC081F07DC082F002
:100E50007EC083F07FC084F0000181510001816F6A
:100E6000826B836B846B81C004FF070E00017715D2
:100E70000001816F000E000178150001826F000EE5
:100E8000000179150001836F000E00017A15000141
:100E9000846F81C07CF082C07DF083C07EF084C00E
:100EA0007FF0050ED89000017C377D377E377F3785
:100EB000E82EF8D77CC081F07DC082F07EC083F040
:100EC0007FC084F081C005FF020E00018019D8A404
:100ED00058D000017B29D8A454D00F01099777C0BE
:100EE0007CF078C07DF079C07EF07AC07FF0040E8F
:100EF00006D00001D8907F337E337D337C33E82EDB
:100F0000F8D77CC081F07DC082F07EC083F07FC0C6
:100F100084F0000181510001816F826B836B846BCF
:100F200081C008FF070E000177150001816F000ED8
:100F3000000178150001826F000E00017915000193
:100F4000836F000E00017A150001846F81C07CF070
:100F500082C07DF083C07EF084C07FF0050ED89003
:100F600000017C377D377E377F37E82EF8D77CC08D
:100F700081F07DC082F07EC083F07FC084F081C0AC
:100F800009FF030E00018019D8A458D000017B2965
:100F9000D8A454D00F010D9777C07CF078C07DF0B5
:100FA00079C07EF07AC07FF0040E06D00001D890A0
:100FB0007F337E337D337C33E82EF8D77CC081F0DD
:100FC0007DC082F07EC083F07FC084F0000181513B
:100FD0000001816F826B836B846B81C00CFF070EF5
:100FE000000177150001816F000E000178150001E6
:100FF000826F000E000179150001836F000E000161
:101000007A150001846F81C07CF082C07DF083C0BE
:101010007EF084C07FF0050ED89000017C377D37CC
:101020007E377F37E82EF8D77CC081F07DC082F014
:101030007EC083F07FC084F081C00DFF040E0001EC
:101040008019D8A458D000017B29D8A454D00F010E
:10105000119777C07CF078C07DF079C07EF07AC0BF
:101060007FF0040E06D00001D8907F337E337D33AD
:101070007C33E82EF8D77CC081F07DC082F07EC042
:1010800083F07FC084F0000181510001816F826B89
:10109000836B846B81C010FF070E00017715000180
:1010A000816F000E000178150001826F000E0001B3
:1010B00079150001836F000E00017A150001846F1D
:1010C00081C07CF082C07DF083C07EF084C07FF060
:1010D000050ED89000017C377D377E377F37E82EAC
:1010E000F8D77CC081F07DC082F07EC083F07FC0E5
:1010F00084F081C011FF050E00018019D8A458D0DA
:1011000000017B29D8A454D00F01159777C07CF03B
:1011100078C07DF079C07EF07AC07FF0040E06D0F2
:101120000001D8907F337E337D337C33E82EF8D7AF
:101130007CC081F07DC082F07EC083F07FC084F0EF
:10114000000181510001816F826B836B846B81C0D0
:1011500014FF070E000177150001816F000E0001DA
:1011600078150001826F000E000179150001836F70
:10117000000E00017A150001846F81C07CF082C0EE
:101180007DF083C07EF084C07FF0050ED890000112
:101190007C377D377E377F37E82EF8D77CC081F0EB
:1011A0007DC082F07EC083F07FC084F081C015FFD7
:1011B000000180510001D8A489D0F70E00017B19ED
:1011C000D8A484D00F010187000177510001816FFD
:1011D000826B836B846B81C003FF000E0001771567
:1011E0000001816FFF0E000178150001826F000E73
:1011F000000179150001836F000E00017A150001CE
:10120000846F81C07CF082C07DF083C07EF084C09A
:101210007FF07DC07CF07EC07DF07FC07EF000015D
:101220007F6B7CC081F07DC082F07EC083F07FC088
:1012300084F081C002FF000179A103D00F01018178
:1012400002D00F010191000179A303D00F010183A6
:1012500002D00F010193000179A503D00F01018B8A
:1012600002D00F01019B000179A703D00F01018D6E
:1012700002D00F01019D000179A903D00F01018F58
:1012800002D00F01019F77C07CF078C07DF079C05B
:101290007EF07AC07FF0160E06D00001D8907F3322
:1012A0007E337D337C33E82EF8D77CC081F07DC05F
:1012B00082F07EC083F07FC084F000018151000184
:1012C000816F826B836B846B81C000FF000180059E
:1012D000D8A489D0F70E00017B19D8A484D00F01BF
:1012E0000587000177510001816F826B836B846BEE
:1012F00081C007FF000E000177150001816FFF0E0E
:10130000000178150001826F000E000179150001BF
:10131000836F000E00017A150001846F81C07CF09C
:1013200082C07DF083C07EF084C07FF07DC07CF001
:101330007EC07DF07FC07EF000017F6B7CC081F0BD
:101340007DC082F07EC083F07FC084F081C006FF44
:10135000000179A103D00F01058102D00F01059191
:10136000000179A303D00F01058302D00F0105937B
:10137000000179A503D00F01058B02D00F01059B59
:10138000000179A703D00F01058D02D00F01059D43
:10139000000179A903D00F01058F02D00F01059F2D
:1013A00077C07CF078C07DF079C07EF07AC07FF0A5
:1013B000160E06D00001D8907F337E337D337C3308
:1013C000E82EF8D77CC081F07DC082F07EC083F02B
:1013D0007FC084F0000181510001816F826B836BBB
:1013E000846B81C004FF020E00018019D8A489D04B
:1013F000F70E00017B19D8A484D00F0109870001E2
:1014000077510001816F826B836B846B81C00BFF0E
:10141000000E000177150001816FFF0E00017815A5
:101420000001826F000E000179150001836F000E2C
:1014300000017A150001846F81C07CF082C07DF0CC
:1014400083C07EF084C07FF07DC07CF07EC07DF0E4
:101450007FC07EF000017F6B7CC081F07DC082F098
:101460007EC083F07FC084F081C00AFF000179A1B3
:1014700003D00F01098102D00F010991000179A366
:1014800003D00F01098302D00F010993000179A550
:1014900003D00F01098B02D00F01099B000179A72E
:1014A00003D00F01098D02D00F01099D000179A918
:1014B00003D00F01098F02D00F01099F77C07CF084
:1014C00078C07DF079C07EF07AC07FF0160E06D02D
:1014D0000001D8907F337E337D337C33E82EF8D7FC
:1014E0007CC081F07DC082F07EC083F07FC084F03C
:1014F000000181510001816F826B836B846B81C01D
:1015000008FF030E00018019D8A489D0F70E00014E
:101510007B19D8A484D00F010D87000177510001F9
:10152000816F826B836B846B81C00FFF000E0001A3
:1015300077150001816FFF0E000178150001826FA1
:10154000000E000179150001836F000E00017A156D
:101550000001846F81C07CF082C07DF083C07EF08A
:1015600084C07FF07DC07CF07EC07DF07FC07EF0C7
:1015700000017F6B7CC081F07DC082F07EC083F073
:101580007FC084F081C00EFF000179A103D00F015C
:101590000D8102D00F010D91000179A303D00F013D
:1015A0000D8302D00F010D93000179A503D00F0127
:1015B0000D8B02D00F010D9B000179A703D00F0105
:1015C0000D8D02D00F010D9D000179A903D00F01EF
:1015D0000D8F02D00F010D9F77C07CF078C07DF099
:1015E00079C07EF07AC07FF0160E06D00001D89048
:1015F0007F337E337D337C33E82EF8D77CC081F097
:101600007DC082F07EC083F07FC084F000018151F4
:101610000001816F826B836B846B81C00CFF040EB1
:1016200000018019D8A489D0F70E00017B19D8A435
:1016300084D00F011187000177510001816F826B07
:10164000836B846B81C013FF000E000177150001CE
:10165000816FFF0E000178150001826F000E0001FE
:1016600079150001836F000E00017A150001846F67
:1016700081C07CF082C07DF083C07EF084C07FF0AA
:101680007DC07CF07EC07DF07FC07EF000017F6B6E
:101690007CC081F07DC082F07EC083F07FC084F08A
:1016A00081C012FF000179A103D00F01118102D086
:1016B0000F011191000179A303D00F01118302D012
:1016C0000F011193000179A503D00F01118B02D0F6
:1016D0000F01119B000179A703D00F01118D02D0DA
:1016E0000F01119D000179A903D00F01118F02D0C4
:1016F0000F01119F77C07CF078C07DF079C07EF03B
:101700007AC07FF0160E06D00001D8907F337E336A
:101710007D337C33E82EF8D77CC081F07DC082F029
:101720007EC083F07FC084F0000181510001816F91
:10173000826B836B846B81C010FF050E00018019E2
:10174000D8A41200F70E00017B19D8A412000F01D3
:101750001587000177510001816F826B836B846B69
:1017600081C017FF000E000177150001816FFF0E89
:10177000000178150001826F000E0001791500014B
:10178000836F000E00017A150001846F81C07CF028
:1017900082C07DF083C07EF084C07FF07DC07CF08D
:1017A0007EC07DF07FC07EF000017F6B7CC081F049
:1017B0007DC082F07EC083F07FC084F081C016FFC0
:1017C000000179A103D00F01158102D00F011591FD
:1017D000000179A303D00F01158302D00F011593E7
:1017E000000179A503D00F01158B02D00F01159BC5
:1017F000000179A703D00F01158D02D00F01159DAF
:10180000000179A903D00F01158F02D00F01159F98
:1018100077C07CF078C07DF079C07EF07AC07FF030
:10182000160E06D00001D8907F337E337D337C3393
:10183000E82EF8D77CC081F07DC082F07EC083F0B6
:101840007FC084F0000181510001816F826B836B46
:10185000846B81C014FF12000F0140B73FD17DC0DF
:1018600045FF00017EAD03D00F01458D02D00F0171
:10187000459D00017EA779D0000177510001836F5B
:10188000846B856B866B83C044FF000E0001771567
:101890000001836FFF0E000178150001846F000EB8
:1018A000000179150001856F000E00017A15000115
:1018B000866F83C07FF084C080F085C081F086C0D1
:1018C00082F080C07FF081C080F082C081F0000192
:1018D000826B7FC083F080C084F081C085F082C0BD
:1018E00086F083C043FF000E0F01426F0F01428755
:1018F000000179A102D00F014281000179A302D039
:101900000F014283000179A502D00F01428B000133
:1019100079A702D00F01428D000179A902D00F01F1
:10192000428F77C07FF078C080F079C081F07AC0B4
:1019300082F0160E06D00001D890823381338033B6
:101940007F33E82EF8D77FC083F080C084F081C059
:1019500085F082C086F0000183510001836F846BA3
:10196000856B866B83C041FF59D00F01429777C0CA
:101970007FF078C080F079C081F07AC082F0040EE8
:1019800006D00001D8908233813380337F33E82E34
:10199000F8D77FC083F080C084F081C085F082C01A
:1019A00086F0000183510001836F846B856B866B29
:1019B00083C041FF070E000177150001836F000E01
:1019C000000178150001846F000E000179150001F7
:1019D000856F000E00017A150001866F83C07FF0CD
:1019E00084C080F085C081F086C082F0050ED8905A
:1019F00000017F37803781378237E82EF8D77FC0E4
:101A000083F080C084F081C085F082C086F00F0131
:101A100042511F0B0F01426F83C042FF00017EA1A4
:101A200003D00F01408102D00F01409100017EA33D
:101A300003D00F01408302D00F0140937BC0D9FF38
:101A40007CC0DAFFDF500F01466F000120EE01F08D
:101A50007B51D9267C51DA22DF500F01476F0001FC
:101A600020EE02F07B51D9267C51DA22DF500F01A3
:101A7000486F000120EE03F07B51D9267C51DA2219
:101A8000DF500F01496F000120EE04F07B51D92691
:101A90007C51DA22DF500F014A6F000120EE05F081
:101AA0007B51D9267C51DA22DF500F014B6F0001A8
:101AB00020EE06F07B51D9267C51DA22DF500F014F
:101AC0004C6F000120EE07F07B51D9267C51DA22C1
:101AD000DF500F014D6F0F01408712000F0130B72B
:101AE0003FD17DC035FF00017EAD03D00F01358DA4
:101AF00002D00F01359D00017EA779D000017751FA
:101B00000001836F846B856B866B83C034FF000E8E
:101B1000000177150001836FFF0E000178150001A9
:101B2000846F000E000179150001856F000E000121
:101B30007A150001866F83C07FF084C080F085C075
:101B400081F086C082F080C07FF081C080F082C0CA
:101B500081F00001826B7FC083F080C084F081C07F
:101B600085F082C086F083C033FF000E0F01326F14
:101B70000F013287000179A102D00F0132810001EB
:101B800079A302D00F013283000179A502D00F01A1
:101B9000328B000179A702D00F01328D000179A9A3
:101BA00002D00F01328F77C07FF078C080F079C00B
:101BB00081F07AC082F0160E06D00001D8908233F0
:101BC000813380337F33E82EF8D77FC083F080C025
:101BD00084F081C085F082C086F00001835100014D
:101BE000836F846B856B866B83C031FF59D00F0187
:101BF000329777C07FF078C080F079C081F07AC0EA
:101C000082F0040E06D00001D890823381338033F5
:101C10007F33E82EF8D77FC083F080C084F081C086
:101C200085F082C086F0000183510001836F846BD0
:101C3000856B866B83C031FF070E000177150001AD
:101C4000836F000E000178150001846F000E000103
:101C500079150001856F000E00017A150001866F6D
:101C600083C07FF084C080F085C081F086C082F0A0
:101C7000050ED89000017F37803781378237E82EF4
:101C8000F8D77FC083F080C084F081C085F082C027
:101C900086F00F0132511F0B0F01326F83C032FFEC
:101CA00000017EA103D00F01308102D00F013091DD
:101CB00000017EA303D00F01308302D00F013093C7
:101CC0007BC0D9FF7CC0DAFFDF500F01366F000107
:101CD00020EE01F07B51D9267C51DA22DF500F0132
:101CE000376F000120EE02F07B51D9267C51DA22B9
:101CF000DF500F01386F000120EE03F07B51D92631
:101D00007C51DA22DF500F01396F000120EE04F020
:101D10007B51D9267C51DA22DF500F013A6F000146
:101D200020EE05F07B51D9267C51DA22DF500F01DD
:101D30003B6F000120EE06F07B51D9267C51DA2260
:101D4000DF500F013C6F000120EE07F07B51D926D8
:101D50007C51DA22DF500F013D6F0F0130871200F6
:101D60000F0120B712007DC025FF00017EAD03D01A
:101D70000F01258D02D00F01259D00017EA779D08E
:101D8000000177510001836F846B856B866B83C084
:101D900024FF000E000177150001836FFF0E000184
:101DA00078150001846F000E000179150001856F20
:101DB000000E00017A150001866F83C07FF084C099
:101DC00080F085C081F086C082F080C07FF081C045
:101DD00080F082C081F00001826B7FC083F080C000
:101DE00084F081C085F082C086F083C023FF000E9E
:101DF0000F01226F0F012287000179A102D00F018C
:101E00002281000179A302D00F012283000179A56C
:101E100002D00F01228B000179A702D00F01228D81
:101E2000000179A902D00F01228F77C07FF078C01E
:101E300080F079C081F07AC082F0160E06D00001E1
:101E4000D8908233813380337F33E82EF8D77FC038
:101E500083F080C084F081C085F082C086F00001EC
:101E600083510001836F846B856B866B83C021FF78
:101E700059D00F01229777C07FF078C080F079C0E9
:101E800081F07AC082F0040E06D00001D89082332F
:101E9000813380337F33E82EF8D77FC083F080C052
:101EA00084F081C085F082C086F00001835100017A
:101EB000836F846B856B866B83C021FF070E0001E7
:101EC00077150001836F000E000178150001846F03
:101ED000000E000179150001856F000E00017A15D2
:101EE0000001866F83C07FF084C080F085C081F0E0
:101EF00086C082F0050ED89000017F378037813789
:101F00008237E82EF8D77FC083F080C084F081C08C
:101F100085F082C086F00F0122511F0B0F01226F46
:101F200083C022FF00017EA103D00F01208102D0D7
:101F30000F01209100017EA303D00F01208302D066
:101F40000F0120937BC0D9FF7CC0DAFFDF500F0167
:101F5000266F000120EE01F07B51D9267C51DA2258
:101F6000DF500F01276F000120EE02F07B51D926D0
:101F70007C51DA22DF500F01286F000120EE03F0C0
:101F80007B51D9267C51DA22DF500F01296F0001E5
:101F900020EE04F07B51D9267C51DA22DF500F016C
:101FA0002A6F000120EE05F07B51D9267C51DA2200
:101FB000DF500F012B6F000120EE06F07B51D92678
:101FC0007C51DA22DF500F012C6F000120EE07F068
:101FD0007B51D9267C51DA22DF500F012D6F0F0182
:101FE0002087120024C1B1F025C1B2F026C1B3F0A0
:101FF00027C1B4F0000E00017B6F000E7C6F000E55
:102000007D6F400E7E6FE6C177F0E7C178F0E8C1E2
:1020100079F0E9C17AF084EC1DF077C0ADF078C0BA
:10202000AEF079C0AFF07AC0B0F00FEC15F0ADC0F3
:10203000A9F0AEC0AAF0AFC0ABF0B0C0ACF0DEEC1F
:102040002EF0A9C0BAF1AAC0BBF1ABC0BCF1ACC0C4
:10205000BDF1BAC1B1F0BBC1B2F0BCC1B3F0BDC1FA
:10206000B4F0000E0001946F000E956F000E966F95
:10207000400E976FECC190F0EDC191F0EEC192F07F
:10208000EFC193F063EC17F090C0ADF091C0AEF0EB
:1020900092C0AFF093C0B0F00FEC15F0ADC0BEF140
:1020A000AEC0BFF1AFC0C0F1B0C0C1F1000E0001C1
:1020B0007B6F000E7C6F000E7D6F400E7E6FE6C161
:1020C00077F0E7C178F0E8C179F0E9C17AF084EC03
:1020D0001DF077C0A9F078C0AAF079C0ABF07AC043
:1020E000ACF0DEEC2EF0A9C0B1F0AAC0B2F0ABC0EB
:1020F000B3F0ACC0B4F0BEC1ADF0BFC1AEF0C0C172
:10210000AFF0C1C1B0F00FEC15F0ADC0C2F1AEC080
:10211000C3F1AFC0C4F1B0C0C5F1C2C177F0C3C153
:1021200078F0C4C179F0C5C17AF0000E0001946F57
:10213000000E956F000E966F400E976FECC190F0F9
:10214000EDC191F0EEC192F0EFC193F063EC17F0A6
:1021500090C07BF091C07CF092C07DF093C07EF087
:1021600084EC1DF077C0C6F178C0C7F179C0C8F122
:102170007AC0C9F1C6C19AF1C7C19BF1C8C19CF12F
:10218000C9C19DF1BFEC22F09AC11CF19BC11DF1A8
:102190009CC11EF19DC11FF1DB0E00017B6F0F0E74
:1021A0007C6F490E7D6F400E7E6F1CC177F01DC1A4
:1021B00078F01EC179F01FC17AF084EC1DF077C071
:1021C00090F078C091F079C092F07AC093F0000E50
:1021D0000001946F000E956F340E966F430E976F4B
:1021E00063EC17F090C01CF191C01DF192C01EF17C
:1021F00093C01FF11CC1A9F01DC1AAF01EC1ABF014
:102200001FC1ACF0DEEC2EF0A9C0ADF0AAC0AEF05C
:10221000ABC0AFF0ACC0B0F0000E0001B16F000E6B
:10222000B26FB40EB36F420EB46F0FEC15F0ADC0C9
:1022300020F1AEC021F1AFC022F1B0C023F11CC12A
:10224000B2F11DC1B3F11EC1B4F11FC1B5F15EEC15
:102250002CF0B2C1CAF1B3C1CBF1B4C1CCF1B5C15C
:10226000CDF1ECC194F0EDC195F0EEC196F0EFC167
:1022700097F0CAC190F0CBC191F0CCC192F0CDC122
:1022800093F063EC17F090C0CEF191C0CFF192C003
:10229000D0F193C0D1F1CEC190F0CFC191F0D0C1B7
:1022A00092F0D1C193F0000E0001946F000E956F73
:1022B000000E966F400E976F63EC17F090C030F1F0
:1022C00091C031F192C032F193C033F120C194F04A
:1022D00021C195F022C196F023C197F0ECC190F096
:1022E000EDC191F0EEC192F0EFC193F063EC17F005
:1022F00090C0D2F191C0D3F192C0D4F193C0D5F186
:10230000DB0E0001946F0F0E956FC90E966F400E95
:10231000976FD2C190F0D3C191F0D4C192F0D5C1E2
:1023200093F063EC17F090C077F091C078F092C012
:1023300079F093C07AF0000E00017B6F000E7C6F85
:10234000B40E7D6F430E7E6F84EC1DF077C038F1C4
:1023500078C039F179C03AF17AC03BF1000E000142
:102360007B6F000E7C6F400E7D6F400E7E6F000E07
:102370000001946F000E956F000E966F400E976FE0
:10238000E6C190F0E7C191F0E8C192F0E9C193F0A5
:1023900063EC17F090C077F091C078F092C079F0BC
:1023A00093C07AF084EC1DF077C0ADF078C0AEF049
:1023B00079C0AFF07AC0B0F0ECC1B1F0EDC1B2F0CD
:1023C000EEC1B3F0EFC1B4F00FEC15F0ADC02CF1DD
:1023D000AEC02DF1AFC02EF1B0C02FF1000E000144
:1023E0007B6F000E7C6F400E7D6F400E7E6F000E87
:1023F0000001946F000E956F000E966F400E976F60
:10240000E6C190F0E7C191F0E8C192F0E9C193F024
:1024100063EC17F090C077F091C078F092C079F03B
:1024200093C07AF084EC1DF077C0A9F078C0AAF0D0
:1024300079C0ABF07AC0ACF0DEEC2EF0A9C0ADF004
:10244000AAC0AEF0ABC0AFF0ACC0B0F0ECC1B1F020
:10245000EDC1B2F0EEC1B3F0EFC1B4F00FEC15F086
:10246000ADC028F1AEC029F1AFC02AF1B0C02BF148
:102470002CC17BF02DC17CF02EC17DF02FC17EF0F0
:1024800028C177F029C178F02AC179F02BC17AF000
:1024900084EC1DF077C0D6F178C0D7F179C0D8F1BF
:1024A0007AC0D9F1D6C19AF1D7C19BF1D8C19CF1BC
:1024B000D9C19DF1BFEC22F09AC1B2F19BC1B3F139
:1024C0009CC1B4F19DC1B5F15EEC2CF0B2C1DAF162
:1024D000B3C1DBF1B4C1DCF1B5C1DDF1DAC190F01B
:1024E000DBC191F0DCC192F0DDC193F02CC194F01E
:1024F0002DC195F02EC196F02FC197F063EC17F027
:1025000090C018F191C019F192C01AF193C01BF15B
:102510001200000E0B6E74BE0B8074BC0B820F0198
:1025200050AF43D101C0D9FF02C0DAFFDE6ADE6AD4
:10253000DE6ADD6A20EE04F00150D9260250DA226C
:1025400056CFDFFF20EE05F00150D9260250DA22E7
:1025500057CFDFFF20EE06F00150D9260250DA22D5
:1025600058CFDFFF20EE07F00150D9260250DA22C3
:1025700059CFDFFF20EE08F00150D9260250DA22B1
:102580005ACFDFFF20EE09F00150D9260250DA229F
:102590005BCFDFFF20EE0AF00150D9260250DA228D
:1025A0005CCFDFFF20EE0BF00150D9260250DA227B
:1025B0005DCFDFFF20EE0EF00150D9260250DA2267
:1025C0000F0155AD02D0010E01D0000EDF6E20EEDE
:1025D0000DF00150D9260250DA220F0155510F0B90
:1025E000DF6E20EE0CF00150D9260250DA220F01E6
:1025F00052A702D0010E01D0000EDF6E0F0152B7BC
:1026000044D051CF03F0046A056A066A030ED890DD
:102610000336043605360636E82EF9D701C0D9FF51
:1026200002C0DAFF03C0DEFF04C0DEFF05C0DEFF2C
:1026300006C0DEFF0F015239E842070B070B0C6E94
:1026400001C0D9FF02C0DAFFDECF03F0DECF04F015
:10265000DECF05F0DECF06F00C500324076E000E2F
:102660000420086E000E0520096E000E06200A6E7A
:1026700001C0D9FF02C0DAFF07C0DEFF08C0DEFFDD
:1026800009C0DEFF0AC0DEFF8DD054CF03F0046A1C
:10269000056A066A01C0D9FF02C0DAFF03C0DEFF87
:1026A00004C0DEFF05C0DEFF06C0DEFF53CF03F02F
:1026B000046A056A066A05C006F004C005F003C096
:1026C00004F0036A01C0D9FF02C0DAFF0350DE261E
:1026D0000450DE220550DE220650DE220F0152A1F8
:1026E0000CD001C0D9FF02C0DAFF000EDE12000ECE
:1026F000DE12010EDE12000EDE120F0152A30CD00C
:1027000001C0D9FF02C0DAFF000EDE12000EDE1299
:10271000020EDE12000EDE120F0152AB0CD001C011
:10272000D9FF02C0DAFF000EDE12000EDE12040E28
:10273000DE12000EDE120F0152AD0CD001C0D9FF27
:1027400002C0DAFF000EDE12000EDE12080EDE12EC
:10275000000EDE120F0152AF0CD001C0D9FF02C033
:10276000DAFF000EDE12000EDE12100EDE12000E78
:10277000DE1251CF03F0046A056A066A150ED8907E
:102780000336043605360636E82EF9D701C0D9FFE0
:1027900002C0DAFF0350DE120450DE120550DE12D2
:1027A0000650DE120F01509F120060AE120001C0F1
:1027B000D9FF02C0DAFFDE6ADE6ADE6ADD6A20EE79
:1027C00004F00150D9260250DA2266CFDFFF20EE56
:1027D00005F00150D9260250DA2267CFDFFF20EE44
:1027E00006F00150D9260250DA2268CFDFFF20EE32
:1027F00007F00150D9260250DA2269CFDFFF20EE20
:1028000008F00150D9260250DA226ACFDFFF20EE0D
:1028100009F00150D9260250DA226BCFDFFF20EEFB
:102820000AF00150D9260250DA226CCFDFFF20EEE9
:102830000BF00150D9260250DA226DCFDFFF20EED7
:102840000EF00150D9260250DA2265AC02D0010EFA
:1028500001D0000EDF6E20EE0DF00150D92602509F
:10286000DA2265500F0BDF6E20EE0CF00150D926F6
:102870000250DA2262A602D0010E01D0000EDF6EF5
:1028800062B643D061CF03F0046A056A066A030E9C
:10289000D8900336043605360636E82EF9D701C03F
:1028A000D9FF02C0DAFF03C0DEFF04C0DEFF05C0AF
:1028B000DEFF06C0DEFF6238E842070B070B0C6E36
:1028C00001C0D9FF02C0DAFFDECF03F0DECF04F093
:1028D000DECF05F0DECF06F00C500324076E000EAD
:1028E0000420086E000E0520096E000E06200A6EF8
:1028F00001C0D9FF02C0DAFF07C0DEFF08C0DEFF5B
:1029000009C0DEFF0AC0DEFF88D064CF03F0046A8E
:10291000056A066A01C0D9FF02C0DAFF03C0DEFF04
:1029200004C0DEFF05C0DEFF06C0DEFF63CF03F09C
:10293000046A056A066A05C006F004C005F003C013
:1029400004F0036A01C0D9FF02C0DAFF0350DE269B
:102950000450DE220550DE220650DE2262A00CD09A
:1029600001C0D9FF02C0DAFF000EDE12000EDE1237
:10297000010EDE12000EDE1262A20CD001C0D9FFE1
:1029800002C0DAFF000EDE12000EDE12020EDE12B0
:10299000000EDE1262AA0CD001C0D9FF02C0DAFF1D
:1029A000000EDE12000EDE12040EDE12000EDE122B
:1029B00062AC0CD001C0D9FF02C0DAFF000EDE12FB
:1029C000000EDE12080EDE12000EDE1262AE0CD019
:1029D00001C0D9FF02C0DAFF000EDE12000EDE12C7
:1029E000100EDE12000EDE1261CF03F0046A056ADB
:1029F000066A150ED8900336043605360636E82EDC
:102A0000F9D701C0D9FF02C0DAFF0350DE1204502B
:102A1000DE120550DE120650DE12609E120000012A
:102A2000B051800B0001BD6F0001B051B025000115
:102A3000BF6F0001AFAF02D00001BF810001BF51E5
:102A40000001D8B412D00001BF29D8A409D0000ECB
:102A50000001AD6F000EAE6F000EAF6F000EB06FD5
:102A60000001AF8F000E000108D0000E0001AD6F15
:102A7000000EAE6F000EAF6F000EB06F0001B451CC
:102A8000800B0001BE6F0001BD510001BE19D8B41A
:102A900002D00001BD8D0001B451B4250001BE6F0C
:102AA0000001B3AF02D00001BE810001BE510001A0
:102AB000D8B412D00001BE29D8A409D0000E00015C
:102AC000B16F000EB26F000EB36F000EB46F000155
:102AD000B38F000E000108D0000E0001B16F000E90
:102AE000B26F000EB36F000EB46F0001BF51000152
:102AF000BE5DD8B024D00001BDAD03D0800E000172
:102B0000BD1BBFC0C0F0BEC0BFF0C0C0BEF0ADC0F6
:102B1000C0F0B1C0ADF0C0C0B1F0AEC0C0F0B2C046
:102B2000AEF0C0C0B2F0AFC0C0F0B3C0AFF0C0C034
:102B3000B3F0B0C0C0F0B4C0B0F0C0C0B4F0000E8C
:102B40000001C06F0001BF510001B56FB66B0001FD
:102B5000B51FB61FB54BB62B0001BE510001B76FB4
:102B6000B86B0001B5510001B7270001B651000153
:102B7000B8230001B8BF3DD00001B85105E11A0EDD
:102B80000001B75DD8A035D00001AD510001AE11F4
:102B90000001AF110001B011D8B402D0010E01D074
:102BA000000E0001C06F000E0001AD6F000EAE6F91
:102BB000000EAF6F000EB06FBEC0BFF020D000019E
:102BC000C0A107D00001D890C03101090001C06F39
:102BD00003D00001D890C0330001ADA102D00001A4
:102BE000C08F0001B035B033AF33AE33AD33000129
:102BF000BF2B0001BE510001BF5DD8A0E0D700018E
:102C0000BDBD3FD00001BF510001D8A40AD0000EC5
:102C10000001AD6F000EAE6F000EAF6F000EB06F13
:102C200012000001B1510001AD270001B2510001B5
:102C3000AE230001B3510001AF230001B4510001E4
:102C4000B0230001B0A1CCD00001C0A109D0000187
:102C5000D890C0330001C05101090001C06F03D0FA
:102C60000001D890C0330001ADA102D00001C08F97
:102C70000001B035B033AF33AE33AD330001BF2BFD
:102C8000AFD00001B1510001AD5D0001B2510001B2
:102C9000AE590001B3510001AF590001B051800A93
:102CA0000001B56F0001B451800A0001B559D8B0D8
:102CB00050D0ADC0B5F0AEC0B6F0AFC0B7F0B0C048
:102CC000B8F00001B51FB61FB71FB81FB52B000E17
:102CD000B623B723B8230001B1510001B525000187
:102CE000B96F0001B2510001B6210001BA6F0001B5
:102CF000B3510001B7210001BB6F0001B4510001C5
:102D0000B8210001BC6FFF0E0001B9250001AD6FB5
:102D1000FF0E0001BA210001AE6FFF0E0001BB21C2
:102D20000001AF6FFF0E0001BC210001B06F800EEB
:102D30000001BD1B0001C06D0001C0510001D8A4FD
:102D400018D0010E0001AD27000EAE23AF23B02333
:102D500010D00001B1510001AD5F0001B25100017E
:102D6000AE5B0001B3510001AF5B0001B451000143
:102D7000B05B0001AD510001AE110001AF110001C7
:102D8000B011D8A42AD00001C0510001D8A425D088
:102D9000000E0001AD6F000EAE6F000EAF6F000EA3
:102DA000B06F12000001D890AD37AE37AF37B037F3
:102DB0000001C0AF02D00001AD810001C0A103D06D
:102DC000D880000102D00001D890C0370001BF5167
:102DD0000001D8B402D00001BF070001AFAFE2D7B5
:102DE000000E0001BE6F0001C0AF0DD0C0C0B5F035
:102DF0007F0E0001B517D8A403D00001ADA103D008
:102E0000010E0001BE6F0001BE510001D8B426D0F2
:102E1000010E0001AD27000EAE23AF23B023000149
:102E2000B0A11CD0ADC0B5F0AEC0B6F0AFC0B7F029
:102E3000B0C0B8F00001B835B833B733B633B533E6
:102E4000B5C0ADF0B6C0AEF0B7C0AFF0B8C0B0F02E
:102E50000001BF29D8B402D00001BF2B0001BF2957
:102E6000D8B405D00001BF510001D8A411D0000E84
:102E70000001AD6F000EAE6F000EAF6F000EB06FB1
:102E80000001BF510001D8A403D0000E0001BD6FA6
:102E90000001BFA103D00001AF8F02D00001AF9F9E
:102EA0000001D890BF310001B06F0001BDAF02D06A
:102EB0000001B08FADC0ADF0AEC0AEF0AFC0AFF0AE
:102EC000B0C0B0F0120000019351800B00019C6F64
:102ED0000001935193250001A26F000192AF02D02F
:102EE0000001A2810001A2510001D8B410D000015C
:102EF000A229D8A409D0000E0001906F000E916F96
:102F0000000E926F000E936F0001928F09D0000E99
:102F10000001906F000E916F000E926F000E936F84
:102F200000019751800B00019C1B000197519725D0
:102F300000019D6F000196AF02D000019D8100014C
:102F40009D510001D8B410D000019D29D8A409D00A
:102F5000000E0001946F000E956F000E966F000E2C
:102F6000976F0001968F09D0000E0001946F000E3C
:102F7000956F000E966F000E976F00019D51000136
:102F8000D8B405D00001A2510001D8A40AD0000E87
:102F90000001906F000E916F000E926F000E936F04
:102FA00012000001965100019003F3CFA7F0F4CF77
:102FB000A8F00001A75100019E6F9F6BA06BA16B51
:102FC0000001A8510001A36FA46BA56BA66B0001C3
:102FD000955100019103F3CFA7F0F4CFA8F00001C1
:102FE000A75100019E27000E9F23A023A1230001CB
:102FF000A8510001A327000EA423A523A6230001A6
:10300000945100019203F3CFA7F0F4CFA8F0000190
:10301000A75100019E27000E9F23A023A12300019A
:10302000A8510001A327000EA423A523A623A0C016
:10303000A1F09FC0A0F09EC09FF000019E6B000118
:10304000945100019103F3CFA7F0F4CFA8F0000151
:10305000A75100019E270001A85100019F23000EE7
:103060000001A023000E0001A123000195510001E1
:103070009003F3CFA7F0F4CFA8F00001A75100010F
:103080009E270001A85100019F23000E0001A023EC
:10309000000E0001A123A0C0A1F09FC0A0F09EC01F
:1030A0009FF000019E6B0001945100019003F3CF4B
:1030B000A7F0F4CFA8F00001A75100019E2700015E
:1030C000A85100019F23000E0001A023000E000163
:1030D000A1230001965100019103F3CFA7F0F4CF93
:1030E000A8F00001A7510001A3270001A851000189
:1030F000A423000E0001A523000E0001A623000159
:10310000955100019203F3CFA7F0F4CFA8F000018E
:10311000A7510001A3270001A8510001A423000E1C
:103120000001A523000E0001A62300019651000115
:103130009203F3CFA7F0F4CFA8F00001A75100014C
:10314000986F0001A8510001996F00019A6B00016E
:103150009B6B9AC09BF099C09AF098C099F00001BF
:10316000986B000198510001A327000199510001BB
:10317000A42300019A510001A52300019B510001E5
:10318000A6239EC098F09FC099F0A0C09AF0A1C05D
:103190009BF0190E06D00001D8909B339A339933D7
:1031A0009833E82EF8D7000198510001A3270001B9
:1031B00099510001A42300019A510001A5230001A7
:1031C0009B510001A623A0C0A1F09FC0A0F09EC00B
:1031D0009FF000019E6B00019D51A2C098F000017C
:1031E000996B00019827000E9923820E0001982503
:1031F0000001A76FFF0E000199210001A86F15D0F3
:103200000001D890A337A437A537A6370001A1AF96
:1032100002D00001A3810001D8909E379F37A037CC
:10322000A1370001A707D8A0A8070001A5AFE8D7DC
:10323000000E00019D6F0001A1AF24D0FF0E000120
:103240009E150001986FFF0E00019F150001996FF8
:10325000FF0E0001A01500019A6F7F0E0001A1155D
:1032600000019B6F000198510001991100019A1112
:1032700000019B11D8A403D00001A3A103D0010E2B
:1032800000019D6F00019D510001D8B423D0010EB3
:103290000001A327000EA423A523A6230001A6A1B5
:1032A00019D0A3C098F0A4C099F0A5C09AF0A6C008
:1032B0009BF000019B359B339A339933983398C028
:1032C000A3F099C0A4F09AC0A5F09BC0A6F000019D
:1032D000A74BA82B0001A8BF10D00001A85104E102
:1032E0000001A729D8A009D0000E0001A36F000E8D
:1032F000A46F800EA56F7F0E2BD00001A8BF07D052
:103300000001A85111E10001A705D8B00DD0000EB1
:103310000001A36F000EA46F000EA56F000EA66F34
:10332000000E00019C6F15D0A7C0A2F0FF0E000197
:10333000A317FF0EA4177F0EA517000EA6170001F6
:10334000A2A102D00001A58F0001D890A2310001F6
:10335000A66F00019C510001A613A3C090F0A4C069
:1033600091F0A5C092F0A6C093F012001ED0030EFB
:103370000101616F010E0101626F48EC24F001014F
:103380006A05010169515A0F0101796F030E0001AD
:10339000E76FE80EE66F46841FEC2AF0000E00018E
:1033A0007E6F320E7D6FC1EC2EF046B281AAC0D185
:1033B00046B047A4BDD1DBD7245026240101DE6FDF
:1033C000255027200101DF6FD8900101DF31010175
:1033D000E16F0101DE310101E06FE0C185F0E1C183
:1033E00086F00001876B886B000EB7EC26F085C075
:1033F00024F186C025F187C026F188C027F1F2ECC0
:103400000FF0000E0001E76F000EE66F5A0E01018B
:10341000796F000E0101616F010E0101626F1FECF7
:103420002AF0010E2BEC2FF0030E0101616F010E4B
:103430000101626F030E0001E76FE80EE66F46942C
:103440005A0E0101796F18C1B1F019C1B2F01AC159
:10345000B3F01BC1B4F030C177F031C178F032C1A4
:1034600079F033C17AF0D8EC2BF077C081F078C0D6
:1034700082F015EC2FF0370E00018127000E0001BD
:103480008223000181C085F0000182C086F0000126
:10349000000E86BFFF0E876F886F010EB7EC26F017
:1034A00085C0A9F086C0AAF087C0ABF088C0ACF098
:1034B000DEEC2EF0A9C0ADF0AAC0AEF0ABC0AFF00C
:1034C000ACC0B0F00FEC15F0ADC0E2F1AEC0E3F16E
:1034D000AFC0E4F1B0C0E5F1000E0001B16F000E25
:1034E000B26F020EB36F430EB46FE2C1ADF0E3C131
:1034F000AEF0E4C1AFF0E5C1B0F00FEC15F0ADC037
:1035000077F0AEC078F0AFC079F0B0C07AF0D8EC08
:103510002BF0000177510101816F46820D0E0001F1
:10352000776F000E786F000E796F000E7A6F810E44
:1035300000017B6F010E00017C6F080E00017D6FA2
:10354000BC0E00017E6F2CEC0CF01FEC2AF046B292
:10355000FED7000E0001E76F000EE66F5A0E010164
:10356000796F000E0101616F010E0101626F1FECA6
:103570002AF0010E2BEC2FF0030E0101616F010EFA
:103580000101626F030E0001E76FE80EE66F4694DB
:10359000B40E0101796F38C177F039C178F03AC1C2
:1035A00079F03BC17AF0D8EC2BF0000177510101A2
:1035B000816F46820D0E0001776F000E786F000E4E
:1035C000796F000E7A6F810E00017B6F010E000192
:1035D0007C6F080E00017D6FBC0E00017E6F2CEC2D
:1035E0000CF01FEC2AF046B2FED7030E0001E76F85
:1035F000E80EE66F000E0101796F4682000E0001B1
:10360000B16F000EB26F200EB36F410EB46F38C1B0
:10361000ADF039C1AEF03AC1AFF03BC1B0F00FEC44
:1036200015F0ADC077F0AEC078F0AFC079F0B0C0A3
:103630007AF0D8EC2BF0000177510101816F0D0E6B
:103640000001776F000E786F000E796F000E7A6FB1
:10365000810E00017B6F010E00017C6F080E0001DE
:103660007D6FBC0E00017E6F2CEC0CF01FEC2AF07D
:1036700046B2FED7000E0101616F010E0101626FBB
:10368000000E0001E76F000EE66F5A0E0101796F20
:103690001FEC2AF0010E2BEC2FF0295004E1150E3F
:1036A000285CD8A017D0030E0101616F010E010143
:1036B000626F030E0001E76FE80EE66F5A0E01011C
:1036C000796F46841FEC2AF02950FEE1150E285C24
:1036D000D8B0FAD7000E0101616F010E0101626FCF
:1036E000000E0001E76F000EE66F5A0E0101796FC0
:1036F00046941FEC2AF04690819A4794030E0101EC
:10370000596F0B0E0001776F000E786F000E796F06
:10371000000E7A6F590E00017B6F010E00017C6F65
:10372000010E00017D6FBC0E00017E6F2CEC0CF0D1
:1037300081AA120046A0120047A412003DD6000143
:10374000C451800B0001C96F0001C451C4250001A0
:10375000CF6F0001C3AF02D00001CF81CFC0D4F042
:103760000001D56BFF0E0001C1150001DA6FFF0EDD
:103770000001C2150001DB6F7F0E0001C3150001BF
:10378000DC6F000E0001C4150001DD6F0001D45193
:103790000001D511D8B408D00001DC8F0001D42974
:1037A0000001D511D8A409D0000E0001DA6F000E77
:1037B000DB6F000EDC6F000EDD6F0001D4510001E5
:1037C000D511D8A40AD0000E0001C16F000EC26F3F
:1037D000000EC36F000EC46F12000001C95100013A
:1037E000D8B41CD0000E0001D66F000ED76F400E6B
:1037F000D86F000ED96F0001800ED813FF0ED913B9
:10380000000E0101496F210E486FD6C0C1F0D7C02C
:10381000C2F0D8C0C3F0D9C0C4F012000001D4294E
:103820000001D511D8A412D0000E0001D66F000EF1
:10383000D76F800ED86F7F0ED96FD6C0C1F0D7C0BA
:10384000C2F0D8C0C3F0D9C0C4F012000001810E8C
:10385000D427FF0ED5230001D451010B0001CF6FF7
:103860000001D535D533D4337F0E0001D427000EA7
:10387000D523D8900001DA350001CB6F0001DB358C
:103880000001CC6F0001DC350001CD6F0001DD359A
:103890000001CE6F000E0001DA6F000EDB6F000E2C
:1038A000DC6F000EDD6F000E0001D06F000ED16FD7
:1038B000000ED26F010ED36F0001CF510001D8B4BA
:1038C00006D00001D890CB37CC37CD37CE37000E9D
:1038D0000001CA6F7ED00001D0510001DA1300014F
:1038E000D1510001DB130001D2510001DC130001B2
:1038F000D3510001DD130001DA510001CB5D00015D
:10390000DB510001CC590001DC510001CD5900010F
:10391000DD510001CE59D8A021D00001DA510001BB
:10392000CB5F0001DB510001CC5B0001DC510001E9
:10393000CD5B0001DD510001CE5B0001D0510001E3
:10394000DA270001D1510001DB230001D25100012F
:10395000DC230001D3510001DD231DD0D0C0C5F010
:10396000D1C0C6F0D2C0C7F0D3C0C8F00001C51F97
:10397000C61FC71FC81F0001C5510001DA1700018B
:10398000C6510001DB170001C7510001DC1700011F
:10399000C8510001DD17D0C0C5F0D1C0C6F0D2C0FB
:1039A000C7F0D3C0C8F00001D890C833C733C633BE
:1039B000C533C5C0D0F0C6C0D1F0C7C0D2F0C8C0B2
:1039C000D3F00001D890CB37CC37CD37CE370001BC
:1039D000CA2B180E0001CA657ED7DAC0C5F0DBC05D
:1039E000C6F0DCC0C7F0DDC0C8F00001D890C83315
:1039F000C733C633C533C5C0DAF0C6C0DBF0C7C0B5
:103A0000DCF0C8C0DDF0010E0001DA150001D06F56
:103A1000000E0001DB150001D16F000E0001DC1566
:103A20000001D26F000E0001DD150001D36FDAC076
:103A3000C5F0DBC0C6F0DCC0C7F0DDC0C8F00001D7
:103A4000D890C833C733C633C533C5C0DAF0C6C053
:103A5000DBF0C7C0DCF0C8C0DDF00001D0510001D0
:103A6000DA270001D1510001DB230001D25100010E
:103A7000DC230001D3510001DD230001DDA119D0B9
:103A8000DAC0C5F0DBC0C6F0DCC0C7F0DDC0C8F0EE
:103A90000001D890C833C733C633C533C5C0DAF088
:103AA000C6C0DBF0C7C0DCF0C8C0DDF00001D44BFD
:103AB000D52BFF0E0001DA150001D66FFF0E0001B5
:103AC000DB150001D76F7F0E0001DC150001D86FF8
:103AD000000E0001DD150001D96FD4C0CFF0000148
:103AE000CFA102D00001D88F0001D890CF310001C2
:103AF000D96F0001D99FD6C0C1F0D7C0C2F0D8C0DD
:103B0000C3F0D9C0C4F0120000017A51800B00014B
:103B1000836F00017A517A2500018E6F000179AF21
:103B200002D000018E8100018E510001D8B412D064
:103B300000018E29D8A409D0000E0001776F000E75
:103B4000786F000E796F000E7A6F0001798F000E8A
:103B5000000108D0000E0001776F000E786F000E94
:103B6000796F000E7A6F00017E51800B0001831B7C
:103B700000017E517E2500018F6F00017DAF02D0D4
:103B800000018F8100018F510001D8B412D00001D3
:103B90008F29D8A409D0000E00017B6F000E7C6F26
:103BA000000E7D6F000E7E6F00017D8F000E000104
:103BB00008D0000E00017B6F000E7C6F000E7D6F41
:103BC000000E7E6F00017B5100017C1100017D1110
:103BD00000017E11D8A417D0000E0001776F000EEF
:103BE000786F000E796F000E7A6F0001800E7913E6
:103BF0007F0E7A1377C077F078C078F079C079F0CB
:103C00007AC07AF0120000018E510001D8A412D0BF
:103C1000000E0001776F000E786F000E796F000EB6
:103C20007A6F77C077F078C078F079C079F07AC091
:103C30007AF0120000018F5100017F6F806B00014C
:103C40007F1F801F7F4B802B00018E510001816FF1
:103C5000826B00017F51000181270001805100012A
:103C600082237F0E000181250001886F000E000174
:103C700082210001896F77C084F078C085F079C017
:103C800086F07AC087F0000E0001776F000E786F23
:103C9000000E796F000E7A6F000E00018A6F000E21
:103CA0008B6F000E8C6F000E8D6F000E00018F6FFA
:103CB00042D000018F510001D8B417D00001D89034
:103CC00084378537863787370001D890773778373C
:103CD00079377A3700018DAF02D00001778100017A
:103CE000D8908A378B378C378D3700017B51000194
:103CF000845D00017C510001855900017D51000166
:103D0000865900017E5100018759D8A012D00001C8
:103D10008D8D00017B510001845F00017C51000109
:103D2000855B00017D510001865B00017E51000131
:103D3000875B00018F2B190E00018F65BAD7000138
:103D40008451000185110001861100018711D8B44A
:103D500018D000018A8115D00001D89077377837C4
:103D600079377A3700018DAF02D0000177810001E9
:103D7000D8908A378B378C378D3700018807D8A0C9
:103D80008907000179AFE8D7000E00018F6F0001AD
:103D90008DAF24D0FF0E00018A1500017F6FFF0E4A
:103DA00000018B150001806FFF0E00018C150001D2
:103DB000816F7F0E00018D150001826F00017F5120
:103DC000000180110001811100018211D8A403D0EB
:103DD000000177A103D0010E00018F6F00018F5108
:103DE0000001D8B423D0010E00017727000E7823FC
:103DF00079237A2300017AA119D077C07FF078C0A7
:103E000080F079C081F07AC082F00001823582337F
:103E1000813380337F337FC077F080C078F081C0FA
:103E200079F082C07AF00001884B892B000189BFAC
:103E300014D00001895104E100018829D8A00DD0D7
:103E4000000E0001896F8869000E0001776F000E77
:103E5000786F000E796F000E7A6F000189BF07D06E
:103E60000001895115E100018805D8B011D0000E7C
:103E70000001896F000E886F000E0001776F000E41
:103E8000786F000E796F000E7A6F000E0001836F5D
:103E900088C08EF000018EA103D00001798F02D07E
:103EA0000001799F0001D8908E3100017A6F0001E6
:103EB000835100017A1377C077F078C078F079C029
:103EC00079F07AC07AF012000001806F000180055D
:103ED000D8A456D000017B29D8A452D077C07CF05A
:103EE00078C07DF079C07EF07AC07FF0040E06D0F5
:103EF0000001D8907F337E337D337C33E82EF8D7B2
:103F00007CC081F07DC082F07EC083F07FC084F0F1
:103F1000000181510001816F826B836B846B81C0D2
:103F200018FF070E000177150001816F000E0001D8
:103F300078150001826F000E000179150001836F72
:103F4000000E00017A150001846F81C07CF082C0F0
:103F50007DF083C07EF084C07FF0050ED890000114
:103F60007C377D377E377F37E82EF8D77CC081F0ED
:103F70007DC082F07EC083F07FC084F081C019FFD5
:103F8000020E00018019D8A456D000017B29D8A4C4
:103F900052D077C07CF078C07DF079C07EF07AC0D6
:103FA0007FF0040E06D00001D8907F337E337D333E
:103FB0007C33E82EF8D77CC081F07DC082F07EC0D3
:103FC00083F07FC084F0000181510001816F826B1A
:103FD000836B846B81C01CFF070E00017715000105
:103FE000816F000E000178150001826F000E000144
:103FF00079150001836F000E00017A150001846FAE
:1040000081C07CF082C07DF083C07EF084C07FF0F0
:10401000050ED89000017C377D377E377F37E82E3C
:10402000F8D77CC081F07DC082F07EC083F07FC075
:1040300084F081C01DFF00018005D8A487D0F70E51
:1040400000017B19D8A482D0000177510001816F53
:10405000826B836B846B81C01BFF000E00017715A0
:104060000001816FFF0E000178150001826F000EC4
:10407000000179150001836F000E00017A1500011F
:10408000846F81C07CF082C07DF083C07EF084C0EC
:104090007FF07DC07CF07EC07DF07FC07EF00001AF
:1040A0007F6B7CC081F07DC082F07EC083F07FC0DA
:1040B00084F081C01AFF000179A103D00F0119819A
:1040C00002D00F011991000179A303D00F011983C8
:1040D00002D00F011993000179A503D00F01198BAC
:1040E00002D00F01199B000179A703D00F01198D90
:1040F00002D00F01199D000179A903D00F01198F7A
:1041000002D00F01199F77C07CF078C07DF079C094
:104110007EF07AC07FF0160E06D00001D8907F3373
:104120007E337D337C33E82EF8D77CC081F07DC0B0
:1041300082F07EC083F07FC084F0000181510001D5
:10414000816F826B836B846B81C018FF020E00014C
:104150008019D8A41200F70E00017B19D8A4120010
:10416000000177510001816F826B836B846B81C08A
:104170001FFF000E000177150001816FFF0E000187
:1041800078150001826F000E000179150001836F20
:10419000000E00017A150001846F81C07CF082C09E
:1041A0007DF083C07EF084C07FF07DC07CF07EC057
:1041B0007DF07FC07EF000017F6B7CC081F07DC010
:1041C00082F07EC083F07FC084F081C01EFF0001BA
:1041D00079A103D00F011D8102D00F011D910001B3
:1041E00079A303D00F011D8302D00F011D9300019D
:1041F00079A503D00F011D8B02D00F011D9B00017B
:1042000079A703D00F011D8D02D00F011D9D000164
:1042100079A903D00F011D8F02D00F011D9F77C018
:104220007CF078C07DF079C07EF07AC07FF0160E09
:1042300006D00001D8907F337E337D337C33E82E67
:10424000F8D77CC081F07DC082F07EC083F07FC053
:1042500084F0000181510001816F826B836B846B5C
:1042600081C01CFF1200000E0101956F0001D6AF46
:1042700015D0D3C0A9F0D4C0AAF0D5C0ABF0D6C039
:10428000ACF0DEEC2EF0A9C0D3F0AAC0D4F0ABC0E5
:10429000D5F0ACC0D6F0010E0101956FD3C090F0FF
:1042A000D4C091F0D5C092F0D6C093F0830E000137
:1042B000946FF90E956F220E966F3E0E976F63EC1A
:1042C00017F090C0D3F091C0D4F092C0D5F093C055
:1042D000D6F0D3C0CBF0D4C0CCF0D5C0CDF0D6C092
:1042E000CEF0D3C0C1F0D4C0C2F0D5C0C3F0D6C0A8
:1042F000C4F0BAEC2AF0C1C0CFF0C2C0D0F0C3C045
:10430000D1F0C4C0D2F07EEC2EF0CBC0D3F0CCC044
:10431000D4F0CDC0D5F0CEC0D6F0D3C090F0D4C08C
:1043200091F0D5C092F0D6C093F0000E0001946FCA
:10433000000E956F800E966F400E976F63EC17F02E
:1043400090C0D3F091C0D4F092C0D5F093C0D6F015
:10435000000E0001B16F000EB26F000EB36F400E81
:10436000B46FD3C0B5F0D4C0B6F0D5C0B7F0D6C0E6
:10437000B8F057EC29F00001D8B025D0D3C0CBF06D
:10438000D4C0CCF0D5C0CDF0D6C0CEF0000E000128
:10439000CF6F000ED06F000ED16F400ED26F7EEC4B
:1043A0002EF0CBC0D3F0CCC0D4F0CDC0D5F0CEC071
:1043B000D6F0010195510101D8A402D0010E01D01F
:1043C000000E0101956F000E0001B16F000EB26F7B
:1043D000800EB36F3F0EB46FD3C0B5F0D4C0B6F04B
:1043E000D5C0B7F0D6C0B8F057EC29F00001D8B06E
:1043F00025D0D3C0A9F0D4C0AAF0D5C0ABF0D6C0A8
:10440000ACF0DEEC2EF0A9C0ADF0AAC0AEF0ABC0AF
:10441000AFF0ACC0B0F0000E0001B16F000EB26F93
:10442000000EB36F400EB46F0FEC15F0ADC0D3F0BB
:10443000AEC0D4F0AFC0D5F0B0C0D6F0D3C090F0CD
:10444000D4C091F0D5C092F0D6C093F0D3C094F010
:10445000D4C095F0D5C096F0D6C097F063EC17F0B5
:1044600090C091F191C092F192C093F193C094F1F8
:1044700091C1C1F092C1C2F093C1C3F094C1C4F024
:10448000410E0001C56F0D0E0001C66F000E000148
:10449000C86F030EC76F4CEC2BF0C1C089F1C2C0CE
:1044A0008AF1C3C08BF1C4C08CF189C17BF08AC191
:1044B0007CF08BC17DF08CC17EF0000E0001C86FD6
:1044C000040EC76F2D0E0001C56F0D0E0001C66FE3
:1044D00091C1C1F092C1C2F093C1C3F094C1C4F0C4
:1044E0004CEC2BF0C1C077F0C2C078F0C3C079F0BB
:1044F000C4C07AF084EC1DF077C08DF178C08EF1E5
:1045000079C08FF17AC090F1D3C090F0D4C091F00F
:10451000D5C092F0D6C093F08DC194F08EC195F0C5
:104520008FC196F090C197F063EC17F090C0D3F074
:1045300091C0D4F092C0D5F093C0D6F0010195514E
:104540000101D8B413D0D3C0A9F0D4C0AAF0D5C00B
:10455000ABF0D6C0ACF0DEEC2EF0A9C0D3F0AAC010
:10456000D4F0ABC0D5F0ACC0D6F01200D3C0D3F0BD
:10457000D4C0D4F0D5C0D5F0D6C0D6F01200000E0D
:104580000001B16F000EB26F800EB36F3F0EB46FBB
:104590009AC1ADF09BC1AEF09CC1AFF09DC1B0F02F
:1045A000A2EC2EF0ADC0B5F0AEC0B6F0AFC0B7F023
:1045B000B0C0B8F057EC29F00001D8B00FD0000E11
:1045C0000101496F210E486F000E01019A6F000E24
:1045D0009B6F000E9C6F000E9D6F1200000E01017C
:1045E0009E6F000E9F6F800EA06F3F0EA16F9AC14D
:1045F00094F09BC195F09CC196F09DC197F09AC133
:1046000090F09BC191F09CC192F09DC193F063EC3E
:1046100017F090C0A9F091C0AAF092C0ABF093C07F
:10462000ACF0DEEC2EF0A9C0ADF0AAC0AEF0ABC08D
:10463000AFF0ACC0B0F0000E0001B16F000EB26F71
:10464000800EB36F3F0EB46F0FEC15F0ADC0C1F02C
:10465000AEC0C2F0AFC0C3F0B0C0C4F09FEC1BF05E
:10466000C1C0AAF1C2C0ABF1C3C0ACF1C4C0ADF1CE
:104670009AC1ADF09BC1AEF09CC1AFF09DC1B0F04E
:10468000A2EC2EF0ADC0B1F0AEC0B2F0AFC0B3F04E
:10469000B0C0B4F08F0E0001B56FC20EB66F350E0C
:1046A000B76F3F0EB86F57EC29F00001D8B02DD08E
:1046B0009AC177F09BC178F09CC179F09DC17AF0E6
:1046C000AAC17BF0ABC17CF0ACC17DF0ADC17EF086
:1046D00084EC1DF077C0AEF178C0AFF179C0B0F1D5
:1046E0007AC0B1F1AEC1D1F0AFC1D2F0B0C1D3F058
:1046F000B1C1D4F08EEC25F0D1C09AF1D2C09BF1BB
:10470000D3C09CF1D4C09DF1120001019DAF6ED0C9
:104710009AC17BF09BC17CF09CC17DF09DC17EF075
:10472000AAC1A9F0ABC1AAF0ACC1ABF0ADC1ACF06D
:10473000DEEC2EF0A9C077F0AAC078F0ABC079F01B
:10474000ACC07AF084EC1DF077C0AEF178C0AFF168
:1047500079C0B0F17AC0B1F1AEC1D1F0AFC1D2F041
:10476000B0C1D3F0B1C1D4F08EEC25F0D1C0A6F128
:10477000D2C0A7F1D3C0A8F1D4C0A9F1DB0E0001CB
:10478000B16F0F0EB26FC90EB36F3F0EB46FA6C1FB
:10479000A9F0A7C1AAF0A8C1ABF0A9C1ACF0DEECAA
:1047A0002EF0A9C0ADF0AAC0AEF0ABC0AFF0ACC067
:1047B000B0F00FEC15F0ADC0A2F1AEC0A3F1AFC0E8
:1047C000A4F1B0C0A5F1A2C1A9F0A3C1AAF0A4C1EF
:1047D000ABF0A5C1ACF0DEEC2EF0A9C09AF1AAC0F6
:1047E0009BF1ABC09CF1ACC09DF112009AC17BF073
:1047F0009BC17CF09CC17DF09DC17EF0AAC177F089
:10480000ABC178F0ACC179F0ADC17AF084EC1DF0A9
:1048100077C0AEF178C0AFF179C0B0F17AC0B1F134
:10482000AEC1D1F0AFC1D2F0B0C1D3F0B1C1D4F0BC
:104830008EEC25F0D1C0A6F1D2C0A7F1D3C0A8F16B
:10484000D4C0A9F1A6C1A9F0A7C1AAF0A8C1ABF034
:10485000A9C1ACF0DEEC2EF0A9C0ADF0AAC0AEF05C
:10486000ABC0AFF0ACC0B0F0DB0E0001B16F0F0E0B
:10487000B26FC90EB36F3F0EB46F0FEC15F0ADC041
:104880009AF1AEC09BF1AFC09CF1B0C09DF1120097
:1048900020EE26F0DECFDEF0DDCFDFF00001DE1F00
:1048A000DF1FDE4BDF2B24500001DE250001816F6E
:1048B00025500001DF210001826F15EC2FF000016F
:1048C00081C085F0000182C086F00001000E86BF25
:1048D000FF0E876F886F010EB7EC26F085C0E0F001
:1048E00086C0E1F087C0E2F088C0E3F0E0C0B1F03C
:1048F000E1C0B2F0E2C0B3F0E3C0B4F0000E0001DA
:10490000B56F000EB66FF00EB76F410EB86F57EC73
:1049100029F00001D8B0F9D0255003E1280E245C1D
:10492000D8B0E5D0275003E1280E265CD8B0DFD000
:10493000E0C094F0E1C095F0E2C096F0E3C097F0DB
:10494000E0C090F0E1C091F0E2C092F0E3C093F0DB
:1049500063EC17F090C0ADF091C0AEF092C0AFF034
:1049600093C0B0F0000E0001B16F000EB26FC80E20
:10497000B36F420EB46F0FEC15F0ADC03CF1AEC09A
:104980003DF1AFC03EF1B0C03FF13CC1C1F03DC10F
:10499000C2F03EC1C3F03FC1C4F09FEC1BF0C1C0E8
:1049A0003CF1C2C03DF1C3C03EF1C4C03FF1E0C024
:1049B00077F0E1C078F0E2C079F0E3C07AF03CC172
:1049C0007BF03DC17CF03EC17DF03FC17EF084ECC8
:1049D0001DF077C040F178C041F179C042F17AC052
:1049E00043F140C19AF141C19BF142C19CF143C1E5
:1049F0009DF1BFEC22F09AC140F19BC141F19CC1F5
:104A000042F19DC143F1DB0E00017B6F0F0E7C6F05
:104A1000490E7D6F400E7E6F40C177F041C178F046
:104A200042C179F043C17AF084EC1DF077C090F078
:104A300078C091F079C092F07AC093F0000E000136
:104A4000946F000E956F340E966F430E976F63EC64
:104A500017F090C040F191C041F192C042F193C073
:104A600043F140C177F041C178F042C179F043C1D0
:104A70007AF0D8EC2BF0000177510101696F2650D4
:104A8000245C27502558D8B002D0000E01D0010E6A
:104A900001016A6F0001E0510101341917E10001C1
:104AA000E1510101351912E10001E251010136190C
:104AB0000DE10001E35101013719D8A407D0000E20
:104AC00046BE010E01016A19D8B41200E0C034F1EB
:104AD000E1C035F1E2C036F1E3C037F101016AA16E
:104AE00002D0468E01D0469E1FEC2AF01200000E26
:104AF00046BE010E01016919D8B41200000E010171
:104B0000696F469E1FEC2AF0120046AE1200000E9E
:104B10000101696F469E1FEC2AF01200D1C0ADF072
:104B2000D2C0AEF0D3C0AFF0D4C0B0F0A2EC2EF043
:104B3000ADC096F1AEC097F1AFC098F1B0C099F199
:104B4000010196510101971101019811010199117B
:104B5000D8A40AD0000E0001D16F000ED26F000E53
:104B6000D36F000ED46F1200000E0001B16F000E63
:104B7000B26F800EB36F3F0EB46F96C1B5F097C1A0
:104B8000B6F098C1B7F099C1B8F057EC29F0000120
:104B9000D8B002D0010E01D0000E0101916F0101C9
:104BA0009151D8B41BD0000E0001776F000E786FC2
:104BB000800E796F3F0E7A6F96C17BF097C17CF0C3
:104BC00098C17DF099C17EF084EC1DF077C096F11C
:104BD00078C097F179C098F17AC099F196C190F0B8
:104BE00097C191F098C192F099C193F096C194F059
:104BF00097C195F098C196F099C197F063EC17F0C2
:104C000090C092F191C093F192C094F193C095F14C
:104C100092C1C1F093C1C2F094C1C3F095C1C4F078
:104C2000190E0001C56F0D0E0001C66F000E0001C8
:104C3000C86F040EC76F4CEC2BF0C1C089F1C2C025
:104C40008AF1C3C08BF1C4C08CF192C1C1F093C191
:104C5000C2F094C1C3F095C1C4F0010E0001C56F4C
:104C60000D0E0001C66F000E0001C86F050EC76F64
:104C70004CEC2BF0C1C08DF1C2C08EF1C3C08FF1DE
:104C8000C4C090F196C190F097C191F098C192F094
:104C900099C193F089C17BF08AC17CF08BC17DF012
:104CA0008CC17EF08DC177F08EC178F08FC179F024
:104CB00090C17AF084EC1DF077C094F078C095F044
:104CC00079C096F07AC097F063EC17F090C096F137
:104CD00091C097F192C098F193C099F1010191515F
:104CE0000101D8B425D096C1A9F097C1AAF098C106
:104CF000ABF099C1ACF0DEEC2EF0A9C0ADF0AAC0CB
:104D0000AEF0ABC0AFF0ACC0B0F0DB0E0001B16FE5
:104D10000F0EB26FC90EB36F3F0EB46F0FEC15F0EC
:104D2000ADC096F1AEC097F1AFC098F1B0C099F1A7
:104D30000001D4BF09D096C1D1F097C1D2F098C17B
:104D4000D3F099C1D4F0120096C1A9F097C1AAF08E
:104D500098C1ABF099C1ACF0DEEC2EF0A9C0D1F057
:104D6000AAC0D2F0ABC0D3F0ACC0D4F012000001A6
:104D70008D6F00018D510001D8B41ED0000188AFA5
:104D80001BD085C089F086C08AF087C08BF088C0B0
:104D90008CF00001891F8A1F8B1F8C1F892B000E2E
:104DA0008A238B238C2389C08FF08AC090F08BC01C
:104DB00091F08CC092F008D085C08FF086C090F042
:104DC00087C091F088C092F00001855100018611E2
:104DD0000001871100018811D8A40AD0000E00013B
:104DE000856F000E866F000E876F000E886F1200B1
:104DF000960E00018E6F08D000018E2B0001D89016
:104E00009233913390338F33000E00018F150001E0
:104E1000896F000E0001901500018A6F000E0001DD
:104E2000911500018B6FFE0E0001921500018C6F31
:104E30000001895100018A1100018B1100018C11C0
:104E4000D8B410D0D9D700018E2B010E00018F27C6
:104E5000000E9023912392230001D8909233913336
:104E600090338F33000E00018F150001896F000E03
:104E70000001901500018A6F000E000191150001DC
:104E80008B6FFF0E0001921500018C6F000189519C
:104E900000018A1100018B1100018C11D8B409D0D6
:104EA000D2D700018E070001D8908F379037913705
:104EB0009237000191BF04D0020E00018E61F1D73C
:104EC00000018EB109D0FF0E00018F17FF0E901761
:104ED0007F0E9117FF0E92170001D8908E338EC06F
:104EE00089F000018A6B8B6B8C6B89C08CF00001A0
:104EF0008B6B8A6B896B0001895100018F13000154
:104F00008A510001901300018B510001911300019F
:104F10008C510001921300018D510001D8B405D0CD
:104F2000000188AF02D00001928F8FC085F090C041
:104F300086F091C087F092C088F0120000018E6F59
:104F4000800E53EC2FF0000E706E000E716E000E8E
:104F5000726E00018741E842C00B0001876F0001BB
:104F60008751701200018851701200018E51711228
:104F700000018539E842F80B0001856F0001855179
:104F80007112000189A5718C000189B1718E000137
:104F900086517212000189B3728C00018951600B35
:104FA000606E00018951100BFF0AD8B4608460CF95
:104FB00050FF000E0001776F000E786F000E796FC2
:104FC000000E7A6FF70E00017B6F010E64EC1FF08C
:104FD000000E0001776F000E786F000E796F000EE3
:104FE0007A6FF70E00017B6F020E64EC1FF00FD09A
:104FF000F70E00018F6F07D000018F6900019069E3
:1050000028D000018F69F70E0001906F22D09F0E0B
:1050100000018A6FFF0E00018B6F00018951600B48
:1050200000018C6F8D6B00018A5100018C1300010F
:105030008B5100018D1300018D51000AD8A4E1D7D6
:1050400000018C51BF0AD8B4D7D7600AD8B4D0D7E2
:10505000D8D7000E0001776F000E786F000E796FC1
:10506000000E7A6F8FC07BF0000EA9EC06F0000EE8
:105070000001776F000E786F000E796F000E7A6F67
:105080008FC07BF0010EA9EC06F0000E0001776FD7
:10509000000E786F000E796F000E7A6F90C07BF073
:1050A000020EA9EC06F0000E0001776F000E786F7B
:1050B000000E796F000E7A6F90C07BF0030EA9ECA2
:1050C00006F0000E0001776F000E786F000E796F0A
:1050D000000E7A6F90C07BF0040EA9EC06F0000E73
:1050E0000001776F000E786F000E796F000E7A6FF7
:1050F00090C07BF0050EA9EC06F0000E53EC2FF0EB
:105100001200D0D048EC24F0255004E1330E245C8A
:10511000D8A02AD047B057D041EC2FF00009D8B41E
:10512000FBD7080E0001776F000E786F000E796FC5
:10513000000E7A6F590E00017B6F010E00017C6F2B
:10514000080E00017D6FFC0E00017E6F2CEC0CF050
:105150004780000E0001E06F000EE16F000EE26F6D
:10516000000EE36F8A882FD08A9820EE26F0DECFDB
:10517000B2F1DDCFB3F10101B21FB31FB24BB32BBC
:1051800024500101B2250001816F25500101B32196
:105190000001826F15EC2FF0000181C085F0000145
:1051A00082C086F00001000E86BFFF0E876F886FF9
:1051B000010EB7EC26F085C0E0F086C0E1F087C0B4
:1051C000E2F088C0E3F0255022E1320E245CD8A042
:1051D00047A01DD0479041EC2FF00009D8B4FBD771
:1051E000070E0001776F000E786F000E796F000ECA
:1051F0007A6F590E00017B6F010E00017C6F080E63
:1052000000017D6FFC0E00017E6F2CEC0CF046A8B7
:1052100049D0355004E1380E345CD8A041D0818AA1
:10522000010E0101596F0B0E0001776F000E786FB0
:10523000000E796F000E7A6F590E00017B6F010E20
:1052400000017C6F010E00017D6FBC0E00017E6FBE
:105250002CEC0CF047B226D0255024E1280E245C1B
:10526000D8B020D0820E0101816F46820D0E000160
:10527000776F000E786F000E796F000E7A6F810ED7
:1052800000017B6F010E00017C6F080E00017D6F35
:10529000BC0E00017E6F2CEC0CF0469A478202D0C7
:1052A0004698819A46A0120081BA12002BD7000EB0
:1052B0000001B1150001B96F000E0001B215000127
:1052C000BA6F800E0001B3150001BB6F7F0E0001A5
:1052D000B4150001BC6F0001B9510001BA11000101
:1052E000BB110001BC11D8A409D0000E0001B16FA0
:1052F000000EB26F000EB36F000EB46F000E00010F
:10530000B5150001B96F000E0001B6150001BA6FA6
:10531000800E0001B7150001BB6F7F0E0001B815AC
:105320000001BC6F0001B9510001BA110001BB11AD
:105330000001BC11D8A409D0000E0001B56F000E09
:10534000B66F000EB76F000EB86F0001B4AF26D075
:10535000B1C0B9F0B2C0BAF0B3C0BBF0B4C0BCF0D9
:105360000001B91FBA1FBB1FBC1FB92B000EBA2307
:10537000BB23BC23000E0001B9250001B16F000E54
:105380000001BA210001B26F000E0001BB21000133
:10539000B36F800E0001BC210001B46F0001B8AFF3
:1053A00026D0B5C0B9F0B6C0BAF0B7C0BBF0B8C02F
:1053B000BCF00001B91FBA1FBB1FBC1FB92B000EE8
:1053C000BA23BB23BC23000E0001B9250001B56F31
:1053D000000E0001BA210001B66F000E0001BB21D2
:1053E0000001B76F800E0001BC210001B86F000EF4
:1053F0000001B11B000EB21B000EB31B800EB41BCC
:10540000000E0001B51B000EB61B000EB71B800E70
:10541000B81B0001B5510001B15D0001B65100019A
:10542000B2590001B7510001B3590001B851000150
:10543000B459D8B002D0D8901200D880120081AAF6
:1054400063D041EC2FF0E806D8A4FBD7050E00018D
:10545000776F000E786F000E796F000E7A6F790EFD
:1054600000017B6F010E00017C6F080E00017D6F53
:10547000BC0E00017E6F2CEC0CF0E6C071F1000157
:10548000E7510101726F000E46B4010E0101736F06
:1054900041EC2FF0E806D8A4FBD7030E0001776F8C
:1054A000000E786F000E796F000E7A6F710E00019A
:1054B0007B6F010E00017C6F080E00017D6FBC0E3A
:1054C00000017E6F2CEC0CF041EC2FF0E806D8A424
:1054D000FBD7000E0101626F040E0001776F000E12
:1054E000786F000E796F000E7A6F610E00017B6F8E
:1054F000010E00017C6F080E00017D6FBC0E0001E3
:105500007E6F2CEC0CF012000E0E0001776F000E77
:10551000786F000E796F000E7A6F690E00017B6F55
:10552000010E00017C6F080E00017D6FBC0E0001B2
:105530007E6F2CEC0CF020EE87F069C1DFFF000ECF
:10554000E8CF88F0AA0E0001776F000E786F000E8A
:10555000796F000E7A6F870E00017B6F000E0001DD
:105560007C6F080E00017D6FBC0E00017E6F2CEC7D
:105570000CF01200C1C077F0C2C078F0C3C079F05F
:10558000C4C07AF0C90E00017B6F000E00017C6F71
:1055900040EC2DF00001CAAF17D00001C4AF0AD013
:1055A000000E0001C16F000EC26F800EC36FBF0EF0
:1055B000C46F1200000E0001C16F000EC26F000E1A
:1055C000C36F000EC46F12000001CA5105E11D0E29
:1055D0000001C95DD8A009D0C1C0C1F0C2C0C2F0ED
:1055E000C3C0C3F0C4C0C4F01200C1C077F0C2C0D1
:1055F00078F0C3C079F0C4C07AF0D8EC2BF077C053
:1056000085F078C086F079C087F07AC088F0010E06
:10561000B7EC26F085C0C5F086C0C6F087C0C7F0DD
:1056200088C0C8F0C1C0B1F0C2C0B2F0C3C0B3F00E
:10563000C4C0B4F0C5C0B5F0C6C0B6F0C7C0B7F0BE
:10564000C8C0B8F057EC29F00001D8B01CD0C5C0D4
:10565000ADF0C6C0AEF0C7C0AFF0C8C0B0F0000E2D
:105660000001B16F000EB26F800EB36FBF0EB46F4A
:105670000FEC15F0ADC0C1F0AEC0C2F0AFC0C3F0CA
:10568000B0C0C4F01200C5C0C1F0C6C0C2F0C7C0EF
:10569000C3F0C8C0C4F01200C7C0C9F0C8C0CAF087
:1056A0000001D890C937CA370001D890C937CA3726
:1056B000C5C0CBF0C6C0CCF00001C9510001CB275A
:1056C0000001CA510001CC23CBC0F6FFCCC0F7FFCC
:1056D000000EF86E0900F5CFCDF00900F5CFCEF041
:1056E0000900F5CFCFF00A00F5CFD0F052D0CDC0F1
:1056F00094F0CEC095F0CFC096F0D0C097F0C1C066
:1057000090F0C2C091F0C3C092F0C4C093F063ECBB
:1057100017F090C0ADF091C0AEF092C0AFF093C062
:10572000B0F00001C707D8A0C807C7C0C9F0C8C0FB
:10573000CAF00001D890C937CA370001D890C937DC
:10574000CA37C5C0CBF0C6C0CCF00001C9510001BA
:10575000CB270001CA510001CC23CBC0F6FFCCC03F
:10576000F7FF000EF86E0900F5CFB1F00900F5CF94
:10577000B2F00900F5CFB3F00A00F5CFB4F00FECAA
:1057800015F0ADC0CDF0AEC0CEF0AFC0CFF0B0C020
:10579000D0F00001C7510001C811D8A4A8D7CDC0CE
:1057A000C1F0CEC0C2F0CFC0C3F0D0C0C4F0120070
:1057B000000179357A350001806F00018051D8A44D
:1057C0000AD0000E0001776F000E786F000E796F1F
:1057D000000E7A6F120077C07BF078C07CF079C041
:1057E0007DF07AC07EF0200E06D00001D8907E3386
:1057F0007D337C337B33E82EF8D700017B510001E9
:105800007F6F0001798FFF0E00017717FF0E781769
:10581000FF0E7917000E7A17960E0001805F0001C7
:1058200080AF1AD000018051800A970FD8B00AD0FB
:10583000000E0001776F000E786F000E796F000E7A
:105840007A6F12000001D8907A3379337833773346
:105850000001803FF7D71BD01F0E0001806512D0DA
:10586000000E0001776F000E786F000E796F000E4A
:105870007A6F12000001D8907737783779377A3706
:1058800000018007000180510001D8A4F3D7000176
:105890007F510001D8B409D000017A1F791F781F09
:1058A000776D000E782379237A2377C077F078C05C
:1058B00078F079C079F07AC07AF01200DB0E00013E
:1058C000B16F0F0EB26F490EB36F400EB46FB2C11D
:1058D000B5F0B3C1B6F0B4C1B7F0B5C1B8F057EC8C
:1058E00029F00001D8B02ED0B2C1ADF0B3C1AEF0F6
:1058F000B4C1AFF0B5C1B0F0E40E0001B16FCB0E92
:10590000B26F960EB36FC00EB46F0FEC15F0ADC052
:10591000B6F1AEC0B7F1AFC0B8F1B0C0B9F1B6C121
:10592000D3F0B7C1D4F0B8C1D5F0B9C1D6F033ECDB
:1059300021F0D3C0B2F1D4C0B3F1D5C0B4F1D6C018
:10594000B5F11200B2C1ADF0B3C1AEF0B4C1AFF069
:10595000B5C1B0F0DB0E0001B16F0F0EB26FC90E12
:10596000B36F3F0EB46F0FEC15F0ADC0B6F1AEC023
:10597000B7F1AFC0B8F1B0C0B9F1B6C1D3F0B7C19B
:10598000D4F0B8C1D5F0B9C1D6F033EC21F0D3C012
:10599000B2F1D4C0B3F1D5C0B4F1D6C0B5F11200A4
:1059A000E9CF6BF0EACF6CF0E1CF6DF0E2CF6EF0B3
:1059B000D9CF6FF0DACF70F0F3CF71F0F4CF72F08F
:1059C000F6CF73F0F7CF74F0F8CF75F0F5CF76F02F
:1059D000F1AC07D0F19C000EB36E000EB26E46968D
:1059E00030D0B3CF44F0B2CF43F044C040F0416A6E
:1059F00040500001676F4350406E67C041F0D8903F
:105A000041300001676F40303C6E67C03DF03CC0E4
:105A100060F03DC061F0000E0001636F3A0E626FEE
:105A20008AEC2DF04250020D240EF324D96E000EA4
:105A3000F420DA6E000160C0DEFF000161C0DDFF0E
:105A4000F18CF29276C0F5FF75C0F8FF74C0F7FFD5
:105A500073C0F6FF72C0F4FF71C0F3FF70C0DAFFCD
:105A60006FC0D9FF6EC0E2FF6DC0E1FF6CC0EAFFFE
:105A70006BC0E9FF6AC0FBFF69C0FAFF48921100E2
:105A800000017751000178110001791100017A11AC
:105A9000D8A409D07BC0D9FF7CC0DAFF000EDE6E2F
:105AA000000EDD6E120000017A517F0B00017D6F48
:105AB0007E6BD89000017D377E377BC0D9FF7CC0DC
:105AC000DAFF7DC0DEFF7EC0DDFF000179AF04D0CC
:105AD00000017D6B7D2B02D000017D6B00017D51AB
:105AE0007BC0D9FF7CC0DAFFDE12000EDD127BC066
:105AF000D9FF7CC0DAFF820EDE26FF0EDD22000118
:105B00007A817A837A857A877A897A8B7A9D00017D
:105B1000799F1200000E0001666F000E656F000194
:105B2000625100016311D8B42CD0010E0001646FE2
:105B300006D00001D890623763370001642B000162
:105B400063AFF7D70001D89065376637000162511F
:105B50000001605D0001635100016159D8A00AD0C5
:105B6000000162510001605F000163510001615B4F
:105B7000000165810001D890633362330001642F16
:105B8000E1D765C060F066C061F01200000E896E5A
:105B9000F00E926E000E8A6E8A0E936E000E8B6E61
:105BA0009468C168060E0001856F050E0001866FBE
:105BB000010E0001876F030E0001886F9D0E00012A
:105BC000896F040E9EEC27F0D08EA492A490A5922B
:105BD000A590A382A380F194800ED56E110EB16EB4
:105BE000340ED76EE00ED66EF294F28AF18CF292F9
:105BF000F298F28CF28E120001EE00F0890EEE6A3D
:105C0000E806FDE100EEE0F0080EEE6AE806FDE1D0
:105C1000476A466A00EE24F0220EEE6AE806FDE1CD
:105C2000BC0EF66E5E0EF76E000EF86E01EEE6F03C
:105C300010EE0AF00900F5CFEEFFE550E150FAE171
:105C4000C60EF66E5E0EF76E000EF86E0900F5CF0A
:105C5000E8F048904892000158EF2EF009C13AF060
:105C60003B6A3A500001776F010108513A6E77C0E4
:105C70003BF00BC13EF03F6A3E500001776F0101DF
:105C80000A513E6E77C03FF03A503E240001776FD4
:105C90003B503F200001786FD8900001783100011F
:105CA000796F000177310101446F79C045F112002D
:105CB000000E0101006F010E0101016F020E0101D2
:105CC000026F030E0101036F040E0101046F050E44
:105CD0000101056F060E0101066F070E0101076F36
:105CE000C6EC2DF08198819A819C4790479481EC75
:105CF00028F02EEC2EF0B6EC19F0F9D7000E0001CA
:105D0000CF1B000ED01B000ED11B800ED21BCBC0B0
:105D1000ADF0CCC0AEF0CDC0AFF0CEC0B0F0CFC0D3
:105D2000B1F0D0C0B2F0D1C0B3F0D2C0B4F00FEC3B
:105D300015F0ADC0CBF0AEC0CCF0AFC0CDF0B0C070
:105D4000CEF012000001B0AF13D0ADC0A9F0AEC0CC
:105D5000AAF0AFC0ABF0B0C0ACF0DEEC2EF0A9C042
:105D6000ADF0AAC0AEF0ABC0AFF0ACC0B0F0120066
:105D7000ADC0ADF0AEC0AEF0AFC0AFF0B0C0B0F0EF
:105D80001200E8C077F00001786B7DC079F07EC02A
:105D90007AF0FAEC2EF077C0E4F078C0E5F007D0A6
:105DA000500EE82EFED70001E407D8A0E507000159
:105DB000E4510001E511D8B41200F2D70001A95155
:105DC0000001AA110001AB110001AC11D8B409D037
:105DD000000E0001A91B000EAA1B000EAB1B800EBB
:105DE000AC1BA9C0A9F0AAC0AAF0ABC0ABF0ACC074
:105DF000ACF012000001775100017903F3CF7BF082
:105E0000F4CF7CF00001775100017A03F3500001D8
:105E10007C270001785100017903F35000017C27B1
:105E20007BC077F07CC078F01200000182AF0ED00A
:105E300081C083F082C084F00001831F841F834BE4
:105E4000842B83C081F084C082F0120081C081F075
:105E500082C082F0120000017F6F000E0001806F8F
:105E600009D0030E00017E6FE80E7D6FC1EC2EF0AD
:105E70000001802B00017F510001805DD8B012002D
:105E8000F0D7010E0001776F0F0140A709D00F0175
:105E900030A706D00F0120A703D0000E0001776FB6
:105EA0000001775112000001776F77C06FFF6E50CD
:105EB000E00B00017719D8B41200F9D700000042B6
:085EC0006400000060421000C4
:020000040020DA
:08000000FFFFFFFFFFFFFFFF00
:020000040030CA
:0E000000FF021F1EFF8081FF3FC03FE03F4018
:00000001FF
